:020000040800F2
:10000000282B0020E5E800083DE200083FE2000858
:1000100041E2000843E2000845E200080000000059
:1000200000000000000000000000000047E200089F
:1000300049E20008000000004BE200084DE2000821
:10004000F1EB0008F5EB0008F9EB0008FDEB000808
:1000500001EC000805EC000809EC00080DEC0008B4
:1000600011EC000815EC000819EC00081DEC000864
:1000700021EC00089DE2000825EC0008A7E200083A
:1000800029EC00082DEC000831EC000835EC0008E4
:1000900039EC00083DEC000841EC000845EC000894
:1000A00049EC00084DEC000851EC000855EC000844
:1000B00059EC000800000000000000005DEC0008A2
:1000C00061EC000865EC000869EC00086DEC0008C4
:1000D00071EC0008B1E2000875EC0008BBE2000812
:1000E00079EC0008C5E200080000000000000000F4
:1000F0000000000000000000000000000000000000
:10010000000000007DEC00080000000081EC000809
:10011000000000000000000085EC000889EC0008E9
:100120008DEC000891EC000895EC000899EC0008B3
:100130009DEC00080000000000000000000000002E
:10014000A1EC0008A5EC0008A9EC0008ADEC000843
:10015000B1EC0008CFE20008D9E20008B5EC0008D5
:10016000B9EC0008BDEC0008C1EC0008000000007C
:10017000C5EC0008C9EC0008CDEC00080000000048
:10018000D1EC0008D5EC0008D9EC000880B5DFF808
:10019000C0090078012806D0022807D0042808D01A
:1001A000082809D00BE000F09DF808E000F0D8FC2A
:1001B00005E000F043FE02E000F096FFFFE701BD1E
:1001C0002DE9F0470024DFF88C592888002804D056
:1001D0002888401E2880002082E0DFF87469307A89
:1001E00000287CD12021DFF8700901F07DFB002878
:1001F00001D1012700E00027DFF860890421404693
:1002000001F072FB002802D15FF0010901E05FF00C
:1002100000090221404601F067FB002802D15FF08F
:10022000010A01E05FF0000A0121404601F05CFB99
:10023000002801D1012000E0002057EA490757EAD1
:100240008A073C0054EAC0042000C0B2012805D04F
:10025000022803D0042801D0082836D17068401C39
:100260007060706850282FD3347001203072DFF82E
:10027000B81B0868142801D219202880DFF8AC0BBD
:1002800022000378D2B29A4219D10A68521C0A603D
:100290000A681E2A02D20021716014E00A68B42A9A
:1002A00002D2412171600EE00A68F02A02D2462192
:1002B000716008E04E227260F0220A6003E00022C2
:1002C000726000220A60047009E00020DFF85C1B05
:1002D0000870282070600020DFF84C1B0860307820
:1002E000BDE8F0877FB5DFF8484BA078002814D030
:1002F000012836D0022865D0032800F0DC800428CD
:1003000000F05F81052800F01082062800F094823A
:10031000082800F0598300F01ABCDFF83458002098
:10032000E860DFF8106B0A220021300001F062FB68
:1003300030203070302070703020B0703020F0707D
:10034000E8680001801CC0B203900296052001906D
:1003500004200090052300220121A01C02F0DAF8FD
:10036000F5E3DFF8EC07C168491CC160C1680429E6
:100370001EDBDFF8C00A02F0E8F8012815D1A51C41
:100380000622290014F1080001F082FBF1200390FD
:10039000002002900B2001900720009007230022EC
:1003A0000221280002F0B6F80BE00020A07008E05F
:1003B000C0680001801C0200D2B20021A01C02F023
:1003C00086F8C4E32079072807D073D3092830D0F2
:1003D00019D30B2859D042D36CE0A51C0622290062
:1003E00014F1080001F054FBF1200390002002906A
:1003F0000E2001900D2000900D23002203212800E3
:1004000002F088F856E0A51C0622290014F1080025
:1004100001F03EFBF1200390002002901320019098
:1004200011200090112300220421280002F072F80C
:1004300040E0A51C0622290014F1080001F028FB69
:10044000F1200390002002901620019015200090CA
:10045000152300220521280002F05CF82AE0A51CE3
:100460000622290014F1080001F012FBF12003908C
:10047000002002901A2001901820009018230022DA
:100480000621280002F046F814E0A51C06222900E7
:1004900014F1080001F0FCFA002003900020029003
:1004A0001D2001901D2000901D23002207212800FF
:1004B00002F030F84BE320790D2802D00E2840D00E
:1004C0007EE0E078002802D001281FD038E0A61C8A
:1004D0000622310014F1080001F0DAFADFF8705654
:1004E000F220039015F10C0002900E2001900D20D7
:1004F00000900D23E278521CD2B20321300002F0AA
:1005000009F8DFF834094078E86019E0A51C0622F4
:10051000290014F1080001F0BBFAF020039000203C
:10052000029020200190202000902023002208210A
:10053000280001F0EFFF0120DFF8FC180870FFE74A
:100540003EE0E078002802D001281FD038E0A61C49
:100550000622310014F1080001F09AFADFF8F05594
:10056000F220039015F10C0002900E2001900E2055
:1005700000900E23E278521CD2B20321300001F029
:10058000C9FFDFF8B4084068E86019E0A51C06223E
:10059000290014F1080001F07BFAF02003900020FC
:1005A000029020200190202000902023002208218A
:1005B000280001F0AFFF0120DFF87C180870FFE78A
:1005C000C5E22079112806D0C0F0AE80132800F0D3
:1005D0008E8046D3A8E0E078002802D001281FD002
:1005E0003EE0A61C0622310014F1080001F050FA8A
:1005F000DFF85C55F220039015F10C0002901320F7
:100600000190112000901123E278521CD2B20421F3
:10061000300001F07FFFDFF82008C068E8601FE0CD
:10062000A51C0622290014F1080001F031FAF0207F
:100630000390002002902020019020200090202391
:1006400000220821280001F065FFDFF8881ADFF892
:100650000005C06808800222032002F0A8FCFFE722
:1006600062E0E078002802D001281FD03EE0A61CFE
:100670000622310014F1080001F00AFADFF8D05424
:10068000F220039015F10C0002901320019011202C
:1006900000901223E278521CD2B20421300001F003
:1006A00039FFDFF89407C068E8601FE0A51C062248
:1006B000290014F1080001F0EBF9F020039000206C
:1006C0000290202001902020009020230022082169
:1006D000280001F01FFFDFF8FC19DFF87404C06880
:1006E00008800222042002F062FCFFE71CE0A51C47
:1006F0000622290014F1080001F0CAF9F020039045
:100700000020029020200190202000902023002231
:100710000821280001F0FEFEDFF8B819002008804B
:100720000222052002F043FC11E22079152802D0B4
:10073000162840D07FE0E078002802D001281FD0A2
:1007400038E0A61C0622310014F1080001F0A0F9DF
:10075000DFF8FC53F220039015F10C0002901620F4
:100760000190152000901523E278521CD2B2052189
:10077000300001F0CFFEDFF8C006C069E86019E084
:10078000A51C0622290014F1080001F081F9F020CF
:100790000390002002902020019020200090202330
:1007A00000220821280001F0B5FE0120DFF888169C
:1007B0000870FFE73FE0E078002802D001281FD052
:1007C00038E0A61C0622310014F1080001F060F99F
:1007D000DFF87C53F220039015F10C0002901620F4
:1007E0000190152000901623E278521CD2B2052108
:1007F000300001F08FFEDFF84006006AE86019E083
:10080000A51C0622290014F1080001F041F9F0208E
:1008100003900020029020200190202000902023AF
:1008200000220821280001F075FE0120DFF80816DB
:100830000870FFE7FFE78AE12079182806D0C0F0AA
:10084000C2801A2800F080803FD3BCE0E078002806
:1008500002D001281ED037E0A61C0622310014F178
:10086000080001F015F9BA4DF220039015F10C00C3
:1008700002901A200190182000901823E278521C50
:10088000D2B20621300001F045FEDFF84C080078B6
:10089000E86019E0A51C0622290014F1080001F007
:1008A000F7F8F020039000200290202001902020F3
:1008B0000090202300220821280001F02BFE0120B7
:1008C000DFF874150870FFE77DE0E078002802D0BB
:1008D00001281ED037E0A61C0622310014F10800C2
:1008E00001F0D6F89A4DF220039015F10C00029019
:1008F0001A200190182000901923E278521CD2B2DD
:100900000621300001F006FEDFF82C05C06AE86021
:1009100019E0A51C0622290014F1080001F0B8F81E
:10092000F0200390002002902020019020200090D1
:10093000202300220821280001F0ECFD0120DFF82F
:10094000F8140870FFE73EE0E078002802D00128A4
:100950001ED037E0A61C0622310014F1080001F079
:1009600097F87B4DF220039015F10C0002901A20AD
:100970000190182000901A23E278521CD2B206216E
:10098000300001F0C7FDDFF8B004006BE86019E04B
:10099000A51C0622290014F1080001F079F8F020C6
:1009A000039000200290202001902020009020231E
:1009B00000220821280001F0ADFD0120DFF87814A5
:1009C0000870FFE7FFE7C2E0207A032808D0C0F0F4
:1009D000BD80052837D0C0F0B68006286BD0B5E0C2
:1009E000322001F089FA0320DFF84C140870A07A55
:1009F0000D2802D00E2809D024E0DFF8E006417867
:100A00005348C068C0B203F06AF91BE0002001003F
:100A1000C9B20B290FDADFF8C8160200D2B251F8BA
:100A200022104B4AD268914203D1DFF8B0164870C9
:100A300001E0401CEBE7DFF8A4064178007803F002
:100A40004EF9FFE782E0DFF8F053032028703220F0
:100A500001F052FAA07A152802D0162815D029E004
:100A6000287A03F04DFB00EE100ADFF87806D0ED8F
:100A7000060A374890ED031AB8EEC11AB8EE400ADC
:100A800081EE000A02F025FB14E0687A03F038FBDF
:100A900000EE100A2E48D0ED030AF8EEE00AB8EE98
:100AA000400AC0EE800ADFF83C0690ED050A02F02D
:100AB00010FBFFE74AE0DFF8805303202870322064
:100AC00001F01AFAA07A182804D03BD31A2823D0B0
:100AD0000CD337E0DFF80006D0ED020A90ED010AF2
:100AE0001B48C068C0B202F0A2FB2BE0A87A03F05A
:100AF00007FB00EE100ADFF8E0051549D1ED030A07
:100B0000F8EEE00AB8EE400AC0EE800A90ED010A65
:100B1000007802F08CFB15E0A87A03F0F1FA00EE01
:100B2000100ADFF8B405D0ED020A094991ED031A65
:100B3000B8EEC11AB8EE400A81EE000A007802F061
:100B400076FBFFE702E002F022FAFFE7FFE77FBD56
:100B50003C26002000270020000800480004004830
:100B600070B5DFF8CC32987800280BD002281AD064
:100B700009D3042872D023D3062800F0FB80C0F0EC
:100B8000C6804FE14EE1AB48DFF8081ACA68825CC4
:100B9000521CCB68C254CA68825C3A2A02DB3022FB
:100BA000C96842543EE158791979884202D21879CD
:100BB000401E1871F1220021981C01F088FC31E1DF
:100BC000D87800280CD158791979884202D218793E
:100BD000401E1871F1220021981C01F078FC3CE0C5
:100BE00018790D2802D00E2812D036E0D8780028C7
:100BF00002D0012801D00AE009E0DFF89809C168B5
:100C0000B1F5807F02DAC168491CC160FFE724E0CA
:100C1000D878002802D0012801D01EE01DE0002174
:100C20000800C0B20B2817DADFF8B424DFF8640933
:100C30000B00DBB252F82330C468A3420AD10B0088
:100C4000DBB20A2B06DA0B00DBB202EB830252683E
:100C5000C26001E0491CE3E7FFE7E3E0D878002841
:100C60000CD158791979884202D21879401E18712E
:100C7000F1220021981C01F02AFC47E01879112884
:100C800004D043D3132841D020D33FE0D8780028A4
:100C900002D0012801D018E017E0DFF8FC58287ACC
:100CA00003F02EFA0A26DFF8EC48E16870430A38B0
:100CB000814203D2E0680A30E06005E0287A03F060
:100CC0001FFA06FB00F6E660FFE71FE0D878002871
:100CD00002D0012801D018E017E0DFF8BC58287ACC
:100CE00003F00EFA0A26DFF8AC48E16870430A38D0
:100CF000814203D2E0680A30E06005E0287A03F020
:100D0000FFF906FB00F6E660FFE7FFE78AE0D87828
:100D100000280CD158791979884202D21879401EDE
:100D20001871F1220021981C01F0D1FB21E0187903
:100D3000152802D016280ED01BE0D878002802D043
:100D4000012801D006E005E0DFF84808C168491C29
:100D5000C160FFE70DE0D878002802D0012801D05B
:100D600006E005E0DFF82C08C168491CC160FFE718
:100D7000FFE757E0D87800280CD1587919798842D4
:100D800002D21879401E1871F1220021981C01F03E
:100D90009EFB46E01879182804D042D31A282CD09C
:100DA00013D33EE0D878002802D0012801D00BE010
:100DB0000AE0DFF8E017C868002802D10120C86007
:100DC00001E00020C860FFE72BE0D878002802D0BF
:100DD000012801D010E00FE0DFF8BC07807A03F0B3
:100DE0008FF9DFF8B027D3680A214843834202D243
:100DF000D068401CD060FFE713E0D878002802D00C
:100E0000012801D00CE00BE0DFF88807C168DFF8AB
:100E10008827D26A914202DAC168491CC160FFE7A3
:100E2000FFE7FFE770BD0000B82600201027002074
:100E300084260020000000207C00002010B5DFF890
:100E40005C37987800280BD002281BD009D30428DF
:100E500072D024D3062800F0E380C0F0AE8037E1E2
:100E600036E1DFF83C07DFF82C17CA68825C521EB7
:100E7000CB68C254CA68825C302A02DA3922C96857
:100E8000425425E118799979884202D21879401C98
:100E90001871F1220021981C01F019FB18E1D87893
:100EA00000280CD118799979884202D21879401C0F
:100EB0001871F1220021981C01F009FB3BE0187920
:100EC0000D2802D00E2811D035E0D878002802D0A5
:100ED000012801D009E008E0DFF8B806C16801295F
:100EE00002DBC168491EC160FFE724E0D878002812
:100EF00002D0012801D01EE01DE00A221000C0B27D
:100F0000002817D0764BDFF88C161000C0B253F8CB
:100F10002000CC68A0420BD11000C0B2002807D03E
:100F20001000C0B203EB800050F8040CC86001E070
:100F3000521EE3E7FFE7CBE0D87800280CD1187900
:100F40009979884202D21879401C1871F122002147
:100F5000981C01F0BCFA2FE01879112804D02BD38B
:100F6000132829D014D327E0D878002802D00128EC
:100F700001D00CE00BE0DFF81C06C1680B2903DB95
:100F8000C1680A39C16001E00021C160FFE713E0D8
:100F9000D878002802D0012801D00CE00BE0DFF85F
:100FA000F405C1680B2903DBC1680A39C16001E09F
:100FB0000021C160FFE7FFE78AE0D87800280CD164
:100FC00018799979884202D21879401C1871F12257
:100FD0000021981C01F07BFA21E01879152802D035
:100FE00016280ED01BE0D878002802D0012801D0A6
:100FF00006E005E0DFF89C05C168491EC160FFE717
:101000000DE0D878002802D0012801D006E005E0E4
:10101000DFF88005C168491EC160FFE7FFE757E0C0
:10102000D87800280CD118799979884202D2187999
:10103000401C1871F1220021981C01F048FA46E08A
:101040001879182804D042D31A2828D013D33EE0A8
:10105000D878002802D0012801D00BE00AE0DFF8A0
:101060003415C868002802D10120C86001E00020C2
:10107000C860FFE72BE0D878002802D0012801D013
:101080000CE00BE0DFF80C05DFF80C15096BC2680B
:10109000914202DAC168491EC160FFE717E0D878C3
:1010A000002802D0012801D010E00FE0DFF8E804AA
:1010B000807A03F025F8DFF8DC2400214843D1686A
:1010C000884202D2D068401ED060FFE7FFE7FFE70A
:1010D00010BD000002270020A0260020EC0A0020FE
:1010E00084050020FC2500207FB5DFF8B044A078FF
:1010F000002811D0022813D00FD3042800F08680D6
:1011000011D3062800F08781C0F01481082800F070
:101110003282C0F029823BE23AE20020A07037E23E
:101120000020A07034E220790D2802D00E2836D09D
:101130006BE0E078002802D0012816D02EE0A51C34
:10114000F1200390002002900B20019007200090D6
:10115000072300220221280001F0DCF906222900E1
:1011600014F1080000F094FC18E0A51C06222900E8
:1011700014F1080000F08CFCF1200390DFF8240447
:1011800002900E2001900D2000900D23E078421E69
:10119000D2B20321280001F0BDF9FFE735E0E07885
:1011A000002802D0012816D02EE0A51CF1200390C3
:1011B000002002900B2001900720009007230022BE
:1011C0000221280001F0A6F90622290014F10800E6
:1011D00000F05EFC18E0A51C0622290014F10800AE
:1011E00000F056FCF1200390DFF8BC0302900E20C3
:1011F00001900D2000900E23E078421ED2B2032110
:10120000280001F087F9FFE7FFE7C1E12079112805
:1012100005D0C0F08E80132875D03AD389E0E078ED
:10122000002802D0012816D032E0A51CF12003903E
:10123000002002900B20019007200090082300223C
:101240000221280001F066F90622290014F10800A5
:1012500000F01EFC1CE0A61C0622310014F1080060
:1012600000F016FCCC4DF120039015F12400029003
:1012700013200190112000901123E078421ED2B279
:101280000421300001F046F9C248C0686862FFE7F7
:101290004FE0E078002802D0012816D032E0A51CEB
:1012A000F1200390002002900B2001900720009075
:1012B000082300220221280001F02CF9062229002F
:1012C00014F1080000F0E4FB1CE0A61C062231002B
:1012D00014F1080000F0DCFBAF4DF120039015F194
:1012E0002800029013200190112000901223E07832
:1012F000421ED2B20421300001F00CF9A548C068AA
:10130000A862FFE715E0A51CF120039000200290E1
:101310000B200190072000900823002202212800C2
:1013200001F0F8F80622290014F1080000F0B0FBE3
:10133000FFE72DE12079152802D0162835D069E085
:10134000E078002802D0012816D02DE0A51CF1205D
:101350000390002002900B200190072000900923A9
:1013600000220221280001F0D5F80622290014F1FC
:10137000080000F08DFB17E0A51C0622290014F1DF
:10138000080000F085FBF1200390884802901620A9
:101390000190152000901523E078421ED2B205215D
:1013A000280001F0B7F8FFE734E0E078002802D029
:1013B000012816D02DE0A51CF120039000200290FA
:1013C0000B20019007200090092300220221280011
:1013D00001F0A0F80622290014F1080000F058FBE3
:1013E00017E0A51C0622290014F1080000F050FBAC
:1013F000F12003906E480290162001901520009075
:101400001623E078421ED2B20521280001F082F8AE
:10141000FFE7FFE7BCE02079182805D0C0F0A380E3
:101420001A286BD035D39EE0E078002802D001283E
:1014300016D02DE0A51CF1200390002002900B2077
:101440000190072000900A2300220221280001F0C9
:1014500061F80622290014F1080000F019FB17E0DA
:10146000A51C0622290014F1080000F011FBF12050
:101470000390504802901A200190182000901823E1
:10148000E078421ED2B20621280001F043F8FFE7BF
:1014900069E0E078002802D0012816D02DE0A51CD4
:1014A000F1200390002002900B2001900720009073
:1014B0000A2300220221280001F02CF8062229002C
:1014C00014F1080000F0E4FA17E0A51C0622290038
:1014D00014F1080000F0DCFAF12003903648029085
:1014E0001A200190182000901923E078421ED2B2F1
:1014F0000621280001F00EF8FFE734E0E07800282C
:1015000002D0012816D02DE0A51CF1200390002068
:1015100002900B200190072000900A230022022154
:10152000280000F0F7FF0622290014F1080000F05F
:10153000AFFA17E0A51C0622290014F1080000F0FC
:10154000A7FAF12003901D4802901A20019018205C
:1015500000901A23E078421ED2B20621280000F043
:10156000D9FFFFE7FFE713E0062214F10801A01CF2
:1015700000F08EFA0CE0084D2878022807D00622E9
:1015800014F10801A01C00F083FA00202870FFE786
:101590007FBD00003C2600207C0000208426002027
:1015A000000000207D000020800000209800002026
:1015B0009C000020A0260020A8000020AC000020F5
:1015C000F8B4030000250868E840002800F0D78040
:1015D00001260F6816FA05F007403A00002A00F0CD
:1015E000CC80087910F00300012804D0087910F0AD
:1015F000030002281DD19F685FF0030C2800C0B2D1
:1016000040001CFA00FC37EA0C07D1F80CC0280097
:10161000C0B240001CFA00FC5CEA07079F605868F3
:10162000AE40B0434E68C6F30016AE4030430400EF
:101630005C60087910F0030003280ED0DE680327F1
:101640002800C0B240008740BE438F682800C0B267
:10165000400087403E433400DC60087910F003000E
:10166000022818D12800C00803EB8000066A0F2763
:1016700015F00700C0B280008740BE430F6915F027
:101680000700C0B2800087403E4334002800C008F5
:1016900003EB800004621E6803272800C0B24000EC
:1016A0008740BE430F7917F003072800C0B24000FF
:1016B00087403E4334001C60486810F4403F5CD0D3
:1016C0009548066856F001060660006810F00100B3
:1016D00000900098914F2800800857F820605FF034
:1016E0000F0C15F00300C0B280001CFA00FC36EAB3
:1016F0000C06B3F1904F01D1002414E088488342D6
:1017000001D101240FE08748834201D102240AE07D
:101710008548834201D1032405E08448834201D1F6
:10172000042400E0072415F00300C0B280008440C8
:1017300026432800800847F820607D4C20689043AD
:101740004F68FF0200D5104320607A4E34689443FE
:101750004F68BF0200D514433460774E3068904321
:101760004F68BF0300D510433060744E3468944313
:101770004F68FF0300D5144334606D1C23E7F1BCB0
:1017800070472DE9F041030000250800E8400028DB
:1017900000F0A880012616FA05F008400200002A91
:1017A00000F09E80DFF874C1280080085CF82000FB
:1017B0000F2715F0030E5FFA8EFE5FEA8E0E17FA02
:1017C0000EFE1EEA00000400B3F1904F02D15FF05C
:1017D000000E19E05248834202D15FF0010E13E07F
:1017E0005048834202D15FF0020E0DE04E48834222
:1017F00002D15FF0030E07E04C48834202D15FF054
:10180000040E01E05FF0070E15F00300C0B2800087
:101810001EFA00FE74452CD14848D0F800E03EEA9C
:10182000020EC0F800E04448D0F800E03EEA020EA4
:10183000C0F800E03F48D0F800E03EEA020EC0F8F1
:1018400000E03B48D0F800E03EEA020EC0F800E0BD
:1018500015F00300C0B2800017FA00F00400280061
:1018600080085CF82000A043AE465FEA9E0E4CF86C
:101870002E005FF0030C1868AE465FFA8EFE5FEA3A
:101880004E0E1CFA0EFE5EEA000018602800C0082A
:1018900003EB800E2800C00803EB8000D0F8208006
:1018A00015F00700C0B28000874038EA0707CEF87D
:1018B000207098682F00FFB27F001CFA07F7B8432A
:1018C00098605868AE4030EA06065E60DE68280020
:1018D000C0B240001CFA00FC36EA0C0CC3F80CC085
:1018E0006D1C52E7BDE8F081020010690B009BB24D
:1018F000184201D0012000E00020C0B27047130060
:10190000DBB2002B03D00B009BB2836102E00B0023
:101910009BB28362704700006010024008000140E3
:101920000004004800080048000C0048001000486F
:10193000080401400C04014004040140000401407B
:1019400038B504000D00DFF8FC010168200000F04C
:1019500006F8A84201D3012000E0002032BD8142F8
:1019600004D25FF0FF32101A081800E0081A70471E
:1019700038B52DED048B08EE100A0C001500DFEDD4
:10198000438A2800C0B2FB2810DBB8EEC89A2800B2
:10199000C0B24042C0B200F08BF829EE009A00219C
:1019A0002000B0EE490A00F0B1F80EE0B8EEC89A97
:1019B0002800C0B200F07CF889EE009A2900C9B274
:1019C0002000B0EE490A00F0A1F8BDEC048B31BD57
:1019D00010B400210A00838892B29A4206D20022F3
:1019E00003680C00A4B21A55491CF3E70022828058
:1019F00010BC704710B4040013005A1E9BB2002B99
:101A000002D02170641CF7E710BC704770B5040069
:101A10000D001600DFF8240100782100C9B28842C9
:101A200009D3DFF824211068002804D0310089B2DE
:101A300028001268904770BD38B504000D002800DA
:101A400002F064FD020092B229002000C0B2FFF74C
:101A5000DDFF31BD70B504000D00280002F056FD19
:101A6000020092B229002000C0B2FFF7CFFFDFF8DA
:101A7000DC603068002807D0280002F047FD010034
:101A800089B228003268904770BD00000000000055
:101A900030B404000D0013005A1E9BB2002B04D07A
:101AA0002B7823706D1C641CF5E730BC7047000078
:101AB00010B504002000C0B2FB2816DB2000C0B225
:101AC000D0F5807002F05AFD41EC110B9FED200B18
:101AD00002F06DFD53EC102B0020194902F070FD4F
:101AE00002F092FE00EE100A0FE02000C0B202F0F9
:101AF000BFFE41EC110B9FED160B02F058FD51ECAF
:101B0000100B02F081FE00EE100A10BD38B52DED6D
:101B1000028B82B0B0EE408A04000D0018EE100A6D
:101B200002F0B4FECDE900012A000B49200002F0CA
:101B3000D1FE02B0BDEC028B31BD0000F00A0020E6
:101B40000000F03FF0260020F8260020F4260020B8
:101B50000000000000002440D8EB000880B50022FF
:101B60004FF40071DFF8BC0AFFF7C9FE00224FF402
:101B700000715FF09040FFF7C2FE02F0CBFEDFF88D
:101B8000A80ADFF8A81A4A1CC0F840210A1DC0F8AC
:101B9000582111F11402026211F1180282634A7A8B
:101BA00080F83D2011F10C02C0F888210A7A80F8F3
:101BB0008D2111F12402C0F8A0210A7A80F8A52114
:101BC00011F12802C0F8B8210A7A80F8BD2111F17C
:101BD0001C02C0F800220A7A80F8052211F12002C6
:101BE000C0F818224A7A80F81D22DFF8442AC0F88B
:101BF000482211F12C02C0F860228A7A80F865220E
:101C000011F13002C0F87822897A80F87D12DFF86D
:101C1000241A0968C0F8C012DFF81C1A0968C0F855
:101C2000F01201BD38B5002000242000C0B2072802
:101C300035DADFF8085A2000C0B2000128444078A5
:101C400001282AD12000C0B20001284440680028A1
:101C50000ED002F0B7FE2100C9B20901294449683B
:101C6000401A2100C9B2090129448968884214D365
:101C700000202100C9B209012944487002F0A2FEE7
:101C80002100C9B20901294448602000C0B22100E6
:101C9000C9B209012944C9688847641CC5E7002006
:101CA00032BD38B50400DFF89859687800281FD194
:101CB00000224FF40071DFF86C09FFF720FE0022CC
:101CC0004FF400715FF09040FFF719FE02F022FE22
:101CD00089200090202307220521DFF8680902F0FF
:101CE00077FE012068700221DFF8500902F0B8FF8A
:101CF000012032BD7CB50400DFF84C59287800285B
:101D000003D0022823D003D33DE002F0D3FF3AE012
:101D100003F046F889200090202307220521DFF8F0
:101D2000240902F055FEDFF8242903212C2002F0BB
:101D300069FFDFF81C290421082002F063FF03F08B
:101D40008CF841F28830DFF8F41888611BE001203C
:101D5000DFF8EC1848708920009020230722052125
:101D6000DFF8E00802F034FEDFF8D068022130002E
:101D700002F076FF0321300002F072FF04213000F0
:101D800002F06EFFFFE72878401C28702100C9B2DE
:101D9000DFF8A80802F073FF012076BD70B50400DB
:101DA00000F0BCF8DFF898586878012803D1A878CB
:101DB00000F064FB04E00021DFF8800802F050FF2F
:101DC000DFF89008A9780278914207D0A9780170CD
:101DD000DFF884080068DFF884180860A87809280C
:101DE00012D1DFF878684FF4FA613068FFF7A8FD88
:101DF000012809D1DFF8600800683060062215F17B
:101E00000801A81CFFF744FE2100C9B2DFF82C0826
:101E100002F035FF012070BD10B50400DFF8401856
:101E2000DFF840080069FFF78BFD012827D1DFF8B4
:101E300038080178012905D1002101700020DFF860
:101E400000188870DFF824080188491C018042F2DC
:101E50001071DFF8E8272300DBB21B011A449268F7
:101E6000B1FBF2F102888A420DD300210180DFF834
:101E7000D0178878002806D00020887003E0012061
:101E8000DFF8E41708702100C9B2DFF8B00702F0EC
:101E9000F6FE012010BD38B50400FEF791F9DFF819
:101EA000C457287A012808D10521DFF8900702F0ED
:101EB000D7FEDFF8A407006828612100C9B2DFF867
:101EC0007C0702F0DCFE012032BD10B50400FEF7F5
:101ED0005DF9DFF8900700210170002101720120F7
:101EE00010BD10B5040000224FF40051DFF8340794
:101EF000FFF705FD012010BD10B5040001224FF4CD
:101F00000051DFF82007FFF7FAFCDFF83007210067
:101F100089B28166062102F0B2FE10BD38B5DFF845
:101F20000C47DFF84C0701786170DFF848174078FC
:101F300051F820006060207A02F0E2F800EE100A0A
:101F4000DFF83457B8EE400AD5ED010A20EE200A3A
:101F5000BDEEC00A84ED030A607A02F0D1F800EE0B
:101F6000100AB8EE400AD5ED020A20EE200ABDEEB6
:101F7000C00A84ED040AFE2002F0C2F800EE100A46
:101F8000B8EE400AD5ED030A20EE200ABDEEC00AE5
:101F900084ED050A607A02F0B3F800EE100AB8EE9C
:101FA000400AD5ED040A20EE200ABDEEC00A84EDF9
:101FB000060A207A02F0A4F800EE100AB8EE400AF1
:101FC000D5ED050A20EE200ABDEEC00A84ED070A11
:101FD000607A02F095F800EE100AB8EE400AD5EDEE
:101FE000060A20EE200ABDEEC00A84ED080AA07A97
:101FF00002F086F800EE100ADFF83456B8EE400A18
:10200000D5ED020A20EE200ABDEEC00A84ED0B0ACF
:10201000A07A02F075F800EE100AB8EE400AD5ED8D
:10202000010A20EE200ABDEEC00A84ED0C0A31BD83
:102030002DE9F84F8AB006002021002202AC2000D2
:1020400002F078FF0024002500208DF80500002014
:102050008DF806001827DFF8D0853000C0B278432D
:10206000404490F815903000C0B278434044406836
:10207000002842D001213000C0B200F0A9F90028A8
:102080000ED13000C0B27843404442683000C0B244
:1020900078434044017D4846C0B202F0B3FD1EE0E3
:1020A0005FF0000A3000C0B278434044406802F05C
:1020B0002DFA5146C9B2814207D2202002A95246C8
:1020C000D2B288541AF1010AECE702AA3000C0B279
:1020D00078434044017D4846C0B202F093FD300091
:1020E000C0B278434044406802F010FADFF88C1523
:1020F0000979491C484310FA89F93000C0B2784385
:1021000040448068002800F03A813000C0B2784333
:102110004044007B00280BD002281ED012D3042894
:1021200030D024D3062845D036D307283ED044E00B
:102130003000C0B278434044806800780021040039
:102140000D003AE03000C0B278434044806890F916
:102150000000C11704000D002FE03000C0B278432A
:10216000404480680088002104000D0025E0300014
:10217000C0B2784340448068B0F90000C117040041
:102180000D001AE03000C0B2784340448068006817
:10219000002104000D0010E03000C0B2784340443C
:1021A00080680068C11704000D0006E001208DF86A
:1021B000050002E002208DF805009DF805000028CA
:1021C0000CD13000C0B278434044407B4042020012
:1021D000D2B202A92000FFF7CBFB26E09DF8050054
:1021E00001281AD13000C0B278434044806802F020
:1021F0008DF9202819D23000C0B27843404480685D
:1022000002F084F9020092B23000C0B27843404438
:10221000816802A8FFF73CFC07E03000C0B27843B9
:102220004044806800788DF8080002213000C0B278
:1022300000F0CEF8012823D13000C0B278434044EA
:10224000807DC0B200098DF806009DF806000F28B9
:1022500005D0202002A99DF80620885410E05FF0E8
:10226000000A02A802F052F95146C9B2814207D2CF
:10227000202002A95246D2B288541AF1010AF0E78E
:102280003000C0B201285ED15FF0000A00208DF856
:1022900004003000C0B278434044407B002802D0A4
:1022A00009208DF80400392000902E2315220F21DB
:1022B000DFF8CC0302F072FE02A802F027F9834691
:1022C000DFF8B8030079401C00FB0BFB5846C0B296
:1022D000022190FBF1F01F280BDA5846C0B2022110
:1022E00090FBF1F0D0F140009DF8041050FA81FA13
:1022F00007E05846C0B2D0F15F009DF8041050FAD4
:1023000081FA02AA3000C0B278434044007D401CEC
:10231000C0B2DFF868134979D1EBC001491EC9B2D8
:102320005046C0B202F0E4FF5AFA8BF09DF80490D8
:10233000B0EB090989200090202307220521C1481C
:1023400002F046FB1BE08920009020230722052194
:10235000BC4802F03DFB02AA3000C0B278434044C2
:10236000017D4846C0B202F04DFC02A802F0CEF852
:10237000C2490979491C484310FA89F08146300066
:10238000C0B278434044006900281ED03000C0B27B
:10239000784340448068002817D03000C0B27843AA
:1023A00040448068B74988420FD03000C0B27843BB
:1023B000404402693000C0B207FB00F708EB070099
:1023C000017D4846C0B202F01DFC0BB0BDE8F08FA5
:1023D000F8B504000D0094492200D2B218204243FF
:1023E00001EB0200817D2800C0B201402800C0B28C
:1023F00081422FD18826A44F4FF496712800C0B295
:10240000704338442200D2B250F82200FFF798FA05
:1024100001282AD12800C0B206FB00F607EB06000F
:102420002100C9B28C4A126840F821202220974925
:102430002A00D2B242430A442300DBB22E00F6B295
:1024400000FB06F008442100C9B2405CD0F1010055
:10245000D0540AE08D492A00D2B22220424301EB37
:1024600002002100C9B2002242548849EDB2222064
:10247000454301EB0500E4B2005DF2BD70B5040018
:10248000002602F08DFC00F077F82000C0B200F0CA
:102490007DF82000C0B200F093F80025280080B23B
:1024A000222811DA60492A0092B21820424301EB37
:1024B0000200C07D2100C9B2884203D12800C0B209
:1024C000FFF7B6FD6D1CE9E702F0C7FC70BDF0B484
:1024D0004271C47803792500EDB2AB420AD3F025EE
:1024E000514E2700FFB218235F4306EB07039D758B
:1024F000641CEFE718234C4C85785D4325444679EE
:10250000AE75002904D0857803FB05F32344996058
:10251000F0BC70472DE9F84F0700884691469A466F
:102520000A9E0B9DDDF830B00D9C87F8008087F87F
:10253000019087F802A0FE703D712200D2B2594688
:102540003800FFF7C4FFBDE8F18F10B4010000228E
:102550001000C0B204280CD21000C0B2085C4C4B72
:102560001400E4B21B5D984201D0002002E0521C2E
:10257000EEE7012010BC704780B5012000900823D1
:102580007F220821002002F037FF01BD10B50400B2
:102590002000C0B2002812D137480078002807D1A7
:1025A0001EA2214890F84410782002F02BFB06E090
:1025B0001BA21D4890F84410782002F023FB10BDA8
:1025C0000100C9B2082924D118490978002906D088
:1025D00002290ED008D3042915D00FD318E02D49B5
:1025E000114AC2F8081318E02B490F4AC2F8081321
:1025F00013E02A490C4AC2F808130EE028490A4A97
:10260000C2F8081309E02749074AC2F8081304E092
:1026100003E02049044AC2F8081370472000000074
:102620004E000000000800480C0100207C00002043
:10263000A0260020D4040020B00000200C000020C0
:102640008426002028E000081127002088E90008DF
:10265000D8E5000812270020F0260020C826002018
:10266000C02709003C260020132700200427002053
:10267000EC0A002084050020FC2500209426002080
:1026800000DE0008EE0A0020A41D002054230020D4
:10269000B8000020BC000020CC000020DC0000209E
:1026A000EC000020FC00002010B504000121DFF840
:1026B000440D02F0E4FA012010BD30B587B00400EB
:1026C0001421002202AD280002F034FCDFF82C0CAB
:1026D000D0E90023CDE9002302A80090DFF8205CB8
:1026E0002978684600F0ACF928786870BDF80410C5
:1026F000009800F0CEFC00202870DFF8F85C022182
:10270000280002F0ADFA0321280002F0B8FA2100F7
:10271000C9B2280002F0B3FA012007B030BD10B5ED
:102720000400DFF8E01B8888002810D0DFF8D80B01
:1027300002888B889A4208D1002101800321DFF8AA
:10274000B40C02F08DFA012008E089880180210094
:10275000C9B2DFF8A00C02F092FA012010BD2DE9F9
:10276000F041040000250026DFF8987BB888032894
:102770003DDB3868B988084410F8010C3968BA881C
:10278000114411F8021C51EA00210E00B988891E7B
:10279000386802F0CBFE05002800310080B289B213
:1027A00088421DD10721DFF84C0C02F068FA386826
:1027B000007807280DD1DFF8488B012198F8010037
:1027C00000F057F998F80120D7E9000100F041F92D
:1027D00013E00021DFF8280B407800F04AF90CE004
:1027E0000021DFF81C0B407800F043F905E00021E0
:1027F000DFF80C0B407800F03CF9DFF8040B407870
:1028000000F0B6F80221DFF8EC0B02F04AFA0120E2
:10281000BDE8F0810100DFF8400D0278032A01D005
:10282000042202700120704710B504002100C9B2D3
:10283000DFF8C00B02F023FA012010BD10B5040030
:10284000DFF8B40B0178012936D1DFF8B01BC97865
:10285000012931D1DFF8041C91ED030AD0ED020A01
:10286000B4EE600AF1EE10FA08DA91ED030AD0ED49
:10287000010AB4EE600AF1EE10FA0ED501224FF40F
:1028800000615FF09040FFF73AF801224FF4805169
:102890005FF09040FFF733F81CE000224FF4006136
:1028A0005FF09040FFF72BF800224FF480515FF06B
:1028B0009040FFF724F80DE000224FF400615FF034
:1028C0009040FFF71CF800224FF480515FF09040D9
:1028D000FFF715F8DFF81C0B4FF47A7181662100C1
:1028E000C9B202F0CCF9012010BD38B50400DFF800
:1028F000C41B087800281FD101200870DFF8B85BDE
:10290000012210212800FEF7FAFF002208212800EA
:10291000FEF7F5FF00220421DFF8A00BFEF7EFFF22
:102920004FF4FA60DFF8CC1A886702F0E1FF03F099
:102930008AF903F079F912E00020087001220821D9
:10294000DFF8740BFEF7DBFF01220421DFF86C0BCC
:10295000FEF7D5FF4EF66020DFF8981A8867210051
:10296000C9B2DFF8900A02F08AF9012032BD0000F6
:1029700038B52DED028B04009FEDCE8A2000C0B249
:10298000002842D1DFF8D45A95ED010ADFEDCA0ADA
:1029900020EE200ABDEEC00A10EE100A00F016FA72
:1029A00085ED010A95ED010A00F082FA85ED030A32
:1029B00095ED020A00F0DCFA85ED040A95ED040AB3
:1029C000D5ED060A30EE200A85ED040A95ED030ADE
:1029D000D5ED050A30EE200AB0EE408A9FEDB70A29
:1029E000B4EE408AF1EE10FA02DBB2EE040A09E01E
:1029F000B5EE408AF1EE10FA02D59FEDAE0A01E085
:102A0000B0EE480A85ED030AFFE7DFF8505A287850
:102A1000002807D10020686095ED010A00F048FA0F
:102A200085ED030A2878002807D10020A86095EDDD
:102A3000020A00F09DFA85ED040ABDEC028B31BD5F
:102A400038B504000D002900C9B2200000F01BF8C1
:102A500031BD70B504000D00160020000078C0B232
:102A6000072805D13200D2B22000290000F078F802
:102A700070BD38B504000D002900C9B22000C0B2F5
:102A800000F01EF931BD3EB504000D002800C0B2B3
:102A9000002808D0022819D00ED3042835D01FD31F
:102AA000052847D05BE00420009000230322072183
:102AB000200002F059FD52E0012000904FF48053B5
:102AC00003220721200002F04FFD48E00120009082
:102AD00041F2040303220721200002F045FD3EE0FD
:102AE000DFF8240C818802290ED1016801918088C9
:102AF000022190FBF1F080B200904FF48053062247
:102B00000721200002F07EFD29E0DFF8FC0B818820
:102B100002290ED1016801918088022190FBF1F019
:102B200080B2009041F2040306220721200002F047
:102B300069FD14E0DFF8D00B818802290ED101680D
:102B400001918088022190FBF1F080B2009042F266
:102B5000200306220721200002F054FDFFE737BDC5
:102B60002DE9F84F2DED028B82B004000D00914647
:102B70000020ADF800009FED4F8A00264846C0B205
:102B800000280BD0022876D05ED3042800F08A807B
:102B9000C0F08880052800F0858086E00320ADF82D
:102BA000000002226946200000F040FA08EE900A78
:102BB00002226946200000F039FA8046DFF89C784E
:102BC000B8EE680A10EE100A01F060FE82468B46ED
:102BD000404601F04DFE41EC110B9FEDB30B01F0AF
:102BE000E6FC53EC102B5046594601F0E9FC01F08D
:102BF0000BFE786002226946200000F017FA00EE12
:102C0000100AB0EE408A02226946200000F00EFA57
:102C10000600B8EE480A10EE100A01F037FE8246B0
:102C20008B46300001F024FE41EC110B9FED9E0B12
:102C300001F0BDFC53EC102B5046594601F0C0FC8E
:102C400001F0E2FDB86030E00320ADF800000222A0
:102C50006946200000F0EAF900EE100AB0EE408A62
:102C6000B8EE480AF2EE040A80EE200ADFF8EC071C
:102C700080ED070A19E00320ADF800000222694642
:102C8000200000F0D3F900EE100AB0EE408AB8EE52
:102C9000480AF2EE040A80EE200ADFF8C00780ED51
:102CA000080A02E000F065F9FFE702B0BDEC028B14
:102CB000BDE8F18F0000000000007A4401002041CF
:102CC0000200D2B2002A052A1BD80A00D2B2012A79
:102CD0000ED1DFF888270023537001231370020000
:102CE000D2B2002A0CD10122DFF81037DA7007E0E7
:102CF000DFF868275378032B02DA53785B1C537094
:102D0000FFE7DFF858375A78002A10D05A78032A9C
:102D10000DDB00221A7000225A6000229A60002205
:102D2000DA6100221A620022DFF8D036DA707047CA
:102D30002DE9F04100242500EDB20A2D43DA0025EB
:102D40002E00F6B2092E3CDA2E00F6B201EB860612
:102D500076682F00FFB251F82770BE422FDA0026A6
:102D60002F00FFB251F82770AC465FFA8CFC01EBE4
:102D70008C0CDCF804C0AE465FFA8EFE41F82EC023
:102D8000AC465FFA8CFC01EB8C0CCCF80470AC46C2
:102D90005FFA8CFC50F82CC0AE465FFA8EFE00EB5A
:102DA0008E0EDEF804E0A8465FFA88F840F828E0C6
:102DB000AE465FFA8EFE00EB8E0ECEF804C06D1CA0
:102DC000BEE7641CB7E7BDE8F081000038B52DED23
:102DD000028B04009FED948ADFF8301908780028F0
:102DE0002AD10120087000210800C0B20A2815DA93
:102DF0000800C0B2DFF818290B00DBB242F823004C
:102E0000DFF810290800C0B252F82000002803D1D2
:102E10000800C0B242F82040491CE5E7DFF8F4584A
:102E2000092300222900DFF8E808FFF781FF95ED6C
:102E3000050AB8EEC00A30E000200100C9B20A2934
:102E40001EDADFF8CC180200D2B251F82220092A8B
:102E50000BD100220300DBB241F82320DFF8B418C5
:102E60000200D2B241F8224008E00200D2B251F88A
:102E70002220521C0300DBB241F82320401CDCE777
:102E8000DFF89058092300222900DFF88408FFF7B3
:102E90004FFF95ED050AB8EEC00ADFEDBC0A80EEE3
:102EA000200ABDEC028B31BD000000000000244070
:102EB000F0EE400A9FEDB61A9FEDB63ADFED5A3AB2
:102EC000F5EE400AF1EE10FA40D0F0EE603A9FEDD8
:102ED000B20ADFF8440890ED004A34EE634AB4EEDB
:102EE000404AF1EE10FA08DA90ED004A33EEC44A97
:102EF000B4EE404AF1EE10FA03DB9FEDA40A21EE96
:102F0000001ADFF8180890ED000AF0EE401ADFF81A
:102F1000101891ED000A30EE010AB0EE402A32EEB0
:102F2000030A82EE000AF0EE402A33EEE10AB0EE28
:102F3000614A00EE224A80ED004AB7EE000A30EE08
:102F4000620A20EE020A81ED000A08E0DFF8D007ED
:102F50005FF07E510160DFF8C40700210160DFF8F7
:102F6000BC07DFF8B41702680A6090ED000A7047EA
:102F7000704780B50320DFF8E01508700421DFF802
:102F8000740401F08EFE3220FEF7B6FF01BD80B55D
:102F9000DFF890070078DA4908700220DFF8B815EA
:102FA00008700421DFF84C0401F069FE01BD2DE931
:102FB000F04104000D0016002F00DFF84C8740465A
:102FC000FEF706FD300080B2022802D004280BD0A4
:102FD0001DE07878D8F8001008703878D8F800101C
:102FE0004870A8F8046015E07878D8F800100870E8
:102FF0003878D8F800104870F878D8F80010887041
:10300000B878D8F80010C870A8F8046002E0002072
:10301000A8F80400DFF80C0704700120DFF8081797
:103020000870BDE8F081000000000000F0B403006B
:1030300000200C881500EDB2042D16D12500ADB28C
:103040001D44AE782500ADB21D44ED7855EA062545
:103050002600B6B29E5D2700BFB21F447F7857EAB4
:10306000062757EA054738000DE01500EDB2022D9E
:1030700009D12500ADB25D5D2600B6B21E4476785A
:1030800056EA052630000D8855FA82F50D80F0BC11
:10309000704770B504000D00DFF8906601224FF410
:1030A00080513000FEF72BFC0A2002F0EFFD02F009
:1030B000B3FD4FF47A732A0092B22100DFF8700654
:1030C00002F035FE00224FF480513000FEF717FC6D
:1030D00070BD2DE9F0412DED028B8EB0F0EE408AEF
:1030E000B0EE608A322100226C46200001F022FFFF
:1030F000002700240025DFF86483C8ED058A88EDE9
:10310000068A98ED050A01F0EFF9060098ED060A27
:1031100001F0EAF9804668463100090E3A00D2B261
:1031200081547F1C3100090C3A00D2B281547F1CBB
:103130003100090A3A00D2B281547F1C3900C9B269
:1031400046547F1C4146090E3A00D2B281547F1C7E
:103150004146090C3A00D2B281547F1C4146090A0B
:103160003A00D2B281547F1C3900C9B200F8018004
:103170007F1C3A00D2B292B26946DFF8B80503F07C
:10318000F3FD0EB0BDEC028BBDE8F08100007A4487
:1031900095BFD63317B7D138CDCC4C3E70B500248F
:1031A0000025DFF890050078C0B2FF2839D0DFF89D
:1031B00088050178C9B20906DFF880050078C0B239
:1031C00051EA0041DFF878050078C0B251EA0021E9
:1031D000DFF870050078C0B201430C00DFF8680525
:1031E0000178C9B20906DFF864050078C0B251EA77
:1031F0000041DFF85C050078C0B251EA0021DFF839
:1032000054050078C0B201430D00944E16F114012C
:10321000200001F091F816F11801280001F08CF857
:1032200004E08E48002141610021816170BD2DE9DB
:10323000F0472DED028B8EB00400F0EE408AB0EE28
:10324000608A322100226D46280001F073FE0025BD
:1032500000260027DFF8A0A18AF800408AED028A44
:10326000CAED018A9AED020A01F03EF980469AED14
:10327000010A01F039F9814668469AF800102A00DF
:10328000D2B281546D1C4146090E2A00D2B281543B
:103290006D1C4146090C2A00D2B281546D1C414676
:1032A000090A2A00D2B281546D1C2900C9B200F863
:1032B00001806D1C4946090E2A00D2B281546D1C52
:1032C0004946090C2A00D2B281546D1C4946090AAC
:1032D0002A00D2B281546D1C2900C9B200F80190B5
:1032E0006D1C2A00D2B292B26946DFF86C0403F07A
:1032F0003BFD0EB0BDEC028BBDE8F08790EB000803
:103300000C2700209C0A00200A27002070B500240A
:103310000025DFF844040078C0B2FF283CD0364EC8
:10332000DFF8380400783070DFF834040178C9B26F
:103330000906DFF830040078C0B251EA0041DFF836
:1033400028040078C0B251EA0021DFF82004007898
:10335000C0B201430C00DFF818040178C9B20906B5
:10336000DFF810040078C0B251EA0041DFF8080429
:103370000078C0B251EA0021DFF800040078C0B242
:1033800001430D0016F10801200000F0D5FF311DAA
:10339000280000F0D1FF07E0174800210170DFF896
:1033A000E01381600021416070BD78B591B00400E8
:1033B0000D003C21002202AE300001F0BBFD0020D8
:1033C000ADF804000321062000F089FC0B200090DA
:1033D0000023DFF8B02301A902A800F097FF4FF403
:1033E0007A73BDF8042002A9DFF89C0302F09FFC69
:1033F00012B070BDF8050020A0260020DC260020B9
:1034000078B591B004000D003C21002202AE3000DE
:1034100001F090FD0020ADF80400C64803F074FCF4
:10342000CD4803F071FCDFF8640300210170D4493A
:103430008160002141600D2000900023D44A01A941
:1034400002A800F063FF4FF47A73BDF8042002A9CC
:10345000CD4802F06CFC12B070BD0000FC250020CD
:1034600038B590B004000D0003A8CA49322203F019
:10347000BFFCC948D0E90023CDE9012303A801908E
:103480000023C648027802A903A800F0CAFE022061
:103490000090002379A202A903A800F037FF4FF49F
:1034A0007A73BDF808200199B74802F040FC11B0CA
:1034B00030BD00001927002000040048000C00481F
:1034C000F8B504000D0000262068007830283ADBAB
:1034D000206800783A2836DA002700200100C9B2B7
:1034E000A28889B291420FD221680200D2B2895CCF
:1034F000302905DB21680200D2B2895C3A2900DB61
:1035000002E07F1C401CE9E73900C9B2206800F0E6
:10351000B5FF0600B6F5807F0DD2A0484178300097
:10352000C0B200F0DCFB4FF47A73022275A196481A
:1035300002F0FDFB0EE04FF47A73052298499248A1
:1035400002F0F5FB06E04FF47A73052294498E48A9
:1035500002F0EDFBF1BD00007C00002038B590B01A
:1035600004000D0003A88F49322203F041FC8E486D
:10357000D0E90023CDE9012303A801900023874867
:10358000427802A903A800F04CFE0220009000231C
:103590003AA202A903A800F0B9FE4FF47A73BDF86D
:1035A00008200199784802F0C2FB11B030BDF8B58F
:1035B00004000D00002620680078302839DB2068E0
:1035C00000783A2835DA002700200100C9B2A28825
:1035D00089B291420FD221680200D2B2895C3029AF
:1035E00005DB21680200D2B2895C3A2900DB02E0E7
:1035F0007F1C401CE9E73900C9B2206800F03EFF9B
:1036000006000C2E0DD23100C9B26448007800F0DB
:1036100066FB4FF47A7302223AA15B4802F087FB03
:103620000EE04FF47A7305225D49574802F07FFBA4
:1036300006E04FF47A7305225949534802F077FBAC
:10364000F1BD80B5FFF7AAFDFFF760FE5748584966
:10365000C0F8A4135749C0F8B4135749C0F8C413AD
:103660005649C0F8D4135649C0F8E4135549C0F878
:10367000F41302F0E8FA02F0D7FA01BD0D0A0000D7
:1036800070B50020002400252800C0B2082836DAD2
:103690004D4E2800C0B200013044407801282CD1A2
:1036A000012004002800C0B2000130444068002816
:1036B0000ED001F087F92900C9B2090131444968E7
:1036C000401A2900C9B2090131448968884214D3DB
:1036D00000202900C9B209013144487001F072F993
:1036E0002900C9B20901314448602800C0B229004C
:1036F000C9B209013144C96888476D1CC4E720007C
:10370000C0B270BD4F4B0000780600201A27002081
:1037100088250020B0250020E4260020E026002097
:1037200080060020182700207C00002000080048A8
:103730004C200020000802080208020803080208C2
:10374000040802080508020806080208070802081B
:1037500008080208090802080010020802100208FE
:1037600003100208041002080510020806100208DF
:103770000710020808100208091002080A100208BF
:1037800000002041A0E900083C1F0020A0260020E6
:1037900014E70008A0E3000898EB0008EC0A0020FA
:1037A00088EB0008D4E30008A0EB00088C0600209A
:1037B000AB3300080134000861340008C13400084C
:1037C0005D350008AF350008F80500200200002034
:1037D000704730B40200DFF8F808002304688588D9
:1037E000635583885B1C8380DFF8E8381B780468A6
:1037F0008588635583885B1C8380012030BC7047BB
:10380000F8B504000D00002000212E0022683300CE
:10381000DBB2D25C23683700FFB23B445F7857EAE3
:1038200002273A0092B2B2F5807F23DA380080B2E4
:1038300000281FD0DFF8980821683200D2B2895CD6
:1038400002688388D1548188491C818021683200B4
:10385000D2B21144497802688388D1548188491CC6
:103860008180DFF8700841783800C0B200F037FA84
:10387000012000E00020F2BD30B40200DFF8500863
:10388000002304688588635583885B1C8380DFF888
:1038900044385B7804688588635583885B1C838023
:1038A000012030BC7047F8B504000D000020002155
:1038B0002E0022683300DBB2D25C23683700FFB2EF
:1038C0003B445F7857EA02273A0092B20B2A1FDA8C
:1038D000DFF8FC0721683200D2B2895C0268838875
:1038E000D1548188491C818021683200D2B21144B0
:1038F000497802688388D1548188491C81803900C5
:10390000C9B2DFF8D007007800F0E9F9012000E043
:103910000020F2BDF8B504000D000026DFF8B8075E
:1039200090ED030A00F0E0FD0100DFF8A4070A00B3
:10393000120A03688788DA558288521C82800268DE
:103940008388D1548288521C82800A00120E036838
:103950008788DA558288521C82800A00120C03681C
:103960008788DA558288521C82800120F2BDF8B522
:1039700004000D000026DFF8600790ED040A00F057
:10398000B3FD0100DFF848070A00120A03688788C0
:10399000DA558288521C828002688388D1548288DA
:1039A000521C82800A00120E03688788DA558288CA
:1039B000521C82800A00120C03688788DA558288BC
:1039C000521C82800120F2BD30B40200DFF80007F3
:1039D000002304688588635583885B1C8380DFF837
:1039E000FC361B7804688588635583885B1C83805C
:1039F000012030BC7047F8B504000D000020002104
:103A00002E0022683300DBB2D25C23683700FFB29D
:103A10003B445F7857EA02273A0092B2012A03D06A
:103A2000380080B2002822D1DFF8A40621683200D5
:103A3000D2B2895C02688388D1548188491C818014
:103A400021683200D2B21144497802688388D15487
:103A50008188491C8180DFF88406D0ED020A90ED50
:103A6000010A3800C0B2FFF7E2FB012000E00020AD
:103A7000F2BDF8B504000D000026DFF8600690EDF9
:103A8000020A00F031FD0100DFF844060A00120AC4
:103A900003688788DA558288521C8280026883888E
:103AA000D1548288521C82800A00120E03688788D3
:103AB000DA558288521C82800A00120C03688788BB
:103AC000DA558288521C82800120F2BD2DE9F8432C
:103AD00004000D000026002000900027A846206862
:103AE0004146C9B20844817820684246D2B21044A7
:103AF000C07850EA012021684246D2B2895C22682F
:103B00004346DBB21A4492F8019059EA012959EA76
:103B10000049DFF8BC0521684246D2B2895C0268E0
:103B20008388D1548188491C818021684246D2B261
:103B30001144497802688388D1548188491C818066
:103B400021684246D2B21144897802688388D154F0
:103B50008188491C818021684246D2B21144C978CB
:103B600002688388D1548188491C8180694648460F
:103B700000F0E2FBDFF86405DDED000A90ED010ADC
:103B80000078FFF754FB0120BDE8F283F8B504008C
:103B90000D000026DFF8440590ED010A00F0A4FCBA
:103BA0000100DFF82C050A00120A03688788DA553D
:103BB0008288521C828002688388D1548288521C79
:103BC00082800A00120E03688788DA558288521CA8
:103BD00082800A00120C03688788DA558288521C9A
:103BE00082800120F2BD2DE9F84304000D0000267B
:103BF000002000900027A84620684146C9B208442A
:103C0000817820684246D2B21044C07850EA012040
:103C100021684246D2B2895C22684346DBB21A442C
:103C200092F8019059EA012959EA0049DFF8A00405
:103C300021684246D2B2895C02688388D154818867
:103C4000491C818021684246D2B2114449780268F9
:103C50008388D1548188491C818021684246D2B230
:103C60001144897802688388D1548188491C8180F5
:103C700021684246D2B21144C97802688388D1547F
:103C80008188491C81806946484600F055FBDFF871
:103C90004C04D0ED020A9DED000A0078FFF7C7FA48
:103CA0000120BDE8F28370B504000D00DFF8306438
:103CB000012220213000FDF722FE0A2001F0E6FF5C
:103CC0004FF47A732A0092B22100DFF8180402F050
:103CD0002EF8002220213000FDF711FE70BD7CB5CA
:103CE00004000D00082100226E46300001F022F988
:103CF0000026DFF8E003047045706946027833005F
:103D0000DBB2CA54761C40783200D2B28854761C9A
:103D10003200D2B292B26946DFF8CC0303F024F845
:103D200073BDDFF8C4030078C0B2FF280AD0DFF803
:103D3000A403DFF8B81309780170DFF8B413097829
:103D4000417005E0DFF88C0306210170032141700A
:103D500070472DE9F04F87B0040000275FF000089E
:103D60005FF000090025DFF88C23D2E90001CDE9DE
:103D700002010026DFF88023D2E90001CDE9040129
:103D8000DFF84CA35046FDF723FEA0880828C0F2B8
:103D90009B812068A188084410F8010C2168A28842
:103DA000114411F8021C51EA0021ADF81810A18845
:103DB000891E206801F0BAFBADF81A00BDF81A00A0
:103DC000BDF81810884240F07D8120680078C14914
:103DD0000978884240F07681206880782168CF7821
:103DE00057EA002720684078032805D006286CD0C1
:103DF000102800F0C38061E12068007921684979CA
:103E000051EA00210D005FF001084046C0B20828C9
:103E100036DA5FF01409DFF8E4B24046C0B209FBBD
:103E200000F058444068390089B2884225D1280002
:103E300080B24146C9B209FB01F159448968884200
:103E40001BDB002100204246D2B209FB02F25A4499
:103E5000D268904701280FD14046C0B209FB00F05C
:103E6000584480682D1A4046C0B209FB00F90BEB9C
:103E700009008068C71900E002E018F10108C4E7F2
:103E8000BAF8040000281FD0BAF80400022190FB01
:103E9000F1F201FB1200002816D1DAF800000190BF
:103EA000BAF80400022190FBF1F080B200903B00D0
:103EB0009BB203222068017804A801F017FCBDF82A
:103EC00014100498FFF7EFFEFAE004200100C9B2D5
:103ED000A288921E91420EDA21680200D2B2895C59
:103EE000029ABDF80C30D154BDF80C10491CADF845
:103EF0000C10401CEAE75FF001084046C0B20828F9
:103F000017DA14227D4B4046C0B250431844406833
:103F1000390089B2884209D1002102A8C4465FFA5B
:103F20008CFC02FB0CF21A441269904718F101084C
:103F3000E3E7BAF8040000281FD0BAF80400022111
:103F400090FBF1F201FB1200002816D1DAF8000014
:103F50000190BAF80400022190FBF1F080B20090C9
:103F60003B009BB206222068017804A801F00FFCF8
:103F7000BDF814100498FFF796FEA1E0002006009B
:103F8000206800792168497951EA00210D00072055
:103F90000100C9B2A288921E91420EDA2168020085
:103FA000D2B2895C029ABDF80C30D154BDF80C1025
:103FB000491CADF80C10401CEAE7280080B2400014
:103FC0002168897988424DD1BDF80C002168897932
:103FD00089B2884246D15FF001084046C0B2082845
:103FE00040DA5FF01409DFF814B14046C0B209FBB3
:103FF00000F058444068390089B288422FD1280027
:1040000080B24146C9B209FB01F15944896888422E
:1040100025DB310089B202A84246D2B209FB02F286
:104020005A4412699047012818D14046C0B209FB92
:1040300000F058448068400010FA86F64046C0B24E
:1040400009FB00F0584480682D1A4046C0B209FBB5
:1040500000F90BEB09008068C71900E002E018F1D5
:104060000108BAE7BAF80400002826D0BAF804001C
:10407000022190FBF1F201FB120000281DD1206803
:1040800080782168C97851EA00210F00DAF8000031
:104090000190BAF80400022190FBF1F080B2009088
:1040A0003B009BB210222068017804A801F06FFB4E
:1040B000BDF814100498FFF7F6FD01E0002004E0BD
:1040C000012002E0002000E0002007B0BDE8F08FF2
:1040D000B0050020EC0A0020FC250020A0260020CE
:1040E00000040048C41F002000000208020002086B
:1040F0000300020878EB000880EB0008E4040020CD
:1041000001000800C0B2002801D1012021E0080010
:10411000C0B2FF2801D10A201BE00800C0B2FE286F
:1041200001D1642015E00800C0B2FD2802D14FF48F
:104130007A700EE00800C0B2FC2802D142F2107082
:1041400007E00800C0B2FB2802D1DFF8980300E0C6
:10415000012070472DE9F24F82469346002000214E
:104160000A260027B046B946009A1588BBF1000F11
:1041700008D5DBF100042D202A0092B20AF80200D3
:104180006D1C00E05C462000002142464B4602F0D8
:1041900083FE002901D1002808D0A6FB080106FBF8
:1041A000091107FB081180468946ECE7404649465D
:1041B0000A22002302F070FE06000F00002F01D13A
:1041C000002E28D02000002132003B0002F064FEC7
:1041D0003030290089B20AF801006D1CA0465FF05A
:1041E00000092000002132003B0002F055FEA6FB32
:1041F000002306FB013307FB0033B8EB020079EB29
:1042000003010400300039000A22002302F044FEBA
:1042100006000F00D2E7009805802800C0B2BDE874
:10422000F28F2DE9FE4F06000F0090460020ADF8FA
:1042300000000020002400215FF0000BB7F8009080
:10424000B8F1000F02D5D8F1000500E0454642461E
:1042500039003000FFF77EFFB7F800A0002D4FD0E7
:104260009DF80800FFF74CFF01008D4205D20A209F
:1042700045431BF1010B002DF7D15846C0B2002871
:1042800021D050460200D2B2324412F8012C2D2A1D
:1042900006D00200D2B24B4692B29BB29A4208D1EB
:1042A00030220300DBB2F2541AF1010ABBF1010B18
:1042B000E3E70200D2B2324412F8012C0300DBB271
:1042C000F254401EDEE70A20B1FBF0F4504683466C
:1042D000002C15D00A20B4FBF0F45846C0B230448C
:1042E00010F8010C5946C9B27054BBF1010B002CF7
:1042F000EED12E205946C9B270541AF1010AE7E7EF
:10430000A7F800A05046C0B2BDE8FE8FF0B4049CF0
:1043100000252E00B6B2A6420BD20E88771C0F8065
:104320002F00BFB217FA83F7D75DB6B287556D1C61
:10433000EFE7F0BC704700002DE9F34F81B02DEDA1
:10434000028B9FED658A002401250026F7EE008A86
:1043500000273800C0B2202864DA0398F84010F033
:10436000010004003800C0B2172829DA18EE900ABC
:1043700000F08CFA82468B462000C0B200F078FA3A
:10438000804689463800C0B2D0F117005FF0FF3197
:10439000484300F0F3F841EC110B9FED500B00F097
:1043A00006F951EC100B42464B4602F08DFE524688
:1043B0005B4602F05BFF00F027FA08EE900A2FE060
:1043C0003800C0B21F2824DA3000C0B200F050FA22
:1043D00082468B462000C0B200F04AFA80468946E9
:1043E0003800C0B2173800F0C9F841EC110B9FED4E
:1043F0003B0B00F0DCF851EC100B42464B4602F050
:1044000063FE52465B4602F031FF02F0EDFF06000C
:1044100006E02000C0B2012802D15FF0FF300500A5
:104420007F1C96E7280040B200F0A8F88046894635
:104430003000C0B27F3800F0A1F841EC110B9FEDC5
:10444000270B00F0B4F851EC100B42464B4602F03B
:104450003BFE8046894618EE900A00F017FA424665
:104460004B4602F031FE00F0CFF900EE100A04983E
:1044700080ED000ABDEC028BBDE8F78F70B403003D
:1044800000220024002000252A000E00D2B2F6B23D
:10449000B2421FD22A00D2B29A5C302A0ADB2A002A
:1044A000D2B29A5C3A2A05DA2A00D2B29A5C303A41
:1044B000140001E0002214002A00D2B2002A03D125
:1044C0002200D2B2100003E00A22504350FA84F0D6
:1044D0006D1CD9E770BC70470000000000000000B0
:1044E00000000040A086010010B42DED010A00205C
:1044F0006A460023042B07D2D45C1900C9B2C90054
:104500008C4020435B1CF5E712BC704700F10103AF
:10451000810704D010F8011B820781B1FAD102682B
:10452000A2F10131914311F0803104BF50F8042F02
:10453000F6E709BAB1FA81F100EBD100401CC01ACC
:10454000704730B4002513E050F8042BD30744BF64
:10455000A9F101039A18091F042942F8045BFAD251
:1045600013468C0744BF15809B1CC90748BF1D70AC
:1045700050F8041B0029E7D130BC7047C11768B15F
:104580004840401AB0FA80F29040D21CC907C2F5E8
:10459000846241EA025202EBD02140057047026872
:1045A000531C03601170704741EC100B01BD80B5C6
:1045B00053EC112B51EC100B02F034FFF4E72E00FA
:1045C000F0B540F2FF7581EA030C0CF0004C15EADF
:1045D00011541DBF15EA1357AC42AF42E5E0BC4190
:1045E000C1F31301C3F31303801A994143F48013F9
:1045F00004D2641E4000494180185941C90241EA71
:104600005051B1FBF3F603FB1611A2FB0675D7EB75
:10461000C020A94102D2761E80185941C90241EA40
:104620005051B1FBF3FE03FB1E11A2FB0E75D7EB3D
:10463000C020A94103D2AEF1010E80185941890270
:1046400041EA9051760546EA8E2EB1FBF3F603FB64
:104650001611A2FB0675D7EB8020A94102D2761E67
:1046600080185941C90241EA50514EEA060EB1FB89
:10467000F3F603FB1611A2FB0675D7EBC020A94188
:1046800002D2761E80185941C90241EA5051B1FB4D
:10469000F3F703FB1711A2FB0735D3EBC020A941A9
:1046A00067F100070CBF004247F0010766F3D5270A
:1046B0004FEA1E31B80814F5806412DDBD0775F1AC
:1046C000004250EB0E5051EB045111F5801F5CBFBE
:1046D00041EA0C01F0BD4CF07F6141F0E041002067
:1046E000F0BDBD076D0840EA0E5041F48011D4F1D1
:1046F0000104B4F120060ADAC4F120060200E04009
:1047000001FA06F3E1401843B24015430EE0342CA1
:1047100013DCC6F1200445EA40056D0820FA06F2D4
:10472000154321FA06F0A1400D43002175F1004226
:1047300050F1000051EB0C01F0BD00205FEA0C01CC
:10474000F0BDCFB992185B41B3FA83F704BFB2FA58
:1047500082F6BF190B3FB7F120062FBF02FA06F30E
:10476000BB40C7F1200622FA06F638BF3343BA40F1
:104770001CB1E419641E33E77F4231F00041B1FA05
:1047800081F404BFB0FA80F6A4190B3CB4F1200602
:104790002FBF00FA06F1A140C4F1200620FA06F668
:1047A00038BF3143A0403C1B1AE7AC421ABF05EAB0
:1047B0001357AF4212E050EA41061CBF52EA4306CB
:1047C000BFE750EA4107304661461CBF41EA055148
:1047D000F0BD52EA430C08BFC143F0BD00204FF4C6
:1047E000001616EB410F98BF16EB430F08BF16EBF0
:1047F000410F24BFC14305E016EB430F0CBF6146D8
:104800004CEA0551F0BD000001F000428B1AA3F103
:104810006051B1F5801F0ADBB1F17F6F1FD242EA10
:10482000C102C10071F1004142EB507070470B159D
:10483000C3F10903212B10D2890241EA9051800271
:104840000128494141F0004121FA03F0C3F120035E
:10485000994071F1004150417047100070476FF06E
:10486000000013EB103F5CBF000E42EAC0507047DF
:10487000014648B1B0FA80F18840C91CC1F5846195
:10488000090501EBD021400570470000C0F3C75176
:1048900081B1FF2906D0C110400721F0E04101F1AC
:1048A0006051704741020CBF40F4E0016FF00041DD
:1048B0000020704700F0004100020AD0B0FA80FCEE
:1048C00000FA0CF001F16051A1EB0C5101EBD02189
:1048D000400570470CB430B583B00A4606A9029172
:1048E000044600250194009502AB01A908487844CC
:1048F0001E3003F00DF9019A157000284EBF0446D2
:104900000198041B204603B030BC5DF80CFB00BFCF
:104910008FFCFFFF80B5012240212348FCF7EFFF09
:104920002249234800F04EFA00F01EF8012000F062
:1049300005F800F0D1FA00F01FFA01BD704711B57B
:1049400081B0194C002240212000FCF7D8FF4FF421
:104950007A73012201A9174804F03AF90122402193
:104960002000FCF7CCFF13BD10B50F4C00224021F6
:104970002000FCF7C4FF002280212000FCF7BFFFCD
:10498000012000F019F8052000F016F8012280211E
:104990002000FCF7B4FF052000F00EF801224021B2
:1049A0002000FCF7ACFF10BD00080048BC2600202A
:1049B000A40F0020BC23002010B50400200001F04B
:1049C00065F910BD01480068704700BFCC26002083
:1049D00070B4039CDFF88052286029716A71AB7152
:1049E000EC7100262E7270BC70472DE9F84F040060
:1049F0000D00160000275FF00008DFF85C9299F8C0
:104A00000500082880F2FC80300099F80610C0B23A
:104A1000884205D399F807003100C9B2884201D213
:104A20002E200600402099F80510491C90FBF1F05B
:104A30002900C9B2814280F2E38099F8040050FA5B
:104A400084F0802880F2DC8099F805305B1C99F8AE
:104A5000050003FB05035B1CDBB299F80420121967
:104A6000D2B299F80500401C15FB00F1C9B2200034
:104A7000C0B200F029F90021080099F80420C0B262
:104A8000904280F0BD80002015FB00F00200D2B201
:104A9000082392FBF3F21700C0B2082290FBF2F356
:104AA00002FB13008046FF226C4BD3F800C0380095
:104AB000C0B250FA85FE802000FB0EFE5EFA84FE36
:104AC000D3F800A03800C0B250FA85FB802000FB6C
:104AD0000BFB5BFA84F01AF800A0D8F1080B100069
:104AE00050FA0BF010EA0A0A0CF80EA0D3F800C036
:104AF0003800C0B250FA85FE802000FB0EFE5EFA40
:104B000084F00090D3F800E03800C0B250FA85FA83
:104B1000802000FB0AFA5AFA84F01EF800E0D9F867
:104B200000A0B3465FFA8BFB99F80600BBEB0000D0
:104B300099F804B00BFB00FB0AEB0B008A465FFA06
:104B40008AFA10F80A0010FA08F050EA0E00DDF8B0
:104B500000E00CF80E00D3F800C03800C0B250FAE4
:104B600085FE802000FB0EFE5EFA84F08444D3F8BC
:104B700000E03800C0B250FA85FA802000FB0AFA43
:104B80005AFA84F0704490F8800012FA08F2024059
:104B90008CF880201A683800C0B250FA85FC80205A
:104BA00000FB0CFC5CFA84F002441B683800C0B2C5
:104BB00050FA85FC802000FB0CFC5CFA84F0184461
:104BC00090F88030D9F800C0B6465FFA8EFE99F8AA
:104BD0000600BEEB000E99F8040000FB0EFE0CEB85
:104BE0000E008C465FFA8CFC10F80C00D8F1080C13
:104BF00050FA0CF0034382F88030641C491C3BE7F8
:104C0000BDE8F18FF8B507000C001600124D687969
:104C1000082820DA307800281DD032782100C9B267
:104C20003800C0B2FFF7E1FE761C2879401CC71996
:104C3000287950FA87F0401C812802DB0020070009
:104C4000641C40206979491C90FBF1F02100C9B235
:104C50008142DFDBFFE7F1BD94260020C026002063
:104C6000020001200B00DBB21B011344587000202E
:104C70000B00DBB21B01134458600120704738B5AC
:104C800004000D0001202900C9B209012144487027
:104C9000FFF798FE2900C9B20901214448600120AC
:104CA00032BD020000200B00DBB21B011344587020
:104CB0000120704780B5034800F024FC00F0CDF8D7
:104CC00001BD000000DA000870B40400E4B2802CDA
:104CD00001DB7F2420001400E4B2802C01DB7F2460
:104CE00022000C00E4B2402C01DB3F2421001C0018
:104CF000E4B2402C01DB3F242300354C050026683C
:104D00003678EDB2B54201D2256828702568AD78B5
:104D10001600F6B2B54201D22568AA700D002668C9
:104D20007678EDB2B54201D2256869702568ED78D4
:104D30001E00F6B2B54201D22468E37070BC704721
:104D400023487F21026811700021026891703F2181
:104D50000268517000210068C17070471C48002132
:104D6000026811707F210268917000210268517001
:104D70003F210068C170704770B54FF48064002512
:104D8000144806682A002100300000F0D3F83F23C1
:104D90007F2200210020FFF797FF00F05EF870BD32
:104DA00070B54FF4806400250A4806682A00210087
:104DB000300000F0BFF83F237F2200210020FFF7E2
:104DC00083FF70BD034A1060014A11607047000004
:104DD000C4260020C026002010B5040000224FF495
:104DE00080713A48FCF78BFD2000C0B2FFF7A7FDA9
:104DF00010BD10B5040001224FF480713348FCF758
:104E00007EFD2000C0B2FFF79AFD10BD10B5040072
:104E100014F00F0050F0B000C0B2FFF7DDFF10BD7E
:104E200010B504002000C0B200F005F82000C0B2A8
:104E300000F00CF810BD10B504002000C0B200094D
:104E400050F01000C0B2FFF7C7FF10BD10B504004E
:104E500014F00F00FFF7C0FF10BD70B50024200054
:104E6000C0B210282EDA1A4D286840782100C9B245
:104E7000491CB0EBC10F23DA2868C0782100C9B201
:104E8000B0EBC10F1EDB2000C0B2FFF7BFFF2868E8
:104E90000078FFF7C5FF2868067828688078310019
:104EA000C9B288420CD30B4801682200D2B28020DC
:104EB000424352FA86F0085CFFF79BFF761CECE752
:104EC000641CCCE7FFF73CFF70BD00000008004801
:104ED000C4260020C026002080B5AE20FFF77CFF4E
:104EE000A220FFF779FFA020FFF776FFC820FFF789
:104EF00073FF2F20FFF770FF322000F0C7FEA420C1
:104F0000FFF76AFF4020FFF767FF2520FFF764FFE8
:104F10000A2000F0BBFE8120FFF75EFF1220FFF7A2
:104F20005BFFFFF729FFAF20FFF756FF052000F0DA
:104F3000ADFE01BD62F30F2262F31F42401810F074
:104F4000030308D0C91A1FD3DB0748BF00F8012D9F
:104F500028BF20F8022D130030B41446154610392E
:104F600028BF20E93C00FAD8490728BF20E90C00F7
:104F700048BF40F8042D890028BF20F8022D48BF03
:104F800000F8012D30BC7047C91818BF00F8012D7A
:104F9000CB0728BF00F8012D7047000070B4039CB8
:104FA000DFF88453286029716A71AB71EC710126B6
:104FB0002E7270BC70472DE9F74F04000D00DFF82A
:104FC00068639DF80800B179884204D3F0799DF8B0
:104FD0000810884202D22E208DF80800307A00286E
:104FE00045D1002738003179C0B288423DD23168BE
:104FF0009DF80820B079121A3079424301EB020083
:105000003900C9B210F80190002080464046C0B275
:10501000082828DA3800C0B250FA84F0802805DA6F
:105020004046C0B250FA85F0402801DB00205DE127
:10503000012010FA08F04946C9B2014208D0012205
:1050400018EB0501C9B23819C0B200F06FF907E0DA
:10505000002218EB0501C9B23819C0B200F066F998
:1050600018F10108D2E77F1CBCE730793EE1307AC5
:10507000012840F08E807079082190FBF1F201FB4D
:105080001200012806DB7079082190FBF1FB1BF16F
:10509000010B03E07079082190FBF1FB3179584650
:1050A000C0B24143491C8DF8011031689DF80820B9
:1050B000B079121A9DF80100424301EB0200017819
:1050C0008DF80010401C01905FF0000840469DF8EC
:1050D0000010C0B2884259D25FF0000948465946D4
:1050E000C0B2C9B288424ED201994246D2B25846A5
:1050F000C0B2424301EB02004946C9B210F801A018
:10510000002007003800C0B2082839DA4046C0B293
:1051100050FA84F0802808DA4846C0B2C00050FA3D
:1051200085F050FA87F0402801DB0020DEE0484699
:10513000C0B2C00050FA87F0717988421EDA0121AE
:10514000B9405046C0B208420CD001225FFA89F93A
:1051500015EBC9017918C9B218EB0400C0B200F010
:10516000E5F80BE000225FFA89F915EBC90179181F
:10517000C9B218EB0400C0B200F0D8F87F1CC1E738
:1051800019F10109AAE718F101089FE79DF800004D
:10519000ACE0307A022840F0A8807079082190FBBA
:1051A000F1F0401C8DF8000030799DF8001010FBE4
:1051B00001F08DF8020031689DF80820B079121ACC
:1051C0009DF80200424301EB0200019096F804B002
:1051D00000208DF8010000210020002210009DF821
:1051E0000030C0B298420CD23079431E9DF80100C5
:1051F0001B1A13FB02F0019BC0B2185C0100521C89
:10520000ECE70800C0B200280BD1BBF1010B5846F7
:10521000C0B2002805D09DF80100401C8DF80100A7
:10522000D9E7002738009DF80010C0B2884259D253
:105230005FF0000840465946C0B2C9B288424FD21A
:1052400001993A00D2B23079424301EB0200414663
:10525000C9B210F801905FF0000A5046C0B20828A9
:105260003BDA4046C0B250FA84F0802808DA3800B1
:10527000C0B2C00050FA85F050FA8AF0402801DB35
:10528000002033E03800C0B2C00050FA8AF07179D3
:1052900088421FDA012111FA0AF14846C0B20842D9
:1052A0000CD00122FFB215EBC7011AEB0101C9B204
:1052B00018EB0400C0B200F039F80BE00022FFB296
:1052C00015EBC7011AEB0101C9B218EB0400C0B21B
:1052D00000F02CF81AF1010ABFE718F10108A9E75C
:1052E0007F1C9FE75846C0B200E00020BDE8FE8F5B
:1052F000F8B504000F0015000B484079D0F13F00CD
:105300003900C9B288420EDB287800280BD02A78F1
:105310003900C9B22000C0B2FFF74DFE0600701C74
:1053200004196D1CF0E7F1BD94260020F8B50400C7
:105330000D0016002000C0B2802803DA2800C0B299
:10534000402800DB57E03000C0B2002824D02900FC
:10535000C9B20822DFF8CC312800C0B2082790FB80
:10536000F7F78020474357FA84F72800C0B25FF070
:10537000080C90FBFCFC802000FB0CFC5CFA84F029
:10538000185C5FF0010C91FBF2FE02FB1E111CFA8F
:1053900001F10143D95524E02900C9B20822DFF800
:1053A00084312800C0B2082790FBF7F780204743DC
:1053B00057FA84F72800C0B25FF0080C90FBFCFCA1
:1053C000802000FB0CFC5CFA84F0185C5FF0010CA0
:1053D00091FBF2FE02FB1E111CFA01F130EA010101
:1053E000D9552B00DBB22200D2B22900C9B220006D
:1053F000C0B2FFF769FCF1BD2DE9F84F05000E00C2
:10540000170098460A9C3800C0B22900C9B2401A59
:1054100003F0F7FD81464046C0B23100C9B2401AE0
:1054200003F0EFFD814502DA5FF0010B01E05FF070
:10543000000B5846C0B2002805D0280035000600F1
:1054400038004746804638002900C0B2C9B28842B9
:1054500005D228003D0007003000464680464346FE
:10546000DBB23A00D2B23100C9B22800C0B2FFF7B5
:105470002BFC781B8DF800004046C0B23100C9B249
:10548000401A03F0BEFD8DF801009DF800000221D6
:1054900090FBF1F930004146C0B2C9B2884202D255
:1054A0005FF0010A01E05FF0FF3A38002900C0B266
:1054B000C9B2884224D35846C0B2002808D022007E
:1054C000D2B22900C9B23000C0B2FFF72FFF07E007
:1054D0002200D2B23100C9B22800C0B2FFF726FFC5
:1054E0009DF80100B9EB0009484640B2002805D5F7
:1054F0001AEB06069DF8000010EB09096D1CD4E7B5
:10550000BDE8F18FF8B504004FF480652600064829
:1055100007682A003100380001F06AFCFFF71EFC22
:10552000F1BD0000A40F0020C026002030B403000D
:105530004FF6FF7000248C4213DA1A5D50400822A7
:10554000002A0CD0C50706D580B2400880F4204060
:1055500090F0010001E080B24008521EF0E7641CA8
:10556000E9E780B230BC70472DE9F84305000E0032
:1055700017009846089C5FF000092868494689B2E0
:10558000465419F101092868494689B2475419F16E
:105590000109404680B2000A29684A4692B28854FE
:1055A00019F101092868494689B200F8018019F10A
:1055B0000109200080B2000A29684A4692B2885444
:1055C00019F101092868494689B2445419F10109C1
:1055D000494689B22868FFF7A9FF010028684A46B2
:1055E00092B2815419F10109080080B2000A2A68B8
:1055F0004B469BB2D05419F10109A5F80490012043
:10560000BDE8F2832DE9F84F06000F009046994659
:105610000A9DDDF82CA0002400213068220092B2FF
:105620008754641C3068220092B200F80280641C27
:10563000484680B2000A326823009BB2D054641CF2
:105640003068220092B200F80290641C4046C0B25A
:10565000062802D0102807D01CE0280080B20128BC
:1056600001D0002040E015E0280080B2000A326836
:1056700023009BB2D054641C3068220092B285543F
:10568000641C2800C0B24000326823009BB2D05492
:10569000641CFFE75FF0000B584680B2290089B216
:1056A000B0EB410F0BDA584680B21AF800003168AF
:1056B000220092B28854641C1BF1010BECE721001C
:1056C00089B23068FFF732FF01003068220092B2E1
:1056D0008154641C080080B2000A326823009BB227
:1056E000D054641CB4800120BDE8F28F2DE9F84F3E
:1056F00005000E00170098460A9CDDF82C905FF01C
:10570000000B002029685A4692B28E541BF1010BFF
:1057100029685A4692B28F541BF1010B2100C9B27D
:1057200049002A685B469BB2D1541BF1010B5FF024
:10573000000A504680B2210089B2B0EB410F0CDA6A
:10574000504680B219F8000029685A4692B288542F
:105750001BF1010B1AF1010AEBE7594689B22868DF
:10576000FFF7E4FE010028685A4692B281541BF10B
:10577000010B080080B2000A2A685B469BB2D05435
:105780001BF1010BA5F804B00120BDE8F28F2DE953
:10579000F84F05000E00170098460A9CDDF82C9083
:1057A0005FF0000B5FF0000A2868594689B2465442
:1057B0001BF1010B2868594689B247541BF1010BB4
:1057C000404680B2000A29685A4692B288541BF1BA
:1057D000010B2868594689B200F801801BF1010BC2
:1057E0003800C0B2062802D010281DD02CE02000BE
:1057F00080B2012801D000203EE0002082465046C1
:1058000080B2210089B2B0EB410F0CDA504680B271
:1058100019F8000029685A4692B288541BF1010B0E
:105820001AF1010AEBE70FE0200080B2000A2968B4
:105830005A4692B288541BF1010B2868594689B226
:1058400044541BF1010BFFE7594689B22868FFF762
:105850006DFE010028685A4692B281541BF1010B7B
:10586000080080B2000A2A685B469BB2D0541BF144
:10587000010BA5F804B00120BDE8F28F80B5D44833
:10588000D44901605FF4E131416000218160002171
:10589000C160002101610C21416100218161002171
:1058A00001620021416200F005FA002801D003F0F6
:1058B0000BFC01BD80B5C848C84901604FF41651C2
:1058C0004160002181600021C160002101610C2143
:1058D0004161002181610021C1610021016200213B
:1058E000416200F0E7F9002801D003F0EDFB01BDB3
:1058F00080B5BB48BB4901604FF41651416000219F
:1059000081600021C160002101610C214161002101
:1059100081610021C161002101620021416200F02A
:10592000C9F9002801D003F0CFFB01BD38B59EB006
:10593000040014220021684603F0C8FB6022002105
:1059400006A803F0C3FB2068A249884252D1202058
:1059500006900020119006A803F0C2FB002801D099
:1059600003F0B2FBA048016851F00101016000683A
:1059700010F00100059005989C48016851F0020163
:105980000160006810F00200059005984FF4406037
:105990000090022001900120029003200390082033
:1059A000049069469248FBF70BFE924D924828609E
:1059B000042068600020A8600020E8608020286142
:1059C000002068610020A8610020E86100202862B2
:1059D000280003F0F9FD002801D003F075FB65678E
:1059E000AC6200220021462004F08FF8462004F02B
:1059F000A1F8ABE020687949884251D10120069096
:105A000000200E9006A803F06BFB002801D003F0E5
:105A10005BFB7A48016851F480410160006810F432
:105A20008040059005987148016851F002010160BD
:105A3000006810F0020005900598C0200090022038
:105A400001900020029003200390072004906946F3
:105A50006748FBF7B5FD6A4D6A4828600220686018
:105A60000020A8600020E860802028610020686194
:105A70000020A8610020E86100202862280003F0CF
:105A8000A3FD002801D003F01FFB6567AC62002274
:105A90000021252004F039F8252004F04BF855E0CA
:105AA00020685049884251D104200690002010906F
:105AB00006A803F015FB002801D003F005FB5248AF
:105AC000016851F480210160006810F48020059085
:105AD00005984648016851F004010160006810F023
