:020000040800F2
:10000000302C0020B9F2000825EC000827EC00088D
:1000100029EC00082BEC00082DEC00080000000083
:100020000000000000000000000000002FEC0008AD
:1000300031EC00080000000033EC000835EC00084B
:1000400015F6000819F600081DF6000821F600084C
:1000500025F6000829F600082DF6000831F60008FC
:1000600035F6000839F600083DF6000841F60008AC
:1000700045F6000885EC000849F600088FEC0008FA
:100080004DF6000851F6000855F6000859F600082C
:100090005DF6000861F6000865F6000869F60008DC
:1000A0006DF6000871F6000875F6000879F600088C
:1000B0007DF60008000000000000000081F6000846
:1000C00085F6000889F600088DF6000891F600080C
:1000D00095F6000899EC000899F60008A3EC0008D2
:1000E0009DF60008ADEC00080000000000000000D4
:1000F0000000000000000000000000000000000000
:1001000000000000A1F6000800000000A5F60008AD
:100110000000000000000000A9F60008ADF600088D
:10012000B1F60008B5F60008B9F60008BDF60008FB
:10013000C1F6000800000000000000000000000000
:10014000C5F60008C9F60008CDF60008D1F600088B
:10015000D5F60008B7EC0008C1EC0008D9F6000895
:10016000DDF60008E1F60008E5F6000800000000F2
:10017000E9F60008EDF60008F1F6000800000000BE
:10018000F5F60008F9F60008FDF6000880B55448B9
:100190000078012806D0022807D0042808D00828B3
:1001A00009D00BE000F0A0F808E000F089FE05E0BF
:1001B00001F04AF802E001F009FAFFE701BD2DE97C
:1001C000F0470024474D2888002804D02888401E86
:1001D0002880002081E0424E307A00287CD1202106
:1001E000DFF8BC0C01F0DAFE002801D1012700E0A5
:1001F0000027DFF8B08C0421404601F0CFFE002834
:1002000002D15FF0010901E05FF0000902214046E0
:1002100001F0C4FE002802D15FF0010A01E05FF0A6
:10022000000A0121404601F0B9FE002801D1012059
:1002300000E0002057EA490757EA8A073C0054EAE1
:10024000C0042000C0B2012805D0022803D0042831
:1002500001D0082836D17068401C70607068502842
:100260002FD3347001203072DFF83C1C086814284A
:1002700001D219202880DFF8340C22000378D2B292
:100280009A4219D10A68521C0A600A681E2A02D2D0
:100290000021716014E00A68B42A02D24121716021
:1002A0000EE00A68F02A02D24621716008E04E2270
:1002B0007260F0220A6003E00022726000220A608D
:1002C000047009E00020DFF8E41B0870282070604B
:1002D0000020DFF8D41B08603078BDE8F08700000C
:1002E000382700200C280020F8B584B0DFF8C04B78
:1002F000A078002817D001283AD002286AD0032815
:1003000000F0FB80042800F07F81052800F0308297
:10031000062800F0B482072800F07F83092800F047
:10032000868400F0BBBDDFF88C5B0020E860DFF85E
:10033000886B0A220021300001F0B6FE30203070B8
:10034000302070703020B0703020F070E86800010C
:10035000801CC0B2039002960520019004200090FA
:10036000052300220121A01C02F094FC00F096BDA0
:10037000DFF8400BC168491CC160C16804291EDB5D
:10038000DFF8340B02F0A1FC012815D1A51C0622D0
:10039000290014F1080001F0D5FEF120039000209F
:1003A00002900C20019007200090072300220221D8
:1003B000280002F06FFC0BE00020A07008E0C0688D
:1003C0000001801C0200D2B20021A01C02F03FFC00
:1003D00000F064BD207907280AD0C0F08C8009287D
:1003E00032D01BD30B285BD044D30C286ED082E0D4
:1003F000A51C0622290014F1080001F0A3FEF1203B
:100400000390002002900F2001900E2000900E23F8
:1004100000220321280002F03DFC6CE0A51C06220E
:10042000290014F1080001F08DFEF1200390002056
:100430000290142001901220009012230022042127
:10044000280002F027FC56E0A51C0622290014F122
:10045000080001F077FEF1200390002002901720A1
:10046000019016200090162300220521280002F09A
:1004700011FC40E0A51C0622290014F1080001F03F
:1004800061FEF1200390002002901B2001901920B2
:100490000090192300220621280002F0FBFB2AE02D
:1004A000A51C0622290014F1080001F04BFEF120E2
:1004B000039000200290202001901D2000901D2319
:1004C00000220721280002F0E5FB14E0A51C06220B
:1004D000290014F1080001F035FE002003900020EF
:1004E0000290232001902320009023230022082142
:1004F000280002F0CFFB00F0D1BC20790E2802D0FA
:100500000F2840D07EE0E078002802D001281FD0DC
:1005100038E0A61C0622310014F1080001F012FE9A
:10052000DFF89059F220039015F10C0002900F2093
:1005300001900E2000900E23E278521CD2B20321CB
:10054000300002F0A7FBDFF874094078E86019E09A
:10055000A51C0622290014F1080001F0F3FDF0208B
:100560000390002002902620019026200090262350
:1005700000220921280002F08DFB0120DFF83C1940
:100580000870FFE73EE0E078002802D001281FD085
:1005900038E0A61C0622310014F1080001F0D2FD5B
:1005A000DFF81059F220039015F10C0002900F2093
:1005B00001900F2000900F23E278521CD2B2032149
:1005C000300002F067FBDFF8F4084068E86019E0EB
:1005D000A51C0622290014F1080001F0B3FDF0204B
:1005E00003900020029026200190262000902623D0
:1005F00000220921280002F04DFB0120DFF8BC1881
:100600000870FFE700F04ABC2079122806D0C0F03D
:10061000AE80142800F08E8046D3A8E0E078002851
:1006200002D001281FD03EE0A61C0622310014F1A2
:10063000080001F087FDDFF87C58F220039015F1E7
:100640000C00029014200190122000901223E278F6
:10065000521CD2B20421300002F01CFBDFF85C080F
:10066000406AE8601FE0A51C0622290014F108007A
:1006700001F068FDF02003900020029026200190F8
:1006800026200090262300220921280002F002FBE8
:10069000DFF8AC1BDFF81C08C068088002220120CC
:1006A00003F00CF8FFE762E0E078002802D00128B0
:1006B0001FD03EE0A61C0622310014F1080001F014
:1006C00041FDDFF8F057F220039015F10C00029085
:1006D00014200190122000901323E278521CD2B211
:1006E0000421300002F0D6FADFF8D007806AE86013
:1006F0001FE0A51C0622290014F1080001F022FDCC
:10070000F0200390002002902620019026200090E7
:10071000262300220921280002F0BCFADFF8201B62
:10072000DFF89007C06808800222022002F0C6FFAE
:10073000FFE71CE0A51C0622290014F1080001F0C7
:1007400001FDF02003900020029026200190262039
:100750000090262300220921280002F09BFADFF8EE
:10076000E01A002008800222032002F0A7FF95E390
:100770002079162802D0172840D07FE0E0780028A2
:1007800002D001281FD038E0A61C0622310014F147
:10079000080001F0D7FCDFF81C57F220039015F198
:1007A0000C00029017200190162000901623E2788A
:1007B000521CD2B20521300002F06CFADFF8FC06C0
:1007C000C069E86019E0A51C0622290014F10800A0
:1007D00001F0B8FCF0200390002002902620019048
:1007E00026200090262300220921280002F052FA38
:1007F0000120DFF8C8160870FFE73FE0E078002826
:1008000002D001281FD038E0A61C0622310014F1C6
:10081000080001F097FCDFF89C56F220039015F1D8
:100820000C00029017200190162000901723E27808
:10083000521CD2B20521300002F02CFADFF87C06FF
:10084000006AE86019E0A51C0622290014F10800DE
:1008500001F078FCF0200390002002902620019007
:1008600026200090262300220921280002F012FAF7
:100870000120DFF848160870FFE7FFE70EE3207954
:10088000192806D0C0F0C8801B2800F0858043D30B
:10089000C2E0E078002802D0012822D03BE0A71C6B
:1008A0000622390014F1080001F04CFCDFF8045670
:1008B00015F10C06F220039002961B2001901920DE
:1008C00000901923E278521CD2B20621380002F0BF
:1008D000E1F9DFF870090078E860DFF8E0054663C9
:1008E00019E0A51C0622290014F1080001F02AFCD9
:1008F000F0200390002002902620019026200090F6
:10090000262300220921280002F0C4F90120DFF883
:10091000AC150870FFE77FE0E078002802D00128DE
:100920001FD038E0A61C0622310014F1080001F0A7
:1009300009FCDFF88055F220039015F10C000290BD
:100940001B200190192000901A23E278521CD2B289
:100950000621300002F09EF9DFF86005C06AE86009
:1009600019E0A51C0622290014F1080001F0EAFB99
:10097000F020039000200290262001902620009075
:10098000262300220921280002F084F90120DFF843
:100990002C150870FFE73FE0E078002802D001281E
:1009A0001FD038E0A61C0622310014F1080001F027
:1009B000C9FBDFF80055F220039015F10C000290FE
:1009C0001B200190192000901B23E278521CD2B208
:1009D0000621300002F05EF9DFF8E004006BE86009
:1009E00019E0A51C0622290014F1080001F0AAFB59
:1009F000F0200390002002902620019026200090F5
:100A0000262300220921280002F044F90120DFF802
:100A1000AC140870FFE7FFE740E220791D2809D0F9
:100A2000C0F004811F2800F0858043D3202800F007
:100A3000C080FBE0E078002802D001281FD038E019
:100A4000A61C0622310014F1080001F07BFBDFF840
:100A50006454F220039015F10C00029020200190C4
:100A60001D2000901D23E278521CD2B207213000D5
:100A700002F010F9DFF84404806BE86019E0A51C6F
:100A80000622290014F1080001F05CFBF02003901D
:100A9000002002902620019026200090262300228C
:100AA0000921280002F0F6F80120DFF81014087080
:100AB000FFE7BBE0E078002802D001281FD038E033
:100AC000A61C0622310014F1080001F03BFBDFF800
:100AD000E453F220039015F10C00029020200190C5
:100AE0001D2000901E23E278521CD2B20721300054
:100AF00002F0D0F8DFF8C403C06BE86019E0A51C71
:100B00000622290014F1080001F01CFBF0200390DC
:100B1000002002902620019026200090262300220B
:100B20000921280002F0B6F80120DFF890130870C0
:100B3000FFE77BE0E078002802D001281FD037E0F3
:100B4000A61C0622310014F1080001F0FBFADFF8C0
:100B50006453F220039015F10C00029020200190C4
:100B60001D2000901F23E278521CD2B207213000D2
:100B700002F090F8DFF84403006CE86018E0A51C70
:100B80000622290014F1080001F0DCFAF02003909D
:100B9000002002902620019026200090262300228B
:100BA0000921280002F076F80120C4490870FFE707
:100BB0003CE0E078002802D001281DD035E0A61CDA
:100BC0000622310014F1080001F0BCFAB94DF22000
:100BD000039015F10C000290202001901D20009040
:100BE0002023E278521CD2B20721300002F052F8E2
:100BF000B248406CE86018E0A51C0622290014F1F8
:100C0000080001F09FFAF0200390002002902620B7
:100C1000019026200090262300220921280002F0BE
:100C200039F80120A5490870FFE7FFE736E1207A8F
:100C300003280AD0C0F03181052838D0C0F02A81BD
:100C4000072800F0B28069D327E1322001F0CCFC04
:100C500003209A490870A07A0E2802D00F2809D0E4
:100C600024E0DFF84C0941789248C068C0B203F034
:100C70002AFD1BE000200100C9B20B290FDADFF8C2
:100C800034190200D2B251F822108A4AD268914235
:100C900003D1DFF81C19487001E0401CEBE7DFF8D6
:100CA00010094178007803F00EFDFFE7F5E0834D71
:100CB00003202870322001F097FCA07A162802D079
:100CC000172815D029E0287A03F00EFF00EE100A4D
:100CD000DFF8E408D0ED060A764890ED031AB8EE86
:100CE000C11AB8EE400A81EE000A02F078FD14E065
:100CF000687A03F0F9FE00EE100A6E48D0ED030AA0
:100D0000F8EEE00AB8EE400AC0EE800ADFF8A80864
:100D100090ED050A02F063FDFFE7BEE0674D03209A
:100D20002870322001F060FCA07A192804D03BD34F
:100D30001B2823D00CD337E0DFF80805D0ED020ADA
:100D400090ED010A5B48C068C0B202F0F8FD2BE0EC
:100D5000A87A03F0C9FE00EE100ADFF8E80455494E
:100D6000D1ED030AF8EEE00AB8EE400AC0EE800AC0
:100D700090ED010A007802F0E2FD15E0A87A03F098
:100D8000B3FE00EE100ADFF8BC04D0ED020A4949B8
:100D900091ED031AB8EEC11AB8EE400A81EE000ACE
:100DA000007802F0CCFDFFE777E0444D0320287087
:100DB000322001F019FCA07A1D2806D069D31F2823
:100DC00035D01BD320284BD063E0E87A03F08CFEAB
:100DD00000EE100ADFF8E407D0ED031A90ED021AD6
:100DE000D0ED010A334890ED032AB8EEC22AB8EEDE
:100DF000400A82EE000A02F067FE4AE0E87A03F059
:100E000073FE00EE100ADFF8B407D0ED031A90ED80
:100E1000021A2849D1ED030AF8EEE00AB8EE400ABA
:100E2000C0EE800A90ED000A02F04EFE31E0E87A52
:100E300003F05AFE00EE100ADFF88007D0ED031A27
:100E40001C49D1ED030AF8EEE00AB8EE400A80EE44
:100E5000801AD0ED010A90ED000A02F035FE18E08C
:100E6000E87A03F041FE00EE100ADFF8500711495E
:100E7000D1ED030AF8EEE00AB8EE400AC0EE801A9F
:100E800090ED021AD0ED010A90ED000A02F01CFE6E
:100E9000FFE702E002F002FCFFE7FFE705B0F0BD6C
:100EA0000008004800040048C42700201C28002037
:100EB0008027002038270020000000207C00002030
:100EC00010B5DFF8FC36987800280ED002281ED026
:100ED0000CD3042876D027D3062800F0E280C0F097
:100EE000AD80072800F03681A8E1A7E1DFF8D4063D
:100EF000DFF8D416CA68825C521CCB68C254CA6838
:100F0000825C3A2A02DB3022C968425496E1587961
:100F10001979884202D21879401E1871F1220021F5
:100F2000981C01F094FE89E1D87800280CD15879FA
:100F30001979884202D21879401E1871F1220021D5
:100F4000981C01F084FE3CE018790E2802D00F288E
:100F500012D036E0D878002802D0012801D00AE06B
:100F600009E0DFF86406C168B1F5807F02DAC16884
:100F7000491CC160FFE724E0D878002802D001288E
:100F800001D01EE01DE000210800C0B20B2817DAD6
:100F9000DFF82026DFF830060B00DBB252F82330F2
:100FA000C468A3420AD10B00DBB20A2B06DA0B009D
:100FB000DBB202EB83025268C26001E0491CE3E746
:100FC000FFE73BE1D87800280CD15879197988429D
:100FD00002D21879401E1871F1220021981C01F0EC
:100FE00036FE2AE01879122804D026D3142824D0FB
:100FF00011D322E0D878002802D0012801D009E0DE
:1010000008E0DFF8C405C168642902D14FF47A71A1
:10101000C160FFE711E0D878002802D0012801D094
:101020000AE009E0DFF8A005C168B1F57A7F02D1D6
:1010300042F21071C160FFE7FFE7FFE0D8780028B7
:101040000CD158791979884202D21879401E18714A
:10105000F1220021981C01F0FAFD21E018791628F0
:1010600002D017280ED01BE0D878002802D0012823
:1010700001D006E005E0DFF85005C168491CC160F9
:10108000FFE70DE0D878002802D0012801D006E063
:1010900005E0DFF83405C168491CC160FFE7FFE7E0
:1010A000CCE0D87800280CD158791979884202D23E
:1010B0001879401E1871F1220021981C01F0C7FD1B
:1010C00047E01879192804D043D31B282DD013D317
:1010D0003FE0D878002802D0012801D00BE00AE0D8
:1010E000DFF8E414C868002802D10120C86001E0DC
:1010F0000020C860FFE72CE0D878002802D0012843
:1011000001D011E010E0DFF8300B807A03F0ECFC46
:10111000DFF8B424D3684FF47A714843834202D293
:10112000D068401CD060FFE713E0D878002802D0D8
:10113000012801D00CE00BE0DFF88C04C168DFF877
:10114000F82AD26A914202DAC168491CC160FFE7FD
:10115000FFE773E0D87800280CD1587919798842D4
:1011600002D21879401E1871F1220021981C01F05A
:101170006EFD62E018791D2806D05ED31F2830D09E
:101180001BD3202845D058E0D878002802D0012869
:1011900001D011E010E0DFF8A00AC07A03F0A4FC4F
:1011A000DFF82424D3684FF47A714843834202D293
:1011B000D068401CD060FFE73FE0D878002802D01C
:1011C000012801D00CE00BE0DFF8FC03C168DFF878
:1011D000682A926B914202DAC168491CC160FFE73C
:1011E0002BE0D878002802D0012801D010E00FE0D1
:1011F000DFF8440AC07A03F077FCDFF8CC23D36829
:1012000050214843834202D2D068401CD060FFE79F
:1012100013E0D878002802D0012801D00CE00BE0C0
:10122000DFF8A403C168DFF8102A126C914202DAD9
:10123000C168491CC160FFE7FFE7FFE710BD000080
:101240000E280020AC27002010B5DFF87433987802
:1012500000280ED002281ED00CD3042876D027D325
:10126000062800F0DF80C0F0AC80072800F02F8156
:101270009CE19BE1DFF84C03DFF84C13CA68825C09
:10128000521ECB68C254CA68825C302A02DA392204
:10129000C96842548AE118799979884202D218794A
:1012A000401C1871F1220021981C01F0D0FC7DE156
:1012B000D87800280CD118799979884202D2187907
:1012C000401C1871F1220021981C01F0C0FC3CE088
:1012D00018790E2802D00F2811D036E0D8780028CF
:1012E00002D0012801D009E008E0DFF8DC02C16883
:1012F000012902DBC168491EC160FFE725E0D878FB
:10130000002802D0012801D01FE01EE00A221000B0
:10131000C0B2002818D0DFF89C32DFF8AC12100001
:10132000C0B253F82000CC68A0420BD11000C0B26C
:10133000002807D01000C0B203EB800050F8040C66
:10134000C86001E0521EE2E7FFE72FE1D8780028ED
:101350000CD118799979884202D21879401C1871F9
:10136000F1220021981C01F072FC29E01879122862
:1013700004D025D3142823D010D321E0D878002816
:1013800002D0012801D008E007E08F48C168B1F51C
:101390007A7F01D16421C160FFE711E0D87800288D
:1013A00002D0012801D00AE009E08748C16842F272
:1013B0001072914202D14FF47A71C160FFE7FFE7EA
:1013C000F4E0D87800280CD118799979884202D2B3
:1013D0001879401C1871F1220021981C01F037FC8B
:1013E0001FE01879162802D017280DD019E0D878F8
:1013F000002802D0012801D005E004E07248C1684D
:10140000491EC160FFE70CE0D878002802D001280F
:1014100001D005E004E06C48C168491EC160FFE7E7
:10142000FFE7C3E0D87800280CD118799979884271
:1014300002D21879401C1871F1220021981C01F089
:1014400006FC43E01879192804D03FD31B2826D086
:1014500012D33BE0D878002802D0012801D00AE05E
:1014600009E05949C868002802D10120C86001E09C
:101470000020C860FFE729E0D878002802D00128C2
:1014800001D00BE00AE05048DFF8AC17096BC268E6
:10149000914202DAC168491EC160FFE716E0D878C0
:1014A000002802D0012801D00FE00EE0DFF8880705
:1014B000807A03F019FB444A00214843D1688842EE
:1014C00002D2D068401ED060FFE7FFE76EE0D87818
:1014D00000280CD118799979884202D21879401CD9
:1014E0001871F1220021981C01F0B1FB5DE0187920
:1014F0001D2806D059D31F282DD015D320283DD024
:1015000053E0D878002802D0012801D00BE00AE08F
:101510002D48DFF82417C96BC268914202DAC1680E
:10152000491EC160FFE740E0D878002802D00128BA
:1015300001D00FE00EE0DFF80007C07A03F0D4FA24
:10154000214A00214843D168884202D2D068401E17
:10155000D060FFE729E0D878002802D0012801D028
:101560000BE00AE01848DFF8D016496CC2689142D7
:1015700002DAC168491EC160FFE716E0D87800288A
:1015800002D0012801D00FE00EE0DFF8AC06C07AEF
:1015900003F0AAFA0C4A00214843D168884202D2DB
:1015A000D068401ED060FFE7FFE7FFE710BD0000F6
:1015B000980B0020300600200027002090270020F4
:1015C0008027002000000020382700207FB5DFF8AA
:1015D0006C46A078002814D0022816D012D3042814
:1015E00000F0898014D3062800F08481C0F00F81B8
:1015F000082800F00B83C0F02882092800F00D8332
:1016000018E317E30020A07014E30020A07011E39A
:1016100020790E2802D00F2836D06BE0E078002821
:1016200002D0012816D02EE0A51CF1200390002046
:1016300002900C2001900720009007230022022135
:10164000280001F027FB0622290014F1080000F011
:1016500079FD18E0A51C0622290014F1080000F00D
:1016600071FDF1200390DFF8D80502900F20019062
:101670000E2000900E23E078421ED2B203212800F3
:1016800001F008FBFFE735E0E078002802D00128F0
:1016900016D02EE0A51CF1200390002002900C2013
:1016A000019007200090072300220221280001F06A
:1016B000F1FA0622290014F1080000F043FD18E0B9
:1016C000A51C0622290014F1080000F03BFDF120C2
:1016D0000390DFF8700502900F2001900E2000901B
:1016E0000F23E078421ED2B20321280001F0D2FA83
:1016F000FFE7FFE79EE22079122805D0C0F0868040
:1017000014286DD036D381E0E078002802D001287B
:1017100016D02EE0A51CF1200390002002900C2092
:10172000019007200090082300220221280001F0E8
:10173000B1FA0622290014F1080000F003FD18E0B8
:10174000A51C0622290014F1080000F0FBFCF12082
:101750000390DFF8F404029014200190122000900E
:101760001223E078421ED2B20421280001F092FA3E
:10177000FFE74BE0E078002802D0012816D02EE0E9
:10178000A51CF1200390002002900C20019007205E
:101790000090082300220221280001F07BFA062293
:1017A000290014F1080000F0CDFC18E0A51C062269
:1017B000290014F1080000F0C5FCF1200390DFF8C7
:1017C0008C04029014200190122000901323E078E2
:1017D000421ED2B20421280001F05CFAFFE715E0B6
:1017E000A51CF1200390002002900C2001900720FE
:1017F0000090082300220221280001F04BFA062263
:10180000290014F1080000F09DFCFFE712E22079A6
:10181000162802D0172836D06BE0E078002802D0D6
:10182000012816D02EE0A51CF12003900020029084
:101830000C2001900720009009230022022128009B
:1018400001F028FA0622290014F1080000F07AFCC1
:1018500018E0A51C0622290014F1080000F072FC13
:10186000F1200390DFF8E803029017200190162082
:1018700000901623E078421ED2B20521280001F024
:1018800009FAFFE735E0E078002802D0012816D0F9
:101890002EE0A51CF1200390002002900C20019066
:1018A00007200090092300220221280001F0F2F90C
:1018B0000622290014F1080000F044FC18E0A51CE1
:1018C0000622290014F1080000F03CFCF1200390EE
:1018D000DFF8800302901720019016200090172354
:1018E000E078421ED2B20521280001F0D3F9FFE7CB
:1018F000FFE79FE12079192805D0C0F0A5801B28BB
:101900006DD037D3A0E0E078002802D0012816D0AF
:101910002FE0A51CF1200390002002900C200190E4
:10192000072000900A2300220221280001F0B2F9CA
:101930000622290014F1080000F004FC19E0A51C9F
:101940000622290014F1080000F0FCFBC24EF12031
:10195000039002961B200190192000901923E07833
:10196000421ED2B20621280001F094F9B248466323
:10197000FFE769E0E078002802D0012816D02DE0CA
:10198000A51CF1200390002002900C20019007205C
:1019900000900A2300220221280001F07BF9062290
:1019A000290014F1080000F0CDFB17E0A51C062269
:1019B000290014F1080000F0C5FBF1200390A748AE
:1019C00002901B200190192000901A23E078421EFB
:1019D000D2B20621280001F05DF9FFE734E0E0789B
:1019E000002802D0012816D02DE0A51CF12003907C
:1019F000002002900C200190072000900A23002272
:101A00000221280001F046F90622290014F10800FD
:101A100000F098FB17E0A51C0622290014F108002D
:101A200000F090FBF12003908D4802901B20019064
:101A3000192000901B23E078421ED2B20621280014
:101A400001F028F9FFE7FFE7F4E020791D2808D02E
:101A5000C0F0DB801F286ED038D3202800F0A08093
:101A6000D3E0E078002802D0012816D02DE0A51C94
:101A7000F1200390002002900C200190072000909C
:101A80000B2300220221280001F004F9062229007C
:101A900014F1080000F056FB17E0A51C06222900EF
:101AA00014F1080000F04EFBF12003906D48029005
:101AB000202001901D2000901D23E078421ED2B20C
:101AC0000721280001F0E6F8FFE79EE0E078002813
:101AD00002D0012816D02DE0A51CF1200390002093
:101AE00002900C200190072000900B23002202217D
:101AF000280001F0CFF80622290014F1080000F0B8
:101B000021FB17E0A51C0622290014F1080000F0B3
:101B100019FBF120039054480290202001901D20D1
:101B200000901E23E078421ED2B20721280001F067
:101B3000B1F8FFE769E0E078002802D0012816D06C
:101B40002DE0A51CF1200390002002900C200190B4
:101B5000072000900B2300220221280001F09AF8B0
:101B60000622290014F1080000F0ECFA17E0A51C89
:101B70000622290014F1080000F0E4FAF120039095
:101B80003A480290202001901D2000901F23E07809
:101B9000421ED2B20721280001F07CF8FFE734E0B2
:101BA000E078002802D0012816D02DE0A51CF120F5
:101BB0000390002002900C200190072000900B233E
:101BC00000220221280001F065F80622290014F104
:101BD000080000F0B7FA17E0A51C0622290014F14E
:101BE000080000F0AFFAF120039021480290202075
:101BF00001901D2000902023E078421ED2B20721E0
:101C0000280001F047F8FFE7FFE713E0062214F190
:101C10000801A01C00F096FA0CE0074D2878022875
:101C200007D0062214F10801A01C00F08BFA002056
:101C30002870FFE77FBD00007C0000208027002087
:101C40007D00002080000020A0000020A4000020D3
:101C5000980000209C000020AC270020A800002055
:101C6000AC000020B4000020B8000020BC00002020
:101C7000C0000020F8B4030000250868E8400028F0
:101C800000F0D78001260F6816FA05F007403A00E9
:101C9000002A00F0CC80087910F00300012804D05D
:101CA000087910F0030002281DD19F685FF0030C33
:101CB0002800C0B240001CFA00FC37EA0C07D1F83B
:101CC0000CC02800C0B240001CFA00FC5CEA070708
:101CD0009F605868AE40B0434E68C6F30016AE40F1
:101CE000304304005C60087910F0030003280ED034
:101CF000DE6803272800C0B240008740BE438F68DB
:101D00002800C0B2400087403E433400DC600879C0
:101D100010F00300022818D12800C00803EB80004F
:101D2000066A0F2715F00700C0B280008740BE4347
:101D30000F6915F00700C0B2800087403E433400B1
:101D40002800C00803EB800004621E6803272800F7
:101D5000C0B240008740BE430F7917F00307280048
:101D6000C0B2400087403E4334001C60486810F415
:101D7000403F5CD09548066856F001060660006852
:101D800010F0010000900098914F2800800857F84B
:101D900020605FF00F0C15F00300C0B280001CFA49
:101DA00000FC36EA0C06B3F1904F01D1002414E098
:101DB0008848834201D101240FE08748834201D142
:101DC00002240AE08548834201D1032405E08448C7
:101DD000834201D1042400E0072415F00300C0B2BF
:101DE0008000844026432800800847F820607D4C0E
:101DF000206890434F68FF0200D5104320607A4E60
:101E0000346894434F68BF0200D514433460774E62
:101E1000306890434F68BF0300D510433060744E64
:101E2000346894434F68FF0300D5144334606D1C3D
:101E300023E7F1BC70472DE9F041030000250800BD
:101E4000E840002800F0A880012616FA05F00840B6
:101E50000200002A00F09E80DFF874C1280080088C
:101E60005CF820000F2715F0030E5FFA8EFE5FEA84
:101E70008E0E17FA0EFE1EEA00000400B3F1904F1A
:101E800002D15FF0000E19E05248834202D15FF0A8
:101E9000010E13E05048834202D15FF0020E0DE0C4
:101EA0004E48834202D15FF0030E07E04C48834264
:101EB00002D15FF0040E01E05FF0070E15F00300A1
:101EC000C0B280001EFA00FE74452CD14848D0F8FC
:101ED00000E03EEA020EC0F800E04448D0F800E01E
:101EE0003EEA020EC0F800E03F48D0F800E03EEACB
:101EF000020EC0F800E03B48D0F800E03EEA020ED7
:101F0000C0F800E015F00300C0B2800017FA00F03E
:101F10000400280080085CF82000A043AE465FEA79
:101F20009E0E4CF82E005FF0030C1868AE465FFA68
:101F30008EFE5FEA4E0E1CFA0EFE5EEA000018608E
:101F40002800C00803EB800E2800C00803EB8000C7
:101F5000D0F8208015F00700C0B28000874038EA32
:101F60000707CEF8207098682F00FFB27F001CFA98
:101F700007F7B84398605868AE4030EA06065E60DE
:101F8000DE682800C0B240001CFA00FC36EA0C0CE7
:101F9000C3F80CC06D1C52E7BDE8F0810200106967
:101FA0000B009BB2184201D0012000E00020C0B21B
:101FB00070471300DBB2002B03D00B009BB2836190
:101FC00002E00B009BB28362704700006010024089
:101FD000080001400004004800080048000C0048C8
:101FE00000100048080401400C04014004040140B2
:101FF0000004014038B504000D00DFF8FC01016861
:10200000200000F006F8A84201D3012000E00020E3
:1020100032BD814204D25FF0FF32101A081800E08E
:10202000081A704738B52DED048B08EE100A0C0025
:102030001500DFED438A2800C0B2FB2810DBB8EEA4
:10204000C89A2800C0B24042C0B200F08BF829EE16
:10205000009A00212000B0EE490A00F0B1F80EE02D
:10206000B8EEC89A2800C0B200F07CF889EE009A59
:102070002900C9B22000B0EE490A00F0A1F8BDEC79
:10208000048B31BD10B400210A00838892B29A42B9
:1020900006D2002203680C00A4B21A55491CF3E7CB
:1020A0000022828010BC704710B4040013005A1E36
:1020B0009BB2002B02D02170641CF7E710BC704764
:1020C00070B504000D001600DFF82401007821002F
:1020D000C9B2884209D3DFF824211068002804D04F
:1020E000310089B228001268904770BD38B50400ED
:1020F0000D00280002F0FEFE020092B2290020002E
:10210000C0B2FFF7DDFF31BD70B504000D0028003F
:1021100002F0F0FE020092B229002000C0B2FFF7E8
:10212000CFFFDFF8DC603068002807D0280002F01D
:10213000E1FE010089B228003268904770BD0000BE
:102140000000000030B404000D0013005A1E9BB2C2
:10215000002B04D02B7823706D1C641CF5E730BC79
:102160007047000010B504002000C0B2FB2816DB49
:102170002000C0B2D0F5807002F0F4FE41EC110BEB
:102180009FED200B02F007FF53EC102B00201949A4
:1021900002F00AFF03F02CF800EE100A0FE0200016
:1021A000C0B203F059F841EC110B9FED160B02F091
:1021B000F2FE51EC100B03F01BF800EE100A10BDFC
:1021C00038B52DED028B82B0B0EE408A04000D00D0
:1021D00018EE100A03F04EF8CDE900012A000B4971
:1021E000200003F06BF802B0BDEC028B31BD0000A3
:1021F0009C0B00200000F03FFC270020042800205A
:10220000002800200000000000002440F8F500082D
:1022100080B500224FF40071DFF8800BFFF7C9FE94
:1022200000224FF400715FF09040FFF7C2FE03F010
:1022300065F8DFF86C0BDFF86C1B4163DFF8681B97
:10224000421CC1F85821021DC1F8702110F114027E
:102250000A62027A81F8252010F118028A63427A14
:1022600081F83D2010F10C02C1F8A021027A81F81A
:10227000A52110F12402C1F8B821027A81F8BD210C
:1022800010F12802C1F8D021027A81F8D52110F18D
:102290001C02C1F81822027A81F81D2210F12002D6
:1022A000C1F83022427A81F8352210F12C02C1F8AF
:1022B0007822827A81F87D2210F13002C1F89022D2
:1022C000827A81F8952210F13802C1F8C022C27AD0
:1022D00081F8C52210F13C02C1F8D822C27A81F8F7
:1022E000DD2210F14002C1F8F022C27A81F8F52215
:1022F00010F14402C1F80823C07A81F80D03DFF819
:10230000B40A0068C1F85003DFF8AC0A0068C1F8ED
:10231000800301BD38B5002000242000C0B207288A
:1023200035DADFF8985A2000C0B20001284440781E
:1023300001282AD12000C0B20001284440680028AA
:102340000ED003F033F82100C9B2090129444968CD
:10235000401A2100C9B2090129448968884214D36E
:1023600000202100C9B209012944487003F01EF879
:102370002100C9B20901294448602000C0B22100EF
:10238000C9B209012944C9688847641CC5E700200F
:1023900032BD38B50400DFF8285A687800281FD10C
:1023A00000224FF40071DFF8F409FFF702FE00226B
:1023B0004FF400715FF09040FFF7FBFD02F09EFFCD
:1023C00089200090202307220521DFF8F80902F078
:1023D000F3FF012068700221DFF8E00903F034F90F
:1023E000012032BD7CB50400DFF8DC5928780028D4
:1023F00003D0022823D003D33DE003F04FF93AE0A5
:1024000003F0C2F989200090202307220521DFF87C
:10241000B40902F0D1FFDFF8B42903212C2003F026
:10242000E5F8DFF8AC290421082003F0DFF803F019
:1024300008FA41F28830DFF8841988611BE0012036
:10244000DFF87C194870892000902023072205219D
:10245000DFF8700902F0B0FFDFF860690221300098
:1024600003F0F2F80321300003F0EEF8042130000D
:1024700003F0EAF8FFE72878401C28702100C9B271
:10248000DFF8380903F0EFF8012076BD70B50400DD
:1024900000F0BCF8DFF828596878012803D1A87843
:1024A00000F0ACFB04E00021DFF8100903F0CCF8E9
:1024B000DFF82009A9780278914207D0A978017045
:1024C000DFF814090068DFF814190860A8780A28F2
:1024D00012D1DFF808694FF4FA613068FFF78AFD1E
:1024E000012809D1DFF8F00800683060062215F1F4
:1024F0000801A81CFFF726FE2100C9B2DFF8BC08BE
:1025000003F0B1F8012070BD10B50400DFF8D01859
:10251000DFF8D0080069FFF76DFD012827D1DFF84B
:10252000C8080178012905D1002101700020DFF8D9
:1025300090188870DFF8B4080188491C018042F2C5
:102540001071DFF878282300DBB21B011A4492686F
:10255000B1FBF2F102888A420DD300210180DFF83D
:1025600060188878002806D00020887003E00120D9
:10257000DFF8741808702100C9B2DFF8400803F0D2
:1025800072F8012010BD38B50400FDF718FEDFF821
:102590005458287A012808D10521DFF8200803F0D3
:1025A00053F8DFF83408006828612100C9B2DFF869
:1025B0000C0803F058F8012032BD10B50400FDF7F7
:1025C000E5FDDFF8200800210170002101720120E3
:1025D00010BD10B5040000224FF40051DFF8BC0715
:1025E000FFF7E7FC012010BD10B5040001224FF4F5
:1025F0000051DFF8A807FFF7DCFCDFF8C007210077
:1026000089B28166062103F02EF810BD38B5DFF8D7
:102610009047DFF8DC07616B097850F82100DFF89C
:102620008817C1F86002DFF8CC0701786170DFF825
:10263000C817407851F820006060207A02F054FA00
:1026400000EE100ADFF8B457B8EE400AD5ED010AE3
:1026500020EE200ABDEEC00A84ED030A607A02F083
:1026600043FA00EE100AB8EE400AD5ED020A20EE59
:10267000200ABDEEC00A84ED040A207A02F034FA82
:1026800000EE100AB8EE400AD5ED030A20EE200A4B
:10269000BDEEC00A84ED050A607A02F025FA00EE6C
:1026A000100AB8EE400AD5ED040A20EE200ABDEE6D
:1026B000C00A84ED060A207A02F016FA00EE100A2B
:1026C000B8EE400AD5ED050A20EE200ABDEEC00A9C
:1026D00084ED070A607A02F007FA00EE100AB8EEFD
:1026E000400AD5ED060A20EE200ABDEEC00A84EDB0
:1026F000080AA07A02F0F8F900EE100ADFF8A456F2
:10270000B8EE400AD5ED020A20EE200ABDEEC00A5E
:1027100084ED0B0AA07A02F0E7F900EE100AB8EE99
:10272000400AD5ED010A20EE200ABDEEC00A84ED74
:102730000C0AE07A02F0D8F900EE100ADFF8C05671
:10274000B8EE400AD5ED000A20EE200ABDEEC00A20
:1027500084ED0E0AE07A02F0C7F900EE100AB8EE36
:10276000400AD5ED010A20EE200ABDEEC00A84ED34
:102770000F0AE07A02F0B8F900EE100AB8EE400A4B
:10278000D5ED020A20EE200ABDEEC00A84ED100A43
:10279000E07A02F0A9F900EE100AB8EE400AD5ED91
:1027A000030A20EE200ABDEEC00A84ED110A31BDF5
:1027B0002DE9F84F8AB006002021002202AC20004B
:1027C00003F0ACF80024002500208DF8050000205F
:1027D0008DF806001827DFF8D0853000C0B27843A6
:1027E000404490F815903000C0B2784340444068AF
:1027F000002842D001213000C0B200F0A9F9002821
:102800000ED13000C0B27843404442683000C0B2BC
:1028100078434044017D4846C0B202F0E7FE1EE026
:102820005FF0000A3000C0B278434044406802F0D4
:1028300061FB5146C9B2814207D2202002A952460B
:10284000D2B288541AF1010AECE702AA3000C0B2F1
:1028500078434044017D4846C0B202F0C7FE3000D4
:10286000C0B278434044406802F044FBDFF894155E
:102870000979491C484310FA89F93000C0B27843FD
:1028800040448068002800F03A813000C0B27843AC
:102890004044007B00280BD002281ED012D304280D
:1028A00030D024D3062845D036D307283ED044E084
:1028B0003000C0B2784340448068007800210400B2
:1028C0000D003AE03000C0B278434044806890F98F
:1028D0000000C11704000D002FE03000C0B27843A3
:1028E000404480680088002104000D0025E030008D
:1028F000C0B2784340448068B0F90000C1170400BA
:102900000D001AE03000C0B278434044806800688F
:10291000002104000D0010E03000C0B278434044B4
:1029200080680068C11704000D0006E001208DF8E2
:10293000050002E002208DF805009DF80500002842
:102940000CD13000C0B278434044407B404202008A
:10295000D2B202A92000FFF765FB26E09DF8050032
:1029600001281AD13000C0B278434044806802F098
:10297000C1FA202819D23000C0B2784340448068A0
:1029800002F0B8FA020092B23000C0B2784340447C
:10299000816802A8FFF7D6FB07E03000C0B2784399
:1029A0004044806800788DF8080002213000C0B2F1
:1029B00000F0CEF8012823D13000C0B27843404463
:1029C000807DC0B200098DF806009DF806000F2832
:1029D00005D0202002A99DF80620885410E05FF061
:1029E000000A02A802F086FA5146C9B2814207D213
:1029F000202002A95246D2B288541AF1010AF0E707
:102A00003000C0B201285ED15FF0000A00208DF8CE
:102A100004003000C0B278434044407B002802D01C
:102A200009208DF80400392000902E2315220F2153
:102A3000DFF8D40302F0A6FF02A802F05BFA834697
:102A4000DFF8C0030079401C00FB0BFB5846C0B206
:102A5000022190FBF1F01F280BDA5846C0B2022188
:102A600090FBF1F0D0F140009DF8041050FA81FA8B
:102A700007E05846C0B2D0F15F009DF8041050FA4C
:102A800081FA02AA3000C0B278434044007D401C65
:102A9000C0B2DFF870134979D1EBC001491EC9B249
:102AA0005046C0B203F018F95AFA8BF09DF8049022
:102AB000B0EB090989200090202307220521C14895
:102AC00002F07AFC1BE089200090202307220521D8
:102AD000BC4802F071FC02AA3000C0B27843404406
:102AE000017D4846C0B202F081FD02A802F002FA60
:102AF000C4490979491C484310FA89F081463000DD
:102B0000C0B278434044006900281ED03000C0B2F3
:102B1000784340448068002817D03000C0B2784322
:102B200040448068B94988420FD03000C0B2784331
:102B3000404402693000C0B207FB00F708EB070011
:102B4000017D4846C0B202F051FD0BB0BDE8F08FE8
:102B5000F8B504000D0094492200D2B21820424377
:102B600001EB0200817D2800C0B201402800C0B204
:102B700081422FD1A026A64F4FF496712800C0B2F3
:102B8000704338442200D2B250F82200FFF732FAE4
:102B900001282AD12800C0B206FB00F607EB060088
:102BA0002100C9B28C4A126840F821202820994996
:102BB0002A00D2B242430A442300DBB22E00F6B20E
:102BC00000FB06F008442100C9B2405CD0F10100CE
:102BD000D0540AE08F492A00D2B22820424301EBA8
:102BE00002002100C9B2002242548A49EDB22820D5
:102BF000454301EB0500E4B2005DF2BD70B5040091
:102C0000002602F0C1FD00F077F82000C0B200F00D
:102C10007DF82000C0B200F093F80025280080B2B3
:102C2000282811DA60492A0092B21820424301EBA9
:102C30000200C07D2100C9B2884203D12800C0B281
:102C4000FFF7B6FD6D1CE9E702F0FBFD70BDF0B4C7
:102C50004271C47803792500EDB2AB420AD3F02566
:102C6000514E2700FFB218235F4306EB07039D7503
:102C7000641CEFE718234C4C85785D432544467966
:102C8000AE75002904D0857803FB05F323449960D1
:102C9000F0BC70472DE9F84F0700884691469A46E8
:102CA0000A9E0B9DDDF830B00D9C87F8008087F8F8
:102CB000019087F802A0FE703D712200D2B2594601
:102CC0003800FFF7C4FFBDE8F18F10B40100002207
:102CD0001000C0B204280CD21000C0B2085C4E4BE9
:102CE0001400E4B21B5D984201D0002002E0521CA7
:102CF000EEE7012010BC704780B50120009008234A
:102D00007F220821002003F06BF801BD10B50400FC
:102D10002000C0B2002812D138480078002807D11E
:102D200022A2214890F84410782002F05FFC06E0CF
:102D30001FA21D4890F84410782002F057FC10BDE7
:102D40000100C9B2092924D115490978002906D002
:102D500002290ED008D3042915D00FD318E02F492B
:102D6000114AC2F8981318E02D490F4AC2F8981377
:102D700013E02C490C4AC2F898130EE02A490A4A7B
:102D8000C2F8981309E02949074AC2F8981304E0E9
:102D900003E02249044AC2F898137047000800482B
:102DA0007C000020AC27002028010020200000002B
:102DB0004E00000080050020C40000200C00002010
:102DC0008027002010EA00081D28002098F3000842
:102DD000ACEF00081E280020FC270020D42700208C
:102DE000C0270900382700201F28002010280020B5
:102DF00020010020980B0020300600200027002032
:102E000090270020A0270020E8E700089A0B002068
:102E1000501E002048240020CC000020D0000020BC
:102E2000E0000020F0000020000100201001002040
:102E300010B504000121DFF8840C02F014FC01201D
:102E400010BD30B587B004001421002202AD280067
:102E500002F064FDDFF8B40BD0E90023CDE90023D4
:102E600002A80090DFF8A85B2978684600F0C0F956
:102E700028786870BDF80410009800F090FC28785D
:102E8000002801D000202870DFF8305C02212800E3
:102E900002F0DAFB0321280002F0E5FB2100C9B2B1
:102EA000280002F0E0FB012007B030BD10B504009F
:102EB000DFF8601B8888002810D0DFF85C0B0288E0
:102EC0008B889A4208D1002101800321DFF8EC0BA6
:102ED00002F0BAFB012008E0898801802100C9B214
:102EE000DFF8D80B02F0BFFB012010BD2DE9F04147
:102EF000040000250026DFF81C7BB88803283DDB92
:102F00003868B988084410F8010C3968BA88114447
:102F100011F8021C51EA00210E00B988891E386898
:102F200002F0F8FF05002800310080B289B2884223
:102F30001DD10721DFF8840B02F095FB386800787B
:102F400042280DD1DFF8C88A012198F8010000F06D
:102F500068F998F80120D7E9000100F052F913E070
:102F60000021DFF8AC0A407800F05BF90CE00021AA
:102F7000DFF89C0A407800F054F905E00021DFF802
:102F8000900A407800F04DF9DFF8840A407800F0AC
:102F9000AFF80221DFF8240B02F077FB0120BDE837
:102FA000F0810100DFF8FC0D0278032A01D0042231
:102FB00002700120704701000120704710B5040025
:102FC000DFF8FC0A0178012936D1DFF8F81AC97850
:102FD000012931D1DFF8541C91ED030AD0ED020A2A
:102FE000B4EE600AF1EE10FA08DA91ED030AD0EDC2
:102FF000010AB4EE600AF1EE10FA0ED501224FF488
:1030000000615FF09040FEF7D4FF01224FF4805141
:103010005FF09040FEF7CDFF1CE000224FF400610E
:103020005FF09040FEF7C5FF00224FF480515FF043
:103030009040FEF7BEFF0DE000224FF400615FF00C
:103040009040FEF7B6FF00224FF480515FF09040B1
:10305000FEF7AFFFDFF8640A4FF47A718166210052
:10306000C9B202F000FB012010BD38B50400DFF842
:10307000C01B087800281FD101200870DFF8B45B5E
:10308000012210212800FEF794FF002208212800C9
:10309000FEF78FFF00220421DFF89C0BFEF789FF6B
:1030A0004FF4FA60DFF8141A886703F015F903F09B
:1030B000BEFA03F0ADFA12E00020087001220821E8
:1030C000DFF8700BFEF775FF01220421DFF8680BB3
:1030D000FEF76FFF4EF66020DFF8E01988672100E9
:1030E000C9B2DFF8D80902F0BEFA012032BD0000F3
:1030F00038B52DED028B04009FEDB48A2000C0B2DC
:1031000000285AD1DFF8245B95ED010ADFEDB00A03
:1031100020EE200ABDEEC00A10EE100A00F0DCF925
:1031200085ED010A95ED010A00F044FA85ED030AE8
:1031300095ED020A00F09EFA85ED040A95ED040A69
:10314000D5ED060A30EE200ADFF8F00AD0ED020ACB
:10315000F4EE400AF1EE10FA02D5D0ED020A0BE0CF
:10316000D0ED030AB4EE600AF1EE10FA02D5D0ED0C
:10317000030A01E0F0EE400AC5ED040AD5ED030AAA
:1031800095ED051A30EE818AD0ED000AF4EE480A7A
:10319000F1EE10FA02D590ED000A0BE090ED010A75
:1031A000B4EE408AF1EE10FA02D590ED010A01E08A
:1031B000B0EE480A85ED030AFFE7DFF8705A287879
:1031C000002807D10020686095ED010A00F0F2F9AF
:1031D00085ED030A2878002807D10020A86095ED26
:1031E000020A00F047FA85ED040ABDEC028B31BDFE
:1031F00038B504000D002900C9B2200000F01BF80A
:1032000031BD70B504000D00160020000078C0B27A
:10321000422805D13200D2B22000290000F062F825
:1032200070BD38B504000D002900C9B22000C0B23D
:1032300000F0D0F831BD3EB504000D002800C0B24A
:10324000002805D0022821D00BD3032833D047E033
:1032500004200090002303224221200002F078FE87
:103260003EE0DFF8B80D818802290ED10168019196
:103270008088022190FBF1F080B200904FF48053DF
:1032800006224221200002F0B1FE29E0DFF88C0D79
:10329000818802290ED1016801918088022190FB6A
:1032A000F1F080B2009041F2040306224221200096
:1032B00002F09CFE14E0DFF8640D818802290ED133
:1032C000016801918088022190FBF1F080B20090AA
:1032D00042F2200306224221200002F087FEFFE78F
:1032E00037BD00002DE9F84F2DED028B82B00400B0
:1032F0000D0091460020ADF800009FED348A0026B5
:103300004846C0B2002803D0401E022856D958E0D3
:103310000320ADF8000002226946200000F00CFAFC
:1033200008EE900A02226946200000F005FA804665
:10333000DFF8F878B8EE680A10EE100A01F09AFF8C
:1033400082468B46404601F087FF41EC110B9FED12
:10335000D10B01F020FE53EC102B5046594601F0E2
:1033600023FE01F045FF786002226946200000F04C
:10337000E3F900EE100AB0EE408A0222694620000E
:1033800000F0DAF90600B8EE480A10EE100A01F073
:1033900071FF82468B46300001F05EFF41EC110B5D
:1033A0009FEDBC0B01F0F7FD53EC102B5046594636
:1033B00001F0FAFD01F01CFFB86002E000F05BF9DB
:1033C000FFE702B0BDEC028BBDE8F18F000000000A
:1033D0000000C8420200D2B2002A032A1BD80A0009
:1033E000D2B2012A0ED1DFF8442800235370012302
:1033F00013700200D2B2002A0CD10122DFF8C436C9
:10340000DA7007E0DFF824285378032B02DA5378C8
:103410005B1C5370FFE7DFF814385A78002A0CD091
:103420005A78032A09DB00221A7000225A6000220F
:103430009A600022DFF88C36DA7070472DE9F0418F
:1034400000242500EDB20A2D43DA00252E00F6B245
:10345000092E3CDA2E00F6B201EB860676682F00C4
:10346000FFB251F82770BE422FDA00262F00FFB2BC
:1034700051F82770AC465FFA8CFC01EB8C0CDCF841
:1034800004C0AE465FFA8EFE41F82EC0AC465FFA2D
:103490008CFC01EB8C0CCCF80470AC465FFA8CFC15
:1034A00050F82CC0AE465FFA8EFE00EB8E0EDEF8B2
:1034B00004E0A8465FFA88F840F828E0AE465FFAD4
:1034C0008EFE00EB8E0ECEF804C06D1CBEE7641CB1
:1034D000B7E7BDE8F081000038B52DED028B0400A0
:1034E0009FED948ADFF8F01A087800282AD101208D
:1034F000087000210800C0B20A2815DA0800C0B21E
:10350000DFF8202B0B00DBB242F82300DFF8182B8A
:103510000800C0B252F82000002803D10800C0B251
:1035200042F82040491CE5E7DFF8FC5A0923002255
:103530002900DFF8F00AFFF781FF95ED050AB8EEE4
:10354000C00A30E000200100C9B20A291EDADFF803
:10355000D41A0200D2B251F82220092A0BD100223B
:103560000300DBB241F82320DFF8BC1A0200D2B21C
:1035700041F8224008E00200D2B251F82220521C49
:103580000300DBB241F82320401CDCE7DFF8985A47
:10359000092300222900DFF88C0AFFF74FFF95ED81
:1035A000050AB8EEC00ADFEDBC0A80EE200ABDECC9
:1035B000028B31BDF0EE400A9FEDB81A9FEDB83A8C
:1035C000DFED5C3AF5EE400AF1EE10FA40D0F0EE95
:1035D000603A9FEDB40ADFF8DC0A90ED004A34EE61
:1035E000634AB4EE404AF1EE10FA08DA90ED004A70
:1035F00033EEC44AB4EE404AF1EE10FA03DB9FED1D
:10360000AA0A21EE001ADFF8B00A90ED000AF0EEE7
:10361000401ADFF8A81A91ED000A30EE010AB0EE68
:10362000402A32EE030A82EE000AF0EE402A33EE20
:10363000E10AB0EE614A00EE224A80ED004AB7EEA0
:10364000000A30EE620A20EE020A81ED000A08E06C
:10365000DFF8680A5FF07E510160DFF85C0A002144
:103660000160DFF8540ADFF84C1A02680A6090ED36
:10367000000A7047704780B50320DFF828170870EC
:103680000421DFF8380402F000F83220FEF7ACFF26
:1036900001BD0000000000000000244080B5DFF8FC
:1036A000200A0078DA4908700220DFF8F81608705E
:1036B0000421DFF8080401F0D6FF01BD2DE9F04137
:1036C00004000D0016002F00DFF850894046FEF779
:1036D000D9FC300080B2022802D004280BD01DE0B3
:1036E0007878D8F8001008703878D8F8001048704A
:1036F000A8F8046015E07878D8F8001008703878D9
:10370000D8F800104870F878D8F800108870B878A9
:10371000D8F80010C870A8F8046002E00020A8F8EB
:103720000400DFF89C0904700120DFF89819087084
:10373000BDE8F08100000000F0B4030000200C8818
:103740001500EDB2042D16D12500ADB21D44AE78A2
:103750002500ADB21D44ED7855EA06252600B6B227
:103760009E5D2700BFB21F447F7857EA062757EABD
:10377000054738000DE01500EDB2022D09D12500F6
:10378000ADB25D5D2600B6B21E44767856EA0526D7
:1037900030000D8855FA82F50D80F0BC704770B589
:1037A00004000D00DFF8206901224FF48051300041
:1037B000FEF7FFFB0A2002F05DFF02F021FF4FF44D
:1037C0007A732A0092B22100DFF8000902F0A3FF09
:1037D00000224FF480513000FEF7EBFB70BD2DE965
:1037E000F0412DED028B8EB0F0EE408AB0EE608A93
:1037F000322100226C46200002F090F800270024BD
:103800000025DFF82884C8ED058A88ED068A98ED42
:10381000050A01F05DFB060098ED060A01F058FB71
:10382000804668463100090E3A00D2B281547F1CAE
:103830003100090C3A00D2B281547F1C3100090AD0
:103840003A00D2B281547F1C3900C9B246547F1C61
:103850004146090E3A00D2B281547F1C4146090C00
:103860003A00D2B281547F1C4146090A3A00D2B2D2
:1038700081547F1C3900C9B200F801807F1C3A00D6
:10388000D2B292B26946DFF8480803F061FF0EB089
:10389000BDEC028BBDE8F0810000C84295BFD63375
:1038A00017B7D1380100004000007A4470B50024F9
:1038B0000025DFF81C080078C0B2FF2839D0DFF8F7
:1038C00014080178C9B20906DFF80C080078C0B204
:1038D00051EA0041DFF804080078C0B251EA002143
:1038E000DFF8FC070078C0B201430C00DFF8F407F2
:1038F0000178C9B20906DFF8F0070078C0B251EAD2
:103900000041DFF8E8070078C0B251EA0021DFF893
:10391000E0070078C0B201430D00C44E16F1140157
:10392000200001F0FDF916F11801280001F0F8F966
:1039300004E0BE48002141610021816170BD2DE994
:10394000F0472DED028B8EB00400F0EE408AB0EE11
:10395000608A322100226D46280001F0DFFF002539
:1039600000260027DFF858A18AF800408AED028A75
:10397000CAED018A9AED020A01F0AAFA80469AED90
:10398000010A01F0A5FA814668469AF800102A005B
:10399000D2B281546D1C4146090E2A00D2B2815424
:1039A0006D1C4146090C2A00D2B281546D1C41465F
:1039B000090A2A00D2B281546D1C2900C9B200F84C
:1039C00001806D1C4946090E2A00D2B281546D1C3B
:1039D0004946090C2A00D2B281546D1C4946090A95
:1039E0002A00D2B281546D1C2900C9B200F801909E
:1039F0006D1C2A00D2B292B26946DFF8F80603F0D5
:103A0000A7FE0EB0BDEC028BBDE8F087B0F5000854
:103A100018280020480B00201628002070B500242C
:103A20000025DFF8D0060078C0B2FF283CD0244E35
:103A3000DFF8C40600783070DFF8C0060178C9B23C
:103A40000906DFF8BC060078C0B251EA0041DFF891
:103A5000B4060078C0B251EA0021DFF8AC06007865
:103A6000C0B201430C00DFF8A4060178C9B2090610
:103A7000DFF89C060078C0B251EA0041DFF89406F6
:103A80000078C0B251EA0021DFF88C060078C0B29D
:103A900001430D0016F10801200001F041F9311D2C
:103AA000280001F03DF907E0054800210170DFF82A
:103AB0006C1681600021416070BD0000A4060020EA
:103AC000AC270020E82700202DE9F84F2DED048BCE
:103AD0008EB0F0EE409AB0EE608AF0EE418AB0EE21
:103AE000619A3221002201AC200001F017FF5FF043
:103AF000000B00200090002400250026DFF83CA1E8
:103B0000CAED009A8AED018ACAED028A8AED039A0B
:103B10009AED000A01F0DCF907009AED010A01F0C4
:103B2000D7F980469AED020A01F0D2F981469AED62
:103B3000030A01F0CDF9824601A83900090E5A4660
:103B4000D2B281541BF1010B3900090C5A46D2B292
:103B500081541BF1010B3900090A5A46D2B2815433
:103B60001BF1010B5946C9B247541BF1010B4146E9
:103B7000090E5A46D2B281541BF1010B4146090C81
:103B80005A46D2B281541BF1010B4146090A5A46EA
:103B9000D2B281541BF1010B5946C9B200F8018021
:103BA0001BF1010B4946090E5A46D2B281541BF152
:103BB000010B4946090C5A46D2B281541BF1010B44
:103BC0004946090A5A46D2B281541BF1010B5946A3
:103BD000C9B200F801901BF1010B5146090E5A467B
:103BE000D2B281541BF1010B5146090C5A46D2B294
:103BF00081541BF1010B5146090A5A46D2B2815435
:103C00001BF1010B5946C9B200F801A01BF1010BD1
:103C10005A46D2B292B201A9DFF8040503F098FD2A
:103C20000EB0BDEC048BBDE8F18F00000027002032
:103C30002528002000040048000C004890270020A0
:103C40002DE9F0410024002500260027DFF8D004EC
:103C50000078C0B2FF2871D0DFF8C8040178C9B27B
:103C60000906DFF8C4040078C0B251EA0041DFF869
:103C7000BC040078C0B251EA0021DFF8B404007837
:103C8000C0B201430C00DFF8AC040178C9B20906E8
:103C9000DFF8A4040078C0B251EA0041DFF89C04C8
:103CA0000078C0B251EA0021DFF894040078C0B275
:103CB00001430D00DFF88C040178C9B20906DFF872
:103CC00088040078C0B251EA0041DFF8800400782F
:103CD000C0B251EA0021DFF878040078C0B2014395
:103CE0000E00DFF870040178C9B20906DFF8680435
:103CF0000078C0B251EA0041DFF860040078C0B239
:103D000051EA0021DFF858040078C0B201430F00E7
:103D1000DFF850844146200001F002F818F1040158
:103D2000280000F0FDFF18F10801300000F0F8FF56
:103D300018F10C01380000F0F3FF0BE0DFF8240469
:103D4000DFF8D813016000214160DFF81C148160A6
:103D50000021C160BDE8F08178B591B004000D008C
:103D60003C21002202AE300001F0D8FD0020ADF869
:103D700004000321092000F0A6FC0B200090002382
:103D8000DFF8E82301A902A800F0B4FF4FF47A732A
:103D9000BDF8042002A9DFF8D80302F0BCFC12B081
:103DA00070BD00007C00002078B591B004000D00CB
:103DB0003C21002202AE300001F0B0FD0020ADF841
:103DC0000400C34803F094FCCA4803F091FCDFF8F8
:103DD000A40300210170D1498160002141600D20C0
:103DE00000900023DFF8902301A902A800F082FFD1
:103DF0004FF47A73BDF8042002A9DFF8740302F0CF
:103E00008AFC12B070BD38B590B004000D0003A854
:103E1000DFF86813322203F0DFFCDFF86403D0E937
:103E20000023CDE9012303A801900023D54802789F
:103E300002A903A800F0E9FE02200090002378A266
:103E400002A903A800F056FF4FF47A73BDF80820CA
:103E50000199C74802F05FFC11B030BDF8B504000D
:103E60000D0000262068007830283ADB20680078B2
:103E70003A2836DA002700200100C9B2A28889B2A8
:103E800091420FD221680200D2B2895C302905DB51
:103E900021680200D2B2895C3A2900DB02E07F1C73
:103EA000401CE9E73900C9B2206800F0DBFF0600DA
:103EB000B6F5807F0DD2B34841783000C0B200F033
:103EC00002FC4FF47A73022279A1A94802F023FC84
:103ED0000EE04FF47A730522AB49A54802F01BFCB3
:103EE00006E04FF47A730522A749A14802F013FCBB
:103EF000F1BD38B590B004000D0003A8A3493222EB
:103F000003F06AFCA248D0E90023CDE9012303A80D
:103F1000019000239B48427802A903A800F075FE97
:103F20000220009000233EA202A903A800F0E2FEB6
:103F30004FF47A73BDF8082001998D4802F0EBFB2D
:103F400011B030BDF8B504000D00002620680078DF
:103F5000302839DB206800783A2835DA002700203D
:103F60000100C9B2A28889B291420FD22168020031
:103F7000D2B2895C302905DB21680200D2B2895CAB
:103F80003A2900DB02E07F1C401CE9E73900C9B296
:103F9000206800F067FF06000C2E0DD23100C9B278
:103FA0007848007800F08FFB4FF47A73022240A12A
:103FB0006F4802F0B0FB0EE04FF47A7305227249AD
:103FC0006B4802F0A8FB06E04FF47A7305226E49B5
:103FD000674802F0A0FBF1BD2628002080B5FFF75E
:103FE00065FCFFF71BFDFFF72BFE6A486A49C0F826
:103FF000A4136A49C0F8B4136949C0F8C4136949E5
:10400000C0F8D4136849C0F8E4136849C0F8F41341
:1040100002F00DFB02F0FCFA01BD000024070020B5
:104020000D0A00008C260020B426002070B5002068
:10403000002400252800C0B2082836DA5C4E28008B
:10404000C0B200013044407801282CD10120040086
:104050002800C0B200013044406800280ED001F0B2
:10406000A5F92900C9B2090131444968401A29005B
:10407000C9B2090131448968884214D3002029005B
:10408000C9B209013144487001F090F92900C9B260
:104090000901314448602800C0B22900C9B20901B1
:1040A0003144C96888476D1CC4E72000C0B270BDA8
:1040B0004F4B0000F0270020EC2700202C070020A9
:1040C000242800207C000020000800484021002017
:1040D000000802080208020803080208040802088F
:1040E000050802080608020807080208080802086E
:1040F0000908020800100208021002080310020852
:104100000410020805100208061002080710020831
:1041100008100208091002080A10020800007A4478
:1041200000200208022002080320020804200208DE
:1041300005200208062002080720020808200208BD
:10414000092002080A2002080B2002080C2002089D
:104150000D2002080E2002080F200208102002087D
:1041600011200208902700200000A042B0F30008B0
:1041700030200020AC270020E8F0000888ED00087F
:10418000B8F50008980B0020A8F50008BCED000861
:10419000C0F5000838070020593D0008A93D000877
:1041A000073E00085D3E0008F33E0008453F00085A
:1041B000A406002002000020704730B40200DFF89F
:1041C000F808002304688588635583885B1C838016
:1041D000DFF8E8381B7804688588635583885B1CA2
:1041E0008380012030BC7047F8B504000D0000202A
:1041F00000212E0022683300DBB2D25C2368370036
:10420000FFB23B445F7857EA02273A0092B2B2F518
:10421000807F23DA380080B200281FD0DFF89808AA
:1042200021683200D2B2895C02688388D1548188C7
:10423000491C818021683200D2B211444978026859
:104240008388D1548188491C8180DFF870084178C7
:104250003800C0B200F037FA012000E00020F2BDC3
:1042600030B40200DFF850080023046885886355E5
:1042700083885B1C8380DFF844385B78046885881A
:10428000635583885B1C8380012030BC7047F8B580
:1042900004000D00002000212E0022683300DBB254
:1042A000D25C23683700FFB23B445F7857EA0227AD
:1042B0003A0092B20B2A1FDADFF8FC0721683200BD
:1042C000D2B2895C02688388D1548188491C81807C
:1042D00021683200D2B21144497802688388D154EF
:1042E0008188491C81803900C9B2DFF8D007007885
:1042F00000F0E9F9012000E00020F2BDF8B504006B
:104300000D000026DFF8B80790ED030A00F0E0FD8D
:104310000100DFF8A4070A00120A03688788DA554B
:104320008288521C828002688388D1548288521C01
:1043300082800A00120E03688788DA558288521C30
:1043400082800A00120C03688788DA558288521C22
:1043500082800120F2BDF8B504000D000026DFF8D0
:10436000600790ED040A00F0B3FD0100DFF8480794
:104370000A00120A03688788DA558288521C8280F4
:1043800002688388D1548288521C82800A00120EEF
:1043900003688788DA558288521C82800A00120CD2
:1043A00003688788DA558288521C82800120F2BD1A
:1043B00030B40200DFF800070023046885886355E5
:1043C00083885B1C8380DFF8FC361B780468858853
:1043D000635583885B1C8380012030BC7047F8B52F
:1043E00004000D00002000212E0022683300DBB203
:1043F000D25C23683700FFB23B445F7857EA02275C
:104400003A0092B2012A03D0380080B2002822D1AB
:10441000DFF8A40621683200D2B2895C0268838882
:10442000D1548188491C818021683200D2B2114464
:10443000497802688388D1548188491C8180DFF8DB
:104440008406D0ED020A90ED010A3800C0B2FFF7F1
:1044500076FA012000E00020F2BDF8B504000D005E
:104460000026DFF8600690ED020A00F031FD010041
:10447000DFF844060A00120A03688788DA55828842
:10448000521C828002688388D1548288521C8280A8
:104490000A00120E03688788DA558288521C8280CF
:1044A0000A00120C03688788DA558288521C8280C1
:1044B0000120F2BD2DE9F84304000D000026002084
:1044C00000900027A84620684146C9B20844817878
:1044D00020684246D2B21044C07850EA01202168D8
:1044E0004246D2B2895C22684346DBB21A4492F853
:1044F000019059EA012959EA0049DFF8BC05216811
:104500004246D2B2895C02688388D1548188491CB2
:10451000818021684246D2B211444978026883887A
:10452000D1548188491C818021684246D2B211440D
:10453000897802688388D1548188491C81802168E8
:104540004246D2B21144C97802688388D154818826
:10455000491C81806946484600F0E2FBDFF86405AB
:10456000DDED000A90ED010A0078FFF7E8F901207F
:10457000BDE8F283F8B504000D000026DFF844051D
:1045800090ED010A00F0A4FC0100DFF82C050A0000
:10459000120A03688788DA558288521C8280026872
:1045A0008388D1548288521C82800A00120E0368CC
:1045B0008788DA558288521C82800A00120C0368B0
:1045C0008788DA558288521C82800120F2BD2DE94D
:1045D000F84304000D000026002000900027A846A4
:1045E00020684146C9B20844817820684246D2B268
:1045F0001044C07850EA012021684246D2B2895C5A
:1046000022684346DBB21A4492F8019059EA012924
:1046100059EA0049DFF8A00421684246D2B2895C19
:1046200002688388D1548188491C81802168424670
:10463000D2B21144497802688388D1548188491CD8
:10464000818021684246D2B2114489780268838809
:10465000D1548188491C818021684246D2B21144DC
:10466000C97802688388D1548188491C8180694651
:10467000484600F055FBDFF84C04D0ED020A9DEDF2
:10468000000A0078FFF75BF90120BDE8F28370B5FE
:1046900004000D00DFF83064012220213000FDF716
:1046A00088FC0A2001F0E6FF4FF47A732A0092B2E8
:1046B0002100DFF8180402F02EF80022202130003B
:1046C000FDF777FC70BD7CB504000D0008210022C9
:1046D0006E46300001F022F90026DFF8E003047096
:1046E0004570694602783300DBB2CA54761C4078C4
:1046F0003200D2B28854761C3200D2B292B26946ED
:10470000DFF8CC0303F024F873BDDFF8C4030078AE
:10471000C0B2FF280AD0DFF8A403DFF8B813097885
:104720000170DFF8B4130978417005E0DFF88C03FD
:10473000092101700321417070472DE9F04F87B0C6
:10474000040000275FF000085FF000090025DFF893
:104750008C23D2E90001CDE902010026DFF8802395
:10476000D2E90001CDE90401DFF84CA35046FDF782
:1047700089FCA0880828C0F29B812068A188084491
:1047800010F8010C2168A288114411F8021C51EAAA
:104790000021ADF81810A188891E206801F0BAFB2D
:1047A000ADF81A00BDF81A00BDF81810884240F0A4
:1047B0007D8120680078C1490978884240F076817F
:1047C000206880782168CF7857EA002720684078F1
:1047D000032805D006286CD0102800F0C38061E1C2
:1047E000206800792168497951EA00210D005FF0C5
:1047F00001084046C0B2082836DA5FF01409DFF835
:10480000E4B24046C0B209FB00F0584440683900A9
:1048100089B2884225D1280080B24146C9B209FB3D
:1048200001F15944896888421BDB0021002042467F
:10483000D2B209FB02F25A44D268904701280FD144
:104840004046C0B209FB00F0584480682D1A40462B
:10485000C0B209FB00F90BEB09008068C71900E042
:1048600002E018F10108C4E7BAF8040000281FD0DC
:10487000BAF80400022190FBF1F201FB12000028BB
:1048800016D1DAF800000190BAF80400022190FB7A
:10489000F1F080B200903B009BB2032220680178C7
:1048A00004A801F017FCBDF814100498FFF7EFFE00
:1048B000FAE004200100C9B2A288921E91420EDAE9
:1048C00021680200D2B2895C029ABDF80C30D15442
:1048D000BDF80C10491CADF80C10401CEAE75FF065
:1048E00001084046C0B2082817DA14227D4B404622
:1048F000C0B2504318444068390089B2884209D197
:10490000002102A8C4465FFA8CFC02FB0CF21A4498
:104910001269904718F10108E3E7BAF8040000288B
:104920001FD0BAF80400022190FBF1F201FB120043
:10493000002816D1DAF800000190BAF8040002212C
:1049400090FBF1F080B200903B009BB20622206801
:10495000017804A801F00FFCBDF814100498FFF7CB
:1049600096FEA1E0002006002068007921684979C0
:1049700051EA00210D0007200100C9B2A288921E51
:1049800091420EDA21680200D2B2895C029ABDF827
:104990000C30D154BDF80C10491CADF80C10401C63
:1049A000EAE7280080B240002168897988424DD129
:1049B000BDF80C002168897989B2884246D15FF040
:1049C00001084046C0B2082840DA5FF01409DFF859
:1049D00014B14046C0B209FB00F0584440683900A9
:1049E00089B288422FD1280080B24146C9B209FB62
:1049F00001F159448968884225DB310089B202A857
:104A00004246D2B209FB02F25A4412699047012889
:104A100018D14046C0B209FB00F0584480684000FD
:104A200010FA86F64046C0B209FB00F05844806890
:104A30002D1A4046C0B209FB00F90BEB0900806853
:104A4000C71900E002E018F10108BAE7BAF804005B
:104A5000002826D0BAF80400022190FBF1F201FBF5
:104A6000120000281DD1206880782168C97851EA99
:104A700000210F00DAF800000190BAF804000221CA
:104A800090FBF1F080B200903B009BB210222068B6
:104A9000017804A801F06FFBBDF814100498FFF72B
:104AA000F6FD01E0002004E0012002E0002000E02B
:104AB000002007B0BDE8F08F5C060020980B0020B6
:104AC00000270020AC27002000040048B820002068
:104AD00000000208020002080300020898F500081E
:104AE000A0F500089005002001000800C0B20028D1
:104AF00001D1012021E00800C0B2FF2801D10A2025
:104B00001BE00800C0B2FE2801D1642015E00800B7
:104B1000C0B2FD2802D14FF47A700EE00800C0B296
:104B2000FC2802D142F2107007E00800C0B2FB2856
:104B300002D1DFF8980300E0012070472DE9F24F21
:104B400082469346002000210A260027B046B94637
:104B5000009A1588BBF1000F08D5DBF100042D2069
:104B60002A0092B20AF802006D1C00E05C462000A8
:104B7000002142464B4602F083FE002901D1002865
:104B800008D0A6FB080106FB091107FB08118046A7
:104B90008946ECE7404649460A22002302F070FEAF
:104BA00006000F00002F01D1002E28D02000002188
:104BB00032003B0002F064FE3030290089B20AF86E
:104BC00001006D1CA0465FF00009200000213200AA
:104BD0003B0002F055FEA6FB002306FB013307FB5A
:104BE0000033B8EB020079EB030104003000390018
:104BF0000A22002302F044FE06000F00D2E70098CC
:104C000005802800C0B2BDE8F28F2DE9FE4F0600F6
:104C10000F0090460020ADF8000000200024002185
:104C20005FF0000BB7F80090B8F1000F02D5D8F193
:104C3000000500E04546424639003000FFF77EFFA0
:104C4000B7F800A0002D4FD09DF80800FFF74CFFEB
:104C500001008D4205D20A2045431BF1010B002DB6
:104C6000F7D15846C0B2002821D050460200D2B237
:104C7000324412F8012C2D2A06D00200D2B24B4643
:104C800092B29BB29A4208D130220300DBB2F254B6
:104C90001AF1010ABBF1010BE3E70200D2B2324480
:104CA00012F8012C0300DBB2F254401EDEE70A20AA
:104CB000B1FBF0F450468346002C15D00A20B4FB1B
:104CC000F0F45846C0B2304410F8010C5946C9B24D
:104CD0007054BBF1010B002CEED12E205946C9B205
:104CE00070541AF1010AE7E7A7F800A05046C0B2D5
:104CF000BDE8FE8FF0B4049C00252E00B6B2A6429B
:104D00000BD20E88771C0F802F00BFB217FA83F7E3
:104D1000D75DB6B287556D1CEFE7F0BC7047000059
:104D20002DE9F34F81B02DED028B9FED658A0024B4
:104D300001250026F7EE008A00273800C0B220289F
:104D400064DA0398F84010F0010004003800C0B2A3
:104D5000172829DA18EE900A00F08CFA82468B4662
:104D60002000C0B200F078FA804689463800C0B210
:104D7000D0F117005FF0FF31484300F0F3F841EC49
:104D8000110B9FED500B00F006F951EC100B424651
:104D90004B4602F08DFE52465B4602F05BFF00F090
:104DA00027FA08EE900A2FE03800C0B21F2824DA54
:104DB0003000C0B200F050FA82468B462000C0B2EC
:104DC00000F04AFA804689463800C0B2173800F031
:104DD000C9F841EC110B9FED3B0B00F0DCF851ECF6
:104DE000100B42464B4602F063FE52465B4602F011
:104DF00031FF02F0EDFF060006E02000C0B20128FE
:104E000002D15FF0FF3005007F1C96E7280040B21A
:104E100000F0A8F8804689463000C0B27F3800F024
:104E2000A1F841EC110B9FED270B00F0B4F851EC09
:104E3000100B42464B4602F03BFE8046894618EE78
:104E4000900A00F017FA42464B4602F031FE00F09D
:104E5000CFF900EE100A049880ED000ABDEC028B39
:104E6000BDE8F78F70B40300002200240020002565
:104E70002A000E00D2B2F6B2B2421FD22A00D2B23B
:104E80009A5C302A0ADB2A00D2B29A5C3A2A05DA06
:104E90002A00D2B29A5C303A140001E000221400D9
:104EA0002A00D2B2002A03D12200D2B2100003E0BD
:104EB0000A22504350FA84F06D1CD9E770BC704749
:104EC000000000000000000000000040A08601007B
:104ED00010B42DED010A00206A460023042B07D2EE
:104EE000D45C1900C9B2C9008C4020435B1CF5E7B3
:104EF00012BC704700F10103810704D010F8011BB8
:104F0000820781B1FAD10268A2F10131914311F017
:104F1000803104BF50F8042FF6E709BAB1FA81F1E5
:104F200000EBD100401CC01A704730B4002513E0DC
:104F300050F8042BD30744BFA9F101039A18091FA5
:104F4000042942F8045BFAD213468C0744BF15804B
:104F50009B1CC90748BF1D7050F8041B0029E7D1EE
:104F600030BC7047C11768B14840401AB0FA80F2AF
:104F70009040D21CC907C2F5846241EA025202EB9A
:104F8000D021400570470268531C036011707047C0
:104F900041EC100B01BD80B553EC112B51EC100B03
:104FA00002F034FFF4E72E00F0B540F2FF7581EA1D
:104FB000030C0CF0004C15EA11541DBF15EA1357F1
:104FC000AC42AF42E5E0BC41C1F31301C3F31303AC
:104FD000801A994143F4801304D2641E4000494171
:104FE00080185941C90241EA5051B1FBF3F603FB65
:104FF0001611A2FB0675D7EBC020A94102D2761E7E
:1050000080185941C90241EA5051B1FBF3FE03FB3C
:105010001E11A2FB0E75D7EBC020A94103D2AEF141
:10502000010E80185941890241EA9051760546EAFD
:105030008E2EB1FBF3F603FB1611A2FB0675D7EB20
:105040008020A94102D2761E80185941C90241EA46
:1050500050514EEA060EB1FBF3F603FB1611A2FB0C
:105060000675D7EBC020A94102D2761E801859419F
:10507000C90241EA5051B1FBF3F703FB1711A2FB40
:105080000735D3EBC020A94167F100070CBF0042F0
:1050900047F0010766F3D5274FEA1E31B80814F52B
:1050A000806412DDBD0775F1004250EB0E5051EBEC
:1050B000045111F5801F5CBF41EA0C01F0BD4CF0BA
:1050C0007F6141F0E0410020F0BDBD076D0840EA7E
:1050D0000E5041F48011D4F10104B4F120060ADA33
:1050E000C4F120060200E04001FA06F3E140184353
:1050F000B24015430EE0342C13DCC6F1200445EA1F
:1051000040056D0820FA06F2154321FA06F0A14089
:105110000D43002175F1004250F1000051EB0C01EC
:10512000F0BD00205FEA0C01F0BDCFB992185B41E1
:10513000B3FA83F704BFB2FA82F6BF190B3FB7F197
:1051400020062FBF02FA06F3BB40C7F1200622FA61
:1051500006F638BF3343BA401CB1E419641E33E786
:105160007F4231F00041B1FA81F404BFB0FA80F619
:10517000A4190B3CB4F120062FBF00FA06F1A140A0
:10518000C4F1200620FA06F638BF3143A0403C1B8C
:105190001AE7AC421ABF05EA1357AF4212E050EAD1
:1051A00041061CBF52EA4306BFE750EA41073046BA
:1051B00061461CBF41EA0551F0BD52EA430C08BFED
:1051C000C143F0BD00204FF4001616EB410F98BF0D
:1051D00016EB430F08BF16EB410F24BFC14305E098
:1051E00016EB430F0CBF61464CEA0551F0BD0000C1
:1051F00001F000428B1AA3F16051B1F5801F0ADB68
:10520000B1F17F6F1FD242EAC102C10071F10041CA
:1052100042EB507070470B15C3F10903212B10D2DC
:10522000890241EA905180020128494141F0004140
:1052300021FA03F0C3F12003994071F1004150417C
:105240007047100070476FF0000013EB103F5CBF19
:10525000000E42EAC0507047014648B1B0FA80F1F2
:105260008840C91CC1F58461090501EBD0214005C6
:1052700070470000C0F3C75181B1FF2906D0C110AB
:10528000400721F0E04101F16051704741020CBF3D
:1052900040F4E0016FF000410020704700F0004151
:1052A00000020AD0B0FA80FC00FA0CF001F1605163
:1052B000A1EB0C5101EBD021400570470CB430B587
:1052C00083B00A4606A90291044600250194009580
:1052D00002AB01A9084878441E3003F00DF9019A89
:1052E000157000284EBF04460198041B204603B0E9
:1052F00030BC5DF80CFB00BF8FFCFFFF80B50122C6
:1053000040212348FCF755FE2249234800F04EFA7D
:1053100000F01EF8012000F005F800F0D1FA00F0CE
:105320001FFA01BD704711B581B0194C0022402110
:105330002000FCF73EFE4FF47A73012201A91748C2
:1053400004F03AF9012240212000FCF732FE13BD9F
:1053500010B50F4C002240212000FCF72AFE00224D
:1053600080212000FCF725FE012000F019F805201F
:1053700000F016F8012280212000FCF71AFE05201B
:1053800000F00EF8012240212000FCF712FE10BDB3
:1053900000080048C827002050100020C02400202A
:1053A00010B50400200001F065F910BD0148006847
:1053B000704700BFD827002070B4039CDFF88052EC
:1053C000286029716A71AB71EC7100262E7270BC75
:1053D00070472DE9F84F04000D00160000275FF01C
:1053E0000008DFF85C9299F80500082880F2FC803C
:1053F000300099F80610C0B2884205D399F807002A
:105400003100C9B2884201D22E200600402099F80E
:105410000510491C90FBF1F02900C9B2814280F2CD
:10542000E38099F8040050FA84F0802880F2DC8050
:1054300099F805305B1C99F8050003FB05035B1C1C
:10544000DBB299F804201219D2B299F80500401C79
:1054500015FB00F1C9B22000C0B200F029F900210B
:10546000080099F80420C0B2904280F0BD8000206E
:1054700015FB00F00200D2B2082392FBF3F21700F2
:10548000C0B2082290FBF2F302FB13008046FF2219
:105490006C4BD3F800C03800C0B250FA85FE8020B3
:1054A00000FB0EFE5EFA84FED3F800A03800C0B206
:1054B00050FA85FB802000FB0BFB5BFA84F01AF8A6
:1054C00000A0D8F1080B100050FA0BF010EA0A0AFD
:1054D0000CF80EA0D3F800C03800C0B250FA85FE18
:1054E000802000FB0EFE5EFA84F00090D3F800E00E
:1054F0003800C0B250FA85FA802000FB0AFA5AFA46
:1055000084F01EF800E0D9F800A0B3465FFA8BFBE8
:1055100099F80600BBEB000099F804B00BFB00FB08
:105520000AEB0B008A465FFA8AFA10F80A0010FAB2
:1055300008F050EA0E00DDF800E00CF80E00D3F899
:1055400000C03800C0B250FA85FE802000FB0EFE7D
:105550005EFA84F08444D3F800E03800C0B250FA18
:1055600085FA802000FB0AFA5AFA84F0704490F819
:10557000800012FA08F202408CF880201A68380085
:10558000C0B250FA85FC802000FB0CFC5CFA84F071
:1055900002441B683800C0B250FA85FC802000FB32
:1055A0000CFC5CFA84F0184490F88030D9F800C004
:1055B000B6465FFA8EFE99F80600BEEB000E99F82B
:1055C000040000FB0EFE0CEB0E008C465FFA8CFC18
:1055D00010F80C00D8F1080C50FA0CF0034382F8D4
:1055E0008030641C491C3BE7BDE8F18FF8B507002B
:1055F0000C001600124D6879082820DA307800284F
:105600001DD032782100C9B23800C0B2FFF7E1FEE8
:10561000761C2879401CC719287950FA87F0401C5D
:10562000812802DB00200700641C40206979491CA6
:1056300090FBF1F02100C9B28142DFDBFFE7F1BD51
:10564000A0270020CC270020020001200B00DBB2A5
:105650001B011344587000200B00DBB21B011344E4
:1056600058600120704738B504000D000120290062
:10567000C9B2090121444870FFF798FE2900C9B258
:10568000090121444860012032BD020000200B00C6
:10569000DBB21B01134458700120704780B50348EA
:1056A00000F024FC00F0CDF801BD0000E8E30008A4
:1056B00070B40400E4B2802C01DB7F2420001400CD
:1056C000E4B2802C01DB7F2422000C00E4B2402CE9
:1056D00001DB3F2421001C00E4B2402C01DB3F240D
:1056E0002300354C050026683678EDB2B54201D26C
:1056F000256828702568AD781600F6B2B54201D24B
:105700002568AA700D0026687678EDB2B54201D200
:10571000256869702568ED781E00F6B2B54201D2A1
:105720002468E37070BC704723487F2102681170C1
:105730000021026891703F210268517000210068C9
:10574000C17070471C480021026811707F210268F7
:1057500091700021026851703F210068C17070474C
:1057600070B54FF480640025144806682A002100B3
:10577000300000F0D3F83F237F2200210020FFF704
:1057800097FF00F05EF870BD70B54FF4806400259F
:105790000A4806682A002100300000F0BFF83F23C5
:1057A0007F2200210020FFF783FF70BD034A1060B5
:1057B000014A116070470000D0270020CC2700204C
:1057C00010B5040000224FF480713A48FCF7F1FB59
:1057D0002000C0B2FFF7A7FD10BD10B504000122E4
:1057E0004FF480713348FCF7E4FB2000C0B2FFF7B0
:1057F0009AFD10BD10B5040014F00F0050F0B00079
:10580000C0B2FFF7DDFF10BD10B504002000C0B22C
:1058100000F005F82000C0B200F00CF810BD10B583
:1058200004002000C0B2000950F01000C0B2FFF721
:10583000C7FF10BD10B5040014F00F00FFF7C0FF44
:1058400010BD70B500242000C0B210282EDA1A4D09
:10585000286840782100C9B2491CB0EBC10F23DA97
:105860002868C0782100C9B2B0EBC10F1EDB200050
:10587000C0B2FFF7BFFF28680078FFF7C5FF2868B0
:105880000678286880783100C9B288420CD30B486A
:1058900001682200D2B28020424352FA86F0085CAE
:1058A000FFF79BFF761CECE7641CCCE7FFF73CFF9F
:1058B00070BD000000080048D0270020CC27002041
:1058C00080B5AE20FFF77CFFA220FFF779FFA02074
:1058D000FFF776FFC820FFF773FF2F20FFF770FF59
:1058E000322000F0C7FEA420FFF76AFF4020FFF738
:1058F00067FF2520FFF764FF0A2000F0BBFE812030
:10590000FFF75EFF1220FFF75BFFFFF729FFAF20D5
:10591000FFF756FF052000F0ADFE01BD62F30F2238
:1059200062F31F42401810F0030308D0C91A1FD3B6
:10593000DB0748BF00F8012D28BF20F8022D130017
:1059400030B414461546103928BF20E93C00FAD877
:10595000490728BF20E90C0048BF40F8042D890002
:1059600028BF20F8022D48BF00F8012D30BC704739
:10597000C91818BF00F8012DCB0728BF00F8012D6A
:105980007047000070B4039CDFF8845328602971CD
:105990006A71AB71EC7101262E7270BC70472DE9F3
:1059A000F74F04000D00DFF868639DF80800B17937
:1059B000884204D3F0799DF80810884202D22E2044
:1059C0008DF80800307A002845D100273800317959
:1059D000C0B288423DD231689DF80820B079121AD1
:1059E0003079424301EB02003900C9B210F801904E
:1059F000002080464046C0B2082828DA3800C0B2ED
:105A000050FA84F0802805DA4046C0B250FA85F09A
:105A1000402801DB00205DE1012010FA08F0494632
:105A2000C9B2014208D0012218EB0501C9B23819E8
:105A3000C0B200F06FF907E0002218EB0501C9B20F
:105A40003819C0B200F066F918F10108D2E77F1CDE
:105A5000BCE730793EE1307A012840F08E807079E1
:105A6000082190FBF1F201FB1200012806DB70799E
:105A7000082190FBF1FB1BF1010B03E07079082179
:105A800090FBF1FB31795846C0B24143491C8DF877
:105A9000011031689DF80820B079121A9DF80100B4
:105AA000424301EB020001788DF80010401C019088
:105AB0005FF0000840469DF80010C0B2884259D2FD
:105AC0005FF0000948465946C0B2C9B288424ED27A
:105AD00001994246D2B25846C0B2424301EB02009D
