:020000040800F2
:10000000302A0020D1DB00080DD500080FD50008EC
:1000100011D5000813D5000815D500080000000010
:1000200000000000000000000000000017D50008DC
:1000300019D50008000000001BD500081DD50008D8
:1000400085DE000889DE00088DDE000891DE0008EC
:1000500095DE000899DE00089DDE0008A1DE00089C
:10006000A5DE0008A9DE0008ADDE0008B1DE00084C
:10007000B5DE00086DD50008B9DE000877D50008A8
:10008000BDDE0008C1DE0008C5DE0008C9DE0008CC
:10009000CDDE0008D1DE0008D5DE0008D9DE00087C
:1000A000DDDE0008E1DE0008E5DE0008E9DE00082C
:1000B000EDDE00080000000000000000F1DE000896
:1000C000F5DE0008F9DE0008FDDE000801DF0008AB
:1000D00005DF000881D5000809DF00088BD500087E
:1000E0000DDF000895D500080000000000000000AA
:1000F0000000000000000000000000000000000000
:100100000000000011DF00080000000015DF0008FB
:10011000000000000000000019DF00081DDF0008DB
:1001200021DF000825DF000829DF00082DDF000897
:1001300031DF0008000000000000000000000000A7
:1001400035DF000839DF00083DDF000841DF000827
:1001500045DF00089FD50008A9D5000849DF000841
:100160004DDF000851DF000855DF000800000000E7
:1001700059DF00085DDF000861DF000800000000B3
:1001800065DF000869DF00086DDF000810B50400B6
:10019000002C01D1012035E0A0690028FFD1E06FDB
:1001A000002805D1002084F87800200001F02AF80A
:1001B0002420E0672068006840084000216808604B
:1001C000606A002802D0200000F0DEFB200000F072
:1001D0005FFA012801D1012014E02068406830F462
:1001E0009040216848602068806830F02A002168CB
:1001F00088602068006850F00100216808602000D5
:1002000000F02FFC10BD2DE9FC4706000D00170083
:100210009846F06F202859D1002D03D0380080B2C5
:10022000002801D1012052E00020C6F884002120DE
:10023000F06701F05DF98146A6F85070A6F852709B
:10024000B068B0F5805F05D13069002802D1002484
:10025000AA4602E02C005FF0000AB6F8520000281F
:1002600022D0CDF800804B4600228021300000F0E3
:1002700061FC002803D02020F067032027E0002C39
:1002800008D1BAF80000C005C00D316808851AF120
:10029000020A03E0207831680885641CB6F8520031
:1002A000401EA6F85200D8E7CDF800804B46002249
:1002B0004021300000F03EFC002803D02020F067F1
:1002C000032004E02020F067002000E00220BDE8C9
:1002D000F68770B505000C001600D5F880002028C0
:1002E00024D1002C03D0300080B2002801D101209D
:1002F0001DE0002028662868DFF8901388420ED0A1
:100300002868406800020AD5286850E8000F50F0BD
:10031000806001002A6842E800100028F4D1320011
:1003200092B22100280000F054FC00E0022070BDD1
:100330002DE9F04706003068C7693068D0F80080C2
:100340003068D0F8089040F60F043C40002C0BD1E8
:10035000B80609D55FEA886006D5B06E002802D0DD
:100360003000B16E88478FE1002C00F0AA805FEA70
:10037000C97005D4DFF8080618EA000F00F0A18064
:1003800017F00100C0B200280BD05FEAC85008D5B2
:10039000012031680862D6F8840050F00100C6F8E8
:1003A0008400B8070DD519F00100C0B2002808D0AC
:1003B000022031680862D6F8840050F00400C6F8C4
:1003C000840078070DD519F00100C0B2002808D0CC
:1003D000042031680862D6F8840050F00200C6F8A4
:1003E0008400380710D55FEA886004D419F0010052
:1003F000C0B2002808D0082031680862D6F884000E
:1004000050F00800C6F8840038050CD55FEA4810A3
:1004100009D54FF4006031680862D6F8840050F0C6
:100420002000C6F88400D6F88400002848D0B8061A
:1004300008D55FEA886005D5B06E002802D030008C
:10044000B16E8847D6F884000500306880684006A1
:1004500002D415F0280F2DD0300000F09EFC30683B
:100460008068400622D53068083050E8000F30F030
:1004700040000100306810F1080242E80010002836
:10048000F1D1706F00280DD0DFF8F804716F886328
:10049000706F01F083F9002812D0706F716F896B53
:1004A00088470DE0300001F091FA09E0300001F0DA
:1004B0008DFA05E0300001F089FA0020C6F88400CA
:1004C000E2E0306E012840F0BD80F80640F1BA80CD
:1004D0005FEAC86040F1B680102031680862306879
:1004E000806840066DD5706F0068D0F804A0504653
:1004F00080B2002852D05046B6F8581080B28842D8
:100500004CD2A6F85AA0706F00680068800639D4F3
:10051000306850E8000F30F480700100326842E823
:1005200000100028F4D13068083050E8000F40086F
:1005300040000100306810F1080242E80010002875
:10054000F1D13068083050E8000F30F04000010071
:10055000306810F1080242E800100028F1D1202094
:10056000C6F8800000203066306850E8000F30F098
:1005700010000100326842E800100028F4D1706FCA
:1005800001F0E2F802207066B6F85810B6F85A008A
:10059000091A89B2300001F0FAF911E05046B6F8B4
:1005A000581080B288420BD1706F006800688006D6
:1005B00006D502207066B6F85810300001F0E7F951
:1005C00062E0B6F85800B6F85AA0B0EB0A0AB6F8DE
:1005D0005A00002835D0504680B2002831D030680B
:1005E00050E8000F30F490700100326842E80010CB
:1005F0000028F4D13068083050E8000F400840006F
:100600000100306810F1080242E800100028F1D122
:100610002020C6F88000002030660020B0663068D8
:1006200050E8000F30F010000100326842E800107E
:100630000028F4D102207066514689B2300001F0E2
:10064000A6F921E0F8020AD55FEA492007D55FF450
:10065000801031680862300001F04AFA14E0380670
:1006600009D55FEA086006D5F06E002802D0300098
:10067000F16E884708E0780606D55FEA486003D542
:10068000300000F054FCFFE7BDE8F0870080004038
:100690002DE9F04704000026DFF8A81920688842F9
:1006A000FFD0A2682069024360690243E069024307
:1006B00020680368DFF89009034013432068036053
:1006C0002068436833F44053E06803432068436084
:1006D000D4F818802068884202D0206A50EA0808BE
:1006E0002068806830F4306058EA0000226890602A
:1006F0002068DFF8482A904216D1DFF8440A0068E3
:1007000010F00300002805D0022805D006D30328E6
:1007100006D007E0012760E002275EE004275CE0E6
:1007200008275AE0102758E02068DFF8182A90427E
:1007300017D1DFF80C0A006810F00C00002806D072
:10074000042808D0082804D00C2806D007E0002789
:1007500043E0022741E004273FE008273DE010275F
:100760003BE02068DFF8E029904217D1DFF8D0099C
:10077000006810F03000002806D0102808D020288B
:1007800004D0302806D007E0002726E0022724E026
:10079000042722E0082720E010271EE02068884276
:1007A0001AD1DFF89C09006810F44060002809D0D5
:1007B000B0F5806F0AD0B0F5006F05D0B0F5406F8E
:1007C00006D007E0002708E0022706E0042704E03F
:1007D000082702E0102700E010272068884246D151
:1007E0003800C0B2002806D0022808D0042809D05A
:1007F00008280BD00DE001F0EFFD81460DE0DFF899
:100800004C990AE001F07BFD814606E04FF4004977
:1008100003E05FF0000901200600B9F1000F00F0CD
:10082000A580616803204143894505D361684FF481
:1008300080504143494502D20120060096E04FF422
:100840008072606840080021E2FB090162680023B1
:1008500001F052FE0500B5F5407F05D3B5F5801FC8
:1008600002D22068C56081E0012006007EE0E069D8
:10087000B0F5004F41D13800C0B2002808D001289F
:100880000AD002280CD004280DD008280FD011E07F
:1008900001F0A2FD814611E001F0ABFD81460DE0C3
:1008A000DFF8A8980AE001F02AFD814606E04FF43F
:1008B000004903E05FF0000901200600B9F1000FD4
:1008C00054D06068400810EB49006168B0FBF1F05B
:1008D0000500102D0ED3B5F5803F0BD24FF6F07109
:1008E0002940C5F3420001438A46504680B2216840
:1008F000C8603BE00120060038E03800C0B20028A4
:1009000008D001280AD002280CD004280DD00828CD
:100910000FD011E001F060FD814611E001F069FDAA
:1009200081460DE0DFF824980AE001F0E8FC8146FA
:1009300006E04FF4004903E05FF0000901200600E3
:10094000B9F1000F12D0606819EB50006168B0FB7C
:10095000F1F00500102D07D3B5F5803F04D2280033
:1009600080B22168C86001E0012006000020A06676
:100970000020E0663000C0B2BDE8F0870000000053
:1009800020010004150F000890F82410090707D56E
:1009900001684A6832F40042416B0A4301684A60C8
:1009A00090F82410C90707D501684A6832F400326C
:1009B000816A0A4301684A6090F82410890707D5C4
:1009C00001684A6832F48032C16A0A4301684A60A9
:1009D00090F82410490707D501684A6832F480224C
:1009E000016B0A4301684A6090F82410C90607D5D4
:1009F00001688A6832F48052816B0A4301688A6018
:100A000090F82410890607D501688A6832F40052EC
:100A1000C16B0A4301688A6090F82410490613D517
:100A200001684A6832F48012016C0A4301684A6026
:100A3000016CB1F5801F07D101684A6832F4C00229
:100A4000416C0A4301684A6090F82410090607D5F2
:100A500001684A6832F40022816C0A4301684A60E6
:100A6000704738B504000020C4F8840000F040FD51
:100A700005002068006800071DD57FF07E400090CB
:100A80002B0000225FF40011200000F053F8002832
:100A900011D0206850E8000F30F08000010022687B
:100AA00042E800100028F4D12020E067002084F8FC
:100AB000780003203DE02068006840072CD57FF0D7
:100AC0007E4000902B0000225FF48001200000F0A7
:100AD00031F8002820D0206850E8000F30F49070E2
:100AE0000100226842E800100028F4D12068083094
:100AF00050E8000F400840000100206810F1080293
:100B000042E800100028F1D12020C4F88000002025
:100B100084F8780003200CE02020E0672020C4F84F
:100B200080000020206600206066002084F87800A5
:100B3000002032BD2DE9F04105000E0090461F0057
:100B4000069C2868C0693040B04201D1012000E015
:100B500000204146C9B2884238D114F1010FF0D0CB
:100B600000F0C6FCC01B844201D3002C01D103203D
:100B70002DE0286800684007E3D5802EE1D0402EA4
:100B8000DFD02868C06900070DD5082029680862F1
:100B9000280000F002F90820C5F88400002085F83C
:100BA0007800012013E02868C0690005C9D54FF41A
:100BB000006029680862280000F0EFF82020C5F8DE
:100BC0008400002085F87800032000E00020BDE8C4
:100BD000F08130B403005965A3F85820A3F85A20D7
:100BE000002098669868B0F5805F0BD118690028DE
:100BF00004D140F2FF10A3F85C0023E0FF20A3F82B
:100C00005C001FE0986800280AD11869002803D109
:100C1000FF20A3F85C0015E07F20A3F85C0011E042
:100C20009868B0F1805F0AD11869002803D17F204D
:100C3000A3F85C0006E03F20A3F85C0002E000207F
:100C4000A3F85C000020C3F884002220C3F88000D1
:100C50001868083050E8000F50F0010004001868D0
:100C600010F1080545E800400028F1D19868B0F57A
:100C7000805F06D11869002803D10FF2D130986641
:100C800002E00FF2D5209866186900280BD018688A
:100C900050E8000F50F4907004001D6845E80040D3
:100CA0000028F4D10AE0186850E8000F50F0200046
:100CB00004001D6845E800400028F4D1002030BC45
:100CC000704770B504000D0016006565A4F8586003
:100CD0000020C4F884002220C4F88000606F00283F
:100CE00021D00FF21510616FC8620FF2B110616F61
:100CF00008630FF2D110616F48630020616F886351
:100D000033009BB2626D206810F12401606F00F027
:100D1000CFFC002807D01020C4F884002020C4F89D
:100D2000800001202AE0206900280AD0206850E8CD
:100D3000000F50F480700100226842E80010002883
:100D4000F4D12068083050E8000F50F00100010095
:100D5000206810F1080242E800100028F1D1206854
:100D6000083050E8000F50F040000100206810F1FA
:100D7000080242E800100028F1D1002070BD01688F
:100D800051E8001F31F0C0010A00036843E8002168
:100D90000029F4D12021C1677047016851E8001F84
:100DA00031F490710A00036843E800210029F4D16E
:100DB0000168083151E8001F490849000A0001682C
:100DC00011F1080343E800210029F1D1016E012946
:100DD0000AD1016851E8001F31F010010A000368D0
:100DE00043E800210029F4D12021C0F8801000211F
:100DF000016600218166704738B50400A56A206845
:100E0000006880063AD40020A5F85A00286850E807
:100E1000000F30F4807001002A6842E800100028BA
:100E2000F4D12868083050E8000F40084000010065
:100E3000286810F1080242E800100028F1D1286863
:100E4000083050E8000F30F040000100286810F131
:100E5000080242E800100028F1D12020C5F88000E7
:100E6000286E01280AD1286850E8000F30F01000E1
:100E700001002A6842E800100028F4D100206866CA
:100E8000286E012805D1B5F85810280000F07FFD24
:100E900002E0280000F060FD31BD000038B504001C
:100EA000A56A01206866286E012807D1B5F8581098
:100EB000490889B2280000F06AFD02E0280001F02C
:100EC00033FC31BDF8B50400A56AEE6FD5F880702B
:100ED00028688068000607D5212E05D10020A5F8D6
:100EE00052002800FFF74BFF28688068400607D5AE
:100EF000222F05D10020A5F85A002800FFF74DFF4A
:100F0000D5F8840050F01000C5F88400280000F0E7
:100F10005DFDF1BD38B50400A56A0020A5F85A00B2
:100F20000020A5F85200280000F050FD31BD10B59A
:100F30000400206850E8000F30F0400001002268F3
:100F400042E800100028F4D12020E0670020E0668D
:100F5000200001F0EAFB10BD70B50500B5F85C603B
:100F6000D5F88000222866D12868808C040016EA13
:100F70000400696D0870686D401C6865B5F85A001A
:100F8000401EA5F85A00B5F85A00002859D1286823
:100F900050E8000F30F4907001002A6842E8001019
:100FA0000028F4D12868083050E8000F40084000BD
:100FB0000100286810F1080242E800100028F1D171
:100FC0002020C5F880000020A866002068662868F8
:100FD0001C4988420ED02868406800020AD528685B
:100FE00050E8000F30F0806001002A6842E80010ED
:100FF0000028F4D1286E012819D10020286628681D
:1010000050E8000F30F0100001002A6842E800109C
:101010000028F4D12868C069C00602D510202968CC
:101020000862B5F85810280000F0B1FC09E028006B
:1010300000F092FC05E02868008B50F00800296859
:10104000088370BD00800040F369FFEFF8B505002C
:10105000B5F85C70D5F88000222867D12868808CAC
:101060000400686D060017EA04003080686D801C7B
:101070006865B5F85A00401EA5F85A00B5F85A0040
:10108000002859D1286850E8000F30F49070010012
:101090002A6842E800100028F4D12868083050E897
:1010A000000F400840000100286810F1080242E8E3
:1010B00000100028F1D12020C5F880000020A8668B
:1010C000002068662868224988420ED02868406857
:1010D00000020AD5286850E8000F30F08060010057
:1010E0002A6842E800100028F4D1286E012819D19E
:1010F00000202866286850E8000F30F0100001003A
:101100002A6842E800100028F4D12868C069C006A7
:1011100002D5102029680862B5F85810280000F0A0
:1011200036FC09E0280000F017FC05E02868008B79
:1011300050F0080029680883F1BD00000038014024
:101140008810024000440040004800400024F400A1
:101150000080004080B5D448D44901605FF4E1319B
:101160004160002181600021C160002101610C21EA
:101170004161002181610021016200214162FFF78C
:1011800005F8002801D001F030FB01BD80B5C8484A
:10119000C84901604FF4165141600021816000216F
:1011A000C160002101610C214161002181610021A8
:1011B000C1610021016200214162FEF7E7FF0028C2
:1011C00001D001F012FB01BD80B5BB48BB490160F5
:1011D0004FF416514160002181600021C16000215F
:1011E00001610C214161002181610021C161002167
:1011F000016200214162FEF7C9FF002801D001F021
:10120000F4FA01BD38B59EB00400142200216846EE
:1012100001F0EDFA6022002106A801F0E8FA20684A
:10122000A249884252D1202006900020119006A8A1
:1012300001F0E8FA002801D001F0D7FAA0480168CF
:1012400051F001010160006810F00100059005985F
:101250009C48016851F002010160006810F0020032
:10126000059005984FF44060009002200190012005
:10127000029003200390082004906946924801F0F0
:1012800035FD924D92482860042068600020A860D7
:101290000020E86080202861002068610020A861AB
:1012A0000020E86100202862280000F027F90028CB
:1012B00001D001F09AFA6567AC6200220021462055
:1012C00001F063FF462001F075FFABE0206879492B
:1012D000884251D10120069000200E9006A801F00E
:1012E00091FA002801D001F080FA7A48016851F49F
:1012F00080410160006810F48040059005987148B5
:10130000016851F002010160006810F002000590D0
:101310000598C02000900220019000200290032038
:101320000390072004906946674801F0DFFC6A4D8E
:101330006A482860022068600020A8600020E860F9
:1013400080202861002068610020A8610020E861F9
:1013500000202862280000F0D1F8002801D001F018
:1013600044FA6567AC6200220021252001F00DFFE0
:10137000252001F01FFF55E020685049884251D1D7
:10138000042006900020109006A801F03BFA0028E7
:1013900001D001F02AFA5248016851F4802101601D
:1013A000006810F48020059005984648016851F0C7
:1013B00004010160006810F00400059005984FF4E6
:1013C00040600090022001900020029003200390D2
:1013D000072004906946434801F088FC424D434889
:1013E0002860022068600020A8600020E86080205B
:1013F0002861002068610020A8610020E8610020C9
:101400002862280000F07AF8002801D001F0EDF9F8
:101410006567AC6200220021272001F0B6FE27207C
:1014200001F0C8FE1FB030BD10B5040020681F4990
:10143000884210D1224801684908490001604FF4F0
:101440004061214801F033FD606F00F0C7F846208D
:1014500001F0B7FE27E02068164988420FD11D48E9
:10146000016831F480410160C021174801F01FFD7F
:10147000606F00F0B3F8252001F0A3FE13E02068B0
:101480000E4988420FD11648016831F4802101606D
:101490004FF44061134801F00AFD606F00F09EF8C0
:1014A000272001F08EFE10BD601E0020008000404D
:1014B000E81E002000380140701F00200048004056
:1014C0005C1002404C100240000400489C230020A5
:1014D0008004024060100240E423002058000240D3
:1014E00058100240000800482C2400203000024020
:1014F00001480068704700BFDC25002030B40100BF
:10150000002901D1012067E00868624A90420AD2AE
:101510000A68614882181420B2FBF0F08000486429
:101520005E48086409E00A685D4882181420B2FB2E
:10153000F0F0800048645B480864022081F82500D0
:10154000086802686FF30E128B68C8680343086965
:1015500003434869034388690343C8690343086A2E
:1015600003431A43086802608868B0F5804F2AD0A8
:10157000086C4A4B984213D14B4803680F2491F8EA
:10158000445015F01C05AC40A343036003684C684D
:1015900091F8445015F01C05AC402343036012E061
:1015A000424803680F2491F8445015F01C05AC40E4
:1015B000A343036003684C6891F8445015F01C0580
:1015C000AC40234303600020C863012081F825005C
:1015D000002081F82400002030BC704710B40100C6
:1015E000002901D1012053E008680068400840004C
:1015F0000A6810600868274A90420AD20A6826489A
:1016000082181420B2FBF0F080004864234808647C
:1016100009E00A68224882181420B2FBF0F080002A
:1016200048642048086400200A681060012091F88E
:10163000442012F01C0290400A6C5060086C174A5B
:1016400090420AD1184802680F2391F8444014F0E0
:101650001C04A3409A43026009E0144802680F2367
:1016600091F8444014F01C04A3409A430260002007
:10167000C8620020086300204863002088630020BF
:10168000C863002081F82500002081F82400002094
:1016900010BC704708040240F8FFFDBF0000024084
:1016A000F8FBFDBF00040240A8000240A80402406D
:1016B0002DE9F04104000D0016001F005FF0000846
:1016C00094F82400012801D102203BE0012084F895
:1016D000240094F8250001282DD1022084F825004B
:1016E0000020E0632068006840084000216808602E
:1016F0003B0032002900200000F0F8F8206B0028A1
:1017000006D02068006850F00E00216808600BE0E9
:101710002068006830F004002168086020680068D4
:1017200050F00A00216808602068006850F001004D
:101730002168086004E0002084F82400022080462C
:101740004046C0B2BDE8F0810100002291F82500BA
:10175000022806D00420C863002081F8240001205C
:101760001BE00868006830F00E000B68186008681D
:101770000068400840000B681860012091F8443070
:1017800013F01C0398400B6C5860012081F8250071
:10179000002081F824001000C0B2704738B5040062
:1017A000002594F82500022804D00420E0630120DD
:1017B00005001FE02068006830F00E002168086016
:1017C000206800684008400021680860012094F803
:1017D000441011F01C018840216C4860012084F8FD
:1017E0002500002084F82400A06B002802D02000EF
:1017F000A16B88472800C0B232BD70B50400206CD0
:10180000056820680668042094F8441011F01C0153
:1018100010FA01F10D4219D0710717D52168096836
:10182000890605D42168096831F004012268116035
:1018300094F8441011F01C018840216C4860206B22
:10184000002852D02000216B88474EE0022094F8F7
:10185000441011F01C0110FA01F10D421FD0B10724
:101860001DD521680968890608D42168096831F006
:101870000A0122681160012184F8251094F84410AF
:1018800011F01C018840216C4860002084F824007D
:10189000E06A002829D02000E16A884725E0082076
:1018A00094F8441011F01C01884005421DD0300707
:1018B0001BD52068006830F00E0021680860012008
:1018C00094F8441011F01C018840216C48600120FC
:1018D000E063012084F82500002084F82400606B78
:1018E000002802D02000616B884770BD30B401240D
:1018F00090F8445015F01C05AC40056C6C60046811
:1019000063608468102C04D10468A2600468E160FC
:1019100003E00468A1600468E26030BC704730B442
:10192000002513E050F8042BD30744BFA9F10103AD
:101930009A18091F042942F8045BFAD213468C074F
:1019400044BF15809B1CC90748BF1D7050F8041B7D
:101950000029E7D130BC704710B504002068414928
:101960000968884202D1012001F09DFD20683E49AE
:101970000968884202D1012001F0AAFE20683B4993
:101980000968884202D1012001F0E2FE10BD38B59D
:1019900004000D00206833490968884203D12800FB
:1019A00080B201F080FD20682F490968884203D188
:1019B000280080B201F08CFE20682C49096888421A
:1019C00003D1280080B201F0C3FE31BD10B5040080
:1019D000206824490968884202D1002024490870FF
:1019E000206821490968884202D1022020490870F4
:1019F00020681E490968884202D104201C490870E9
:101A000002211C4801F0C6FE10BD1CB5184C207800
:101A10000090194B00220021032001F0E5FE207800
:101A200000280ED101F03EFD14480188491C0180B8
:101A30000188142903DB0021018001F01DFD01F064
:101A40001FFD20782078022803D101F040FE01F02C
:101A50002FFE20782078042803D101F078FE01F0D1
:101A600067FE13BD601E0020E81E0020701F0020CE
:101A70002F260020F403002060D800081C26002038
:101A800070B505000C001600D5F8800020282DD177
:101A9000002C03D0300080B2002801D1012026E0C4
:101AA0000120286600206866320092B221002800DA
:101AB000FFF707F901000800C0B2002813D1286E13
:101AC00001280ED110202A681062286850E8000F03
:101AD00050F0100002002B6843E800200028F4D1E9
:101AE00001E0012001000800C0B200E0022070BD4A
:101AF00070470268531C0360117070472DE9FE4F58
:101B00000500002D01D101203AE3DFF80499D9F84E
:101B1000004014F00C04DFF81889D8F8007017F0B2
:101B200003072878C00640F1C680002C03D00C2C97
:101B30007AD1012F78D1DFF8D4A8DAF80000800735
:101B400004D5A869002801D1012019E3DAF80000C2
:101B5000000704D5DAF8000010F0F00005E0DFF827
:101B600060090068000910F0F000296A88421ED25E
:101B7000286A00F05FFC002801D0012000E3DAF8B9
:101B8000000050F00800CAF80000DAF8001031F048
:101B9000F001286A0143CAF80010DFF8280901683B
:101BA00031F47F41EA6951EA022101601FE0DAF86D
:101BB000000050F00800CAF80000DAF8001031F018
:101BC000F001286A0143CAF80010DFF8F80801683C
:101BD00031F47F41EA6951EA02210160002C06D10B
:101BE000286A00F027FC002801D00120C8E200F09C
:101BF00086FBDFF8D418D9F80020C2F30312895C01
:101C000011F01F01C840DFF80C180860DFF8080861
:101C1000006801F007FF8DF800009DF80000002823
:101C200049D09DF80000ABE2A86900282DD0DFF86C
:101C3000DC97D9F8000050F00100C9F80000FFF768
:101C400057FC0600D9F80000800706D4FFF750FCC7
:101C5000801B0328F6D3032092E2D9F8000050F04D
:101C60000800C9F80000D9F8001031F0F001286A26
:101C70000143C9F80010DFF84C08016831F47F41D6
:101C8000EA6951EA0221016015E0DFF88097D9F88E
:101C9000000040084000C9F80000FFF729FC0600DA
:101CA000D9F80000800706D5FFF722FC801B032827
:101CB000F6D3032064E22878C00754D5082C03D05B
:101CC0000C2C0BD1032F09D1DFF8400700688003EB
:101CD00049D56868002846D1012051E26868B0F50E
:101CE000803F06D1DFF82407016851F4803101609C
:101CF00018E06868B0F5A02F0AD1DFF81007016876
:101D000051F480210160016851F48031016009E0E3
:101D1000DFF8F806016831F480310160016831F4C0
:101D200080210160686800280ED0FFF7E1FB060003
:101D3000DFF8D8060068800315D4FFF7D9FB801BB5
:101D40006528F5D303201BE2FFF7D2FB0600DFF87E
:101D5000BC060068800306D5FFF7CAFB801B652818
:101D6000F5D303200CE22878800752D5042C03D049
:101D70000C2C15D1022F13D1DFF890060068400516
:101D800004D5E868002801D10120F9E1DFF8340723
:101D9000016831F0F8512A6951EA0261016038E0C6
:101DA000E86800281FD0DFF86496D9F8000050F4E6
:101DB0008070C9F80000FFF79BFB0600D9F800000F
:101DC000400506D4FFF794FB801B0328F6D30320BD
:101DD000D6E1DFF8F006016831F0F8512A6951EADE
:101DE0000261016015E0DFF82496D9F8000030F4B4
:101DF0008070C9F80000FFF77BFB0600D9F80000EF
:101E0000400506D5FFF774FB801B0328F6D303209B
:101E1000B6E1287800072ED56869002815D0DFF8CC
:101E2000A096D9F8000050F00100C9F80000FFF7B3
:101E30005FFB0600D9F8000080071CD4FFF758FBB1
:101E4000801B0328F6D303209AE1DFF87496D9F8B3
:101E5000000040084000C9F80000FFF749FB0600F9
:101E6000D9F80000800706D5FFF742FB801B032846
:101E7000F6D3032084E12878400740F181805FF0A9
:101E80000009DFF848A6DAF80000C0000DD4DAF83F
:101E9000000050F08050CAF80000DAF8000010F09E
:101EA00080500190019801208146DFF824B6DBF8CC
:101EB0000000C00513D4DBF8000050F48070CBF8AC
:101EC0000000FFF715FB0600DBF80000C00506D494
:101ED000FFF70EFB801B0328F6D3032050E1A86810
:101EE000012806D1DFF8EC05016851F0010101601D
:101EF00017E0A86805280AD1DFF8D805016851F075
:101F000004010160016851F00101016009E0DFF89E
:101F1000C4050168490849000160016831F0040105
:101F20000160A868002810D0FFF7E2FA0600DFF889
:101F3000A4050068800719D4FFF7DAFA801B41F284
:101F400089318842F3D303201AE1FFF7D1FA060062
:101F5000DFF880050068800708D5FFF7C9FA801B05
:101F600041F289318842F3D3032009E14846C0B2E7
:101F7000012805D1DAF8000030F08050CAF80000DE
:101F8000287880062ED5686A002815D0DFF8489595
:101F9000D9F8000050F00100C9F80000FFF7A8FAD6
:101FA0000600D9F8000080071CD4FFF7A1FA801BB7
:101FB0000328F6D30320E3E0DFF81C95D9F80000EE
:101FC00040084000C9F80000FFF792FA0600D9F86F
:101FD0000000800706D5FFF78BFA801B0328F6D395
:101FE0000320CDE0A86A002800F0C980A86A022872
:101FF00040F0A380D8F80000070017F00300E96A5A
:10200000884222D117F07000296B491EB0EB011FE6
:102010001BD117F4FE40696BB0EB012F15D117F0FF
:102020007840A96BB0EBC16F0FD117F4C000E96B1A
:102030004908491EB0EB415F07D117F0C060296C19
:102040004908491EB0EB416F57D00C2C53D0DFF834
:10205000BCA3DAF80000400101D5012090E0DAF8D5
:10206000000030F08070CAF80000FFF741FA8146A6
:10207000DAF80000800107D5FFF73AFAB0EB090063
:102080000328F5D303207BE0D8F80010DFF84C04D8
:102090000140E86A0143286B401E51EA0011686B59
:1020A00051EA0021E86B4008401E51EA4051286C7B
:1020B0004008401E51EA4061A86B51EAC061C8F86F
:1020C0000010DAF8000050F08070CAF80000D8F86C
:1020D000000050F08070C8F80000FFF709FA060011
:1020E000DAF8000080014AD4FFF702FA801B0328C7
:1020F000F6D3032044E0012042E0DFF81093D9F842
:10210000000080013BD4D9F8000050F08070C9F87D
:102110000000D8F8000050F08070C8F80000FFF709
:10212000E7F90600D9F80000800128D4FFF7E0F9AC
:10213000801B0328F6D3032022E00C2C1DD0DFF8EF
:10214000CC92D9F8000030F08070C9F80000FFF799
:10215000CFF90600D9F80000800106D5FFF7C8F9CD
:10216000801B0328F6D303200AE0D8F80010DFF81C
:1021700070030140C8F8001001E0012000E00020D9
:10218000BDE8FE8F2DE9F04104000D00002C01D1C7
:102190000120B2E0DFF84C73386810F00700A84265
:1021A0000BD23868C008C00028433860386810F087
:1021B0000700A84201D001209FE0207880070DD5BC
:1021C000DFF84C12086810F0F000A268904205D2C7
:1021D0000A6832F0F002A06802430A602078C00763
:1021E00042D56068032806D1DFF82002006880012C
:1021F0001CD4012081E06068022806D1DFF80C02BF
:102200000068800312D4012077E06068002806D1BE
:10221000DFF8F8010068800708D401206DE0DFF8DE
:10222000EC010068400501D4012066E0DFF8E081A0
:10223000D8F800108908890060680143C8F80010C8
:10224000FFF756F90600D8F8000010F00C0061689E
:10225000B0EB810F08D0FFF74BF9801B41F28931B9
:102260008842F0D3032048E0207880070CD56849E5
:10227000A0680A6812F0F002904205D20A6832F0B3
:10228000F002A06802430A60386810F00700854237
:102290000BD23868C008C00028433860386810F096
:1022A0000700A84201D0012027E02078400706D58A
:1022B00057490A6832F4E062E06802430A60207815
:1022C000000707D55248016831F46051226951EA8C
:1022D000C201016000F013F8DFF8EC114C4A1268FB
:1022E000C2F30312895C11F01F01C840494908601C
:1022F0004948006801F096FBC0B2BDE8F0812DE9C5
:10230000F041002600204249096811F00C01DFF875
:1023100020C1DCF8007017F00307002903D00C2956
:102320001AD1012F18D1DFF8E4E0DEF800805FEA6F
:10233000087806D4DFF888E1DEF800E0CEF3032E5B
:1023400003E0DEF800E0CEF3031E674E56F82E6081
:1023500000290CD130000AE0042903D1DFF88CE118
:10236000704604E0082902D1DFF884E170460C29A8
:102370002DD1DCF800E01EF0030E73469E46BEF140
:10238000020F03D0BEF1030F03D005E0DFF85CE1DC
:1023900003E0DFF85CE100E0B646DCF80020C2F3C1
:1023A0000212521C1500DCF80020C2F3062202FBC8
:1023B0000EFEBEFBF5F2DCF800C0CCF3416C1CF164
:1023C000010C5FEA4C0C6446B2FBF4FC6046BDE8CD
:1023D000F08110480068704780B5FFF7FAFF454963
:1023E0000B4A1268C2F30222895C11F01F01C84037
:1023F00002BD80B5FFF7EDFF3E49054A1268C2F302
:10240000C222895C11F01F01C84002BD00100240C9
:1024100008100240F0030020CC030020284908687F
:1024200010F07E400A6852F400020A607047000013
:102430000C1002407CB504000025244E3068C0001A
:1024400003D501F01FFB01000FE0306850F0805011
:102450003060306810F080500090009801F012FB5E
:102460000100306830F080503060B1F5007F09D154
:10247000812C15D3A12C02D30220050010E00120ED
:1024800005000DE0812C02D30320050008E0802C1C
:1024900002D10220050003E0702C01D101200500CB
:1024A00010480268D208D2002A430260006810F087
:1024B0000700A84201D0012000E0002076BD000006
:1024C0009410024004100240F0D900085810024055
:1024D0000070004090100240981002408C809D01D6
:1024E000FCFFEEFE00200240D8D600080024F400D5
:1024F00000127A00FCDD0008BBBBE1B1B2F5803F01
:1025000080F07E80022A1ED98C46B1FBF2F102FBDC
:1025100011C31B0443EA1043B3FBF2FC02FB1C3360
:1025200080B240EA0343B3FBF2F002FB103240EA10
:102530000C4000237047022A05D98446B0FBF2F014
:1025400002FB10C270474AB105D100F001024908F0
:102550005FEA3000704700220023704701F0DCBAC8
:102560000B000200002100207047904271EB030C29
:10257000F6D3B3F5803F2FD2F0B5B3FA83F7B1FAB3
:1025800081F4A7F10F0E3D1B5340CEF1200602FA55
:102590000EF2F3415340B5F10F0746D80F3C2C44DF
:1025A0004140C4F12006A040F1414140B1FBF3F6A7
:1025B00003FB1611A2FB0645001BA94102D2761EA1
:1025C0008018594180EA010221FA0EF362FA0EF2F4
:1025D00000215A403046F0BD30B4B1FBF3FC03FBA0
:1025E0001C11A2FB0C45001BA94103D2ACF1010C4C
:1025F0008018594130BC02460B46604600217047A6
:10260000B2F1807F65D3F0B5B2FA82F7B1FA81F406
:10261000C7F10F063D1B22FA06F307F1110EF24136
:1026200020355A40B5F10F07B8D94140C4F1200612
:10263000A040F1414140B1FBF3FC03FB1C11A2FBA4
:102640000C45001BA94103D2BCF1010C8018594173
:102650000F2F12D30F3FC90341EA5041B1FBF3F6EC
:1026600003FB1611A2FB0645D4EBC030A94102D2F0
:10267000761E8018594146EACC3C07B34140C7F169
:102680002006B840F1414140B1FBF3F603FB1611BF
:10269000A2FB0645001BA94102D2761E80185941B3
:1026A00080EA010221FA0EF3C7F1200462FA0EF269
:1026B0000CFA07F05A402CFA04F13043F0BD80EADE
:1026C000010221FA0EF3002162FA0EF260465A402E
:1026D000F0BD8C46B1FBF2F102FB11C31B0243EAD1
:1026E0001063B3FBF2FC02FB1C331B024CEA00201C
:1026F00043EA1063B3FBF2FC02FB1C331B024CEAFF
:10270000002043EA1063B3FBF2FC02FB1C331B0204
:102710004CEA002043EA1063B3FBF2FC02FB1C32DC
:102720004CEA0020002370477047704780B501F0E5
:10273000F5F900F011F801F003FA01F0E9FAFEF7FB
:1027400009FD01F015FB01F0BBFBFEF71FFDFEF7D5
:102750003BFD00F0D7FDFEE710B596B04421002206
:1027600005AC200001F010FC142100226C46200072
:1027700001F00AFC4FF4007001F08AF9002801D042
:1027800000F033F81820059001200A9001200B90EA
:1027900000200C9060200D9002200F9001201090DE
:1027A00001201190282012900720139002201490ED
:1027B0000220159005A8FFF7A1F9002801D000F02C
:1027C00014F80F20009003200190002002900020B8
:1027D00003900020049004216846FFF7D3FC0028F2
:1027E00001D000F002F816B010BD72B6FEE710B5C9
:1027F000044610460A460146204601F0C5FB204625
:1028000010BD2E002DE9F84F05005FF000080027ED
:102810002868000527D5686C00280DD0B0F5000F9A
:1028200003D0B0F5400F0DD00DE0DFF824030168B0
:1028300051F48031016008E00021281D00F092F978
:10284000804602E001E0012080464046C0B20028F8
:1028500008D1DFF80C130A6832F44002686C0243B6
:102860000A6000E04746286880037AD55FF00009D7
:10287000DFF8E0A2DAF80000C0000DD4DAF80000BA
:1028800050F08050CAF80000DAF8000010F08050D4
:102890000090009801208146DFF8BCB2DBF8000010
:1028A00050F48070CBF80000FEF722FE0600DBF843
:1028B0000000C00506D4FEF71BFE801B0328F6D3DC
:1028C000032080464046C0B200283FD1DFF88CB2DA
:1028D000DBF8000010F440700400002C15D0E86D07
:1028E000844212D0DBF8000030F440700400DBF8C2
:1028F000000050F48030CBF80000DBF8000030F42A
:102900008030CBF80000CBF80040E0070FD5FEF791
:10291000EFFD0600DBF80000800708D4FEF7E8FDB5
:10292000801B41F289318842F4D30320804640461F
:10293000C0B2002808D1DBF8001031F44071E86D16
:102940000143CBF8001002E0474600E04746484606
:10295000C0B2012805D1DAF8000030F08050CAF882
:1029600000002878C00707D5DFF8F4110A6892083C
:102970009200286A02430A602878800707D5DFF8AA
:10298000E0110A6832F00C02686A02430A60287893
:10299000400707D5DFF8C8110A6832F03002A86A8C
:1029A00002430A602878800607D5DFF8B4110A6868
:1029B00032F44062E86A02430A602868800507D55D
:1029C000DFF89C110A6832F44022E86B02430A6087
:1029D0002868400507D5DFF888110A6832F44012EC
:1029E000286C02430A602878400607D5DFF870118A
:1029F0000A6832F44052286B02430A6028780006C5
:102A000007D5DFF85C110A6832F44042686B024374
:102A10000A602868C00507D5DFF844110A6832F457
:102A20004032A86B02430A602868800420D5DFF892
:102A300030110A6832F04062A86C02430A60A86C48
:102A4000B0F1006F06D1DFF80801016851F4801180
:102A500001600DE0A86CB0F1806F09D10121281D43
:102A600000F080F880464046C0B2002800D04746BB
:102A70002868000320D5DFF8E8100A6832F04062C9
:102A8000E86C02430A60E86CB0F1006F06D1DFF831
:102A9000C000016851F4801101600DE0E86CB0F1F4
:102AA000806F09D10121281D00F05CF88046404666
:102AB000C0B2002800D047462868400320D5DFF880
:102AC000A0100A6832F04062286D02430A60286D47
:102AD000B0F1006F06D1DFF87800016851F4801181
:102AE00001600DE0286DB0F1806F09D10121281D32
:102AF00000F038F880464046C0B2002800D0474673
:102B00002868400415D5DFF858100A6832F04052A2
:102B1000686D02430A60686DB0F1805F09D10221DF
:102B2000281D00F01FF880464046C0B2002800D0A3
:102B300047462868000407D5DFF824100A6832F0F9
:102B40008042A86D02430A603800C0B2BDE8F28F2F
:102B50000C100240581002400070004090100240DB
:102B6000881002402DE9F04105000C00002759496A
:102B7000086810F0030F12D0086810F003002A68EC
:102B8000904209D12868002806D00868C0F30210D6
:102B9000401C6968884232D0012007002FE0286875
:102BA000012804D01BD303280FD007D317E04A48CD
:102BB0000068800701D40120070012E04648006841
:102BC000400501D4012007000BE04348026892034E
:102BD00004D40068400301D40120070001E0012073
:102BE00007003800C0B2002809D10A6832F0730229
:102BF000286802436868401E52EA00120A603800E2
:102C0000C0B2002861D1DFF8D080D8F8000030F0E1
:102C10008060C8F80000FEF76BFC0600D8F80000E2
:102C2000000106D5FEF764FC801B0328F6D30320C1
:102C300007003800C0B2002847D1002C0BD127492B
:102C40000A6827480240A86852EA0022E86852EA67
:102C5000C0620A601CE0012C0DD120490A6821489D
:102C60000240A86852EA002228694008401E52EA41
:102C700040520A600CE019490A681B480240A868E3
:102C800052EA002268694008401E52EA40620A6027
:102C9000D8F8000050F08060C8F80000FEF728FC6B
:102CA0000600D8F80000000106D4FEF721FC801BC6
:102CB0000328F6D3032007003800C0B2002804D14F
:102CC00006490A68A86902430A603800C0B2BDE834
:102CD000F08100000C100240001002401010024071
:102CE000FF80FF07FF809FFFFF80FFF9F8B403001C
:102CF00000250868E840002800F0D78001260F680A
:102D000016FA05F007403A00002A00F0CC80087956
:102D100010F00300012804D0087910F00300022805
:102D20001DD19F685FF0030C2800C0B240001CFA60
:102D300000FC37EA0C07D1F80CC02800C0B24000F4
:102D40001CFA00FC5CEA07079F605868AE40B0437D
:102D50004E68C6F30016AE40304304005C6008794C
:102D600010F0030003280ED0DE6803272800C0B24D
:102D700040008740BE438F682800C0B240008740B3
:102D80003E433400DC60087910F00300022818D1BB
:102D90002800C00803EB8000066A0F2715F0070023
:102DA000C0B280008740BE430F6915F00700C0B273
:102DB000800087403E4334002800C00803EB8000B9
:102DC00004621E6803272800C0B240008740BE434B
:102DD0000F7917F003072800C0B2400087403E4338
:102DE00034001C60486810F4403F5CD09548066889
:102DF00056F001060660006810F00100009000988F
:102E0000914F2800800857F820605FF00F0C15F0F4
:102E10000300C0B280001CFA00FC36EA0C06B3F1D5
:102E2000904F01D1002414E08848834201D101244D
:102E30000FE08748834201D102240AE0854883429B
:102E400001D1032405E08448834201D1042400E039
:102E5000072415F00300C0B28000844026432800F8
:102E6000800847F820607D4C206890434F68FF023F
:102E700000D5104320607A4E346894434F68BF02F7
:102E800000D514433460774E306890434F68BF03D9
:102E900000D510433060744E346894434F68FF038C
:102EA00000D5144334606D1C23E7F1BC70472DE955
:102EB000F041030000250800E840002800F0A88049
:102EC000012616FA05F008400200002A00F09E8054
:102ED000DFF874C1280080085CF820000F2715F087
:102EE000030E5FFA8EFE5FEA8E0E17FA0EFE1EEAE2
:102EF00000000400B3F1904F02D15FF0000E19E022
:102F00005248834202D15FF0010E13E050488342E1
:102F100002D15FF0020E0DE04E48834202D15FF015
:102F2000030E07E04C48834202D15FF0040E01E03B
:102F30005FF0070E15F00300C0B280001EFA00FE1D
:102F400074452CD14848D0F800E03EEA020EC0F8A3
:102F500000E04448D0F800E03EEA020EC0F800E08D
:102F60003F48D0F800E03EEA020EC0F800E03B48DF
:102F7000D0F800E03EEA020EC0F800E015F00300D1
:102F8000C0B2800017FA00F00400280080085CF846
:102F90002000A043AE465FEA9E0E4CF82E005FF084
:102FA000030C1868AE465FFA8EFE5FEA4E0E1CFAFE
:102FB0000EFE5EEA000018602800C00803EB800ED9
:102FC0002800C00803EB8000D0F8208015F007002F
:102FD000C0B28000874038EA0707CEF820709868B2
:102FE0002F00FFB27F001CFA07F7B84398605868BB
:102FF000AE4030EA06065E60DE682800C0B24000DF
:103000001CFA00FC36EA0C0CC3F80CC06D1C52E72D
:10301000BDE8F081020010690B009BB2184201D09C
:10302000012000E00020C0B270471300DBB2002B8B
:1030300003D00B009BB2836102E00B009BB2836262
:103040007047000060100240080001400004004882
:1030500000080048000C0048001000480804014027
:103060000C040140040401400004014010B410F0BD
:103070000703DFF8684122684FF6FF010A40DFF8D6
:10308000601151EA03210A43226010BC7047DFF847
:103090004C010068C0F3022070470000010049B2F3
:1030A00000290AD4012210F01F018A40DFF83411F0
:1030B00003005BB25B0941F823207047010049B26D
:1030C00000290DD4012210F01F018A404649030057
:1030D0005BB25B0941F82320BFF34F8FBFF36F8FC3
:1030E000704710B4020052B2002A05D40A013F4BC7
:1030F000040064B21A5508E00A013D4B040064B2B2
:1031000014F00F04234403F8042C10BC704770B46F
:10311000030013F00704D4F10700052801D30420AD
:1031200001E0D4F10700251D072D01D2002500E0A4
:10313000E51E012616FA00F0401E0140A94016FACD
:1031400005F56D1E2A401143080070BC704710B58C
:103150000400601EB0F1807F01D301200EE0601EEC
:10316000244908600F215FF0FF30FFF7BAFF00200D
:1031700021490860072021490860002010BD10B5D2
:1031800004002000FFF772FF10BD2DE9F04104009C
:103190000D0016000027FFF77AFF80463200290055
:1031A0004046FFF7B4FF0100200040B2FFF799FF4F
:1031B000BDE8F08110B50400200040B2FFF76EFFBB
:1031C00010BD10B50400200040B2FFF777FF10BD1E
:1031D00010B504002000FFF7BAFF10BD0CED00E0B1
:1031E0000000FA0500E100E080E100E000E400E01A
:1031F00018ED00E014E000E018E000E010E000E06E
:1032000010B5040000F0D7FF012010BD38B5040050
:10321000DFF85814087800280ED101200870DFF874
:1032200050048088DFF84C1408802100C9B2DFF810
:10323000480400F0BEFA22E0DFF83804DFF830542A
:10324000AA8803889A4212D100200870AA882968A7
:10325000022001F0BBF892A1022001F0CDF801217B
:10326000280001F05BF9280001F092F807E0A98836
:1032700001802100C9B2DFF8000400F09AFA0120B1
:1032800032BD10B50400FEF7C0FB012010BD10B523
:103290000400DFF8E813032001F0BCF80421DFF894
:1032A000D80300F086FA012010BD0100012070470C
:1032B00001000120704701000120704780B500F037
:1032C00097FE01F019FA01BD1CB500F039F801F0C4
:1032D000A0FA01F0FDFA02F03EFFDFF8A44300205F
:1032E00000900FF2291300225FF0FF31200000F060
:1032F00089FEDFF89013200000F040FF200000F06E
:10330000A7FE13BDF8B50024FFF7D8FFFFF7DCFFD9
:1033100000F096F8012803D14FF4FA6002F0E8FFBC
:10332000002500F01DF806002E4301F07DFA07008D
:10333000374302F031FF3843040001F010FBEFE7A0
:1033400080B500F099F800F09BF80FF2B500DFF8B7
:10335000381308600FF2D100DFF83013086001BDA8
:1033600070B50020002400252800C0B207283ADAF2
:10337000C14E2800C0B2000130444078012830D14D
:103380002800C0B2042801D0012004002800C0B2E7
:1033900000013044406800280ED0FEF7A9F829004B
:1033A000C9B2090131444968401A2900C9B209016A
:1033B00031448968884214D300202900C9B2090128
:1033C00031444870FEF794F82900C9B2090131442C
:1033D00048602800C0B22900C9B209013144C96857
:1033E00088476D1CC0E7A44A92F84100002803D129
:1033F0000421100000F0DDF92000C0B270BD000013
:1034000080B500219C4800F0C5F901BD10B504004D
:103410009F49032000F0F0FF0521974800F0BAF91A
:1034200000F001F810BD704738B504000D004FF4EE
:103430007A732A0092B221009648FCF7E4FE31BD6F
:1034400038B500250024FEF7E9FF0100880110D4FB
:10345000C8000ED488000CD448000AD4002908D42F
:10346000480102D50120040003E0080101D5012034
:1034700004002000C0B232BD80B5FDF76BFE01BD77
:1034800080B5012284498348FCF723FF00220121F3
:103490004620FFF77AFE4620FFF78CFE01BD0000B4
:1034A0000D0A000070472DE9F041040000250021BD
:1034B0007A4A16887A4FF869002823D16C488288A6
:1034C00012FA84F2B2F5966F01D3002282805FF087
:1034D00000084146220089B292B291420ED20168A0
:1034E00082881144424692B26E4BC4461FFA8CFC4D
:1034F00013F80C308B5418F10108EAE78188611841
:10350000818077E03000230080B29BB2984229D2BC
:10351000A01B05005648838813FA85F3B3F5966F10
:1035200001D3002383805FF0000841462B0089B25D
:103530009BB2994212D201688388194443469BB2D8
:10354000DFF860C1C6461FFA8EFE1EFA86FE1CF822
:103550000EC001F803C018F10108E6E78188691878
:10356000818046E0D6F164000500414B988810FA4E
:1035700084F010FA85F0B0F5966F01D300209880A2
:1035800000200100AC4689B21FFA8CFC614513D2C1
:103590001968B3F804C0614484461FFA8CFCDFF854
:1035A00004E180461FFA88F818FA86F81EF808E049
:1035B00001F80CE0401CE4E75FF000084046210001
:1035C00080B289B2884210D218689988084441466E
:1035D00089B2DFF8D0C0C6461FFA8EFE1CF80EC0B6
:1035E00000F801C018F10108E8E799882819411886
:1035F00099801480F86900280AD164222949254855
:10360000FEF73EFA3868006830F004003968086058
:103610000121194800F0BEF8BDE8F0810100224800
:1036200001600020704780B52048016851F4804156
:103630000160016831F4804101601648FDF7F4FE35
:10364000002002BD38B504000D00104A10680028A3
:1036500004D0290089B22000126890470020124946
:1036600009688847002032BD0000000024260020A1
:103670006C04002016260020F40300207CD80008EB
:103680007C25002080A90300F825002008260020C2
:1036900044D80008601E00202326002014260020A5
:1036A0009C230020DC220020E42500204010024062
:1036B00080B5012217491848FCF70BFE00220121B2
:1036C0002520FFF762FD2520FFF774FD01BD70473F
:1036D00038B504000D480F490A78036885885A55A3
:1036E0008288521C8280828840F2FF139A4201D362
:1036F0000022828001220848FCF7EBFD01200449EA
:1037000008700221054800F054F831BDF809002086
:103710002D2600202C260020E81E00200C0500206D
:1037200080B5184800F034FE02201749087001BD2A
:1037300080B5012215491648FCF7CBFD0022012176
:103740002720FFF722FD2720FFF734FD01BD70473A
:1037500038B504000B480D490A78036885885A5526
:103760008288521C8280828840F2FF139A4201D3E1
:103770000022828001220648FCF7ABFD01200249AD
:10378000087031BDF00900202B2600202A260020D9
:10379000701F0020020001200B00DBB21B0113444C
:1037A000587000200B00DBB21B011344586001204D
:1037B000704738B504000D0001202900C9B2090185
:1037C00021444870FDF794FE2900C9B20901214443
:1037D0004860012032BD020000200B00DBB21B015B
:1037E00013445870012070472DE9F84785B0050053
:1037F0000E0014001F000020ADF802005FF0000A68
:10380000DFF80C22107AA84202D27FF0040055E0C3
:10381000D0683040B04202D07FF005004EE05068E2
:10382000002806D0002C04D00DF1020101A8526836
:1038300090470DF1380843463A004FF40071DFF825
:10384000DC0102F020FE814600F0CFF86946BDF8A9
:10385000020010EB090080B200F076F810F1010FC1
:1038600028D05FF0000A5046BDF8021080B28842AE
:1038700010D201A8514689B2405CDFF89811BDF81A
:1038800000208854BDF80000401CADF800001AF17B
:10389000010AE8E743463A004FF40071DFF874018B
:1038A000BDF800C0604402F0EEFD00F0A3F800F0A7
:1038B00008F803E000F09EF87FF0020006B0BDE8D3
:1038C000F08770B50024002500F099F8002837D162
:1038D00000F08BF84E4E308A718A88422ED0B07834
:1038E00001280ED13188308A091AB1820220B070C5
:1038F00000203080B08A002803D10020B070002062
:103900003082B07800280CD1308A718A884204D283
:10391000718A308A091AB18203E0308AD0F580605A
:10392000B0823C48318A0844050000F079F8B18A39
:103930002800394A92689047040001E000F05AF8E4
:10394000200040B270BD000070B402005FF0FF3094
:103950002F4B5C8A1D8AAC4216D15C8AD4F58064F8
:1039600015002600ADB2B6B2B5422BD315001E8AA3
:10397000ADB2B54226D201259D705D8A1D801D8A9B
:103980002C0000255D821DE01C8A5D8AAC4216D2A7
:103990005C8AD4F5806415002600ADB2B6B2B5429B
:1039A00010D315001E8AADB2B5420BD201259D7011
:1039B0005D8A1D801D8A2C0000255D8202E01D8A23
:1039C0005C8A2C1B15002600ADB2B6B2B54209D2F6
:1039D0005D8A0D805D8A15FA82F5AD05AD0D5D82BB
:1039E0000023180000B270BC70470948C18A491C06
:1039F000C18270470648C18A491EC1827047044887
:103A0000C08A002801D1002000E00120704700009A
:103A100064250020F812002038DC0008F816002089
:103A20007047000038B504000025134908780028C5
:103A30001DD04FF47A700978B0FBF1F00F49096896
:103A4000B1FBF0F0FFF7C4FB00280DD1102C08D219
:103A5000002221005FF0FF30FFF797FB0848046069
:103A600007E00120050004E00120050001E001203D
:103A700005002800C0B232BD430A0020F003002038
:103A8000CC030020DFF88000006810F4C0607047AD
:103A90000200B2F5007F26D1DFF86C00036813F452
:103AA000C063B3F5007F2CD0036833F4C06353F4D4
:103AB00000730360DFF85400036832204343DFF8EB
:103AC0005000B3FBF0F0401C0100DFF84800036831
:103AD0005B0503D5002901D0491EF6E700684005C3
:103AE0000FD503200EE0DFF82000036813F4C06355
:103AF000B3F5806F05D0036833F4C06353F480637B
:103B0000036000207047000000700040F0030020B8
:103B100040420F00147000407047000010B50024B0
:103B20000320FFF72CFB0F20FFF77CFF002802D0BB
:103B30000120040001E002F097FD2000C0B210BD9A
:103B400070B586B0142200216846FEF750FE6B481F
:103B5000016851F004010160016811F00401059150
:103B60000599016851F080010160016811F0800140
:103B700005910599016851F001010160016811F09A
:103B8000010105910599016851F002010160016888
:103B900011F0020105910599016851F008010160D9
:103BA000006810F0080005900598554C002243F27B
:103BB000C1312000FFF739FA00224FF4F8515FF0CD
:103BC0009040FFF732FA4F4D002204212800FFF702
:103BD0002CFA4D4E002238213000FFF726FA42F22F
:103BE000C13000900120019000200290002003903D
:103BF00069462000FFF77AF84CF21E00009003207F
:103C000001900020029069462000FFF76FF80B201A
:103C10000090032001900020029069463B48FFF786
:103C200065F848F2FF000090032001900020029008
:103C300069465FF09040FFF759F82020009000207F
:103C400001900120029069462000FFF74FF80720FD
:103C50000090002001900120029069463000FFF79B
:103C600045F84FF4A64000900320019000200290F8
:103C700069463000FFF73AF84FF4F8500090012001
:103C80000190002002900020039069465FF0904070
:103C9000FFF72CF84FF48050009001200190002095
:103CA00002900320039069462000FFF71FF80420CC
:103CB00000900120019000200290002003906946AE
:103CC0002800FFF713F81820009001200190002031
:103CD00002900020039069463000FFF707F820208B
:103CE000009001200190002002900320039069467B
:103CF0003000FEF7FBFF06B070BD00BF4C10024065
:103D000000080048000C004800040048001C00485F
:103D100080B51648016851F002010160016811F098
:103D2000020100910099016851F0010101600068F1
:103D300010F0010000900098002200210D20FFF7F4
:103D400024FA0D20FFF736FA002200210F20FFF79A
:103D50001CFA0F20FFF72EFA002200214520FFF762
:103D600014FA4520FFF726FA01BD00BF48100240B3
:103D700018B591B01422002101A8FEF738FD0422E5
:103D800000216846FEF733FD2C22002106A8FEF72D
:103D90002EFD484C48482060002060607F20A060D5
:103DA000FF20E06000202061002060610020A06111
:103DB0000020E061200002F073FC002801D0FEF733
:103DC00014FD00208DF8040000208DF8050000206F
:103DD0008DF806000020049000200590012201A922
:103DE000200002F0C2FC002801D0FEF7FEFC0120FA
:103DF0008DF8000001208DF8010001208DF80200EF
:103E000000208DF8030001226946200002F05BFDCE
:103E1000002801D0FEF7E9FC00208DF818000020F2
:103E20008DF8190000208DF81A000020079000205E
:103E3000099000200A9000200B9000200D90002097
:103E40000E9001208DF83C004FF4807010900122FC
:103E500006A9200002F0C6FD002801D0FEF7C5FC2F
:103E600012B010BD10B598B0040060220021684661
:103E7000FEF7BDFC20681049884219D15FF400307C
:103E800000904FF4007017906846FEF7BBFC0028C6
:103E900001D0FEF7AAFC0948016851F40041016015
:103EA000002200212920FFF770F92920FFF782F96D
:103EB00018B010BDF02400200028004090100240EF
:103EC00080B52C482C4901604FF48271416000217B
:103ED00081604FF4E061C160002101610021416116
:103EE0004FF4007181610021C16100210162002154
:103EF0004162002181620721C16200210163082122
:103F0000416302F095FF002801D0FEF76EFC01BD71
:103F100010B586B004001422002101A8FEF767FC4A
:103F200020681549884222D11448016851F4804123
:103F30000160006810F4804000900098104801680B
:103F400051F002010160006810F00200009000983A
:103F50004FF42040019002200290002003900320A3
:103F600004900520059001A90648FEF7BFFE06B0A3
:103F700010BD000078220020003800405810024098
:103F80004C1002400004004862F30F2262F31F420B
:103F9000401810F0030308D0C91A1FD3DB0748BF2D
:103FA00000F8012D28BF20F8022D130030B414466C
:103FB0001546103928BF20E93C00FAD8490728BF28
:103FC00020E90C0048BF40F8042D890028BF20F8E4
:103FD000022D48BF00F8012D30BC7047C91818BF2A
:103FE00000F8012DCB0728BF00F8012D7047000015
:103FF00080B50020DFF800130860DFF800030068D8
:10400000804702BD2DE9F04104000D0016001F009D
:10401000DDF81880002C18D03800002815D00020BA
:1040200020602800DFF8D412496A884760600020C9
:104030002072002060720020A072E760C4F8108037
:10404000E67200206061002000E00120BDE8F08100
:104050002DE9F04704005FF00008002C3BD0200061
:1040600000F002F9002836D1607A002833D1606868
:104070000700DFF88892D9F8200080470600B74291
:1040800000D23700276000202072012060720020DB
:10409000A072DFF864A2DAF80000002806D1D9F88F
:1040A00010008047200000F019F916E0D9F8180038
:1040B000804705002068281820602068DAF8001082
:1040C0000968884203D2200000F008F905E02000CA
:1040D00000F0EDF801E0012080464046C0B2BDE8A6
:1040E000F0872DE9F04105000026002D40D0DFF8D3
:1040F0000882D8F80070D8F800400120A872D8F8DB
:104100000000002836D000206872D8F80000A842CD
:104110001AD10020D8F800100872D8F800004069C1
:10412000002809D0D8F800004069C8F80000D8F885
:10413000000000F0A6F818E0DFF8C001C068804772
:104140000020C8F8000010E0002C0ED0AC4209D1CD
:104150006069002802D064697C6102E000200400EC
:104160007C6102E027006469EEE70020060001E0C0
:10417000012006003000C0B2BDE8F08170B5040037
:104180000D000026002C02D10120060010E02800BE
:104190005A49496A88476060200000F065F80028A5
:1041A00006D02000FFF79DFF2000FFF751FF06001B
:1041B0003000C0B270BD2DE9F843504D68698047AA
:1041C0000600286980470700B7EB0608DFF828914A
:1041D000D9F8000000280FD0D9F8000004002068AA
:1041E000804504D22068B0EB0800206001E0002088
:1041F00020606469002CF2D1D9F80000002824D096
:10420000D9F800000068002806D0A8698047D9F8CE
:1042100000100968814218D2D9F800000400D9F8CA
:1042200000004069C9F80000002020720020607280
:104230002069E1688847E07A0128DDD1A07A00286A
:10424000DAD12000FFF704FFD6E7D9F800000028F4
:1042500008D0D9F80000007A002803D1D9F800006E
:1042600000F00FF8BDE8F18302002348016800293F
:1042700005D0914201D1012002E04969F7E7002011
:10428000704770B504001D4D286A80470600012064
:104290002072A869804721683018814203D2A8693A
:1042A0008047301820602068A968884770BD10B426
:1042B00011490A6809684B695169002909D01968D0
:1042C0000468A14202D21A005B69F5E750614361BC
:1042D00002E050610021416110BC704738B5050013
:1042E00005480468002C01D0002121726C61056032
:1042F0000068FFF7C6FF31BDFC25002008D7000885
:1043000038B504000D00DFF8FC010168200000F062
:1043100006F8A84201D3012000E0002032BD81420E
:1043200004D25FF0FF32101A081800E0081A704734
:1043300038B52DED048B08EE100A0C001500DFEDEA
:10434000438A2800C0B2FB2810DBB8EEC89A2800C8
:10435000C0B24042C0B200F08BF829EE009A0021B2
:104360002000B0EE490A00F0B1F80EE0B8EEC89AAD
:104370002800C0B200F07CF889EE009A2900C9B28A
:104380002000B0EE490A00F0A1F8BDEC048B31BD6D
:1043900010B400210A00838892B29A4206D2002209
:1043A00003680C00A4B21A55491CF3E7002282806E
:1043B00010BC704710B4040013005A1E9BB2002BAF
:1043C00002D02170641CF7E710BC704770B5040080
:1043D0000D001600DFF8240100782100C9B28842E0
:1043E00009D3DFF824211068002804D0310089B2F5
:1043F00028001268904770BD38B504000D002800F1
:1044000002F0ACFF020092B229002000C0B2FFF718
:10441000DDFF31BD70B504000D00280002F09EFFE5
:10442000020092B229002000C0B2FFF7CFFFDFF8F0
:10443000DC603068002807D0280002F08FFF010000
:1044400089B228003268904770BD0000000000006B
:1044500030B404000D0013005A1E9BB2002B04D090
:104460002B7823706D1C641CF5E730BC704700008E
:1044700010B504002000C0B2FB2816DB2000C0B23B
:10448000D0F5807002F086FF41EC110B9FED200B00
:1044900002F095FF53EC102B0020194902F098FF11
:1044A00003F0BAF800EE100A0FE02000C0B203F0EB
:1044B000E7F841EC110B9FED160B02F080FF51EC79
:1044C000100B03F0A9F800EE100A10BD38B52DED61
:1044D000028B82B0B0EE408A04000D0018EE100A84
:1044E00003F0DCF8CDE900012A000B49200003F0BD
:1044F000F9F802B0BDEC028B31BD0000440A002087
:104500000000F03F0026002008260020042600209E
:10451000000000000000244064DE00082DE9FC4794
:1045200004000D005FF0FF3600226E4BD3E900015E
:10453000CDE900015FF000094846A18880B28842B9
:1045400024D22068494689B2405C3D2805D02068C5
:10455000494689B2405C3F2800D117E020684946AF
:1045600089B2405C41280EDB2068494689B2405C34
:104570005B2808DA2068494689B2405C203021680F
:104580004A4692B2885419F10109D5E7002738004C
:10459000C0B2412880F2A280DFF84C8121003800AF
:1045A000C0B200014044083003F0BCF80600002E01
:1045B00000F192803800C0B20001404440680028F9
:1045C00000F08A803800C0B20001404440680028F2
:1045D00008D14FF47A73A28821004448FBF713FEF8
:1045E00001207CE0DFF808A15046FFF7D1FE002053
:1045F000010089B2A288921B914223DA21683144DA
:10460000020092B2895C3F290AD02168314402003D
:1046100092B2895C3D2903D0BAF80410802900DBEE
:1046200010E021683144020092B2895CDAF800207F
:10463000BAF80430D154BAF80410491CAAF804108E
:10464000401CD5E73900C9B209014144898916FAED
:1046500081F6B1464846A18880B2884226D22068B9
:10466000494689B2405C0D280CD1484680B2A188E9
:10467000491E884206DA2068494689B208444078D3
:104680000A2813D0BDF8040080280CD220684946BF
:1046900089B2405C0099BDF804208854BDF804003C
:1046A000401CADF8040019F10109D3E71148057069
:1046B0002800C0B2401E012802D9801E09D009E09E
:1046C000002168463A00D2B2120142445268904733
:1046D00000E0FFE7012002E07F1C58E70020BDE872
:1046E000F68700BF54DE0008E0050020601E0020B1
:1046F000D80500202926002010B586B0DFF84840F4
:10470000002201A9200002F0ABF800226946200037
:1047100002F03FF9DFF834009DF8061081709DF833
:10472000051041709DF8041001709DF80010C170D3
:104730009DF8021001719DF8011041719DF8031060
:10474000817106B010BD0000F0240020BC250020BF
:1047500010B50400012210215448FEF766FC012028
:1047600010BD70B50400524D524E307869788842C1
:1047700007D05148697850F8210000F02BF868788C
:1047800030702100C9B24D48FFF713F8012070BD09
:1047900010B504004A48C078012802D1494803F006
:1047A00009FA03214548FFF704F84648FFF7F0FDF2
:1047B000012010BD10B504003F483D49497850F82C
:1047C000210000F007F82100C9B23C48FEF7F1FFD4
:1047D000012010BD10B504003B483C490160446015
:1047E000002181600021C160002101610C21416133
:1047F000002181610021C16100210162002141622B
:10480000FBF7C4FC002801D0FDF7EFFFFEF750FFD7
:1048100010BD80B503F0B6F927482549497850F80E
:104820002100FFF7D7FF01BD70B50020002400254F
:104830002800C0B2042836DA204E2800C0B2000199
:104840003044407801282CD1012004002800C0B257
:1048500000013044406800280ED0FCF749FE2900D2
:10486000C9B2090131444968401A2900C9B2090195
:1048700031448968884214D300202900C9B2090153
:1048800031444870FCF734FE2900C9B209013144B3
:1048900048602800C0B22900C9B209013144C96882
:1048A00088476D1CC4E72000C0B270BD00040048FA
:1048B000400A002025260020D80400200C050020F6
:1048C000EC250020F8090020E81E002000380140F7
:1048D00080B500224FF40071DFF8440AFEF7A5FB13
:1048E00000224FF400715FF09040FEF79EFB03F052
:1048F00037FBDFF8300ADFF8301A4A1CC0F82821ED
:104900000A1DC0F8402111F1140202620A7A80F8EF
:10491000252011F1180282634A7A80F83D2011F1B6
:104920000C02C0F870210A7A80F8752111F11C027E
:10493000C0F800220A7A80F8052211F12002C0F89E
:104940001822497A80F81D12DFF8E0190968C0F8CA
:104950006012DFF8DC190968C0F8901201BD38B5A3
:10496000002000242000C0B2072835DADFF8C4593F
:104970002000C0B200012844407801282AD120003C
:10498000C0B200012844406800280ED0FCF7B0FDFA
:104990002100C9B2090129444968401A2100C9B25D
:1049A000090129448968884214D300202100C9B232
:1049B000090129444870FCF79BFD2100C9B2090197
:1049C000294448602000C0B22100C9B2090129442D
:1049D000C9688847641CC5E7002032BD38B50400AB
:1049E000DFF85459687800281FD100224FF4007175
:1049F000DFF82C09FEF719FB00224FF400715FF07D
:104A00009040FEF712FB03F0ABFA892000902023C0
:104A100007220521DFF8240903F0F2FA012068706B
:104A20000221DFF81009FEF7B5FE012032BD7CB58A
:104A30000400DFF80C592878002803D0022823D07E
:104A400003D33DE003F024FC3AE003F083FC89202B
:104A50000090202307220521DFF8E00803F0D0FAB8
:104A6000DFF8E02803212C2003F0E4FBDFF8D8284E
:104A70000421082003F0DEFB03F0DBFC41F2883068
:104A8000DFF8B01888611BE00120DFF8AC1848702F
:104A900089200090202307220521DFF8A00803F0D9
:104AA000AFFADFF8906802213000FEF773FE0321B1
:104AB0003000FEF76FFE04213000FEF76BFEFFE7CB
:104AC0002878401C28702100C9B2DFF86808FEF77A
:104AD00070FE012076BD70B5040000F0BCF8DFF870
:104AE00058586878012803D1A87800F044FB04E006
:104AF0000021DFF84008FEF74DFEDFF85008A978E6
:104B00000278914207D0A9780170DFF84408006864
:104B1000DFF840180860A878082812D1DFF8346858
:104B20004FF4FA613068FFF7EBFB012809D1DFF899
:104B3000200800683060062215F10801A81CFFF764
:104B400087FC2100C9B2DFF8EC07FEF732FE012036
:104B500070BD10B50400DFF80018DFF80008006928
:104B6000FFF7CEFB012827D1DFF8F40701780129F0
:104B700005D1002101700020DFF8BC178870DFF834
:104B8000E4070188491C018042F21071DFF8A42774
:104B90002300DBB21B011A449268B1FBF2F10288D8
:104BA0008A420DD300210180DFF88C178878002815
:104BB00006D00020887003E00120DFF8A4170870F9
:104BC0002100C9B2DFF86C07FEF7F3FD012010BD2C
:104BD00038B5040003F0A0FCDFF88057287A0128DC
:104BE00008D10521DFF84C07FEF7D4FDDFF8600798
:104BF000006828612100C9B2DFF83807FEF7D9FD47
:104C0000012032BD10B5040003F06CFCDFF84C0746
:104C10000021017000210172012010BD10B50400B7
:104C200000224FF40051DFF8F806FEF7FEF90120EC
:104C300010BD10B5040001224FF40051DFF8E0066A
:104C4000FEF7F3F9DFF8EC06210089B28166062150
:104C5000FEF7AFFD10BD38B5DFF8CC46DFF808072A
:104C600001786170DFF80417407851F82000606027
:104C7000207A04F06BFA00EE100ADFF8F456B8EE72
:104C8000400AD5ED010A20EE200ABDEEC00A84EDEF
:104C9000030A607A04F05AFA00EE100AB8EE400AED
:104CA000D5ED020A20EE200ABDEEC00A84ED040A0A
:104CB000207A04F04BFA00EE100AB8EE400AD5ED67
:104CC000030A20EE200ABDEEC00A84ED050A607AD0
:104CD00004F03CFA00EE100AB8EE400AD5ED040AE2
:104CE00020EE200ABDEEC00A84ED060A207A04F008
:104CF0002DFA00EE100AB8EE400AD5ED050A20EEB6
:104D0000200ABDEEC00A84ED070A607A04F01EFA9C
:104D100000EE100AB8EE400AD5ED060A20EE200A91
:104D2000BDEEC00A84ED080A31BD2DE9F84F8AB006
:104D300006002021002202AC2000FFF725F9002404
:104D4000002500208DF8050000208DF806001827AA
:104D5000DFF8D0853000C0B27843404490F8159019
:104D60003000C0B2784340444068002842D001215E
:104D70003000C0B200F0A9F900280ED13000C0B256
:104D80007843404442683000C0B278434044017DDB
:104D90004846C0B203F04EFA1EE05FF0000A300051
:104DA000C0B278434044406802F0D8FA5146C9B2D4
:104DB000814207D2202002A95246D2B288541AF169
:104DC000010AECE702AA3000C0B278434044017DFA
:104DD0004846C0B203F02EFA3000C0B278434044D7
:104DE000406802F0BBFADFF88C150979491C48438A
:104DF00010FA89F93000C0B2784340448068002836
:104E000000F03A813000C0B278434044007B002873
:104E10000BD002281ED012D3042830D024D3062869
:104E200045D036D307283ED044E03000C0B27843A6
:104E3000404480680078002104000D003AE0300012
:104E4000C0B278434044806890F90000C117040064
:104E50000D002FE03000C0B27843404480680088E5
:104E6000002104000D0025E03000C0B2784340442A
:104E70008068B0F90000C11704000D001AE030008E
:104E8000C0B27843404480680068002104000D00EF
:104E900010E03000C0B27843404480680068C11719
:104EA00004000D0006E001208DF8050002E002205C
:104EB0008DF805009DF8050000280CD13000C0B227
:104EC00078434044407B40420200D2B202A9200015
:104ED000FFF72EFA26E09DF8050001281AD13000D0
:104EE000C0B278434044806802F038FA202819D2D2
:104EF0003000C0B278434044806802F02FFA0200CC
:104F000092B23000C0B278434044816802A8FFF7F3
:104F10009FFA07E03000C0B27843404480680078D0
:104F20008DF8080002213000C0B200F0CEF8012850
:104F300023D13000C0B278434044807DC0B2000924
:104F40008DF806009DF806000F2805D0202002A944
:104F50009DF80620885410E05FF0000A02A802F0D5
:104F6000FDF95146C9B2814207D2202002A952461A
:104F7000D2B288541AF1010AF0E73000C0B2012819
:104F80005ED15FF0000A00208DF804003000C0B24E
:104F900078434044407B002802D009208DF804006B
:104FA000392000902E2315220F21DFF8CC0304F0C6
:104FB000D3FA02A802F0D2F98346DFF8B8030079E9
:104FC000401C00FB0BFB5846C0B2022190FBF1F0E5
:104FD0001F280BDA5846C0B2022190FBF1F0D0F145
:104FE00040009DF8041050FA81FA07E05846C0B21C
:104FF000D0F15F009DF8041050FA81FA02AA300047
:10500000C0B278434044007D401CC0B2DFF8641356
:105010004979D1EBC001491EC9B25046C0B204F073
:1050200045FC5AFA8BF09DF80490B0EB09098920F1
:105030000090202307220521C04802F0E1FF1BE079
:1050400089200090202307220521BC4802F0D8FFC8
:1050500002AA3000C0B278434044017D4846C0B245
:1050600003F0E8F802A802F079F9C2490979491C6D
:10507000484310FA89F081463000C0B2784340447A
:10508000006900281ED03000C0B2784340448068D8
:10509000002817D03000C0B2784340448068B74938
:1050A00088420FD03000C0B27843404402693000DB
:1050B000C0B207FB00F708EB0700017D4846C0B20D
:1050C00003F0B8F80BB0BDE8F08FF8B504000D00A0
:1050D00094492200D2B21820424301EB0200817DA4
:1050E0002800C0B201402800C0B281422FD17826EA
:1050F000A34F4FF496712800C0B270433844220089
:10510000D2B250F82200FFF7FBF801282AD128007C
:10511000C0B206FB00F607EB06002100C9B28C4ABC
:10512000126840F821201E2096492A00D2B242433C
:105130000A442300DBB22E00F6B200FB06F008445E
:105140002100C9B2405CD0F10100D0540AE08D4981
:105150002A00D2B21E20424301EB02002100C9B254
:10516000002242548749EDB21E20454301EB050061
:10517000E4B2005DF2BD70B50400002603F0EAF869
:1051800000F077F82000C0B200F07DF82000C0B237
:1051900000F093F80025280080B21E2811DA61493A
:1051A0002A0092B21820424301EB0200C07D210088
:1051B000C9B2884203D12800C0B2FFF7B6FD6D1C0A
:1051C000E9E703F036F970BDF0B44271C4780379B1
:1051D0002500EDB2AB420AD3F025524E2700FFB2B4
:1051E00018235F4306EB07039D75641CEFE7182344
:1051F0004C4C85785D4325444679AE75002904D032
:10520000857803FB05F323449960F0BC70472DE9D2
:10521000F84F0700884691469A460A9E0B9DDDF896
:1052200030B00D9C87F8008087F8019087F802A0C5
:10523000FE703D712200D2B259463800FFF7C4FF1C
:10524000BDE8F18F10B4010000221000C0B20428A4
:105250000CD21000C0B2085C4B4B1400E4B21B5DD2
:10526000984201D0002002E0521CEEE7012010BC61
:10527000704780B50120009008237F22082100207C
:1052800004F098FB01BD10B504002000C0B2002856
:1052900012D137480078002807D11FA2214890F882
:1052A0004410782002F0C6FF06E01CA21D4890F8CA
:1052B0004410782002F0BEFF10BD0100C9B20729DA
:1052C00024D119490978002906D002290ED008D323
:1052D000042915D00FD318E02C49124AC2F8A8129D
:1052E00018E02B490F4AC2F8A81213E029490D4AC9
:1052F000C2F8A8120EE028490A4AC2F8A81209E02A
:105300002649084AC2F8A81204E003E01F49054AEA
:10531000C2F8A81270470000200000004E000000F4
:1053200000080048FC0000207C00002064040020ED
:10533000A00000200C00002094250020F8D20008D6
:105340001F2600202CDC000894D80008202600200E
:1053500000260020D8250020C02709004C25002069
:105360002126002012260020400A0020D804002018
:1053700014250020A4250020D0D00008420A0020D7
:10538000F81C002040230020A8000020AC000020D2
:10539000BC000020CC000020DC000020EC0000203D
:1053A00010B504000121DFF8C40CFEF702FA012059
:1053B00010BD30B587B004001421002202AD2800D2
:1053C000FEF7E2FDDFF8F40AD0E90023CDE900237F
:1053D00002A80090DFF8E85A2978684600F058F9EA
:1053E00028786870BDF80410009800F042FC002096
:1053F0002870DFF8785C02212800FEF7CBF9032142
:105400002800FEF7D6F92100C9B22800FEF7D1F92D
:10541000012007B030BD10B50400DFF8F41A888809
:10542000002810D0DFF8EC0A02888B889A4208D155
:10543000002101800321DFF8340CFEF7ABF90120D5
:1054400008E0898801802100C9B2DFF8200CFEF74E
:10545000B0F9012010BD2DE9F0410400002500261F
:10546000DFF8AC7AB88803283DDB3868B98808448F
:1054700010F8010C3968BA88114411F8021C51EA7D
:1054800000210E00B988891E386804F02DFB050044
:105490002800310080B289B288421DD10721DFF88F
:1054A000CC0BFEF786F93868007803280DD1DFF8B9
:1054B000108A012198F8010000F003F998F8012002
:1054C000D7E9000100F0EDF813E00021DFF8F00962
:1054D000407800F0F6F80CE00021DFF8E4094078AD
:1054E00000F0EFF805E00021DFF8D409407800F083
:1054F000E8F8DFF8CC09407800F062F80221DFF824
:105500006C0BFEF768F90120BDE8F0810100DFF8BF
:10551000800C0278032A01D0042202700120704717
:1055200001000120704710B504002100C9B2DFF866
:105530003C0BFEF73EF9012010BD38B50400DFF842
:10554000881A087800281FD101200870DFF87C5ADB
:10555000012210212800FDF768FD00220821280003
:10556000FDF763FD00220421DFF8640AFDF75DFD0D
:105570004FF4FA60DFF8F41A8867FBF725FEFEF7B0
:10558000E6F8FEF7D5F812E00020087001220821A5
:10559000DFF8380AFDF749FD01220421DFF8300A5F
:1055A000FDF743FD4EF66020DFF8C01A8867210042
:1055B000C9B2DFF8B80AFEF7FCF8012032BD0000DE
:1055C00038B52DED028B04009FEDB38A2000C0B2E8
:1055D000002842D1DFF8445C95ED010ADFEDAF0A07
:1055E00020EE200ABDEEC00A10EE100A00F0DCF931
:1055F00085ED010A95ED010A00F044FA85ED030AF4
:1056000095ED020A00F09EFA85ED040A95ED040A74
:10561000D5ED060A30EE200A85ED040A95ED030A61
:10562000D5ED050A30EE200AB0EE408A9FEDB60AAD
:10563000B4EE408AF1EE10FA02DBB2EE0C0A09E099
:10564000B5EE408AF1EE10FA02D59FED930A01E023
:10565000B0EE480A85ED030AFFE7DFF8C05B287863
:10566000002807D10020686095ED010A00F00AFAD1
:1056700085ED030A2878002807D10020A86095ED61
:10568000020A00F05FFA85ED040ABDEC028B31BD21
:1056900038B504000D002900C9B2200000F01BF845
:1056A00031BD70B504000D00160020000078C0B2B6
:1056B000032805D13200D2B22000290000F078F88A
:1056C00070BD38B504000D002900C9B22000C0B279
:1056D00000F0E6F831BD3EB504000D002800C0B270
:1056E000002806D0022822D00CD3042849D033D376
:1056F0005CE004200090002303220321200004F03A
:1057000011FA53E0DFF81C0B818802290ED10168E1
:1057100001918088022190FBF1F080B200904FF45B
:10572000805306220321200004F04AFA3EE0DFF80D
:10573000F40A818802290ED1016801918088022132
:1057400090FBF1F080B2009041F2040306220321A5
:10575000200004F035FA29E0DFF8C80A8188022920
:105760000ED1016801918088022190FBF1F080B296
:10577000009041F2020306220321200004F020FAE7
:1057800014E0DFF8A00A818802290ED10168019196
:105790008088022190FBF1F080B2009042F2200359
:1057A00006220321200004F00BFAFFE737BD0000BA
:1057B0002DE9F84F2DED028B82B004000D009146CB
:1057C0000020ADF800009FED348A00264846C0B2A4
:1057D000002803D0401E032856D958E00320ADF816
:1057E000000002226946200000F010FA08EE900A3C
:1057F00002226946200000F009FA8046DFF81C7A90
:10580000B8EE680A10EE100A01F048FF82468B4697
:10581000404601F035FF41EC110B9FEDD20B01F03A
:10582000CEFD53EC102B5046594601F0D1FD01F04E
:10583000F3FE786002226946200000F0E7F900EEEE
:10584000100AB0EE408A02226946200000F0DEF91C
:105850000600B8EE480A10EE100A01F01FFF82465B
:105860008B46300001F00CFF41EC110B9FEDBD0B9E
:1058700001F0A5FD53EC102B5046594601F0A8FD50
:1058800001F0CAFEB86002E000F05DF9FFE702B087
:10589000BDEC028BBDE8F18F000000000000C842A3
:1058A0000200D2B2002A042A1BD80A00D2B2012A6E
:1058B0000ED1DFF868290023537001231370020012
:1058C000D2B2002A0CD10122DFF85C39DA7007E08D
:1058D000DFF848295378032B02DA53785B1C5370A6
:1058E000FFE7DFF838395A78002A0CD05A78032AB3
:1058F00009DB00221A7000225A6000229A600022FE
:10590000DFF82439DA707047010060412DE9F04179
:1059100000242500EDB20A2D43DA00252E00F6B250
:10592000092E3CDA2E00F6B201EB860676682F00CF
:10593000FFB251F82770BE422FDA00262F00FFB2C7
:1059400051F82770AC465FFA8CFC01EB8C0CDCF84C
:1059500004C0AE465FFA8EFE41F82EC0AC465FFA38
:105960008CFC01EB8C0CCCF80470AC465FFA8CFC20
:1059700050F82CC0AE465FFA8EFE00EB8E0EDEF8BD
:1059800004E0A8465FFA88F840F828E0AE465FFADF
:105990008EFE00EB8E0ECEF804C06D1CBEE7641CBC
:1059A000B7E7BDE8F081000038B52DED028B0400AB
:1059B0009FED958ADFF87418087800282AD1012015
:1059C000087000210800C0B20A2815DA0800C0B229
:1059D000DFF85C280B00DBB242F82300DFF8542824
:1059E0000800C0B252F82000002803D10800C0B25D
:1059F00042F82040491CE5E7DFF838580923002227
:105A00002900DFF82C08FFF781FF95ED050AB8EEB5
:105A1000C00A30E000200100C9B20A291EDADFF80E
:105A200010180200D2B251F82220092A0BD100220C
:105A30000300DBB241F82320DFF8F8170200D2B2EE
:105A400041F8224008E00200D2B251F82220521C54
:105A50000300DBB241F82320401CDCE7DFF8D45719
:105A6000092300222900DFF8C807FFF74FFF95ED53
:105A7000050AB8EEC00ADFEDBD0A80EE200ABDECD3
:105A8000028B31BDF0EE400A9FEDB91A9FEDB93A95
:105A9000DFED5D3AF5EE400AF1EE10FA40D0F0EE9F
:105AA000603A9FEDB50ADFF8900790ED004A34EEBA
:105AB000634AB4EE404AF1EE10FA08DA90ED004A7B
:105AC00033EEC44AB4EE404AF1EE10FA03DB9FED28
:105AD000AB0A21EE001ADFF8640790ED000AF0EE41
