:020000040800F2
:10000000F02C0020E9F2000825EC000827EC00089D
:1000100029EC00082BEC00082DEC00080000000083
:100020000000000000000000000000002FEC0008AD
:1000300031EC00080000000033EC000835EC00084B
:1000400021F6000825F6000829F600082DF600081C
:1000500031F6000835F6000839F600083DF60008CC
:1000600041F6000845F6000849F600084DF600087C
:1000700051F6000885EC000855F600088FEC0008E2
:1000800059F600085DF6000861F6000865F60008FC
:1000900069F600086DF6000871F6000875F60008AC
:1000A00079F600087DF6000881F6000885F600085C
:1000B00089F6000800000000000000008DF600082E
:1000C00091F6000895F6000899F600089DF60008DC
:1000D000A1F6000899EC0008A5F60008A3EC0008BA
:1000E000A9F60008ADEC00080000000000000000C8
:1000F0000000000000000000000000000000000000
:1001000000000000ADF6000800000000B1F6000895
:100110000000000000000000B5F60008B9F6000875
:10012000BDF60008C1F60008C5F60008C9F60008CB
:10013000CDF60008000000000000000000000000F4
:10014000D1F60008D5F60008D9F60008DDF600085B
:10015000E1F60008B7EC0008C1EC0008E5F600087D
:10016000E9F60008EDF60008F1F6000800000000CE
:10017000F5F60008F9F60008FDF60008000000009A
:1001800001F7000805F7000809F7000880B5DFF857
:10019000B80C0078012806D0022807D0042808D01F
:1001A000082809D00BE000F09DF808E000F05CFEA4
:1001B00005E000F0EDFF02E001F07AF9FFE701BD94
:1001C0002DE9F0470024DFF8845C2888002804D05B
:1001D0002888401E2880002082E0DFF86C6C307A8E
:1001E00000287CD12021DFF8680C01F0D3FD002825
:1001F00001D1012700E00027DFF8588C0421404698
:1002000001F0C8FD002802D15FF0010901E05FF0B4
:1002100000090221404601F0BDFD002802D15FF037
:10022000010A01E05FF0000A0121404601F0B2FD41
:10023000002801D1012000E0002057EA490757EAD1
:100240008A073C0054EAC0042000C0B2012805D04F
:10025000022803D0042801D0082836D17068401C39
:100260007060706850282FD3347001203072DFF82E
:10027000E81B0868142801D219202880DFF8DC0B5D
:1002800022000378D2B29A4219D10A68521C0A603D
:100290000A681E2A02D20021716014E00A68B42A9A
:1002A00002D2412171600EE00A68F02A02D2462192
:1002B000716008E04E227260F0220A6003E00022C2
:1002C000726000220A60047009E00020DFF88C1BD5
:1002D0000870282070600020DFF87C1B08603078F0
:1002E000BDE8F087F8B584B0DFF8744BA07800283B
:1002F00017D001283AD002286AD0032800F0FB80EA
:10030000042800F07F81052800F0FF81062800F016
:100310008382072800F04E83092800F0588400F0FB
:1003200091BDDFF8245B0020E860DFF8386B0A221B
:100330000021300001F0B4FD3020307030207070AA
:100340003020B0703020F070E8680001801CC0B22E
:1003500003900296052001900420009005230022BE
:100360000121A01C02F084FB00F06CBDDFF8D80A6C
:10037000C168491CC160C16804291EDBDFF8E40ABA
:1003800002F091FB012815D1A51C0622290014F1C9
:10039000080001F0D3FDF1200390002002900C2012
:1003A000019007200090072300220221280002F07C
:1003B0005FFB0BE00020A07008E0C0680001801C1B
:1003C0000200D2B20021A01C02F02FFB00F03ABDC7
:1003D000207907280AD0C0F08C80092832D01BD39E
:1003E0000B285BD044D30C286ED082E0A51C0622DB
:1003F000290014F1080001F0A1FDF1200390002074
:1004000002900F2001900E2000900E230022032165
:10041000280002F02DFB6CE0A51C0622290014F137
:10042000080001F08BFDF1200390002002901520C0
:10043000019012200090122300220421280002F0D3
:1004400017FB56E0A51C0622290014F1080001F054
:1004500075FDF120039000200290182001901720D4
:100460000090172300220521280002F001FB40E044
:10047000A51C0622290014F1080001F05FFDF120FF
:100480000390002002901C2001901A2000901A2353
:1004900000220621280002F0EBFA2AE0A51C062221
:1004A000290014F1080001F049FDF120039000201B
:1004B0000290212001901E2000901E23002207217F
:1004C000280002F0D5FA14E0A51C0622290014F138
:1004D000080001F033FD002003900020029024204A
:1004E000019024200090242300220821280002F0FB
:1004F000BFFA00F0A7BC20790E2802D00F2840D008
:100500007EE0E078002802D001281FD038E0A61C49
:100510000622310014F1080001F010FDDFF828591F
:10052000F220039015F10C0002900F2001900E2094
:1005300000900E23E278521CD2B20321300002F068
:1005400097FADFF8400C4078E86019E0A51C062215
:10055000290014F1080001F0F1FCF02003900020C4
:1005600002902720019027200090272300220921B4
:10057000280002F07DFA0120DFF8081C0870FFE770
:100580003EE0E078002802D001281FD038E0A61C09
:100590000622310014F1080001F0D0FCDFF8A85861
:1005A000F220039015F10C0002900F2001900F2013
:1005B00000900F23E278521CD2B20321300002F0E7
:1005C00057FADFF8C00B4068E86019E0A51C062266
:1005D000290014F1080001F0B1FCF0200390002084
:1005E0000290272001902720009027230022092134
:1005F000280002F03DFA0120DFF8881B0870FFE7B1
:1006000000F020BC2079122806D07DD314283FD0DA
:1006100020D315285AD077E0A51C0622290014F112
:10062000080001F08BFCF0200390002002902720AE
:10063000019027200090272300220921280002F0A2
:1006400017FADFF8441B002008800222012002F084
:1006500065FF59E0A51C0622290014F1080001F0ED
:100660006DFCF020039000200290272001902720AD
:100670000090272300220921280002F0F9F9DFF871
:10068000081B002008800222022002F047FF3BE006
:10069000A51C0622290014F1080001F04FFCF020EF
:1006A000039000200290272001902720009027230C
:1006B00000220921280002F0DBF9DFF8CC1A002023
:1006C00008800222032002F029FF1DE0A51C06225B
:1006D000290014F1080001F031FCF0200390002003
:1006E0000290272001902720009027230022092133
:1006F000280002F0BDF9DFF8901A002008800222DD
:10070000042002F00BFFFFE79CE32079172802D0BA
:10071000182840D07FE0E078002802D001281FD0C0
:1007200038E0A61C0622310014F1080001F006FC96
:10073000DFF81457F220039015F10C0002901820F6
:100740000190172000901723E278521CD2B20521A5
:10075000300002F08DF9DFF82C0AC069E86019E07A
:10076000A51C0622290014F1080001F0E7FBF02087
:10077000039000200290272001902720009027233B
:1007800000220921280002F073F90120DFF8F41992
:100790000870FFE73FE0E078002802D001281FD072
:1007A00038E0A61C0622310014F1080001F0C6FB57
:1007B000DFF89456F220039015F10C0002901820F7
:1007C0000190172000901823E278521CD2B2052124
:1007D000300002F04DF9DFF8AC09006AE86019E07A
:1007E000A51C0622290014F1080001F0A7FBF02047
:1007F00003900020029027200190272000902723BB
:1008000000220921280002F033F90120DFF87419D1
:100810000870FFE7FFE715E320791A2806D0C0F03B
:10082000C8801C2800F0858043D3C2E0E07800280F
:1008300002D0012822D03BE0A71C0622390014F187
:10084000080001F07BFBDFF8005615F10C06F220E2
:10085000039002961C2001901A2000901A23E2783F
:10086000521CD2B20621380002F002F9DFF81C094E
:100870000078E860DFF80C09C66219E0A51C0622C2
:10088000290014F1080001F059FBF020039000202A
:100890000290272001902720009027230022092181
:1008A000280002F0E5F80120DFF8D8180870FFE70B
:1008B0007FE0E078002802D001281FD038E0A61C95
:1008C0000622310014F1080001F038FBDFF87855FA
:1008D000F220039015F10C0002901C2001901A20C8
:1008E00000901B23E278521CD2B20621300002F0A5
:1008F000BFF8DFF89008406AE86019E0A51C0622FE
:10090000290014F1080001F019FBF02003900020E9
:100910000290272001902720009027230022092100
:10092000280002F0A5F80120DFF858180870FFE74A
:100930003FE0E078002802D001281FD038E0A61C54
:100940000622310014F1080001F0F8FADFF8F8543B
:10095000F220039015F10C0002901C2001901A2047
:1009600000901C23E278521CD2B20621300002F023
:100970007FF8DFF81008806AE86019E0A51C0622FD
:10098000290014F1080001F0D9FAF02003900020AA
:100990000290272001902720009027230022092180
:1009A000280002F065F80120DFF8D8170870FFE78B
:1009B000FFE747E220791E2809D0C0F007812028F0
:1009C00000F0858043D3212800F0C180FEE0E0786C
:1009D000002802D001281FD038E0A61C06223100D2
:1009E00014F1080001F0AAFADFF85C54F220039039
:1009F00015F10C000290212001901E2000901E2372
:100A0000E278521CD2B20721300002F031F8DFF850
:100A10007407006BE86019E0A51C0622290014F198
:100A2000080001F08BFAF0200390002002902720AC
:100A3000019027200090272300220921280002F09E
:100A400017F80120DFF83C170870FFE7BEE0E078F8
:100A5000002802D001281FD038E0A61C0622310051
:100A600014F1080001F06AFADFF8DC53F220039079
:100A700015F10C000290212001901E2000901F23F0
:100A8000E278521CD2B20721300001F0F1FFDFF80A
:100A9000F406406BE86019E0A51C0622290014F159
:100AA000080001F04BFAF02003900020029027206C
:100AB000019027200090272300220921280001F01F
:100AC000D7FF0120DFF8BC160870FFE77EE0E07872
:100AD000002802D001281FD038E0A61C06223100D1
:100AE00014F1080001F02AFADFF85C53F2200390B9
:100AF00015F10C000290212001901E20009020236F
:100B0000E278521CD2B20721300001F0B1FFDFF8C9
:100B10007406806BE86019E0A51C0622290014F118
:100B2000080001F00BFAF02003900020029027202B
:100B3000019027200090272300220921280001F09E
:100B400097FF0120DFF83C160870FFE73EE0E078F1
:100B5000002802D001281ED037E0A61C0622310052
:100B600014F1080001F0EAF9B74DF220039015F1F5
:100B70000C000290212001901E2000902123E27899
:100B8000521CD2B20721300001F072FFDFF8F405E9
:100B9000C06BE86019E0A51C0622290014F10800CA
:100BA00001F0CCF9F0200390002002902720019062
:100BB00027200090272300220921280001F058FF58
:100BC0000120DFF8C0150870FFE7FFE73AE1207A5F
:100BD00003280AD0C0F03581052839D0C0F02E8115
:100BE000072800F0B5806BD32BE1322001F0EAFB3F
:100BF0000320DFF890150870A07A0E2802D00F2885
:100C000009D024E0DFF88C0841788F48C068C0B272
:100C100003F055FD1BE000200100C9B20B290FDADB
:100C2000DFF874180200D2B251F82210864AD26856
:100C3000914203D1DFF85C18487001E0401CEBE7FB
:100C4000DFF850084178007803F039FDFFE7F8E05D
:100C5000DFF8305503202870322001F0B3FBA07A72
:100C6000172802D0182815D029E0287A03F03CFF75
:100C700000EE100ADFF82408D0ED060A724890ED65
:100C8000031AB8EEC11AB8EE400A81EE000A02F06B
:100C9000D6FC14E0687A03F027FF00EE100A6A48D9
:100CA000D0ED030AF8EEE00AB8EE400AC0EE800A82
:100CB000DFF8E80790ED050A02F0C1FCFFE7C0E0AD
:100CC000DFF8C05403202870322001F07BFBA07AAB
:100CD0001A2804D03BD31C2823D00CD337E0DFF8EC
:100CE000AC04D0ED020A90ED010A5748C068C0B2CA
:100CF00002F05AFD2BE0A87A03F0F6FE00EE100A8F
:100D0000DFF888045049D1ED030AF8EEE00AB8EEA6
:100D1000400AC0EE800A90ED010A007802F044FD1E
:100D200015E0A87A03F0E0FE00EE100ADFF85C049C
:100D3000D0ED020A444991ED031AB8EEC11AB8EE9B
:100D4000400A81EE000A007802F02EFDFFE778E00D
:100D5000DFF8305403202870322001F033FBA07AF2
:100D60001E2806D069D3202835D01BD321284BD08C
:100D700063E0E87A03F0B8FE00EE100ADFF820071F
:100D8000D0ED031A90ED021AD0ED010A2E4890ED35
:100D9000032AB8EEC22AB8EE400A82EE000A02F038
:100DA000CBFD4AE0E87A03F09FFE00EE100ADFF880
:100DB000F006D0ED031A90ED021A2349D1ED030A93
:100DC000F8EEE00AB8EE400AC0EE800A90ED000AA4
:100DD00002F0B2FD31E0E87A03F086FE00EE100A80
:100DE000DFF8BC06D0ED031A1749D1ED030AF8EE7F
:100DF000E00AB8EE400A80EE801AD0ED010A90EDCC
:100E0000000A02F099FD18E0E87A03F06DFE00EEAA
:100E1000100ADFF88C060C49D1ED030AF8EEE00A5F
:100E2000B8EE400AC0EE801A90ED021AD0ED010A29
:100E300090ED000A02F080FDFFE702E002F05EFBA9
:100E4000FFE7FFE705B0F0BDF8270020CC28002021
:100E5000000800480004004884280020DC28002006
:100E6000402800200000002010B5DFF838369878C0
:100E700000280DD002281DD00BD3042875D026D30E
:100E8000062800F0B2807DD3072800F0068177E1C4
:100E900076E1DFF81406DFF81416CA68825C521C8B
:100EA000CB68C254CA68825C3A2A02DB3022C96825
:100EB000425465E158791979884202D21879401E66
:100EC0001871F1220021981C01F0AFFD58E1D8788B
:100ED00000280CD158791979884202D21879401E1D
:100EE0001871F1220021981C01F09FFD3CE0187957
:100EF0000E2802D00F2812D036E0D878002802D071
:100F0000012801D00AE009E0DFF8A005C168B1F5C9
:100F1000807F02DAC168491CC160FFE724E0D8780D
:100F2000002802D0012801D01EE01DE000210800A9
:100F3000C0B20B2817DADFF86025DFF870050B0068
:100F4000DBB252F82330C468A3420AD10B00DBB2F3
:100F50000A2B06DA0B00DBB202EB83025268C26096
:100F600001E0491CE3E7FFE70AE158791979884273
:100F700002D21879401E1871F1220021981C01F04C
:100F800054FDFDE0D87800280CD1587919798842B1
:100F900002D21879401E1871F1220021981C01F02C
:100FA00044FD21E01879172802D018280ED01BE044
:100FB000D878002802D0012801D006E005E0DFF84B
:100FC000EC04C168491CC160FFE70DE0D878002837
:100FD00002D0012801D006E005E0DFF8D004C168A6
:100FE000491CC160FFE7FFE7CAE0D87800280CD1B0
:100FF00058791979884202D21879401E1871F12265
:101000000021981C01F011FD46E018791A2804D03F
:1010100042D31C282CD013D33EE0D878002802D02D
:10102000012801D00BE00AE0DFF88014C86800282E
:1010300002D10120C86001E00020C860FFE72BE07A
:10104000D878002802D0012801D010E00FE0DFF8A6
:10105000E809807A03F048FDDFF85024D3680E21B8
:101060004843834202D2D068401CD060FFE713E0BF
:10107000D878002802D0012801D00CE00BE0DFF87E
:101080002C04C168DFF8B029526A914202DAC168C3
:10109000491CC160FFE7FFE772E0D87800280CD157
:1010A00058791979884202D21879401E1871F122B4
:1010B0000021981C01F0B9FC61E018791E2806D0C7
:1010C0005DD320282FD01AD3212844D057E0D878D8
:1010D000002802D0012801D010E00FE0DFF8580905
:1010E000C07A03F001FDDFF8C423D3680E21484322
:1010F000834202D2D068401CD060FFE73FE0D8783E
:10110000002802D0012801D00CE00BE0DFF89C039E
:10111000C168DFF82429126B914202DAC168491CC8
:10112000C160FFE72BE0D878002802D0012801D069
:1011300010E00FE0DFF80009C07A03F0D5FCDFF81B
:101140006C23D36850214843834202D2D068401CAC
:10115000D060FFE713E0D878002802D0012801D042
:101160000CE00BE0DFF84403C168DFF8CC28926B99
:10117000914202DAC168491CC160FFE7FFE7FFE75F
:1011800010BD00007C000020CE2800206C2800202C
:1011900010B5DFF81033987800280DD002281DD044
:1011A0000BD3042872D026D3062800F0AD807AD362
:1011B000072800F0FE806BE16AE1DFF8EC02DFF85F
:1011C000EC12CA68825C521ECB68C254CA68825C48
:1011D000302A02DA3922C968425459E118799979DA
:1011E000884202D21879401C1871F1220021981C03
:1011F00001F01BFC4CE1D87800280CD118799979C2
:10120000884202D21879401C1871F1220021981CE2
:1012100001F00BFC39E018790E2802D00F2810D00D
:1012200033E0D878002802D0012801D008E007E098
:101230009E48C168012902DBC168491EC160FFE701
:1012400023E0D878002802D0012801D01DE01CE05E
:101250000A221000C0B2002816D08F4B934910000C
:10126000C0B253F82000CC68A0420BD11000C0B22D
:10127000002807D01000C0B203EB800050F8040C27
:10128000C86001E0521EE4E7FFE701E118799979AF
:10129000884202D21879401C1871F1220021981C52
:1012A00001F0C3FBF4E0D87800280CD118799979C3
:1012B000884202D21879401C1871F1220021981C32
:1012C00001F0B3FB1FE01879172802D018280DD0C1
:1012D00019E0D878002802D0012801D005E004E008
:1012E0007248C168491EC160FFE70CE0D878002849
:1012F00002D0012801D005E004E06C48C168491E15
:10130000C160FFE7FFE7C3E0D87800280CD1187967
:101310009979884202D21879401C1871F122002173
:10132000981C01F082FB43E018791A2804D03FD3BF
:101330001C2826D012D33BE0D878002802D0012800
:1013400001D00AE009E05949C868002802D101200B
:10135000C86001E00020C860FFE729E0D8780028D5
:1013600002D0012801D00BE00AE05048DFF8C8168F
:10137000896AC268914202DAC168491EC160FFE70A
:1013800016E0D878002802D0012801D00FE00EE046
:10139000DFF8A406807A03F0A7FB444A0021484303
:1013A000D168884202D2D068401ED060FFE7FFE7D4
:1013B0006EE0D87800280CD118799979884202D249
:1013C0001879401C1871F1220021981C01F02DFBA6
:1013D0005DE018791E2806D059D320282DD015D3CA
:1013E00021283DD053E0D878002802D0012801D030
:1013F0000BE00AE02D48DFF84016496BC2689142C5
:1014000002DAC168491EC160FFE740E0D8780028D1
:1014100002D0012801D00FE00EE0DFF81C06C07AF0
:1014200003F062FB214A00214843D168884202D27E
:10143000D068401ED060FFE729E0D878002802D0AD
:10144000012801D00BE00AE01848DFF8EC15C96B61
:10145000C268914202DAC168491EC160FFE716E026
:10146000D878002802D0012801D00FE00EE0DFF884
:10147000C805C07A03F038FB0C4A00214843D16804
:10148000884202D2D068401ED060FFE7FFE7FFE746
:1014900010BD0000440C0020CC060020BC2700201A
:1014A000502800204028002000000020F8270020BD
:1014B0007FB5DFF88845A078002814D0022816D020
:1014C00012D3042800F0898014D3062800F0138179
:1014D000C0F09E80082800F09A82C0F0B7810928E9
:1014E00000F09C82A7E2A6E20020A070A3E2002008
:1014F000A070A0E220790E2802D00F2836D06BE031
:10150000E078002802D0012816D02EE0A51CF1209A
:101510000390002002900C200190072000900723E8
:1015200000220221280001F0A3FA0622290014F16A
:10153000080000F003FD18E0A51C0622290014F1A4
:10154000080000F0FBFCF1200390DFF8F4040290A7
:101550000F2001900E2000900E23E078421ED2B2A0
:101560000321280001F084FAFFE735E0E078002845
:1015700002D0012816D02EE0A51CF12003900020F7
:1015800002900C20019007200090072300220221E6
:10159000280001F06DFA0622290014F1080000F07D
:1015A000CDFC18E0A51C0622290014F1080000F06B
:1015B000C5FCF1200390DFF88C0402900F2001900D
:1015C0000E2000900F23E078421ED2B203212800A3
:1015D00001F04EFAFFE7FFE72DE2207912380328E9
:1015E00015D8A51CF1200390002002900C2001903A
:1015F00007200090082300220221280001F038FA79
:101600000622290014F1080000F098FCFFE712E21E
:101610002079172802D0182836D06BE0E07800280F
:1016200002D0012816D02EE0A51CF1200390002046
:1016300002900C2001900720009009230022022133
:10164000280001F015FA0622290014F1080000F024
:1016500075FC18E0A51C0622290014F1080000F012
:101660006DFCF1200390DFF8E00302901820019058
:10167000172000901723E078421ED2B205212800DF
:1016800001F0F6F9FFE735E0E078002802D0012804
:1016900016D02EE0A51CF1200390002002900C2013
:1016A000019007200090092300220221280001F068
:1016B000DFF90622290014F1080000F03FFC18E0D1
:1016C000A51C0622290014F1080000F037FCF120C7
:1016D0000390DFF878030290182001901720009003
:1016E0001823E078421ED2B20521280001F0C0F98B
:1016F000FFE7FFE79FE120791A2805D0C0F0A58019
:101700001C286DD037D3A0E0E078002802D0012853
:1017100016D02FE0A51CF1200390002002900C2091
:101720000190072000900A2300220221280001F0E6
:101730009FF90622290014F1080000F0FFFB19E0D0
:10174000A51C0622290014F1080000F0F7FBC04E8A
:10175000F120039002961C2001901A2000901A2379
:10176000E078421ED2B20621280001F081F9B24889
:10177000C662FFE769E0E078002802D0012816D0B1
:101780002DE0A51CF1200390002002900C20019078
:10179000072000900A2300220221280001F068F9A6
:1017A0000622290014F1080000F0C8FB17E0A51C70
:1017B0000622290014F1080000F0C0FBF12003907C
:1017C000A44802901C2001901A2000901B23E0786E
:1017D000421ED2B20621280001F04AF9FFE734E0A8
:1017E000E078002802D0012816D02DE0A51CF120B9
:1017F0000390002002900C200190072000900A2303
:1018000000220221280001F033F90622290014F1F8
:10181000080000F093FB17E0A51C0622290014F134
:10182000080000F08BFBF12003908B4802901C20F5
:1018300001901A2000901C23E078421ED2B20621AB
:10184000280001F015F9FFE7FFE7F4E020791E28F2
:1018500008D0C0F0DB8020286ED038D3212800F0DB
:10186000A080D3E0E078002802D0012816D02DE037
:10187000A51CF1200390002002900C20019007206D
:1018800000900B2300220221280001F0F1F806222B
:10189000290014F1080000F051FB17E0A51C0622F6
:1018A000290014F1080000F049FBF12003906B4877
:1018B0000290212001901E2000901E23E078421EFD
:1018C000D2B20721280001F0D3F8FFE79EE0E078CC
:1018D000002802D0012816D02DE0A51CF12003908D
:1018E000002002900C200190072000900B23002282
:1018F0000221280001F0BCF80622290014F108009A
:1019000000F01CFB17E0A51C0622290014F10800BA
:1019100000F014FBF1200390514802902120019027
:101920001E2000901F23E078421ED2B2072128001B
:1019300001F09EF8FFE769E0E078002802D0012876
:1019400016D02DE0A51CF1200390002002900C2061
:101950000190072000900B2300220221280001F0B3
:1019600087F80622290014F1080000F0E7FA17E0D2
:10197000A51C0622290014F1080000F0DFFAF1206E
:10198000039038480290212001901E2000902023CF
:10199000E078421ED2B20721280001F069F8FFE783
:1019A00034E0E078002802D0012816D02DE0A51CF4
:1019B000F1200390002002900C200190072000905D
:1019C0000B2300220221280001F052F806222900F0
:1019D00014F1080000F0B2FA17E0A51C0622290055
:1019E00014F1080000F0AAFAF12003901E480290BA
:1019F000212001901E2000902123E078421ED2B2C7
:101A00000721280001F034F8FFE7FFE713E0062282
:101A100014F10801A01C00F091FA0CE0064D2878A2
:101A2000022807D0062214F10801A01C00F086FA53
:101A300000202870FFE77FBD7C00002040280020A8
:101A40007D00002080000020980000209C000020E5
:101A50006C280020A0000020A4000020AC00002082
:101A6000B0000020B4000020B8000020F8B403004B
:101A700000250868E840002800F0D78001260F689C
:101A800016FA05F007403A00002A00F0CC800879E9
:101A900010F00300012804D0087910F00300022898
:101AA0001DD19F685FF0030C2800C0B240001CFAF3
:101AB00000FC37EA0C07D1F80CC02800C0B2400087
:101AC0001CFA00FC5CEA07079F605868AE40B04310
:101AD0004E68C6F30016AE40304304005C600879DF
:101AE00010F0030003280ED0DE6803272800C0B2E0
:101AF00040008740BE438F682800C0B24000874046
:101B00003E433400DC60087910F00300022818D14D
:101B10002800C00803EB8000066A0F2715F00700B5
:101B2000C0B280008740BE430F6915F00700C0B205
:101B3000800087403E4334002800C00803EB80004B
:101B400004621E6803272800C0B240008740BE43DD
:101B50000F7917F003072800C0B2400087403E43CA
:101B600034001C60486810F4403F5CD0954806681B
:101B700056F001060660006810F001000090009821
:101B8000914F2800800857F820605FF00F0C15F087
:101B90000300C0B280001CFA00FC36EA0C06B3F168
:101BA000904F01D1002414E08848834201D10124E0
:101BB0000FE08748834201D102240AE0854883422E
:101BC00001D1032405E08448834201D1042400E0CC
:101BD000072415F00300C0B280008440264328008B
:101BE000800847F820607D4C206890434F68FF02D2
:101BF00000D5104320607A4E346894434F68BF028A
:101C000000D514433460774E306890434F68BF036B
:101C100000D510433060744E346894434F68FF031E
:101C200000D5144334606D1C23E7F1BC70472DE9E7
:101C3000F041030000250800E840002800F0A880DB
:101C4000012616FA05F008400200002A00F09E80E6
:101C5000DFF874C1280080085CF820000F2715F019
:101C6000030E5FFA8EFE5FEA8E0E17FA0EFE1EEA74
:101C700000000400B3F1904F02D15FF0000E19E0B4
:101C80005248834202D15FF0010E13E05048834274
:101C900002D15FF0020E0DE04E48834202D15FF0A8
:101CA000030E07E04C48834202D15FF0040E01E0CE
:101CB0005FF0070E15F00300C0B280001EFA00FEB0
:101CC00074452CD14848D0F800E03EEA020EC0F836
:101CD00000E04448D0F800E03EEA020EC0F800E020
:101CE0003F48D0F800E03EEA020EC0F800E03B4872
:101CF000D0F800E03EEA020EC0F800E015F0030064
:101D0000C0B2800017FA00F00400280080085CF8D8
:101D10002000A043AE465FEA9E0E4CF82E005FF016
:101D2000030C1868AE465FFA8EFE5FEA4E0E1CFA90
:101D30000EFE5EEA000018602800C00803EB800E6B
:101D40002800C00803EB8000D0F8208015F00700C1
:101D5000C0B28000874038EA0707CEF82070986844
:101D60002F00FFB27F001CFA07F7B843986058684D
:101D7000AE4030EA06065E60DE682800C0B2400071
:101D80001CFA00FC36EA0C0CC3F80CC06D1C52E7C0
:101D9000BDE8F081020010690B009BB2184201D02F
:101DA000012000E00020C0B270471300DBB2002B1E
:101DB00003D00B009BB2836102E00B009BB28362F5
:101DC0007047000060100240080001400004004815
:101DD00000080048000C00480010004808040140BA
:101DE0000C040140040401400004014038B5040023
:101DF0000D00DFF8FC010168200000F006F8A842A1
:101E000001D3012000E0002032BD814204D25FF006
:101E1000FF32101A081800E0081A704738B52DED87
:101E2000048B08EE100A0C001500DFED438A280031
:101E3000C0B2FB2810DBB8EEC89A2800C0B24042FE
:101E4000C0B200F08BF829EE009A00212000B0EE1D
:101E5000490A00F0B1F80EE0B8EEC89A2800C0B206
:101E600000F07CF889EE009A2900C9B22000B0EE9B
:101E7000490A00F0A1F8BDEC048B31BD10B400217B
:101E80000A00838892B29A4206D2002203680C00AC
:101E9000A4B21A55491CF3E70022828010BC704797
:101EA00010B4040013005A1E9BB2002B02D0217004
:101EB000641CF7E710BC704770B504000D001600F5
:101EC000DFF8240100782100C9B2884209D3DFF885
:101ED00024211068002804D0310089B2280012683B
:101EE000904770BD38B504000D00280003F002F8DB
:101EF000020092B229002000C0B2FFF7DDFF31BD21
:101F000070B504000D00280002F0F4FF020092B248
:101F100029002000C0B2FFF7CFFFDFF8DC60306897
:101F2000002807D0280002F0E5FF010089B2280050
:101F30003268904770BD00000000000030B404001B
:101F40000D0013005A1E9BB2002B04D02B78237077
:101F50006D1C641CF5E730BC7047000010B5040030
:101F60002000C0B2FB2816DB2000C0B2D0F5807084
:101F700002F0F8FF41EC110B9FED200B03F00BF882
:101F800053EC102B0020194903F00EF803F030F940
:101F900000EE100A0FE02000C0B203F05DF941EC42
:101FA000110B9FED160B02F0F6FF51EC100B03F036
:101FB0001FF900EE100A10BD38B52DED028B82B06E
:101FC000B0EE408A04000D0018EE100A03F052F93A
:101FD000CDE900012A000B49200003F06FF902B09F
:101FE000BDEC028B31BD0000480C00200000F03F2A
:101FF000BC280020C4280020C028002000000000C9
:1020000000002440F8F5000880B500224FF400716C
:10201000DFF8640BFFF7C9FE00224FF400715FF098
:102020009040FFF7C2FE03F069F9DFF8500BDFF8CC
:10203000501BC162DFF84C1B421CC1F85821021D25
:10204000C1F8702110F114020A62027A81F8252089
:1020500010F118028A63427A81F83D2010F10C02D7
:10206000C1F8A021027A81F8A52110F11C02C1F863
:102070003022027A81F8352210F12002C1F848227C
:10208000427A81F84D2210F12402C1F89022827A1E
:1020900081F8952210F12802C1F8A822827A81F8ED
:1020A000AD2210F13002C1F8D822C27A81F8DD22C7
:1020B00010F13402C1F8F022C27A81F8F52210F151
:1020C0003802C1F80823C27A81F80D2310F13C02CE
:1020D000C1F82023C07A81F82503DFF8B40A00682C
:1020E000C1F86803DFF8AC0A0068C1F8980301BDC5
:1020F00038B5002000242000C0B2072835DADFF808
:10210000985A2000C0B200012844407801282AD102
:102110002000C0B200012844406800280ED003F01F
:1021200045F92100C9B2090129444968401A210032
:10213000C9B2090129448968884214D300202100CA
:10214000C9B209012944487003F030F92100C9B22D
:102150000901294448602000C0B22100C9B2090128
:102160002944C9688847641CC5E7002032BD38B5DA
:102170000400DFF8285A687800281FD100224FF4A5
:102180000071DFF8F409FFF710FE00224FF4007130
:102190005FF09040FFF709FE03F0B0F8892000904F
:1021A000202307220521DFF8F80903F005F90120B3
:1021B00068700221DFF8E00903F046FA012032BD21
:1021C0007CB50400DFF8DC592878002803D0022809
:1021D00023D003D33DE003F061FA3AE003F0D4FAF0
:1021E00089200090202307220521DFF8B40903F09D
:1021F000E3F8DFF8B42903212C2003F0F7F9DFF826
:10220000AC290421082003F0F1F903F01AFB41F294
:102210008830DFF8841988611BE00120DFF87C1921
:10222000487089200090202307220521DFF87009DB
:1022300003F0C2F8DFF860690221300003F004FA0D
:102240000321300003F000FA0421300003F0FCF910
:10225000FFE72878401C28702100C9B2DFF8380950
:1022600003F001FA012076BD70B5040000F0BCF85F
:10227000DFF828596878012803D1A87800F0ACFB72
:1022800004E00021DFF8100903F0DEF9DFF820098F
:10229000A9780278914207D0A9780170DFF8140973
:1022A0000068DFF814190860A8780A2812D1DFF84E
:1022B00008694FF4FA613068FFF798FD012809D1E9
:1022C000DFF8F00800683060062215F10801A81C4C
:1022D000FFF734FE2100C9B2DFF8BC0803F0C3F9F0
:1022E000012070BD10B50400DFF8D018DFF8D00869
:1022F0000069FFF77BFD012827D1DFF8C8080178C6
:10230000012905D1002101700020DFF890188870A4
:10231000DFF8B4080188491C018042F21071DFF82F
:1023200078282300DBB21B011A449268B1FBF2F15A
:1023300002888A420DD300210180DFF86018887876
:10234000002806D00020887003E00120DFF8741810
:1023500008702100C9B2DFF8400803F084F90120B9
:1023600010BD38B50400FDF72BFFDFF85458287A6C
:10237000012808D10521DFF8200803F065F9DFF80E
:102380003408006828612100C9B2DFF80C0803F0A6
:102390006AF9012032BD10B50400FDF7F7FEDFF841
:1023A00020080021017000210172012010BD10B52C
:1023B000040000224FF40051DFF8BC07FFF7F5FCE2
:1023C000012010BD10B5040001224FF40051DFF8C8
:1023D000A807FFF7EAFCDFF8C007210089B2816691
:1023E000062103F040F910BD38B5DFF89047DFF85B
:1023F000DC07E16A097850F82100DFF88817C1F896
:102400007802DFF8CC0701786170DFF8C8174078F0
:1024100051F820006060207A02F066FB00EE100A9E
:10242000DFF8B457B8EE400AD5ED010A20EE200AD5
:10243000BDEEC00A84ED030A607A02F055FB00EE9F
:10244000100AB8EE400AD5ED020A20EE200ABDEED1
:10245000C00A84ED040A207A02F046FB00EE100A5E
:10246000B8EE400AD5ED030A20EE200ABDEEC00A00
:1024700084ED050A607A02F037FB00EE100AB8EE30
:10248000400AD5ED040A20EE200ABDEEC00A84ED14
:10249000060A207A02F028FB00EE100AB8EE400A85
:1024A000D5ED050A20EE200ABDEEC00A84ED070A2C
:1024B000607A02F019FB00EE100AB8EE400AD5ED82
:1024C000060A20EE200ABDEEC00A84ED080AA07AB2
:1024D00002F00AFB00EE100ADFF8A456B8EE400A3C
:1024E000D5ED020A20EE200ABDEEC00A84ED090AED
:1024F000A07A02F0F9FA00EE100AB8EE400AD5ED23
:10250000010A20EE200ABDEEC00A84ED0A0AE07A34
:1025100002F0EAFA00EE100ADFF8C056B8EE400A00
:10252000D5ED000A20EE200ABDEEC00A84ED0C0AAB
:10253000E07A02F0D9FA00EE100AB8EE400AD5EDC2
:10254000010A20EE200ABDEEC00A84ED0D0AE07AF1
:1025500002F0CAFA00EE100AB8EE400AD5ED020AFF
:1025600020EE200ABDEEC00A84ED0E0AE07A02F0E9
:10257000BBFA00EE100AB8EE400AD5ED030A20EED1
:10258000200ABDEEC00A84ED0F0A31BD2DE9F84FD7
:102590008AB006002021002202AC200003F0BEF920
:1025A0000024002500208DF8050000208DF806008D
:1025B0001827DFF8D0853000C0B27843404490F847
:1025C00015903000C0B2784340444068002842D0A3
:1025D00001213000C0B200F0A9F900280ED130006E
:1025E000C0B27843404442683000C0B278434044AF
:1025F000017D4846C0B202F0F9FF1EE05FF0000A1C
:102600003000C0B278434044406802F073FC514649
:10261000C9B2814207D2202002A95246D2B28854C0
:102620001AF1010AECE702AA3000C0B27843404434
:10263000017D4846C0B202F0D9FF3000C0B27843F5
:102640004044406802F056FCDFF894150979491CB3
:10265000484310FA89F93000C0B27843404480689A
:10266000002800F03A813000C0B278434044007B3B
:1026700000280BD002281ED012D3042830D024D337
:10268000062845D036D307283ED044E03000C0B2FB
:102690007843404480680078002104000D003AE04F
:1026A0003000C0B278434044806890F90000C11700
:1026B00004000D002FE03000C0B278434044806831
:1026C0000088002104000D0025E03000C0B27843EE
:1026D00040448068B0F90000C11704000D001AE002
:1026E0003000C0B278434044806800680021040094
:1026F0000D0010E03000C0B27843404480680068AC
:10270000C11704000D0006E001208DF8050002E06D
:1027100002208DF805009DF8050000280CD130003E
:10272000C0B278434044407B40420200D2B202A98A
:102730002000FFF773FB26E09DF8050001281AD161
:102740003000C0B278434044806802F0D3FB2028B8
:1027500019D23000C0B278434044806802F0CAFB0E
:10276000020092B23000C0B278434044816802A8AF
:10277000FFF7E4FB07E03000C0B2784340448068D4
:1027800000788DF8080002213000C0B200F0CEF8C9
:10279000012823D13000C0B278434044807DC0B2CC
:1027A00000098DF806009DF806000F2805D02020AE
:1027B00002A99DF80620885410E05FF0000A02A8E4
:1027C00002F098FB5146C9B2814207D2202002A9EB
:1027D0005246D2B288541AF1010AF0E73000C0B272
:1027E00001285ED15FF0000A00208DF8040030005F
:1027F000C0B278434044407B002802D009208DF8C5
:102800000400392000902E2315220F21DFF8D40375
:1028100003F0B8F802A802F06DFB8346DFF8C003AE
:102820000079401C00FB0BFB5846C0B2022190FB14
:10283000F1F01F280BDA5846C0B2022190FBF1F0EC
:10284000D0F140009DF8041050FA81FA07E0584694
:10285000C0B2D0F15F009DF8041050FA81FA02AACC
:102860003000C0B278434044007D401CC0B2DFF865
:1028700070134979D1EBC001491EC9B25046C0B2AC
:1028800003F02AFA5AFA8BF09DF80490B0EB09098C
:1028900089200090202307220521C14802F08CFDE9
:1028A0001BE089200090202307220521BC4802F06C
:1028B00083FD02AA3000C0B278434044017D4846FF
:1028C000C0B202F093FE02A802F014FBC4490979D9
:1028D000491C484310FA89F081463000C0B2784361
:1028E0004044006900281ED03000C0B27843404404
:1028F0008068002817D03000C0B278434044806818
:10290000B94988420FD03000C0B2784340440269D0
:102910003000C0B207FB00F708EB0700017D484616
:10292000C0B202F063FE0BB0BDE8F08FF8B5040052
:102930000D0094492200D2B21820424301EB02005C
:10294000817D2800C0B201402800C0B281422FD151
:10295000A426A64F4FF496712800C0B270433844A5
:102960002200D2B250F82200FFF740FA01282AD103
:102970002800C0B206FB00F607EB06002100C9B232
:102980008C4A126840F82120292099492A00D2B2A5
:1029900042430A442300DBB22E00F6B200FB06F0ED
:1029A00008442100C9B2405CD0F10100D0540AE0D3
:1029B0008F492A00D2B22920424301EB02002100B4
:1029C000C9B2002242548A49EDB22920454301EBA5
:1029D0000500E4B2005DF2BD70B50400002602F00F
:1029E000D3FE00F077F82000C0B200F07DF82000A0
:1029F000C0B200F093F80025280080B2292811DA2F
:102A000060492A0092B21820424301EB0200C07DC7
:102A10002100C9B2884203D12800C0B2FFF7B6FD39
:102A20006D1CE9E702F00DFF70BDF0B44271C4788F
:102A300003792500EDB2AB420AD3F025514E2700B1
:102A4000FFB218235F4306EB07039D75641CEFE795
:102A500018234C4C85785D4325444679AE75002992
:102A600004D0857803FB05F323449960F0BC7047DC
:102A70002DE9F84F0700884691469A460A9E0B9D1D
:102A8000DDF830B00D9C87F8008087F8019087F85A
:102A900002A0FE703D712200D2B259463800FFF705
:102AA000C4FFBDE8F18F10B4010000221000C0B2D5
:102AB00004280CD21000C0B2085C4E4B1400E4B2E3
:102AC0001B5D984201D0002002E0521CEEE701207D
:102AD00010BC704780B50120009008237F22082198
:102AE000002003F07DF901BD10B504002000C0B244
:102AF000002812D138480078002807D122A22148A6
:102B000090F84410782002F071FD06E01FA21D48E5
:102B100090F84410782002F069FD10BD0100C9B2A0
:102B2000092924D115490978002906D002290ED097
:102B300008D3042915D00FD318E02F49114AC2F841
:102B4000B01318E02D490F4AC2F8B01313E02C4916
:102B50000C4AC2F8B0130EE02A490A4AC2F8B01370
:102B600009E02949074AC2F8B01304E003E022490A
:102B7000044AC2F8B0137047000800487C000020E7
:102B80006C28002020010020200000004E000000E2
:102B900090050020BC0000200C00002040280020F0
:102BA00010EA0008DD280020B0F30008ACEF0008B0
:102BB000DE280020BC2800209428002080EE36006B
:102BC000F8270020DF280020D0280020180100204E
:102BD000440C0020CC060020BC27002050280020F8
:102BE00060280020E8E70008460C0020FC1E0020BA
:102BF00000250020C4000020C8000020D8000020CC
:102C0000E8000020F80000200801002010B50400B2
:102C10000121DFF80C0D02F026FD012010BD30B5BA
:102C200087B004001421002202AD280002F076FED5
:102C3000DFF86C0BD0E90023CDE9002302A8009057
:102C4000DFF8605B2978684600F0ECF92878687056
:102C5000BDF80410009800F0D2FC00202870DFF8C6
:102C6000C05C0221280002F0EFFC0321280002F0E2
:102C7000FAFC2100C9B2280002F0F5FC012007B0DF
:102C800030BD10B50400DFF8F01B8888002810D094
:102C9000DFF8E80B02888B889A4208D10021018076
:102CA0000321DFF87C0C02F0CFFC012008E08988CA
:102CB00001802100C9B2DFF8680C02F0D4FC0120C9
:102CC00010BD2DE9F041040000250026DFF8A87BA7
:102CD000B88803283DDB3868B988084410F8010C2F
:102CE0003968BA88114411F8021C51EA00210E001B
:102CF000B988891E386803F00DF9050028003100F5
:102D000080B289B288421DD10721DFF8140C02F08D
:102D1000AAFC3868007803280DD1DFF8888A0121E1
:102D200098F8010000F097F998F80120D7E9000120
:102D300000F081F913E00021DFF8680A407800F024
:102D40008AF90CE00021DFF85C0A407800F083F992
:102D500005E00021DFF84C0A407800F07CF9DFF84C
:102D6000440A407800F0DEF80221DFF8B40B02F0EC
:102D70008CFC0120BDE8F0810100DFF8200D027815
:102D8000032A01D0042202700120704701000120B3
:102D9000704710B50400DFF88C0B0178012936D19B
:102DA000DFF8841BC978012931D1DFF8801B91ED50
:102DB000030AD0ED020AB4EE600AF1EE10FA08DA66
:102DC00091ED030AD0ED010AB4EE600AF1EE10FABB
:102DD0000ED501224FF400615FF09040FEF7E5FF51
:102DE00001224FF480515FF09040FEF7DEFF1CE0BF
:102DF00000224FF400615FF09040FEF7D6FF002202
:102E00004FF480515FF09040FEF7CFFF0DE00022BD
:102E10004FF400615FF09040FEF7C7FF00224FF4CF
:102E200080515FF09040FEF7C0FFDFF8F40A4FF4E6
:102E30007A7181662100C9B202F015FC012010BD33
:102E400038B50400DFF8E81A087800281FD10120FF
:102E50000870DFF8E05A012210212800FEF7A5FFD4
:102E6000002208212800FEF7A0FF00220421DFF83D
:102E7000300CFEF79AFF4FF4FA60DFF8A41A886767
:102E800003F02AFA03F0D3FB03F0C2FB12E00020A8
:102E9000087001220821DFF89C0AFEF786FF012254
:102EA0000421DFF8FC0BFEF780FF4EF66020DFF810
:102EB000701A88672100C9B2DFF8640A02F0D3FBF8
:102EC000012032BD10B50400DFF8601A0878002830
:102ED00002D1002008770FE0DFF8C80B8278042ABF
:102EE00005D08278092A05D1007A042802D103206E
:102EF000087701E002200877DFF82C0AC078012863
:102F000004D1012048770120887703E0002048772A
:102F1000002088772100C9B2DFF8040A02F0A3FB81
:102F2000012010BD38B52DED028B04009FEDBF8A46
:102F30002000C0B200285AD1DFF8F05995ED010AFF
:102F4000DFEDBB0A20EE200ABDEEC00A10EE100A2B
:102F500000F0F2F985ED010A95ED010A00F05AFA48
:102F600085ED030A95ED020A00F0B4FA85ED040A36
:102F700095ED040AD5ED060A30EE200ADFF8280B9D
:102F8000D0ED020AF4EE400AF1EE10FA02D5D0EDCF
:102F9000020A0BE0D0ED030AB4EE600AF1EE10FA7B
:102FA00002D5D0ED030A01E0F0EE400AC5ED040AB7
:102FB000D5ED030A95ED051A30EE818AD0ED000AB1
:102FC000F4EE480AF1EE10FA02D590ED000A0BE09B
:102FD00090ED010AB4EE408AF1EE10FA02D590EDC0
:102FE000010A01E0B0EE480A85ED030AFFE7DFF8C9
:102FF0003C592878002807D10020686095ED010A27
:1030000000F008FA85ED030A2878002807D100208F
:10301000A86095ED020A00F05DFA85ED040ABDECAA
:10302000028B31BD38B504000D002900C9B2200063
:1030300000F01BF831BD70B504000D001600200033
:103040000078C0B2032805D13200D2B22000290096
:1030500000F078F870BD38B504000D002900C9B241
:103060002000C0B200F0E6F831BD3EB504000D000E
:103070002800C0B2002806D0022822D00CD3042891
:1030800049D033D35CE004200090002303220321C5
:10309000200002F05DFF53E0DFF8A40D81880229D3
:1030A0000ED1016801918088022190FBF1F080B27D
:1030B00000904FF4805306220321200002F096FF77
:1030C0003EE0DFF87C0D818802290ED10168019174
:1030D0008088022190FBF1F080B2009041F204035D
:1030E00006220321200002F081FF29E0DFF8500DC5
:1030F000818802290ED1016801918088022190FB0C
:10310000F1F080B2009041F2020306220321200078
:1031100002F06CFF14E0DFF8280D818802290ED13F
:10312000016801918088022190FBF1F080B200904B
:1031300042F2200306220321200002F057FFFFE79E
:1031400037BD00002DE9F84F2DED028B82B0040051
:103150000D0091460020ADF800009FED348A002656
:103160004846C0B2002803D0401E032856D958E074
:103170000320ADF8000002226946200000F00CFA9E
:1031800008EE900A02226946200000F005FA804607
:10319000DFF89877B8EE680A10EE100A02F06AF8C5
:1031A00082468B46404602F057F841EC110B9FEDEA
:1031B000D10B01F0F0FE53EC102B5046594601F0B4
:1031C000F3FE02F015F8786002226946200000F054
:1031D000E3F900EE100AB0EE408A022269462000B0
:1031E00000F0DAF90600B8EE480A10EE100A02F014
:1031F00041F882468B46300002F02EF841EC110B6C
:103200009FEDBC0B01F0C7FE53EC102B5046594606
:1032100001F0CAFE01F0ECFFB86002E000F05BF9DB
:10322000FFE702B0BDEC028BBDE8F18F00000000AB
:103230000000C8420200D2B2002A042A1BD80A00A9
:10324000D2B2012A0ED1DFF8E42600235370012305
:1032500013700200D2B2002A0CD10122DFF8C83666
:10326000DA7007E0DFF8C4265378032B02DA5378CC
:103270005B1C5370FFE7DFF8B4365A78002A0CD095
:103280005A78032A09DB00221A7000225A600022B1
:103290009A600022DFF89036DA7070472DE9F0412D
:1032A00000242500EDB20A2D43DA00252E00F6B2E7
:1032B000092E3CDA2E00F6B201EB860676682F0066
:1032C000FFB251F82770BE422FDA00262F00FFB25E
:1032D00051F82770AC465FFA8CFC01EB8C0CDCF8E3
:1032E00004C0AE465FFA8EFE41F82EC0AC465FFACF
:1032F0008CFC01EB8C0CCCF80470AC465FFA8CFCB7
:1033000050F82CC0AE465FFA8EFE00EB8E0EDEF853
:1033100004E0A8465FFA88F840F828E0AE465FFA75
:103320008EFE00EB8E0ECEF804C06D1CBEE7641C52
:10333000B7E7BDE8F081000038B52DED028B040041
:103340009FED948ADFF8FC1A087800282AD1012022
:10335000087000210800C0B20A2815DA0800C0B2BF
:10336000DFF8E42A0B00DBB242F82300DFF8202B61
:103370000800C0B252F82000002803D10800C0B2F3
:1033800042F82040491CE5E7DFF8045B09230022EE
:103390002900DFF8B40AFFF781FF95ED050AB8EEC2
:1033A000C00A30E000200100C9B20A291EDADFF8A5
:1033B000981A0200D2B251F82220092A0BD1002219
:1033C0000300DBB241F82320DFF8C41A0200D2B2B6
:1033D00041F8224008E00200D2B251F82220521CEB
:1033E0000300DBB241F82320401CDCE7DFF8A05AE1
:1033F000092300222900DFF8500AFFF74FFF95ED5F
:10340000050AB8EEC00ADFEDBC0A80EE200ABDEC6A
:10341000028B31BDF0EE400A9FEDB81A9FEDB83A2D
:10342000DFED5C3AF5EE400AF1EE10FA40D0F0EE36
:10343000603A9FEDB40ADFF8E40A90ED004A34EEFA
:10344000634AB4EE404AF1EE10FA08DA90ED004A11
:1034500033EEC44AB4EE404AF1EE10FA03DB9FEDBE
:10346000AA0A21EE001ADFF8B80A90ED000AF0EE81
:10347000401ADFF8B01A91ED000A30EE010AB0EE02
:10348000402A32EE030A82EE000AF0EE402A33EEC2
:10349000E10AB0EE614A00EE224A80ED004AB7EE42
:1034A000000A30EE620A20EE020A81ED000A08E00E
:1034B000DFF8700A5FF07E510160DFF8640A0021D6
:1034C0000160DFF85C0ADFF8541A02680A6090EDC8
:1034D000000A7047704780B50320DFF8C0150870F8
:1034E0000421DFF83C0402F0D0F83220FEF76AFF36
:1034F00001BD0000000000000000244080B5DFF89E
:10350000280A0078A74908700220DFF89015087093
:103510000421DFF80C0402F0A6F801BD2DE9F0410A
:1035200004000D0016002F00DFF814894046FEF756
:10353000A5FC300080B2022802D004280BD01DE088
:103540007878D8F8001008703878D8F800104870EB
:10355000A8F8046015E07878D8F80010087038787A
:10356000D8F800104870F878D8F800108870B8784B
:10357000D8F80010C870A8F8046002E00020A8F88D
:103580000400DFF8A40904700120DFF8A019087016
:10359000BDE8F08100000000F0B4030000200C88BA
:1035A0001500EDB2042D16D12500ADB21D44AE7844
:1035B0002500ADB21D44ED7855EA06252600B6B2C9
:1035C0009E5D2700BFB21F447F7857EA062757EA5F
:1035D000054738000DE01500EDB2022D09D1250098
:1035E000ADB25D5D2600B6B21E44767856EA052679
:1035F00030000D8855FA82F50D80F0BC704770B52B
:1036000004000D00DFF8286901224FF480513000DA
:10361000FEF7CBFB0A2003F02DF802F0F1FF4FF488
:103620007A732A0092B22100DFF8080903F073F8D8
:1036300000224FF480513000FEF7B7FB70BD2DE93A
:10364000F0412DED028B8EB0F0EE408AB0EE608A34
:10365000322100226C46200002F060F9002700248D
:103660000025DFF8C882C8ED058A88ED068A98ED46
:10367000050A01F02DFC060098ED060A01F028FC71
:10368000804668463100090E3A00D2B281547F1C50
:103690003100090C3A00D2B281547F1C3100090A72
:1036A0003A00D2B281547F1C3900C9B246547F1C03
:1036B0004146090E3A00D2B281547F1C4146090CA2
:1036C0003A00D2B281547F1C4146090A3A00D2B274
:1036D00081547F1C3900C9B200F801807F1C3A0078
:1036E000D2B292B26946DFF8500804F031F80EB059
:1036F000BDEC028BBDE8F0810000C84295BFD63317
:1037000017B7D138CDCC4C3E00007A4470B50024B8
:103710000025DFF824080078C0B2FF2839D0DFF890
:103720001C080178C9B20906DFF814080078C0B295
:1037300051EA0041DFF80C080078C0B251EA0021DC
:10374000DFF804080078C0B201430C00DFF8FC0782
:103750000178C9B20906DFF8F8070078C0B251EA6B
:103760000041DFF8F0070078C0B251EA0021DFF82D
:10377000E8070078C0B201430D006C4E16F1140149
:10378000200001F0CDFA16F11801280001F0C8FA66
:1037900004E06648002141610021816170BD0000A4
:1037A000B0F50008D82800202DE9F0472DED028B58
:1037B0008EB00400F0EE408AB0EE608A3221002222
:1037C0006D46280002F0AAF8002500260027DFF841
:1037D00054A18AF800408AED028ACAED018A9AED66
:1037E000020A01F075FB80469AED010A01F070FBB8
:1037F000814668469AF800102A00D2B281546D1CA6
:103800004146090E2A00D2B281546D1C4146090C72
:103810002A00D2B281546D1C4146090A2A00D2B254
:1038200081546D1C2900C9B200F801806D1C494605
:10383000090E2A00D2B281546D1C4946090C2A0097
:10384000D2B281546D1C4946090A2A00D2B2815471
:103850006D1C2900C9B200F801906D1C2A00D2B27B
:1038600092B26946DFF8F40603F072FF0EB0BDECC9
:10387000028BBDE8F0870000F40B0020D628002062
:1038800070B500240025DFF8D4060078C0B2FF2808
:103890003CD0244EDFF8C80600783070DFF8C4064C
:1038A0000178C9B20906DFF8C0060078C0B251EA53
:1038B0000041DFF8B8060078C0B251EA0021DFF815
:1038C000B0060078C0B201430C00DFF8A80601780A
:1038D000C9B20906DFF8A0060078C0B251EA00417B
:1038E000DFF898060078C0B251EA0021DFF89006B0
:1038F0000078C0B201430D0016F10801200001F06C
:103900000FFA311D280001F00BFA07E005480021ED
:103910000170DFF8701681600021416070BD000009
:10392000400700206C280020A8280020BC27002089
:10393000E5280020000400482DE9F84F2DED048B08
:103940008EB0F0EE409AB0EE608AF0EE418AB0EEB2
:10395000619A3221002201AC200001F0DFFF5FF00C
:10396000000B00200090002400250026DFF838A17D
:10397000CAED009A8AED018ACAED028A8AED039A9D
:103980009AED000A01F0A4FA07009AED010A01F08D
:103990009FFA80469AED020A01F09AFA81469AED62
:1039A000030A01F095FA824601A83900090E5A4629
:1039B000D2B281541BF1010B3900090C5A46D2B224
:1039C00081541BF1010B3900090A5A46D2B28154C5
:1039D0001BF1010B5946C9B247541BF1010B41467B
:1039E000090E5A46D2B281541BF1010B4146090C13
:1039F0005A46D2B281541BF1010B4146090A5A467C
:103A0000D2B281541BF1010B5946C9B200F80180B2
:103A10001BF1010B4946090E5A46D2B281541BF1E3
:103A2000010B4946090C5A46D2B281541BF1010BD5
:103A30004946090A5A46D2B281541BF1010B594634
:103A4000C9B200F801901BF1010B5146090E5A460C
:103A5000D2B281541BF1010B5146090C5A46D2B225
:103A600081541BF1010B5146090A5A46D2B28154C6
:103A70001BF1010B5946C9B200F801A01BF1010B63
:103A80005A46D2B292B201A9DFF8FC0403F060FEFC
:103A90000EB0BDEC048BBDE8F18F00007C0000206F
:103AA000000C004840280020502800202DE9F0415B
:103AB0000024002500260027DFF8CC040078C0B2DF
:103AC000FF2871D0DFF8C4040178C9B20906DFF815
:103AD000C0040078C0B251EA0041DFF8B8040078B1
:103AE000C0B251EA0021DFF8B0040078C0B201434F
:103AF0000C00DFF8A8040178C9B20906DFF8A004B9
:103B00000078C0B251EA0041DFF898040078C0B2F2
:103B100051EA0021DFF890040078C0B201430D00A3
:103B2000DFF888040178C9B20906DFF88404007858
:103B3000C0B251EA0041DFF87C040078C0B251EA1B
:103B40000021DFF874040078C0B201430E00DFF8F2
:103B50006C040178C9B20906DFF864040078C0B2C9
:103B600051EA0041DFF85C040078C0B251EA00215C
:103B7000DFF854040078C0B201430F00DFF84C8432
:103B80004146200001F0CCF818F10401280001F0B2
:103B9000C7F818F10801300001F0C2F818F10C0163
:103BA000380001F0BDF80BE0DFF82004DFF8D41393
:103BB000016000214160DFF8181481600021C160BC
:103BC000BDE8F08178B591B004000D003C210022E1
:103BD00002AE300001F0A2FE0020ADF80400032187
:103BE000012000F06CFD0B2000900023DFF8E4239F
:103BF00001A902A801F07EF84FF47A73BDF8042001
:103C000002A9DFF8D40302F086FD12B070BD78B5CA
:103C100091B004000D003C21002202AE300001F002
:103C20007DFE0020ADF80400C34803F061FDCB48E1
:103C300003F05EFDDFF8A40300210170D14981602B
:103C4000002141600D2000900023DFF8942301A99A
:103C500002A801F04FF84FF47A73BDF8042002A9CE
:103C6000DFF8740302F057FD12B070BD38B590B0A4
:103C700004000D0003A8DFF86C13322203F0ACFD42
:103C8000DFF86403D0E90023CDE9012303A8019004
:103C90000023D648027802A903A800F0B6FF02204C
:103CA0000090002379A202A903A801F023F84FF4A1
:103CB0007A73BDF808200199C74802F02CFD11B0B5
:103CC00030BDF8B504000D000026206800783028CB
:103CD0003ADB206800783A2836DA00270020010015
:103CE000C9B2A28889B291420FD221680200D2B231
:103CF000895C302905DB21680200D2B2895C3A294F
:103D000000DB02E07F1C401CE9E73900C9B22068F3
:103D100001F0A8F80600B6F5807F0DD2B3484178CF
:103D20003000C0B200F0CBFC4FF47A7302227AA1CB
:103D3000A94802F0F0FC0EE04FF47A730522AC497A
:103D4000A54802F0E8FC06E04FF47A730522A84982
:103D5000A14802F0E0FCF1BD38B590B004000D00C0
:103D600003A8A449322203F037FDA348D0E9002379
:103D7000CDE9012303A8019000239C48427802A9C1
:103D800003A800F042FF0220009000233FA202A9F6
:103D900003A800F0AFFF4FF47A73BDF80820019933
:103DA0008D4802F0B8FC11B030BDF8B504000D002C
:103DB000002620680078302839DB206800783A280F
:103DC00035DA002700200100C9B2A28889B29142E9
:103DD0000FD221680200D2B2895C302905DB21684C
:103DE0000200D2B2895C3A2900DB02E07F1C401C51
:103DF000E9E73900C9B2206801F034F806000C2E5A
:103E00000DD23100C9B27948007800F058FC4FF467
:103E10007A73022240A1704802F07DFC0EE04FF45C
:103E20007A73052272496C4802F075FC06E04FF483
:103E30007A7305226E49684802F06DFCF1BD0000FE
:103E4000D0070020E62800204827002080B5FFF793
:103E50005DFCFFF715FDFFF729FE68486849C0F8CB
:103E6000A4136849C0F8B4136749C0F8C41367497C
:103E7000C0F8D4136649C0F8E4136649C0F8F413D7
:103E800002F0D5FB02F0C4FB01BD00000D0A0000EA
:103E90007027002070B50020002400252800C0B243
:103EA000092836DA5C4E2800C0B200013044407860
:103EB00001282CD1012004002800C0B200013044A8
:103EC000406800280ED001F071FA2900C9B209013A
:103ED00031444968401A2900C9B20901314489684E
:103EE000884214D300202900C9B209013144487026
:103EF00001F05CFA2900C9B2090131444860280088
:103F0000C0B22900C9B209013144C96888476D1C93
:103F1000C4E72000C0B270BD4F4B0000B0280020A5
:103F2000AC280020D8070020E42800207C000020D6
:103F300000080048F82100200008020802080208D2
:103F40000308020804080208050802080608020817
:103F500007080208080802080908020800100208F9
:103F600002100208031002080410020805100208DB
:103F700006100208071002080810020809100208BB
:103F80000A10020800006041002002080220020816
:103F90000320020804200208052002080620020867
:103FA0000720020808200208092002080A20020847
:103FB0000B2002080C2002080D2002080E20020827
:103FC0000F200208102002081120020850280020AB
:103FD0000000A042C8F30008E82000206C28002060
:103FE00018F1000888ED0008B8F50008440C00201E
:103FF000A8F50008BCED0008C0F50008E4070020A3
:10400000C53B00080F3C00086D3C0008C33C00089D
:10401000593D0008AB3D0008400700200200002089
:10402000704730B40200DFF8900A002304688588E6
:10403000635583885B1C8380DFF8803A1B780468B3
:104040008588635583885B1C8380012030BC704762
:10405000F8B504000D00002000212E002268330076
:10406000DBB2D25C23683700FFB23B445F7857EA8B
:1040700002273A0092B2B2F5807F23DA380080B28C
:1040800000281FD0DFF8300A21683200D2B2895CE4
:1040900002688388D1548188491C8180216832005C
:1040A000D2B21144497802688388D1548188491C6E
:1040B0008180DFF8080A41783800C0B200F0FFFACA
:1040C000012000E00020F2BD30B40200DFF8E80972
:1040D000002304688588635583885B1C8380DFF830
:1040E000DC395B7804688588635583885B1C838032
:1040F000012030BC7047F8B504000D0000200021FD
:104100002E0022683300DBB2D25C23683700FFB296
:104110003B445F7857EA02273A0092B20B2A1FDA33
:10412000DFF8940921683200D2B2895C0268838882
:10413000D1548188491C818021683200D2B2114457
:10414000497802688388D1548188491C818039006C
:10415000C9B2DFF86809007800F0B1FA012000E088
:104160000020F2BDF8B504000D000026DFF850096C
:1041700090ED030A00F0ACFE0100DFF83C090A00F4
:10418000120A03688788DA558288521C8280026886
:104190008388D1548288521C82800A00120E0368E0
:1041A0008788DA558288521C82800A00120C0368C4
:1041B0008788DA558288521C82800120F2BDF8B5CA
:1041C00004000D000026DFF8F80890ED040A00F066
:1041D0007FFE0100DFF8E0080A00120A0368878802
:1041E000DA558288521C828002688388D154828882
:1041F000521C82800A00120E03688788DA55828872
:10420000521C82800A00120C03688788DA55828863
:10421000521C82800120F2BDF8B504000D0000267A
:104220009FEDA10A00F054FE0100DFF88C080A009F
:10423000120A03688788DA558288521C82800268D5
:104240008388D1548288521C82800A00120E03682F
:104250008788DA558288521C82800A00120C036813
:104260008788DA558288521C82800120F2BD0000C6
:10427000F8B504000D0000269FED8B0A00F028FE23
:104280000100DFF834080A00120A03688788DA554B
:104290008288521C828002688388D1548288521C92
:1042A00082800A00120E03688788DA558288521CC1
:1042B00082800A00120C03688788DA558288521CB3
:1042C00082800120F2BD30B40200DFF8EC07002349
:1042D00004688588635583885B1C8380DFF8E0373A
:1042E0001B7F04688588635583885B1C838001205D
:1042F00030BC704730B40200DFF8BC07002304680C
:104300008588635583885B1C8380DFF8B4375B7FC7
:1043100004688588635583885B1C8380012030BCDA
:10432000704730B40200DFF89007002304688588E6
:10433000635583885B1C8380DFF884379B7F046828
:104340008588635583885B1C8380012030BC70475F
:1043500030B40200DFF860070023046885886355E5
:1043600083885B1C83800023046885886355838869
:104370005B1C8380012030BC704730B40200DFF842
:104380003807002304688588635583885B1C838015
:10439000002304688588635583885B1C8380012023
:1043A00030BC704730B40200DFF80C07002304680B
:1043B0008588635583885B1C8380DFF808371B780A
:1043C00004688588635583885B1C8380012030BC2A
:1043D0007047F8B504000D00002000212E0022686F
:1043E0003300DBB2D25C23683700FFB23B445F7816
:1043F00057EA02273A0092B2012A03D0380080B26D
:10440000002822D1DFF8B00621683200D2B2895CE0
:1044100002688388D1548188491C818021683200D8
:10442000D2B21144497802688388D1548188491CEA
:104430008180DFF89006D0ED020A90ED010A380085
:10444000C0B2FFF7B1F9012000E00020F2BDF8B5DD
:1044500004000D000026DFF86C0690ED020A00F063
:1044600037FD0100DFF850060A00120A036887884A
:10447000DA558288521C828002688388D1548288EF
:10448000521C82800A00120E03688788DA558288DF
:10449000521C82800A00120C03688788DA558288D1
:1044A000521C82800120F2BD000000002DE9F8437B
:1044B00004000D000026002000900027A846206878
:1044C0004146C9B20844817820684246D2B21044BD
:1044D000C07850EA012021684246D2B2895C226845
:1044E0004346DBB21A4492F8019059EA012959EA8D
:1044F0000049DFF8C40521684246D2B2895C0268EF
:104500008388D1548188491C818021684246D2B277
:104510001144497802688388D1548188491C81807C
:1045200021684246D2B21144897802688388D15406
:104530008188491C818021684246D2B21144C978E1
:1045400002688388D1548188491C81806946484625
:1045500000F0E6FBDFF86C05DDED000A90ED010AE6
:104560000078FFF721F90120BDE8F283F8B50400D7
:104570000D000026DFF84C0590ED010A00F0A8FCC4
:104580000100DFF834050A00120A03688788DA554B
:104590008288521C828002688388D1548288521C8F
:1045A00082800A00120E03688788DA558288521CBE
:1045B00082800A00120C03688788DA558288521CB0
:1045C00082800120F2BD2DE9F84304000D00002691
:1045D000002000900027A84620684146C9B2084440
:1045E000817820684246D2B21044C07850EA012057
:1045F00021684246D2B2895C22684346DBB21A4443
:1046000092F8019059EA012959EA0049DFF8A80413
:1046100021684246D2B2895C02688388D15481887D
:10462000491C818021684246D2B21144497802680F
:104630008388D1548188491C818021684246D2B246
:104640001144897802688388D1548188491C81800B
:1046500021684246D2B21144C97802688388D15495
:104660008188491C81806946484600F059FBDFF883
:104670005404D0ED020A9DED000A0078FFF794F88B
:104680000120BDE8F28370B504000D00DFF8386446
:10469000012220213000FDF788FB0A2001F0EAFF0B
:1046A0004FF47A732A0092B22100DFF8200402F05E
:1046B00032F8002220213000FDF777FB70BD7CB579
:1046C00004000D00082100226E46300001F026F99A
:1046D0000026DFF8E803047045706946027833006D
:1046E000DBB2CA54761C40783200D2B28854761CB1
:1046F0003200D2B292B26946DFF8D40303F028F850
:1047000073BDDFF8CC030078C0B2FF280AD0DFF811
:10471000AC03DFF8C01309780170DFF8BC13097827
:10472000417005E0DFF8940301210170032141701D
:1047300070472DE9F04F87B0040000275FF00008B4
:104740005FF000090025DFF89423D2E90001CDE9EC
:1047500002010026DFF88823D2E90001CDE9040137
:10476000DFF854A35046FDF789FBA0880828C0F263
:104770009E812068A188084410F8010C2168A28855
:10478000114411F8021C51EA0021ADF81810A1885B
:10479000891E206801F0BEFBADF81A00BDF81A00B2
:1047A000BDF81810884240F0808120680078C34925
:1047B0000978884240F07981206880782168CF7834
:1047C00057EA002720684078032807D0042805D03E
:1047D00006286DD0102800F0C48062E120680079BE
:1047E0002168497951EA00210D005FF00108404637
:1047F000C0B20F2836DA5FF01409DFF8E8B240469D
:10480000C0B209FB00F058444068390089B28842C0
:1048100025D1280080B24146C9B209FB01F15944B3
:10482000896888421BDB002100204246D2B209FB86
:1048300002F25A44D268904701280FD14046C0B2D4
:1048400009FB00F0584480682D1A4046C0B209FBAD
:1048500000F90BEB09008068C71900E002E018F1CD
:104860000108C4E7BAF80400002820D0BAF8040010
:10487000022190FBF1F201FB1200002817D1DAF8B7
:1048800000000190BAF80400022190FBF1F080B220
:1048900000903B009BB2206842782068017804A811
:1048A00001F018FCBDF814100498FFF7ECFEFAE0D4
:1048B00004200100C9B2A288921E91420EDA21683A
:1048C0000200D2B2895C029ABDF80C30D154BDF816
:1048D0000C10491CADF80C10401CEAE75FF0010811
:1048E0004046C0B20F2817DA14227E4B4046C0B2B1
:1048F000504318444068390089B2884209D10021E8
:1049000002A8C4465FFA8CFC02FB0CF21A4412693E
:10491000904718F10108E3E7BAF8040000281FD017
:10492000BAF80400022190FBF1F201FB120000280A
:1049300016D1DAF800000190BAF80400022190FBC9
:10494000F1F080B200903B009BB206222068017813
:1049500004A801F010FCBDF814100498FFF793FEB2
:10496000A1E000200600206800792168497951EA19
:1049700000210D0007200100C9B2A288921E9142B9
:104980000EDA21680200D2B2895C029ABDF80C30BE
:10499000D154BDF80C10491CADF80C10401CEAE7CE
:1049A000280080B240002168897988424DD1BDF845
:1049B0000C002168897989B2884246D15FF00108EC
:1049C0004046C0B20F2840DA5FF01409DFF814B196
:1049D0004046C0B209FB00F058444068390089B233
:1049E00088422FD1280080B24146C9B209FB01F1AB
:1049F00059448968884225DB310089B202A84246C1
:104A0000D2B209FB02F25A4412699047012818D128
:104A10004046C0B209FB00F058448068400010FADC
:104A200086F64046C0B209FB00F0584480682D1A53
:104A30004046C0B209FB00F90BEB09008068C719BA
:104A400000E002E018F10108BAE7BAF80400002813
:104A500026D0BAF80400022190FBF1F201FB12000B
:104A600000281DD1206880782168C97851EA00218A
:104A70000F00DAF800000190BAF80400022190FB60
:104A8000F1F080B200903B009BB2102220680178C8
:104A900004A801F070FBBDF814100498FFF7F3FDB3
:104AA00001E0002004E0012002E0002000E00020FE
:104AB00007B0BDE8F08F0000F8060020440C00208D
:104AC000BC2700206C280020000400487021002032
:104AD00000000208020002080300020898F500081E
:104AE000A0F50008A005002001000800C0B20028C1
:104AF00001D1012021E00800C0B2FF2801D10A2025
:104B00001BE00800C0B2FE2801D1642015E00800B7
:104B1000C0B2FD2802D14FF47A700EE00800C0B296
:104B2000FC2802D142F2107007E00800C0B2FB2856
:104B300002D1DFF8980300E0012070472DE9F24F21
:104B400082469346002000210A260027B046B94637
:104B5000009A1588BBF1000F08D5DBF100042D2069
:104B60002A0092B20AF802006D1C00E05C462000A8
:104B7000002142464B4602F083FE002901D1002865
:104B800008D0A6FB080106FB091107FB08118046A7
:104B90008946ECE7404649460A22002302F070FEAF
:104BA00006000F00002F01D1002E28D02000002188
:104BB00032003B0002F064FE3030290089B20AF86E
:104BC00001006D1CA0465FF00009200000213200AA
:104BD0003B0002F055FEA6FB002306FB013307FB5A
:104BE0000033B8EB020079EB030104003000390018
:104BF0000A22002302F044FE06000F00D2E70098CC
:104C000005802800C0B2BDE8F28F2DE9FE4F0600F6
:104C10000F0090460020ADF8000000200024002185
:104C20005FF0000BB7F80090B8F1000F02D5D8F193
:104C3000000500E04546424639003000FFF77EFFA0
:104C4000B7F800A0002D4FD09DF80800FFF74CFFEB
:104C500001008D4205D20A2045431BF1010B002DB6
:104C6000F7D15846C0B2002821D050460200D2B237
:104C7000324412F8012C2D2A06D00200D2B24B4643
:104C800092B29BB29A4208D130220300DBB2F254B6
:104C90001AF1010ABBF1010BE3E70200D2B2324480
:104CA00012F8012C0300DBB2F254401EDEE70A20AA
:104CB000B1FBF0F450468346002C15D00A20B4FB1B
:104CC000F0F45846C0B2304410F8010C5946C9B24D
:104CD0007054BBF1010B002CEED12E205946C9B205
:104CE00070541AF1010AE7E7A7F800A05046C0B2D5
:104CF000BDE8FE8FF0B4049C00252E00B6B2A6429B
:104D00000BD20E88771C0F802F00BFB217FA83F7E3
:104D1000D75DB6B287556D1CEFE7F0BC7047000059
:104D20002DE9F34F81B02DED028B9FED658A0024B4
:104D300001250026F7EE008A00273800C0B220289F
:104D400064DA0398F84010F0010004003800C0B2A3
:104D5000172829DA18EE900A00F08CFA82468B4662
:104D60002000C0B200F078FA804689463800C0B210
:104D7000D0F117005FF0FF31484300F0F3F841EC49
:104D8000110B9FED500B00F006F951EC100B424651
:104D90004B4602F08DFE52465B4602F05BFF00F090
:104DA00027FA08EE900A2FE03800C0B21F2824DA54
:104DB0003000C0B200F050FA82468B462000C0B2EC
:104DC00000F04AFA804689463800C0B2173800F031
:104DD000C9F841EC110B9FED3B0B00F0DCF851ECF6
:104DE000100B42464B4602F063FE52465B4602F011
:104DF00031FF02F0EDFF060006E02000C0B20128FE
:104E000002D15FF0FF3005007F1C96E7280040B21A
:104E100000F0A8F8804689463000C0B27F3800F024
:104E2000A1F841EC110B9FED270B00F0B4F851EC09
:104E3000100B42464B4602F03BFE8046894618EE78
:104E4000900A00F017FA42464B4602F031FE00F09D
:104E5000CFF900EE100A049880ED000ABDEC028B39
:104E6000BDE8F78F70B40300002200240020002565
:104E70002A000E00D2B2F6B2B2421FD22A00D2B23B
:104E80009A5C302A0ADB2A00D2B29A5C3A2A05DA06
:104E90002A00D2B29A5C303A140001E000221400D9
:104EA0002A00D2B2002A03D12200D2B2100003E0BD
:104EB0000A22504350FA84F06D1CD9E770BC704749
:104EC000000000000000000000000040A08601007B
:104ED00010B42DED010A00206A460023042B07D2EE
:104EE000D45C1900C9B2C9008C4020435B1CF5E7B3
:104EF00012BC704700F10103810704D010F8011BB8
:104F0000820781B1FAD10268A2F10131914311F017
:104F1000803104BF50F8042FF6E709BAB1FA81F1E5
:104F200000EBD100401CC01A704730B4002513E0DC
:104F300050F8042BD30744BFA9F101039A18091FA5
:104F4000042942F8045BFAD213468C0744BF15804B
:104F50009B1CC90748BF1D7050F8041B0029E7D1EE
:104F600030BC7047C11768B14840401AB0FA80F2AF
:104F70009040D21CC907C2F5846241EA025202EB9A
:104F8000D021400570470268531C036011707047C0
:104F900041EC100B01BD80B553EC112B51EC100B03
:104FA00002F034FFF4E72E00F0B540F2FF7581EA1D
:104FB000030C0CF0004C15EA11541DBF15EA1357F1
:104FC000AC42AF42E5E0BC41C1F31301C3F31303AC
:104FD000801A994143F4801304D2641E4000494171
:104FE00080185941C90241EA5051B1FBF3F603FB65
:104FF0001611A2FB0675D7EBC020A94102D2761E7E
:1050000080185941C90241EA5051B1FBF3FE03FB3C
:105010001E11A2FB0E75D7EBC020A94103D2AEF141
:10502000010E80185941890241EA9051760546EAFD
:105030008E2EB1FBF3F603FB1611A2FB0675D7EB20
:105040008020A94102D2761E80185941C90241EA46
:1050500050514EEA060EB1FBF3F603FB1611A2FB0C
:105060000675D7EBC020A94102D2761E801859419F
:10507000C90241EA5051B1FBF3F703FB1711A2FB40
:105080000735D3EBC020A94167F100070CBF0042F0
:1050900047F0010766F3D5274FEA1E31B80814F52B
:1050A000806412DDBD0775F1004250EB0E5051EBEC
:1050B000045111F5801F5CBF41EA0C01F0BD4CF0BA
:1050C0007F6141F0E0410020F0BDBD076D0840EA7E
:1050D0000E5041F48011D4F10104B4F120060ADA33
:1050E000C4F120060200E04001FA06F3E140184353
:1050F000B24015430EE0342C13DCC6F1200445EA1F
:1051000040056D0820FA06F2154321FA06F0A14089
:105110000D43002175F1004250F1000051EB0C01EC
:10512000F0BD00205FEA0C01F0BDCFB992185B41E1
:10513000B3FA83F704BFB2FA82F6BF190B3FB7F197
:1051400020062FBF02FA06F3BB40C7F1200622FA61
:1051500006F638BF3343BA401CB1E419641E33E786
:105160007F4231F00041B1FA81F404BFB0FA80F619
:10517000A4190B3CB4F120062FBF00FA06F1A140A0
:10518000C4F1200620FA06F638BF3143A0403C1B8C
:105190001AE7AC421ABF05EA1357AF4212E050EAD1
:1051A00041061CBF52EA4306BFE750EA41073046BA
:1051B00061461CBF41EA0551F0BD52EA430C08BFED
:1051C000C143F0BD00204FF4001616EB410F98BF0D
:1051D00016EB430F08BF16EB410F24BFC14305E098
:1051E00016EB430F0CBF61464CEA0551F0BD0000C1
:1051F00001F000428B1AA3F16051B1F5801F0ADB68
:10520000B1F17F6F1FD242EAC102C10071F10041CA
:1052100042EB507070470B15C3F10903212B10D2DC
:10522000890241EA905180020128494141F0004140
:1052300021FA03F0C3F12003994071F1004150417C
:105240007047100070476FF0000013EB103F5CBF19
:10525000000E42EAC0507047014648B1B0FA80F1F2
:105260008840C91CC1F58461090501EBD0214005C6
:1052700070470000C0F3C75181B1FF2906D0C110AB
:10528000400721F0E04101F16051704741020CBF3D
:1052900040F4E0016FF000410020704700F0004151
:1052A00000020AD0B0FA80FC00FA0CF001F1605163
:1052B000A1EB0C5101EBD021400570470CB430B587
:1052C00083B00A4606A90291044600250194009580
:1052D00002AB01A9084878441E3003F00DF9019A89
:1052E000157000284EBF04460198041B204603B0E9
:1052F00030BC5DF80CFB00BF8FFCFFFF80B50122C6
:1053000040212348FCF751FD2249234800F04EFA82
:1053100000F01EF8012000F005F800F0D1FA00F0CE
:105320001FFA01BD704711B581B0194C0022402110
:105330002000FCF73AFD4FF47A73012201A91748C7
:1053400004F03AF9012240212000FCF72EFD13BDA4
:1053500010B50F4C002240212000FCF726FD002252
:1053600080212000FCF721FD012000F019F8052024
:1053700000F016F8012280212000FCF716FD052020
:1053800000F00EF8012240212000FCF70EFD10BDB8
:105390000008004888280020FC1000207C25002000
:1053A00010B50400200001F065F910BD0148006847
:1053B000704700BF9828002070B4039CDFF880522B
:1053C000286029716A71AB71EC7100262E7270BC75
:1053D00070472DE9F84F04000D00160000275FF01C
:1053E0000008DFF85C9299F80500082880F2FC803C
:1053F000300099F80610C0B2884205D399F807002A
:105400003100C9B2884201D22E200600402099F80E
:105410000510491C90FBF1F02900C9B2814280F2CD
:10542000E38099F8040050FA84F0802880F2DC8050
:1054300099F805305B1C99F8050003FB05035B1C1C
:10544000DBB299F804201219D2B299F80500401C79
:1054500015FB00F1C9B22000C0B200F029F900210B
:10546000080099F80420C0B2904280F0BD8000206E
:1054700015FB00F00200D2B2082392FBF3F21700F2
:10548000C0B2082290FBF2F302FB13008046FF2219
:105490006C4BD3F800C03800C0B250FA85FE8020B3
:1054A00000FB0EFE5EFA84FED3F800A03800C0B206
:1054B00050FA85FB802000FB0BFB5BFA84F01AF8A6
:1054C00000A0D8F1080B100050FA0BF010EA0A0AFD
:1054D0000CF80EA0D3F800C03800C0B250FA85FE18
:1054E000802000FB0EFE5EFA84F00090D3F800E00E
:1054F0003800C0B250FA85FA802000FB0AFA5AFA46
:1055000084F01EF800E0D9F800A0B3465FFA8BFBE8
:1055100099F80600BBEB000099F804B00BFB00FB08
:105520000AEB0B008A465FFA8AFA10F80A0010FAB2
:1055300008F050EA0E00DDF800E00CF80E00D3F899
:1055400000C03800C0B250FA85FE802000FB0EFE7D
:105550005EFA84F08444D3F800E03800C0B250FA18
:1055600085FA802000FB0AFA5AFA84F0704490F819
:10557000800012FA08F202408CF880201A68380085
:10558000C0B250FA85FC802000FB0CFC5CFA84F071
:1055900002441B683800C0B250FA85FC802000FB32
:1055A0000CFC5CFA84F0184490F88030D9F800C004
:1055B000B6465FFA8EFE99F80600BEEB000E99F82B
:1055C000040000FB0EFE0CEB0E008C465FFA8CFC18
:1055D00010F80C00D8F1080C50FA0CF0034382F8D4
:1055E0008030641C491C3BE7BDE8F18FF8B507002B
:1055F0000C001600124D6879082820DA307800284F
:105600001DD032782100C9B23800C0B2FFF7E1FEE8
:10561000761C2879401CC719287950FA87F0401C5D
:10562000812802DB00200700641C40206979491CA6
:1056300090FBF1F02100C9B28142DFDBFFE7F1BD51
:10564000602800208C280020020001200B00DBB223
:105650001B011344587000200B00DBB21B011344E4
:1056600058600120704738B504000D000120290062
:10567000C9B2090121444870FFF798FE2900C9B258
:10568000090121444860012032BD020000200B00C6
:10569000DBB21B01134458700120704780B50348EA
:1056A00000F024FC00F0CDF801BD0000E8E30008A4
:1056B00070B40400E4B2802C01DB7F2420001400CD
:1056C000E4B2802C01DB7F2422000C00E4B2402CE9
:1056D00001DB3F2421001C00E4B2402C01DB3F240D
:1056E0002300354C050026683678EDB2B54201D26C
:1056F000256828702568AD781600F6B2B54201D24B
:105700002568AA700D0026687678EDB2B54201D200
:10571000256869702568ED781E00F6B2B54201D2A1
:105720002468E37070BC704723487F2102681170C1
:105730000021026891703F210268517000210068C9
:10574000C17070471C480021026811707F210268F7
:1057500091700021026851703F210068C17070474C
:1057600070B54FF480640025144806682A002100B3
:10577000300000F0D3F83F237F2200210020FFF704
:1057800097FF00F05EF870BD70B54FF4806400259F
:105790000A4806682A002100300000F0BFF83F23C5
:1057A0007F2200210020FFF783FF70BD034A1060B5
:1057B000014A116070470000902800208C280020CA
:1057C00010B5040000224FF480713A48FCF7EDFA5E
:1057D0002000C0B2FFF7A7FD10BD10B504000122E4
:1057E0004FF480713348FCF7E0FA2000C0B2FFF7B5
:1057F0009AFD10BD10B5040014F00F0050F0B00079
:10580000C0B2FFF7DDFF10BD10B504002000C0B22C
:1058100000F005F82000C0B200F00CF810BD10B583
:1058200004002000C0B2000950F01000C0B2FFF721
:10583000C7FF10BD10B5040014F00F00FFF7C0FF44
:1058400010BD70B500242000C0B210282EDA1A4D09
:10585000286840782100C9B2491CB0EBC10F23DA97
:105860002868C0782100C9B2B0EBC10F1EDB200050
:10587000C0B2FFF7BFFF28680078FFF7C5FF2868B0
:105880000678286880783100C9B288420CD30B486A
:1058900001682200D2B28020424352FA86F0085CAE
:1058A000FFF79BFF761CECE7641CCCE7FFF73CFF9F
:1058B00070BD000000080048902800208C280020BF
:1058C00080B5AE20FFF77CFFA220FFF779FFA02074
:1058D000FFF776FFC820FFF773FF2F20FFF770FF59
:1058E000322000F0C7FEA420FFF76AFF4020FFF738
:1058F00067FF2520FFF764FF0A2000F0BBFE812030
:10590000FFF75EFF1220FFF75BFFFFF729FFAF20D5
:10591000FFF756FF052000F0ADFE01BD62F30F2238
:1059200062F31F42401810F0030308D0C91A1FD3B6
:10593000DB0748BF00F8012D28BF20F8022D130017
:1059400030B414461546103928BF20E93C00FAD877
:10595000490728BF20E90C0048BF40F8042D890002
:1059600028BF20F8022D48BF00F8012D30BC704739
:10597000C91818BF00F8012DCB0728BF00F8012D6A
:105980007047000070B4039CDFF8845328602971CD
:105990006A71AB71EC7101262E7270BC70472DE9F3
:1059A000F74F04000D00DFF868639DF80800B17937
:1059B000884204D3F0799DF80810884202D22E2044
:1059C0008DF80800307A002845D100273800317959
:1059D000C0B288423DD231689DF80820B079121AD1
:1059E0003079424301EB02003900C9B210F801904E
:1059F000002080464046C0B2082828DA3800C0B2ED
:105A000050FA84F0802805DA4046C0B250FA85F09A
:105A1000402801DB00205DE1012010FA08F0494632
:105A2000C9B2014208D0012218EB0501C9B23819E8
:105A3000C0B200F06FF907E0002218EB0501C9B20F
:105A40003819C0B200F066F918F10108D2E77F1CDE
:105A5000BCE730793EE1307A012840F08E807079E1
:105A6000082190FBF1F201FB1200012806DB70799E
:105A7000082190FBF1FB1BF1010B03E07079082179
:105A800090FBF1FB31795846C0B24143491C8DF877
:105A9000011031689DF80820B079121A9DF80100B4
:105AA000424301EB020001788DF80010401C019088
:105AB0005FF0000840469DF80010C0B2884259D2FD
:105AC0005FF0000948465946C0B2C9B288424ED27A
:105AD00001994246D2B25846C0B2424301EB02009D
