:020000040800F2
:10000000302A0020F1DE00085DD800085FD8000823
:1000100061D8000863D8000865D800080000000017
:1000200000000000000000000000000067D8000889
:1000300069D80008000000006BD800086DD80008DF
:10004000C9E10008CDE10008D1E10008D5E10008D0
:10005000D9E10008DDE10008E1E10008E5E1000880
:10006000E9E10008EDE10008F1E10008F5E1000830
:10007000F9E10008BDD80008FDE10008C7D8000874
:1000800001E2000805E2000809E200080DE20008AC
:1000900011E2000815E2000819E200081DE200085C
:1000A00021E2000825E2000829E200082DE200080C
:1000B00031E20008000000000000000035E2000806
:1000C00039E200083DE2000841E2000845E200088C
:1000D00049E20008D1D800084DE20008DBD800084A
:1000E00051E20008E5D80008000000000000000010
:1000F0000000000000000000000000000000000000
:100100000000000055E200080000000059E200086D
:1001100000000000000000005DE2000861E200084D
:1001200065E2000869E200086DE2000871E200087B
:1001300075E2000800000000000000000000000060
:1001400079E200087DE2000881E2000885E200080B
:1001500089E20008EFD80008F9D800088DE200080D
:1001600091E2000895E2000899E200080000000012
:100170009DE20008A1E20008A5E2000800000000DE
:10018000A9E20008ADE20008B1E2000810B50400E1
:100190000121DFF8C80C01F032F8012010BD30B5A4
:1001A00087B004001421002202AD280001F042F8BB
:1001B000DFF8480BD0E90023CDE9002302A8009026
:1001C000DFF83C5B2978684600F098F92878687079
:1001D000BDF80410009800F0BEFCDFF8280B807812
:1001E000042809D12878022803DA2878401C2870CE
:1001F00001E00020287001E000202870DFF85C5C3E
:100200000221280000F0ECFF0321280000F0F7FF96
:100210002100C9B2280000F0F2FF012007B030BD74
:1002200010B50400DFF8E01A8888002810D0DFF845
:10023000DC0A02888B889A4208D1002101800321C0
:10024000DFF8180C00F0CCFF012008E0898801805D
:100250002100C9B2DFF8040C00F0D1FF012010BD6D
:100260002DE9F041040000250026DFF89C7AB888CB
:1002700003283DDB3868B988084410F8010C396858
:10028000BA88114411F8021C51EA00210E00B98805
:10029000891E386801F001F805002800310080B29D
:1002A00089B288421DD10821DFF8B00B00F0A7FF0A
:1002B000386800780E280DD1DFF8448A012198F8BB
:1002C000010000F034F998F80120D7E9000100F0AE
:1002D0001EF913E00021DFF8280A407800F027F922
:1002E0000CE00021DFF8180A407800F020F905E062
:1002F0000021DFF80C0A407800F019F9DFF8000A55
:10030000407800F093F80221DFF8500B00F089FFED
:100310000120BDE8F0810100DFF8940C0278032A87
:1003200001D0042202700120704710B504002100A2
:10033000C9B2DFF8280B00F062FF012010BD10B534
:1003400004002100C9B2DFF8140B00F058FF0120AF
:1003500010BD38B50400DFF8085B287800280DD1FF
:1003600001220121DFF8FC0A01F0FBFA0520DFF889
:10037000EC1A88672878401C28700BE000220121C5
:10038000DFF8E00A01F0EDFAFA20DFF8D01A88670A
:10039000002028702100C9B2DFF8C00A00F02FFF4A
:1003A000012032BD38B50400DFF8101B08780028A2
:1003B00020D101200870DFF8085B012210212800FD
:1003C00001F0CFFA00220821280001F0CAFA002229
:1003D0000421DFF8F00A01F0C4FA4FF4FA60DFF804
:1003E0007C1AC1F8880001F017FB01F0C0FC01F095
:1003F000AFFC13E00020087001220821DFF8C00ADA
:1004000001F0AFFA01220421DFF8B80A01F0A9FADD
:100410004EF66020DFF8441AC1F888002100C9B206
:10042000DFF8380A00F0EBFE012032BD38B52DEDC3
:10043000028B04009FED798A2000C0B2002842D1CF
:10044000DFF8405C95ED010ADFEDCA0A20EE200AD4
:10045000BDEEC00A10EE100A00F01AFA85ED010A8E
:1004600095ED010A00F086FA85ED030A95ED020A82
:1004700000F0E0FA85ED040A95ED040AD5ED060AD0
:1004800030EE200A85ED040A95ED030AD5ED050A44
:1004900030EE200AB0EE408A9FEDB70AB4EE408AF3
:1004A000F1EE10FA02DB9FEDB50A09E0B5EE408AE5
:1004B000F1EE10FA02D59FED590A01E0B0EE480ABC
:1004C00085ED030AFFE7DFF8BC5B2878002807D139
:1004D0000020686095ED010A00F04CFA85ED030AF2
:1004E0002878002807D10020A86095ED020A00F0C6
:1004F000A1FA85ED040ABDEC028B31BD38B50400CC
:100500000D002900C9B2200000F01BF831BD70B504
:1005100004000D00160020000078C0B20E2805D19E
:100520003200D2B22000290000F07AF870BD38B550
:1005300004000D002900C9B22000C0B200F020F96B
:1005400031BD3EB504000D002800C0B2002808D01F
:10055000022819D00ED3042835D01FD3052847D040
:100560005BE004200090002303220E21200000F015
:10057000B2FE52E0012000904FF4805303220E217E
:10058000200000F0A8FE48E00120009041F20403A2
:1005900003220E21200000F09EFE3EE0DFF8740BE7
:1005A000818802290ED1016801918088022190FB87
:1005B000F1F080B200904FF4805306220E2120000B
:1005C00000F0D7FE29E0DFF84C0B818802290ED11C
:1005D000016801918088022190FBF1F080B20090C7
:1005E00041F2040306220E21200000F0C2FE14E0B6
:1005F000DFF8200B818802290ED1016801918088E3
:10060000022190FBF1F080B2009042F2200306221A
:100610000E21200000F0ADFEFFE737BD0000000016
:100620002DE9F84F2DED028B82B004000D009146AC
:100630000020ADF800009FED6E8A00264846C0B24B
:1006400000280BD0022876D05ED3042800F08A80E0
:10065000C0F08880052800F0858086E00320ADF892
:10066000000002226946200000F042FA08EE900ADB
:1006700002226946200000F03BFA8046DFF8987AB3
:10068000B8EE680A10EE100A01F094FB82468B4621
:10069000404601F0B3FB41EC110B9FEDB40B01F0B0
:1006A000C2FB53EC102B5046594601F0C5FB01F03C
:1006B000E7FC786002226946200000F019FA00EE9B
:1006C000100AB0EE408A02226946200000F010FABB
:1006D0000600B8EE480A10EE100A01F06BFB8246E5
:1006E0008B46300001F08AFB41EC110B9FED9F0B14
:1006F00001F099FB53EC102B5046594601F09CFB3E
:1007000001F0BEFCB86030E00320ADF8000002222A
:100710006946200000F0ECF900EE100AB0EE408AC5
:10072000B8EE480AF2EE040A80EE200ADFF8E80983
:1007300080ED070A19E00320ADF8000002226946A7
:10074000200000F0D5F900EE100AB0EE408AB8EEB5
:10075000480AF2EE040A80EE200ADFF8BC0980EDB8
:10076000080A02E000F067F9FFE702B0BDEC028B77
:10077000BDE8F18F0000C8420100FA440000FA44CD
:100780000200D2B2002A052A1BD80A00D2B2012ADE
:100790000ED1DFF8F02800235370012313700200FC
:1007A000D2B2002A0CD10122DFF87039DA7007E0EA
:1007B000DFF8D0285378032B02DA53785B1C537090
:1007C000FFE7DFF8C0385A78002A10D05A78032A99
:1007D0000DDB00221A7000225A6000229A6000226B
:1007E000DA6100221A620022DFF83039DA707047CD
:1007F000000000002DE9F04100242500EDB20A2D93
:1008000043DA00252E00F6B2092E3CDA2E00F6B2AD
:1008100001EB860676682F00FFB251F82770BE42C2
:100820002FDA00262F00FFB251F82770AC465FFA8E
:100830008CFC01EB8C0CDCF804C0AE465FFA8EFE3B
:1008400041F82EC0AC465FFA8CFC01EB8C0CCCF866
:100850000470AC465FFA8CFC50F82CC0AE465FFAD0
:100860008EFE00EB8E0EDEF804E0A8465FFA88F8F4
:1008700040F828E0AE465FFA8EFE00EB8E0ECEF812
:1008800004C06D1CBEE7641CB7E7BDE8F081000042
:1008900038B52DED028B04009FED948ADFF88018A7
:1008A000087800282AD10120087000210800C0B271
:1008B0000A2815DA0800C0B2DFF868280B00DBB29E
:1008C00042F82300DFF860280800C0B252F8200088
:1008D000002803D10800C0B242F82040491CE5E7D7
:1008E000DFF84458092300222900DFF83808FFF711
:1008F00081FF95ED050AB8EEC00A30E00020010046
:10090000C9B20A291EDADFF81C180200D2B251F867
:100910002220092A0BD100220300DBB241F8232058
:10092000DFF804180200D2B241F8224008E00200C9
:10093000D2B251F82220521C0300DBB241F823202E
:10094000401CDCE7DFF8E057092300222900DFF82C
:10095000D407FFF74FFF95ED050AB8EEC00ADFEDAB
:10096000BC0A80EE200ABDEC028B31BD0000000005
:1009700000002440F0EE400A9FEDB61A9FEDB63A13
:10098000DFED5A3AF5EE400AF1EE10FA40D0F0EE03
:10099000603A9FEDB20ADFF8940790ED004A34EE1A
:1009A000634AB4EE404AF1EE10FA08DA90ED004ADC
:1009B00033EEC44AB4EE404AF1EE10FA03DB9FED89
:1009C000A80A21EE001ADFF8680790ED000AF0EEA1
:1009D000401ADFF8601791ED000A30EE010AB0EE20
:1009E000402A32EE030A82EE000AF0EE402A33EE8D
:1009F000E10AB0EE614A00EE224A80ED004AB7EE0D
:100A0000000A30EE620A20EE020A81ED000A08E0D8
:100A1000DFF820075FF07E510160DFF81407002146
:100A20000160DFF80C07DFF8041702680A6090ED38
:100A3000000A7047704780B50320DFF8741508700E
:100A40000421DFF8180400F0ECFB322001F00BFD6C
:100A500001BD80B5DFF8E0060078A94908700220E2
:100A6000DFF84C1508700421DFF8F00300F0C7FB35
:100A700001BD2DE9F04104000D0016002F00DFF844
:100A80009486404602F00CF9300080B2022802D071
:100A900004280BD01DE07878D8F80010087038785A
:100AA000D8F800104870A8F8046015E07878D8F8F5
:100AB000001008703878D8F800104870F878D8F826
:100AC00000108870B878D8F80010C870A8F80460D2
:100AD00002E00020A8F80400DFF85C0604700120A2
:100AE000DFF858160870BDE8F08100000000000033
:100AF000F0B4030000200C881500EDB2042D16D1CF
:100B00002500ADB21D44AE782500ADB21D44ED7890
:100B100055EA06252600B6B29E5D2700BFB21F44E7
:100B20007F7857EA062757EA054738000DE0150099
:100B3000EDB2022D09D12500ADB25D5D2600B6B241
:100B40001E44767856EA052630000D8855FA82F55F
:100B50000D80F0BC704770B504000D00DFF8046331
:100B600001224FF48051300000F0FBFE0A2002F019
:100B70005DF901F0E5F84FF47A732A0092B2210092
:100B8000DFF8BC0502F0A3F900224FF480513000D9
:100B900000F0E7FE70BD2DE9F0412DED028B8EB027
:100BA000F0EE408AB0EE608A322100226C462000CE
:100BB00000F040FB002700240025DFF8C884C8EDC2
:100BC000058A88ED068A98ED050A03F01BFB0600EE
:100BD00098ED060A03F016FB804668463100090EC0
:100BE0003A00D2B281547F1C3100090C3A00D2B2D3
:100BF00081547F1C3100090A3A00D2B281547F1C13
:100C00003900C9B246547F1C4146090E3A00D2B29F
:100C100081547F1C4146090C3A00D2B281547F1C9A
:100C20004146090A3A00D2B281547F1C3900C9B248
:100C300000F801807F1C3A00D2B292B26946DFF818
:100C4000040503F067FB0EB0BDEC028BBDE8F0813C
:100C50000000C84295BFD63317B7D138CDCC4C3E33
:100C600000007A4470B500240025DFF8D80400782D
:100C7000C0B2FF283AD0DFF8D0040178C9B2090623
:100C8000DFF8C8040078C0B251EA0041DFF8C004C0
:100C90000078C0B251EA0021DFF8B8040078C0B291
:100CA00001430C00DFF8B0040178C9B20906DFF88F
:100CB000AC040078C0B251EA0041DFF8A404007827
:100CC000C0B251EA0021DFF89C040078C0B20143B1
:100CD0000D00DFF8446416F11401200003F0BAF9A6
:100CE00016F11801280003F0B5F905E0DFF8280433
:100CF000002141610021816170BD00006CE10008AC
:100D0000122600208C250020F0090020102600204B
:100D100070B500240025DFF854040078C0B2FF2825
:100D20003DD0DFF84464DFF8480400783070DFF825
:100D300044040178C9B20906DFF83C040078C0B267
:100D400051EA0041DFF834040078C0B251EA0021D2
:100D5000DFF82C040078C0B201430C00DFF8240453
:100D60000178C9B20906DFF820040078C0B251EA60
:100D70000041DFF818040078C0B251EA0021DFF822
:100D800010040078C0B201430D0016F108012000E4
:100D900003F060F9311D280003F05CF909E0DFF889
:100DA000C80300210170DFF8EC138160DFF8E8135D
:100DB000416070BD78B591B004000D003C21002267
:100DC00002AE300000F036FA0020ADF80400032136
:100DD000062003F0FDFB0B2000900023DFF8BC236E
:100DE00001A902A803F020F94FF47A73BDF804209A
:100DF00002A9DFF8AC0302F06AF812B070BD78B552
:100E000091B004000D003C21002202AE300000F041
:100E100011FA0020ADF80400CA4803F04BFAD34899
:100E200003F048FAD04800210170DFF86C138160AC
:100E3000DFF8601341600D2000900023DFF8642389
:100E400001A902A803F0F0F84FF47A73BDF804206A
:100E500002A9D34802F03BF812B070BD3C05002057
:100E60001F2600200008004838B590B004000D008F
:100E700003A8CD49322203F0BBFDCC48D0E90023C2
:100E8000CDE9012303A801900023C948027802A9F3
:100E900003A803F054F80220009000237AA202A9CC
:100EA00003A803F0C1F84FF47A73BDF80820019944
:100EB000BB4802F00CF811B030BD00002026002025
:100EC00000040048000C0048F8B504000D0000269E
:100ED0002068007830283ADB206800783A2836DA33
:100EE000002700200100C9B2A28889B291420FD226
:100EF00021680200D2B2895C302905DB216802003A
:100F0000D2B2895C3A2900DB02E07F1C401CE9E791
:100F10003900C9B2206803F03FF90600B6F5807FBA
:100F20000DD2A34841783000C0B203F051FB4FF41A
:100F30007A73022276A19A4801F0C9FF0EE04FF4BD
:100F40007A7305229B49964801F0C1FF06E04FF4F1
:100F50007A7305229749924801F0B9FFF1BD38B57F
:100F600090B004000D0003A89349322203F040FD25
:100F70009248D0E90023CDE9012303A80190002382
:100F80008B48427802A903A802F0D9FF0220009002
:100F900000233DA202A903A803F046F84FF47A7398
:100FA000BDF8082001997E4801F091FF11B030BDD5
:100FB0007C000020F8B504000D00002620680078B1
:100FC000302839DB206800783A2835DA00270020FD
:100FD0000100C9B2A28889B291420FD221680200F1
:100FE000D2B2895C302905DB21680200D2B2895C6B
:100FF0003A2900DB02E07F1C401CE9E73900C9B256
:10100000206803F0C9F806000C2E0DD23100C9B2D9
:101010006748007803F0DCFA4FF47A7302223CA1AF
:101020005F4801F054FF0EE04FF47A7305226149E6
:101030005B4801F04CFF06E04FF47A7305225D49EE
:10104000574801F044FFF1BD80B5FFF70BFEFFF7F5
:101050005FFE5B485B49C0F8A4135B49C0F8B4135A
:101060005A49C0F8C4135A49C0F8D4135949C0F8B2
:10107000E4135949C0F8F41300F079FE00F068FE5B
:1010800001BD0000042500200D0A000070B50020FD
:10109000002400252800C0B2092836DA4F4E280067
:1010A000C0B200013044407801282CD10120040056
:1010B0002800C0B200013044406800280ED003F080
:1010C000EBFC2900C9B2090131444968401A2900E2
:1010D000C9B2090131448968884214D3002029002B
:1010E000C9B209013144487003F0D6FC2900C9B2E5
:1010F0000901314448602800C0B22900C9B2090181
:101100003144C96888476D1CC4E72000C0B270BD77
:101110004F4B0000CC05002004250020E4250020D2
:101120002126002090240020B8240020EC25002057
:10113000E8250020D40500201E2600207C00002089
:10114000641F0020000802080208020803080208C1
:101150000408020805080208060802080708020831
:101160000808020809080208A82500200010020843
:1011700002100208031002080410020805100208F9
:1011800006100208071002080810020809100208D9
:101190000A10020800004842000016447CDF0008E4
:1011A000541E002020DD0008C0D9000874E10008AA
:1011B000400A002064E10008F4D900087CE100083E
:1011C000E0050020B50D0008FF0D0008690E0008BD
:1011D000C90E00085F0F0008B50F00083C0500208D
:1011E000020001200B00DBB21B01134458700020E9
:1011F0000B00DBB21B01134458600120704738B567
:1012000004000D0001202900C9B2090121444870E1
:1012100003F042FC2900C9B20901214448600120C1
:1012200032BD020000200B00DBB21B0113445870DA
:101230000120704762F30F2262F31F42401810F042
:10124000030308D0C91A1FD3DB0748BF00F8012DDC
:1012500028BF20F8022D130030B41446154610396B
:1012600028BF20E93C00FAD8490728BF20E90C0034
:1012700048BF40F8042D890028BF20F8022D48BF40
:1012800000F8012D30BC7047C91818BF00F8012DB7
:10129000CB0728BF00F8012D704730B403004FF68C
:1012A000FF7000248C4213DA1A5D50400822002A95
:1012B0000CD0C50706D580B2400880F4204090F0DD
:1012C000010001E080B24008521EF0E7641CE9E72B
:1012D00080B230BC70472DE9F84305000E001700BE
:1012E0009846089C5FF000092868494689B2465430
:1012F00019F101092868494689B2475419F10109D1
:10130000404680B2000A29684A4692B2885419F1D0
:1013100001092868494689B200F8018019F10109DC
:10132000200080B2000A29684A4692B2885419F116
:1013300001092868494689B2445419F1010949460E
:1013400089B22868FFF7A9FF010028684A4692B2CF
:10135000815419F10109080080B2000A2A684B463D
:101360009BB2D05419F10109A5F804900120BDE801
:10137000F2832DE9F84F06000F00904699460A9D2A
:10138000DDF82CA0002400213068220092B287549E
:10139000641C3068220092B200F80280641C484647
:1013A00080B2000A326823009BB2D054641C3068BB
:1013B000220092B200F80290641C4046C0B2062897
:1013C00002D0102807D01CE0280080B2012801D0EC
:1013D000002040E015E0280080B2000A32682300B7
:1013E0009BB2D054641C3068220092B28554641CB5
:1013F0002800C0B24000326823009BB2D054641C65
:10140000FFE75FF0000B584680B2290089B2B0EBCD
:10141000410F0BDA584680B21AF8000031682200FA
:1014200092B28854641C1BF1010BECE7210089B2D5
:101430003068FFF732FF01003068220092B2815419
:10144000641C080080B2000A326823009BB2D054AA
:10145000641CB4800120BDE8F28F2DE9F84F05002F
:101460000E00170098460A9CDDF82C905FF0000BE8
:10147000002029685A4692B28E541BF1010B29684C
:101480005A4692B28F541BF1010B2100C9B2490098
:101490002A685B469BB2D1541BF1010B5FF0000A36
:1014A000504680B2210089B2B0EB410F0CDA5046B1
:1014B00080B219F8000029685A4692B288541BF18C
:1014C000010B1AF1010AEBE7594689B22868FFF7C8
:1014D000E4FE010028685A4692B281541BF1010BC8
:1014E000080080B2000A2A685B469BB2D0541BF108
:1014F000010BA5F804B00120BDE8F28F2DE9F84FEB
:1015000005000E00170098460A9CDDF82C905FF04D
:10151000000B5FF0000A2868594689B246541BF157
:10152000010B2868594689B247541BF1010B40460C
:1015300080B2000A29685A4692B288541BF1010B06
:101540002868594689B200F801801BF1010B380068
:10155000C0B2062802D010281DD02CE0200080B296
:10156000012801D000203EE000208246504680B293
:10157000210089B2B0EB410F0CDA504680B219F865
:10158000000029685A4692B288541BF1010B1AF1E7
:10159000010AEBE70FE0200080B2000A29685A46F2
:1015A00092B288541BF1010B2868594689B2445401
:1015B0001BF1010BFFE7594689B22868FFF76DFE62
:1015C000010028685A4692B281541BF1010B0800B1
:1015D00080B2000A2A685B469BB2D0541BF1010B13
:1015E000A5F804B00120BDE8F28F30B4002513E067
:1015F00050F8042BD30744BFA9F101039A18091F1F
:10160000042942F8045BFAD213468C0744BF1580C4
:101610009B1CC90748BF1D7050F8041B0029E7D167
:1016200030BC7047F8B4030000250868E840002883
:1016300000F0D78001260F6816FA05F007403A003F
:10164000002A00F0CC80087910F00300012804D0B3
:10165000087910F0030002281DD19F685FF0030C89
:101660002800C0B240001CFA00FC37EA0C07D1F891
:101670000CC02800C0B240001CFA00FC5CEA07075E
:101680009F605868AE40B0434E68C6F30016AE4047
:10169000304304005C60087910F0030003280ED08A
:1016A000DE6803272800C0B240008740BE438F6831
:1016B0002800C0B2400087403E433400DC60087917
:1016C00010F00300022818D12800C00803EB8000A6
:1016D000066A0F2715F00700C0B280008740BE439E
:1016E0000F6915F00700C0B2800087403E43340008
:1016F0002800C00803EB800004621E68032728004E
:10170000C0B240008740BE430F7917F0030728009E
:10171000C0B2400087403E4334001C60486810F46B
:10172000403F5CD09548066856F0010606600068A8
:1017300010F0010000900098914F2800800857F8A1
:1017400020605FF00F0C15F00300C0B280001CFA9F
:1017500000FC36EA0C06B3F1904F01D1002414E0EE
:101760008848834201D101240FE08748834201D198
:1017700002240AE08548834201D1032405E084481D
:10178000834201D1042400E0072415F00300C0B215
:101790008000844026432800800847F820607D4C64
:1017A000206890434F68FF0200D5104320607A4EB6
:1017B000346894434F68BF0200D514433460774EB9
:1017C000306890434F68BF0300D510433060744EBB
:1017D000346894434F68FF0300D5144334606D1C94
:1017E00023E7F1BC70472DE9F04103000025080014
:1017F000E840002800F0A880012616FA05F008400D
:101800000200002A00F09E80DFF874C128008008E2
:101810005CF820000F2715F0030E5FFA8EFE5FEADA
:101820008E0E17FA0EFE1EEA00000400B3F1904F70
:1018300002D15FF0000E19E05248834202D15FF0FE
:10184000010E13E05048834202D15FF0020E0DE01A
:101850004E48834202D15FF0030E07E04C488342BA
:1018600002D15FF0040E01E05FF0070E15F00300F7
:10187000C0B280001EFA00FE74452CD14848D0F852
:1018800000E03EEA020EC0F800E04448D0F800E074
:101890003EEA020EC0F800E03F48D0F800E03EEA21
:1018A000020EC0F800E03B48D0F800E03EEA020E2D
:1018B000C0F800E015F00300C0B2800017FA00F095
:1018C0000400280080085CF82000A043AE465FEAD0
:1018D0009E0E4CF82E005FF0030C1868AE465FFABF
:1018E0008EFE5FEA4E0E1CFA0EFE5EEA00001860E5
:1018F0002800C00803EB800E2800C00803EB80001E
:10190000D0F8208015F00700C0B28000874038EA88
:101910000707CEF8207098682F00FFB27F001CFAEE
:1019200007F7B84398605868AE4030EA06065E6034
:10193000DE682800C0B240001CFA00FC36EA0C0C3D
:10194000C3F80CC06D1C52E7BDE8F08102001069BD
:101950000B009BB2184201D0012000E00020C0B271
:1019600070471300DBB2002B03D00B009BB28361E6
:1019700002E00B009BB283627047000060100240DF
:10198000080001400004004800080048000C00481E
:1019900000100048080401400C0401400404014008
:1019A0000004014080B5D448D44901605FF4E131BE
:1019B0004160002181600021C160002101610C2192
:1019C000416100218161002101620021416201F039
:1019D00041FA002801D003F0C4F801BD80B5C84821
:1019E000C84901604FF41651416000218160002117
:1019F000C160002101610C21416100218161002150
:101A0000C161002101620021416201F023FA002836
:101A100001D003F0A6F801BD80B5BB48BB49016009
:101A20004FF416514160002181600021C160002106
:101A300001610C214161002181610021C16100210E
:101A400001620021416201F005FA002801D003F093
:101A500088F801BD38B59EB0040014220021684604
:101A600003F081F86022002106A803F07CF82068CA
:101A7000A249884252D1202006900020119006A849
:101A800003F07CF8002801D003F06BF8A04801684F
:101A900051F001010160006810F001000590059807
:101AA0009C48016851F002010160006810F00200DA
:101AB000059005984FF440600090022001900120AD
:101AC0000290032003900820049069469248FFF793
:101AD000A9FD924D92482860042068600020A8600B
:101AE0000020E86080202861002068610020A86153
:101AF0000020E86100202862280003F0B3FA0028E3
:101B000001D003F02EF86567AC6200220021462068
:101B100003F049FD462003F05BFDABE02068794906
:101B2000884251D10120069000200E9006A803F0B3
:101B300025F8002801D003F014F87A48016851F420
:101B400080410160006810F480400590059871485C
:101B5000016851F002010160006810F00200059078
:101B60000598C020009002200190002002900320E0
:101B700003900720049069466748FFF753FD6A4DBC
:101B80006A482860022068600020A8600020E860A1
:101B900080202861002068610020A8610020E861A1
:101BA00000202862280003F05DFA002801D002F02E
:101BB000D8FF6567AC6200220021252003F0F3FC0A
:101BC000252003F005FD55E020685049884251D199
:101BD000042006900020109006A802F0CFFF0028F5
:101BE00001D002F0BEFF5248016851F4802101602B
:101BF000006810F48020059005984648016851F06F
:101C000004010160006810F00400059005984FF48D
:101C10004060009002200190002002900320039079
:101C20000720049069464348FFF7FCFC424D4348B7
:101C30002860022068600020A8600020E860802002
:101C40002861002068610020A8610020E861002070
:101C50002862280003F006FA002801D002F081FF74
:101C60006567AC6200220021272003F09CFC27203E
:101C700003F0AEFC1FB030BD10B5040020681F4952
:101C8000884210D1224801684908490001604FF498
:101C900040612148FFF7A7FD606F03F053FA46202B
:101CA00003F09DFC27E02068164988420FD11D48AB
:101CB000016831F480410160C0211748FFF793FDAE
:101CC000606F03F03FFA252003F089FC13E02068E1
:101CD0000E4988420FD11648016831F48021016015
:101CE0004FF440611348FFF77EFD606F03F02AFA5E
:101CF000272003F074FC10BD541E0020008000401B
:101D0000DC1E002000380140641F00200048004015
:101D10005C1002404C100240000400488C2300205C
:101D20008004024060100240D4230020580002408A
:101D300058100240000800481C24002030000240D7
:101D400080B5184800F0ACFF02201749087001BDAB
:101D500080B501221549164801F01FF90022012122
:101D6000272003F020FC272003F032FC01BD704740
:101D700038B504000B480D490A78036885885A5520
:101D80008288521C8280828840F2FF139A4201D3DB
:101D9000002282800122064801F0FFF8012002495A
:101DA000087031BDF00900202426002023260020E1
:101DB000641F0020C0F3C75181B1FF2906D0C110B4
:101DC000400721F0E04101F16051704741020CBF32
:101DD00040F4E0016FF000410020704700F0004146
:101DE00000020AD0B0FA80FC00FA0CF001F1605158
:101DF000A1EB0C5101EBD02140057047014648B1E1
:101E0000B0FA80F18840C91CC1F58461090501EB75
:101E1000D021400570470268531C03601170704761
:101E200041EC100B01BD80B553EC112B51EC100BA4
:101E300003F0F4FBF4E72E00F0B540F2FF7581EA01
:101E4000030C0CF0004C15EA11541DBF15EA135792
:101E5000AC42AF42E5E0BC41C1F31301C3F313034D
:101E6000801A994143F4801304D2641E4000494112
:101E700080185941C90241EA5051B1FBF3F603FB06
:101E80001611A2FB0675D7EBC020A94102D2761E1F
:101E900080185941C90241EA5051B1FBF3FE03FBDE
:101EA0001E11A2FB0E75D7EBC020A94103D2AEF1E3
:101EB000010E80185941890241EA9051760546EA9F
:101EC0008E2EB1FBF3F603FB1611A2FB0675D7EBC2
:101ED0008020A94102D2761E80185941C90241EAE8
:101EE00050514EEA060EB1FBF3F603FB1611A2FBAE
:101EF0000675D7EBC020A94102D2761E8018594141
:101F0000C90241EA5051B1FBF3F703FB1711A2FBE1
:101F10000735D3EBC020A94167F100070CBF004291
:101F200047F0010766F3D5274FEA1E31B80814F5CC
:101F3000806412DDBD0775F1004250EB0E5051EB8D
:101F4000045111F5801F5CBF41EA0C01F0BD4CF05B
:101F50007F6141F0E0410020F0BDBD076D0840EA1F
:101F60000E5041F48011D4F10104B4F120060ADAD4
:101F7000C4F120060200E04001FA06F3E1401843F4
:101F8000B24015430EE0342C13DCC6F1200445EAC0
:101F900040056D0820FA06F2154321FA06F0A1402B
:101FA0000D43002175F1004250F1000051EB0C018E
:101FB000F0BD00205FEA0C01F0BDCFB992185B4183
:101FC000B3FA83F704BFB2FA82F6BF190B3FB7F139
:101FD00020062FBF02FA06F3BB40C7F1200622FA03
:101FE00006F638BF3343BA401CB1E419641E33E728
:101FF0007F4231F00041B1FA81F404BFB0FA80F6BB
:10200000A4190B3CB4F120062FBF00FA06F1A14041
:10201000C4F1200620FA06F638BF3143A0403C1B2D
:102020001AE7AC421ABF05EA1357AF4212E050EA72
:1020300041061CBF52EA4306BFE750EA410730465B
:1020400061461CBF41EA0551F0BD52EA430C08BF8E
:10205000C143F0BD00204FF4001616EB410F98BFAE
:1020600016EB430F08BF16EB410F24BFC14305E039
:1020700016EB430F0CBF61464CEA0551F0BD000062
:1020800001F000428B1AA3F16051B1F5801F0ADB09
:10209000B1F17F6F1FD242EAC102C10071F100416C
:1020A00042EB507070470B15C3F10903212B10D27E
:1020B000890241EA905180020128494141F00041E2
:1020C00021FA03F0C3F12003994071F1004150411E
:1020D0007047100070476FF0000013EB103F5CBFBB
:1020E000000E42EAC050704780B500224FF40071E4
:1020F000DFF89C0AFFF735FC00224FF400715FF017
:102100009040FFF72EFC03F0FFFDDFF8880ADFF8B0
:10211000881A4A1CC0F828210A1DC0F8402111F174
:10212000140202620A7A80F8252011F118028263F3
:102130004A7A80F83D2011F10C02C0F870210A7A29
:1021400080F8752111F12402C0F888210A7A80F8FC
:102150008D2111F12802C0F8A0210A7A80F8A5216A
:1021600011F11C02C0F8E8210A7A80F8ED2111F182
:102170002002C0F80022497A80F80512DFF81C1A04
:102180000968C0F84812DFF8181A0968C0F8781210
:1021900001BD38B5002000242000C0B2072835DA80
:1021A000DFF8005A2000C0B200012844407801281E
:1021B0002AD12000C0B200012844406800280ED077
:1021C00002F06AFC2100C9B2090129444968401A99
:1021D0002100C9B2090129448968884214D300202A
:1021E0002100C9B209012944487002F055FC2100C0
:1021F000C9B20901294448602000C0B22100C9B217
:1022000009012944C9688847641CC5E7002032BD1C
:1022100038B50400DFF89059687800281FD10022F3
:102220004FF40071DFF86809FFF79BFB00224FF4C1
:1022300000715FF09040FFF794FB03F065FD89208B
:102240000090202307220521DFF8600903F0ACFD90
:10225000012068700221DFF84C09FEF7C1FF012060
:1022600032BD7CB50400DFF848592878002803D037
:10227000022823D003D33DE003F0DEFE3AE003F072
:102280003DFF89200090202307220521DFF81C094B
:1022900003F08AFDDFF81C2903212C2003F09EFEA9
:1022A000DFF814290421082003F098FE03F095FFBD
:1022B00041F28830DFF8EC1888611BE00120DFF87C
:1022C000E818487089200090202307220521DFF8B4
:1022D000DC0803F069FDDFF8CC6802213000FEF76E
:1022E0007FFF03213000FEF77BFF04213000FEF763
:1022F00077FFFFE72878401C28702100C9B2DFF87B
:10230000A408FEF77CFF012076BD70B5040000F044
:10231000BCF8DFF894586878012803D1A87800F059
:1023200062FB04E00021DFF87C08FEF759FFDFF8CC
:102330008C08A9780278914207D0A9780170DFF85B
:1023400080080068DFF87C180860A878082812D197
:10235000DFF870684FF4FA61306800F059FC01282A
:1023600009D1DFF85C0800683060062215F1080129
:10237000A81C00F0F5FC2100C9B2DFF82808FEF720
:102380003EFF012070BD10B50400DFF83C18DFF8F7
:102390003C08006900F03CFC012827D1DFF8300838
:1023A0000178012905D1002101700020DFF8F8171C
:1023B0008870DFF820080188491C018042F2107102
:1023C000DFF8E0272300DBB21B011A449268B1FB5F
:1023D000F2F102888A420DD300210180DFF8C8178C
:1023E0008878002806D00020887003E00120DFF8FC
:1023F000E01708702100C9B2DFF8A807FEF7FFFE5A
:10240000012010BD38B5040003F05AFFDFF8BC57B7
:10241000287A012808D10521DFF88807FEF7E0FEB9
:10242000DFF89C07006828612100C9B2DFF8740753
:10243000FEF7E5FE012032BD10B5040003F026FFD3
:10244000DFF888070021017000210172012010BD12
:1024500010B5040000224FF40051DFF83407FFF7F5
:1024600080FA012010BD10B5040001224FF4005184
:10247000DFF81C07FFF775FADFF82807210089B29B
:1024800081660621FEF7BBFE10BD38B5DFF80847B0
:10249000DFF8440701786170DFF84017407851F8A1
:1024A00020006060207A01F0B9FC00EE100ADFF82D
:1024B0003057B8EE400AD5ED010A20EE200ABDEEF5
:1024C000C00A84ED030A607A01F0A8FC00EE100A4D
:1024D000B8EE400AD5ED020A20EE200ABDEEC00A91
:1024E00084ED040A207A01F099FC00EE100AB8EE9F
:1024F000400AD5ED030A20EE200ABDEEC00A84EDA5
:10250000050A607A01F08AFC00EE100AB8EE400A73
:10251000D5ED040A20EE200ABDEEC00A84ED060ABD
:10252000207A01F07BFC00EE100AB8EE400AD5EDEF
:10253000050A20EE200ABDEEC00A84ED070A607A83
:1025400001F06CFC00EE100AB8EE400AD5ED060A68
:1025500020EE200ABDEEC00A84ED080A207A01F0C0
:102560005DFC00EE100AB8EE400AD5ED070A20EE39
:10257000200ABDEEC00A84ED090A207A01F04EFC63
:1025800000EE100AB8EE400AD5ED080A20EE200A47
:10259000BDEEC00A84ED0A0A31BD2DE9F84F8AB0BC
:1025A00006002021002202AC2000FEF743FE00249A
:1025B000002500208DF8050000208DF80600182762
:1025C000DFF8D0853000C0B27843404490F81590D1
:1025D0003000C0B2784340444068002842D0012116
:1025E0003000C0B200F0A9F900280ED13000C0B20E
:1025F0007843404442683000C0B278434044017D93
:102600004846C0B203F0EAFC1EE05FF0000A30006A
:10261000C0B278434044406804F068FD5146C9B2F6
:10262000814207D2202002A95246D2B288541AF120
:10263000010AECE702AA3000C0B278434044017DB1
:102640004846C0B203F0CAFC3000C0B278434044F0
:10265000406804F04BFDDFF88C150979491C4843AC
:1026600010FA89F93000C0B27843404480680028ED
:1026700000F03A813000C0B278434044007B00282B
:102680000BD002281ED012D3042830D024D3062821
:1026900045D036D307283ED044E03000C0B278435E
:1026A000404480680078002104000D003AE03000CA
:1026B000C0B278434044806890F90000C11704001C
:1026C0000D002FE03000C0B278434044806800889D
:1026D000002104000D0025E03000C0B278434044E2
:1026E0008068B0F90000C11704000D001AE0300046
:1026F000C0B27843404480680068002104000D00A7
:1027000010E03000C0B27843404480680068C117D0
:1027100004000D0006E001208DF8050002E0022013
:102720008DF805009DF8050000280CD13000C0B2DE
:1027300078434044407B40420200D2B202A92000CC
:1027400000F07EFA26E09DF8050001281AD130003D
:10275000C0B278434044806804F0C8FC202819D2F5
:102760003000C0B278434044806804F0BFFC0200EF
:1027700092B23000C0B278434044816802A800F0B1
:10278000EFFA07E03000C0B2784340448068007838
:102790008DF8080002213000C0B200F0CEF8012808
:1027A00023D13000C0B278434044807DC0B20009DC
:1027B0008DF806009DF806000F2805D0202002A9FC
:1027C0009DF80620885410E05FF0000A02A804F08B
:1027D0008DFC5146C9B2814207D2202002A952463F
:1027E000D2B288541AF1010AF0E73000C0B20128D1
:1027F0005ED15FF0000A00208DF804003000C0B206
:1028000078434044407B002802D009208DF8040022
:10281000392000902E2315220F21DFF8CC0304F07D
:1028200081FC02A804F062FC8346DFF8B80300795B
:10283000401C00FB0BFB5846C0B2022190FBF1F09C
:102840001F280BDA5846C0B2022190FBF1F0D0F1FC
:1028500040009DF8041050FA81FA07E05846C0B2D3
:10286000D0F15F009DF8041050FA81FA02AA3000FE
:10287000C0B278434044007D401CC0B2DFF864130E
:102880004979D1EBC001491EC9B25046C0B204F02B
:10289000F3FD5AFA8BF09DF80490B0EB09098920FA
:1028A0000090202307220521C04803F07DFA1BE099
:1028B00089200090202307220521BC4803F074FAE8
:1028C00002AA3000C0B278434044017D4846C0B2FD
:1028D00003F084FB02A804F009FCC2490979491CF1
:1028E000484310FA89F081463000C0B27843404432
:1028F000006900281ED03000C0B278434044806890
:10290000002817D03000C0B2784340448068B749EF
:1029100088420FD03000C0B2784340440269300092
:10292000C0B207FB00F708EB0700017D4846C0B2C4
:1029300003F054FB0BB0BDE8F08FF8B504000D00B8
:1029400094492200D2B21820424301EB0200817D5B
:102950002800C0B201402800C0B281422FD17426A5
:10296000A34F4FF496712800C0B270433844220040
:10297000D2B250F8220000F04BF901282AD12800E9
:10298000C0B206FB00F607EB06002100C9B28C4A74
:10299000126840F821201D2096492A00D2B24243F5
:1029A0000A442300DBB22E00F6B200FB06F0084416
:1029B0002100C9B2405CD0F10100D0540AE08D4939
:1029C0002A00D2B21D20424301EB02002100C9B20D
:1029D000002242548749EDB21D20454301EB05001A
:1029E000E4B2005DF2BD70B50400002603F086FB82
:1029F00000F077F82000C0B200F07DF82000C0B2EF
:102A000000F093F80025280080B21D2811DA6149F2
:102A10002A0092B21820424301EB0200C07D21003F
:102A2000C9B2884203D12800C0B2FFF7B6FD6D1CC1
:102A3000E9E703F0D2FB70BDF0B44271C4780379CA
:102A40002500EDB2AB420AD3F025524E2700FFB26B
:102A500018235F4306EB07039D75641CEFE71823FB
:102A60004C4C85785D4325444679AE75002904D0E9
:102A7000857803FB05F323449960F0BC70472DE98A
:102A8000F84F0700884691469A460A9E0B9DDDF84E
:102A900030B00D9C87F8008087F8019087F802A07D
:102AA000FE703D712200D2B259463800FFF7C4FFD4
:102AB000BDE8F18F10B4010000221000C0B204285C
:102AC0000CD21000C0B2085C4B4B1400E4B21B5D8A
:102AD000984201D0002002E0521CEEE7012010BC19
:102AE000704780B50120009008237F220821002034
:102AF00004F046FD01BD10B504002000C0B200285E
:102B000012D137480078002807D11FA2214890F839
:102B10004410782003F062FA06E01CA21D4890F8E9
:102B20004410782003F05AFA10BD0100C9B20729F9
:102B300024D119490978002906D002290ED008D3DA
:102B4000042915D00FD318E02C49124AC2F890126C
:102B500018E02B490F4AC2F8901213E029490D4A98
:102B6000C2F890120EE028490A4AC2F8901209E011
:102B70002649084AC2F8901204E003E01F49054ABA
:102B8000C2F8901270470000200000004E000000C4
:102B900000080048040100207C00002054040020AC
:102BA000A80000200C0000208C25002048D600083A
:102BB0001726002064DF0008E4DB00081826002048
:102BC000F8250020D0250020C0270900442500203A
:102BD000192600200A260020400A0020C8040020F0
:102BE000042500209C25002020D40008420A002053
:102BF000F81C002034230020B0000020B400002086
:102C0000C4000020D4000020E4000020F4000020D4
:102C100038B504000D00DFF8FC010168200000F069
:102C200006F8A84201D3012000E0002032BD814215
:102C300004D25FF0FF32101A081800E0081A70473B
:102C400038B52DED048B08EE100A0C001500DFEDF1
:102C5000438A2800C0B2FB2810DBB8EEC89A2800CF
:102C6000C0B24042C0B200F08BF829EE009A0021B9
:102C70002000B0EE490A00F0B1F80EE0B8EEC89AB4
:102C80002800C0B200F07CF889EE009A2900C9B291
:102C90002000B0EE490A00F0A1F8BDEC048B31BD74
:102CA00010B400210A00838892B29A4206D2002210
:102CB00003680C00A4B21A55491CF3E70022828075
:102CC00010BC704710B4040013005A1E9BB2002BB6
:102CD00002D02170641CF7E710BC704770B5040087
:102CE0000D001600DFF8240100782100C9B28842E7
:102CF00009D3DFF824211068002804D0310089B2FC
:102D000028001268904770BD38B504000D002800F7
:102D100004F0ECF9020092B229002000C0B2FFF7E3
:102D2000DDFF31BD70B504000D00280004F0DEF9B0
:102D3000020092B229002000C0B2FFF7CFFFDFF8F7
:102D4000DC603068002807D0280004F0CFF90100CB
:102D500089B228003268904770BD00000000000072
:102D600030B404000D0013005A1E9BB2002B04D097
:102D70002B7823706D1C641CF5E730BC7047000095
:102D800010B504002000C0B2FB2816DB2000C0B242
:102D9000D0F5807004F08EFC41EC110B9FED200B00
:102DA000FFF741F853EC102B00201949FFF744F8C6
:102DB000FFF766F900EE100A0FE02000C0B2FFF73F
:102DC0001DF841EC110B9FED160BFFF72CF851ECA1
:102DD000100BFFF755F900EE100A10BD38B52DEDB8
:102DE000028B82B0B0EE408A04000D0018EE100A8B
:102DF000FEF7E0FFCDE900012A000B49200004F0B6
:102E00006BFC02B0BDEC028B31BD0000440A002017
:102E10000000F03FF825002000260020FC250020BF
:102E20000000000000002440B4E1000870B5040078
:102E300001F032FE0500260016F1010F02D0044811
:102E40000078361801F028FE401BB042FAD370BD5E
:102E5000430A002010B50400002C01D1012035E008
:102E6000A0690028FFD1E06F002805D1002084F878
:102E700078002000FEF7EEFD2420E067206800685F
:102E80004008400021680860606A002802D02000E5
:102E900000F0DEFB200000F05FFA012801D10120E4
:102EA00014E02068406830F4904021684860206851
:102EB000806830F02A00216888602068006850F03F
:102EC000010021680860200000F02FFC10BD2DE9F2
:102ED000FC4706000D0017009846F06F202859D1D6
:102EE000002D03D0380080B2002801D1012052E02B
:102EF0000020C6F884002120F06701F0CDFD814656
:102F0000A6F85070A6F85270B068B0F5805F05D191
:102F10003069002802D10024AA4602E02C005FF0AC
:102F2000000AB6F85200002822D0CDF800804B46A7
:102F300000228021300000F061FC002803D0202016
:102F4000F067032027E0002C08D1BAF80000C00584
:102F5000C00D316808851AF1020A03E02078316853
:102F60000885641CB6F85200401EA6F85200D8E747
:102F7000CDF800804B4600224021300000F03EFC9E
:102F8000002803D02020F067032004E02020F06711
:102F9000002000E00220BDE8F68770B505000C00B7
:102FA0001600D5F88000202824D1002C03D0300052
:102FB00080B2002801D101201DE000202866286889
:102FC000DFF8901388420ED02868406800020AD5C6
:102FD000286850E8000F50F0806001002A6842E83D
:102FE00000100028F4D1320092B22100280000F035
:102FF00054FC00E0022070BD2DE9F0470600306867
:10300000C7693068D0F800803068D0F8089040F682
:103010000F043C40002C0BD1B80609D55FEA88604C
:1030200006D5B06E002802D03000B16E88478FE11F
:10303000002C00F0AA805FEAC97005D4DFF808060A
:1030400018EA000F00F0A18017F00100C0B20028BC
:103050000BD05FEAC85008D5012031680862D6F865
:10306000840050F00100C6F88400B8070DD519F0AF
:103070000100C0B2002808D0022031680862D6F8EA
:10308000840050F00400C6F8840078070DD519F0CC
:103090000100C0B2002808D0042031680862D6F8C8
:1030A000840050F00200C6F88400380710D55FEAAB
:1030B000886004D419F00100C0B2002808D00820AC
:1030C00031680862D6F8840050F00800C6F8840021
:1030D00038050CD55FEA481009D54FF40060316817
:1030E0000862D6F8840050F02000C6F88400D6F8B4
:1030F0008400002848D0B80608D55FEA886005D566
:10310000B06E002802D03000B16E8847D6F8840037
:10311000050030688068400602D415F0280F2DD0D5
:10312000300000F09EFC30688068400622D5306890
:10313000083050E8000F30F040000100306810F116
:10314000080242E800100028F1D1706F00280DD06D
:10315000DFF8F804716F8863706F02F0D3F800280D
:1031600012D0706F716F896B88470DE0300004F0EA
:103170000DFB09E0300004F009FB05E0300004F02D
:1031800005FB0020C6F88400E2E0306E012840F024
:10319000BD80F80640F1BA805FEAC86040F1B680B1
:1031A0001020316808623068806840066DD5706F05
:1031B0000068D0F804A0504680B2002852D0504693
:1031C000B6F8581080B288424CD2A6F85AA0706F58
:1031D00000680068800639D4306850E8000F30F489
:1031E00080700100326842E800100028F4D1306895
:1031F000083050E8000F400840000100306810F12E
:10320000080242E800100028F1D13068083050E888
:10321000000F30F040000100306810F1080242E871
:1032200000100028F1D12020C6F880000020306670
:10323000306850E8000F30F010000100326842E8BA
:1032400000100028F4D1706F02F032F8022070668E
:10325000B6F85810B6F85A00091A89B2300004F0CE
:1032600076FA11E05046B6F8581080B288420BD179
:10327000706F00680068800606D502207066B6F898
:103280005810300004F063FA62E0B6F85800B6F85F
:103290005AA0B0EB0A0AB6F85A00002835D05046BA
:1032A00080B2002831D0306850E8000F30F49070C0
:1032B0000100326842E800100028F4D1306808307C
:1032C00050E8000F400840000100306810F108028B
:1032D00042E800100028F1D12020C6F8800000202C
:1032E00030660020B066306850E8000F30F0100003
:1032F0000100326842E800100028F4D10220706614
:10330000514689B2300004F022FA21E0F8020AD5D1
:103310005FEA492007D55FF4801031680862300009
:1033200004F0C6FA14E0380609D55FEA086006D54D
:10333000F06E002802D03000F16E884708E0780671
:1033400006D55FEA486003D5300000F054FCFFE783
:10335000BDE8F087008000402DE9F047040000261A
:10336000DFF8A81920688842FFD0A26820690243CC
:1033700060690243E069024320680368DFF890094E
:1033800003401343206803602068436833F44053CC
:10339000E068034320684360D4F8188020688842BE
:1033A00002D0206A50EA08082068806830F4306053
:1033B00058EA0000226890602068DFF8482A9042AE
:1033C00016D1DFF8440A006810F00300002805D089
:1033D000022805D006D3032806D007E0012760E0C5
:1033E00002275EE004275CE008275AE0102758E037
:1033F0002068DFF8182A904217D1DFF80C0A00681D
:1034000010F00C00002806D0042808D0082804D0AA
:103410000C2806D007E0002743E0022741E00427FC
:103420003FE008273DE010273BE02068DFF8E02977
:10343000904217D1DFF8D009006810F03000002862
:1034400006D0102808D0202804D0302806D007E065
:10345000002726E0022724E0042722E0082720E0B6
:1034600010271EE0206888421AD1DFF89C09006806
:1034700010F44060002809D0B0F5806F0AD0B0F594
:10348000006F05D0B0F5406F06D007E0002708E0D8
:10349000022706E0042704E0082702E0102700E0E6
:1034A00010272068884246D13800C0B2002806D0D4
:1034B000022808D0042809D008280BD00DE004F019
:1034C00067FE81460DE0DFF84C990AE004F0F3FD59
:1034D000814606E04FF4004903E05FF00009012057
:1034E0000600B9F1000F00F0A58061680320414398
:1034F000894505D361684FF480504143494502D264
:103500000120060096E04FF48072606840080021B8
:10351000E2FB09016268002304F0CAFE0500B5F56C
:10352000407F05D3B5F5801F02D22068C56081E0D9
:10353000012006007EE0E069B0F5004F41D138007F
:10354000C0B2002808D001280AD002280CD00428D4
:103550000DD008280FD011E004F01AFE814611E0CA
:1035600004F023FE81460DE0DFF8A8980AE004F09D
:10357000A2FD814606E04FF4004903E05FF0000938
:1035800001200600B9F1000F54D06068400810EB2C
:1035900049006168B0FBF1F00500102D0ED3B5F5C0
:1035A000803F0BD24FF6F0712940C5F34200014332
:1035B0008A46504680B22168C8603BE00120060080
:1035C00038E03800C0B2002808D001280AD002280C
:1035D0000CD004280DD008280FD011E004F0D8FD3D
:1035E000814611E004F0E1FD81460DE0DFF824980A
:1035F0000AE004F060FD814606E04FF4004903E074
:103600005FF0000901200600B9F1000F12D06068D8
:1036100019EB50006168B0FBF1F00500102D07D3E5
:10362000B5F5803F04D2280080B22168C86001E06F
:10363000012006000020A0660020E0663000C0B235
:10364000BDE8F0870000000020010004DD3B000819
:1036500090F82410090707D501684A6832F400423F
:10366000416B0A4301684A6090F82410C90707D5E6
:1036700001684A6832F40032816A0A4301684A608C
:1036800090F82410890707D501684A6832F480321F
:10369000C16A0A4301684A6090F82410490707D5B7
:1036A00001684A6832F48022016B0A4301684A606B
:1036B00090F82410C90607D501688A6832F4805250
:1036C000816B0A4301688A6090F82410890607D547
:1036D00001688A6832F40052C16B0A4301688A604B
:1036E00090F82410490613D501684A6832F4801214
:1036F000016C0A4301684A60016CB1F5801F07D173
:1037000001684A6832F4C002416C0A4301684A60A9
:1037100090F82410090607D501684A6832F400229F
:10372000816C0A4301684A60704738B50400002084
:10373000C4F8840001F0B0F90500206800680007B3
:103740001DD57FF07E4000902B0000225FF4001119
:10375000200000F053F8002811D0206850E8000F36
:1037600030F080000100226842E800100028F4D107
:103770002020E067002084F8780003203DE02068E6
:10378000006840072CD57FF07E4000902B0000227F
:103790005FF48001200000F031F8002820D020687C
:1037A00050E8000F30F490700100226842E80010E9
:1037B0000028F4D12068083050E8000F400840008D
:1037C0000100206810F1080242E800100028F1D141
:1037D0002020C4F88000002084F8780003200CE04A
:1037E0002020E0672020C4F8800000202066002010
:1037F0006066002084F87800002032BD2DE9F04199
:1038000005000E0090461F00069C2868C0693040E5
:10381000B04201D1012000E000204146C9B28842F7
:1038200038D114F1010FF0D001F036F9C01B8442F9
:1038300001D3002C01D103202DE028680068400747
:10384000E3D5802EE1D0402EDFD02868C069000784
:103850000DD5082029680862280000F002F9082028
:10386000C5F88400002085F87800012013E028685E
:10387000C0690005C9D54FF40060296808622800B6
:1038800000F0EFF82020C5F88400002085F87800CB
:10389000032000E00020BDE8F08130B4030059654A
:1038A000A3F85820A3F85A20002098669868B0F52D
:1038B000805F0BD11869002804D140F2FF10A3F8F3
:1038C0005C0023E0FF20A3F85C001FE0986800285C
:1038D0000AD11869002803D1FF20A3F85C0015E085
:1038E0007F20A3F85C0011E09868B0F1805F0AD1F6
:1038F0001869002803D17F20A3F85C0006E03F2070
:10390000A3F85C0002E00020A3F85C000020C3F8EC
:1039100084002220C3F880001868083050E8000FA7
:1039200050F001000400186810F1080545E8004057
:103930000028F1D19868B0F5805F06D11869002899
:1039400003D10FF2D130986602E00FF2D5209866CD
:10395000186900280BD0186850E8000F50F49070D8
:1039600004001D6845E800400028F4D10AE018680A
:1039700050E8000F50F0200004001D6845E80040AA
:103980000028F4D1002030BC704770B504000D0051
:1039900016006565A4F858600020C4F88400222051
:1039A000C4F88000606F002821D00FF21510616FFD
:1039B000C8620FF2B110616F08630FF2D110616F2E
:1039C00048630020616F886333009BB2626D20689A
:1039D00010F12401606F01F01FFC002807D01020B7
:1039E000C4F884002020C4F8800001202AE0206967
:1039F00000280AD0206850E8000F50F480700100C1
:103A0000226842E800100028F4D12068083050E80D
:103A1000000F50F001000100206810F1080242E898
:103A200000100028F1D12068083050E8000F50F055
:103A300040000100206810F1080242E80010002850
:103A4000F1D1002070BD016851E8001F31F0C001C4
:103A50000A00036843E800210029F4D12021C1674E
:103A60007047016851E8001F31F490710A00036843
:103A700043E800210029F4D10168083151E8001F12
:103A8000490849000A00016811F1080343E80021D0
:103A90000029F1D1016E01290AD1016851E8001F06
:103AA00031F010010A00036843E800210029F4D135
:103AB0002021C0F880100021016600218166704736
:103AC00038B50400A56A2068006880063AD4002052
:103AD000A5F85A00286850E8000F30F48070010003
:103AE0002A6842E800100028F4D12868083050E81D
:103AF000000F400840000100286810F1080242E869
:103B000000100028F1D12868083050E8000F30F08C
:103B100040000100286810F1080242E80010002867
:103B2000F1D12020C5F88000286E01280AD128682C
:103B300050E8000F30F0100001002A6842E8001041
:103B40000028F4D100206866286E012805D1B5F858
:103B50005810280003F0FBFD02E0280003F0DCFD14
:103B600031BD000038B50400A56A01206866286EE2
:103B7000012807D1B5F85810490889B2280003F088
:103B8000E6FD02E0280004F0ABFC31BDF8B504000E
:103B9000A56AEE6FD5F8807028688068000607D5A2
:103BA000212E05D10020A5F852002800FFF74BFF79
:103BB00028688068400607D5222F05D10020A5F887
:103BC0005A002800FFF74DFFD5F8840050F0100090
:103BD000C5F88400280003F0D9FDF1BD38B5040014
:103BE000A56A0020A5F85A000020A5F85200280078
:103BF00003F0CCFD31BD10B50400206850E8000F83
:103C000030F040000100226842E800100028F4D1A2
:103C10002020E0670020E066200004F062FC10BD78
:103C200070B50500B5F85C60D5F88000222866D133
:103C30002868808C040016EA0400696D0870686DBD
:103C4000401C6865B5F85A00401EA5F85A00B5F842
:103C50005A00002859D1286850E8000F30F49070BD
:103C600001002A6842E800100028F4D128680830D2
:103C700050E8000F400840000100286810F10802D9
:103C800042E800100028F1D12020C5F88000002073
:103C9000A8660020686628681C4988420ED02868FB
:103CA000406800020AD5286850E8000F30F08060B4
:103CB00001002A6842E800100028F4D1286E01288B
:103CC00019D100202866286850E8000F30F0100055
:103CD00001002A6842E800100028F4D12868C06971
:103CE000C00602D5102029680862B5F858102800CF
:103CF00003F02DFD09E0280003F00EFD05E0286823
:103D0000008B50F008002968088370BD00800040D7
:103D1000F369FFEFF8B50500B5F85C70D5F88000E1
:103D2000222867D12868808C0400686D060017EA95
:103D300004003080686D801C6865B5F85A00401E2C
:103D4000A5F85A00B5F85A00002859D1286850E85B
:103D5000000F30F4907001002A6842E8001000283B
:103D6000F4D12868083050E8000F400840000100F6
:103D7000286810F1080242E800100028F1D1202044
:103D8000C5F880000020A8660020686628682249DF
:103D900088420ED02868406800020AD5286850E89A
:103DA000000F30F0806001002A6842E8001000280F
:103DB000F4D1286E012819D100202866286850E81F
:103DC000000F30F0100001002A6842E800100028BF
:103DD000F4D12868C069C00602D51020296808629D
:103DE000B5F85810280003F0B2FC09E0280003F0F1
:103DF00093FC05E02868008B50F0080029680883D0
:103E0000F1BD00000038014088100240004400402D
:103E1000004800400024F400008000400100080039
:103E2000C0B2002801D1012021E00800C0B2FF2863
:103E300001D10A201BE00800C0B2FE2801D1642095
:103E400015E00800C0B2FD2802D14FF47A700EE0F0
:103E50000800C0B2FC2802D142F2107007E008004E
:103E6000C0B2FB2802D1DFF8980300E001207047C0
:103E70002DE9F24F82469346002000210A260027B2
:103E8000B046B946009A1588BBF1000F08D5DBF1A2
:103E900000042D202A0092B20AF802006D1C00E0F6
:103EA0005C462000002142464B4604F001FA0029FE
:103EB00001D1002808D0A6FB080106FB091107FB69
:103EC000081180468946ECE7404649460A2200230D
:103ED00004F0EEF906000F00002F01D1002E28D0CB
:103EE0002000002132003B0004F0E2F930302900CC
:103EF00089B20AF801006D1CA0465FF0000920009D
:103F0000002132003B0004F0D3F9A6FB002306FB9E
:103F1000013307FB0033B8EB020079EB0301040027
:103F2000300039000A22002304F0C2F906000F0015
:103F3000D2E7009805802800C0B2BDE8F28F2DE9D5
:103F4000FE4F06000F0090460020ADF80000002054
:103F5000002400215FF0000BB7F80090B8F1000FCB
:103F600002D5D8F1000500E0454642463900300050
:103F7000FFF77EFFB7F800A0002D4FD09DF8080096
:103F8000FFF74CFF01008D4205D20A2045431BF18B
:103F9000010B002DF7D15846C0B2002821D0504661
:103FA0000200D2B2324412F8012C2D2A06D00200AF
:103FB000D2B24B4692B29BB29A4208D13022030051
:103FC000DBB2F2541AF1010ABBF1010BE3E7020084
:103FD000D2B2324412F8012C0300DBB2F254401E7C
:103FE000DEE70A20B1FBF0F450468346002C15D0E2
:103FF0000A20B4FBF0F45846C0B2304410F8010C6B
:104000005946C9B27054BBF1010B002CEED12E20E1
:104010005946C9B270541AF1010AE7E7A7F800A09F
:104020005046C0B2BDE8FE8FF0B4049C00252E00BF
:10403000B6B2A6420BD20E88771C0F802F00BFB2FB
:1040400017FA83F7D75DB6B287556D1CEFE7F0BC62
:10405000704700002DE9F34F81B02DED028B9FEDED
:10406000658A002401250026F7EE008A0027380023
:10407000C0B2202864DA0398F84010F00100040070
:104080003800C0B2172829DA18EE900AFDF792FE20
:1040900082468B462000C0B2FDF7B0FE80468946BE
:1040A0003800C0B2D0F117005FF0FF31484303F091
:1040B00001FB41EC110B9FED500BFDF7B4FE51ECF1
:1040C000100B42464B4604F00DFA52465B4604F094
:1040D000DBFAFDF7D5FF08EE900A2FE03800C0B2FA
:1040E0001F2824DA3000C0B2FDF788FE82468B46D6
:1040F0002000C0B2FDF782FE804689463800C0B27B
:10410000173803F0D7FA41EC110B9FED3B0BFDF78D
:104110008AFE51EC100B42464B4604F0E3F952463E
:104120005B4604F0B1FA04F06DFB060006E02000E7
:10413000C0B2012802D15FF0FF3005007F1C96E776
:10414000280040B203F0B6FA804689463000C0B27B
:104150007F3803F0AFFA41EC110B9FED270BFDF711
:1041600062FE51EC100B42464B4604F0BBF9804610
:10417000894618EE900AFDF71DFE42464B4604F0B4
:10418000B1F9FDF77DFF00EE100A049880ED000AFA
:10419000BDEC028BBDE8F78F70B403000022002451
:1041A000002000252A000E00D2B2F6B2B2421FD281
:1041B0002A00D2B29A5C302A0ADB2A00D2B29A5C78
:1041C0003A2A05DA2A00D2B29A5C303A140001E0A9
:1041D000002214002A00D2B2002A03D12200D2B257
:1041E000100003E00A22504350FA84F06D1CD9E716
:1041F00070BC70470000000000000000000000409C
:10420000A086010010B42DED010A00206A460023AB
:10421000042B07D2D45C1900C9B2C9008C402043DA
:104220005B1CF5E712BC70472DE9F74F82B0002602
:104230005FF0000A5FF0000B54465D4600200090DE
:104240000127DDF80C80DDF80890049810F0070FC6
:104250002BD10498C008002182468B4604F048FB0D
:104260004FF47A7004F05CFB00200600300080B24E
:104270000021594517D801D3504514D2D8E900017F
:1042800004000D0022002B004946002004F0D8FA5B
:1042900007003800C0B2012805D019F1080918F14B
:1042A0000808761CE2E704F034FB3800C0B205B021
:1042B000BDE8F08F70B50400012504F019FB06007D
:1042C0004FF47A7004F02CFB3000C0B200280FD1FC
:1042D000C4F3CC20B0F5807F05D20121C4F3CC20FB
:1042E00004F08AFB04E00121C4F3CC2004F084FB39
:1042F0004FF47A7004F014FB05000548016831F0B2
:104300000201016004F005FB2800C0B270BD00008E
:10431000142002402DE9F041C0B004000D00160049
:1043200000274FF480710022E8464046FCF782FFE8
:104330002000FFF7BFFFA5208DF8000030008DF8AA
:1043400001005FF000084046310080B289B2884227
:104350000AD2404680B2285C6946424692B2114475
:10436000887018F10108EEE7B61C300080B2082111
:10437000B6B20836361A90FBF1F001FB0066320047
:1043800092B269462000FFF74FFF002801D00020BD
:1043900000E0012040B0BDE8F081000002000020F4
:1043A000704730B40200DFF81C06002304688588DB
:1043B000635583885B1C8380DFF80C361B780468A8
:1043C0008588635583885B1C8380012030BC7047DF
:1043D000F8B504000D00002000212E0022683300F3
:1043E000DBB2D25C23683700FFB23B445F7857EA08
:1043F00002273A0092B2B2F5807F23DA380080B209
:1044000000281FD0DFF8BC0521683200D2B2895CD9
:1044100002688388D1548188491C818021683200D8
:10442000D2B21144497802688388D1548188491CEA
:104430008180DFF8940541783800C0B200F0C8F8F8
:10444000012000E00020F2BD30B40200DFF8740566
:10445000002304688588635583885B1C8380DFF8AC
:1044600068355B7804688588635583885B1C838026
:10447000012030BC7047F8B504000D000020002179
:104480002E0022683300DBB2D25C23683700FFB213
:104490003B445F7857EA02273A0092B20B2A1FDAB0
:1044A000DFF8200521683200D2B2895C0268838877
:1044B000D1548188491C818021683200D2B21144D4
:1044C000497802688388D1548188491C81803900E9
:1044D000C9B2DFF8F404007800F07AF8012000E0B7
:1044E0000020F2BDF8B504000D000026DFF8DC0462
:1044F00090ED030AFFF786FE0100DFF8C8040A000A
:10450000120A03688788DA558288521C8280026802
:104510008388D1548288521C82800A00120E03685C
:104520008788DA558288521C82800A00120C036840
:104530008788DA558288521C82800120F2BDF8B546
:1045400004000D000026DFF8840490ED040AFFF754
:1045500059FE0100DFF86C040A00120A036887881C
:10456000DA558288521C828002688388D1548288FE
:10457000521C82800A00120E03688788DA558288EE
:10458000521C82800A00120C03688788DA558288E0
:10459000521C82800120F2BD70B504000D00DFF8CE
:1045A0003064012220213000FDF7DBF90A20FEF7FC
:1045B0003DFC4FF47A732A0092B22100DFF8140414
:1045C000FEF785FC002220213000FDF7CAF970BDFE
:1045D0007CB504000D00082100226E463000FCF777
:1045E00029FE0026DFF8E003047045706946027872
:1045F0003300DBB2CA54761C40783200D2B2885401
:10460000761C3200D2B292B26946DFF8CC03FFF7D3
:1046100081FE73BDDFF8C0030078C0B2FF280AD066
:10462000DFF8A403DFF8B41309780170DFF8B013E2
:104630000978417005E0DFF890030621017003213D
:10464000417070472DE9F04F87B0040000275FF0FC
:1046500000085FF000090025DFF88823D2E9000197
:10466000CDE902010026DFF88023D2E90001CDE97F
:104670000401DFF850A35046FEF712FBA08808287B
:10468000C0F29B812068A188084410F8010C2168C1
:10469000A288114411F8021C51EA0021ADF818104B
:1046A000A188891E2068FCF7F8FDADF81A00BDF856
:1046B0001A00BDF81810884240F07D81206800780B
:1046C000C1490978884240F0768120688078216865
:1046D000CF7857EA002720684078032805D00628BD
:1046E0006CD0102800F0C38061E120680079216857
:1046F000497951EA00210D005FF001084046C0B23F
:10470000052836DA5FF01409DFF8E0B24046C0B29F
:1047100009FB00F058444068390089B2884225D12D
:10472000280080B24146C9B209FB01F159448968A9
:1047300088421BDB002100204246D2B209FB02F274
:104740005A44D268904701280FD14046C0B209FBB5
:1047500000F0584480682D1A4046C0B209FB00F9A9
:104760000BEB09008068C71900E002E018F10108AE
:10477000C4E7BAF8040000281FD0BAF804000221E8
:1047800090FBF1F201FB1200002816D1DAF80000CC
:104790000190BAF80400022190FBF1F080B2009081
:1047A0003B009BB203222068017804A8FCF755FE69
:1047B000BDF814100498FFF7EFFEFAE004200100A2
:1047C000C9B2A288921E91420EDA21680200D2B2CA
:1047D000895C029ABDF80C30D154BDF80C10491C0C
:1047E000ADF80C10401CEAE75FF001084046C0B28B
:1047F000052817DA14227D4B4046C0B250431844B6
:104800004068390089B2884209D1002102A8C44613
:104810005FFA8CFC02FB0CF21A441269904718F103
:104820000108E3E7BAF8040000281FD0BAF8040032
:10483000022190FBF1F201FB1200002816D1DAF8F8
:1048400000000190BAF80400022190FBF1F080B260
:1048500000903B009BB206222068017804A8FCF778
:104860004DFEBDF814100498FFF796FEA1E000205D
:104870000600206800792168497951EA00210D007D
:1048800007200100C9B2A288921E91420EDA216867
:104890000200D2B2895C029ABDF80C30D154BDF846
:1048A0000C10491CADF80C10401CEAE7280080B23F
:1048B00040002168897988424DD1BDF80C002168FB
:1048C000897989B2884246D15FF001084046C0B27A
:1048D000052840DA5FF01409DFF810B14046C0B295
:1048E00009FB00F058444068390089B288422FD152
:1048F000280080B24146C9B209FB01F159448968D8
:10490000884225DB310089B202A84246D2B209FBB7
:1049100002F25A4412699047012818D14046C0B2A9
:1049200009FB00F058448068400010FA86F64046C3
:10493000C0B209FB00F0584480682D1A4046C0B24E
:1049400009FB00F90BEB09008068C71900E002E0E1
:1049500018F10108BAE7BAF80400002826D0BAF81E
:104960000400022190FBF1F201FB120000281DD18E
:10497000206880782168C97851EA00210F00DAF8B0
:1049800000000190BAF80400022190FBF1F080B21F
:1049900000903B009BB210222068017804A8FCF72D
:1049A000ADFDBDF814100498FFF7F6FD01E00020FE
:1049B00004E0012002E0002000E0002007B0BDE894
:1049C000F08F0000F4040020400A0020042500209D
:1049D00000040048DC1E002000000208020002085B
:1049E0000300020854E100085CE1000864040020B0
:1049F00062B38B0708D0521E11F8013B00F8013B4F
:104A000000F024808B07F6D1830740F0208000BFA0
:104A1000103A07D330B4B1E83810103AA0E8381093
:104A2000F9D230BC530724BFB1E80810A0E8081041
:104A300044BF51F8043B40F8043BD20724BF31F88F
:104A4000022B20F8022B44BF0B7803707047121F13
:104A500017D35B0009D151F8043B20F8023B1B0C33
:104A6000121F20F8023BF6D20BE051F8043B00F88D
:104A7000013B1B0A20F8023B1B0C121F00F8013BF4
:104A8000F3D238BF121D521E24BF11F8013B00F8AB
:104A9000013BF8D87047000001480068704700BF2C
:104AA000D425002080B503F0F7FF00F011F804F0E2
:104AB00005F804F0EBF8FCF775FF04F017F904F0C3
:104AC000BDF9FCF78BFFFCF7A7FF04F09DFAFEE7AA
:104AD00010B596B04421002205AC2000FCF7AAFBDB
:104AE000142100226C462000FCF7A4FB4FF4007058
:104AF00004F066FC002801D000F033F8182005907F
:104B000001200A9001200B9000200C9060200D9055
:104B100002200F9001201090012011902820129067
:104B200007201390022014900220159005A802F08F
:104B3000C1FE002801D000F014F80F2000900320DF
:104B40000190002002900020039000200490042196
:104B5000684603F0F3F9002801D000F002F816B01F
:104B600010BD72B6FEE710B5044610460A4601466F
:104B70002046FCF75FFB204610BD00002DE9F84FF2
:104B800005005FF0000800272868000527D5686C3D
:104B900000280DD0B0F5000F03D0B0F5400F0DD0B8
:104BA0000DE0DFF82403016851F48031016008E072
:104BB0000021281D00F092F9804602E001E001206A
:104BC00080464046C0B2002808D1DFF80C130A68BE
:104BD00032F44002686C02430A6000E047462868ED
:104BE00080037AD55FF00009DFF8E0A2DAF8000070
:104BF000C0000DD4DAF8000050F08050CAF8000070
:104C0000DAF8000010F080500090009801208146F2
:104C1000DFF8BCB2DBF8000050F48070CBF8000085
:104C2000FFF73AFF0600DBF80000C00506D4FFF7E7
:104C300033FF801B0328F6D3032080464046C0B2D2
:104C400000283FD1DFF88CB2DBF8000010F4407090
:104C50000400002C15D0E86D844212D0DBF800006F
:104C600030F440700400DBF8000050F48030CBF8E2
:104C70000000DBF8000030F48030CBF80000CBF807
:104C80000040E0070FD5FFF707FF0600DBF8000044
:104C9000800708D4FFF700FF801B41F2893188426A
:104CA000F4D3032080464046C0B2002808D1DBF888
:104CB000001031F44071E86D0143CBF8001002E0C0
:104CC000474600E047464846C0B2012805D1DAF819
:104CD000000030F08050CAF800002878C00707D5DF
:104CE000DFF8F4110A6892089200286A02430A6009
:104CF0002878800707D5DFF8E0110A6832F00C0247
:104D0000686A02430A602878400707D5DFF8C811AF
:104D10000A6832F03002A86A02430A6028788006E6
:104D200007D5DFF8B4110A6832F44062E86A02433A
:104D30000A602868800507D5DFF89C110A6832F4FC
:104D40004022E86B02430A602868400507D5DFF877
:104D500088110A6832F44012286C02430A602878ED
:104D6000400607D5DFF870110A6832F44052286B0C
:104D700002430A602878000607D5DFF85C110A684C
:104D800032F44042686B02430A602868C00507D5C8
:104D9000DFF844110A6832F44032A86B02430A601B
:104DA0002868800420D5DFF830110A6832F04062AC
:104DB000A86C02430A60A86CB0F1006F06D1DFF85E
:104DC0000801016851F4801101600DE0A86CB0F198
:104DD000806F09D10121281D00F080F880464046EF
:104DE000C0B2002800D047462868000320D5DFF86D
:104DF000E8100A6832F04062E86C02430A60E86C2E
:104E0000B0F1006F06D1DFF8C000016851F48011E5
:104E100001600DE0E86CB0F1806F09D10121281D1F
:104E200000F05CF880464046C0B2002800D04746FB
:104E30002868400320D5DFF8A0100A6832F04062ED
:104E4000286D02430A60286DB0F1006F06D1DFF8CB
:104E50007800016851F4801101600DE0286DB0F117
:104E6000806F09D10121281D00F038F880464046A6
:104E7000C0B2002800D047462868400415D5DFF8A6
:104E800058100A6832F04052686D02430A60686D3B
:104E9000B0F1805F09D10221281D00F01FF8804683
:104EA0004046C0B2002800D047462868000407D515
:104EB000DFF824100A6832F08042A86D02430A60CD
:104EC0003800C0B2BDE8F28F0C100240581002400A
:104ED0000070004090100240881002402DE9F0411F
:104EE00005000C0000275949086810F0030F12D084
:104EF000086810F003002A68904209D12868002849
:104F000006D00868C0F30210401C6968884232D09D
:104F1000012007002FE02868012804D01BD30328B4
:104F20000FD007D317E04A480068800701D401205A
:104F3000070012E046480068400501D40120070040
:104F40000BE043480268920304D40068400301D494
:104F50000120070001E0012007003800C0B200284E
:104F600009D10A6832F07302286802436868401E5B
:104F700052EA00120A603800C0B2002861D1DFF89E
:104F8000D080D8F8000030F08060C8F80000FFF74B
:104F900083FD0600D8F80000000106D5FFF77CFD70
:104FA000801B0328F6D3032007003800C0B2002876
:104FB00047D1002C0BD127490A6827480240A8682E
:104FC00052EA0022E86852EAC0620A601CE0012C42
:104FD0000DD120490A6821480240A86852EA0022FF
:104FE00028694008401E52EA40520A600CE0194904
:104FF0000A681B480240A86852EA00226869400813
:10500000401E52EA40620A60D8F8000050F080600A
:10501000C8F80000FFF740FD0600D8F800000001C6
:1050200006D4FFF739FD801B0328F6D303200700C1
:105030003800C0B2002804D106490A68A8690243B2
:105040000A603800C0B2BDE8F08100000C100240D8
:105050000010024010100240FF80FF07FF809FFFFA
:10506000FF80FFF930B40100002901D1012067E081
:105070000868624A90420AD20A686148821814207D
:10508000B2FBF0F0800048645E48086409E00A68FA
:105090005D4882181420B2FBF0F0800048645B4841
:1050A0000864022081F82500086802686FF30E1278
:1050B0008B68C868034308690343486903438869E8
:1050C0000343C8690343086A03431A43086802603C
:1050D0008868B0F5804F2AD0086C4A4B984213D1AB
:1050E0004B4803680F2491F8445015F01C05AC4060
:1050F000A343036003684C6891F8445015F01C0505
:10510000AC402343036012E0424803680F2491F847
:10511000445015F01C05AC40A343036003684C6881
:1051200091F8445015F01C05AC4023430360002067
:10513000C863012081F82500002081F824000020A8
:1051400030BC704710B40100002901D1012053E0A8
:1051500008680068400840000A6810600868274A2C
:1051600090420AD20A68264882181420B2FBF0F056
:10517000800048642348086409E00A6822488218CD
:105180001420B2FBF0F0800048642048086400203E
:105190000A681060012091F8442012F01C0290402F
:1051A0000A6C5060086C174A90420AD1184802688D
:1051B0000F2391F8444014F01C04A3409A4302606A
:1051C00009E0144802680F2391F8444014F01C04CD
:1051D000A3409A4302600020C862002008630020B8
:1051E0004863002088630020C863002081F8250000
:1051F000002081F82400002010BC70470804024001
:10520000F8FFFDBF00000240F8FBFDBF00040240B4
:10521000A8000240A80402402DE9F04104000D005E
:1052200016001F005FF0000894F82400012801D147
:1052300002203BE0012084F8240094F82500012896
:105240002DD1022084F825000020E063206800684A
:1052500040084000216808603B003200290020001F
:1052600000F0F8F8206B002806D02068006850F0A5
:105270000E00216808600BE02068006830F0040030
:10528000216808602068006850F00A002168086002
:105290002068006850F001002168086004E00020E8
:1052A00084F82400022080464046C0B2BDE8F08168
:1052B0000100002291F82500022806D00420C863CE
:1052C000002081F8240001201BE00868006830F00D
:1052D0000E000B68186008680068400840000B6802
:1052E0001860012091F8443013F01C0398400B6CB7
:1052F0005860012081F82500002081F8240010006A
:10530000C0B2704738B50400002594F82500022883
:1053100004D00420E063012005001FE0206800683D
:1053200030F00E00216808602068006840084000E6
:1053300021680860012094F8441011F01C01884095
:10534000216C4860012084F82500002084F82400A6
:10535000A06B002802D02000A16B88472800C0B2B3
:1053600032BD70B50400206C056820680668042012
:1053700094F8441011F01C0110FA01F10D4219D0FB
:10538000710717D521680968890605D4216809685D
:1053900031F004012268116094F8441011F01C01EE
:1053A0008840216C4860206B002852D02000216B7F
:1053B00088474EE0022094F8441011F01C0110FAC6
:1053C00001F10D421FD0B1071DD52168096889067A
:1053D00008D42168096831F00A01226811600121AE
:1053E00084F8251094F8441011F01C018840216CB9
:1053F0004860002084F82400E06A002829D02000BA
:10540000E16A884725E0082094F8441011F01C0157
:10541000884005421DD030071BD52068006830F059
:105420000E0021680860012094F8441011F01C015E
:105430008840216C48600120E063012084F8250049
:10544000002084F82400606B002802D02000616BEB
:10545000884770BD30B4012490F8445015F01C0505
:10546000AC40056C6C60046863608468102C04D1E7
:105470000468A2600468E16003E00468A160046855
:10548000E26030BC7047000010B410F00703DFF892
:10549000684122684FF6FF010A40DFF8601151EAC7
:1054A00003210A43226010BC7047DFF84C010068FA
:1054B000C0F3022070470000010049B200290AD45D
:1054C000012210F01F018A40DFF8341103005BB2A3
:1054D0005B0941F823207047010049B200290DD42F
:1054E000012210F01F018A40464903005BB25B09AC
:1054F00041F82320BFF34F8FBFF36F8F704710B475
:10550000020052B2002A05D40A013F4B040064B2E3
:105510001A5508E00A013D4B040064B214F00F0470
:10552000234403F8042C10BC704770B4030013F03C
:105530000704D4F10700052801D3042001E0D4F1C9
:105540000700251D072D01D2002500E0E51E0126DC
:1055500016FA00F0401E0140A94016FA05F56D1E2E
:105560002A401143080070BC704710B50400601E4B
:10557000B0F1807F01D301200EE0601E2449086055
:105580000F215FF0FF30FFF7BAFF002021490860CC
:10559000072021490860002010BD10B5040020003C
:1055A000FFF772FF10BD2DE9F04104000D00160059
:1055B0000027FFF77AFF8046320029004046FFF7B8
:1055C000B4FF0100200040B2FFF799FFBDE8F08171
:1055D00010B50400200040B2FFF76EFF10BD10B5FB
:1055E0000400200040B2FFF777FF10BD10B50400A3
:1055F0002000FFF7BAFF10BD0CED00E00000FA0537
:1056000000E100E080E100E000E400E018ED00E0EF
:1056100014E000E018E000E010E000E02DE9F04DBB
:105620002DED0A8B41EC190B43EC182B51EC180BA8
:1056300020F0000431F0004508BF002C84B000F0D9
:10564000088353EC192B0020DFF88C1603F0FCFEC6
:1056500000F0FF82DFF8141603F0F6FE08D151ECDB
:10566000180B48004015401C02D1090300F0F182DC
:1056700051EC190B48004015401C00F00E8251EC13
:10568000190B31F0004108BF002800F0068251ECF0
:10569000180B48004015401C00F0FF8151EC180B1E
:1056A0004B0043EAD0734200002B08BF002A04D10C
:1056B000B0EE48AAF0EE68AA19E040F23344A4EB39
:1056C0005352352A04DB00F0000001F000410CE0E9
:1056D000202A03DD203AD140914000E001D1002092
:1056E00003E0002AC4BFD040904041EC1A0B51ECBB
:1056F000190BC80F0BD053EC182B51EC1A0B03F0FD
:10570000A3FE04D0AFF300809FED3F9BA3E253ECD8
:10571000192B23F00041B1F5801F22F000000DD2BB
:105720000022002908BF0028009216D06A4651ECDA
:10573000190B03F099FE41EC190B0EE0DFF8AC45B4
:10574000DFF82C7504EB115000903B40DFF8240586
:10575000924643EA000B4BEC19AB51EC190BC80F06
:1057600036D021F0004053EC192B034643EC192BA3
:1057700051EC1A0B4B0043EAD0734200002B08BFD8
:10578000002A04D1B0EE4A0AF0EE6A0A19E040F2AB
:105790003444A4EB5352352A04DB00F0000001F03E
:1057A00000410CE0202A03DD203AD140914000E086
:1057B00001D1002003E0002AC4BFD040904041EC5A
:1057C000100B53EC1A2B51EC100B03F03DFE01D1E2
:1057D000002600E00126009801281DD151EC190B8C
:1057E000DFF89424DFF8943403F076FE14D253ECFF
:1057F000192B00204FF0804102F074FE00279FED2E
:1058000004BB41EC190B27E0FFFFFFFFFFFFFF7F09
:10581000000000000000F03F53EC192B0020DFF8DF
:10582000601402F05FFE9FED78AB53EC1A2B02F090
:105830002BFF02F0E7FFA0F12004204601F03AFF21
:105840000022DFF8403402F04DFE53EC1A2B02F038
:105850001BFF41EC1B0B670151EC190B53EC1B2B8D
:1058600003F052FE41EC1A0B53EC192B51EC1B0BBD
:1058700002F00AFF02460B4651EC1A0BFCF7DCFA69
:1058800041EC190B53EC192B02F02CFE41EC1C0BD4
:1058900053EC1C2BDFF8F003DFF8F01302F022FECC
:1058A000DFF8EC23DFF8EC3302F0EEFE53EC1C2BB8
:1058B00002F018FEDFF8E023DFF8E03302F0E4FE48
:1058C00053EC1C2B02F00EFEDFF8D423DFF8D433A8
:1058D00002F0DAFE53EC1C2B02F004FEDFF8C823C2
:1058E000DFF8C83302F0D0FE53EC1C2B02F0FAFDB7
:1058F000DFF8BC23DFF8BC3302F0C6FE53EC1C2BF0
:1059000002F0F0FDDFF8B023DFF8B03302F0BCFEA8
:1059100053EC1C2B02F0E6FD53EC1A2B03F0F4FDC4
:1059200004460D460020DFF8B01353EC1B2B03F0A8
:10593000EBFD00224FF0804302F0D4FD22462B46BF
:1059400002F0A2FE53EC192B02F0CCFD41EC100B3F
:10595000DFF86C03784400F55A70074453EC1A2BB7
:1059600051EC100B02F090FE41EC190B009801F085
:10597000A1FED7E9002302F087FE41EC1A0B53EC9D
:10598000192BDFF84003DFF8401302F0ABFD53ECB6
:105990001A2B02F079FE53EC182B02F0A3FD002223
:1059A000DFF8283303F098FD41EC1B0B69D301228B
:1059B000C74B03F01BFE61D9C80F53EC1B2B1ABF5A
:1059C0000020C449AB4902F05FFE02F01BFF002239
:1059D000C14BCDE901238046CDF8008053EC192B53
:1059E00051EC180B02F07EFD04460D46D7E902018A
:1059F000D7E9042302F048FE53EC182B02F072FDA5
:105A00009FEDB6BB04E000BF000000000000E03FD7
:105A100053EC1B2B02F066FD22462B4602F034FEAF
:105A200007468B4653EC1A2B51EC180B02F05AFD2B
:105A300004460D46404601F03DFE02460B46204618
:105A4000294603F061FD53EC1B2B02F04BFD3A4657
:105A50005B4602F019FEDDE9012303F0DFFD41ECB6
:105A6000190B31F0004108BF00280AD051EC190B86
:105A700048004015401C06D1090304D19FEDA09BAE
:105A800001E09FED9B9B002E00F0E58051EC190B8F
:105A900081F0004141EC190BDDE051EC190B48009D
:105AA0004015401C02D1090340F0D58051EC180B81
:105AB00048004015401C06D1090304D0B0EE489AB6
:105AC000F0EE689AC7E051EC180B4800012440152D
:105AD000401C61D051EC180B4B0043EAD0734200DC
