:020000040800F2
:10000000682B002015E90008B5E20008B7E20008F7
:10001000B9E20008BBE20008BDE2000800000000F1
:10002000000000000000000000000000BFE2000827
:10003000C1E2000800000000C3E20008C5E20008B9
:100040002DEC000831EC000835EC000839EC000814
:100050003DEC000841EC000845EC000849EC0008C4
:100060004DEC000851EC000855EC000859EC000874
:100070005DEC000815E3000861EC00081FE30008D0
:1000800065EC000869EC00086DEC000871EC0008F4
:1000900075EC000879EC00087DEC000881EC0008A4
:1000A00085EC000889EC00088DEC000891EC000854
:1000B00095EC0008000000000000000099EC00082A
:1000C0009DEC0008A1EC0008A5EC0008A9EC0008D4
:1000D000ADEC000829E30008B1EC000833E30008A8
:1000E000B5EC00083DE3000800000000000000003F
:1000F0000000000000000000000000000000000000
:1001000000000000B9EC000800000000BDEC000891
:100110000000000000000000C1EC0008C5EC000871
:10012000C9EC0008CDEC0008D1EC0008D5EC0008C3
:10013000D9EC0008000000000000000000000000F2
:10014000DDEC0008E1EC0008E5EC0008E9EC000853
:10015000EDEC000847E3000851E30008F1EC00086B
:10016000F5EC0008F9EC0008FDEC000800000000C8
:1001700001ED000805ED000809ED00080000000091
:100180000DED000811ED000815ED000880B5DFF851
:10019000C0090078012806D0022807D0042808D01A
:1001A000082809D00BE000F09DF808E000F0D6FC2C
:1001B00005E000F025FE02E000F06CFFFFE701BD66
:1001C0002DE9F0470024DFF88C592888002804D056
:1001D0002888401E2880002082E0DFF87469307A89
:1001E00000287CD12021DFF8700901F055FB0028A0
:1001F00001D1012700E00027DFF8EC8B0421404605
:1002000001F04AFB002802D15FF0010901E05FF034
:1002100000090221404601F03FFB002802D15FF0B7
:10022000010A01E05FF0000A0121404601F034FBC1
:10023000002801D1012000E0002057EA490757EAD1
:100240008A073C0054EAC0042000C0B2012805D04F
:10025000022803D0042801D0082836D17068401C39
:100260007060706850282FD3347001203072DFF82E
:100270007C1B0868142801D219202880DFF8700B35
:1002800022000378D2B29A4219D10A68521C0A603D
:100290000A681E2A02D20021716014E00A68B42A9A
:1002A00002D2412171600EE00A68F02A02D2462192
:1002B000716008E04E227260F0220A6003E00022C2
:1002C000726000220A60047009E00020DFF8201B41
:1002D0000870282070600020DFF8101B086030785C
:1002E000BDE8F0877FB5DFF80C4BA078002814D06C
:1002F000012836D0022865D0032800F0DC800428CD
:1003000000F05F81052800F01082062800F094823A
:10031000082800F0598300F01ABCDFF83458002098
:10032000E860DFF8D46A0A220021300001F03AFBCD
:1003300030203070302070703020B0703020F0707D
:10034000E8680001801CC0B203900296062001906C
:1003500005200090062300220121A01C02F0C4F811
:10036000F5E3DFF8EC07C168491CC160C1680429E6
:100370001EDBDFF8840A02F0D2F8012815D1A51C93
:100380000622290014F1080001F05AFBF120039025
:10039000002002900C2001900820009008230022E9
:1003A0000221280002F0A0F80BE00020A07008E075
:1003B000C0680001801C0200D2B20021A01C02F023
:1003C00070F8C4E32079082807D073D30A2830D006
:1003D00019D30C2859D042D36CE0A51C0622290061
:1003E00014F1080001F02CFBF12003900020029092
:1003F0000F2001900E2000900E23002203212800E0
:1004000002F072F856E0A51C0622290014F108003B
:1004100001F016FBF12003900020029014200190BF
:1004200012200090122300220421280002F05CF820
:1004300040E0A51C0622290014F1080001F000FB91
:10044000F1200390002002901720019016200090C8
:10045000162300220521280002F046F82AE0A51CF8
:100460000622290014F1080001F0EAFAF1200390B5
:10047000002002901B2001901920009019230022D7
:100480000621280002F030F814E0A51C06222900FD
:1004900014F1080001F0D4FA00200390002002902B
:1004A0001E2001901E2000901E23002207212800FC
:1004B00002F01AF84BE320790E2802D00F2840D022
:1004C0007EE0E078002802D001281FD038E0A61C8A
:1004D0000622310014F1080001F0B2FADFF870567C
:1004E000F220039015F10C0002900F2001900E20D5
:1004F00000900E23E278521CD2B20321300001F0AA
:10050000F3FFDFF8F8084078E86019E0A51C062240
:10051000290014F1080001F093FAF0200390002064
:100520000290212001902120009021230022082107
:10053000280001F0D9FF0120DFF8C0180870FFE79C
:100540003EE0E078002802D001281FD038E0A61C49
:100550000622310014F1080001F072FADFF8F055BC
:10056000F220039015F10C0002900F2001900F2053
:1005700000900F23E278521CD2B20321300001F028
:10058000B3FFDFF878084068E86019E0A51C062290
:10059000290014F1080001F053FAF0200390002024
:1005A0000290212001902120009021230022082187
:1005B000280001F099FF0120DFF840180870FFE7DC
:1005C000C5E22079122806D0C0F0AE80142800F0D1
:1005D0008E8046D3A8E0E078002802D001281FD002
:1005E0003EE0A61C0622310014F1080001F028FAB2
:1005F000DFF85C55F220039015F10C0002901420F6
:100600000190122000901223E278521CD2B20421F1
:10061000300001F069FFDFF8E407406AE8601FE09E
:10062000A51C0622290014F1080001F009FAF020A7
:10063000039000200290212001902120009021238E
:1006400000220821280001F04FFFDFF8381ADFF8F8
:100650000005C06808800222012002F041FCFFE78B
:1006600062E0E078002802D001281FD03EE0A61CFE
:100670000622310014F1080001F0E2F9DFF8D0544D
:10068000F220039015F10C0002901420019012202A
:1006900000901323E278521CD2B20421300001F002
:1006A00023FFDFF85807806AE8601FE0A51C0622D8
:1006B000290014F1080001F0C3F9F0200390002094
:1006C0000290212001902120009021230022082166
:1006D000280001F009FFDFF8AC19DFF87404C068E6
:1006E00008800222022002F0FBFBFFE71CE0A51CB1
:1006F0000622290014F1080001F0A2F9F02003906D
:10070000002002902120019021200090212300222E
:100710000821280001F0E8FEDFF8681900200880B1
:100720000222032002F0DCFB11E22079162802D01D
:10073000172840D07FE0E078002802D001281FD0A1
:1007400038E0A61C0622310014F1080001F078F907
:10075000DFF8FC53F220039015F10C0002901720F3
:100760000190162000901623E278521CD2B2052187
:10077000300001F0B9FEDFF88406C069E86019E0D6
:10078000A51C0622290014F1080001F059F9F020F7
:10079000039000200290212001902120009021232D
:1007A00000220821280001F09FFE0120DFF84C16EE
:1007B0000870FFE73FE0E078002802D001281FD052
:1007C00038E0A61C0622310014F1080001F038F9C7
:1007D000DFF87C53F220039015F10C0002901720F3
:1007E0000190162000901723E278521CD2B2052106
:1007F000300001F079FEDFF80406006AE86019E0D5
:10080000A51C0622290014F1080001F019F9F020B6
:1008100003900020029021200190212000902123AC
:1008200000220821280001F05FFE0120DFF8CC152E
:100830000870FFE7FFE78AE12079192806D0C0F0A9
:10084000C2801B2800F080803FD3BCE0E078002805
:1008500002D001281ED037E0A61C0622310014F178
:10086000080001F0EDF8BA4DF220039015F10C00EC
:1008700002901B200190192000901923E278521C4D
:10088000D2B20621300001F02FFEDFF8FC0700781D
:10089000E86019E0A51C0622290014F1080001F007
:1008A000CFF8F02003900020029021200190212019
:1008B0000090212300220821280001F015FE0120CC
:1008C000DFF838150870FFE77DE0E078002802D0F7
:1008D00001281ED037E0A61C0622310014F10800C2
:1008E00001F0AEF89A4DF220039015F10C00029041
:1008F0001B200190192000901A23E278521CD2B2DA
:100900000621300001F0F0FDDFF8F004006BE86034
:1009100019E0A51C0622290014F1080001F090F846
:10092000F0200390002002902120019021200090CF
:10093000212300220821280001F0D6FD0120DFF844
:10094000BC140870FFE73EE0E078002802D00128E0
:100950001ED037E0A61C0622310014F1080001F079
:100960006FF87B4DF220039015F10C0002901B20D4
:100970000190192000901B23E278521CD2B206216C
:10098000300001F0B1FDDFF87404406BE86019E05D
:10099000A51C0622290014F1080001F051F8F020EE
:1009A000039000200290212001902120009021231B
:1009B00000220821280001F097FD0120DFF83C14F7
:1009C0000870FFE7FFE7C2E0207A032808D0C0F0F4
:1009D000BD80052837D0C0F0B68006286BD0B5E0C2
:1009E000322001F064FA0320DFF810140870A07AB6
:1009F0000E2802D00F2809D024E0DFF890064178B5
:100A00005348C068C0B203F08AF91BE0002001001F
:100A1000C9B20B290FDADFF878160200D2B251F80A
:100A200022104B4AD268914203D1DFF86016487019
:100A300001E0401CEBE7DFF854064178007803F052
:100A40006EF9FFE782E0DFF8B4530320287032200C
:100A500001F02DFAA07A162802D0172815D029E027
:100A6000287A03F06FFB00EE100ADFF8D40AD0ED0D
:100A7000060A374890ED031AB8EEC11AB8EE400ADC
:100A800081EE000A02F0BDFA14E0687A03F05AFB26
:100A900000EE100A2E48D0ED030AF8EEE00AB8EE98
:100AA000400AC0EE800ADFF8980A90ED050A02F0CD
:100AB000A8FAFFE74AE0DFF8445303202870322009
:100AC00001F0F5F9A07A192804D03BD31B2823D0D4
:100AD0000CD337E0DFF8B005D0ED020A90ED010A43
:100AE0001B48C068C0B202F03AFB2BE0A87A03F0C2
:100AF00029FB00EE100ADFF890051549D1ED030A35
:100B0000F8EEE00AB8EE400AC0EE800A90ED010A65
:100B1000007802F024FB15E0A87A03F013FB00EE46
:100B2000100ADFF86405D0ED020A094991ED031AB5
:100B3000B8EEC11AB8EE400A81EE000A007802F061
:100B40000EFBFFE702E002F0BBF9FFE7FFE77FBD26
:100B50007C260020402700200008004810B5A54B47
:100B6000987800280BD002281AD009D3042872D014
:100B700023D3062800F0DF80C0F0AA8032E131E103
:100B80009D48DFF8C019CA68825C521CCB68C25409
:100B9000CA68825C3A2A02DB3022C968425421E1E9
:100BA00058791979884202D21879401E1871F122B9
:100BB0000021981C01F075FC14E1D87800280CD1B4
:100BC00058791979884202D21879401E1871F12299
:100BD0000021981C01F065FC3CE018790E2802D039
:100BE0000F2812D036E0D878002802D0012801D092
:100BF0000AE009E0DFF84C09C168B1F5807F02DA4C
:100C0000C168491CC160FFE724E0D878002802D001
:100C1000012801D01EE01DE000210800C0B20B2811
:100C200017DADFF86C24DFF81C090B00DBB252F88E
:100C30002330C468A3420AD10B00DBB20A2B06DAC8
:100C40000B00DBB202EB83025268C26001E0491C78
:100C5000E3E7FFE7C6E0D87800280CD15879197986
:100C6000884202D21879401E1871F1220021981C86
:100C700001F017FC2BE01879122804D027D3142890
:100C800025D00DD323E0D878002802D0012801D048
:100C900005E004E00020DFF8AC18C860FFE716E0CC
:100CA000D878002802D0012801D00FE00EE0DFF84C
:100CB0009808007A03F046FADFF88818CA68B2EBA1
:100CC000400F02D2C8680A30C860FFE7FFE789E03A
:100CD000D87800280CD158791979884202D218792D
:100CE000401E1871F1220021981C01F0DAFB21E06E
:100CF0001879162802D017280ED01BE0D8780028C3
:100D000002D0012801D006E005E0DFF83808C1680C
:100D1000491CC160FFE70DE0D878002802D0012807
:100D200001D006E005E0DFF81C08C168491CC1607D
:100D3000FFE7FFE756E0D87800280CD158791979F9
:100D4000884202D21879401E1871F1220021981CA5
:100D500001F0A7FB45E01879192804D041D31B28DE
:100D60002BD013D33DE0D878002802D0012801D041
:100D70000BE00AE0DFF8CC17C868002802D1012098
:100D8000C86001E00020C860FFE72AE0D8780028AA
:100D900002D0012801D00FE00EE0DFF8AC07807A26
:100DA00003F0D0F9DFF89C17CA68B2EB400F02D20B
:100DB000C868401CC860FFE713E0D878002802D05C
:100DC000012801D00CE00BE0DFF87807C168DFF8FC
:100DD0007827126B914202DAC168491CC160FFE7B3
:100DE000FFE7FFE710BD000000040048F8260020E0
:100DF00050270020C4260020000000207C00002096
:100E000010B5DFF84837987800280BD002281BD09F
:100E100009D3042872D024D3062800F0D980C0F06A
:100E2000A4802DE12CE1DFF82807DFF81817CA6845
:100E3000825C521ECB68C254CA68825C302A02DAD5
:100E40003922C96842541BE118799979884202D243
:100E50001879401C1871F1220021981C01F021FB27
:100E60000EE1D87800280CD118799979884202D2FD
:100E70001879401C1871F1220021981C01F011FB17
:100E80003BE018790E2802D00F2811D035E0D87831
:100E9000002802D0012801D009E008E0DFF8A4060C
:100EA000C168012902DBC168491EC160FFE724E077
:100EB000D878002802D0012801D01EE01DE00A22C7
:100EC0001000C0B2002817D0714BDFF87816100060
:100ED000C0B253F82000CC68A0420BD11000C0B2C1
:100EE000002807D01000C0B203EB800050F8040CBB
:100EF000C86001E0521EE3E7FFE7C1E0D8780028B0
:100F00000CD118799979884202D21879401C18714D
:100F1000F1220021981C01F0C4FA25E0187912286A
:100F200004D021D314281FD00DD31DE0D878002879
:100F300002D0012801D005E004E00020DFF804160B
:100F4000C860FFE710E0D878002802D0012801D05F
:100F500009E008E0DFF8EC05C1680A2902DBC16896
:100F60000A39C160FFE7FFE78AE0D87800280CD192
:100F700018799979884202D21879401C1871F122A7
:100F80000021981C01F08DFA21E01879162802D072
:100F900017280ED01BE0D878002802D0012801D0F5
:100FA00006E005E0DFF89C05C168491EC160FFE767
:100FB0000DE0D878002802D0012801D006E005E035
:100FC000DFF88005C168491EC160FFE7FFE757E011
:100FD000D87800280CD118799979884202D21879EA
:100FE000401C1871F1220021981C01F05AFA46E0C9
:100FF0001879192804D042D31B2828D013D33EE0F7
:10100000D878002802D0012801D00BE00AE0DFF8F0
:101010003415C868002802D10120C86001E0002012
:10102000C860FFE72BE0D878002802D0012801D063
:101030000CE00BE0DFF80C05DFF80C15496BC2681B
:10104000914202DAC168491EC160FFE717E0D87813
:10105000002802D0012801D010E00FE0DFF8E804FA
:10106000807A03F06FF8DFF8DC2400214843D16870
:10107000884202D2D068401ED060FFE7FFE7FFE75A
:1010800010BD000042270020E0260020240B002095
:10109000B40500207FB5DFF8B444A078002811D053
:1010A000022813D00FD3042800F0868011D306281D
:1010B00000F08781C0F01481082800F03282C0F06F
:1010C00029823BE23AE20020A07037E20020A070C3
:1010D00034E220790E2802D00F2836D06BE0E07879
:1010E000002802D0012816D02EE0A51CF120039084
:1010F000002002900C20019008200090082300227C
:101100000221280001F0F0F90622290014F108005C
:1011100000F096FC18E0A51C0622290014F1080036
:1011200000F08EFCF1200390DFF8280402900F20DD
:1011300001900E2000900E23E078421ED2B20321CF
:10114000280001F0D1F9FFE735E0E078002802D06F
:10115000012816D02EE0A51CF1200390002002905B
:101160000C20019008200090082300220221280072
:1011700001F0BAF90622290014F1080000F060FC21
:1011800018E0A51C0622290014F1080000F058FC04
:10119000F1200390DFF8C00302900F2001900E2091
:1011A00000900F23E078421ED2B20321280001F004
:1011B0009BF9FFE7FFE7C1E12079122805D0C0F0D5
:1011C0008E80142875D03AD389E0E078002802D0C8
:1011D000012816D032E0A51CF120039000200290D7
:1011E0000C200190082000900923002202212800F1
:1011F00001F07AF90622290014F1080000F020FC21
:101200001CE0A61C0622310014F1080000F018FCB6
:10121000CD4DF120039015F124000290142001908F
:10122000122000901223E078421ED2B20421300036
:1012300001F05AF9C348C0686862FFE74FE0E07800
:10124000002802D0012816D032E0A51CF12003901E
:10125000002002900C200190082000900923002219
:101260000221280001F040F90622290014F10800AB
:1012700000F0E6FB1CE0A61C0622310014F1080079
:1012800000F0DEFBB04DF120039015F12800029034
:1012900014200190122000901323E078421ED2B255
:1012A0000421300001F020F9A648C068A862FFE7D9
:1012B00015E0A51CF1200390002002900C20019065
:1012C00008200090092300220221280001F00CF9D7
:1012D0000622290014F1080000F0B2FBFFE72DE11F
:1012E0002079162802D0172835D069E0E078002848
:1012F00002D0012816D02DE0A51CF120039000207B
:1013000002900C200190082000900A230022022164
:10131000280001F0E9F80622290014F1080000F085
:101320008FFB17E0A51C0622290014F1080000F02D
:1013300087FBF12003908948029017200190162026
:1013400000901623E078421ED2B20521280001F059
:10135000CBF8FFE734E0E078002802D0012816D06F
:101360002DE0A51CF1200390002002900C2001909C
:10137000082000900A2300220221280001F0B4F87E
:101380000622290014F1080000F05AFB17E0A51C02
:101390000622290014F1080000F052FBF12003900E
:1013A0006F48029017200190162000901723E078D4
:1013B000421ED2B20521280001F096F8FFE7FFE7B0
:1013C000BCE02079192805D0C0F0A3801B286BD081
:1013D00035D39EE0E078002802D0012816D02DE019
:1013E000A51CF1200390002002900C200190082001
:1013F00000900B2300220221280001F075F806223C
:10140000290014F1080000F01BFB17E0A51C0622C0
:10141000290014F1080000F013FBF120039051485B
:1014200002901B200190192000901923E078421EA1
:10143000D2B20621280001F057F8FFE769E0E07812
:10144000002802D0012816D02DE0A51CF120039021
:10145000002002900C200190082000900B23002215
:101460000221280001F040F80622290014F10800AA
:1014700000F0E6FA17E0A51C0622290014F1080086
:1014800000F0DEFAF1200390374802901B20019013
:10149000192000901A23E078421ED2B206212800BB
:1014A00001F022F8FFE734E0E078002802D00128BC
:1014B00016D02DE0A51CF1200390002002900C20F6
:1014C0000190082000900B2300220221280001F047
:1014D0000BF80622290014F1080000F0B1FA17E019
:1014E000A51C0622290014F1080000F0A9FAF12039
:1014F00003901E4802901B200190192000901B238E
:10150000E078421ED2B20621280000F0EDFFFFE78E
:10151000FFE713E0062214F10801A01C00F090FA86
:101520000CE0094D2878022807D0062214F10801A2
:10153000A01C00F085FA00202870FFE77FBD0000A6
:10154000442600207C2600207C000020C4260020A9
:10155000000000207D000020800000209800002076
:101560009C000020E0260020AC000020B0000020FD
:10157000F8B4030000250868E840002800F0D78090
:1015800001260F6816FA05F007403A00002A00F01D
:10159000CC80087910F00300012804D0087910F0FD
:1015A000030002281DD19F685FF0030C2800C0B221
:1015B00040001CFA00FC37EA0C07D1F80CC02800E8
:1015C000C0B240001CFA00FC5CEA07079F60586844
:1015D000AE40B0434E68C6F30016AE403043040040
:1015E0005C60087910F0030003280ED0DE68032742
:1015F0002800C0B240008740BE438F682800C0B2B8
:10160000400087403E433400DC60087910F003005E
:10161000022818D12800C00803EB8000066A0F27B3
:1016200015F00700C0B280008740BE430F6915F077
:101630000700C0B2800087403E4334002800C00845
:1016400003EB800004621E6803272800C0B240003C
:101650008740BE430F7917F003072800C0B240004F
:1016600087403E4334001C60486810F4403F5CD023
:101670009548066856F001060660006810F0010003
:1016800000900098914F2800800857F820605FF084
:101690000F0C15F00300C0B280001CFA00FC36EA03
:1016A0000C06B3F1904F01D1002414E08848834226
:1016B00001D101240FE08748834201D102240AE0CE
:1016C0008548834201D1032405E08448834201D147
:1016D000042400E0072415F00300C0B28000844019
:1016E00026432800800847F820607D4C20689043FE
:1016F0004F68FF0200D5104320607A4E346894434F
:101700004F68BF0200D514433460774E3068904371
:101710004F68BF0300D510433060744E3468944363
:101720004F68FF0300D5144334606D1C23E7F1BC00
:1017300070472DE9F041030000250800E84000282B
:1017400000F0A880012616FA05F008400200002AE1
:1017500000F09E80DFF874C1280080085CF820004B
:101760000F2715F0030E5FFA8EFE5FEA8E0E17FA52
:101770000EFE1EEA00000400B3F1904F02D15FF0AC
:10178000000E19E05248834202D15FF0010E13E0CF
:101790005048834202D15FF0020E0DE04E48834272
:1017A00002D15FF0030E07E04C48834202D15FF0A4
:1017B000040E01E05FF0070E15F00300C0B28000D8
:1017C0001EFA00FE74452CD14848D0F800E03EEAED
:1017D000020EC0F800E04448D0F800E03EEA020EF5
:1017E000C0F800E03F48D0F800E03EEA020EC0F842
:1017F00000E03B48D0F800E03EEA020EC0F800E00E
:1018000015F00300C0B2800017FA00F004002800B1
:1018100080085CF82000A043AE465FEA9E0E4CF8BC
:101820002E005FF0030C1868AE465FFA8EFE5FEA8A
:101830004E0E1CFA0EFE5EEA000018602800C0087A
:1018400003EB800E2800C00803EB8000D0F8208056
:1018500015F00700C0B28000874038EA0707CEF8CD
:10186000207098682F00FFB27F001CFA07F7B8437A
:1018700098605868AE4030EA06065E60DE68280070
:10188000C0B240001CFA00FC36EA0C0CC3F80CC0D5
:101890006D1C52E7BDE8F081020010690B009BB29D
:1018A000184201D0012000E00020C0B270471300B0
:1018B000DBB2002B03D00B009BB2836102E00B0074
:1018C0009BB2836270470000601002400800014034
:1018D0000004004800080048000C004800100048C0
:1018E000080401400C0401400404014000040140CC
:1018F00038B504000D00DFF8FC010168200000F09D
:1019000006F8A84201D3012000E0002032BD814248
:1019100004D25FF0FF32101A081800E0081A70476E
:1019200038B52DED048B08EE100A0C001500DFED24
:10193000438A2800C0B2FB2810DBB8EEC89A280002
:10194000C0B24042C0B200F08BF829EE009A0021EC
:101950002000B0EE490A00F0B1F80EE0B8EEC89AE7
:101960002800C0B200F07CF889EE009A2900C9B2C4
:101970002000B0EE490A00F0A1F8BDEC048B31BDA7
:1019800010B400210A00838892B29A4206D2002243
:1019900003680C00A4B21A55491CF3E700228280A8
:1019A00010BC704710B4040013005A1E9BB2002BE9
:1019B00002D02170641CF7E710BC704770B50400BA
:1019C0000D001600DFF8240100782100C9B288421A
:1019D00009D3DFF824211068002804D0310089B22F
:1019E00028001268904770BD38B504000D0028002B
:1019F00002F0AEFD020092B229002000C0B2FFF753
:101A0000DDFF31BD70B504000D00280002F0A0FD1F
:101A1000020092B229002000C0B2FFF7CFFFDFF82A
:101A2000DC603068002807D0280002F091FD01003A
:101A300089B228003268904770BD000000000000A5
:101A400030B404000D0013005A1E9BB2002B04D0CA
:101A50002B7823706D1C641CF5E730BC70470000C8
:101A600010B504002000C0B2FB2816DB2000C0B275
:101A7000D0F5807002F0A4FD41EC110B9FED200B1E
:101A800002F0B7FD53EC102B0020194902F0BAFD0B
:101A900002F0DCFE00EE100A0FE02000C0B202F0FF
:101AA00009FF41EC110B9FED160B02F0A2FD51EC6A
:101AB000100B02F0CBFE00EE100A10BD38B52DED74
:101AC000028B82B0B0EE408A04000D0018EE100ABE
:101AD00002F0FEFECDE900012A000B49200002F0D1
:101AE0001BFF02B0BDEC028B31BD0000280B0020B3
:101AF0000000F03F30270020382700203427002046
:101B0000000000000000244014EC000880B5002212
:101B10004FF40071DFF8D80AFFF7C9FE00224FF436
:101B200000715FF09040FFF7C2FE02F015FFDFF892
:101B3000CC0ADFF8CC1A4A1CC0F858210A1DC0F89C
:101B4000702111F12C02026211F11402826311F171
:101B5000180202654A7A80F8552011F10C02C0F88B
:101B6000A0210A7A80F8A52111F12402C0F8B82139
:101B70000A7A80F8BD2111F12802C0F8D0210A7A32
:101B800080F8D52111F11C02C0F818220A7A80F8D9
:101B90001D2211F12002C0F830224A7A80F8352245
:101BA000DFF8602AC0F8602211F13002C0F8782214
:101BB0008A7A80F87D2211F13402C0F89022897A65
:101BC00080F89512DFF8401A0968C0F8D812DFF8DB
:101BD0003C1A0968C0F8081301BD38B5002000247C
:101BE0002000C0B2072835DADFF8245A2000C0B23E
:101BF00000012844407801282AD12000C0B2000109
:101C00002844406800280ED002F0FEFE2100C9B230
:101C1000090129444968401A2100C9B2090129442F
:101C20008968884214D300202100C9B209012944DF
:101C3000487002F0E9FE2100C9B209012944486058
:101C40002000C0B22100C9B209012944C9688847EF
:101C5000641CC5E7002032BD38B50400DFF8B45974
:101C6000687800281FD100224FF40071DFF8800946
:101C7000FFF71DFE00224FF400715FF09040FFF768
:101C800016FE02F069FE892000902023072205211C
:101C9000DFF8840902F0BEFE012068700221DFF83F
:101CA000700902F0FFFF012032BD7CB50400DFF8AF
:101CB0006C592878002803D0022823D003D33DE0B4
:101CC00003F01AF83AE003F08DF889200090202301
:101CD00007220521DFF8400902F09CFEDFF84029C9
:101CE00003212C2002F0B0FFDFF83829042108205E
:101CF00002F0AAFF03F0D3F841F28830DFF81019A0
:101D000088611BE00120DFF80C19487089200090E1
:101D1000202307220521DFF8000902F07BFEDFF80F
:101D2000F0680221300002F0BDFF0321300002F014
:101D3000B9FF0421300002F0B5FFFFE72878401C0E
:101D400028702100C9B2DFF8C80802F0BAFF0120EC
:101D500076BD70B5040000F0BDF8DFF8B8586878BB
:101D6000012803D1A87800F073FB04E00021DFF81C
:101D7000A00802F097FFDFF8B008A9780278914236
:101D800007D0A9780170DFF8A4080068DFF8A01870
:101D90000860A878092812D1DFF894684FF4FA6136
:101DA0003068FFF7A5FD012809D1DFF88008006839
:101DB0003060062215F10801A81CFFF741FE210042
:101DC000C9B2DFF84C0802F07CFF012070BD10B5ED
:101DD0000400DFF86018DFF860080069FFF788FD8D
:101DE000012827D1DFF854080178012905D1002105
:101DF00001700020DFF81C188870DFF844080188A3
:101E0000491C018042F21071DFF804282300DBB284
:101E10001B011A449268B1FBF2F102888A420DD389
:101E200000210180DFF8EC178878002806D0002018
:101E3000887003E00120DFF8041808702100C9B29F
:101E4000DFF8CC0702F03DFF012010BD38B50400DB
:101E5000FEF7B6F9DFF8E057287A012808D1052106
:101E6000DFF8AC0702F01EFFDFF8C007006828614A
:101E70002100C9B2DFF8980702F023FF012032BD2C
:101E800010B50400FEF782F9DFF8AC0700210170FD
:101E900000210172012010BD10B5040000224FF492
:101EA0000051DFF84C07FFF702FD012010BD10B50F
:101EB000040001224FF40051DFF83407FFF7F7FC6C
:101EC000DFF84C07210089B28166062102F0F9FE95
:101ED00010BD000038B5DFF82847DFF86807017843
:101EE0006170DFF86417407851F820006060207A54
:101EF00002F028F900EE100ADFF85057B8EE400A59
:101F0000D5ED010A20EE200ABDEEC00A84ED030AD9
:101F1000607A02F017F900EE100AB8EE400AD5ED2B
:101F2000020A20EE200ABDEEC00A84ED040AFE205B
:101F300002F008F900EE100AB8EE400AD5ED030AE7
:101F400020EE200ABDEEC00A84ED050A607A02F098
:101F5000F9F800EE100AB8EE400AD5ED040A20EEBA
:101F6000200ABDEEC00A84ED060A207A02F0EAF8E3
:101F700000EE100AB8EE400AD5ED050A20EE200A60
:101F8000BDEEC00A84ED070A607A02F0DBF800EECD
:101F9000100AB8EE400AD5ED060A20EE200ABDEE82
:101FA000C00A84ED080ADFF8A80690ED010ADFED0B
:101FB000140A20EE200ABDEEC00A84ED0B0AA07AB6
:101FC00002F0C0F800EE100ADFF83856B8EE400A0A
:101FD000D5ED020A20EE200ABDEEC00A84ED0C0AFF
:101FE000A07A02F0AFF800EE100AB8EE400AD5ED84
:101FF000010A20EE200ABDEEC00A84ED0D0A31BDB3
:102000000000C8422DE9F84F8AB0060020210022C6
:1020100002AC200002F0B0FF0024002500208DF863
:10202000050000208DF806001827DFF8D085300065
:10203000C0B27843404490F815903000C0B2784365
:1020400040444068002842D001213000C0B200F076
:10205000A9F900280ED13000C0B27843404442684C
:102060003000C0B278434044017D4846C0B202F01F
:10207000EBFD1EE05FF0000A3000C0B27843404440
:10208000406802F065FA5146C9B2814207D2202069
:1020900002A95246D2B288541AF1010AECE702AA08
:1020A0003000C0B278434044017D4846C0B202F0DF
:1020B000CBFD3000C0B278434044406802F048FA9B
:1020C000DFF890150979491C484310FA89F9300066
:1020D000C0B2784340448068002800F03A81300064
:1020E000C0B278434044007B00280BD002281ED0A9
:1020F00012D3042830D024D3062845D036D307285D
:102100003ED044E03000C0B278434044806800785C
:10211000002104000D003AE03000C0B27843404492
:10212000806890F90000C11704000D002FE0300016
:10213000C0B27843404480680088002104000D004C
:1021400025E03000C0B2784340448068B0F9000018
:10215000C11704000D001AE03000C0B278434044BB
:1021600080680068002104000D0010E03000C0B25B
:102170007843404480680068C11704000D0006E001
:1021800001208DF8050002E002208DF805009DF881
:10219000050000280CD13000C0B278434044407B99
:1021A00040420200D2B202A92000FFF7B9FB26E0AC
:1021B0009DF8050001281AD13000C0B27843404490
:1021C000806802F0C5F9202819D23000C0B27843E7
:1021D0004044806802F0BCF9020092B23000C0B204
:1021E00078434044816802A8FFF72AFC07E03000EA
:1021F000C0B278434044806800788DF8080002211E
:102200003000C0B200F0CEF8012823D13000C0B2B7
:1022100078434044807DC0B200098DF806009DF8E7
:1022200006000F2805D0202002A99DF8062088541A
:1022300010E05FF0000A02A802F08AF95146C9B224
:10224000814207D2202002A95246D2B288541AF104
:10225000010AF0E73000C0B202285ED15FF0000A48
:1022600000208DF804003000C0B278434044407B29
:10227000002802D009208DF80400392000902E2378
:1022800015220F21DFF8D00302F0AAFE02A802F007
:102290005FF98346DFF8BC030079401C00FB0BFBB1
:1022A0005846C0B2022190FBF1F01F280BDA5846C5
:1022B000C0B2022190FBF1F0D0F140009DF8041073
:1022C00050FA81FA07E05846C0B2D0F15F009DF89D
:1022D000041050FA81FA02AA3000C0B27843404498
:1022E000007D401CC0B2DFF86C134979D1EBC0010E
:1022F000491EC9B25046C0B203F01CF85AFA8BF01E
:102300009DF80490B0EB0909892000902023072252
:102310000521C14802F07EFB1BE0892000902023AC
:1023200007220521BC4802F075FB02AA3000C0B2AA
:1023300078434044017D4846C0B202F085FC02A8C3
:1023400002F006F9C3490979491C484310FA89F09B
:1023500081463000C0B278434044006900281ED056
:102360003000C0B2784340448068002817D0300065
:10237000C0B2784340448068B84988420FD03000EA
:10238000C0B27843404402693000C0B207FB00F796
:1023900008EB0700017D4846C0B202F055FC0BB0C7
:1023A000BDE8F08FF8B504000D0094492200D2B2C8
:1023B0001820424301EB0200817D2800C0B2014099
:1023C0002800C0B281422FD18C26A54F4FF49671C0
:1023D0002800C0B2704338442200D2B250F8220024
:1023E000FFF786FA01282AD12800C0B206FB00F6C2
:1023F00007EB06002100C9B28C4A126840F8212080
:10240000232098492A00D2B242430A442300DBB277
:102410002E00F6B200FB06F008442100C9B2405C71
:10242000D0F10100D0540AE08E492A00D2B2232014
:10243000424301EB02002100C9B200224254894903
:10244000EDB22320454301EB0500E4B2005DF2BD8F
:1024500070B50400002602F0C5FC00F077F82000FB
:10246000C0B200F07DF82000C0B200F093F8002563
:10247000280080B2232811DA60492A0092B218207D
:10248000424301EB0200C07D2100C9B2884203D162
:102490002800C0B2FFF7B6FD6D1CE9E702F0FFFCB3
:1024A00070BDF0B44271C47803792500EDB2AB423F
:1024B0000AD3F025514E2700FFB218235F4306EBE5
:1024C00007039D75641CEFE718234C4C85785D432A
:1024D00025444679AE75002904D0857803FB05F3C1
:1024E00023449960F0BC70472DE9F84F07008846F7
:1024F00091469A460A9E0B9DDDF830B00D9C87F8F8
:10250000008087F8019087F802A0FE703D712200DC
:10251000D2B259463800FFF7C4FFBDE8F18F10B4BE
:10252000010000221000C0B204280CD21000C0B27A
:10253000085C4D4B1400E4B21B5D984201D00020B2
:1025400002E0521CEEE7012010BC704780B501206C
:10255000009008237F220821002002F06FFF01BDB8
:1025600010B504002000C0B2002812D1374800780E
:10257000002807D11FA2214890F85C10782002F0B3
:1025800063FB06E01CA21D4890F85C10782002F066
:102590005BFB10BD0100C9B2082924D11849097894
:1025A000002906D002290ED008D3042915D00FD354
:1025B00018E02E49114AC2F8201318E02C490F4A9E
:1025C000C2F8201313E02B490C4AC2F820130EE086
:1025D00029490A4AC2F8201309E02849074AC2F8E3
:1025E000201304E003E02149044AC2F82013704795
:1025F00000080048200000004E00000010010020EC
:102600007C000020E0260020F0040020B400002020
:102610000C000020C4260020A0E000085127002064
:10262000C4E9000808E600085227002030270020EF
:1026300008270020C02709007C26002053270020FF
:1026400044270020240B0020B4050020442600204D
:10265000B0060020D426002078DE0008260B0020DB
:10266000DC1D002098230020BC000020C0000020BA
:10267000D0000020E0000020F00000200001002039
:1026800010B504000121DFF84C0D02F01AFB012007
:1026900010BD30B587B004001421002202AD28001F
:1026A00002F06AFCDFF8840BD0E90023CDE90023B7
:1026B00002A80090DFF8785B2978684600F0A8F956
:1026C00028786870BDF80410009800F07AFC28782B
:1026D000002801D000202870DFF8F85C02212800D3
:1026E00002F0E0FA0321280002F0EBFA2100C9B25F
:1026F000280002F0E6FA012007B030BD10B5040052
:10270000DFF8D01B8888002810D0DFF8CC0B0288B7
:102710008B889A4208D1002101800321DFF8B40C94
:1027200002F0C0FA012008E0898801802100C9B2C6
:10273000DFF8A00C02F0C5FA012010BD2DE9F04130
:10274000040000250026DFF88C7BB88803283DDBD9
:102750003868B988084410F8010C3968BA881144FF
:1027600011F8021C51EA00210E00B988891E386850
:1027700002F0FEFE05002800310080B289B28842D6
:102780001DD10721DFF84C0C02F09BFA3868007865
:102790000A280DD1DFF8988A012198F8010000F08D
:1027A00050F998F80120D7E9000100F03AF913E058
:1027B0000021DFF87C0A407800F043F90CE00021AA
:1027C000DFF86C0A407800F03CF905E00021DFF802
:1027D000600A407800F035F9DFF8540A407800F0DC
:1027E000AFF80221DFF8EC0B02F07DFA0120BDE822
:1027F000F0810100DFF8780D0278032A01D004226D
:1028000002700120704701000120704710B50400DC
:10281000DFF8C40B0178012936D1DFF8C01BC97875
:10282000012931D1DFF8B81B91ED030AD0ED020A7E
:10283000B4EE600AF1EE10FA08DA91ED030AD0ED79
:10284000010AB4EE600AF1EE10FA0ED501224FF43F
:1028500000615FF09040FFF72AF801224FF48051A9
:102860005FF09040FFF723F81CE000224FF4006176
:102870005FF09040FFF71BF800224FF480515FF0AB
:102880009040FFF714F80DE000224FF400615FF074
:102890009040FFF70CF800224FF480515FF0904019
:1028A000FFF705F8DFF82C0B4FF47A7181662100F1
:1028B000C9B202F006FA012010BD38B50400DFF8F5
:1028C000BC1B087800281FD101200870DFF8B05B1E
:1028D000012210212800FEF7EAFF0022082128002B
:1028E000FEF7E5FF00220421DFF8980BFEF7DFFF7B
:1028F0004FF4FA60DFF8DC1A886703F01BF803F086
:10290000C4F903F0B3F912E0002008700122082195
:10291000DFF86C0BFEF7CBFF01220421DFF8640B1C
:10292000FEF7C5FF4EF66020DFF8A81A8867210081
:10293000C9B2DFF8A00A02F0C4F9012032BD0000DC
:1029400038B52DED028B04009FEDC28A2000C0B285
:10295000002842D1DFF8885A95ED010ADFEDBE0A62
:1029600020EE200ABDEEC00A10EE100A00F0C6F9F3
:1029700085ED010A95ED010A00F02EFA85ED030AB6
:1029800095ED020A00F088FA85ED040A95ED040A37
:10299000D5ED060A30EE200A85ED040A95ED030A0E
:1029A000D5ED050A30EE200AB0EE408A9FEDAB0A65
:1029B000B4EE408AF1EE10FA02DBB0EE000A09E054
:1029C000B5EE408AF1EE10FA02D59FEDA20A01E0C1
:1029D000B0EE480A85ED030AFFE7DFF8045A2878CD
:1029E000002807D10020686095ED010A00F0F4F995
:1029F00085ED030A2878002807D10020A86095ED0E
:102A0000020A00F049FA85ED040ABDEC028B31BDE3
:102A100038B504000D002900C9B2200000F01BF8F1
:102A200031BD70B504000D00160020000078C0B262
:102A30000A2805D13200D2B22000290000F062F845
:102A400070BD38B504000D002900C9B22000C0B225
:102A500000F0CCF831BD3EB504000D002800C0B236
:102A6000002805D0022821D00BD3032833D047E01B
:102A700004200090002303220A21200002F096FD8A
:102A80003EE0DFF8B80B818802290ED10168019180
:102A90008088022190FBF1F080B200904FF48053C7
:102AA00006220A21200002F0CFFD29E0DFF88C0B7E
:102AB000818802290ED1016801918088022190FB52
:102AC000F1F080B2009041F2040306220A212000B6
:102AD00002F0BAFD14E0DFF8640B818802290ED100
:102AE000016801918088022190FBF1F080B2009092
:102AF00042F2200306220A21200002F0A5FDFFE792
:102B000037BD00002DE9F84F2DED028B82B0040097
:102B10000D0091460020ADF800009FED4E8A002682
:102B20004846C0B2002803D0401E022856D958E0BB
:102B30000320ADF8000002226946200000F00EFAE2
:102B400008EE900A02226946200000F007FA80464B
:102B5000DFF88C78B8EE680A10EE100A01F0B8FEC3
:102B600082468B46404601F0A5FE41EC110B9FEDDD
:102B7000D20B01F03EFD53EC102B5046594601F0AC
:102B800041FD01F063FE786002226946200000F0FA
:102B9000E5F900EE100AB0EE408A022269462000F4
:102BA00000F0DCF90600B8EE480A10EE100A01F059
:102BB0008FFE82468B46300001F07CFE41EC110B0B
:102BC0009FEDBD0B01F015FD53EC102B50465946FF
:102BD00001F018FD01F03AFEB86002E000F05DF986
:102BE000FFE702B0BDEC028BBDE8F18F0200D2B26C
:102BF000002A032A1BD80A00D2B2012A0ED1DFF81C
:102C0000E02700235370012313700200D2B2002A80
:102C10000CD10122DFF8C437DA7007E0DFF8C027F3
:102C20005378032B02DA53785B1C5370FFE7DFF80D
:102C3000B0375A78002A0CD05A78032A09DB0022D0
:102C40001A7000225A6000229A600022DFF88C3746
:102C5000DA7070470000000000007A440100004074
:102C60002DE9F04100242500EDB20A2D43DA0025BC
:102C70002E00F6B2092E3CDA2E00F6B201EB8606E3
:102C800076682F00FFB251F82770BE422FDA002677
:102C90002F00FFB251F82770AC465FFA8CFC01EBB5
:102CA0008C0CDCF804C0AE465FFA8EFE41F82EC0F4
:102CB000AC465FFA8CFC01EB8C0CCCF80470AC4693
:102CC0005FFA8CFC50F82CC0AE465FFA8EFE00EB2B
:102CD0008E0EDEF804E0A8465FFA88F840F828E097
:102CE000AE465FFA8EFE00EB8E0ECEF804C06D1C71
:102CF000BEE7641CB7E7BDE8F081000038B52DEDF4
:102D0000028B04009FED948ADFF8341908780028BC
:102D10002AD10120087000210800C0B20A2815DA63
:102D20000800C0B2DFF81C290B00DBB242F8230018
:102D3000DFF814290800C0B252F82000002803D19F
:102D40000800C0B242F82040491CE5E7DFF8F85817
:102D5000092300222900DFF8EC08FFF781FF95ED39
:102D6000050AB8EEC00A30E000200100C9B20A2905
:102D70001EDADFF8D0180200D2B251F82220092A58
:102D80000BD100220300DBB241F82320DFF8B81892
:102D90000200D2B241F8224008E00200D2B251F85B
:102DA0002220521C0300DBB241F82320401CDCE748
:102DB000DFF89458092300222900DFF88808FFF77C
:102DC0004FFF95ED050AB8EEC00ADFEDBC0A80EEB4
:102DD000200ABDEC028B31BDF0EE400A9FEDB81A1F
:102DE0009FEDB83ADFED5C3AF5EE400AF1EE10FAED
:102DF00040D0F0EE603A9FEDB40ADFF8500890ED55
:102E0000004A34EE634AB4EE404AF1EE10FA08DAB2
:102E100090ED004A33EEC44AB4EE404AF1EE10FAA7
:102E200003DB9FEDA60A21EE001ADFF8240890EDDF
:102E3000000AF0EE401ADFF81C1891ED000A30EE9F
:102E4000010AB0EE402A32EE030A82EE000AF0EEEA
:102E5000402A33EEE10AB0EE614A00EE224A80EDEC
:102E6000004AB7EE000A30EE620A20EE020A81ED57
:102E7000000A08E0DFF8DC075FF07E510160DFF850
:102E8000D00700210160DFF8C807DFF8C01702682B
:102E90000A6090ED000A7047704780B50320DFF8A4
:102EA000D01608700421DFF82C0501F01CFF322039
:102EB000FEF7FDFF01BD00000000000000002440FF
:102EC00080B5DFF894070078D94908700220DFF850
:102ED000A01608700421DFF8FC0401F0F2FE01BD29
:102EE0002DE9F04104000D0016002F00DFF84C879B
:102EF0004046FEF745FD300080B2022802D004288B
:102F00000BD01DE07878D8F8001008703878D8F821
:102F100000104870A8F8046015E07878D8F8001020
:102F200008703878D8F800104870F878D8F8001091
:102F30008870B878D8F80010C870A8F8046002E06B
:102F40000020A8F80400DFF8100704700120DFF863
:102F50000C170870BDE8F08100000000F0B4030019
:102F600000200C881500EDB2042D16D12500ADB25D
:102F70001D44AE782500ADB21D44ED7855EA062516
:102F80002600B6B29E5D2700BFB21F447F7857EA85
:102F9000062757EA054738000DE01500EDB2022D6F
:102FA00009D12500ADB25D5D2600B6B21E4476782B
:102FB00056EA052630000D8855FA82F50D80F0BCE2
:102FC000704770B504000D00DFF8946601224FF4DD
:102FD00080513000FEF76BFC0A2002F079FE02F00F
:102FE0003DFE4FF47A732A0092B22100DFF8740696
:102FF00002F0BFFE00224FF480513000FEF757FC74
:1030000070BD2DE9F0412DED028B8EB0F0EE408ABF
:10301000B0EE608A322100226C46200001F0ACFF45
:10302000002700240025DFF8B883C8ED058A88ED65
:10303000068A98ED050A01F079FA060098ED060A6D
:1030400001F074FA804668463100090E3A00D2B2A7
:1030500081547F1C3100090C3A00D2B281547F1C8C
:103060003100090A3A00D2B281547F1C3900C9B23A
:1030700046547F1C4146090E3A00D2B281547F1C4F
:103080004146090C3A00D2B281547F1C4146090ADC
:103090003A00D2B281547F1C3900C9B200F80180D5
:1030A0007F1C3A00D2B292B26946DFF8BC0503F049
:1030B0007DFE0EB0BDEC028BBDE8F08100007A44CD
:1030C00095BFD63317B7D1380100004070B5002442
:1030D0000025DFF894050078C0B2FF2839D0DFF86A
:1030E0008C050178C9B20906DFF884050078C0B202
:1030F00051EA0041DFF87C050078C0B251EA0021B6
:10310000DFF874050078C0B201430C00DFF86C05ED
:103110000178C9B20906DFF868050078C0B251EA43
:103120000041DFF860050078C0B251EA0021DFF805
:1031300058050078C0B201430D00A94E16F11401E4
:10314000200001F01BF916F11801280001F016F912
:1031500004E0A348002141610021816170BD2DE997
:10316000F0472DED028B8EB00400F0EE408AB0EEF9
:10317000608A322100226D46280001F0FDFE002504
:1031800000260027DFF850A28AF800408AED028A64
:10319000CAED018A9AED020A01F0C8F980469AED5B
:1031A000010A01F0C3F9814668469AF800102A0026
:1031B000D2B281546D1C4146090E2A00D2B281540C
:1031C0006D1C4146090C2A00D2B281546D1C414647
:1031D000090A2A00D2B281546D1C2900C9B200F834
:1031E00001806D1C4946090E2A00D2B281546D1C23
:1031F0004946090C2A00D2B281546D1C4946090A7D
:103200002A00D2B281546D1C2900C9B200F8019085
:103210006D1C2A00D2B292B26946DFF8700403F046
:10322000C5FD0EB0BDEC028BBDE8F087CCEB00080D
:103230004C27002070B500240025DFF850040078EA
:10324000C0B2FF283CD0644EDFF8440400783070F0
:10325000DFF840040178C9B20906DFF83C040078C1
:10326000C0B251EA0041DFF834040078C0B251EA3C
:103270000021DFF82C040078C0B201430C00DFF815
:1032800024040178C9B20906DFF81C040078C0B232
:1032900051EA0041DFF814040078C0B251EA00217D
:1032A000DFF80C040078C0B201430D0016F10801EC
:1032B000200001F063F8311D280001F05FF807E0FD
:1032C0004548002101705FF080418160002141602C
:1032D00070BD0000D40A00204A27002078B591B0C4
:1032E00004000D003C21002202AE300001F044FE3B
:1032F0000020ADF804000321022000F010FD0B2097
:1033000000900023DFF8AC2301A902A801F020F807
:103310004FF47A73BDF8042002A9DFF89C0302F091
:1033200028FD12B070BD78B591B004000D003C21AD
:10333000002202AE300001F01FFE0020ADF80400B4
:10334000C94803F003FDD14803F000FD22480021E5
:1033500001705FF080418160002141600D2000908C
:103360000023D64A01A902A800F0F2FF4FF47A73B5
:10337000BDF8042002A9D04802F0FBFC12B070BDD9
:1033800038B590B004000D0003A8CD49322203F0F7
:1033900051FDCC48D0E90023CDE9012303A80190D9
:1033A0000023C948027802A903A800F05CFF0220AC
:1033B000009000237EA202A903A800F0C9FF4FF4E9
:1033C0007A73BDF808200199BB4802F0D2FC11B015
:1033D00030BD000028060020E02600201C27002029
:1033E00044260020F8B504000D000026206800786F
:1033F00030283ADB206800783A2836DA00270020A7
:103400000100C9B2A28889B291420FD2216802009C
:10341000D2B2895C302905DB21680200D2B2895C16
:103420003A2900DB02E07F1C401CE9E73900C9B201
:10343000206801F045F80600B6F5807F0DD2A2485D
:1034400041783000C0B200F06AFC4FF47A73022277
:1034500079A1994802F08DFC0EE04FF47A730522B1
:103460009A49954802F085FC06E04FF47A730522EC
:103470009649914802F07DFCF1BD000059270020DB
:1034800000040048000C004838B590B004000D005E
:1034900003A88F49322203F0CDFC8E48D0E90023E7
:1034A000CDE9012303A8019000238748427802A9AF
:1034B00003A800F0D8FE0220009000233CA202A93D
:1034C00003A800F045FF4FF47A73BDF80820019976
:1034D000794802F04EFC11B030BDF8B504000D0083
:1034E000002620680078302839DB206800783A28E8
:1034F00035DA002700200100C9B2A28889B29142C2
:103500000FD221680200D2B2895C302905DB216824
:103510000200D2B2895C3A2900DB02E07F1C401C29
:10352000E9E73900C9B2206800F0CAFF06000C2E96
:103530000DD23100C9B26448007800F0F0FB4FF4BE
:103540007A7302223CA15C4802F013FC0EE04FF4B7
:103550007A7305225D49584802F00BFC06E04FF4EF
:103560007A7305225949544802F003FCF1BD00006A
:103570007C00002080B5FFF7A9FDFFF75BFE5648F1
:103580005649C0F8A4135649C0F8B4135549C0F8B9
:10359000C4135549C0F8D4135449C0F8E41354492E
:1035A000C0F8F41302F071FB02F060FB01BD0000F3
:1035B0000D0A000070B50020002400252800C0B2CC
:1035C000082836DA4B4E2800C0B20001304440785B
:1035D00001282CD1012004002800C0B20001304491
:1035E000406800280ED001F00FFA2900C9B2090185
:1035F00031444968401A2900C9B209013144896837
:10360000884214D300202900C9B20901314448700E
:1036100001F0FAF92900C9B20901314448602800D3
:10362000C0B22900C9B209013144C96888476D1C7C
:10363000C4E72000C0B270BD4F4B0000A8060020B8
:103640005A270020D0250020F8250020242700201C
:1036500020270020B8060020582700207C000020EA
:103660000008004890200020000802080208020814
:1036700003080208040802080508020806080208F0
:1036800007080208080802080908020800100208D2
:1036900002100208031002080410020805100208B4
:1036A0000610020807100208081002080910020894
:1036B0000A100208DCE90008801F002044E7000827
:1036C00020D60008D4EB0008240B0020C4EB00082F
:1036D00018E40008DCEB0008C4060020DD32000816
:1036E0002733000881330008E533000889340008D7
:1036F000DB3400082806002002000020704730B4A8
:103700000200DFF80C0A002304688588635583886B
:103710005B1C8380DFF8FC391B780468858863555F
:1037200083885B1C8380012030BC7047F8B504009F
:103730000D00002000212E0022683300DBB2D25C95
:1037400023683700FFB23B445F7857EA02273A000C
:1037500092B2B2F5807F23DA380080B200281FD001
:10376000DFF8AC0921683200D2B2895C0268838834
:10377000D1548188491C818021683200D2B2114421
:10378000497802688388D1548188491C8180DFF898
:10379000840941783800C0B200F0C1FA012000E08D
:1037A0000020F2BD30B40200DFF864090023046891
:1037B0008588635583885B1C8380DFF858395B7884
:1037C00004688588635583885B1C8380012030BC36
:1037D0007047F8B504000D00002000212E0022687B
:1037E0003300DBB2D25C23683700FFB23B445F7822
:1037F00057EA02273A0092B20B2A1FDADFF81009C3
:1038000021683200D2B2895C02688388D1548188F1
:10381000491C818021683200D2B211444978026883
:103820008388D1548188491C81803900C9B2DFF86E
:10383000E408007800F073FA012000E00020F2BDF7
:10384000F8B504000D000026DFF8CC0890ED030A5F
:1038500000F06CFE0100DFF8B8080A00120A0368E5
:103860008788DA558288521C828002688388D15406
:103870008288521C82800A00120E03688788DA55FB
:103880008288521C82800A00120C03688788DA55ED
:103890008288521C82800120F2BDF8B504000D0020
:1038A0000026DFF8740890ED040A00F03FFE0100E6
:1038B000DFF85C080A00120A03688788DA558288F4
:1038C000521C828002688388D1548288521C828074
:1038D0000A00120E03688788DA558288521C82809B
:1038E0000A00120C03688788DA558288521C82808D
:1038F0000120F2BDF8B504000D000026DFF81C0819
:1039000090ED010A00F012FE0100DFF804080A0041
:10391000120A03688788DA558288521C82800268FE
:103920008388D1548288521C82800A00120E036858
:103930008788DA558288521C82800A00120C03683C
:103940008788DA558288521C82800120F2BD2DE9D9
:10395000F84304000D000026002000900027A84630
:1039600020684146C9B20844817820684246D2B2F4
:103970001044C07850EA012021684246D2B2895CE6
:1039800022684346DBB21A4492F8019059EA0129B1
:1039900059EA0049DFF8780721684246D2B2895CCB
:1039A00002688388D1548188491C818021684246FD
:1039B000D2B21144497802688388D1548188491C65
:1039C000818021684246D2B2114489780268838896
:1039D000D1548188491C818021684246D2B2114469
:1039E000C97802688388D1548188491C81806946DE
:1039F000484600F0C3FCDFF824070099416001212C
:103A000001700120BDE8F28330B40200DFF8000746
:103A1000002304688588635583885B1C8380DFF8F6
:103A200000371B7804688588635583885B1C838016
:103A3000012030BC7047F8B504000D0000200021C3
:103A40002E0022683300DBB2D25C23683700FFB25D
:103A50003B445F7857EA02273A0092B2012A03D02A
:103A6000380080B2002822D1DFF8A4062168320095
:103A7000D2B2895C02688388D1548188491C8180D4
:103A800021683200D2B21144497802688388D15447
:103A90008188491C8180DFF88806D0ED020A90ED0C
:103AA000010A3800C0B2FFF75AFB012000E00020F5
:103AB000F2BDF8B504000D000026DFF8640690EDB5
:103AC000020A00F033FD0100DFF844060A00120A82
:103AD00003688788DA558288521C8280026883884E
:103AE000D1548288521C82800A00120E0368878893
:103AF000DA558288521C82800A00120C036887887B
:103B0000DA558288521C82800120F2BD2DE9F843EB
:103B100004000D000026002000900027A846206821
:103B20004146C9B20844817820684246D2B2104466
:103B3000C07850EA012021684246D2B2895C2268EE
:103B40004346DBB21A4492F8019059EA012959EA36
:103B50000049DFF8BC0521684246D2B2895C0268A0
:103B60008388D1548188491C818021684246D2B221
:103B70001144497802688388D1548188491C818026
:103B800021684246D2B21144897802688388D154B0
:103B90008188491C818021684246D2B21144C9788B
:103BA00002688388D1548188491C818069464846CF
:103BB00000F0E4FBDFF86805DDED000A90ED010A96
:103BC0000078FFF7CCFA0120BDE8F283F8B50400D5
:103BD0000D000026DFF8480590ED010A00F0A6FC74
:103BE0000100DFF82C050A00120A03688788DA55FD
:103BF0008288521C828002688388D1548288521C39
:103C000082800A00120E03688788DA558288521C67
:103C100082800A00120C03688788DA558288521C59
:103C200082800120F2BD2DE9F84304000D0000263A
:103C3000002000900027A84620684146C9B20844E9
:103C4000817820684246D2B21044C07850EA012000
:103C500021684246D2B2895C22684346DBB21A44EC
:103C600092F8019059EA012959EA0049DFF8A004C5
:103C700021684246D2B2895C02688388D154818827
:103C8000491C818021684246D2B2114449780268B9
:103C90008388D1548188491C818021684246D2B2F0
:103CA0001144897802688388D1548188491C8180B5
:103CB00021684246D2B21144C97802688388D1543F
:103CC0008188491C81806946484600F057FBDFF82F
:103CD0005004D0ED020A9DED000A0078FFF73FFA8C
:103CE0000120BDE8F28370B504000D00DFF83464F4
:103CF000012220213000FDF7DAFD0A2001F0E8FF63
:103D00004FF47A732A0092B22100DFF81C0402F00B
:103D100030F8002220213000FDF7C9FD70BD7CB5D0
:103D200004000D00082100226E46300001F024F945
:103D30000026DFF8E003047045706946027833001E
:103D4000DBB2CA54761C40783200D2B28854761C5A
:103D50003200D2B292B26946DFF8D00303F026F8FF
:103D600073BDDFF8C8030078C0B2FF280AD0DFF8BF
:103D7000A403DFF8BC1309780170DFF8B8130978E1
:103D8000417005E0DFF88C030221017003214170CE
:103D900070472DE9F04F87B0040000275FF000085E
:103DA0005FF000090025DFF89023D2E90001CDE99A
:103DB00002010026DFF88423D2E90001CDE90401E5
:103DC000DFF84CA35046FDF7DBFDA0880828C0F2C1
:103DD0009B812068A188084410F8010C2168A28802
:103DE000114411F8021C51EA0021ADF81810A18805
:103DF000891E206801F0BCFBADF81A00BDF81A005E
:103E0000BDF81810884240F07D8120680078C149D3
:103E10000978884240F07681206880782168CF78E0
:103E200057EA002720684078032805D006286CD080
:103E3000102800F0C38061E1206800792168497989
:103E400051EA00210D005FF001084046C0B2092888
:103E500036DA5FF01409DFF8E8B24046C0B209FB79
:103E600000F058444068390089B2884225D12800C2
:103E700080B24146C9B209FB01F1594489688842C0
:103E80001BDB002100204246D2B209FB02F25A4459
:103E9000D268904701280FD14046C0B209FB00F01C
:103EA000584480682D1A4046C0B209FB00F90BEB5C
:103EB00009008068C71900E002E018F10108C4E7B2
:103EC000BAF8040000281FD0BAF80400022190FBC1
:103ED000F1F201FB1200002816D1DAF8000001907F
:103EE000BAF80400022190FBF1F080B200903B0090
:103EF0009BB203222068017804A801F019FCBDF8E8
:103F000014100498FFF7EFFEFAE004200100C9B294
:103F1000A288921E91420EDA21680200D2B2895C18
:103F2000029ABDF80C30D154BDF80C10491CADF804
:103F30000C10401CEAE75FF001084046C0B20928B7
:103F400017DA14227E4B4046C0B2504318444068F2
:103F5000390089B2884209D1002102A8C4465FFA1B
:103F60008CFC02FB0CF21A441269904718F101080C
:103F7000E3E7BAF8040000281FD0BAF804000221D1
:103F800090FBF1F201FB1200002816D1DAF80000D4
:103F90000190BAF80400022190FBF1F080B2009089
:103FA0003B009BB206222068017804A801F011FCB6
:103FB000BDF814100498FFF796FEA1E0002006005B
:103FC000206800792168497951EA00210D00072015
:103FD0000100C9B2A288921E91420EDA2168020045
:103FE000D2B2895C029ABDF80C30D154BDF80C10E5
:103FF000491CADF80C10401CEAE7280080B24000D4
:104000002168897988424DD1BDF80C0021688979F1
:1040100089B2884246D15FF001084046C0B2092803
:1040200040DA5FF01409DFF818B14046C0B209FB6E
:1040300000F058444068390089B288422FD12800E6
:1040400080B24146C9B209FB01F1594489688842EE
:1040500025DB310089B202A84246D2B209FB02F246
:104060005A4412699047012818D14046C0B209FB52
:1040700000F058448068400010FA86F64046C0B20E
:1040800009FB00F0584480682D1A4046C0B209FB75
:1040900000F90BEB09008068C71900E002E018F195
:1040A0000108BAE7BAF80400002826D0BAF80400DC
:1040B000022190FBF1F201FB120000281DD12068C3
:1040C00080782168C97851EA00210F00DAF80000F1
:1040D0000190BAF80400022190FBF1F080B2009048
:1040E0003B009BB210222068017804A801F071FB0C
:1040F000BDF814100498FFF7F6FD01E0002004E07D
:10410000012002E0002000E0002007B0BDE8F08FB1
:10411000E0050020240B002044260020B0060020EB
:10412000E0260020000400480820002000000208CB
:104130000200020803000208B4EB0008BCEB000810
:104140000005002001000800C0B2002801D10120B4
:1041500021E00800C0B2FF2801D10A201BE00800BE
:10416000C0B2FE2801D1642015E00800C0B2FD28CD
:1041700002D14FF47A700EE00800C0B2FC2802D1E0
:1041800042F2107007E00800C0B2FB2802D1DFF84D
:10419000980300E0012070472DE9F24F82469346D4
:1041A000002000210A260027B046B946009A15884B
:1041B000BBF1000F08D5DBF100042D202A0092B2DC
:1041C0000AF802006D1C00E05C4620000021424617
:1041D0004B4602F083FE002901D1002808D0A6FB3F
:1041E000080106FB091107FB081180468946ECE728
:1041F000404649460A22002302F070FE06000F00E6
:10420000002F01D1002E28D02000002132003B00D9
:1042100002F064FE3030290089B20AF801006D1CFA
:10422000A0465FF000092000002132003B0002F0B0
:1042300055FEA6FB002306FB013307FB0033B8EB5A
:10424000020079EB03010400300039000A22002348
:1042500002F044FE06000F00D2E700980580280017
:10426000C0B2BDE8F28F2DE9FE4F06000F00904668
:104270000020ADF800000020002400215FF0000BBA
:10428000B7F80090B8F1000F02D5D8F1000500E0B2
:104290004546424639003000FFF77EFFB7F800A0E0
:1042A000002D4FD09DF80800FFF74CFF01008D4214
:1042B00005D20A2045431BF1010B002DF7D15846CA
:1042C000C0B2002821D050460200D2B2324412F8C7
:1042D000012C2D2A06D00200D2B24B4692B29BB2DC
:1042E0009A4208D130220300DBB2F2541AF1010ADB
:1042F000BBF1010BE3E70200D2B2324412F8012C09
:104300000300DBB2F254401EDEE70A20B1FBF0F4FA
:1043100050468346002C15D00A20B4FBF0F45846D2
:10432000C0B2304410F8010C5946C9B27054BBF108
:10433000010B002CEED12E205946C9B270541AF14F
:10434000010AE7E7A7F800A05046C0B2BDE8FE8F1B
:10435000F0B4049C00252E00B6B2A6420BD20E8803
:10436000771C0F802F00BFB217FA83F7D75DB6B264
:1043700087556D1CEFE7F0BC704700002DE9F34F47
:1043800081B02DED028B9FED658A0024012500266A
:10439000F7EE008A00273800C0B2202864DA0398BC
:1043A000F84010F0010004003800C0B2172829DAE4
:1043B00018EE900A00F08CFA82468B462000C0B2BC
:1043C00000F078FA804689463800C0B2D0F1170074
:1043D0005FF0FF31484300F0F3F841EC110B9FED23
:1043E000500B00F006F951EC100B42464B4602F020
:1043F0008DFE52465B4602F05BFF00F027FA08EEA6
:10440000900A2FE03800C0B21F2824DA3000C0B272
:1044100000F050FA82468B462000C0B200F04AFA03
:10442000804689463800C0B2173800F0C9F841EC20
:10443000110B9FED3B0B00F0DCF851EC100B4246EA
:104440004B4602F063FE52465B4602F031FF02F03B
:10445000EDFF060006E02000C0B2012802D15FF0A7
:10446000FF3005007F1C96E7280040B200F0A8F856
:10447000804689463000C0B27F3800F0A1F841EC98
:10448000110B9FED270B00F0B4F851EC100B4246D6
:104490004B4602F03BFE8046894618EE900A00F03B
:1044A00017FA42464B4602F031FE00F0CFF900EE1B
:1044B000100A049880ED000ABDEC028BBDE8F78F6E
:1044C00070B4030000220024002000252A000E0002
:1044D000D2B2F6B2B2421FD22A00D2B29A5C302ACD
:1044E0000ADB2A00D2B29A5C3A2A05DA2A00D2B252
:1044F0009A5C303A140001E0002214002A00D2B283
:10450000002A03D12200D2B2100003E00A22504355
:1045100050FA84F06D1CD9E770BC704700000000B1
:104520000000000000000040A086010010B42DED46
:10453000010A00206A460023042B07D2D45C19002C
:10454000C9B2C9008C4020435B1CF5E712BC704720
:1045500000F10103810704D010F8011B820781B12B
:10456000FAD10268A2F10131914311F0803104BF08
:1045700050F8042FF6E709BAB1FA81F100EBD10047
:10458000401CC01A704730B4002513E050F8042BCB
:10459000D30744BFA9F101039A18091F042942F85F
:1045A000045BFAD213468C0744BF15809B1CC907D5
:1045B00048BF1D7050F8041B0029E7D130BC70477C
:1045C000C11768B14840401AB0FA80F29040D21C3E
:1045D000C907C2F5846241EA025202EBD0214005CC
:1045E00070470268531C03601170704741EC100B58
:1045F00001BD80B553EC112B51EC100B02F034FFD0
:10460000F4E72E00F0B540F2FF7581EA030C0CF0E0
:10461000004C15EA11541DBF15EA1357AC42AF42C6
:10462000E5E0BC41C1F31301C3F31303801A9941C0
:1046300043F4801304D2641E40004941801859415C
:10464000C90241EA5051B1FBF3F603FB1611A2FB7C
:104650000675D7EBC020A94102D2761E80185941B9
:10466000C90241EA5051B1FBF3FE03FB1E11A2FB4C
:104670000E75D7EBC020A94103D2AEF1010E801810
:104680005941890241EA9051760546EA8E2EB1FBE6
:10469000F3F603FB1611A2FB0675D7EB8020A941A8
:1046A00002D2761E80185941C90241EA50514EEAA1
:1046B000060EB1FBF3F603FB1611A2FB0675D7EB52
:1046C000C020A94102D2761E80185941C90241EA90
:1046D0005051B1FBF3F703FB1711A2FB0735D3EBE6
:1046E000C020A94167F100070CBF004247F0010755
:1046F00066F3D5274FEA1E31B80814F5806412DD41
:10470000BD0775F1004250EB0E5051EB045111F50D
:10471000801F5CBF41EA0C01F0BD4CF07F6141F0AD
:10472000E0410020F0BDBD076D0840EA0E5041F4A5
:104730008011D4F10104B4F120060ADAC4F1200694
:104740000200E04001FA06F3E1401843B24015438D
:104750000EE0342C13DCC6F1200445EA40056D0858
:1047600020FA06F2154321FA06F0A1400D4300217C
:1047700075F1004250F1000051EB0C01F0BD00203A
:104780005FEA0C01F0BDCFB992185B41B3FA83F731
:1047900004BFB2FA82F6BF190B3FB7F120062FBF54
:1047A00002FA06F3BB40C7F1200622FA06F638BF2C
:1047B0003343BA401CB1E419641E33E77F4231F041
:1047C0000041B1FA81F404BFB0FA80F6A4190B3CA1
:1047D000B4F120062FBF00FA06F1A140C4F1200673
:1047E00020FA06F638BF3143A0403C1B1AE7AC4222
:1047F0001ABF05EA1357AF4212E050EA41061CBF48
:1048000052EA4306BFE750EA4107304661461CBF03
:1048100041EA0551F0BD52EA430C08BFC143F0BD67
:1048200000204FF4001616EB410F98BF16EB430F14
:1048300008BF16EB410F24BFC14305E016EB430F41
:104840000CBF61464CEA0551F0BD000001F000428A
:104850008B1AA3F16051B1F5801F0ADBB1F17F6FB4
:104860001FD242EAC102C10071F1004142EB507017
:1048700070470B15C3F10903212B10D2890241EABD
:10488000905180020128494141F0004121FA03F092
:10489000C3F12003994071F100415041704710006D
:1048A00070476FF0000013EB103F5CBF000E42EA50
:1048B000C0507047014648B1B0FA80F18840C91C29
:1048C000C1F58461090501EBD02140057047000066
:1048D000C0F3C75181B1FF2906D0C110400721F0B4
:1048E000E04101F16051704741020CBF40F4E0012A
:1048F0006FF000410020704700F0004100020AD034
:10490000B0FA80FC00FA0CF001F16051A1EB0C51FF
:1049100001EBD021400570470CB430B583B00A4696
:1049200006A90291044600250194009502AB01A955
:10493000084878441E3003F00DF9019A15700028DC
:104940004EBF04460198041B204603B030BC5DF8FE
:104950000CFB00BF8FFCFFFF80B5012240212348E4
:10496000FCF7A5FF2249234800F04EFA00F01EF89C
:10497000012000F005F800F0D1FA00F01FFA01BDA7
:10498000704711B581B0194C002240212000FCF77E
:104990008EFF4FF47A73012201A9174804F03AF907
:1049A000012240212000FCF782FF13BD10B50F4CFF
:1049B000002240212000FCF77AFF00228021200005
:1049C000FCF775FF012000F019F8052000F016F83B
:1049D000012280212000FCF76AFF052000F00EF87C
:1049E000012240212000FCF762FF10BD00080048B2
:1049F000FC260020DC0F00200424002010B5040059
:104A0000200001F065F910BD01480068704700BF43
:104A10000C27002070B4039CDFF8805228602971B5
:104A20006A71AB71EC7100262E7270BC70472DE973
:104A3000F84F04000D00160000275FF00008DFF8B3
:104A40005C9299F80500082880F2FC80300099F803
:104A50000610C0B2884205D399F807003100C9B2E8
:104A6000884201D22E200600402099F80510491CEA
:104A700090FBF1F02900C9B2814280F2E38099F8FD
:104A8000040050FA84F0802880F2DC8099F8053028
:104A90005B1C99F8050003FB05035B1CDBB299F86E
:104AA00004201219D2B299F80500401C15FB00F140
:104AB000C9B22000C0B200F029F90021080099F81D
:104AC0000420C0B2904280F0BD80002015FB00F0B1
:104AD0000200D2B2082392FBF3F21700C0B2082200
:104AE00090FBF2F302FB13008046FF226C4BD3F8DD
:104AF00000C03800C0B250FA85FE802000FB0EFED8
:104B00005EFA84FED3F800A03800C0B250FA85FBEC
:104B1000802000FB0BFB5BFA84F01AF800A0D8F1B0
:104B2000080B100050FA0BF010EA0A0A0CF80EA05D
:104B3000D3F800C03800C0B250FA85FE802000FBD8
:104B40000EFE5EFA84F00090D3F800E03800C0B2A8
:104B500050FA85FA802000FB0AFA5AFA84F01EF80F
:104B600000E0D9F800A0B3465FFA8BFB99F8060085
:104B7000BBEB000099F804B00BFB00FB0AEB0B0049
:104B80008A465FFA8AFA10F80A0010FA08F050EA2A
:104B90000E00DDF800E00CF80E00D3F800C038007D
:104BA000C0B250FA85FE802000FB0EFE5EFA84F053
:104BB0008444D3F800E03800C0B250FA85FA80206F
:104BC00000FB0AFA5AFA84F0704490F8800012FA56
:104BD00008F202408CF880201A683800C0B250FAFF
:104BE00085FC802000FB0CFC5CFA84F002441B680E
:104BF0003800C0B250FA85FC802000FB0CFC5CFA47
:104C000084F0184490F88030D9F800C0B6465FFAB6
:104C10008EFE99F80600BEEB000E99F8040000FB2A
:104C20000EFE0CEB0E008C465FFA8CFC10F80C00AC
:104C3000D8F1080C50FA0CF0034382F88030641C61
:104C4000491C3BE7BDE8F18FF8B507000C001600E2
:104C5000124D6879082820DA307800281DD0327883
:104C60002100C9B23800C0B2FFF7E1FE761C2879F6
:104C7000401CC719287950FA87F0401C812802DBB4
:104C800000200700641C40206979491C90FBF1F06A
:104C90002100C9B28142DFDBFFE7F1BDD42600204D
:104CA00000270020020001200B00DBB21B0113448F
:104CB000587000200B00DBB21B0113445860012028
:104CC000704738B504000D0001202900C9B2090160
:104CD00021444870FFF798FE2900C9B20901214418
:104CE0004860012032BD020000200B00DBB21B0136
:104CF000134458700120704780B5034800F024FC2D
:104D000000F0CDF801BD000078DA000870B40400AE
:104D1000E4B2802C01DB7F2420001400E4B2802C5C
:104D200001DB7F2422000C00E4B2402C01DB3F2495
:104D300021001C00E4B2402C01DB3F242300354C51
:104D4000050026683678EDB2B54201D22568287094
:104D50002568AD781600F6B2B54201D22568AA7072
:104D60000D0026687678EDB2B54201D225686970EB
:104D70002568ED781E00F6B2B54201D22468E370D2
:104D800070BC704723487F210268117000210268BF
:104D900091703F210268517000210068C170704716
:104DA0001C480021026811707F2102689170002167
:104DB000026851703F210068C170704770B54FF4B0
:104DC00080640025144806682A002100300000F0A5
:104DD000D3F83F237F2200210020FFF797FF00F048
:104DE0005EF870BD70B54FF4806400250A4806680F
:104DF0002A002100300000F0BFF83F237F2200216D
:104E00000020FFF783FF70BD034A1060014A116064
:104E100070470000042700200027002010B5040080
:104E200000224FF480713A48FCF741FD2000C0B2E7
:104E3000FFF7A7FD10BD10B5040001224FF48071EB
:104E40003348FCF734FD2000C0B2FFF79AFD10BDD7
:104E500010B5040014F00F0050F0B000C0B2FFF71E
:104E6000DDFF10BD10B504002000C0B200F005F851
:104E70002000C0B200F00CF810BD10B504002000F6
:104E8000C0B2000950F01000C0B2FFF7C7FF10BD5C
:104E900010B5040014F00F00FFF7C0FF10BD70B58F
:104EA00000242000C0B210282EDA1A4D286840785D
:104EB0002100C9B2491CB0EBC10F23DA2868C078C1
:104EC0002100C9B2B0EBC10F1EDB2000C0B2FFF75A
:104ED000BFFF28680078FFF7C5FF286806782868B4
:104EE00080783100C9B288420CD30B480168220097
:104EF000D2B28020424352FA86F0085CFFF79BFF53
:104F0000761CECE7641CCCE7FFF73CFF70BD0000AB
:104F100000080048042700200027002080B5AE20AC
:104F2000FFF77CFFA220FFF779FFA020FFF776FFB5
:104F3000C820FFF773FF2F20FFF770FF322000F02B
:104F4000C7FEA420FFF76AFF4020FFF767FF252078
:104F5000FFF764FF0A2000F0BBFE8120FFF75EFF31
:104F60001220FFF75BFFFFF729FFAF20FFF756FF87
:104F7000052000F0ADFE01BD62F30F2262F31F4277
:104F8000401810F0030308D0C91A1FD3DB0748BF2D
:104F900000F8012D28BF20F8022D130030B414466C
:104FA0001546103928BF20E93C00FAD8490728BF28
:104FB00020E90C0048BF40F8042D890028BF20F8E4
:104FC000022D48BF00F8012D30BC7047C91818BF2A
:104FD00000F8012DCB0728BF00F8012D7047000015
:104FE00070B4039CDFF88453286029716A71AB7137
:104FF000EC7101262E7270BC70472DE9F74F04004A
:105000000D00DFF868639DF80800B179884204D389
:10501000F0799DF80810884202D22E208DF8080001
:10502000307A002845D1002738003179C0B2884253
:105030003DD231689DF80820B079121A3079424388
:1050400001EB02003900C9B210F80190002080463F
:105050004046C0B2082828DA3800C0B250FA84F0BE
:10506000802805DA4046C0B250FA85F0402801DBBE
:1050700000205DE1012010FA08F04946C9B2014262
:1050800008D0012218EB0501C9B23819C0B200F0EE
:105090006FF907E0002218EB0501C9B23819C0B258
:1050A00000F066F918F10108D2E77F1CBCE73079FF
:1050B0003EE1307A012840F08E807079082190FB23
:1050C000F1F201FB1200012806DB7079082190FB48
:1050D000F1FB1BF1010B03E07079082190FBF1FB60
:1050E00031795846C0B24143491C8DF801103168EE
:1050F0009DF80820B079121A9DF80100424301EB97
:10510000020001788DF80010401C01905FF000084B
:1051100040469DF80010C0B2884259D25FF00009A5
:1051200048465946C0B2C9B288424ED20199424659
:10513000D2B25846C0B2424301EB02004946C9B25E
:1051400010F801A0002007003800C0B2082839DAA2
:105150004046C0B250FA84F0802808DA4846C0B20F
:10516000C00050FA85F050FA87F0402801DB00209B
:10517000DEE04846C0B2C00050FA87F0717988423C
:105180001EDA0121B9405046C0B208420CD00122BB
:105190005FFA89F915EBC9017918C9B218EB040057
:1051A000C0B200F0E5F80BE000225FFA89F915EBD8
:1051B000C9017918C9B218EB0400C0B200F0D8F8E0
:1051C0007F1CC1E719F10109AAE718F101089FE75F
:1051D0009DF80000ACE0307A022840F0A880707999
:1051E000082190FBF1F0401C8DF8000030799DF80B
:1051F000001010FB01F08DF8020031689DF80820C6
:10520000B079121A9DF80200424301EB02000190AE
:1052100096F804B000208DF8010000210020002243
:1052200010009DF80030C0B298420CD23079431E75
:105230009DF801001B1A13FB02F0019BC0B2185C21
:105240000100521CECE70800C0B200280BD1BBF1F2
:10525000010B5846C0B2002805D09DF80100401C43
:105260008DF80100D9E7002738009DF80010C0B282
:10527000884259D25FF0000840465946C0B2C9B2D0
:1052800088424FD201993A00D2B23079424301EBC1
:1052900002004146C9B210F801905FF0000A504682
:1052A000C0B208283BDA4046C0B250FA84F08028E9
:1052B00008DA3800C0B2C00050FA85F050FA8AF01F
:1052C000402801DB002033E03800C0B2C00050FAB3
:1052D0008AF0717988421FDA012111FA0AF14846F1
:1052E000C0B208420CD00122FFB215EBC7011AEB85
:1052F0000101C9B218EB0400C0B200F039F80BE0AC
:105300000022FFB215EBC7011AEB0101C9B218EB7D
:105310000400C0B200F02CF81AF1010ABFE718F13E
:105320000108A9E77F1C9FE75846C0B200E00020B3
:10533000BDE8FE8FF8B504000F0015000B4840795A
:10534000D0F13F003900C9B288420EDB287800282E
:105350000BD02A783900C9B22000C0B2FFF74DFE49
:105360000600701C04196D1CF0E7F1BDD426002066
:10537000F8B504000D0016002000C0B2802803DA42
:105380002800C0B2402800DB57E03000C0B200283F
:1053900024D02900C9B20822DFF8CC312800C0B2DD
:1053A000082790FBF7F78020474357FA84F7280037
:1053B000C0B25FF0080C90FBFCFC802000FB0CFCF2
:1053C0005CFA84F0185C5FF0010C91FBF2FE02FBCA
:1053D0001E111CFA01F10143D95524E02900C9B27C
:1053E0000822DFF884312800C0B2082790FBF7F7C5
:1053F0008020474357FA84F72800C0B25FF0080CBA
:1054000090FBFCFC802000FB0CFC5CFA84F0185C38
:105410005FF0010C91FBF2FE02FB1E111CFA01F180
:1054200030EA0101D9552B00DBB22200D2B22900AB
:10543000C9B22000C0B2FFF769FCF1BD2DE9F84FF9
:1054400005000E00170098460A9C3800C0B22900DB
:10545000C9B2401A03F0F7FD81464046C0B23100A0
:10546000C9B2401A03F0EFFD814502DA5FF0010B8B
:1054700001E05FF0000B5846C0B2002805D02800BC
:105480003500060038004746804638002900C0B283
:10549000C9B2884205D228003D00070030004646C8
:1054A00080464346DBB23A00D2B23100C9B228008E
:1054B000C0B2FFF72BFC781B8DF800004046C0B24D
:1054C0003100C9B2401A03F0BEFD8DF801009DF80D
:1054D0000000022190FBF1F930004146C0B2C9B290
:1054E000884202D25FF0010A01E05FF0FF3A380023
:1054F0002900C0B2C9B2884224D35846C0B200289D
:1055000008D02200D2B22900C9B23000C0B2FFF7E1
:105510002FFF07E02200D2B23100C9B22800C0B28A
:10552000FFF726FF9DF80100B9EB0009484640B29D
:10553000002805D51AEB06069DF8000010EB0909B6
:105540006D1CD4E7BDE8F18FF8B504004FF4806519
:105550002600064807682A003100380001F06AFC7E
:10556000FFF71EFCF1BD0000DC0F0020002700202B
:1055700030B403004FF6FF7000248C4213DA1A5D3A
:1055800050400822002A0CD0C50706D580B240083A
:1055900080F4204090F0010001E080B24008521EEB
:1055A000F0E7641CE9E780B230BC70472DE9F843AE
:1055B00005000E0017009846089C5FF00009286857
:1055C000494689B2465419F101092868494689B209
:1055D000475419F10109404680B2000A29684A4639
:1055E00092B2885419F101092868494689B200F835
:1055F000018019F10109200080B2000A29684A4699
:1056000092B2885419F101092868494689B2445474
:1056100019F10109494689B22868FFF7A9FF01007D
:1056200028684A4692B2815419F10109080080B2F3
:10563000000A2A684B469BB2D05419F10109A5F81B
:1056400004900120BDE8F2832DE9F84F06000F0019
:10565000904699460A9DDDF82CA000240021306870
:10566000220092B28754641C3068220092B200F883
:105670000280641C484680B2000A326823009BB254
:10568000D054641C3068220092B200F80290641C6E
:105690004046C0B2062802D0102807D01CE02800DF
:1056A00080B2012801D0002040E015E0280080B23F
:1056B000000A326823009BB2D054641C3068220078
:1056C00092B28554641C2800C0B2400032682300A6
:1056D0009BB2D054641CFFE75FF0000B584680B2C9
:1056E000290089B2B0EB410F0BDA584680B21AF8A4
:1056F00000003168220092B28854641C1BF1010B37
:10570000ECE7210089B23068FFF732FF0100306812
:10571000220092B28154641C080080B2000A3268F0
:1057200023009BB2D054641CB4800120BDE8F28FEA
:105730002DE9F84F05000E00170098460A9CDDF889
:105740002C905FF0000B002029685A4692B28E54CC
:105750001BF1010B29685A4692B28F541BF1010BC1
:105760002100C9B249002A685B469BB2D1541BF1A3
:10577000010B5FF0000A504680B2210089B2B0EB05
:10578000410F0CDA504680B219F8000029685A46D9
:1057900092B288541BF1010B1AF1010AEBE759464A
:1057A00089B22868FFF7E4FE010028685A4692B2E1
:1057B00081541BF1010B080080B2000A2A685B4685
:1057C0009BB2D0541BF1010BA5F804B00120BDE839
:1057D000F28F2DE9F84F05000E00170098460A9C3D
:1057E000DDF82C905FF0000B5FF0000A2868594646
:1057F00089B246541BF1010B2868594689B24754B7
:105800001BF1010B404680B2000A29685A4692B249
:1058100088541BF1010B2868594689B200F80180B1
:105820001BF1010B3800C0B2062802D010281DD091
:105830002CE0200080B2012801D000203EE00020B2
:105840008246504680B2210089B2B0EB410F0CDA9B
:10585000504680B219F8000029685A4692B288541E
:105860001BF1010B1AF1010AEBE70FE0200080B2F7
:10587000000A29685A4692B288541BF1010B286825
:10588000594689B244541BF1010BFFE7594689B2CE
:105890002868FFF76DFE010028685A4692B28154CD
:1058A0001BF1010B080080B2000A2A685B469BB21C
:1058B000D0541BF1010BA5F804B00120BDE8F28F14
:1058C00080B5D448D44901605FF4E13141600021E2
:1058D00081600021C160002101610C214161002132
:1058E0008161002101620021416200F005FA002877
:1058F00001D003F00BFC01BD80B5C848C849016068
:105900004FF416514160002181600021C1600021E7
:1059100001610C214161002181610021C1610021EF
:1059200001620021416200F0E7F9002801D003F094
:10593000EDFB01BD80B5BB48BB4901604FF416517A
:105940004160002181600021C160002101610C21C2
:105950004161002181610021C161002101620021BA
:10596000416200F0C9F9002801D003F0CFFB01BD6E
:1059700038B59EB0040014220021684603F0C8FB2D
:105980006022002106A803F0C3FB2068A2498842D8
:1059900052D1202006900020119006A803F0C2FBEF
:1059A000002801D003F0B2FBA048016851F00101CA
:1059B0000160006810F00100059005989C4801689E
:1059C00051F002010160006810F002000590059896
:1059D0004FF44060009002200190012002900320CB
:1059E00003900820049069469248FBF7C1FD924D50
:1059F00092482860042068600020A8600020E860C9
:105A000080202861002068610020A8610020E861F2
:105A100000202862280003F0F9FD002801D003F0DF
:105A200075FB6567AC6200220021462004F08FF808
:105A3000462004F0A1F8ABE020687949884251D1B2
:105A40000120069000200E9006A803F06BFB0028B2
:105A500001D003F05BFB7A48016851F4804101609A
:105A6000006810F48040059005987148016851F075
:105A700002010160006810F0020005900598C02046
:105A80000090022001900020029003200390072044
:105A9000049069466748FBF76BFD6A4D6A482860C9
:105AA000022068600020A8600020E8608020286153
:105AB000002068610020A8610020E86100202862C1
:105AC000280003F0A3FD002801D003F01FFB656749
:105AD000AC6200220021252004F039F8252004F0D2
