:020000040800F2
:10000000782D002091F70008EDF00008EFF00008CF
:10001000F1F00008F3F00008F5F00008000000001F
:10002000000000000000000000000000F7F00008E1
:10003000F9F0000800000000FBF00008FDF00008E7
:1000400001FB000805FB000809FB00080DFB000888
:1000500011FB000815FB000819FB00081DFB000838
:1000600021FB000825FB000829FB00082DFB0008E8
:1000700031FB00084DF1000835FB000857F100087E
:1000800039FB00083DFB000841FB000845FB000868
:1000900049FB00084DFB000851FB000855FB000818
:1000A00059FB00085DFB000861FB000865FB0008C8
:1000B00069FB000800000000000000006DFB000864
:1000C00071FB000875FB000879FB00087DFB000848
:1000D00081FB000861F1000885FB00086BF1000856
:1000E00089FB000875F10008000000000000000016
:1000F0000000000000000000000000000000000000
:10010000000000008DFB00080000000091FB0008CB
:10011000000000000000000095FB000899FB0008AB
:100120009DFB0008A1FB0008A5FB0008A9FB000837
:10013000ADFB00080000000000000000000000000F
:10014000B1FB0008B5FB0008B9FB0008BDFB0008C7
:10015000C1FB00087FF1000889F10008C5FB000819
:10016000C9FB0008CDFB0008D1FB0008000000001F
:10017000D5FB0008D9FB0008DDFB000800000000EB
:10018000E1FB0008E5FB0008E9FB000880B55348E7
:100190000078012806D0022807D0042808D00828B3
:1001A00009D00BE000F0A0F808E000F099FE05E0AF
:1001B00001F028F802E001F0B5F9FFE701BD2DE9F3
:1001C000F0470024464D2888002804D02888401E87
:1001D0002880002080E0414E307A00287BD1202109
:1001E000404801F04DFE002801D1012700E0002722
:1001F000DFF8D08C0421404601F042FE002802D1F5
:100200005FF0010901E05FF000090221404601F0C2
:1002100037FE002802D15FF0010A01E05FF0000A1A
:100220000121404601F02CFE002801D1012000E010
:10023000002057EA490757EA8A073C0054EAC004FD
:100240002000C0B2012805D0022803D0042801D024
:10025000082836D17068401C7060706850282FD311
:10026000347001203072DFF8601C0868142801D255
:1002700019202880DFF8540C22000378D2B29A4269
:1002800019D10A68521C0A600A681E2A02D200218B
:10029000716014E00A68B42A02D2412171600EE054
:1002A0000A68F02A02D24621716008E04E2272608C
:1002B000F0220A6003E00022726000220A600470EB
:1002C00009E00020DFF8041C08702820706000207E
:1002D000DFF8F41B08603078BDE8F0876C28002058
:1002E0005029002000080048F8B584B0DFF8E04B42
:1002F000A078002817D001283AD002286AD0032815
:1003000000F0FB80042800F07F81052800F0DF81E9
:10031000062800F0A782072800F07283092800F061
:100320007A8400F0CDBDDFF8AC5B0020E860DFF838
:10033000A86B0A220021300001F028FE3020307026
:10034000302070703020B0703020F070E86800010C
:10035000801CC0B2039002960720019006200090F6
:10036000072300220121A01C02F041FC00F0A8BDDF
:10037000DFF8600BC168491CC160C16804291EDB3D
:10038000DFF8540B02F04EFC012815D1A51C062203
:10039000290014F1080001F047FEF120039000202D
:1003A00002900E20019009200090092300220221D2
:1003B000280002F01CFC0BE00020A07008E0C068E0
:1003C0000001801C0200D2B20021A01C02F0ECFB54
:1003D00000F076BD207909280AD0C0F08C800B2867
:1003E00032D01BD30D285BD044D30E286ED082E0D0
:1003F000A51C0622290014F1080001F015FEF120C9
:1004000003900020029011200190102000901023F2
:1004100000220321280002F0EAFB6CE0A51C062262
:10042000290014F1080001F0FFFDF12003900020E5
:100430000290162001901420009014230022042121
:10044000280002F0D4FB56E0A51C0622290014F176
:10045000080001F0E9FDF1200390002002901A202D
:10046000019018200090182300220521280002F096
:10047000BEFB40E0A51C0622290014F1080001F093
:10048000D3FDF1200390002002901E2001901C203B
:1004900000901C2300220621280002F0A8FB2AE07D
:1004A000A51C0622290014F1080001F0BDFDF12071
:1004B0000390002002902320019020200090202310
:1004C00000220721280002F092FB14E0A51C06225E
:1004D000290014F1080001F0A7FD0020039000207E
:1004E0000290262001902620009026230022082139
:1004F000280002F07CFB00F0E3BC2079102802D039
:10050000112840D07EE0E078002802D001281FD0DA
:1005100038E0A61C0622310014F1080001F084FD29
:10052000DFF8B059F220039015F10C000290112071
:100530000190102000901023E278521CD2B20321C7
:10054000300002F054FBDFF894094078E86019E0CD
:10055000A51C0622290014F1080001F065FDF02019
:100560000390002002902920019029200090292347
:1005700000220921280002F03AFB0120DFF85C1973
:100580000870FFE73EE0E078002802D001281FD085
:1005900038E0A61C0622310014F1080001F044FDE9
:1005A000DFF83059F220039015F10C000290112071
:1005B0000190112000901123E278521CD2B2032145
:1005C000300002F014FBDFF814094068E86019E01D
:1005D000A51C0622290014F1080001F025FDF020D9
:1005E00003900020029029200190292000902923C7
:1005F00000220921280002F0FAFA0120DFF8DC18B5
:100600000870FFE700F05CBC2079142804D05DD3AB
:1006100016283DD01ED359E0A51C0622290014F14E
:10062000080001F001FDF020039000200290292035
:10063000019029200090292300220921280002F09E
:10064000D6FADFF8B81B002008800222022003F04F
:1006500001F93BE0A51C0622290014F1080001F075
:10066000E3FCF02003900020029029200190292033
:100670000090292300220921280002F0B8FADFF8AF
:100680007C1B002008800222032003F0E3F81DE019
:10069000A51C0622290014F1080001F0C5FCF02079
:1006A0000390002002902920019029200090292306
:1006B00000220921280002F09AFADFF8401B0020EE
:1006C00008800222042003F0C5F8FFE7F8E3207950
:1006D000182806D0C0F0C5801A2800F0828040D3C8
:1006E000BFE0E078002802D001281FD038E0A61C27
:1006F0000622310014F1080001F096FCDFF8D4570F
:10070000F220039015F10C0002901A20019018209D
:1007100000901823E278521CD2B20521300002F07A
:1007200066FADFF8B807806AE86019E0A51C0622BF
:10073000290014F1080001F077FCF020039000205C
:1007400002902920019029200090292300220921CC
:10075000280002F04CFA0120DFF880170870FFE74C
:100760007FE0E078002802D001281FD038E0A61CE6
:100770000622310014F1080001F056FCDFF854574E
:10078000F220039015F10C0002901A20019018201D
:1007900000901923E278521CD2B20521300002F0F9
:1007A00026FADFF83807C06AE86019E0A51C0622BF
:1007B000290014F1080001F037FCF020039000201C
:1007C000029029200190292000902923002209214C
:1007D000280002F00CFA0120DFF800170870FFE78C
:1007E0003FE0E078002802D001281FD038E0A61CA6
:1007F0000622310014F1080001F016FCDFF8D4568F
:10080000F220039015F10C0002901A20019018209C
:1008100000901A23E278521CD2B20521300002F077
:10082000E6F9DFF8B806006BE86019E0A51C0622BF
:10083000290014F1080001F0F7FBF02003900020DC
:1008400002902920019029200090292300220921CB
:10085000280002F0CCF90120DFF880160870FFE7CD
:10086000FFE72DE320791C2806D0C0F0C8801E28A1
:1008700000F0858043D3C2E0E078002802D0012850
:1008800022D03BE0A71C0622390014F1080001F039
:10089000CBFBDFF8405615F10C06F22003900296D0
:1008A0001E2001901C2000901C23E278521CD2B222
:1008B0000621380002F09BF9DFF844090078E8606F
:1008C000DFF81806066419E0A51C0622290014F1B9
:1008D000080001F0A9FBF0200390002002902920DD
:1008E000019029200090292300220921280002F0EC
:1008F0007EF90120DFF8E4150870FFE77FE0E0787B
:10090000002802D001281FD038E0A61C06223100A2
:1009100014F1080001F088FBDFF8B855F2200390CD
:1009200015F10C0002901E2001901C2000901D2348
:10093000E278521CD2B20621300002F058F9DFF8FA
:100940009C05806BE86019E0A51C0622290014F1C3
:10095000080001F069FBF02003900020029029209C
:10096000019029200090292300220921280002F06B
:100970003EF90120DFF864150870FFE73FE0E078FA
:10098000002802D001281FD038E0A61C0622310022
:1009900014F1080001F048FBDFF83855F22003900D
:1009A00015F10C0002901E2001901C2000901E23C7
:1009B000E278521CD2B20621300002F018F9DFF8BA
:1009C0001C05C06BE86019E0A51C0622290014F183
:1009D000080001F029FBF02003900020029029205C
:1009E000019029200090292300220921280002F0EB
:1009F000FEF80120DFF8E4140870FFE7FFE75FE28C
:100A00002079202809D0C0F00581222800F08580B7
:100A100043D3232800F0C180FCE0E078002802D016
:100A200001281FD038E0A61C0622310014F108006E
:100A300001F0FAFADFF89C54F220039015F10C0053
:100A4000029023200190202000902023E278521C65
:100A5000D2B20721300002F0CAF8DFF88004406CFF
:100A6000E86019E0A51C0622290014F1080001F035
:100A7000DBFAF02003900020029029200190292029
:100A80000090292300220921280002F0B0F801205B
:100A9000DFF848140870FFE7BCE0E078002802D0D7
:100AA00001281FD038E0A61C0622310014F10800EE
:100AB00001F0BAFADFF81C54F220039015F10C0093
:100AC000029023200190202000902123E278521CE4
:100AD000D2B20721300002F08AF8DFF80004806CFF
:100AE000E86019E0A51C0622290014F1080001F0B5
:100AF0009BFAF020039000200290292001902920E9
:100B00000090292300220921280002F070F801201A
:100B1000DFF8C8130870FFE77CE0E078002802D017
:100B200001281FD038E0A61C0622310014F108006D
:100B300001F07AFADFF89C53F220039015F10C00D3
:100B4000029023200190202000902223E278521C62
:100B5000D2B20721300002F04AF8DFF88003C06CFF
:100B6000E86019E0A51C0622290014F1080001F034
:100B70005BFAF020039000200290292001902920A8
:100B80000090292300220921280002F030F80120DA
:100B9000DFF848130870FFE73CE0E078002802D057
:100BA00001281DD035E0A61C0622310014F10800F2
:100BB00001F03AFAC74DF220039015F10C000290B3
:100BC00023200190202000902323E278521CD2B2EF
:100BD0000721300002F00BF8C048006DE86018E013
:100BE000A51C0622290014F1080001F01DFAF020CE
:100BF00003900020029029200190292000902923B1
:100C000000220921280001F0F2FF0120B3490870F9
:100C1000FFE7FFE754E1207A03280BD0C0F04F81B3
:100C2000052839D0C0F04881072800F0D080C0F0F6
:100C3000878044E1322001F04BFC0320A749087073
:100C4000A07A102802D0112809D024E0DFF8B808D3
:100C50004178A048C068C0B203F091FF1BE00020BB
:100C60000100C9B20B290FDADFF8A0180200D2B2D6
:100C700051F82210974AD268914203D1DFF88818C0
:100C8000487001E0401CEBE7DFF87C084178007811
:100C900003F075FFFFE712E1904D0320287032202A
:100CA00001F016FCA07A182804D048D31A282FD0B7
:100CB00017D344E0287A04F07BF900EE100ADFF83D
:100CC000500890ED091AD0ED080A8248D0ED031AB9
:100CD000F8EEE11AB8EE400A81EE800A02F060FEFA
:100CE0002DE0687A04F064F900EE100ADFF82008BD
:100CF00090ED091A7749D1ED030AF8EEE00AB8EE53
:100D0000400AC0EE800A90ED070A02F049FE16E0A4
:100D1000A87A04F04DF900EE100ADFF8F4076D49E7
:100D2000D1ED030AF8EEE00AB8EE400A80EE801A30
:100D3000D0ED080A90ED070A02F032FEFFE7BEE0B0
:100D4000664D03202870322001F0C2FBA07A1C28D7
:100D500004D03BD31E2823D00CD337E0DFF8A00407
:100D6000D0ED020A90ED010A5A48C068C0B202F004
:100D70000BFF2BE0E87A04F01BF900EE100ADFF815
:100D800080045449D1ED030AF8EEE00AB8EE400AB7
:100D9000C0EE800A90ED010A007802F0F5FE15E041
:100DA000E87A04F005F900EE100ADFF85404D0EDFB
:100DB000020A484991ED031AB8EEC11AB8EE400A8A
:100DC00081EE000A007802F0DFFEFFE777E0434D96
:100DD00003202870322001F07BFBA07A202806D067
:100DE00069D3222835D01BD323284BD063E0287B3E
:100DF00004F0DEF800EE100ADFF81807D0ED031A51
:100E000090ED021AD0ED010A324890ED032AB8EEB7
:100E1000C22AB8EE400A82EE000A02F079FF4AE0E8
:100E2000287B04F0C5F800EE100ADFF8E806D0EDE4
:100E3000031A90ED021A2749D1ED030AF8EEE00AF1
:100E4000B8EE400AC0EE800A90ED000A02F060FFA2
:100E500031E0287B04F0ACF800EE100ADFF8B406AD
:100E6000D0ED031A1B49D1ED030AF8EEE00AB8EE03
:100E7000400A80EE801AD0ED010A90ED000A02F0DF
:100E800047FF18E0287B04F093F800EE100ADFF823
:100E900084061049D1ED030AF8EEE00AB8EE400AE4
:100EA000C0EE801A90ED021AD0ED010A90ED000A12
:100EB00002F02EFFFFE702E002F0BDFCFFE7FFE7D4
:100EC00005B0F0BD00040048002900206029002082
:100ED000B42800206C280020000000207C000020A6
:100EE00010B5DFF83436987800280DD002281DD0D0
:100EF0000BD3042875D026D3062800F0B3807DD309
:100F0000072800F0078178E177E1DFF81006DFF8C5
:100F10001016CA68825C521CCB68C254CA68825CD4
:100F20003A2A02DB3022C968425466E158791979BD
:100F3000884202D21879401E1871F1220021981CB3
:100F400001F032FE59E1D87800280CD1587919798E
:100F5000884202D21879401E1871F1220021981C93
:100F600001F022FE3CE01879102802D0112812D09E
:100F700036E0D878002802D0012801D00AE009E044
:100F8000DFF89C05C168B1F5807F02DAC168491CB1
:100F9000C160FFE724E0D878002802D0012801D002
:100FA0001EE01DE000210800C0B20B2817DADFF8B0
:100FB0005C25DFF86C050B00DBB252F82330C46807
:100FC000A3420AD10B00DBB20A2B06DA0B00DBB21C
:100FD00002EB83025268C26001E0491CE3E7FFE7CD
:100FE0000BE158791979884202D21879401E18719C
:100FF000F1220021981C01F0D7FDFEE0D8780028EE
:101000000CD158791979884202D21879401E18718A
:10101000F1220021981C01F0C7FD22E01879183850
:10102000012802D9801E0ED01BE0D878002802D0FB
:10103000012801D006E005E0DFF8E404C168491C9E
:10104000C160FFE70DE0D878002802D0012801D068
:1010500006E005E0DFF8C804C168491CC160FFE78D
:10106000FFE7CAE0D87800280CD15879197988426E
:1010700002D21879401E1871F1220021981C01F04B
:1010800093FD46E018791C2804D042D31E282CD0AA
:1010900013D33EE0D878002802D0012801D00BE01D
:1010A0000AE0DFF87C14C868002802D10120C8607B
:1010B00001E00020C860FFE72BE0D878002802D0CC
:1010C000012801D010E00FE0DFF8540AC07A03F0E5
:1010D0006FFFDFF84C24D36814214843834202D2C7
:1010E000D068401CD060FFE713E0D878002802D019
:1010F000012801D00CE00BE0DFF82404C168DFF820
:10110000202A926B914202DAC168491CC160FFE754
:10111000FFE772E0D87800280CD158791979884215
:1011200002D21879401E1871F1220021981C01F09A
:101130003BFD61E01879202806D05DD322282FD00E
:101140001AD3232844D057E0D878002802D00128A9
:1011500001D010E00FE0DFF8C809007B03F028FFA2
:10116000DFF8BC23D36814214843834202D2D068FD
:10117000401CD060FFE73FE0D878002802D001286B
:1011800001D00CE00BE0DFF89803C168DFF890298C
:10119000526C914202DAC168491CC160FFE72BE042
:1011A000D878002802D0012801D010E00FE0DFF845
:1011B0007009007B03F0FCFEDFF86423D368502144
:1011C0004843834202D2D068401CD060FFE713E05E
:1011D000D878002802D0012801D00CE00BE0DFF81D
:1011E0004003C168DFF83829D26C914202DAC16845
:1011F000491CC160FFE7FFE7FFE710BD522900204F
:10120000E028002010B5DFF81033987800280DD0C2
:1012100002281DD00BD3042872D026D3062800F054
:10122000AE807AD3072800F0FF806CE16BE1DFF835
:10123000EC02DFF8EC12CA68825C521ECB68C25422
:10124000CA68825C302A02DA3922C96842545AE1FB
:1012500018799979884202D21879401C1871F122C4
:101260000021981C01F0A0FC4DE1D87800280CD199
:1012700018799979884202D21879401C1871F122A4
:101280000021981C01F090FC39E01879102802D058
:10129000112810D033E0D878002802D0012801D0DE
:1012A00008E007E09E48C168012902DBC168491EC9
:1012B000C160FFE723E0D878002802D0012801D0E0
:1012C0001DE01CE00A221000C0B2002816D08F4B8F
:1012D00093491000C0B253F82000CC68A0420BD153
:1012E0001000C0B2002807D01000C0B203EB80008D
:1012F00050F8040CC86001E0521EE4E7FFE702E189
:1013000018799979884202D21879401C1871F12213
:101310000021981C01F048FCF5E0D87800280CD199
:1013200018799979884202D21879401C1871F122F3
:101330000021981C01F038FC20E0187918380128A9
:1013400002D9801E0DD019E0D878002802D00128DB
:1013500001D005E004E07248C168491EC160FFE7A2
:101360000CE0D878002802D0012801D005E004E084
:101370006B48C168491EC160FFE7FFE7C3E0D8784A
:1013800000280CD118799979884202D21879401C2A
:101390001871F1220021981C01F006FC43E0187935
:1013A0001C2804D03FD31E2826D012D33BE0D87887
:1013B000002802D0012801D00AE009E05849C86895
:1013C000002802D10120C86001E00020C860FFE7CA
:1013D00029E0D878002802D0012801D00BE00AE0EB
:1013E0004F48DFF83C17C96BC268914202DAC16806
:1013F000491EC160FFE716E0D878002802D0012816
:1014000001D00FE00EE0DFF81807C07A03F0D0FD3E
:10141000434A00214843D168884202D2D068401E26
:10142000D060FFE7FFE76EE0D87800280CD118798C
:101430009979884202D21879401C1871F122002152
:10144000981C01F0B1FB5DE01879202806D059D333
:1014500022282DD015D323283DD053E0D87800285A
:1014600002D0012801D00BE00AE02D48DFF8B016C9
:10147000896CC268914202DAC168491EC160FFE707
:1014800040E0D878002802D0012801D00FE00EE01B
:10149000DFF88C06007B03F08BFD214A00214843D6
:1014A000D168884202D2D068401ED060FFE729E0B0
:1014B000D878002802D0012801D00BE00AE01848B3
:1014C000DFF85C16096DC268914202DAC168491EF4
:1014D000C160FFE716E0D878002802D0012801D0CB
:1014E0000FE00EE0DFF83806007B03F061FD0C4AE8
:1014F00000214843D168884202D2D068401ED060A3
:10150000FFE7FFE7FFE710BD8C0C0020100700206D
:1015100084270020C4280020B428002000000020D8
:101520006C2800207FB5DFF8FC45A078002814D097
:10153000022816D012D3042800F0898014D306287C
:1015400000F04C81C0F09E80082800F0D382C0F0EB
:10155000F081092800F0D582E0E2DFE20020A070EF
:10156000DCE20020A070D9E22079102802D01128F6
:1015700036D06BE0E078002802D0012816D02EE0AB
:10158000A51CF1200390002002900E20019009205C
:101590000090092300220221280001F028FB0622E6
:1015A000290014F1080000F03FFD18E0A51C0622F8
:1015B000290014F1080000F037FDF1200390DFF856
:1015C0006805029011200190102000901023E0780F
:1015D000421ED2B20321280001F009FBFFE735E0EB
:1015E000E078002802D0012816D02EE0A51CF120BA
:1015F0000390002002900E20019009200090092302
:1016000000220221280001F0F2FA0622290014F13A
:10161000080000F009FD18E0A51C0622290014F1BD
:10162000080000F001FDF1200390DFF800050290B2
:1016300011200190102000901123E078421ED2B2B8
:101640000321280001F0D3FAFFE7FFE766E22079E3
:101650001438022815D8A51CF12003900020029010
:101660000E200190092000900A2300220221280068
:1016700001F0BDFA0622290014F1080000F0D4FCA4
:10168000FFE74BE22079182805D0C0F0A6801A2881
:101690006DD036D3A1E0E078002802D0012816D022
:1016A0002EE0A51CF1200390002002900E20019056
:1016B000092000900B2300220221280001F097FA54
:1016C0000622290014F1080000F0AEFC18E0A51C69
:1016D0000622290014F1080000F0A6FCF120039076
:1016E000DFF84C0402901A20019018200090182373
:1016F000E078421ED2B20521280001F078FAFFE717
:101700006BE0E078002802D0012816D02EE0A51C5E
:10171000F1200390002002900E20019009200090FB
:101720000B2300220221280001F061FA0622290081
:1017300014F1080000F078FC18E0A51C062229002E
:1017400014F1080000F070FCF1200390DFF8E403CE
:1017500002901A200190182000901923E078421E70
:10176000D2B20521280001F042FAFFE735E0E07827
:10177000002802D0012816D02EE0A51CF1200390ED
:10178000002002900E200190092000900B230022DF
:101790000221280001F02BFA0622290014F108008A
:1017A00000F042FC18E0A51C0622290014F10800F4
:1017B00000F03AFCF1200390DFF87C0302901A203D
:1017C0000190182000901A23E078421ED2B2052121
:1017D000280001F00CFAFFE7FFE79FE120791C28C1
:1017E00005D0C0F0A5801E286DD037D3A0E0E078EA
:1017F000002802D0012816D02FE0A51CF12003906C
:10180000002002900E200190092000900C2300225D
:101810000221280001F0EBF90622290014F108004A
:1018200000F002FC19E0A51C0622290014F10800B2
:1018300000F0FAFBC14EF120039002961E200190A9
:101840001C2000901C23E078421ED2B20621280002
:1018500001F0CDF9B2480664FFE769E0E0780028BE
:1018600002D0012816D02DE0A51CF1200390002005
:1018700002900E200190092000900C2300220221EA
:10188000280001F0B4F90622290014F1080000F044
:10189000CBFB17E0A51C0622290014F1080000F07C
:1018A000C3FBF1200390A64802901E2001901C204B
:1018B00000901D23E078421ED2B20621280001F0DC
:1018C00096F9FFE734E0E078002802D0012816D02E
:1018D0002DE0A51CF1200390002002900E20019025
:1018E000092000900C2300220221280001F07FF93A
:1018F0000622290014F1080000F096FB17E0A51C51
:101900000622290014F1080000F08EFBF12003905C
:101910008C4802901E2001901C2000901E23E0782D
:10192000421ED2B20621280001F061F9FFE7FFE76D
:10193000F4E02079202808D0C0F0DB8022286ED087
:1019400038D3232800F0A080D3E0E078002802D02C
:10195000012816D02DE0A51CF12003900020029054
:101960000E200190092000900D2300220221280062
:1019700001F03DF90622290014F1080000F054FBA3
:1019800017E0A51C0622290014F1080000F04CFB0A
:10199000F12003906C4802902320019020200090B9
:1019A0002023E078421ED2B20721280001F01FF95F
:1019B000FFE79EE0E078002802D0012816D02DE055
:1019C000A51CF1200390002002900E200190092018
:1019D00000900D2300220221280001F008F90622C0
:1019E000290014F1080000F01FFB17E0A51C0622D7
:1019F000290014F1080000F017FBF1200390534870
:101A0000029023200190202000902123E078421EA4
:101A1000D2B20721280001F0EAF8FFE769E0E07898
:101A2000002802D0012816D02DE0A51CF12003903B
:101A3000002002900E200190092000900D2300222A
:101A40000221280001F0D3F80622290014F1080031
:101A500000F0EAFA17E0A51C0622290014F108009C
:101A600000F0E2FAF120039039480290232001901F
:101A7000202000902223E078421ED2B207212800C5
:101A800001F0B5F8FFE734E0E078002802D0012843
:101A900016D02DE0A51CF1200390002002900E200E
:101AA0000190092000900D2300220221280001F05E
:101AB0009EF80622290014F1080000F0B5FA17E09C
:101AC000A51C0622290014F1080000F0ADFAF1204F
:101AD000039020480290232001902020009023238F
:101AE000E078421ED2B20721280001F080F8FFE71B
:101AF000FFE713E0062214F10801A01C00F094FA9D
:101B00000CE0074D2878022807D0062214F10801BE
:101B1000A01C00F089FA00202870FFE77FBD0000BC
:101B20007C000020B42800207D00002080000020E0
:101B3000A4000020A8000020AC000020E028002025
:101B4000B4000020B8000020C0000020C400002025
:101B5000C8000020CC000020F8B40300002508686D
:101B6000E840002800F0D78001260F6816FA05F03B
:101B700007403A00002A00F0CC80087910F00300FA
:101B8000012804D0087910F0030002281DD19F68B5
:101B90005FF0030C2800C0B240001CFA00FC37EADA
:101BA0000C07D1F80CC02800C0B240001CFA00FCA1
:101BB0005CEA07079F605868AE40B0434E68C6F3C2
:101BC0000016AE40304304005C60087910F003005A
:101BD00003280ED0DE6803272800C0B240008740EB
:101BE000BE438F682800C0B2400087403E433400A7
:101BF000DC60087910F00300022818D12800C00822
:101C000003EB8000066A0F2715F00700C0B28000C2
:101C10008740BE430F6915F00700C0B280008740BF
:101C20003E4334002800C00803EB800004621E68B5
:101C300003272800C0B240008740BE430F7917F049
:101C400003072800C0B2400087403E4334001C60B8
:101C5000486810F4403F5CD09548066856F001068D
:101C60000660006810F0010000900098914F280075
:101C7000800857F820605FF00F0C15F00300C0B229
:101C800080001CFA00FC36EA0C06B3F1904F01D13B
:101C9000002414E08848834201D101240FE08748E2
:101CA000834201D102240AE08548834201D1032402
:101CB00005E08448834201D1042400E0072415F0A4
:101CC0000300C0B28000844026432800800847F803
:101CD00020607D4C206890434F68FF0200D5104380
:101CE00020607A4E346894434F68BF0200D5144395
:101CF0003460774E306890434F68BF0300D510437F
:101D00003060744E346894434F68FF0300D5144329
:101D100034606D1C23E7F1BC70472DE9F0410300EE
:101D200000250800E840002800F0A880012616FAE7
:101D300005F008400200002A00F09E80DFF874C120
:101D4000280080085CF820000F2715F0030E5FFACA
:101D50008EFE5FEA8E0E17FA0EFE1EEA00000400E9
:101D6000B3F1904F02D15FF0000E19E05248834268
:101D700002D15FF0010E13E05048834202D15FF0C0
:101D8000020E0DE04E48834202D15FF0030E07E0E1
:101D90004C48834202D15FF0040E01E05FF0070E71
:101DA00015F00300C0B280001EFA00FE74452CD16D
:101DB0004848D0F800E03EEA020EC0F800E044488F
:101DC000D0F800E03EEA020EC0F800E03F48D0F84C
:101DD00000E03EEA020EC0F800E03B48D0F800E028
:101DE0003EEA020EC0F800E015F00300C0B2800029
:101DF00017FA00F00400280080085CF82000A043D7
:101E0000AE465FEA9E0E4CF82E005FF0030C186899
:101E1000AE465FFA8EFE5FEA4E0E1CFA0EFE5EEADA
:101E2000000018602800C00803EB800E2800C008DE
:101E300003EB8000D0F8208015F00700C0B28000CE
:101E4000874038EA0707CEF8207098682F00FFB265
:101E50007F001CFA07F7B84398605868AE4030EA34
:101E600006065E60DE682800C0B240001CFA00FC76
:101E700036EA0C0CC3F80CC06D1C52E7BDE8F081CB
:101E8000020010690B009BB2184201D0012000E053
:101E90000020C0B270471300DBB2002B03D00B0050
:101EA0009BB2836102E00B009BB28362704700002B
:101EB000601002400800014000040048000800488B
:101EC000000C004800100048080401400C040140C8
:101ED000040401400004014038B504000D00DFF89F
:101EE000FC010168200000F006F8A84201D301209F
:101EF00000E0002032BD814204D25FF0FF32101AB0
:101F0000081800E0081A704738B52DED048B08EE6C
:101F1000100A0C001500DFED438A2800C0B2FB2830
:101F200010DBB8EEC89A2800C0B24042C0B200F040
:101F30008BF829EE009A00212000B0EE490A00F04B
:101F4000B1F80EE0B8EEC89A2800C0B200F07CF8F4
:101F500089EE009A2900C9B22000B0EE490A00F0CB
:101F6000A1F8BDEC048B31BD10B400210A008388B8
:101F700092B29A4206D2002203680C00A4B21A550B
:101F8000491CF3E70022828010BC704710B40400A3
:101F900013005A1E9BB2002B02D02170641CF7E77D
:101FA00010BC704770B504000D001600DFF8240166
:101FB00000782100C9B2884209D3DFF824211068D3
:101FC000002804D0310089B228001268904770BD03
:101FD00038B504000D00280003F0F0F9020092B2B9
:101FE00029002000C0B2FFF7DDFF31BD70B504004D
:101FF0000D00280003F0E2F9020092B2290020004F
:10200000C0B2FFF7CFFFDFF8DC603068002807D0F0
:10201000280003F0D3F9010089B228003268904704
:1020200070BD00000000000030B404000D0013007B
:102030005A1E9BB2002B04D02B7823706D1C641C9D
:10204000F5E730BC7047000010B504002000C0B2B6
:10205000FB2816DB2000C0B2D0F5807003F0E6F953
:1020600041EC110B9FED200B03F0F9F953EC102B11
:102070000020194903F0FCF903F01EFB00EE100AE2
:102080000FE02000C0B203F04BFB41EC110B9FEDC1
:10209000160B03F0E4F951EC100B03F00DFB00EE0E
:1020A000100A10BD38B52DED028B82B0B0EE408A1B
:1020B00004000D0018EE100A03F040FBCDE900010A
:1020C0002A000B49200003F05DFB02B0BDEC028B3F
:1020D00031BD0000900C00200000F03F402900209E
:1020E000482900204429002000000000000024406E
:1020F000DCFA000880B500224FF40071DFF8B80B5D
:10210000FFF7C9FE00224FF400715FF09040FFF727
:10211000C2FE03F057FBDFF8A40BDFF8A41B016439
:10212000DFF8FC1B421CC1F88821021DC1F8A02168
:1021300010F134020A6210F11C028A63027A81F8FB
:102140003D2010F120020A65427A81F8552010F1F5
:1021500024028A66827A81F86D2010F11402C1F897
:10216000D021427A81F8D52110F12802C1F8482205
:10217000027A81F84D2210F12C02C1F86022427AD5
:1021800081F8652210F13002C1F87822827A81F854
:102190007D2210F13802C1F8C022C27A81F8C5222E
:1021A00010F13C02C1F8D822C27A81F8DD2210F188
:1021B0004402C1F80823027B81F80D2310F1480284
:1021C000C1F82023027B81F8252310F14C02C1F8CD
:1021D0003823027B81F83D2310F15002C1F85023CF
:1021E000007B81F85503DFF83C0B0068C1F89803C9
:1021F000DFF8340B0068C1F8C80301BD38B5002012
:1022000000242000C0B2072835DADFF8205B200068
:10221000C0B200012844407801282AD12000C0B271
:1022200000012844406800280ED003F023FB210061
:10223000C9B2090129444968401A2100C9B20901FB
:1022400029448968884214D300202100C9B20901B9
:102250002944487003F00EFB2100C9B2090129444A
:1022600048602000C0B22100C9B209012944C968F0
:102270008847641CC5E7002032BD38B50400DFF88C
:10228000B85A687800281FD100224FF40071DFF897
:10229000280AFFF700FE00224FF400715FF0904023
:1022A000FFF7F9FD03F08EFA892000902023072222
:1022B0000521DFF8880A03F0E3FA012068700221A3
:1022C000DFF8680A03F024FC012032BD7CB504006D
:1022D000DFF86C5A2878002803D0022823D003D3D3
:1022E0003DE003F03FFC3AE003F0B2FC89200090AF
:1022F000202307220521DFF8440A03F0C1FADFF8A2
:10230000442A03212C2003F0D5FBDFF83C2A0421CA
:10231000082003F0CFFB03F0F8FC41F28830DFF82F
:102320000C1A88611BE00120DFF80C1A4870892024
:102330000090202307220521DFF8000A03F0A0FA0D
:10234000DFF8E8690221300003F0E2FB03213000EE
:1023500003F0DEFB0421300003F0DAFBFFE728780E
:10236000401C28702100C9B2DFF8C00903F0DFFB70
:10237000012076BD70B5040000F0BCF8DFF8B85954
:102380006878012803D1A87800F0E5FB04E000217B
:10239000DFF8980903F0BCFBDFF8B009A9780278F0
:1023A000914207D0A9780170DFF8A4090068DFF82E
:1023B000A4190860A8780A2812D1DFF898694FF4A8
:1023C000FA613068FFF788FD012809D1DFF880093C
:1023D00000683060062215F10801A81CFFF724FEF2
:1023E0002100C9B2DFF8440903F0A1FB012070BD50
:1023F00010B50400DFF86019DFF860090069FFF725
:102400006BFD012827D1DFF858090178012905D192
:10241000002101700020DFF820198870DFF84409DE
:102420000188491C018042F21071DFF80029230065
:10243000DBB21B011A449268B1FBF2F102888A42B6
:102440000DD300210180DFF8F0188878002806D02D
:102450000020887003E00120DFF8041908702100D3
:10246000C9B2DFF8C80803F062FB012010BD38B51F
:102470000400FDF7A4FEDFF8E458287A012808D10B
:102480000521DFF8A80803F043FBDFF8C408006863
:1024900028612100C9B2DFF8940803F048FB01204D
:1024A00032BD10B50400FDF771FEDFF8B008002161
:1024B000017000210172012010BD10B5040000223E
:1024C0004FF40051DFF8F007FFF7E5FC012010BDE5
:1024D00010B5040001224FF40051DFF8DC07FFF7CC
:1024E000DAFCDFF84808210089B28166062103F092
:1024F0001EFB10BD38B5DFF8C447DFF86C08216C4F
:10250000097850F82100DFF81818C1F8A802DFF8A0
:102510005C0801786170DFF85818407851F82000A5
:102520006060207A02F044FD00EE100ADFF84458A3
:10253000B8EE400AD5ED010A20EE200ABDEEC00A31
:1025400084ED040A607A02F033FD00EE100AB8EE62
:10255000400AD5ED020A20EE200ABDEEC00A84ED45
:10256000050AA07A02F024FD00EE100AB8EE400A37
:10257000D5ED030A20EE200ABDEEC00A84ED060A5E
:10258000207A02F015FD00EE100AB8EE400AD5EDF3
:10259000040A20EE200ABDEEC00A84ED070A607A24
:1025A00002F006FD00EE100AB8EE400AD5ED050A6D
:1025B00020EE200ABDEEC00A84ED080AA07A02F0DF
:1025C000F7FC00EE100AB8EE400AD5ED060A20EE40
:1025D000200ABDEEC00A84ED090A207A02F0E8FC68
:1025E00000EE100AB8EE400AD5ED070A20EE200AE8
:1025F000BDEEC00A84ED0A0A607A02F0D9FC00EE52
:10260000100AB8EE400AD5ED080A20EE200ABDEE09
:10261000C00A84ED0B0AA07A02F0CAFC00EE100A90
:10262000B8EE400AD5ED090A20EE200ABDEEC00A38
:1026300084ED0C0ADFF8400790ED010AF2EE040A7F
:1026400020EE200ABDEEC00A84ED0D0AE07A02F009
:10265000AFFC00EE100ADFF86856B8EE400AD5ED80
:10266000020A20EE200ABDEEC00A84ED0E0AE07ACE
:1026700002F09EFC00EE100AB8EE400AD5ED010A09
:1026800020EE200ABDEEC00A84ED0F0A207B02F086
:102690008FFC00EE100ADFF8E456B8EE400AD5EDE4
:1026A000000A20EE200ABDEEC00A84ED110A207B4C
:1026B00002F07EFC00EE100AB8EE400AD5ED010AE9
:1026C00020EE200ABDEEC00A84ED120A207B02F043
:1026D0006FFC00EE100AB8EE400AD5ED020A20EEBB
:1026E000200ABDEEC00A84ED130A207B02F060FCD4
:1026F00000EE100AB8EE400AD5ED030A20EE200ADB
:10270000BDEEC00A84ED140A31BD2DE9F84F8AB040
:1027100006002021002202AC200003F063FB00240D
:10272000002500208DF8050000208DF806001827F0
:10273000DFF8EC853000C0B27843404490F8159043
:102740003000C0B2784340444068002842D00121A4
:102750003000C0B200F0A9F900280ED13000C0B29C
:102760007843404442683000C0B278434044017D21
:102770004846C0B203F09EF91EE05FF0000A300048
:10278000C0B278434044406802F018FE5146C9B2D6
:10279000814207D2202002A95246D2B288541AF1AF
:1027A000010AECE702AA3000C0B278434044017D40
:1027B0004846C0B203F07EF93000C0B278434044CE
:1027C000406802F0FBFDDFF8B8150979491C484361
:1027D00010FA89F93000C0B278434044806800287C
:1027E00000F03A813000C0B278434044007B0028BA
:1027F0000BD002281ED012D3042830D024D30628B0
:1028000045D036D307283ED044E03000C0B27843EC
:10281000404480680078002104000D003AE0300058
:10282000C0B278434044806890F90000C1170400AA
:102830000D002FE03000C0B278434044806800882B
:10284000002104000D0025E03000C0B27843404470
:102850008068B0F90000C11704000D001AE03000D4
:10286000C0B27843404480680068002104000D0035
:1028700010E03000C0B27843404480680068C1175F
:1028800004000D0006E001208DF8050002E00220A2
:102890008DF805009DF8050000280CD13000C0B26D
:1028A00078434044407B40420200D2B202A920005B
:1028B000FFF72AFB26E09DF8050001281AD1300019
:1028C000C0B278434044806802F078FD202819D2D5
:1028D0003000C0B278434044806802F06FFD0200CF
:1028E00092B23000C0B278434044816802A8FFF73A
:1028F0009BFB07E03000C0B278434044806800781A
:102900008DF8080002213000C0B200F0CEF8012896
:1029100023D13000C0B278434044807DC0B200096A
:102920008DF806009DF806000F2805D0202002A98A
:102930009DF80620885410E05FF0000A02A802F01B
:102940003DFD5146C9B2814207D2202002A952461C
:10295000D2B288541AF1010AF0E73000C0B202285E
:102960005ED15FF0000A00208DF804003000C0B294
:1029700078434044407B002802D009208DF80400B1
:10298000392000902E2315220F21DFF8F80303F0E1
:102990005DFA02A802F012FD8346DFF8E403007935
:1029A000401C00FB0BFB5846C0B2022190FBF1F02B
:1029B0001F280BDA5846C0B2022190FBF1F0D0F18B
:1029C00040009DF8041050FA81FA07E05846C0B262
:1029D000D0F15F009DF8041050FA81FA02AA30008D
:1029E000C0B278434044007D401CC0B2DFF8901371
:1029F0004979D1EBC001491EC9B25046C0B203F0BB
:102A0000CFFB5AFA8BF09DF80490B0EB09098920AE
:102A10000090202307220521C84802F031FF1BE067
:102A200089200090202307220521C44802F028FFB6
:102A300002AA3000C0B278434044017D4846C0B28B
:102A400003F038F802A802F0B9FCCD490979491C15
:102A5000484310FA89F081463000C0B278434044C0
:102A6000006900281ED03000C0B27843404480681E
:102A7000002817D03000C0B2784340448068C24973
:102A800088420FD03000C0B2784340440269300021
:102A9000C0B207FB00F708EB0700017D4846C0B253
:102AA00003F008F80BB0BDE8F08FF8B504000D0096
:102AB0009B492200D2B21820424301EB0200817DE3
:102AC0002800C0B201402800C0B281422FD1AC26FC
:102AD000AE4F4FF496712800C0B2704338442200C4
:102AE000D2B250F82200FFF7F7F901282AD12800C6
:102AF000C0B206FB00F607EB06002100C9B2944AFB
:102B0000126840F821202B20A1492A00D2B242436A
:102B10000A442300DBB22E00F6B200FB06F00844A4
:102B20002100C9B2405CD0F10100D0540AE09849BC
:102B30002A00D2B22B20424301EB02002100C9B28D
:102B4000002242549249EDB22B20454301EB05008F
:102B5000E4B2005DF2BD70B50400002603F078F821
:102B600000F077F82000C0B200F07DF82000C0B27D
:102B700000F0A8F80025280080B22B2811DA684957
:102B80002A0092B21820424301EB0200C07D2100CE
:102B9000C9B2884203D12800C0B2FFF7B6FD6D1C50
:102BA000E9E703F0B2F870BDF0B44271C47803797C
:102BB0002500EDB2AB420AD3F025594E2700FFB2F3
:102BC00018235F4306EB07039D75641CEFE718238A
:102BD000534C85785D4325444679AE75002904D071
:102BE000857803FB05F323449960F0BC70472DE919
:102BF000F84F0700884691469A460A9E0B9DDDF8DD
:102C000030B00D9C87F8008087F8019087F802A00B
:102C1000FE703D712200D2B259463800FFF7C4FF62
:102C2000BDE8F18F10B4010000221000C0B20428EA
:102C30000CD21000C0B2085C564B1400E4B21B5D0D
:102C4000984201D0002002E0521CEEE7012010BCA7
:102C5000704780B50120009008237F2208210020C2
:102C600003F022FB01BD70B504002000C0B20028B3
:102C700020D14048007800280ED1294D2CA63200E2
:102C800095F85C10782002F015FF320095F874106A
:102C9000782002F00FFF0DE026A6214D320095F8B6
:102CA0005C10782002F006FF320095F8741078204E
:102CB00002F000FF70BD0000000800487C0000200A
:102CC000E02800200100C9B2092924D1324909783D
:102CD000002906D002290ED008D3042915D00FD31D
:102CE00018E02E490E4AC2F8E01318E02C490C4AAD
:102CF000C2F8E01313E02B49094AC2F8E0130EE0D2
:102D00002949074AC2F8E01309E02849044AC2F8F1
:102D1000E01304E003E02149014AC2F8E0137047E0
:102D200034010020D4050020D00000200C00002039
:102D3000200000004E000000B4280020D8EE00085B
:102D4000612900207CF8000874F400086229002042
:102D5000402900201029002080EE36006C28002039
:102D600063290020542900202C0100208C0C002015
:102D70001007002084270020F8280020C428002005
:102D8000D4280020B0EC00088E0C0020441900204C
:102D9000E0220020D80000207C000020DC00002081
:102DA000EC000020FC0000200C0100201C01002091
:102DB00010B504000121DFF8E80C02F0B8FE012094
:102DC00010BD30B587B004001421002202AD2800E8
:102DD00003F008F8DFF8B80BD0E90023CDE90023B1
:102DE00002A80090DFF8AC5B2978684600F017FA7B
:102DF00028786870BDF80410009800F0A2FD2878CB
:102E0000002803D12878401C287001E00020287099
:102E1000DFF88C5C0221280002F07AFE03212800F2
:102E200002F085FE2100C9B2280002F080FE0120D8
:102E300007B030BD10B50400DFF85C1B888800289F
:102E400010D0DFF8580B02888B889A4208D10021F5
:102E500001800321DFF8480C02F05AFE012008E04F
:102E6000898801802100C9B2DFF8340C02F05FFECE
:102E7000012010BD2DE9F041040000250026DFF8F7
:102E8000187BB88803283DDB3868B988084410F8F7
:102E9000010C3968BA88114411F8021C51EA00216A
:102EA0000E00B988891E386803F098FA05002800DA
:102EB000310080B289B288421DD10721DFF8E00BD2
:102EC00002F035FE3868007805280DD1DFF8C48A95
:102ED000012198F8010000F0BBF998F80120D7E92A
:102EE000000100F0A5F913E00021DFF8A80A4078FE
:102EF00000F0AEF90CE00021DFF8980A407800F00D
:102F0000A7F905E00021DFF88C0A407800F0A0F96D
:102F1000DFF8800A407800F0F1F80221DFF8800B3A
:102F200002F017FE0120BDE8F0810100DFF8280D56
:102F30000278032A01D0042202700120704710B5E4
:102F400004000020DFF85C1B08702100C9B2DFF824
:102F5000500B02F0ECFD012010BD10B50400DFF8AD
:102F6000480B0178012936D1DFF8101CC9780129F6
:102F700031D1DFF80C1C91ED040AD0ED020AB4EE59
:102F8000600AF1EE10FA08DA91ED040AD0ED010AB8
:102F9000B4EE600AF1EE10FA0ED501224FF4006192
:102FA0005FF09040FEF777FF01224FF480515FF011
:102FB0009040FEF770FF1CE000224FF400615FF0CC
:102FC0009040FEF768FF00224FF480515FF0904080
:102FD000FEF761FF0DE000224FF400615FF09040CA
:102FE000FEF759FF00224FF480515FF09040FEF74A
:102FF00052FFDFF8AC0A4FF47A7181662100C9B242
:1030000002F095FD012010BD38B50400DFF8741BF7
:10301000087800281FD101200870DFF8405C0122E9
:1030200010212800FEF737FF002208212800FEF7B4
:1030300032FF00220421DFF8280CFEF72CFF4FF4AA
:10304000FA60DFF85C1A886703F0AAFB03F053FD0F
:1030500003F042FD12E00020087001220821DFF891
:10306000FC0BFEF718FF01220421DFF8F40BFEF73A
:1030700012FF4EF66020DFF8281A88672100C9B2D7
:10308000DFF81C0A02F053FD012032BD10B5040028
:10309000DFF8EC1A0878002803D1002081F8280016
:1030A00011E0DFF8C00B8278042A05D08278092A63
:1030B00006D1007A042803D1032081F8280002E019
:1030C000022081F82800DFF8B40AC078012806D170
:1030D000012081F82900012081F82A0005E0002064
:1030E00081F82900002081F82A002100C9B2DFF808
:1030F000B00902F01CFD012010BD000038B52DED17
:10310000028B04009FED978A2000C0B2012860D195
:10311000DFF86C5A95ED010ADFED930A20EE200AE4
:10312000BDEEC00A10EE100A00F042FA85ED010A69
:1031300095ED010A00F0B0FA85ED040A95ED030A59
:1031400000F00AFB85ED060A95ED020A00F006FB89
:1031500085ED050A95ED060AD5ED090A30EE200A3F
:10316000DFF8A80BD0ED020AF4EE400AF1EE10FAF7
:1031700002D5D0ED020A0BE0D0ED030AB4EE600AEE
:10318000F1EE10FA02D5D0ED030A01E0F0EE400AAC
:10319000C5ED060AD5ED040A95ED071A30EE818AD1
:1031A000D0ED000AF4EE480AF1EE10FA02D590EDE7
:1031B000000A0BE090ED010AB4EE408AF1EE10FA3D
:1031C00002D590ED010A01E0B0EE480A85ED040A4F
:1031D000FFE7DFF8AC592878002807D100206860A5
:1031E00095ED010A00F058FA85ED040A28780028C8
:1031F00007D10020E86095ED030A00F0ADFA85EDF7
:10320000060A2878002807D10020A86095ED020A58
:1032100000F0A4FA85ED050ABDEC028B31BD38B58E
:1032200004000D002900C9B2200000F01BF831BDD8
:1032300070B504000D00160020000078C0B205280B
:1032400005D13200D2B22000290000F08FF870BD05
:1032500038B504000D002900C9B22000C0B200F04A
:1032600024F931BD7FB504000D000221002202AE19
:10327000300002F0B7FD00262800C0B2002806D0BA
:1032800002282ED024D3042855D03FD368E0DFF89D
:10329000140890ED010AF2EE040A20EE200ABDEEB9
:1032A000C00A10EE100A0600300080B2000A8DF845
:1032B000080030008DF8090002A80190012000905C
:1032C0004FF4815306220521200003F0F3F847E074
:1032D00006200090002303220521200003F09CF823
:1032E0003EE0DFF8A80D818802290ED10168019126
:1032F0008088022190FBF1F080B2009041F204033B
:1033000006220521200003F0D5F829E0DFF87C0D26
:10331000818802290ED1016801918088022190FBE9
:10332000F1F080B200904FF4805306220521200076
:1033300003F0C0F814E0DFF8540D818802290ED1A3
:10334000016801918088022190FBF1F080B2009029
:1033500042F2200306220521200003F0ABF8FFE72C
:103360007FBD0000000000000000C8422DE9F047CA
:103370002DED048B84B004000D0092460020ADF8C2
:1033800008009FEDC28A00265046C0B2002806D031
:10339000401E05D0401E022840F27F8080E07FE082
:1033A0000320ADF80800022202A9200000F096FADE
:1033B00008EE900A022202A9200000F08FFA81464E
:1033C000DFF8BC77B8EE680A10EE100A02F0B6F922
:1033D000CDE90001484602F0A3F941EC110B9FED45
:1033E000AC0B02F03CF853EC102BDDE9000102F0CD
:1033F0003FF802F061F97860022202A9200000F093
:103400006DFA09EE100A022202A9200000F066FA05
:103410008046B8EE490A10EE100A02F08FF9CDE9A5
:103420000001404602F07CF941EC110B9FED980B36
:1034300002F015F853EC102BDDE9000102F018F84A
:1034400002F03AF9F860022202A9200000F046FAE0
:1034500000EE100AB0EE408A022202A9200000F01D
:103460003DFA0600B8EE480A10EE100A02F066F9BE
:10347000CDE90001300002F053F941EC110B9FED52
:10348000840B01F0ECFF53EC102BDDE9000101F09F
:10349000EFFF02F011F9B86002E000F0BFF9FFE7BA
:1034A00004B0BDEC048BBDE8F0870200D2B2002A64
:1034B000042A1BD80A00D2B2012A0ED1DFF8C02696
:1034C00000235370012313700200D2B2012A0CD1E1
:1034D0000122DFF8A836DA7007E0DFF8A426537877
:1034E000032B02DA53785B1C5370FFE7DFF890364A
:1034F0005A78002A0ED05A78032A0BDB00221A7061
:1035000000225A6000229A600022DA600022DFF86E
:103510006C36DA7070472DE9F04100242500EDB2D9
:103520000A2D43DA00252E00F6B2092E3CDA2E00D1
:10353000F6B201EB860676682F00FFB251F82770CD
:10354000BE422FDA00262F00FFB251F82770AC469A
:103550005FFA8CFC01EB8C0CDCF804C0AE465FFA21
:103560008EFE41F82EC0AC465FFA8CFC01EB8C0C51
:10357000CCF80470AC465FFA8CFC50F82CC0AE4618
:103580005FFA8EFE00EB8E0EDEF804E0A8465FFACE
:1035900088F840F828E0AE465FFA8EFE00EB8E0E0B
:1035A000CEF804C06D1CBEE7641CB7E7BDE8F0812F
:1035B00038B52DED028B04009FED348ADFF8681BCF
:1035C000087800282AD10120087000210800C0B224
:1035D0000A2815DA0800C0B2DFF8502B0B00DBB266
:1035E00042F82300DFF8482B0800C0B252F8200050
:1035F000002803D10800C0B242F82040491CE5E78A
:10360000DFF82C5B092300222900DFF8200BFFF7ED
:1036100082FF95ED050AB8EEC00A30E000200100F7
:10362000C9B20A291EDADFF8041B0200D2B251F82F
:103630002220092A0BD100220300DBB241F823200B
:10364000DFF8EC1A0200D2B241F8224008E0020092
:10365000D2B251F82220521C0300DBB241F82320E1
:10366000401CDCE7DFF8C85A092300222900DFF8F4
:10367000BC0AFFF750FF95ED050AB8EEC00ADFED72
:10368000C10A80EE200ABDEC028B31BD00000000B3
:103690000000000000002440F0EE400A9FED8B1A6D
:1036A0009FED8B3ADFED8B3AF5EE400AF1EE10FA22
:1036B00040D0F0EE603A9FED880ADFF8340C90EDD0
:1036C000004A34EE634AB4EE404AF1EE10FA08DAEA
:1036D00090ED004A33EEC44AB4EE404AF1EE10FADF
:1036E00003DB9FEDA90A21EE001ADFF8300B90ED05
:1036F000000AF0EE401ADFF8281B91ED000A30EEC8
:10370000010AB0EE402A32EE030A82EE000AF0EE21
:10371000402A33EEE10AB0EE614A00EE224A80ED23
:10372000004AB7EE000A30EE620A20EE020A81ED8E
:10373000000A08E0DFF8E80A5FF07E510160DFF878
:10374000DC0A00210160DFF8D40ADFF8A41B02685C
:103750000A6090ED000A704770470000F0EE400AE2
:103760009FED5A1A9FED5A3ADFED5A3AF5EE400AAC
:10377000F1EE10FA40D0F0EE603A9FED840ADFF8E7
:10378000740B90ED004A34EE634AB4EE404AF1EE19
:1037900010FA08DA90ED004A33EEC44AB4EE404A1B
:1037A000F1EE10FA03DB9FED780A21EE001ADFF844
:1037B000480B90ED000AF0EE401ADFF8401B91ED47
:1037C000000A30EE010AB0EE402A32EE030A82EE21
:1037D000000AF0EE402A33EEE10AB0EE614A00EE54
:1037E000224A80ED004AB7EE000A30EE620A20EE6F
:1037F000020A81ED000A08E0DFF8000B5FF07E515D
:103800000160DFF8F40A00210160DFF8EC0ADFF85C
:10381000E41A02680A6090ED000A704780B5032040
:10382000DFF83414087004219D4802F092F9322028
:10383000FEF74EFE01BD80B5DFF8C40A0078554999
:1038400008700220DFF8101408700421944802F078
:103850006EF901BD2DE9F04104000D0016002F00A6
:10386000DFF828884046FEF77FFB300080B2022850
:1038700002D004280BD01DE07878D8F8001008702A
:103880003878D8F800104870A8F8046015E0787807
:10389000D8F8001008703878D8F800104870F87818
:1038A000D8F800108870B878D8F80010C870A8F858
:1038B000046002E00020A8F80400DFF8440A047065
:1038C0000120DFF8401A0870BDE8F08195BFD633BB
:1038D00017B7D1380000000001000040F0B4030029
:1038E00000200C881500EDB2042D16D12500ADB2D4
:1038F0001D44AE782500ADB21D44ED7855EA06258D
:103900002600B6B29E5D2700BFB21F447F7857EAFB
:10391000062757EA054738000DE01500EDB2022DE5
:1039200009D12500ADB25D5D2600B6B21E447678A1
:1039300056EA052630000D8855FA82F50D80F0BC58
:10394000704770B504000D00DFF8BC6901224FF428
:1039500080513000FEF79FFA0A2003F0EFF803F0E1
:10396000B3F84FF47A732A0092B22100DFF89C0971
:1039700003F035F900224FF480513000FEF78BFA46
:1039800070BD00000000C84200007A440100A04160
:1039900094FA00085C2900203C0C00205A290020E1
:1039A0002DE9F0472DED048B8EB0B0EE409AB0EECD
:1039B000608AF0EE418A322100226C46200002F03B
:1039C00011FA0024002500260027DFF8B4A18AEDB3
:1039D000079A8AED088ACAED098A9AED070A01F06A
:1039E000DBFC80469AED080A01F0D6FC81469AED90
:1039F000090A01F0D1FC824668464146090E2200C0
:103A0000D2B28154641C4146090C2200D2B28154C6
:103A1000641C4146090A2200D2B28154641C210070
:103A2000C9B200F80180641C4946090E2200D2B2D6
:103A30008154641C4946090C2200D2B28154641C92
:103A40004946090A2200D2B28154641C2100C9B23D
:103A500000F80190641C5146090E2200D2B2815434
:103A6000641C5146090C2200D2B28154641C514698
:103A7000090A2200D2B28154641C2100C9B200F8A4
:103A800001A0641C2200D2B292B26946DFF880081D
:103A900004F0C2F80EB0BDEC048BBDE8F087000066
:103AA00084070020F8280020E0280020F8B5002432
:103AB00000250026DFF858080078C0B2FF2855D04E
:103AC000DFF850080178C9B20906DFF84C08007821
:103AD000C0B251EA0041DFF844080078C0B251EAB0
:103AE0000021DFF83C080078C0B201430C00DFF889
:103AF00034080178C9B20906DFF82C080078C0B292
:103B000051EA0041DFF824080078C0B251EA0021F0
:103B1000DFF81C080078C0B201430D00DFF814087C
:103B20000178C9B20906DFF810080078C0B251EA7E
:103B30000041DFF808080078C0B251EA0021DFF840
:103B400000080078C0B201430E000D4F17F11C01B0
:103B5000200001F049FB17F12001280001F044FB8F
:103B600017F12401300001F03FFB06E0044800217A
:103B7000C1610021016200214162F1BD24290020C0
:103B800084270020692900202DE9F0472DED028BC4
:103B90008EB00400F0EE408AB0EE608A322100223E
:103BA0006D46280002F01EF9002500260027DFF8E8
:103BB00094A78AF800408AED028ACAED018A9AED3C
:103BC000020A01F0E9FB80469AED010A01F0E4FBEC
:103BD000814668469AF800102A00D2B281546D1CC2
:103BE0004146090E2A00D2B281546D1C4146090C8F
:103BF0002A00D2B281546D1C4146090A2A00D2B271
:103C000081546D1C2900C9B200F801806D1C494621
:103C1000090E2A00D2B281546D1C4946090C2A00B3
:103C2000D2B281546D1C4946090A2A00D2B281548D
:103C30006D1C2900C9B200F801906D1C2A00D2B297
:103C400092B26946DFF8000703F0E6FF0EB0BDEC64
:103C5000028BBDE8F08700007C00002000040048D3
:103C6000000C0048B428002070B500240025DFF8BF
:103C7000D8060078C0B2FF283DD0DFF8C866DFF86C
:103C8000CC0600783070DFF8C8060178C9B20906A2
:103C9000DFF8C0060078C0B251EA0041DFF8B8068C
:103CA0000078C0B251EA0021DFF8B0060078C0B257
:103CB00001430C00DFF8A8060178C9B20906DFF855
:103CC000A4060078C0B251EA0041DFF89C060078F3
:103CD000C0B251EA0021DFF894060078C0B2014377
:103CE0000D0016F10801200001F07EFA311D2800B8
:103CF00001F07AFA08E0DFF84C0600210170DFF8E5
:103D0000701681600021416070BD0000C428002051
:103D10002DE9F84F2DED048B8EB0F0EE409AB0EE09
:103D2000608AF0EE418AB0EE619A3221002201AC45
:103D3000200002F057F85FF0000B002000900024F4
:103D400000250026DFF82CA6CAED009A8AED018A2C
:103D5000CAED028A8AED039A9AED000A01F01CFB73
:103D600007009AED010A01F017FB80469AED020A5E
:103D700001F012FB81469AED030A01F00DFB824629
:103D800001A83900090E5A46D2B281541BF1010B29
:103D90003900090C5A46D2B281541BF1010B39008B
:103DA000090A5A46D2B281541BF1010B5946C9B2D5
:103DB00047541BF1010B4146090E5A46D2B28154B9
:103DC0001BF1010B4146090C5A46D2B281541BF13A
:103DD000010B4146090A5A46D2B281541BF1010B2C
:103DE0005946C9B200F801801BF1010B4946090E82
:103DF0005A46D2B281541BF1010B4946090C5A466E
:103E0000D2B281541BF1010B4946090A5A46D2B27B
:103E100081541BF1010B5946C9B200F801901BF106
:103E2000010B5146090E5A46D2B281541BF1010BC7
:103E30005146090C5A46D2B281541BF1010B51462E
:103E4000090A5A46D2B281541BF1010B5946C9B234
:103E500000F801A01BF1010B5A46D2B292B201A99F
:103E6000DFF8140503F0D8FE0EB0BDEC048BBDE8FE
:103E7000F18F2DE9F0410024002500260027DFF80E
:103E8000F8040078C0B2FF2871D0DFF8F0040178A0
:103E9000C9B20906DFF8E8040078C0B251EA00416F
:103EA000DFF8E0040078C0B251EA0021DFF8D8045E
:103EB0000078C0B201430C00DFF8D0040178C9B229
:103EC0000906DFF8CC040078C0B251EA0041DFF8FF
:103ED000C4040078C0B251EA0021DFF8BC040078C5
:103EE000C0B201430D00DFF8B4040178C9B209067D
:103EF000DFF8AC040078C0B251EA0041DFF8A40456
:103F00000078C0B251EA0021DFF89C040078C0B20A
:103F100001430E00DFF894040178C9B20906DFF806
:103F200090040078C0B251EA0041DFF888040078BC
:103F3000C0B251EA0021DFF880040078C0B201432A
:103F40000F00DFF830844146200001F04DF918F1F0
:103F50000401280001F048F918F10801300001F0CF
:103F600043F918F10C01380001F03EF90BE0DFF8DD
:103F70000404DFF8FC13016000214160DFF83C1409
:103F800081600021C160BDE8F08178B591B0040086
:103F90000D003C21002202AE300001F023FF002082
:103FA000ADF804000321082000F0E9FD0B2000908B
:103FB0000023DFF80C2401A902A801F0FFF84FF458
:103FC0007A73BDF8042002A9DFF8F80302F007FEB7
:103FD00012B070BD78B591B004000D003C210022F4
:103FE00002AE300001F0FEFE0020ADF80400C8482B
:103FF00003F0E2FDD44803F0DFFDD2480021017058
:10400000DFF86C138160002141600D2000900023D7
:10401000DFF8B42301A902A801F0D0F84FF47A73B5
:10402000BDF8042002A9DFF89C0302F0D8FD12B00D
:1040300070BD38B590B004000D0003A8DFF88C13F4
:10404000322203F02DFEDFF88803D0E90023CDE90A
:10405000012303A801900023DFF87803027802A966
:1040600003A801F036F80220009000237DA202A9E7
:1040700003A801F0A3F84FF47A73BDF80820019962
:10408000D04802F0ACFD11B030BD00001408002093
:10409000F8B504000D0000262068007830283ADBCF
:1040A000206800783A2836DA002700200100C9B2DB
:1040B000A28889B291420FD221680200D2B2895CF3
:1040C000302905DB21680200D2B2895C3A2900DB85
:1040D00002E07F1C401CE9E73900C9B2206801F00A
:1040E00025F90600B6F5807F0DD2BA484178300038
:1040F000C0B200F044FD4FF47A7302227BA1B148B4
:1041000002F06DFD0EE04FF47A730522B249AD481E
:1041100002F065FD06E04FF47A730522AE49A94826
:1041200002F05DFDF1BD00006A290020DC270020BF
:104130000428002038B590B004000D0003A8A7495A
:10414000322203F0ADFDA648D0E90023CDE90123DA
:1041500003A8019000239F48427802A903A800F019
:10416000B8FF0220009000233EA202A903A801F09C
:1041700025F84FF47A73BDF808200199914802F0B0
:104180002EFD11B030BDF8B504000D0000262068EA
:104190000078302839DB206800783A2835DA0027A3
:1041A00000200100C9B2A28889B291420FD22168D1
:1041B0000200D2B2895C302905DB21680200D2B24C
:1041C000895C3A2900DB02E07F1C401CE9E73900EA
:1041D000C9B2206801F0AAF806000C2E0DD23100F9
:1041E000C9B27C48007800F0CAFC4FF47A7302220E
:1041F0003EA1744802F0F3FC0EE04FF47A730522FE
:104200007549704802F0EBFC06E04FF47A73052222
:1042100071496C4802F0E3FCF1BD00002829002040
:104220001C08002080B5FFF741FCFFF71DFDFFF7DC
:1042300020FE6C486C49C0F8A4136C49C0F8B41354
:104240006B49C0F8C4136B49C0F8D4136A49C0F86D
:10425000E4136A49C0F8F41302F04DFC02F03CFC90
:1042600001BD00000D0A000070B5002000240025EB
:104270002800C0B2092836DA614E2800C0B2000119
:104280003044407801282CD1012004002800C0B21D
:1042900000013044406800280ED001F0EBFA2900FC
:1042A000C9B2090131444968401A2900C9B209015B
:1042B00031448968884214D300202900C9B2090119
:1042C0003144487001F0D6FA2900C9B209013144DD
:1042D00048602800C0B22900C9B209013144C96848
:1042E00088476D1CC4E72000C0B270BD4F4B000072
:1042F0002C2900203429002030290020200800200B
:10430000682900207C000020000800485822002076
:10431000000802080208020803080208040802084C
:10432000050802080608020807080208080802082B
:10433000090802080A0802080B0802080C0802080B
:104340000D080208E02800200010020802100208F0
:1043500003100208041002080510020806100208E3
:104360000710020808100208091002080A100208C3
:104370000000A041C42800200020020802200208FA
:104380000320020804200208052002080620020873
:104390000720020808200208092002080A20020853
:1043A0000B2002080C2002080D2002080E20020833
:1043B0000F20020810200208112002080000A0426D
:1043C00094F8000848210020C0F5000850F20008C9
:1043D0009CFA00088C0C00208CFA000884F200087B
:1043E000A4FA00082C0800208B3F0008D53F0008E5
:1043F000334000089140000835410008874100081B
:104400008407002002000020704730B40200DFF86B
:10441000680B002304688588635583885B1C838050
:10442000DFF8583B1B7804688588635583885B1CDC
:104430008380012030BC7047F8B504000D000020D7
:1044400000212E0022683300DBB2D25C23683700E3
:10445000FFB23B445F7857EA02273A0092B2B2F5C6
:10446000807F23DA380080B200281FD0DFF8080BE5
:1044700021683200D2B2895C02688388D154818875
:10448000491C818021683200D2B211444978026807
:104490008388D1548188491C8180DFF8E00A417803
:1044A0003800C0B200F06BFB012000E00020F2BD3C
:1044B00030B40200DFF8C00A002304688588635521
:1044C00083885B1C8380DFF8B43A5B780468858856
:1044D000635583885B1C8380012030BC7047F8B52E
:1044E00004000D00002000212E0022683300DBB202
:1044F000D25C23683700FFB23B445F7857EA02275B
:104500003A0092B20B2A1FDADFF86C0A21683200F7
:10451000D2B2895C02688388D1548188491C818029
:1045200021683200D2B21144497802688388D1549C
:104530008188491C81803900C9B2DFF8400A0078BF
:1045400000F01DFB012000E00020F2BDF8B50400E2
:104550000D000026DFF8280A90ED040A00F01CFF89
:104560000100DFF8140A0A00120A03688788DA5586
:104570008288521C828002688388D1548288521CAF
:1045800082800A00120E03688788DA558288521CDE
:1045900082800A00120C03688788DA558288521CD0
:1045A00082800120F2BDF8B504000D000026DFF87E
:1045B000D00990ED060A00F0EFFE0100DFF8B8091F
:1045C0000A00120A03688788DA558288521C8280A2
:1045D00002688388D1548288521C82800A00120E9D
:1045E00003688788DA558288521C82800A00120C80
:1045F00003688788DA558288521C82800120F2BDC8
:10460000F8B504000D000026DFF8740990ED050AE6
:1046100000F0C2FE0100DFF860090A00120A036818
:104620008788DA558288521C828002688388D15438
:104630008288521C82800A00120E03688788DA552D
:104640008288521C82800A00120C03688788DA551F
:104650008288521C82800120F2BDF8B504000D0052
:104660000026DFF8200990ED010A00F095FE010018
:10467000DFF804090A00120A03688788DA5582887D
:10468000521C828002688388D1548288521C8280A6
:104690000A00120E03688788DA558288521C8280CD
:1046A0000A00120C03688788DA558288521C8280BF
:1046B0000120F2BD2DE9F84304000D000026002082
:1046C00000900027A84620684146C9B20844817876
:1046D00020684246D2B21044C07850EA01202168D6
:1046E0004246D2B2895C22684346DBB21A4492F851
:1046F000019059EA012959EA0049DFF87C0821684C
:104700004246D2B2895C02688388D1548188491CB0
:10471000818021684246D2B2114449780268838878
:10472000D1548188491C818021684246D2B211440B
:10473000897802688388D1548188491C81802168E6
:104740004246D2B21144C97802688388D154818824
:10475000491C81806946484600F046FDDFF8240880
:1047600000994160012101700521DFF81C0801F06A
:10477000DEF90120BDE8F28330B40200DFF8F8076B
:10478000002304688588635583885B1C8380DFF879
:10479000F03793F8283004688588635583885B1C5C
:1047A0008380012030BC704730B40200DFF8C807B6
:1047B000002304688588635583885B1C8380DFF849
:1047C000C03793F8293004688588635583885B1C5B
:1047D0008380012030BC704730B40200DFF89807B6
:1047E000002304688588635583885B1C8380DFF819
:1047F000903793F82A3004688588635583885B1C5A
:104800008380012030BC704730B40200DFF86807B5
:10481000002304688588635583885B1C8380DFF8E8
:10482000603793F8293004688588635583885B1C5A
:104830008380012030BC704730B40200DFF83807B5
:10484000002304688588635583885B1C8380DFF8B8
:10485000303793F8293004688588635583885B1C5A
:104860008380012030BC704730B40200DFF80807B5
:10487000002304688588635583885B1C8380DFF888
:104880000C371B7804688588635583885B1C83809C
:10489000012030BC7047F8B504000D000020002155
:1048A0002E0022683300DBB2D25C23683700FFB2EF
:1048B0003B445F7857EA02273A0092B2012A03D0BC
:1048C000380080B2002822D1DFF8AC06216832001F
:1048D000D2B2895C02688388D1548188491C818066
:1048E00021683200D2B21144497802688388D154D9
:1048F0008188491C8180DFF89406D0ED020A90ED92
:10490000010A3800C0B2FFF73FF9012000E00020A3
:10491000F2BDF8B504000D000026DFF8700690ED3A
:10492000020A00F039FD0100DFF84C060A00120A05
:1049300003688788DA558288521C828002688388DF
:10494000D1548288521C82800A00120E0368878824
:10495000DA558288521C82800A00120C036887880C
:10496000DA558288521C82800120F2BD2DE9F8437D
:1049700004000D000026002000900027A8462068B3
:104980004146C9B20844817820684246D2B21044F8
:10499000C07850EA012021684246D2B2895C226880
:1049A0004346DBB21A4492F8019059EA012959EAC8
:1049B0000049DFF8C40521684246D2B2895C02682A
:1049C0008388D1548188491C818021684246D2B2B3
:1049D0001144497802688388D1548188491C8180B8
:1049E00021684246D2B21144897802688388D15442
:1049F0008188491C818021684246D2B21144C9781D
:104A000002688388D1548188491C81806946484660
:104A100000F0EAFBDFF87405DDED000A90ED010A15
:104A20000078FFF7B1F80120BDE8F283F8B5040083
:104A30000D000026DFF8540590ED010A00F0ACFCF3
:104A40000100DFF834050A00120A03688788DA5586
:104A50008288521C828002688388D1548288521CCA
:104A600082800A00120E03688788DA558288521CF9
:104A700082800A00120C03688788DA558288521CEB
:104A800082800120F2BD2DE9F84304000D000026CC
:104A9000002000900027A84620684146C9B208447B
:104AA000817820684246D2B21044C07850EA012092
:104AB00021684246D2B2895C22684346DBB21A447E
:104AC00092F8019059EA012959EA0049DFF8A8044F
:104AD00021684246D2B2895C02688388D1548188B9
:104AE000491C818021684246D2B21144497802684B
:104AF0008388D1548188491C818021684246D2B282
:104B00001144897802688388D1548188491C818046
:104B100021684246D2B21144C97802688388D154D0
:104B20008188491C81806946484600F05DFBDFF8BA
:104B30005C04D0ED020A9DED000A0078FFF724F82E
:104B40000120BDE8F28370B504000D00DFF8406479
:104B5000012220213000FDF79EF90A2001F0EEFF2E
:104B60004FF47A732A0092B22100DFF8280402F091
:104B700036F8002220213000FDF78DF970BD7CB59C
:104B800004000D00082100226E46300001F02AF9D1
:104B90000026DFF8E80304704570694602783300A8
:104BA000DBB2CA54761C40783200D2B28854761CEC
:104BB0003200D2B292B26946DFF8DC0303F02CF87F
:104BC00073BDDFF8D4030078C0B2FF280AD0DFF845
:104BD000AC03DFF8C81309780170DFF8C413097853
:104BE000417005E0DFF89403082101700321417052
:104BF00070472DE9F04F87B0040000275FF00008F0
:104C00005FF000090025DFF89C23D2E90001CDE91F
:104C100002010026DFF89023D2E90001CDE904016A
:104C2000DFF854A35046FDF79FF9A0880828C0F28A
:104C30009E812068A188084410F8010C2168A28890
:104C4000114411F8021C51EA0021ADF81810A18896
:104C5000891E206801F0C2FBADF81A00BDF81A00E9
:104C6000BDF81810884240F0808120680078C34960
:104C70000978884240F07981206880782168CF786F
:104C800057EA002720684078032807D0042805D079
:104C900006286DD0102800F0C48062E120680079F9
:104CA0002168497951EA00210D005FF00108404672
:104CB000C0B20F2836DA5FF01409DFF8F0B24046D0
:104CC000C0B209FB00F058444068390089B28842FC
:104CD00025D1280080B24146C9B209FB01F15944EF
:104CE000896888421BDB002100204246D2B209FBC2
:104CF00002F25A44D268904701280FD14046C0B210
:104D000009FB00F0584480682D1A4046C0B209FBE8
:104D100000F90BEB09008068C71900E002E018F108
:104D20000108C4E7BAF80400002820D0BAF804004B
:104D3000022190FBF1F201FB1200002817D1DAF8F2
:104D400000000190BAF80400022190FBF1F080B25B
:104D500000903B009BB2206842782068017804A84C
:104D600001F01CFCBDF814100498FFF7ECFEFAE00B
:104D700004200100C9B2A288921E91420EDA216875
:104D80000200D2B2895C029ABDF80C30D154BDF851
:104D90000C10491CADF80C10401CEAE75FF001084C
:104DA0004046C0B20F2817DA1422804B4046C0B2EA
:104DB000504318444068390089B2884209D1002123
:104DC00002A8C4465FFA8CFC02FB0CF21A4412697A
:104DD000904718F10108E3E7BAF8040000281FD053
:104DE000BAF80400022190FBF1F201FB1200002846
:104DF00016D1DAF800000190BAF80400022190FB05
:104E0000F1F080B200903B009BB20622206801784E
:104E100004A801F014FCBDF814100498FFF793FEE9
:104E2000A1E000200600206800792168497951EA54
:104E300000210D0007200100C9B2A288921E9142F4
:104E40000EDA21680200D2B2895C029ABDF80C30F9
:104E5000D154BDF80C10491CADF80C10401CEAE709
:104E6000280080B240002168897988424DD1BDF880
:104E70000C002168897989B2884246D15FF0010827
:104E80004046C0B20F2840DA5FF01409DFF81CB1C9
:104E90004046C0B209FB00F058444068390089B26E
:104EA00088422FD1280080B24146C9B209FB01F1E6
:104EB00059448968884225DB310089B202A84246FC
:104EC000D2B209FB02F25A4412699047012818D164
:104ED0004046C0B209FB00F058448068400010FA18
:104EE00086F64046C0B209FB00F0584480682D1A8F
:104EF0004046C0B209FB00F90BEB09008068C719F6
:104F000000E002E018F10108BAE7BAF8040000284E
:104F100026D0BAF80400022190FBF1F201FB120046
:104F200000281DD1206880782168C97851EA0021C5
:104F30000F00DAF800000190BAF80400022190FB9B
:104F4000F1F080B200903B009BB210222068017803
:104F500004A801F074FBBDF814100498FFF7F3FDEA
:104F600001E0002004E0012002E0002000E0002039
:104F700007B0BDE8F08F00003C0700208C0C00203B
:104F800084270020F828002084070020E028002043
:104F900000040048D021002000000208020002089E
:104FA000030002087CFA000884FA0008E4050020E7
:104FB00001000800C0B2002801D1012021E0080052
:104FC000C0B2FF2801D10A201BE00800C0B2FE28B1
:104FD00001D1642015E00800C0B2FD2802D14FF4D1
:104FE0007A700EE00800C0B2FC2802D142F21070C4
:104FF00007E00800C0B2FB2802D1DFF8980300E008
:10500000012070472DE9F24F82469346002000218F
:105010000A260027B046B946009A1588BBF1000F52
:1050200008D5DBF100042D202A0092B20AF8020014
:105030006D1C00E05C462000002142464B4602F019
:1050400083FE002901D1002808D0A6FB080106FB39
:10505000091107FB081180468946ECE7404649469E
:105060000A22002302F070FE06000F00002F01D17B
:10507000002E28D02000002132003B0002F064FE08
:105080003030290089B20AF801006D1CA0465FF09B
:1050900000092000002132003B0002F055FEA6FB73
:1050A000002306FB013307FB0033B8EB020079EB6A
:1050B00003010400300039000A22002302F044FEFC
:1050C00006000F00D2E7009805802800C0B2BDE8B6
:1050D000F28F2DE9FE4F06000F0090460020ADF83C
:1050E00000000020002400215FF0000BB7F80090C2
:1050F000B8F1000F02D5D8F1000500E04546424660
:1051000039003000FFF77EFFB7F800A0002D4FD028
:105110009DF80800FFF74CFF01008D4205D20A20E0
:1051200045431BF1010B002DF7D15846C0B20028B2
:1051300021D050460200D2B2324412F8012C2D2A5E
:1051400006D00200D2B24B4692B29BB29A4208D12C
:1051500030220300DBB2F2541AF1010ABBF1010B59
:10516000E3E70200D2B2324412F8012C0300DBB2B2
:10517000F254401EDEE70A20B1FBF0F450468346AD
:10518000002C15D00A20B4FBF0F45846C0B23044CD
:1051900010F8010C5946C9B27054BBF1010B002C38
:1051A000EED12E205946C9B270541AF1010AE7E730
:1051B000A7F800A05046C0B2BDE8FE8FF0B4049C32
:1051C00000252E00B6B2A6420BD20E88771C0F80A7
:1051D0002F00BFB217FA83F7D75DB6B287556D1CA3
:1051E000EFE7F0BC704700002DE9F34F81B02DEDE3
:1051F000028B9FED658A002401250026F7EE008AC8
:1052000000273800C0B2202864DA0398F84010F074
:10521000010004003800C0B2172829DA18EE900AFD
:1052200000F08CFA82468B462000C0B200F078FA7B
:10523000804689463800C0B2D0F117005FF0FF31D8
:10524000484300F0F3F841EC110B9FED500B00F0D8
:1052500006F951EC100B42464B4602F08DFE5246C9
:105260005B4602F05BFF00F027FA08EE900A2FE0A1
:105270003800C0B21F2824DA3000C0B200F050FA63
:1052800082468B462000C0B200F04AFA804689462A
:105290003800C0B2173800F0C9F841EC110B9FED8F
:1052A0003B0B00F0DCF851EC100B42464B4602F091
:1052B00063FE52465B4602F031FF02F0EDFF06004E
:1052C00006E02000C0B2012802D15FF0FF300500E7
:1052D0007F1C96E7280040B200F0A8F88046894677
:1052E0003000C0B27F3800F0A1F841EC110B9FED07
:1052F000270B00F0B4F851EC100B42464B4602F07D
:105300003BFE8046894618EE900A00F017FA4246A6
:105310004B4602F031FE00F0CFF900EE100A04987F
:1053200080ED000ABDEC028BBDE8F78F70B403007E
:1053300000220024002000252A000E00D2B2F6B27E
:10534000B2421FD22A00D2B29A5C302A0ADB2A006B
:10535000D2B29A5C3A2A05DA2A00D2B29A5C303A82
:10536000140001E0002214002A00D2B2002A03D166
:105370002200D2B2100003E00A22504350FA84F017
:105380006D1CD9E770BC70470000000000000000F1
:1053900000000040A086010010B42DED010A00209D
:1053A0006A460023042B07D2D45C1900C9B2C90095
:1053B0008C4020435B1CF5E712BC704700F10103F1
:1053C000810704D010F8011B820781B1FAD102686D
:1053D000A2F10131914311F0803104BF50F8042F44
:1053E000F6E709BAB1FA81F100EBD100401CC01A0E
:1053F000704730B4002513E050F8042BD30744BFA6
:10540000A9F101039A18091F042942F8045BFAD292
:1054100013468C0744BF15809B1CC90748BF1D70ED
:1054200050F8041B0029E7D130BC7047C11768B1A0
:105430004840401AB0FA80F29040D21CC907C2F529
:10544000846241EA025202EBD021400570470268B3
:10545000531C03601170704741EC100B01BD80B507
:1054600053EC112B51EC100B02F034FFF4E72E003B
:10547000F0B540F2FF7581EA030C0CF0004C15EA20
:1054800011541DBF15EA1357AC42AF42E5E0BC41D1
:10549000C1F31301C3F31303801A994143F480133A
:1054A00004D2641E4000494180185941C90241EAB2
:1054B0005051B1FBF3F603FB1611A2FB0675D7EBB7
:1054C000C020A94102D2761E80185941C90241EA82
:1054D0005051B1FBF3FE03FB1E11A2FB0E75D7EB7F
:1054E000C020A94103D2AEF1010E801859418902B2
:1054F00041EA9051760546EA8E2EB1FBF3F603FBA6
:105500001611A2FB0675D7EB8020A94102D2761EA8
:1055100080185941C90241EA50514EEA060EB1FBCA
:10552000F3F603FB1611A2FB0675D7EBC020A941C9
:1055300002D2761E80185941C90241EA5051B1FB8E
:10554000F3F703FB1711A2FB0735D3EBC020A941EA
:1055500067F100070CBF004247F0010766F3D5274B
:105560004FEA1E31B80814F5806412DDBD0775F1ED
:10557000004250EB0E5051EB045111F5801F5CBFFF
:1055800041EA0C01F0BD4CF07F6141F0E0410020A8
:10559000F0BDBD076D0840EA0E5041F48011D4F112
:1055A0000104B4F120060ADAC4F120060200E0404A
:1055B00001FA06F3E1401843B24015430EE0342CE3
:1055C00013DCC6F1200445EA40056D0820FA06F216
:1055D000154321FA06F0A1400D43002175F1004268
:1055E00050F1000051EB0C01F0BD00205FEA0C010E
:1055F000F0BDCFB992185B41B3FA83F704BFB2FA9A
:1056000082F6BF190B3FB7F120062FBF02FA06F34F
:10561000BB40C7F1200622FA06F638BF3343BA4032
:105620001CB1E419641E33E77F4231F00041B1FA46
:1056300081F404BFB0FA80F6A4190B3CB4F1200643
:105640002FBF00FA06F1A140C4F1200620FA06F6A9
:1056500038BF3143A0403C1B1AE7AC421ABF05EAF1
:105660001357AF4212E050EA41061CBF52EA43060C
:10567000BFE750EA4107304661461CBF41EA055189
:10568000F0BD52EA430C08BFC143F0BD00204FF407
:10569000001616EB410F98BF16EB430F08BF16EB31
:1056A000410F24BFC14305E016EB430F0CBF614619
:1056B0004CEA0551F0BD000001F000428B1AA3F145
:1056C0006051B1F5801F0ADBB1F17F6F1FD242EA52
:1056D000C102C10071F1004142EB507070470B15DF
:1056E000C3F10903212B10D2890241EA90518002B3
:1056F0000128494141F0004121FA03F0C3F12003A0
:10570000994071F1004150417047100070476FF0AF
:10571000000013EB103F5CBF000E42EAC050704720
:10572000014648B1B0FA80F18840C91CC1F58461D6
:10573000090501EBD021400570470000C0F3C751B7
:1057400081B1FF2906D0C110400721F0E04101F1ED
:105750006051704741020CBF40F4E0016FF000411E
:105760000020704700F0004100020AD0B0FA80FC2F
:1057700000FA0CF001F16051A1EB0C5101EBD021CA
:10578000400570470CB430B583B00A4606A90291B3
:10579000044600250194009502AB01A9084878440D
:1057A0001E3003F00DF9019A157000284EBF044613
:1057B0000198041B204603B030BC5DF80CFB00BF11
:1057C0008FFCFFFF80B5012240212348FCF763FBDB
:1057D0002249234800F04EFA00F01EF8012000F0A4
:1057E00005F800F0D1FA00F01FFA01BD704711B5BD
:1057F00081B0194C002240212000FCF74CFB4FF4F3
:105800007A73012201A9174804F03AF901224021D4
:105810002000FCF740FB13BD10B50F4C00224021C7
:105820002000FCF738FB002280212000FCF733FB2E
:10583000012000F019F8052000F016F8012280215F
:105840002000FCF728FB052000F00EF80122402183
:105850002000FCF720FB10BD0008004804290020B0
:1058600044110020E425002010B50400200001F0C0
:1058700065F910BD01480068704700BF1429002079
:1058800070B4039CDFF88052286029716A71AB7193
:10589000EC7100262E7270BC70472DE9F84F0400A1
:1058A0000D00160000275FF00008DFF85C9299F801
:1058B0000500082880F2FC80300099F80610C0B27C
:1058C000884205D399F807003100C9B2884201D255
:1058D0002E200600402099F80510491C90FBF1F09D
:1058E0002900C9B2814280F2E38099F8040050FA9D
:1058F00084F0802880F2DC8099F805305B1C99F8F0
:10590000050003FB05035B1CDBB299F804201219A8
:10591000D2B299F80500401C15FB00F1C9B2200075
:10592000C0B200F029F90021080099F80420C0B2A3
:10593000904280F0BD80002015FB00F00200D2B242
:10594000082392FBF3F21700C0B2082290FBF2F397
:1059500002FB13008046FF226C4BD3F800C03800D6
:10596000C0B250FA85FE802000FB0EFE5EFA84FE77
:10597000D3F800A03800C0B250FA85FB802000FBAD
:105980000BFB5BFA84F01AF800A0D8F1080B1000AA
:1059900050FA0BF010EA0A0A0CF80EA0D3F800C077
:1059A0003800C0B250FA85FE802000FB0EFE5EFA81
:1059B00084F00090D3F800E03800C0B250FA85FAC5
:1059C000802000FB0AFA5AFA84F01EF800E0D9F8A9
:1059D00000A0B3465FFA8BFB99F80600BBEB000012
:1059E00099F804B00BFB00FB0AEB0B008A465FFA48
:1059F0008AFA10F80A0010FA08F050EA0E00DDF8F2
:105A000000E00CF80E00D3F800C03800C0B250FA25
:105A100085FE802000FB0EFE5EFA84F08444D3F8FD
:105A200000E03800C0B250FA85FA802000FB0AFA84
:105A30005AFA84F0704490F8800012FA08F202409A
:105A40008CF880201A683800C0B250FA85FC80209B
:105A500000FB0CFC5CFA84F002441B683800C0B206
:105A600050FA85FC802000FB0CFC5CFA84F01844A2
:105A700090F88030D9F800C0B6465FFA8EFE99F8EB
:105A80000600BEEB000E99F8040000FB0EFE0CEBC6
:105A90000E008C465FFA8CFC10F80C00D8F1080C54
:105AA00050FA0CF0034382F88030641C491C3BE739
:105AB000BDE8F18FF8B507000C001600124D6879AB
:105AC000082820DA307800281DD032782100C9B2A9
:105AD0003800C0B2FFF7E1FE761C2879401CC719D8
