:020000040800F2
:10000000E02B002061EB0008BDE40008BFE400081D
:10001000C1E40008C3E40008C5E4000800000000D3
:10002000000000000000000000000000C7E400081D
:10003000C9E4000800000000CBE40008CDE400089B
:1000400089EE00088DEE000891EE000895EE00089C
:1000500099EE00089DEE0008A1EE0008A5EE00084C
:10006000A9EE0008ADEE0008B1EE0008B5EE0008FC
:10007000B9EE00081DE50008BDEE000827E5000800
:10008000C1EE0008C5EE0008C9EE0008CDEE00087C
:10009000D1EE0008D5EE0008D9EE0008DDEE00082C
:1000A000E1EE0008E5EE0008E9EE0008EDEE0008DC
:1000B000F1EE00080000000000000000F5EE00086E
:1000C000F9EE0008FDEE000801EF000805EF00085A
:1000D00009EF000831E500080DEF00083BE50008D6
:1000E00011EF000845E500080000000000000000D6
:1000F0000000000000000000000000000000000000
:100100000000000015EF00080000000019EF0008D3
:1001100000000000000000001DEF000821EF0008B3
:1001200025EF000829EF00082DEF000831EF000847
:1001300035EF000800000000000000000000000093
:1001400039EF00083DEF000841EF000845EF0008D7
:1001500049EF00084FE5000859E500084DEF000899
:1001600051EF000855EF000859EF000800000000AB
:100170005DEF000861EF000865EF00080000000077
:1001800069EF00086DEF000871EF000810B504007A
:100190000121DFF8300D01F07CF9012010BD30B5F0
:1001A00087B004001421002202AD280001F08CF970
:1001B000DFF8300CD0E90023CDE9002302A800903D
:1001C000DFF8245C2978684600F0CFF92878687059
:1001D000BDF80410009800F05CFD2878002803D1D9
:1001E0002878401C287001E000202870DFF8D45CDB
:1001F0000221280001F03EF90321280001F049F90D
:100200002100C9B2280001F044F9012007B030BD37
:1002100010B50400DFF8D41B8888002810D0DFF860
:10022000D00B02888B889A4208D1002101800321DB
:10023000DFF8900C01F01EF9012008E089880180A8
:100240002100C9B2DFF87C0C01F023F9012010BDB8
:100250002DE9F041040000250026DFF8907BB888E6
:1002600003283DDB3868B988084410F8010C396868
:10027000BA88114411F8021C51EA00210E00B98815
:10028000891E386801F053F905002800310080B25A
:1002900089B288421DD10721DFF8280C01F0F9F856
:1002A0003868007805280DD1DFF83C8B012198F8DB
:1002B000010000F073F998F80120D7E9000100F07F
:1002C0005DF913E00021DFF8200B407800F066F9BB
:1002D0000CE00021DFF8100B407800F05FF905E03A
:1002E0000021DFF8040B407800F058F9DFF8F80A35
:1002F000407800F0B9F80221DFF8C80B01F0DBF814
:100300000120BDE8F0810100DFF8940D0278032A96
:1003100001D0042202700120704710B504000020B3
:10032000DFF8A41B08702100C9B2DFF8980B01F0B8
:10033000B0F8012010BD10B50400DFF8900B017873
:10034000012936D1DFF8881BC978012931D1DFF8BE
:10035000541C91ED040AD0ED020AB4EE600AF1EEED
:1003600010FA08DA91ED040AD0ED010AB4EE600A41
:10037000F1EE10FA0ED501224FF400615FF09040CB
:1003800001F039FC01224FF480515FF0904001F000
:1003900032FC1CE000224FF400615FF0904001F05D
:1003A0002AFC00224FF480515FF0904001F023FCC2
:1003B0000DE000224FF400615FF0904001F01BFC63
:1003C00000224FF480515FF0904001F014FCDFF800
:1003D000F40A4FF47A7181662100C9B201F059F82C
:1003E000012010BD38B50400DFF8BC1B08780028D8
:1003F0001FD101200870DFF8B45B01221021280012
:1004000001F0F9FB00220821280001F0F4FB002292
:100410000421DFF89C0B01F0EEFB4FF4FA60DFF8EB
:10042000A41A886701F042FC01F0EBFD01F0DAFD4F
:1004300012E00020087001220821DFF8700B01F0A3
:10044000DAFB01220421DFF8680B01F0D4FB4EF641
:100450006020DFF8701A88672100C9B2DFF8640AEB
:1004600001F017F8012032BD38B52DED028B0400E4
:100470009FED8F8A2000C0B2012850D1DFF8245BA5
:1004800095ED010ADFED8B0A20EE200ABDEEC00AD1
:1004900010EE100A00F036FA85ED010A95ED010A1A
:1004A00000F0A4FA85ED040A95ED030A00F0FEFAC7
:1004B00085ED060A95ED020A00F0FAFA85ED050AC7
:1004C00095ED060AD5ED090A30EE200A85ED060AFB
:1004D00095ED050AD5ED080A30EE200A85ED050AEE
:1004E00095ED040AD5ED070A30EE200AB0EE408AF9
:1004F0009FEDC10AB4EE408AF1EE10FA02DBB3EED2
:10050000040A09E0B5EE408AF1EE10FA02D59FED3B
:10051000680A01E0B0EE480A85ED040AFFE7DFF85B
:10052000845A2878002807D10020686095ED010AD8
:1005300000F05CFA85ED040A2878002807D1002035
:10054000E86095ED030A00F0B1FA85ED060A287817
:10055000002807D10020A86095ED020A00F0A8FA53
:1005600085ED050ABDEC028B31BD38B504000D00E8
:100570002900C9B2200000F01BF831BD70B504009D
:100580000D00160020000078C0B2052805D1320009
:10059000D2B22000290000F08FF870BD38B50400F9
:1005A0000D002900C9B22000C0B200F027F931BD0A
:1005B0007FB504000D000221002202AE300000F0E1
:1005C00083FF00262800C0B2002806D002282ED0C3
:1005D00024D3042855D03FD368E0DFF8EC0890ED31
:1005E000010AF2EE040A20EE200ABDEEC00A10EE67
:1005F000100A0600300080B2000A8DF808003000B2
:100600008DF8090002A80190012000904FF4815359
:1006100006220521200000F0F6FF47E006200090AA
:10062000002303220521200000F09FFF3EE0DFF8B9
:10063000600D818802290ED1016801918088022114
:1006400090FBF1F080B2009041F2040306220521F4
:10065000200000F0D8FF29E0DFF8340D818802295E
:100660000ED1016801918088022190FBF1F080B2E7
:1006700000904FF4805306220521200000F0C3FFB4
:1006800014E0DFF80C0D818802290ED10168019178
:100690008088022190FBF1F080B2009042F22003AA
:1006A00006220521200000F0AEFFFFE77FBD00001D
:1006B000000000000000C8422DE9F0472DED048B3A
:1006C00084B004000D0092460020ADF808009FEDB4
:1006D000C48A00265046C0B2002806D0401E05D06D
:1006E000401E022840F27F8080E07FE00320ADF8CA
:1006F0000800022202A9200000F098FA08EE900AF1
:10070000022202A9200000F091FA8146DFF89478D5
:10071000B8EE680A10EE100A01F096FCCDE900016F
:10072000484601F0B5FC41EC110B9FEDAE0B01F01A
:10073000C4FC53EC102BDDE9000101F0C7FC01F013
:10074000E9FD7860022202A9200000F06FFA09EEAC
:10075000100A022202A9200000F068FA8046B8EED2
:10076000490A10EE100A01F06FFCCDE90001404685
:1007700001F08EFC41EC110B9FED9A0B01F09DFCFA
:1007800053EC102BDDE9000101F0A0FC01F0C2FDEB
:10079000F860022202A9200000F048FA00EE100AD8
:1007A000B0EE408A022202A9200000F03FFA0600C3
:1007B000B8EE480A10EE100A01F046FCCDE900013F
:1007C000300001F065FC41EC110B9FED860B01F050
:1007D00074FC53EC102BDDE9000101F077FC01F013
:1007E00099FDB86002E000F0C3F9FFE704B0BDEC8A
:1007F000048BBDE8F08700000100A0410200D2B2E6
:10080000002A042A1BD80A00D2B2012A0ED1DFF82E
:10081000942700235370012313700200D2B2012ADF
:100820000CD10122DFF8A836DA7007E0DFF8742770
:100830005378032B02DA53785B1C5370FFE7DFF821
:1008400064375A78002A0ED05A78032A0BDB00222C
:100850001A7000225A6000229A600022DA60002298
:10086000DFF86C36DA7070472DE9F041002425007E
:10087000EDB20A2D43DA00252E00F6B2092E3CDA3D
:100880002E00F6B201EB860676682F00FFB251F813
:100890002770BE422FDA00262F00FFB251F82770D2
:1008A000AC465FFA8CFC01EB8C0CDCF804C0AE4665
:1008B0005FFA8EFE41F82EC0AC465FFA8CFC01EB6D
:1008C0008C0CCCF80470AC465FFA8CFC50F82CC051
:1008D000AE465FFA8EFE00EB8E0EDEF804E0A84610
:1008E0005FFA88F840F828E0AE465FFA8EFE00EB2B
:1008F0008E0ECEF804C06D1CBEE7641CB7E7BDE8E1
:10090000F081000038B52DED028B04009FED348A94
:10091000DFF8841A087800282AD101200870002105
:100920000800C0B20A2815DA0800C0B2DFF86C2A45
:100930000B00DBB242F82300DFF8642A0800C0B2E3
:1009400052F82000002803D10800C0B242F820402D
:10095000491CE5E7DFF8485A092300222900DFF89F
:100960003C0AFFF781FF95ED050AB8EEC00A30E0BA
:1009700000200100C9B20A291EDADFF8201A02009D
:10098000D2B251F82220092A0BD100220300DBB297
:1009900041F82320DFF8081A0200D2B241F82240C1
:1009A00008E00200D2B251F82220521C0300DBB250
:1009B00041F82320401CDCE7DFF8E459092300223A
:1009C0002900DFF8D809FFF74FFF95ED050AB8EECB
:1009D000C00ADFEDC00A80EE200ABDEC028B31BDFB
:1009E000000000000000000000002440F0EE400A7B
:1009F0009FED8B1A9FED8B3ADFED8B3AF5EE400AB7
:100A0000F1EE10FA40D0F0EE603A9FEDB30ADFF855
:100A1000940990ED004A34EE634AB4EE404AF1EE98
:100A200010FA08DA90ED004A33EEC44AB4EE404AB8
:100A3000F1EE10FA03DB9FEDA90A21EE001ADFF8B0
:100A4000680990ED000AF0EE401ADFF8601991EDA8
:100A5000000A30EE010AB0EE402A32EE030A82EEBE
:100A6000000AF0EE402A33EEE10AB0EE614A00EEF1
:100A7000224A80ED004AB7EE000A30EE620A20EE0C
:100A8000020A81ED000A08E0DFF820095FF07E51DC
:100A90000160DFF8140900210160DFF80C09DFF8BC
:100AA000041902680A6090ED000A70477047000060
:100AB000F0EE400A9FED5A1A9FED5A3ADFED5A3A8E
:100AC000F5EE400AF1EE10FA40D0F0EE603A9FEDFC
:100AD000840ADFF8DC0890ED004A34EE634AB4EE95
:100AE000404AF1EE10FA08DA90ED004A33EEC44ABB
:100AF000B4EE404AF1EE10FA03DB9FED780A21EEE6
:100B0000001ADFF8B00890ED000AF0EE401ADFF8A6
:100B1000A81891ED000A30EE010AB0EE402A32EE3C
:100B2000030A82EE000AF0EE402A33EEE10AB0EE4C
:100B3000614A00EE224A80ED004AB7EE000A30EE2C
:100B4000620A20EE020A81ED000A08E0DFF8680878
:100B50005FF07E510160DFF85C0800210160DFF882
:100B60005408DFF84C1802680A6090ED000A7047DC
:100B700080B50320DFF8281508700421D14800F063
:100B80009AFC322001F0CDFD01BD80B5DFF82C08C4
:100B90000078954908700220DFF8041508700421D8
:100BA000C84800F076FC01BD2DE9F04104000D00BD
:100BB00016002F00DFF8D887404602F01BFA3000FD
:100BC00080B2022802D004280BD01DE07878D8F833
:100BD000001008703878D8F800104870A8F8046041
:100BE00015E07878D8F8001008703878D8F8001038
:100BF0004870F878D8F800108870B878D8F80010E5
:100C0000C870A8F8046002E00020A8F80400DFF82B
:100C1000AC0704700120DFF8A8170870BDE8F08168
:100C200095BFD63317B7D13800000000F0B40300E9
:100C300000200C881500EDB2042D16D12500ADB2B0
:100C40001D44AE782500ADB21D44ED7855EA062569
:100C50002600B6B29E5D2700BFB21F447F7857EAD8
:100C6000062757EA054738000DE01500EDB2022DC2
:100C700009D12500ADB25D5D2600B6B21E4476787E
:100C800056EA052630000D8855FA82F50D80F0BC35
:100C9000704770B504000D00DFF8286701224FF49B
:100CA0008051300000F0A7FF0A2002F069FA01F03D
:100CB00091F94FF47A732A0092B22100DFF8080705
:100CC00002F0AFFA00224FF48051300000F093FFA1
:100CD00070BD00000000C8420100004000007A44DE
:100CE0000100A0412DE9F0472DED048B8EB0B0EE50
:100CF000409AB0EE608AF0EE418A322100226C46C2
:100D0000200000F0E1FB0024002500260027DFF88A
:100D100094A28AED079A8AED088ACAED098A9AEDAB
:100D2000070A03F019FC80469AED080A03F014FC48
:100D300081469AED090A03F00FFC82466846414657
:100D4000090E2200D2B28154641C4146090C2200D3
:100D5000D2B28154641C4146090A2200D2B28154A5
:100D6000641C2100C9B200F80180641C4946090EC8
:100D70002200D2B28154641C4946090C2200D2B22E
:100D80008154641C4946090A2200D2B28154641C71
:100D90002100C9B200F80190641C5146090E2200DE
:100DA000D2B28154641C5146090C2200D2B2815443
:100DB000641C5146090A2200D2B28154641C2100ED
:100DC000C9B200F801A0641C2200D2B292B26946F6
:100DD000DFF8F80503F048FC0EB0BDEC048BBDE86D
:100DE000F087000024EE0008C8270020180B002020
:100DF000C6270020F8B5002400250026DFF8CC0522
:100E00000078C0B2FF2855D0DFF8C4050178C9B218
:100E10000906DFF8C0050078C0B251EA0041DFF8EA
:100E2000B8050078C0B251EA0021DFF8B0050078BB
:100E3000C0B201430C00DFF8A8050178C9B2090669
:100E4000DFF8A0050078C0B251EA0041DFF898054C
:100E50000078C0B251EA0021DFF890050078C0B2F6
:100E600001430D00DFF888050178C9B20906DFF8F3
:100E700084050078C0B251EA0041DFF87C050078B3
:100E8000C0B251EA0021DFF874050078C0B2014316
:100E90000E00444F17F11C01200003F085FA17F1F2
:100EA0002001280003F080FA17F12401300003F03C
:100EB0007BFA06E03B480021C1610021016200216C
:100EC0004162F1BD70060020642700204C270020FD
:100ED000902700202DE9F0472DED028B8EB0040005
:100EE000F0EE408AB0EE608A322100226D46280082
:100EF00000F0EAFA002500260027DFF804A58AF8AA
:100F000000408AED028ACAED018A9AED020A03F0D6
:100F100023FB80469AED010A03F01EFB81466846DA
:100F20009AF800102A00D2B281546D1C4146090E75
:100F30002A00D2B281546D1C4146090C2A00D2B25B
:100F400081546D1C4146090A2A00D2B281546D1C9D
:100F50002900C9B200F801806D1C4946090E2A001B
:100F6000D2B281546D1C4946090C2A00D2B2815478
:100F70006D1C4946090A2A00D2B281546D1C290011
:100F8000C9B200F801906D1C2A00D2B292B2694633
:100F9000DFF8700403F068FB0EB0BDEC028BBDE817
:100FA000F087000080260020D5270020000400489C
:100FB000000C004870B500240025DFF848040078D4
:100FC000C0B2FF283DD0DFF83864DFF83C04007879
:100FD0003070DFF838040178C9B20906DFF8300450
:100FE0000078C0B251EA0041DFF828040078C0B2AE
:100FF00051EA0021DFF820040078C0B201430C0060
:10100000DFF818040178C9B20906DFF81404007883
:10101000C0B251EA0041DFF80C040078C0B251EAD6
:101020000021DFF804040078C0B201430D0016F17E
:101030000801200003F0B8F9311D280003F0B4F9CD
:1010400008E0DFF8BC0300210170DFF8E0138160E5
:101050000021416070BD78B591B004000D003C21C5
:10106000002202AE300000F02FFA0020ADF804009C
:101070000321082003F081FE0B2000900023DFF8FD
:10108000B02301A902A803F079F94FF47A73BDF8EF
:10109000042002A9DFF89C0302F0C3F812B070BD6F
:1010A0007C00002078B591B004000D003C210022A6
:1010B00002AE300000F008FA0020ADF80400C3488A
:1010C00003F0A2FACF4803F09FFACD480021017047
:1010D000DFF858138160002141600D20009000234B
:1010E000D54A01A902A803F049F94FF47A73BDF873
:1010F000042002A9CF4802F094F812B070BD38B5B0
:1011000090B004000D0003A8CC49322204F04AF844
:10111000CB48D0E90023CDE9012303A801900023A7
:10112000C848027802A903A803F0B3F8022000908F
:10113000002375A202A903A803F020F94FF47A73E3
:10114000BDF808200199BB4802F06BF811B030BD22
:10115000F8B504000D0000262068007830283ADB3E
:10116000206800783A2836DA002700200100C9B24A
:10117000A28889B291420FD221680200D2B2895C62
:10118000302905DB21680200D2B2895C3A2900DBF4
:1011900002E07F1C401CE9E73900C9B2206803F077
:1011A000A5F90600B6F5807F0DD2A648417830003B
:1011B000C0B203F0E2FD4FF47A73022275A19D489C
:1011C00002F02FF80EE04FF47A7305229E499948F9
:1011D00002F027F806E04FF47A7305229A49954801
:1011E00002F01FF8F1BD38B590B004000D0003A85F
:1011F0009649322203F0D6FF9548D0E90023CDE985
:10120000012303A8019000238E48427802A903A875
:1012100003F03FF80220009000233BA202A903A89C
:1012200003F0ACF84FF47A73BDF8082001998148B7
:1012300001F0F7FF11B030BDF8B504000D00002635
:1012400020680078302839DB206800783A2835DAC1
:10125000002700200100C9B2A28889B291420FD2B2
:1012600021680200D2B2895C302905DB21680200C6
:10127000D2B2895C3A2900DB02E07F1C401CE9E71E
:101280003900C9B2206803F031F906000C2E0DD2E6
:101290003100C9B26B48007803F06FFD4FF47A73E8
:1012A00002223CA1634801F0BCFF0EE04FF47A73C8
:1012B000052265495F4801F0B4FF06E04FF47A73F8
:1012C000052261495B4801F0ACFFF1BD80B5FFF735
:1012D00091FDFFF76FFE5F485F49C0F8A4135F49B7
:1012E000C0F8B4135E49C0F8C4135E49C0F8D41303
:1012F0005D49C0F8E4135D49C0F8F41300F081FEC5
:1013000000F070FE01BD00000D0A000070B5002065
:10131000002400252800C0B2082836DA544E2800E0
:10132000C0B200013044407801282CD101200400D3
:101330002800C0B200013044406800280ED003F0FD
:1013400085FF2900C9B2090131444968401A2900C2
:10135000C9B2090131448968884214D300202900A8
:10136000C9B209013144487003F070FF2900C9B2C5
:101370000901314448602800C0B22900C9B20901FE
:101380003144C96888476D1CC4E72000C0B270BDF5
:10139000F00600204F4B0000D6270020302600200A
:1013A000582600209827002094270020F8060020C7
:1013B000A02700209C270020FC060020D427002026
:1013C0007C00002000080048EC20002000080208F3
:1013D00002080208030802080408020805080208B7
:1013E0000608020807080208080802080908020897
:1013F0000A0802080B0802080C0802080D08020877
:101400004C270020001002080210020803100208F6
:10141000041002080510020806100208071002084E
:1014200008100208091002080A1002080000A04172
:1014300034EC0008DC1F002090E9000820E60008DA
:101440002CEE0008680B00201CEE000854E6000893
:1014500034EE00080807002057100008A510000807
:10146000FF10000851110008E711000839120008A8
:1014700070060020020001200B00DBB21B011344A8
:10148000587000200B00DBB21B0113445860012090
:10149000704738B504000D0001202900C9B20901C8
:1014A0002144487003F0D2FE2900C9B20901214449
:1014B0004860012032BD020000200B00DBB21B019E
:1014C000134458700120704762F30F2262F31F42E9
:1014D000401810F0030308D0C91A1FD3DB0748BF18
:1014E00000F8012D28BF20F8022D130030B4144657
:1014F0001546103928BF20E93C00FAD8490728BF13
:1015000020E90C0048BF40F8042D890028BF20F8CE
:10151000022D48BF00F8012D30BC7047C91818BF14
:1015200000F8012DCB0728BF00F8012D704730B41B
:1015300003004FF6FF7000248C4213DA1A5D50400E
:101540000822002A0CD0C50706D580B2400880F4D6
:10155000204090F0010001E080B24008521EF0E708
:10156000641CE9E780B230BC70472DE9F843050000
:101570000E0017009846089C5FF00009286849464D
:1015800089B2465419F101092868494689B247547D
:1015900019F10109404680B2000A29684A4692B210
:1015A000885419F101092868494689B200F8018078
:1015B00019F10109200080B2000A29684A4692B256
:1015C000885419F101092868494689B2445419F12F
:1015D0000109494689B22868FFF7A9FF0100286878
:1015E0004A4692B2815419F10109080080B2000AFA
:1015F0002A684B469BB2D05419F10109A5F8049012
:101600000120BDE8F2832DE9F84F06000F00904657
:1016100099460A9DDDF82CA00024002130682200A4
:1016200092B28754641C3068220092B200F80280A3
:10163000641C484680B2000A326823009BB2D05432
:10164000641C3068220092B200F80290641C40468C
:10165000C0B2062802D0102807D01CE0280080B2B3
:10166000012801D0002040E015E0280080B2000AE7
:10167000326823009BB2D054641C3068220092B2BE
:101680008554641C2800C0B24000326823009BB21D
:10169000D054641CFFE75FF0000B584680B229006D
:1016A00089B2B0EB410F0BDA584680B21AF800004D
:1016B0003168220092B28854641C1BF1010BECE7E4
:1016C000210089B23068FFF732FF01003068220044
:1016D00092B28154641C080080B2000A3268230070
:1016E0009BB2D054641CB4800120BDE8F28F2DE978
:1016F000F84F05000E00170098460A9CDDF82C9064
:101700005FF0000B002029685A4692B28E541BF1FC
:10171000010B29685A4692B28F541BF1010B21002C
:10172000C9B249002A685B469BB2D1541BF1010B38
:101730005FF0000A504680B2210089B2B0EB410F41
:101740000CDA504680B219F8000029685A4692B265
:1017500088541BF1010B1AF1010AEBE7594689B2D3
:101760002868FFF7E4FE010028685A4692B28154C7
:101770001BF1010B080080B2000A2A685B469BB28D
:10178000D0541BF1010BA5F804B00120BDE8F28F85
:101790002DE9F84F05000E00170098460A9CDDF869
:1017A0002C905FF0000B5FF0000A2868594689B260
:1017B00046541BF1010B2868594689B247541BF166
:1017C000010B404680B2000A29685A4692B28854FA
:1017D0001BF1010B2868594689B200F801801BF102
:1017E000010B3800C0B2062802D010281DD02CE012
:1017F000200080B2012801D000203EE00020824677
:10180000504680B2210089B2B0EB410F0CDA50464D
:1018100080B219F8000029685A4692B288541BF128
:10182000010B1AF1010AEBE70FE0200080B2000A79
:1018300029685A4692B288541BF1010B2868594610
:1018400089B244541BF1010BFFE7594689B228685D
:10185000FFF76DFE010028685A4692B281541BF1D1
:10186000010B080080B2000A2A685B469BB2D05484
:101870001BF1010BA5F804B00120BDE8F28F30B4D4
:10188000002513E050F8042BD30744BFA9F101034E
:101890009A18091F042942F8045BFAD213468C07F0
:1018A00044BF15809B1CC90748BF1D7050F8041B1E
:1018B0000029E7D130BC7047F8B403000025086860
:1018C000E840002800F0D78001260F6816FA05F0DE
:1018D00007403A00002A00F0CC80087910F003009D
:1018E000012804D0087910F0030002281DD19F6858
:1018F0005FF0030C2800C0B240001CFA00FC37EA7D
:101900000C07D1F80CC02800C0B240001CFA00FC43
:101910005CEA07079F605868AE40B0434E68C6F364
:101920000016AE40304304005C60087910F00300FC
:1019300003280ED0DE6803272800C0B2400087408D
:10194000BE438F682800C0B2400087403E43340049
:10195000DC60087910F00300022818D12800C008C4
:1019600003EB8000066A0F2715F00700C0B2800065
:101970008740BE430F6915F00700C0B28000874062
:101980003E4334002800C00803EB800004621E6858
:1019900003272800C0B240008740BE430F7917F0EC
:1019A00003072800C0B2400087403E4334001C605B
:1019B000486810F4403F5CD09548066856F0010630
:1019C0000660006810F0010000900098914F280018
:1019D000800857F820605FF00F0C15F00300C0B2CC
:1019E00080001CFA00FC36EA0C06B3F1904F01D1DE
:1019F000002414E08848834201D101240FE0874885
:101A0000834201D102240AE08548834201D10324A4
:101A100005E08448834201D1042400E0072415F046
:101A20000300C0B28000844026432800800847F8A5
:101A300020607D4C206890434F68FF0200D5104322
:101A400020607A4E346894434F68BF0200D5144337
:101A50003460774E306890434F68BF0300D5104321
:101A60003060744E346894434F68FF0300D51443CC
:101A700034606D1C23E7F1BC70472DE9F041030091
:101A800000250800E840002800F0A880012616FA8A
:101A900005F008400200002A00F09E80DFF874C1C3
:101AA000280080085CF820000F2715F0030E5FFA6D
:101AB0008EFE5FEA8E0E17FA0EFE1EEA000004008C
:101AC000B3F1904F02D15FF0000E19E0524883420B
:101AD00002D15FF0010E13E05048834202D15FF063
:101AE000020E0DE04E48834202D15FF0030E07E084
:101AF0004C48834202D15FF0040E01E05FF0070E14
:101B000015F00300C0B280001EFA00FE74452CD10F
:101B10004848D0F800E03EEA020EC0F800E0444831
:101B2000D0F800E03EEA020EC0F800E03F48D0F8EE
:101B300000E03EEA020EC0F800E03B48D0F800E0CA
:101B40003EEA020EC0F800E015F00300C0B28000CB
:101B500017FA00F00400280080085CF82000A04379
:101B6000AE465FEA9E0E4CF82E005FF0030C18683C
:101B7000AE465FFA8EFE5FEA4E0E1CFA0EFE5EEA7D
:101B8000000018602800C00803EB800E2800C00881
:101B900003EB8000D0F8208015F00700C0B2800071
:101BA000874038EA0707CEF8207098682F00FFB208
:101BB0007F001CFA07F7B84398605868AE4030EAD7
:101BC00006065E60DE682800C0B240001CFA00FC19
:101BD00036EA0C0CC3F80CC06D1C52E7BDE8F0816E
:101BE000020010690B009BB2184201D0012000E0F6
:101BF0000020C0B270471300DBB2002B03D00B00F3
:101C00009BB2836102E00B009BB2836270470000CD
:101C1000601002400800014000040048000800482D
:101C2000000C004800100048080401400C0401406A
:101C3000040401400004014080B5D448D449016047
:101C40005FF4E1314160002181600021C160002129
:101C500001610C21416100218161002101620021AB
:101C6000416201F0A1FA002801D003F054FB01BD4C
:101C700080B5C848C84901604FF416514160002141
:101C800081600021C160002101610C2141610021BE
:101C900081610021C161002101620021416201F0E6
:101CA00083FA002801D003F036FB01BD80B5BB48A4
:101CB000BB4901604FF41651416000218160002151
:101CC000C160002101610C2141610021816100217D
:101CD000C161002101620021416201F065FA002822
:101CE00001D003F018FB01BD38B59EB004001422EA
:101CF0000021684603F011FB6022002106A803F0D2
:101D00000CFB2068A249884252D120200690002076
:101D1000119006A803F00CFB002801D003F0FBFA99
:101D2000A048016851F001010160006810F0010055
:101D3000059005989C48016851F002010160006817
:101D400010F00200059005984FF4406000900220CA
:101D5000019001200290032003900820049069461E
:101D60009248FFF7A9FD924D9248286004206860D0
:101D70000020A8600020E8608020286100206861C1
:101D80000020A8610020E86100202862280003F0FC
:101D900043FD002801D003F0BEFA6567AC62002263
:101DA0000021462003F0D9FF462003F0EBFFABE013
:101DB00020687949884251D10120069000200E9078
:101DC00006A803F0B5FA002801D003F0A4FA7A4877
:101DD000016851F480410160006810F48040059072
:101DE00005987148016851F002010160006810F027
:101DF000020005900598C02000900220019000206C
:101E00000290032003900720049069466748FFF77B
:101E100053FD6A4D6A482860022068600020A8606F
:101E20000020E86080202861002068610020A8610F
:101E30000020E86100202862280003F0EDFC002863
:101E400001D003F068FA6567AC620022002125200A
:101E500003F083FF252003F095FF55E020685049EB
:101E6000884251D1042006900020109006A803F06B
:101E70005FFA002801D003F04EFA5248016851F48D
:101E800080210160006810F4802005900598464884
:101E9000016851F004010160006810F00400059031
:101EA00005984FF4406000900220019000200290BD
:101EB000032003900720049069464348FFF7FCFC89
:101EC000424D43482860022068600020A86000203E
:101ED000E86080202861002068610020A86100205F
:101EE000E86100202862280003F096FC002801D059
:101EF00003F011FA6567AC6200220021272003F08D
:101F00002CFF272003F03EFF1FB030BD10B50400AA
:101F100020681F49884210D12248016849084900B9
:101F200001604FF440612148FFF7A7FD606F03F0A7
:101F3000E3FC462003F02DFF27E020681649884285
:101F40000FD11D48016831F480410160C02117485C
:101F5000FFF793FD606F03F0CFFC252003F019FF1E
:101F600013E020680E4988420FD11648016831F409
:101F7000802101604FF440611348FFF77EFD606FE0
:101F800003F0BAFC272003F004FF10BDDC1F002083
:101F9000008000406420002000380140EC20002038
:101FA000004800405C1002404C1002400004004811
:101FB0002C2500208004024060100240742500207F
:101FC000580002405810024000080048BC2500207C
:101FD0003000024080B5184801F00CF80220174983
:101FE000087001BD80B501221549164801F07FF93E
:101FF00000220121272003F0B0FE272003F0C2FEBB
:1020000001BD704738B504000B480D490A780368D4
:1020100085885A558288521C8280828840F2FF133C
:102020009A4201D3002282800122064801F05FF922
:1020300001200249087031BD180B0020D92700206B
:10204000D8270020EC200020C0F3C75181B1FF2920
:1020500006D0C110400721F0E04101F16051704706
:1020600041020CBF40F4E0016FF0004100207047D6
:1020700000F0004100020AD0B0FA80FC00FA0CF037
:1020800001F16051A1EB0C5101EBD02140057047EB
:10209000014648B1B0FA80F18840C91CC1F584619D
:1020A000090501EBD021400570470268531C03600D
:1020B0001170704741EC100B01BD80B553EC112B32
:1020C00051EC100B03F084FEF4E72E00F0B540F263
:1020D000FF7581EA030C0CF0004C15EA11541DBF8A
:1020E00015EA1357AC42AF42E5E0BC41C1F313011E
:1020F000C3F31303801A994143F4801304D2641E7E
:102100004000494180185941C90241EA5051B1FB90
:10211000F3F603FB1611A2FB0675D7EBC020A9410D
:1021200002D2761E80185941C90241EA5051B1FBD2
:10213000F3FE03FB1E11A2FB0E75D7EBC020A941D5
:1021400003D2AEF1010E80185941890241EA905143
:10215000760546EA8E2EB1FBF3F603FB1611A2FBC1
:102160000675D7EB8020A94102D2761E801859410E
:10217000C90241EA50514EEA060EB1FBF3F603FBE9
:102180001611A2FB0675D7EBC020A94102D2761E1C
:1021900080185941C90241EA5051B1FBF3F703FBE2
:1021A0001711A2FB0735D3EBC020A94167F1000747
:1021B0000CBF004247F0010766F3D5274FEA1E31F6
:1021C000B80814F5806412DDBD0775F1004250EBCC
:1021D0000E5051EB045111F5801F5CBF41EA0C0118
:1021E000F0BD4CF07F6141F0E0410020F0BDBD0743
:1021F0006D0840EA0E5041F48011D4F10104B4F1AD
:1022000020060ADAC4F120060200E04001FA06F3D3
:10221000E1401843B24015430EE0342C13DCC6F104
:10222000200445EA40056D0820FA06F2154321FA1C
:1022300006F0A1400D43002175F1004250F100006D
:1022400051EB0C01F0BD00205FEA0C01F0BDCFB9ED
:1022500092185B41B3FA83F704BFB2FA82F6BF1952
:102260000B3FB7F120062FBF02FA06F3BB40C7F1C0
:10227000200622FA06F638BF3343BA401CB1E419EF
:10228000641E33E77F4231F00041B1FA81F404BFAC
:10229000B0FA80F6A4190B3CB4F120062FBF00FA67
:1022A00006F1A140C4F1200620FA06F638BF3143FA
:1022B000A0403C1B1AE7AC421ABF05EA1357AF42D5
:1022C00012E050EA41061CBF52EA4306BFE750EA5B
:1022D0004107304661461CBF41EA0551F0BD52EA54
:1022E000430C08BFC143F0BD00204FF4001616EBAD
:1022F000410F98BF16EB430F08BF16EB410F24BFE9
:10230000C14305E016EB430F0CBF61464CEA055193
:10231000F0BD000001F000428B1AA3F16051B1F54D
:10232000801F0ADBB1F17F6F1FD242EAC102C100F8
:1023300071F1004142EB507070470B15C3F1090376
:10234000212B10D2890241EA905180020128494193
:1023500041F0004121FA03F0C3F12003994071F1EB
:10236000004150417047100070476FF0000013EBC0
:10237000103F5CBF000E42EAC050704780B500229B
:102380004FF40071DFF84C0BFFF735FC00224FF4DF
:1023900000715FF09040FFF72EFC04F08FF8DFF83B
:1023A000380BDFF8381B4A1CC0F870210A1DC0F832
:1023B000882111F13002026211F1180282630A7A57
:1023C00080F83D2011F11C0202654A7A80F8552000
:1023D00011F1200282668A7A80F86D2011F11002D4
:1023E000C0F8B8214A7A80F8BD2111F12402C0F862
:1023F00030220A7A80F8352211F12802C0F84822EA
:102400004A7A80F84D2211F12C02C0F860228A7AB3
:1024100080F86522DFF8D02AC0F8902211F134024A
:10242000C0F8A822CA7A80F8AD2211F13802C0F8AB
:10243000C022C97A80F8C512DFF8B01A0968C0F85E
:102440000813DFF8AC1A0968C0F8381301BD38B5B5
:10245000002000242000C0B2072835DADFF8945AA3
:102460002000C0B200012844407801282AD1200071
:10247000C0B200012844406800280ED002F0E6FEF9
:102480002100C9B2090129444968401A2100C9B292
:10249000090129448968884214D300202100C9B267
:1024A00009012944487002F0D1FE2100C9B2090196
:1024B000294448602000C0B22100C9B20901294462
:1024C000C9688847641CC5E7002032BD38B50400E0
:1024D000DFF8245A687800281FD100224FF40071D9
:1024E000DFF8F009FFF787FB00224FF400715FF07F
:1024F0009040FFF780FB03F0E1FF8920009020234C
:1025000007220521DFF8F40904F030F80120687093
:102510000221DFF8E009FEF7ADFF012032BD7CB5F6
:102520000400DFF8DC592878002803D0022823D0E3
:1025300003D33DE004F062F93AE004F0D5F98920D4
:102540000090202307220521DFF8B00904F00EF8DF
:10255000DFF8B02903212C2004F022F9DFF8A829A4
:102560000421082004F01CF904F01BFA41F2883021
:10257000DFF8801988611BE00120DFF87C194870C2
:1025800089200090202307220521DFF8700903F03D
:10259000EDFFDFF8606902213000FEF76BFF0321D9
:1025A0003000FEF767FF04213000FEF763FFFFE70E
:1025B0002878401C28702100C9B2DFF83809FEF7DE
:1025C00068FF012076BD70B5040000F0BCF8DFF8AC
:1025D00028596878012803D1A87800F09DFB04E011
:1025E0000021DFF81009FEF745FFDFF82009A97880
:1025F0000278914207D0A9780170DFF814090068C9
:10260000DFF810190860A878092812D1DFF80469EA
:102610004FF4FA61306800F0A5FC012809D1DFF819
:10262000F00800683060062215F10801A81C00F0CF
:1026300041FD2100C9B2DFF8BC08FEF72AFF0120E6
:1026400070BD10B50400DFF8D018DFF8D0080069BD
:1026500000F088FC012827D1DFF8C408017801299F
:1026600005D1002101700020DFF88C188870DFF898
:10267000B4080188491C018042F21071DFF8742807
:102680002300DBB21B011A449268B1FBF2F102880D
:102690008A420DD300210180DFF85C188878002879
:1026A00006D00020887003E00120DFF8741808705D
:1026B0002100C9B2DFF83C08FEF7EBFE012010BD97
:1026C00038B5040004F0F4F9DFF85058287A0128EE
:1026D00008D10521DFF81C08FEF7CCFEDFF8300832
:1026E000006828612100C9B2DFF80808FEF7D1FEB2
:1026F000012032BD10B5040004F0C0F9DFF81C0859
:102700000021017000210172012010BD10B50400EC
:1027100000224FF40051DFF8BC07FFF76CFA0120EC
:1027200010BD10B5040001224FF40051DFF8A407DA
:10273000FFF761FADFF8BC07210089B28166062144
:10274000FEF7A7FE10BD38B5DFF89047DFF8D807D1
:1027500001786170DFF8D417407851F8200060608C
:10276000207A01F005FD00EE100ADFF8C457B8EE3C
:10277000400AD5ED010A20EE200ABDEEC00A84ED24
:10278000030A607A01F0F4FC00EE100AB8EE400A89
:10279000D5ED020A20EE200ABDEEC00A84ED040A3F
:1027A000A07A01F0E5FC00EE100AB8EE400AD5ED83
:1027B000030A20EE200ABDEEC00A84ED050A207A45
:1027C00001F0D6FC00EE100AB8EE400AD5ED040A7E
:1027D00020EE200ABDEEC00A84ED060A607A01F000
:1027E000C7FC00EE100AB8EE400AD5ED050A20EE4F
:1027F000200ABDEEC00A84ED070AA07A01F0B8FCF9
:1028000000EE100AB8EE400AD5ED060A20EE200AC6
:10281000BDEEC00A84ED080A207A01F0A9FC00EEA2
:10282000100AB8EE400AD5ED070A20EE200ABDEEE8
:10283000C00A84ED090A607A01F09AFC00EE100AE1
:10284000B8EE400AD5ED080A20EE200ABDEEC00A17
:1028500084ED0A0AA07A01F08BFC00EE100AB8EEB3
:10286000400AD5ED090A20EE200ABDEEC00A84ED2B
:102870000B0ADFF8C00690ED010AF2EE040A20EE22
:10288000200ABDEEC00A84ED0C0AE07A01F070FC6B
:1028900000EE100ADFF85056B8EE400AD5ED020AF5
:1028A00020EE200ABDEEC00A84ED0D0AE07A01F0A8
:1028B0005FFC00EE100AB8EE400AD5ED010A20EEEA
:1028C000200ABDEEC00A84ED0E0A31BD2DE9F84F95
:1028D0008AB006002021002202AC2000FEF7F4FDA1
:1028E0000024002500208DF8050000208DF806004A
:1028F0001827DFF8E4853000C0B27843404490F8F0
:1029000015903000C0B2784340444068002842D05F
:1029100001213000C0B200F0A9F900280ED130002A
:10292000C0B27843404442683000C0B2784340446B
:10293000017D4846C0B203F033FF1EE05FF0000A9D
:102940003000C0B278434044406805F0FFF951467A
:10295000C9B2814207D2202002A95246D2B288547D
:102960001AF1010AECE702AA3000C0B278434044F1
:10297000017D4846C0B203F013FF3000C0B2784377
:102980004044406805F0E2F9DFF8AC150979491CCC
:10299000484310FA89F93000C0B278434044806857
:1029A000002800F03A813000C0B278434044007BF8
:1029B00000280BD002281ED012D3042830D024D3F4
:1029C000062845D036D307283ED044E03000C0B2B8
:1029D0007843404480680078002104000D003AE00C
:1029E0003000C0B278434044806890F90000C117BD
:1029F00004000D002FE03000C0B2784340448068EE
:102A00000088002104000D0025E03000C0B27843AA
:102A100040448068B0F90000C11704000D001AE0BE
:102A20003000C0B278434044806800680021040050
:102A30000D0010E03000C0B2784340448068006868
:102A4000C11704000D0006E001208DF8050002E02A
:102A500002208DF805009DF8050000280CD13000FB
:102A6000C0B278434044407B40420200D2B202A947
:102A7000200000F08FFA26E09DF8050001281AD109
:102A80003000C0B278434044806805F05FF92028E8
:102A900019D23000C0B278434044806805F056F93E
:102AA000020092B23000C0B278434044816802A86C
:102AB00000F000FB07E03000C0B27843404480687B
:102AC00000788DF8080002213000C0B200F0CEF886
:102AD000012823D13000C0B278434044807DC0B289
:102AE00000098DF806009DF806000F2805D020206B
:102AF00002A99DF80620885410E05FF0000A02A8A1
:102B000005F024F95146C9B2814207D2202002A91A
:102B10005246D2B288541AF1010AF0E73000C0B22E
:102B200002285ED15FF0000A00208DF8040030001A
:102B3000C0B278434044407B002802D009208DF881
:102B40000400392000902E2315220F21DFF8EC031A
:102B500005F018F902A805F0F9F88346DFF8D80364
:102B60000079401C00FB0BFB5846C0B2022190FBD1
:102B7000F1F01F280BDA5846C0B2022190FBF1F0A9
:102B8000D0F140009DF8041050FA81FA07E0584651
:102B9000C0B2D0F15F009DF8041050FA81FA02AA89
:102BA0003000C0B278434044007D401CC0B2DFF822
:102BB00088134979D1EBC001491EC9B25046C0B251
:102BC00005F08AFA5AFA8BF09DF80490B0EB0909E7
:102BD00089200090202307220521C84803F0C6FC65
:102BE0001BE089200090202307220521C34803F021
:102BF000BDFC02AA3000C0B278434044017D484683
:102C0000C0B203F0CDFD02A805F0A0F8CA490979C9
:102C1000491C484310FA89F081463000C0B278431D
:102C20004044006900281ED03000C0B278434044C0
:102C30008068002817D03000C0B2784340448068D4
:102C4000BF4988420FD03000C0B278434044026987
:102C50003000C0B207FB00F708EB0700017D4846D3
:102C6000C0B203F09DFD0BB0BDE8F08FF8B50400D5
:102C70000D0099492200D2B21820424301EB020014
:102C8000817D2800C0B201402800C0B281422FD10E
:102C90009426AC4F4FF496712800C0B2704338446C
:102CA0002200D2B250F8220000F05CF901282AD1AB
:102CB0002800C0B206FB00F607EB06002100C9B2EF
:102CC000934A126840F8212025209F492A00D2B259
:102CD00042430A442300DBB22E00F6B200FB06F0AA
:102CE00008442100C9B2405CD0F10100D0540AE090
:102CF00095492A00D2B22520424301EB020021006F
:102D0000C9B2002242549049EDB22520454301EB5F
:102D10000500E4B2005DF2BD70B50400002603F0CA
:102D2000E3FD00F077F82000C0B200F07DF820004D
:102D3000C0B200F0A1F80025280080B2252811DAE1
:102D400065492A0092B21820424301EB0200C07D7F
:102D50002100C9B2884203D12800C0B2FFF7B6FDF6
:102D60006D1CE9E703F01DFE70BDF0B44271C4783C
:102D700003792500EDB2AB420AD3F025564E270069
:102D8000FFB218235F4306EB07039D75641CEFE752
:102D90001823514C85785D4325444679AE7500294A
:102DA00004D0857803FB05F323449960F0BC704799
:102DB0002DE9F84F0700884691469A460A9E0B9DDA
:102DC000DDF830B00D9C87F8008087F8019087F817
:102DD00002A0FE703D712200D2B259463800FFF7C2
:102DE000C4FFBDE8F18F10B4010000221000C0B292
:102DF00004280CD21000C0B2085C544B1400E4B29A
:102E00001B5D984201D0002002E0521CEEE7012039
:102E100010BC704780B50120009008237F22082154
:102E2000002005F0DDF901BD70B504002000C0B23E
:102E3000002820D13E48007800280ED1264D28A633
:102E4000320095F85C10782003F0AAFC320095F867
:102E50007410782003F0A4FC0DE022A61E4D320071
:102E600095F85C10782003F09BFC320095F8741004
:102E7000782003F095FC70BD0100C9B2082924D167
:102E800016490978002906D002290ED008D3042952
:102E900015D00FD318E02E490F4AC2F8501318E08E
:102EA0002C490D4AC2F8501313E02B490A4AC2F8C4
:102EB00050130EE02949084AC2F8501309E0284986
:102EC000054AC2F8501304E003E02149024AC2F85F
:102ED0005013704700080048140100207C000020B7
:102EE000200000004E0000004C2700202405002098
:102EF000B80000200C00002030270020A8E20008C5
:102F0000CD2700201CEC000844E80008CE27002054
:102F1000AC2700207C270020C0270900E8260020DD
:102F2000CF270020C0270020680B0020FC050020D0
:102F300080260020642700204027002080E0000831
:102F40006A0B0020201E0020F4230020C000002077
:102F5000C4000020D4000020E4000020F400002081
:102F60000401002038B504000D00DFF8FC01016801
:102F7000200000F006F8A84201D3012000E0002064
:102F800032BD814204D25FF0FF32101A081800E00F
:102F9000081A704738B52DED048B08EE100A0C00A6
:102FA0001500DFED438A2800C0B2FB2810DBB8EE25
:102FB000C89A2800C0B24042C0B200F08BF829EE97
:102FC000009A00212000B0EE490A00F0B1F80EE0AE
:102FD000B8EEC89A2800C0B200F07CF889EE009ADA
:102FE0002900C9B22000B0EE490A00F0A1F8BDECFA
:102FF000048B31BD10B400210A00838892B29A423A
:1030000006D2002203680C00A4B21A55491CF3E74B
:103010000022828010BC704710B4040013005A1EB6
:103020009BB2002B02D02170641CF7E710BC7047E4
:1030300070B504000D001600DFF8240100782100AF
:10304000C9B2884209D3DFF824211068002804D0CF
:10305000310089B228001268904770BD38B504006D
:103060000D00280004F072FE020092B22900200038
:10307000C0B2FFF7DDFF31BD70B504000D002800C0
:1030800004F064FE020092B229002000C0B2FFF7F3
:10309000CFFFDFF8DC603068002807D0280004F09C
:1030A00055FE010089B228003268904770BD0000CB
:1030B0000000000030B404000D0013005A1E9BB243
:1030C000002B04D02B7823706D1C641CF5E730BCFA
:1030D0007047000010B504002000C0B2FB2816DBCA
:1030E0002000C0B2D0F5807005F014F941EC110B4E
:1030F0009FED200BFEF7E1FF53EC102B0020194948
:10310000FEF7E4FFFFF706F900EE100A0FE02000DB
:10311000C0B2FEF7BDFF41EC110B9FED160BFEF7A1
:10312000CCFF51EC100BFFF7F5F800EE100A10BDC4
:1031300038B52DED028B82B0B0EE408A04000D0050
:1031400018EE100AFEF780FFCDE900012A000B49B6
:10315000200005F0F1F802B0BDEC028B31BD00009B
:103160006C0B00200000F03FAC270020B4270020AB
:10317000B027002000000000000024406CEE000892
:1031800070B5040002F062F80500260016F1010F88
:1031900002D004480078361802F058F8401BB042BC
:1031A000FAD370BD6B0B002010B50400002C01D1C8
:1031B000012035E0A0690028FFD1E06F002805D18B
:1031C000002084F878002000FEF78EFD2420E067C0
:1031D000206800684008400021680860606A002894
:1031E00002D0200000F0DEFB200000F05FFA012892
:1031F00001D1012014E02068406830F4904021683B
:1032000048602068806830F02A0021688860206863
:10321000006850F0010021680860200000F02FFCD9
:1032200010BD2DE9FC4706000D0017009846F06F11
:10323000202859D1002D03D0380080B2002801D1B8
:10324000012052E00020C6F884002120F06701F040
:10325000FDFF8146A6F85070A6F85270B068B0F530
:10326000805F05D13069002802D10024AA4602E01F
:103270002C005FF0000AB6F85200002822D0CDF8EA
:1032800000804B4600228021300000F061FC0028C5
:1032900003D02020F067032027E0002C08D1BAF8E3
:1032A0000000C005C00D316808851AF1020A03E06C
:1032B000207831680885641CB6F85200401EA6F8D4
:1032C0005200D8E7CDF800804B4600224021300064
:1032D00000F03EFC002803D02020F067032004E02B
:1032E0002020F067002000E00220BDE8F68770B5DE
:1032F00005000C001600D5F88000202824D1002CF1
:1033000003D0300080B2002801D101201DE0002050
:1033100028662868DFF8901388420ED02868406835
:1033200000020AD5286850E8000F50F080600100C4
:103330002A6842E800100028F4D1320092B221003D
:10334000280000F054FC00E0022070BD2DE9F04799
:1033500006003068C7693068D0F800803068D0F85F
:10336000089040F60F043C40002C0BD1B80609D55C
:103370005FEA886006D5B06E002802D03000B16EDA
:1033800088478FE1002C00F0AA805FEAC97005D45D
:10339000DFF8080618EA000F00F0A18017F001001E
:1033A000C0B200280BD05FEAC85008D501203168B0
:1033B0000862D6F8840050F00100C6F88400B8070F
:1033C0000DD519F00100C0B2002808D002203168E4
:1033D0000862D6F8840050F00400C6F8840078072C
:1033E0000DD519F00100C0B2002808D004203168C2
:1033F0000862D6F8840050F00200C6F8840038074E
:1034000010D55FEA886004D419F00100C0B200282A
:1034100008D0082031680862D6F8840050F008000F
:10342000C6F8840038050CD55FEA481009D54FF47A
:10343000006031680862D6F8840050F02000C6F8B9
:103440008400D6F88400002848D0B80608D55FEA82
:10345000886005D5B06E002802D03000B16E884774
:10346000D6F88400050030688068400602D415F064
:10347000280F2DD0300000F09EFC30688068400698
:1034800022D53068083050E8000F30F040000100CD
:10349000306810F1080242E800100028F1D1706F86
:1034A00000280DD0DFF8F804716F8863706F02F0A8
:1034B00003FB002812D0706F716F896B88470DE095
:1034C000300004F093FF09E0300004F08FFF05E0C6
:1034D000300004F08BFF0020C6F88400E2E0306E7C
:1034E000012840F0BD80F80640F1BA805FEAC8606C
:1034F00040F1B6801020316808623068806840066C
:103500006DD5706F0068D0F804A0504680B20028D6
:1035100052D05046B6F8581080B288424CD2A6F825
:103520005AA0706F00680068800639D4306850E88F
:10353000000F30F480700100326842E8001000286B
:10354000F4D13068083050E8000F40084000010016
:10355000306810F1080242E800100028F1D130680C
:10356000083050E8000F30F040000100306810F1E2
:10357000080242E800100028F1D12020C6F880009F
:1035800000203066306850E8000F30F01000010075
:10359000326842E800100028F4D1706F02F062FA3D
:1035A00002207066B6F85810B6F85A00091A89B2A7
:1035B000300004F0FCFE11E05046B6F8581080B21E
:1035C00088420BD1706F00680068800606D5022023
:1035D0007066B6F85810300004F0E9FE62E0B6F804
:1035E0005800B6F85AA0B0EB0A0AB6F85A000028FC
:1035F00035D0504680B2002831D0306850E8000FF6
:1036000030F490700100326842E800100028F4D1D4
:103610003068083050E8000F400840000100306872
:1036200010F1080242E800100028F1D12020C6F86D
:103630008000002030660020B066306850E8000F3F
:1036400030F010000100326842E800100028F4D188
:1036500002207066514689B2300004F0A8FE21E0D5
:10366000F8020AD55FEA492007D55FF48010316877
:103670000862300004F04CFF14E0380609D55FEA18
:10368000086006D5F06E002802D03000F16E884741
:1036900008E0780606D55FEA486003D5300000F000
:1036A00054FCFFE7BDE8F087008000402DE9F047BB
:1036B00004000026DFF8A81920688842FFD0A2681D
:1036C0002069024360690243E0690243206803689D
:1036D000DFF89009034013432068036020684368C3
:1036E00033F44053E068034320684360D4F8188003
:1036F0002068884202D0206A50EA08082068806862
:1037000030F4306058EA0000226890602068DFF8EA
:10371000482A904216D1DFF8440A006810F00300EE
:10372000002805D0022805D006D3032806D007E0DC
:10373000012760E002275EE004275CE008275AE0EA
:10374000102758E02068DFF8182A904217D1DFF8D8
:103750000C0A006810F00C00002806D0042808D0DD
:10376000082804D00C2806D007E0002743E00227F1
:1037700041E004273FE008273DE010273BE02068B8
:10378000DFF8E029904217D1DFF8D009006810F087
:103790003000002806D0102808D0202804D0302877
:1037A00006D007E0002726E0022724E0042722E0D5
:1037B000082720E010271EE0206888421AD1DFF891
:1037C0009C09006810F44060002809D0B0F5806FB3
:1037D0000AD0B0F5006F05D0B0F5406F06D007E015
:1037E000002708E0022706E0042704E0082702E09B
:1037F000102700E010272068884246D13800C0B268
:10380000002806D0022808D0042809D008280BD0A8
:103810000DE005F0EDFA81460DE0DFF84C990AE085
:1038200005F079FA814606E04FF4004903E05FF0C5
:10383000000901200600B9F1000F00F0A5806168C1
:1038400003204143894505D361684FF480504143CB
:10385000494502D20120060096E04FF4807260686C
:1038600040080021E2FB09016268002305F050FBDB
:103870000500B5F5407F05D3B5F5801F02D220685D
:10388000C56081E0012006007EE0E069B0F5004FF0
:1038900041D13800C0B2002808D001280AD002283F
:1038A0000CD004280DD008280FD011E005F0A0FAA4
:1038B000814611E005F0A9FA81460DE0DFF8A898ED
:1038C0000AE005F028FA814606E04FF4004903E0DB
:1038D0005FF0000901200600B9F1000F54D06068C4
:1038E000400810EB49006168B0FBF1F00500102DB5
:1038F0000ED3B5F5803F0BD24FF6F0712940C5F3DA
:10390000420001438A46504680B22168C8603BE0CD
:103910000120060038E03800C0B2002808D0012895
:103920000AD002280CD004280DD008280FD011E0AE
:1039300005F05EFA814611E005F067FA81460DE078
:10394000DFF824980AE005F0E6F9814606E04FF436
:10395000004903E05FF0000901200600B9F1000F03
:1039600012D0606819EB50006168B0FBF1F00500FF
:10397000102D07D3B5F5803F04D2280080B221680E
:10398000C86001E0012006000020A0660020E0667B
:103990003000C0B2BDE8F087000000002001000444
:1039A000313F000890F82410090707D501684A68DC
:1039B00032F40042416B0A4301684A6090F82410D7
:1039C000C90707D501684A6832F40032816A0A43A0
:1039D00001684A6090F82410890707D501684A6891
:1039E00032F48032C16A0A4301684A6090F82410B8
:1039F000490707D501684A6832F48022016B0A43FF
:103A000001684A6090F82410C90607D501688A68E1
:103A100032F48052816B0A4301688A6090F8241066
:103A2000890607D501688A6832F40052C16B0A43DF
:103A300001688A6090F82410490613D501684A6825
:103A400032F48012016C0A4301684A60016CB1F5DE
:103A5000801F07D101684A6832F4C002416C0A43F2
:103A600001684A6090F82410090607D501684A6881
:103A700032F40022816C0A4301684A60704738B50D
:103A800004000020C4F8840001F0E0FB0500206879
:103A9000006800071DD57FF07E4000902B000022BB
:103AA0005FF40011200000F053F8002811D02068C6
:103AB00050E8000F30F080000100226842E800105A
:103AC0000028F4D12020E067002084F8780003204B
:103AD0003DE02068006840072CD57FF07E400090D4
:103AE0002B0000225FF48001200000F031F8002854
:103AF00020D0206850E8000F30F490700100226858
:103B000042E800100028F4D12068083050E8000F87
:103B1000400840000100206810F1080242E800104F
:103B20000028F1D12020C4F88000002084F878001B
:103B300003200CE02020E0672020C4F88000002053
:103B4000206600206066002084F87800002032BDE6
:103B50002DE9F04105000E0090461F00069C2868E4
:103B6000C0693040B04201D1012000E00020414650
:103B7000C9B2884238D114F1010FF0D001F066FBD0
:103B8000C01B844201D3002C01D103202DE0286802
:103B900000684007E3D5802EE1D0402EDFD02868B2
:103BA000C06900070DD5082029680862280000F0C8
:103BB00002F90820C5F88400002085F8780001206B
:103BC00013E02868C0690005C9D54FF40060296872
:103BD0000862280000F0EFF82020C5F884000020DB
:103BE00085F87800032000E00020BDE8F08130B4C3
:103BF00003005965A3F85820A3F85A2000209866BE
:103C00009868B0F5805F0BD11869002804D140F2A4
:103C1000FF10A3F85C0023E0FF20A3F85C001FE086
:103C2000986800280AD11869002803D1FF20A3F85A
:103C30005C0015E07F20A3F85C0011E09868B0F10B
:103C4000805F0AD11869002803D17F20A3F85C00A7
:103C500006E03F20A3F85C0002E00020A3F85C002F
:103C60000020C3F884002220C3F8800018680830C0
:103C700050E8000F50F001000400186810F108052A
:103C800045E800400028F1D19868B0F5805F06D182
:103C90001869002803D10FF2D130986602E00FF2C4
:103CA000D5209866186900280BD0186850E8000FD6
:103CB00050F4907004001D6845E800400028F4D1DD
:103CC0000AE0186850E8000F50F0200004001D685A
:103CD00045E800400028F4D1002030BC704770B5A2
:103CE00004000D0016006565A4F858600020C4F8B3
:103CF00084002220C4F88000606F002821D00FF2D9
:103D00001510616FC8620FF2B110616F08630FF296
:103D1000D110616F48630020616F886333009BB2EC
:103D2000626D206810F12401606F01F04FFE0028E1
:103D300007D01020C4F884002020C4F8800001209F
:103D40002AE0206900280AD0206850E8000F50F4CB
:103D500080700100226842E800100028F4D1206839
:103D6000083050E8000F50F001000100206810F109
:103D7000080242E800100028F1D12068083050E81D
:103D8000000F50F040000100206810F1080242E8E6
:103D900000100028F1D1002070BD016851E8001F1B
:103DA00031F0C0010A00036843E800210029F4D182
:103DB0002021C1677047016851E8001F31F49071FC
:103DC0000A00036843E800210029F4D101680831A2
:103DD00051E8001F490849000A00016811F1080371
:103DE00043E800210029F1D1016E01290AD10168BF
:103DF00051E8001F31F010010A00036843E8002178
:103E00000029F4D12021C0F8801000210166002192
:103E10008166704738B50400A56A2068006880068E
:103E20003AD40020A5F85A00286850E8000F30F472
:103E3000807001002A6842E800100028F4D1286848
:103E4000083050E8000F400840000100286810F1D9
:103E5000080242E800100028F1D12868083050E834
:103E6000000F30F040000100286810F1080242E81D
:103E700000100028F1D12020C5F88000286E01280C
:103E80000AD1286850E8000F30F0100001002A68BD
:103E900042E800100028F4D100206866286E01284E
:103EA00005D1B5F85810280004F081FA02E0280086
:103EB00004F062FA31BD000038B50400A56A0120A3
:103EC0006866286E012807D1B5F85810490889B2EC
:103ED000280004F06CFA02E0280005F031F931BD49
:103EE000F8B50400A56AEE6FD5F880702868806880
:103EF000000607D5212E05D10020A5F85200280084
:103F0000FFF74BFF28688068400607D5222F05D1B0
:103F10000020A5F85A002800FFF74DFFD5F88400CF
:103F200050F01000C5F88400280004F05FFAF1BDDD
:103F300038B50400A56A0020A5F85A000020A5F8AD
:103F40005200280004F052FA31BD10B50400206878
:103F500050E8000F30F040000100226842E80010F5
:103F60000028F4D12020E0670020E066200005F062
:103F7000E8F810BD70B50500B5F85C60D5F88000B4
:103F8000222866D12868808C040016EA0400696D36
:103F90000870686D401C6865B5F85A00401EA5F8A9
:103FA0005A00B5F85A00002859D1286850E8000F87
:103FB00030F4907001002A6842E800100028F4D123
:103FC0002868083050E8000F4008400001002868C9
:103FD00010F1080242E800100028F1D12020C5F8B5
:103FE00080000020A8660020686628681C49884276
:103FF0000ED02868406800020AD5286850E8000FF3
:1040000030F0806001002A6842E800100028F4D1F6
:10401000286E012819D100202866286850E8000F72
:1040200030F0100001002A6842E800100028F4D1A6
:104030002868C069C00602D5102029680862B5F852
:104040005810280004F0B3F909E0280004F094F9AE
:1040500005E02868008B50F008002968088370BDCF
:1040600000800040F369FFEFF8B50500B5F85C701B
:10407000D5F88000222867D12868808C0400686DFC
:10408000060017EA04003080686D801C6865B5F88A
:104090005A00401EA5F85A00B5F85A00002859D118
:1040A000286850E8000F30F4907001002A6842E858
:1040B00000100028F4D12868083050E8000F4008AC
:1040C00040000100286810F1080242E800100028B2
:1040D000F1D12020C5F880000020A8660020686685
:1040E0002868224988420ED02868406800020AD514
:1040F000286850E8000F30F0806001002A6842E82C
:1041000000100028F4D1286E012819D1002028665B
:10411000286850E8000F30F0100001002A6842E8DB
:1041200000100028F4D12868C069C00602D510200C
:1041300029680862B5F85810280004F038F909E039
:10414000280004F019F905E02868008B50F00800F9
:1041500029680883F1BD0000003801408810024042
:1041600000440040004800400024F400008000406B
:1041700001000800C0B2002801D1012021E00800A0
:10418000C0B2FF2801D10A201BE00800C0B2FE28FF
:1041900001D1642015E00800C0B2FD2802D14FF41F
:1041A0007A700EE00800C0B2FC2802D142F2107012
:1041B00007E00800C0B2FB2802D1DFF8980300E056
:1041C000012070472DE9F24F8246934600200021DE
:1041D0000A260027B046B946009A1588BBF1000FA1
:1041E00008D5DBF100042D202A0092B20AF8020063
:1041F0006D1C00E05C462000002142464B4604F066
:1042000087FE002901D1002808D0A6FB080106FB83
:10421000091107FB081180468946ECE740464946EC
:104220000A22002304F074FE06000F00002F01D1C3
:10423000002E28D02000002132003B0004F068FE50
:104240003030290089B20AF801006D1CA0465FF0E9
:1042500000092000002132003B0004F059FEA6FBBB
:10426000002306FB013307FB0033B8EB020079EBB8
:1042700003010400300039000A22002304F048FE44
:1042800006000F00D2E7009805802800C0B2BDE804
:10429000F28F2DE9FE4F06000F0090460020ADF88A
:1042A00000000020002400215FF0000BB7F8009010
:1042B000B8F1000F02D5D8F1000500E045464246AE
:1042C00039003000FFF77EFFB7F800A0002D4FD077
:1042D0009DF80800FFF74CFF01008D4205D20A202F
:1042E00045431BF1010B002DF7D15846C0B2002801
:1042F00021D050460200D2B2324412F8012C2D2AAD
:1043000006D00200D2B24B4692B29BB29A4208D17A
:1043100030220300DBB2F2541AF1010ABBF1010BA7
:10432000E3E70200D2B2324412F8012C0300DBB200
:10433000F254401EDEE70A20B1FBF0F450468346FB
:10434000002C15D00A20B4FBF0F45846C0B230441B
:1043500010F8010C5946C9B27054BBF1010B002C86
:10436000EED12E205946C9B270541AF1010AE7E77E
:10437000A7F800A05046C0B2BDE8FE8FF0B4049C80
:1043800000252E00B6B2A6420BD20E88771C0F80F5
:104390002F00BFB217FA83F7D75DB6B287556D1CF1
:1043A000EFE7F0BC704700002DE9F34F81B02DED31
:1043B000028B9FED658A002401250026F7EE008A16
:1043C00000273800C0B2202864DA0398F84010F0C3
:1043D000010004003800C0B2172829DA18EE900A4C
:1043E000FDF732FE82468B462000C0B2FDF750FE3C
:1043F000804689463800C0B2D0F117005FF0FF3127
:10440000484303F087FF41EC110B9FED500BFDF784
:1044100054FE51EC100B42464B4604F093FE5246BC
:104420005B4604F061FFFDF775FF08EE900A2FE090
:104430003800C0B21F2824DA3000C0B2FDF728FED1
:1044400082468B462000C0B2FDF722FE8046894698
:104450003800C0B2173803F05DFF41EC110B9FED3F
:104460003B0BFDF72AFE51EC100B42464B4604F085
:1044700069FE52465B4604F037FF04F0F3FF060086
:1044800006E02000C0B2012802D15FF0FF30050035
:104490007F1C96E7280040B203F03CFF8046894627
:1044A0003000C0B27F3803F035FF41EC110B9FEDB7
:1044B000270BFDF702FE51EC100B42464B4604F071
:1044C00041FE8046894618EE900AFDF7BDFD424642
:1044D0004B4604F037FEFDF71DFF00EE100A04986E
:1044E00080ED000ABDEC028BBDE8F78F70B40300CD
:1044F00000220024002000252A000E00D2B2F6B2CD
:10450000B2421FD22A00D2B29A5C302A0ADB2A00B9
:10451000D2B29A5C3A2A05DA2A00D2B29A5C303AD0
:10452000140001E0002214002A00D2B2002A03D1B4
:104530002200D2B2100003E00A22504350FA84F065
:104540006D1CD9E770BC704700000000000000003F
:1045500000000040A086010010B42DED010A0020EB
:104560006A460023042B07D2D45C1900C9B2C900E3
:104570008C4020435B1CF5E712BC70472DE9F74FD8
:1045800082B000265FF0000A5FF0000B54465D46E3
:10459000002000900127DDF80C80DDF808900498D9
:1045A00010F0070F2BD10498C008002182468B46DB
:1045B00004F0CEFF4FF47A7004F0E2FF0020060012
:1045C000300080B20021594517D801D3504514D28C
:1045D000D8E9000104000D0022002B00494600200C
:1045E00004F05EFF07003800C0B2012805D019F1C1
:1045F000080918F10808761CE2E704F0BAFF380051
:10460000C0B205B0BDE8F08F70B50400012504F01C
:104610009FFF06004FF47A7004F0B2FF3000C0B282
:1046200000280FD1C4F3CC20B0F5807F05D2012142
:10463000C4F3CC2005F010F804E00121C4F3CC2031
:1046400005F00AF84FF47A7004F09AFF0500054867
:10465000016831F00201016004F08BFF2800C0B254
:1046600070BD0000142002402DE9F041C0B00400EC
:104670000D00160000274FF480710022E8464046E6
:10468000FCF722FF2000FFF7BFFFA5208DF80000F8
:1046900030008DF801005FF000084046310080B224
:1046A00089B288420AD2404680B2285C69464246B6
:1046B00092B21144887018F10108EEE7B61C300080
:1046C00080B20821B6B20836361A90FBF1F001FB31
:1046D0000066320092B269462000FFF74FFF0028C3
:1046E00001D0002000E0012040B0BDE8F0810000D2
:1046F00002000020704730B40200DFF8700A002387
:1047000004688588635583885B1C8380DFF8603A82
:104710001B7804688588635583885B1C838001202F
:1047200030BC7047F8B504000D00002000212E00B9
:1047300022683300DBB2D25C23683700FFB23B440F
:104740005F7857EA02273A0092B2B2F5807F23DA07
:10475000380080B200281FD0DFF8100A216832002C
:10476000D2B2895C02688388D1548188491C8180D7
:1047700021683200D2B21144497802688388D1544A
:104780008188491C8180DFF8E80941783800C0B28F
:1047900000F0F3FA012000E00020F2BD30B4020086
:1047A000DFF8C809002304688588635583885B1C8B
:1047B0008380DFF8BC395B7804688588635583881B
:1047C0005B1C8380012030BC7047F8B504000D00ED
:1047D000002000212E0022683300DBB2D25C236867
:1047E0003700FFB23B445F7857EA02273A0092B2A3
:1047F0000B2A1FDADFF8740921683200D2B2895C13
:1048000002688388D1548188491C818021683200E4
:10481000D2B21144497802688388D1548188491CF6
:1048200081803900C9B2DFF84809007800F0A5FAA4
:10483000012000E00020F2BDF8B504000D000026C4
:10484000DFF8300990ED040AFFF786FE0100DFF87B
:104850001C090A00120A03688788DA558288521CEC
:10486000828002688388D1548288521C82800A0028
:10487000120E03688788DA558288521C82800A00EB
:10488000120C03688788DA558288521C82800120C6
:10489000F2BDF8B504000D000026DFF8D80890ED51
:1048A000060AFFF759FE0100DFF8C0080A00120AE5
:1048B00003688788DA558288521C82800268838860
:1048C000D1548288521C82800A00120E03688788A5
:1048D000DA558288521C82800A00120C036887888D
:1048E000DA558288521C82800120F2BDF8B504009E
:1048F0000D000026DFF87C0890ED050AFFF72CFE7E
:104900000100DFF868080A00120A03688788DA5590
:104910008288521C828002688388D1548288521C0B
:1049200082800A00120E03688788DA558288521C3A
:1049300082800A00120C03688788DA558288521C2C
:1049400082800120F2BDF8B504000D000026DFF8DA
:10495000280890ED010AFFF7FFFD0100DFF80C08C1
:104960000A00120A03688788DA558288521C8280FE
:1049700002688388D1548288521C82800A00120EF9
:1049800003688788DA558288521C82800A00120CDC
:1049900003688788DA558288521C82800120F2BD24
:1049A0002DE9F84304000D000026002000900027A8
:1049B000A84620684146C9B208448178206842462A
:1049C000D2B21044C07850EA012021684246D2B2E7
:1049D000895C22684346DBB21A4492F8019059EA96
:1049E000012959EA0049DFF8840721684246D2B21A
:1049F000895C02688388D1548188491C8180216840
:104A00004246D2B21144497802688388D1548188E1
:104A1000491C818021684246D2B2114489780268DB
:104A20008388D1548188491C818021684246D2B252
:104A30001144C97802688388D1548188491C8180D7
:104A400069464846FFF7B0FCDFF82C070099416043
:104A5000012101700521DFF82407FCF71AFD012070
:104A6000BDE8F28330B40200DFF8000700230468D9
:104A70008588635583885B1C8380DFF804371B7847
:104A800004688588635583885B1C8380012030BC63
:104A90007047F8B504000D00002000212E002268A8
:104AA0003300DBB2D25C23683700FFB23B445F784F
:104AB00057EA02273A0092B2012A03D0380080B2A6
:104AC000002822D1DFF8A40621683200D2B2895C26
:104AD00002688388D1548188491C81802168320012
:104AE000D2B21144497802688388D1548188491C24
:104AF0008180DFF88C06D0ED020A90ED010A3800C3
:104B0000C0B2FCF7E7F9012000E00020F2BDF8B5E3
:104B100004000D000026DFF8680690ED020AFFF79A
:104B20001BFD0100DFF844060A00120A03688788AB
:104B3000DA558288521C828002688388D154828828
:104B4000521C82800A00120E03688788DA55828818
:104B5000521C82800A00120C03688788DA5582880A
:104B6000521C82800120F2BD2DE9F84304000D00A3
:104B70000026002000900027A84620684146C9B2C0
:104B80000844817820684246D2B21044C07850EA86
:104B9000012021684246D2B2895C22684346DBB2DA
:104BA0001A4492F8019059EA012959EA0049DFF8BC
:104BB000BC0521684246D2B2895C02688388D15420
:104BC0008188491C818021684246D2B211444978CB
:104BD00002688388D1548188491C818021684246BB
:104BE000D2B21144897802688388D1548188491CE3
:104BF000818021684246D2B21144C9780268838814
:104C0000D1548188491C818069464846FFF7CCFB16
:104C1000DFF86C05DDED000A90ED010A0078FCF785
:104C200059F90120BDE8F283F8B504000D00002613
:104C3000DFF84C0590ED010AFFF78EFC0100DFF86C
:104C40002C050A00120A03688788DA558288521CEC
:104C5000828002688388D1548288521C82800A0034
:104C6000120E03688788DA558288521C82800A00F7
:104C7000120C03688788DA558288521C82800120D2
:104C8000F2BD2DE9F84304000D000026002000903D
:104C90000027A84620684146C9B2084481782068A8
:104CA0004246D2B21044C07850EA01202168424600
:104CB000D2B2895C22684346DBB21A4492F8019072
:104CC00059EA012959EA0049DFF8A004216842465F
:104CD000D2B2895C02688388D1548188491C818062
:104CE00021684246D2B21144497802688388D1547F
:104CF0008188491C818021684246D2B2114489785A
:104D000002688388D1548188491C81802168424689
:104D1000D2B21144C97802688388D1548188491C71
:104D2000818069464846FFF73FFBDFF85404D0ED29
:104D3000020A9DED000A0078FCF7CCF80120BDE8DE
:104D4000F28370B504000D00DFF8386401222021E1
:104D50003000FCF750FF0A20FEF712FA4FF47A7386
:104D60002A0092B22100DFF82004FEF75AFA00224E
:104D700020213000FCF73FFF70BD7CB504000D0022
:104D8000082100226E463000FCF79EFB0026DFF86B
:104D9000E00304704570694602783300DBB2CA5400
:104DA000761C40783200D2B28854761C3200D2B2DF
:104DB00092B26946DFF8D403FFF756FC73BDDFF803
:104DC000CC030078C0B2FF280AD0DFF8A403DFF8D4
:104DD000C01309780170DFF8BC130978417005E051
:104DE000DFF88C03082101700321417070472DE921
:104DF000F04F87B0040000275FF000085FF0000963
:104E00000025DFF89423D2E90001CDE90201002654
:104E1000DFF88823D2E90001CDE90401DFF84CA3D3
:104E20005046FEF7E7F8A0880828C0F29B8120686A
:104E3000A188084410F8010C2168A288114411F8D7
:104E4000021C51EA0021ADF81810A188891E2068C3
:104E5000FCF76DFBADF81A00BDF81A00BDF818108C
:104E6000884240F07D8120680078C14909788842F5
:104E700040F07681206880782168CF7857EA002753
:104E800020684078032805D006286CD0102800F050
:104E9000C38061E1206800792168497951EA0021E5
:104EA0000D005FF001084046C0B20A2836DA5FF014
:104EB0001409DFF8ECB24046C0B209FB00F05844D8
:104EC0004068390089B2884225D1280080B2414625
:104ED000C9B209FB01F15944896888421BDB0021F2
:104EE00000204246D2B209FB02F25A44D2689047EF
:104EF00001280FD14046C0B209FB00F05844806839
:104F00002D1A4046C0B209FB00F90BEB090080687E
:104F1000C71900E002E018F10108C4E7BAF804007C
:104F200000281FD0BAF80400022190FBF1F201FB27
:104F30001200002816D1DAF800000190BAF8040037
:104F4000022190FBF1F080B200903B009BB2032263
:104F50002068017804A8FCF7CAFBBDF81410049877
:104F6000FFF7EFFEFAE004200100C9B2A288921E0A
:104F700091420EDA21680200D2B2895C029ABDF831
:104F80000C30D154BDF80C10491CADF80C10401C6D
:104F9000EAE75FF001084046C0B20A2817DA142297
:104FA0007F4B4046C0B2504318444068390089B234
:104FB000884209D1002102A8C4465FFA8CFC02FB9A
:104FC0000CF21A441269904718F10108E3E7BAF8A5
:104FD000040000281FD0BAF80400022190FBF1F26F
:104FE00001FB1200002816D1DAF800000190BAF88F
:104FF0000400022190FBF1F080B200903B009BB2D4
:1050000006222068017804A8FCF7C2FBBDF8141042
:105010000498FFF796FEA1E00020060020680079C2
:105020002168497951EA00210D0007200100C9B229
:10503000A288921E91420EDA21680200D2B2895CE7
:10504000029ABDF80C30D154BDF80C10491CADF8D3
:105050000C10401CEAE7280080B2400021688979E2
:1050600088424DD1BDF80C002168897989B2884207
:1050700046D15FF001084046C0B20A2840DA5FF02E
:105080001409DFF81CB14046C0B209FB00F05844D7
:105090004068390089B288422FD1280080B2414649
:1050A000C9B209FB01F159448968884225DB310006
:1050B00089B202A84246D2B209FB02F25A441269EE
:1050C0009047012818D14046C0B209FB00F058446F
:1050D0008068400010FA86F64046C0B209FB00F036
:1050E000584480682D1A4046C0B209FB00F90BEB0A
:1050F00009008068C71900E002E018F10108BAE76A
:10510000BAF80400002826D0BAF80400022190FB67
:10511000F1F201FB120000281DD12068807821687F
:10512000C97851EA00210F00DAF800000190BAF8BE
:105130000400022190FBF1F080B200903B009BB292
:1051400010222068017804A8FCF722FBBDF8141097
:105150000498FFF7F6FD01E0002004E0012002E0E2
:10516000002000E0002007B0BDE8F08F28060020F6
:10517000680B002080260020642700207006002095
:105180004C27002000040048642000200000020892
:1051900002000208030002080CEE000814EE0008EA
:1051A0003405002062B38B0708D0521E11F8013B72
:1051B00000F8013B00F024808B07F6D1830740F014
:1051C000208000BF103A07D330B4B1E83810103A4D
:1051D000A0E83810F9D230BC530724BFB1E808105A
:1051E000A0E8081044BF51F8043B40F8043BD20744
:1051F00024BF31F8022B20F8022B44BF0B78037038
:105200007047121F17D35B0009D151F8043B20F8F7
:10521000023B1B0C121F20F8023BF6D20BE051F8A8
:10522000043B00F8013B1B0A20F8023B1B0C121F39
:1052300000F8013BF3D238BF121D521E24BF11F8F3
:10524000013B00F8013BF8D87047000001480068B6
:10525000704700BF8027002080B504F04DFA00F0B1
:1052600011F804F05BFA04F041FBFCF7E5FC04F0F4
:105270006DFB04F013FCFCF7FBFCFCF717FD04F0DE
:10528000F3FCFEE710B596B04421002205AC2000E7
:10529000FCF71AF9142100226C462000FCF714F9DF
:1052A0004FF4007004F0BCFE002801D000F033F889
:1052B0001820059001200A9001200B9000200C90EE
:1052C00060200D9002200F9001201090012011907D
:1052D000282012900720139002201490022015908D
:1052E00005A803F017F9002801D000F014F80F20EA
:1052F00000900320019000200290002003900020E5
:1053000004900421684603F049FC002801D000F015
:1053100002F816B010BD72B6FEE710B5044610468E
:105320000A4601462046FCF7CFF8204610BD000093
:105330002DE9F84F05005FF00008002728680005F8
:1053400027D5686C00280DD0B0F5000F03D0B0F55C
:10535000400F0DD00DE0DFF82403016851F48031D7
:10536000016008E00021281D00F092F9804602E06B
:1053700001E0012080464046C0B2002808D1DFF895
:105380000C130A6832F44002686C02430A6000E0C1
:105390004746286880037AD55FF00009DFF8E0A26D
:1053A000DAF80000C0000DD4DAF8000050F08050A8
:1053B000CAF80000DAF8000010F080500090009861
:1053C00001208146DFF8BCB2DBF8000050F48070A9
:1053D000CBF80000FFF73AFF0600DBF80000C0053D
:1053E00006D4FFF733FF801B0328F6D30320804643
:1053F0004046C0B200283FD1DFF88CB2DBF8000095
:1054000010F440700400002C15D0E86D844212D0D6
:10541000DBF8000030F440700400DBF8000050F4CA
:105420008030CBF80000DBF8000030F48030CBF89F
:105430000000CBF80040E0070FD5FFF707FF06009C
:10544000DBF80000800708D4FFF700FF801B41F263
:1054500089318842F4D3032080464046C0B20028F8
:1054600008D1DBF8001031F44071E86D0143CBF84E
:10547000001002E0474600E047464846C0B2012817
:1054800005D1DAF8000030F08050CAF80000287822
:10549000C00707D5DFF8F4110A6892089200286A5D
:1054A00002430A602878800707D5DFF8E0110A6810
:1054B00032F00C02686A02430A602878400707D578
:1054C000DFF8C8110A6832F03002A86A02430A60A5
:1054D0002878800607D5DFF8B4110A6832F44062F4
:1054E000E86A02430A602868800507D5DFF89C1146
:1054F0000A6832F44022E86B02430A6028684005DB
:1055000007D5DFF888110A6832F44012286C02438C
:105510000A602878400607D5DFF870110A6832F46F
:105520004052286B02430A602878000607D5DFF84E
:105530005C110A6832F44042686B02430A602868D2
:10554000C00507D5DFF844110A6832F44032A86B71
:1055500002430A602868800420D5DFF830110A6809
:1055600032F04062A86C02430A60A86CB0F1006F90
:1055700006D1DFF80801016851F4801101600DE0E7
:10558000A86CB0F1806F09D10121281D00F080F8CE
:1055900080464046C0B2002800D047462868000335
:1055A00020D5DFF8E8100A6832F04062E86C024368
:1055B0000A60E86CB0F1006F06D1DFF8C000016846
:1055C00051F4801101600DE0E86CB0F1806F09D1F9
:1055D0000121281D00F05CF880464046C0B200283A
:1055E00000D047462868400320D5DFF8A0100A689D
:1055F00032F04062286D02430A60286DB0F1006FFE
:1056000006D1DFF87800016851F4801101600DE0E7
:10561000286DB0F1806F09D10121281D00F038F804
:1056200080464046C0B2002800D047462868400463
:1056300015D5DFF858100A6832F04052686D024301
:105640000A60686DB0F1805F09D10221281D00F069
:105650001FF880464046C0B2002800D04746286860
:10566000000407D5DFF824100A6832F08042A86DE4
:1056700002430A603800C0B2BDE8F28F0C1002404D
:105680005810024000700040901002408810024004
:105690002DE9F04105000C0000275949086810F079
:1056A000030F12D0086810F003002A68904209D155
:1056B0002868002806D00868C0F30210401C6968FA
:1056C000884232D0012007002FE02868012804D04A
:1056D0001BD303280FD007D317E04A480068800780
:1056E00001D40120070012E046480068400501D4BB
:1056F000012007000BE043480268920304D40068CD
:10570000400301D40120070001E001200700380018
:10571000C0B2002809D10A6832F073022868024337
:105720006868401E52EA00120A603800C0B20028C1
:1057300061D1DFF8D080D8F8000030F08060C8F880
:105740000000FFF783FD0600D8F80000000106D531
:10575000FFF77CFD801B0328F6D3032007003800E9
:10576000C0B2002847D1002C0BD127490A6827482E
:105770000240A86852EA0022E86852EAC0620A6061
:105780001CE0012C0DD120490A6821480240A8687C
:1057900052EA002228694008401E52EA40520A603C
:1057A0000CE019490A681B480240A86852EA002226
:1057B00068694008401E52EA40620A60D8F800005A
:1057C00050F08060C8F80000FFF740FD0600D8F8F0
:1057D0000000000106D4FFF739FD801B0328F6D333
:1057E000032007003800C0B2002804D106490A6827
:1057F000A86902430A603800C0B2BDE8F081000029
:105800000C1002400010024010100240FF80FF0701
:10581000FF809FFFFF80FFF930B40100002901D114
:10582000012067E00868624A90420AD20A6861482B
:1058300082181420B2FBF0F0800048645E480864CF
:1058400009E00A685D4882181420B2FBF0F080007D
:1058500048645B480864022081F8250008680268F3
:105860006FF30E128B68C8680343086903434869E5
:10587000034388690343C8690343086A03431A431F
:10588000086802608868B0F5804F2AD0086C4A4BDF
:10589000984213D14B4803680F2491F8445015F0F7
:1058A0001C05AC40A343036003684C6891F8445066
:1058B00015F01C05AC402343036012E04248036826
:1058C0000F2491F8445015F01C05AC40A34303602D
:1058D00003684C6891F8445015F01C05AC40234314
:1058E00003600020C863012081F82500002081F8B2
:1058F0002400002030BC704710B40100002901D101
:10590000012053E008680068400840000A68106001
:105910000868274A90420AD20A682648821814204A
:10592000B2FBF0F0800048642348086409E00A688C
:10593000224882181420B2FBF0F08000486420480E
:10594000086400200A681060012091F8442012F0D9
:105950001C0290400A6C5060086C174A90420AD1B1
:10596000184802680F2391F8444014F01C04A34027
:105970009A43026009E0144802680F2391F84440FA
:1059800014F01C04A3409A4302600020C862002067
:10599000086300204863002088630020C86300205B
:1059A00081F82500002081F82400002010BC7047F9
:1059B00008040240F8FFFDBF00000240F8FBFDBFF5
:1059C00000040240A8000240A80402402DE9F04172
:1059D00004000D0016001F005FF0000894F824007A
:1059E000012801D102203BE0012084F8240094F832
:1059F000250001282DD1022084F825000020E06335
:105A00002068006840084000216808603B003200C0
:105A10002900200000F0F8F8206B002806D020684C
:105A2000006850F00E00216808600BE020680068F4
:105A300030F00400216808602068006850F00A0017
:105A4000216808602068006850F001002168086043
:105A500004E0002084F82400022080464046C0B2C2
:105A6000BDE8F0810100002291F82500022806D04F
:105A70000420C863002081F8240001201BE008688E
:105A8000006830F00E000B68186008680068400875
:105A900040000B681860012091F8443013F01C039B
:105AA00098400B6C5860012081F82500002081F897
:105AB00024001000C0B2704738B50400002594F8E7
:105AC0002500022804D00420E063012005001FE027
:105AD0002068006830F00E002168086020680068C7
