:020000040800F2
:10000000E02A002065E000080DDA00080FDA000899
:1000100011DA000813DA000815DA00080000000001
:1000200000000000000000000000000017DA0008D7
:1000300019DA0008000000001BDA00081DDA0008C9
:1000400055E3000859E300085DE3000861E3000898
:1000500065E3000869E300086DE3000871E3000848
:1000600075E3000879E300087DE3000881E30008F8
:1000700085E300082DDA000889E3000837DA000874
:100080008DE3000891E3000895E3000899E3000878
:100090009DE30008A1E30008A5E30008A9E3000828
:1000A000ADE30008B1E30008B5E30008B9E30008D8
:1000B000BDE300080000000000000000C1E30008EC
:1000C000C5E30008C9E30008CDE30008D1E3000858
:1000D000D5E3000841DA0008D9E300084BDA00084C
:1000E000DDE3000855DA0008000000000000000011
:1000F0000000000000000000000000000000000000
:1001000000000000E1E3000800000000E5E3000853
:100110000000000000000000E9E30008EDE3000833
:10012000F1E30008F5E30008F9E30008FDE3000847
:1001300001E40008000000000000000000000000D2
:1001400005E4000809E400080DE4000811E40008D3
:1001500015E400085FDA000869DA000819E400080D
:100160001DE4000821E4000825E400080000000068
:1001700029E400082DE4000831E400080000000034
:1001800035E4000839E400083DE4000810B5040037
:100190000121DFF8700A01F0F8F8012010BD30B538
:1001A00087B004001421002202AD280001F008F9F4
:1001B000DFF8400AD0E90023CDE9002302A800902F
:1001C000DFF8345A2978684600F0ADF9287868706D
:1001D000BDF80410009800F04AFD2878002803D1EB
:1001E0002878401C287001E000202870DFF8145A9D
:1001F0000221280001F0BAF80321280001F0C5F817
:100200002100C9B2280001F0C0F8012007B030BDBC
:1002100010B50400DFF8E4198888002810D0DFF852
:10022000E00902888B889A4208D1002101800321CD
:10023000DFF8D00901F09AF8012008E089880180F0
:100240002100C9B2DFF8BC0901F09FF8012010BD00
:100250002DE9F041040000250026DFF8A079B888D8
:1002600003283DDB3868B988084410F8010C396868
:10027000BA88114411F8021C51EA00210E00B98815
:10028000891E386801F0CFF805002800310080B2DF
:1002900089B288421DD10821DFF8680901F075F89C
:1002A0003868007805280DD1DFF84C89012198F8CD
:1002B000010000F051F998F80120D7E9000100F0A1
:1002C0003BF913E00021DFF83009407800F044F9F1
:1002D0000CE00021DFF82009407800F03DF905E04E
:1002E0000021DFF81409407800F036F9DFF808093A
:1002F000407800F097F80221DFF8080901F057F87C
:100300000120BDE8F0810100DFF8B00A0278032A7D
:1003100001D0042202700120704710B504000020B3
:10032000DFF8881908702100C9B2DFF8D80801F099
:100330002CF8012010BD10B504002100C9B2DFF86F
:10034000C40801F022F8012010BD38B50400DFF820
:100350006059287800280DD101220121DFF85409C5
:1003600001F0C5FB0520DFF89C1888672878401C41
:1003700028700BE000220121DFF8380901F0B7FBFB
:10038000FA20DFF880188867002028702100C9B2A1
:10039000DFF8700800F0F9FF012032BD38B5040025
:1003A000DFF814190878002820D101200870DFF840
:1003B000105A01221021280001F099FB0022082187
:1003C000280001F094FB00220421DFF8F80901F075
:1003D0008EFB4FF4FA60DFF82C18C1F8880001F0AA
:1003E000E1FB01F08AFD01F079FD13E000200870C7
:1003F00001220821DFF8C80901F079FB012204215C
:10040000DFF8C00901F073FB4EF66020DFF8F41747
:10041000C1F888002100C9B2DFF8E80700F0B5FF95
:10042000012032BD38B52DED028B04009FED8F8A7F
:100430002000C0B2012850D1DFF85C5A95ED010AC6
:10044000DFED8B0A20EE200ABDEEC00A10EE100A86
:1004500000F036FA85ED010A95ED010A00F0A4FAE4
:1004600085ED040A95ED030A00F0FEFA85ED060A13
:1004700095ED020A00F0FAFA85ED050A95ED060AF7
:10048000D5ED090A30EE200A85ED060A95ED050A3C
:10049000D5ED080A30EE200A85ED050A95ED040A2F
:1004A000D5ED070A30EE200AB0EE408A9FEDC10A72
:1004B000B4EE408AF1EE10FA02DBB3EE040A09E072
:1004C000B5EE408AF1EE10FA02D59FED680A01E020
:1004D000B0EE480A85ED040AFFE7DFF8BC5928783A
:1004E000002807D10020686095ED010A00F05CFA51
:1004F00085ED040A2878002807D10020E86095EDF2
:10050000030A00F0B1FA85ED060A2878002807D121
:100510000020A86095ED020A00F0A8FA85ED050A12
:10052000BDEC028B31BD38B504000D002900C9B205
:10053000200000F01BF831BD70B504000D0016005E
:1005400020000078C0B2052805D13200D2B22000C8
:10055000290000F08FF870BD38B504000D002900A7
:10056000C9B22000C0B200F027F931BD7FB5040048
:100570000D000221002202AE300000F021FF002613
:100580002800C0B2002806D002282ED024D3042888
:1005900055D03FD368E0DFF8140790ED010AF2EE82
:1005A000040A20EE200ABDEEC00A10EE100A060072
:1005B000300080B2000A8DF8080030008DF8090084
:1005C00002A80190012000904FF4815306220521DA
:1005D000200000F094FF47E0062000900023032253
:1005E0000521200000F03DFF3EE0DFF8540A81883D
:1005F00002290ED1016801918088022190FBF1F05F
:1006000080B2009041F2040306220521200000F090
:1006100076FF29E0DFF8280A818802290ED10168D7
:1006200001918088022190FBF1F080B200904FF49C
:10063000805306220521200000F061FF14E0DFF85E
:10064000000A818802290ED1016801918088022167
:1006500090FBF1F080B2009042F2200306220521C7
:10066000200000F04CFFFFE77FBD0000000000000D
:100670000000C8422DE9F0472DED048B84B0040042
:100680000D0092460020ADF808009FEDC48A0026B8
:100690005046C0B2002806D0401E05D0401E022899
:1006A00040F27F8080E07FE00320ADF80800022266
:1006B00002A9200000F0A8FA08EE900A022202A97E
:1006C000200000F0A1FA8146DFF8CC77B8EE680A86
:1006D00010EE100A01F034FCCDE90001484601F0AB
:1006E00053FC41EC110B9FEDAE0B01F062FC53EC9F
:1006F000102BDDE9000101F065FC01F087FD786059
:10070000022202A9200000F07FFA09EE100A02225C
:1007100002A9200000F078FA8046B8EE490A10EEEF
:10072000100A01F00DFCCDE90001404601F02CFC5F
:1007300041EC110B9FED9A0B01F03BFC53EC102B9D
:10074000DDE9000101F03EFC01F060FDF8600222ED
:1007500002A9200000F058FA00EE100AB0EE408A1C
:10076000022202A9200000F04FFA0600B8EE480A63
:1007700010EE100A01F0E4FBCDE90001300001F0B9
:1007800003FC41EC110B9FED860B01F012FC53ECC6
:10079000102BDDE9000101F015FC01F037FDB86018
:1007A00002E000F0C3F9FFE704B0BDEC048BBDE844
:1007B000F08700000100A0410200D2B2002A042A02
:1007C0001BD80A00D2B2012A0ED1DFF8CC260023B2
:1007D0005370012313700200D2B2012A0CD10122FE
:1007E000DFF8303ADA7007E0DFF8AC265378032BF5
:1007F00002DA53785B1C5370FFE7DFF89C365A78B7
:10080000002A0ED05A78032A0BDB00221A7000222D
:100810005A6000229A600022DA600022DFF8F43980
:10082000DA7070472DE9F04100242500EDB20A2D61
:1008300043DA00252E00F6B2092E3CDA2E00F6B27D
:1008400001EB860676682F00FFB251F82770BE4292
:100850002FDA00262F00FFB251F82770AC465FFA5E
:100860008CFC01EB8C0CDCF804C0AE465FFA8EFE0B
:1008700041F82EC0AC465FFA8CFC01EB8C0CCCF836
:100880000470AC465FFA8CFC50F82CC0AE465FFAA0
:100890008EFE00EB8E0EDEF804E0A8465FFA88F8C4
:1008A00040F828E0AE465FFA8EFE00EB8E0ECEF8E2
:1008B00004C06D1CBEE7641CB7E7BDE8F081000012
:1008C00038B52DED028B04009FED348ADFF80C184B
:1008D000087800282AD10120087000210800C0B241
:1008E0000A2815DA0800C0B2DFF8F4270B00DBB2E3
:1008F00042F82300DFF8EC270800C0B252F82000CD
:10090000002803D10800C0B242F82040491CE5E7A6
:10091000DFF8D057092300222900DFF8C407FFF7CA
:1009200081FF95ED050AB8EEC00A30E00020010015
:10093000C9B20A291EDADFF8A8170200D2B251F8AC
:100940002220092A0BD100220300DBB241F8232028
:10095000DFF890170200D2B241F8224008E002000E
:10096000D2B251F82220521C0300DBB241F82320FE
:10097000401CDCE7DFF86C57092300222900DFF870
:100980006007FFF74FFF95ED050AB8EEC00ADFEDEF
:10099000970A80EE200ABDEC028B31BD00000000FA
:1009A0000000000000002440F0EE400A9FED8B1A8A
:1009B0009FED8B3ADFED8B3AF5EE400AF1EE10FA3F
:1009C00040D0F0EE603A9FED880ADFF8D80890ED4D
:1009D000004A34EE634AB4EE404AF1EE10FA08DA07
:1009E00090ED004A33EEC44AB4EE404AF1EE10FAFC
:1009F00003DB9FED7F0A21EE001ADFF8D40790EDAC
:100A0000000AF0EE401ADFF8CC1791ED000A30EE44
:100A1000010AB0EE402A32EE030A82EE000AF0EE3E
:100A2000402A33EEE10AB0EE614A00EE224A80ED40
:100A3000004AB7EE000A30EE620A20EE020A81EDAB
:100A4000000A08E0DFF88C075FF07E510160DFF8F4
:100A5000800700210160DFF87807DFF84818026896
:100A60000A6090ED000A704770470000F0EE400AFF
:100A70009FED5A1A9FED5A3ADFED5A3AF5EE400AC9
:100A8000F1EE10FA40D0F0EE603A9FED570ADFF831
:100A9000180890ED004A34EE634AB4EE404AF1EE95
:100AA00010FA08DA90ED004A33EEC44AB4EE404A38
:100AB000F1EE10FA03DB9FED4E0A21EE001ADFF88B
:100AC000EC0790ED000AF0EE401ADFF8E41791ED24
:100AD000000A30EE010AB0EE402A32EE030A82EE3E
:100AE000000AF0EE402A33EEE10AB0EE614A00EE71
:100AF000224A80ED004AB7EE000A30EE620A20EE8C
:100B0000020A81ED000A08E0DFF8A4075FF07E51D9
:100B10000160DFF8980700210160DFF89007DFF837
:100B2000881702680A6090ED000A704780B50320BC
:100B3000DFF8881208700421324800F038FC3220B7
:100B400001F043FD01BD80B5DFF8680700782A4950
:100B500008700220DFF8641208700421294800F0B0
:100B600014FC01BD2DE9F04104000D0016002F001A
:100B7000DFF8CC84404602F031F9300080B2022820
:100B800002D004280BD01DE07878D8F80010087047
:100B90003878D8F800104870A8F8046015E0787824
:100BA000D8F8001008703878D8F800104870F87835
:100BB000D8F800108870B878D8F80010C870A8F875
:100BC000046002E00020A8F80400DFF8E8060470E2
:100BD0000120DFF8E4160870BDE8F08195BFD63338
:100BE00017B7D13800000000CDCC4C3E0000C84201
:100BF00000007A44F4E20008C6260020380A0020EB
:100C0000C426002080050020F0B4030000200C88DA
:100C10001500EDB2042D16D12500ADB21D44AE78FD
:100C20002500ADB21D44ED7855EA06252600B6B282
:100C30009E5D2700BFB21F447F7857EA062757EA18
:100C4000054738000DE01500EDB2022D09D1250051
:100C5000ADB25D5D2600B6B21E44767856EA052632
:100C600030000D8855FA82F50D80F0BC704770B5E4
:100C700004000D000F4E01224FF48051300000F0AF
:100C800036FF0A2002F070F901F020F94FF47A7370
:100C90002A0092B22100DFF8240602F0B6F9002201
:100CA0004FF48051300000F022FF70BD6826002014
:100CB000D226002000080048D32600202DE9F04766
:100CC0002DED048B8EB0B0EE409AB0EE608AF0EE5F
:100CD000418A322100226C46200000F071FB002482
:100CE000002500260027DFF8B0A18AED079A8AEDDB
:100CF000088ACAED098A9AED070A03F021FB8046AB
:100D00009AED080A03F01CFB81469AED090A03F0EC
:100D100017FB824668464146090E2200D2B2815432
:100D2000641C4146090C2200D2B28154641C414625
:100D3000090A2200D2B28154641C2100C9B200F811
:100D40000180641C4946090E2200D2B28154641C01
:100D50004946090C2200D2B28154641C4946090A52
:100D60002200D2B28154641C2100C9B200F8019063
:100D7000641C5146090E2200D2B28154641C5146B3
:100D8000090C2200D2B28154641C5146090A220087
:100D9000D2B28154641C2100C9B200F801A0641CC5
:100DA0002200D2B292B26946DFF8140503F050FB7C
:100DB0000EB0BDEC048BBDE8F0870000D824002005
:100DC00000040048000C0048F8B500240025002667
:100DD000DFF8EC040078C0B2FF2855D0DFF8E40457
:100DE0000178C9B20906DFF8E0040078C0B251EA20
:100DF0000041DFF8D8040078C0B251EA0021DFF8E2
:100E0000D0040078C0B201430C00DFF8C8040178B8
:100E1000C9B20906DFF8C0040078C0B251EA004147
:100E2000DFF8B8040078C0B251EA0021DFF8B0045E
:100E30000078C0B201430D00DFF8A8040178C9B200
:100E40000906DFF8A4040078C0B251EA0041DFF8D7
:100E50009C040078C0B251EA0021DFF894040078C5
:100E6000C0B201430E00364F17F11C01200003F001
:100E70008FF917F12001280003F08AF917F12401F6
:100E8000300003F085F906E02D480021C161002102
:100E9000016200214162F1BD8425002070B500246B
:100EA0000025DFF854040078C0B2FF283DD0DFF8F9
:100EB0004464DFF8480400783070DFF844040178B7
:100EC000C9B20906DFF83C040078C0B251EA00411B
:100ED000DFF834040078C0B251EA0021DFF82C04B6
:100EE0000078C0B201430C00DFF824040178C9B2D5
:100EF0000906DFF820040078C0B251EA0041DFF8AB
:100F000018040078C0B251EA0021DFF8100400781C
:100F1000C0B201430D0016F10801200003F038F9BA
:100F2000311D280003F034F909E0DFF8C80300217F
:100F30000170DFF8EC138160DFF8E813416070BDE9
:100F40008425002078B591B004000D003C210022DA
:100F500002AE300000F034FA0020ADF804000321A6
:100F6000012003F08FFC0B2000900023DFF8B82352
:100F700001A902A803F0F6F84FF47A73BDF8042033
:100F800002A9DFF8A80302F040F812B070BD78B5EE
:100F900091B004000D003C21002202AE300000F0B0
:100FA0000FFA0020ADF80400C54803F021FAD2483A
:100FB00003F01EFACF4800210170DFF8681381604A
:100FC000DFF85C1341600D2000900023DFF8602300
:100FD00001A902A803F0C6F84FF47A73BDF8042003
:100FE00002A9D24802F011F812B070BD38B590B025
:100FF00004000D0003A8CF49322203F057FECE486B
:10100000D0E90023CDE9012303A801900023CB48B8
:10101000027802A903A803F030F802200090002310
:101020007DA202A903A803F09DF84FF47A73BDF8DE
:1010300008200199BD4801F0E8FF11B030BD000063
:1010400010060020F8B504000D0000262068007886
:1010500030283ADB206800783A2836DA002700206A
:101060000100C9B2A28889B291420FD22168020060
:10107000D2B2895C302905DB21680200D2B2895CDA
:101080003A2900DB02E07F1C401CE9E73900C9B2C5
:10109000206803F01FF90600B6F5807F0DD2A7483F
:1010A00041783000C0B203F0EDFB4FF47A730222B6
:1010B0007BA19E4801F0A9FF0EE04FF47A73052250
:1010C0009F499A4801F0A1FF06E04FF47A73052288
:1010D0009B49964801F099FFF1BD0000D4260020FD
:1010E000342500205C25002038B590B004000D00A8
:1010F00003A89449322203F0D9FD9348D0E9002394
:10110000CDE9012303A8019000238C48427802A96D
:1011100003A802F0B2FF0220009000233EA202A921
:1011200003A803F01FF84FF47A73BDF80820019963
:101130007E4801F06AFF11B030BDF8B504000D0023
:10114000002620680078302839DB206800783A28AB
:1011500035DA002700200100C9B2A28889B2914285
:101160000FD221680200D2B2895C302905DB2168E8
:101170000200D2B2895C3A2900DB02E07F1C401CED
:10118000E9E73900C9B2206803F0A4F806000C2E84
:101190000DD23100C9B26948007803F073FB4FF4F7
:1011A0007A7302223EA1614801F02FFF0EE04FF456
:1011B0007A73052262495D4801F027FF06E04FF48B
:1011C0007A7305225E49594801F01FFFF1BD000006
:1011D000942600201806002080B5FFF7F5FDFFF7E4
:1011E0005DFE5A485A49C0F8A4135A49C0F8B413CE
:1011F0005949C0F8C4135949C0F8D4135849C0F824
:10120000E4135849C0F8F41300F077FE00F066FECE
:1012100001BD0000902600200D0A000070B50020DE
:10122000002400252800C0B2092836DA4E4E2800D6
:10123000C0B200013044407801282CD101200400C4
:101240002800C0B200013044406800280ED003F0EE
:1012500081FD2900C9B2090131444968401A2900B9
:10126000C9B2090131448968884214D30020290099
:10127000C9B209013144487003F06CFD2900C9B2BC
:101280000901314448602800C0B22900C9B20901EF
:101290003144C96888476D1CC4E72000C0B270BDE6
:1012A0004F4B000098260020A02600209C260020FE
:1012B0001C060020D1260020D8240020D01F0020AA
:1012C00000080208020802080308020804080208CD
:1012D00005080208060802080708020808080208AC
:1012E000090802080A0802080B0802080C0802088C
:1012F0000D08020850260020001002080210020803
:101300000310020804100208051002080610020863
:101310000710020808100208091002080A10020843
:101320000000484200001644FCE00008C01E0020F7
:1013300094DE000824DB0008FCE20008880A002094
:10134000ECE2000858DB000804E30008280600204F
:10135000450F00088F0F0008ED0F0008451000082A
:10136000E91000083B110008800500200200012060
:101370000B00DBB21B011344587000200B00DBB2E2
:101380001B01134458600120704738B504000D005C
:1013900001202900C9B209012144487003F0DAFC98
:1013A0002900C9B2090121444860012032BD020070
:1013B00000200B00DBB21B01134458700120704762
:1013C00062F30F2262F31F42401810F0030308D0AB
:1013D000C91A1FD3DB0748BF00F8012D28BF20F82A
:1013E000022D130030B414461546103928BF20E9E9
:1013F0003C00FAD8490728BF20E90C0048BF40F854
:10140000042D890028BF20F8022D48BF00F8012DC7
:1014100030BC7047C91818BF00F8012DCB0728BF92
:1014200000F8012D704730B403004FF6FF70002420
:101430008C4213DA1A5D50400822002A0CD0C507EE
:1014400006D580B2400880F4204090F0010001E011
:1014500080B24008521EF0E7641CE9E780B230BC5D
:1014600070472DE9F84305000E0017009846089CC8
:101470005FF000092868494689B2465419F101090C
:101480002868494689B2475419F10109404680B29B
:10149000000A29684A4692B2885419F1010928685D
:1014A000494689B200F8018019F10109200080B293
:1014B000000A29684A4692B2885419F1010928683D
:1014C000494689B2445419F10109494689B228684C
:1014D000FFF7A9FF010028684A4692B2815419F12A
:1014E0000109080080B2000A2A684B469BB2D0541A
:1014F00019F10109A5F804900120BDE8F2832DE956
:10150000F84F06000F00904699460A9DDDF82CA082
:10151000002400213068220092B28754641C306895
:10152000220092B200F80280641C484680B2000A91
:10153000326823009BB2D054641C3068220092B2FF
:1015400000F80290641C4046C0B2062802D0102861
:1015500007D01CE0280080B2012801D0002040E024
:1015600015E0280080B2000A326823009BB2D054F4
:10157000641C3068220092B28554641C2800C0B2FA
:101580004000326823009BB2D054641CFFE75FF038
:10159000000B584680B2290089B2B0EB410F0BDA3C
:1015A000584680B21AF800003168220092B288547E
:1015B000641C1BF1010BECE7210089B23068FFF7D6
:1015C00032FF01003068220092B28154641C08008E
:1015D00080B2000A326823009BB2D054641CB480ED
:1015E0000120BDE8F28F2DE9F84F05000E0017002D
:1015F00098460A9CDDF82C905FF0000B00202968CB
:101600005A4692B28E541BF1010B29685A4692B287
:101610008F541BF1010B2100C9B249002A685B46B7
:101620009BB2D1541BF1010B5FF0000A504680B20F
:10163000210089B2B0EB410F0CDA504680B219F8A4
:10164000000029685A4692B288541BF1010B1AF126
:10165000010AEBE7594689B22868FFF7E4FE01006A
:1016600028685A4692B281541BF1010B080080B2DF
:10167000000A2A685B469BB2D0541BF1010BA5F807
:1016800004B00120BDE8F28F2DE9F84F05000E00EF
:10169000170098460A9CDDF82C905FF0000B5FF075
:1016A000000A2868594689B246541BF1010B286884
:1016B000594689B247541BF1010B404680B2000ADB
:1016C00029685A4692B288541BF1010B2868594682
:1016D00089B200F801801BF1010B3800C0B2062866
:1016E00002D010281DD02CE0200080B2012801D0AB
:1016F00000203EE000208246504680B2210089B2A0
:10170000B0EB410F0CDA504680B219F8000029689E
:101710005A4692B288541BF1010B1AF1010AEBE709
:101720000FE0200080B2000A29685A4692B288541D
:101730001BF1010B2868594689B244541BF1010B77
:10174000FFE7594689B22868FFF76DFE0100286857
:101750005A4692B281541BF1010B080080B2000A74
:101760002A685B469BB2D0541BF1010BA5F804B06C
:101770000120BDE8F28F30B4002513E050F8042BAF
:10178000D30744BFA9F101039A18091F042942F89D
:10179000045BFAD213468C0744BF15809B1CC90713
:1017A00048BF1D7050F8041B0029E7D130BC7047BA
:1017B000F8B4030000250868E840002800F0D7804E
:1017C00001260F6816FA05F007403A00002A00F0DB
:1017D000CC80087910F00300012804D0087910F0BB
:1017E000030002281DD19F685FF0030C2800C0B2DF
:1017F00040001CFA00FC37EA0C07D1F80CC02800A6
:10180000C0B240001CFA00FC5CEA07079F60586801
:10181000AE40B0434E68C6F30016AE4030430400FD
:101820005C60087910F0030003280ED0DE680327FF
:101830002800C0B240008740BE438F682800C0B275
:10184000400087403E433400DC60087910F003001C
:10185000022818D12800C00803EB8000066A0F2771
:1018600015F00700C0B280008740BE430F6915F035
:101870000700C0B2800087403E4334002800C00803
:1018800003EB800004621E6803272800C0B24000FA
:101890008740BE430F7917F003072800C0B240000D
:1018A00087403E4334001C60486810F4403F5CD0E1
:1018B0009548066856F001060660006810F00100C1
:1018C00000900098914F2800800857F820605FF042
:1018D0000F0C15F00300C0B280001CFA00FC36EAC1
:1018E0000C06B3F1904F01D1002414E088488342E4
:1018F00001D101240FE08748834201D102240AE08C
:101900008548834201D1032405E08448834201D104
:10191000042400E0072415F00300C0B280008440D6
:1019200026432800800847F820607D4C20689043BB
:101930004F68FF0200D5104320607A4E346894430C
:101940004F68BF0200D514433460774E306890432F
:101950004F68BF0300D510433060744E3468944321
:101960004F68FF0300D5144334606D1C23E7F1BCBE
:1019700070472DE9F041030000250800E8400028E9
:1019800000F0A880012616FA05F008400200002A9F
:1019900000F09E80DFF874C1280080085CF8200009
:1019A0000F2715F0030E5FFA8EFE5FEA8E0E17FA10
:1019B0000EFE1EEA00000400B3F1904F02D15FF06A
:1019C000000E19E05248834202D15FF0010E13E08D
:1019D0005048834202D15FF0020E0DE04E48834230
:1019E00002D15FF0030E07E04C48834202D15FF062
:1019F000040E01E05FF0070E15F00300C0B2800096
:101A00001EFA00FE74452CD14848D0F800E03EEAAA
:101A1000020EC0F800E04448D0F800E03EEA020EB2
:101A2000C0F800E03F48D0F800E03EEA020EC0F8FF
:101A300000E03B48D0F800E03EEA020EC0F800E0CB
:101A400015F00300C0B2800017FA00F0040028006F
:101A500080085CF82000A043AE465FEA9E0E4CF87A
:101A60002E005FF0030C1868AE465FFA8EFE5FEA48
:101A70004E0E1CFA0EFE5EEA000018602800C00838
:101A800003EB800E2800C00803EB8000D0F8208014
:101A900015F00700C0B28000874038EA0707CEF88B
:101AA000207098682F00FFB27F001CFA07F7B84338
:101AB00098605868AE4030EA06065E60DE6828002E
:101AC000C0B240001CFA00FC36EA0C0CC3F80CC093
:101AD0006D1C52E7BDE8F081020010690B009BB25B
:101AE000184201D0012000E00020C0B2704713006E
:101AF000DBB2002B03D00B009BB2836102E00B0032
:101B00009BB28362704700006010024008000140F1
:101B10000004004800080048000C0048001000487D
:101B2000080401400C040140040401400004014089
:101B300080B5D448D44901605FF4E13141600021AF
:101B400081600021C160002101610C2141610021FF
:101B50008161002101620021416201F019FA00282F
:101B600001D003F05CF901BD80B5C848C8490160E7
:101B70004FF416514160002181600021C1600021B5
:101B800001610C214161002181610021C1610021BD
:101B900001620021416201F0FBF9002801D003F04D
:101BA0003EF901BD80B5BB48BB4901604FF41651F9
:101BB0004160002181600021C160002101610C2190
:101BC0004161002181610021C16100210162002188
:101BD000416201F0DDF9002801D003F020F901BDD8
:101BE00038B59EB0040014220021684603F019F9AC
:101BF0006022002106A803F014F92068A249884257
:101C000052D1202006900020119006A803F014F96C
:101C1000002801D003F003F9A048016851F0010148
:101C20000160006810F00100059005989C4801686B
:101C300051F002010160006810F002000590059863
:101C40004FF4406000900220019000200290032099
:101C500003900820049069469248FFF7A9FD924D31
:101C600092482860042068600020A8600020E86096
:101C700080202861002068610020A8610020E861C0
:101C800000202862280003F04BFB002801D003F05D
:101C9000C6F86567AC6200220021462003F0E1FD32
:101CA000462003F0F3FDABE020687949884251D12A
:101CB0000120069000200E9006A803F0BDF8002831
:101CC00001D003F0ACF87A48016851F4804101601A
:101CD000006810F48040059005987148016851F043
:101CE00002010160006810F0020005900598C02014
:101CF0000090022001900020029003200390072012
:101D0000049069466748FFF753FD6A4D6A482860AA
:101D1000022068600020A8600020E8608020286120
:101D2000002068610020A8610020E861002028628E
:101D3000280003F0F5FA002801D003F070F8656779
:101D4000AC6200220021252003F08BFD252003F04A
:101D50009DFD55E020685049884251D104200690ED
:101D60000020109006A803F067F8002801D003F0C7
:101D700056F85248016851F480210160006810F45F
:101D80008020059005984648016851F004010160E3
:101D9000006810F00400059005984FF44060009032
:101DA000022001900020029003200390072004905D
:101DB00069464348FFF7FCFC424D43482860022037
:101DC00068600020A8600020E86080202861002072
:101DD00068610020A8610020E861002028622800D6
:101DE00003F09EFA002801D003F019F86567AC6291
:101DF00000220021272003F034FD272003F046FDB8
:101E00001FB030BD10B5040020681F49884210D1B2
:101E1000224801684908490001604FF440612148A7
:101E2000FFF7A7FD606F03F0EBFA462003F035FDE6
:101E300027E02068164988420FD11D48016831F417
:101E400080410160C0211748FFF793FD606F03F0E8
:101E5000D7FA252003F021FD13E020680E498842BF
:101E60000FD11648016831F4802101604FF44061C0
:101E70001348FFF77EFD606F03F0C2FA272003F0DE
:101E80000CFD10BDC01E002000800040481F002037
:101E900000380140D01F0020004800405C10024084
:101EA0004C1002400004004800240020800402403E
:101EB00060100240482400205800024058100240A0
:101EC00000080048902400203000024080B51848E7
:101ED00000F084FF02201749087001BD80B501227F
:101EE0001549164801F0F7F800220121272003F0D8
:101EF000B8FC272003F0CAFC01BD704738B50400C8
:101F00000B480D490A78036885885A558288521C07
:101F10008280828840F2FF139A4201D3002282809D
:101F20000122064801F0D7F801200249087031BDAE
:101F3000380A0020D7260020D6260020D01F0020F7
:101F4000C0F3C75181B1FF2906D0C110400721F06D
:101F5000E04101F16051704741020CBF40F4E001E3
:101F60006FF000410020704700F0004100020AD0ED
:101F7000B0FA80FC00FA0CF001F16051A1EB0C51B9
:101F800001EBD02140057047014648B1B0FA80F11D
:101F90008840C91CC1F58461090501EBD0214005C9
:101FA00070470268531C03601170704741EC100BBE
:101FB00001BD80B553EC112B51EC100B03F08CFCE0
:101FC000F4E72E00F0B540F2FF7581EA030C0CF047
:101FD000004C15EA11541DBF15EA1357AC42AF422D
:101FE000E5E0BC41C1F31301C3F31303801A994127
:101FF00043F4801304D2641E4000494180185941C3
:10200000C90241EA5051B1FBF3F603FB1611A2FBE2
:102010000675D7EBC020A94102D2761E801859411F
:10202000C90241EA5051B1FBF3FE03FB1E11A2FBB2
:102030000E75D7EBC020A94103D2AEF1010E801876
:102040005941890241EA9051760546EA8E2EB1FB4C
:10205000F3F603FB1611A2FB0675D7EB8020A9410E
:1020600002D2761E80185941C90241EA50514EEA07
:10207000060EB1FBF3F603FB1611A2FB0675D7EBB8
:10208000C020A94102D2761E80185941C90241EAF6
:102090005051B1FBF3F703FB1711A2FB0735D3EB4C
:1020A000C020A94167F100070CBF004247F00107BB
:1020B00066F3D5274FEA1E31B80814F5806412DDA7
:1020C000BD0775F1004250EB0E5051EB045111F574
:1020D000801F5CBF41EA0C01F0BD4CF07F6141F014
:1020E000E0410020F0BDBD076D0840EA0E5041F40C
:1020F0008011D4F10104B4F120060ADAC4F12006FB
:102100000200E04001FA06F3E1401843B2401543F3
:102110000EE0342C13DCC6F1200445EA40056D08BE
:1021200020FA06F2154321FA06F0A1400D430021E2
:1021300075F1004250F1000051EB0C01F0BD0020A0
:102140005FEA0C01F0BDCFB992185B41B3FA83F797
:1021500004BFB2FA82F6BF190B3FB7F120062FBFBA
:1021600002FA06F3BB40C7F1200622FA06F638BF92
:102170003343BA401CB1E419641E33E77F4231F0A7
:102180000041B1FA81F404BFB0FA80F6A4190B3C07
:10219000B4F120062FBF00FA06F1A140C4F12006D9
:1021A00020FA06F638BF3143A0403C1B1AE7AC4288
:1021B0001ABF05EA1357AF4212E050EA41061CBFAE
:1021C00052EA4306BFE750EA4107304661461CBF6A
:1021D00041EA0551F0BD52EA430C08BFC143F0BDCE
:1021E00000204FF4001616EB410F98BF16EB430F7B
:1021F00008BF16EB410F24BFC14305E016EB430FA8
:102200000CBF61464CEA0551F0BD000001F00042F0
:102210008B1AA3F16051B1F5801F0ADBB1F17F6F1A
:102220001FD242EAC102C10071F1004142EB50707D
:1022300070470B15C3F10903212B10D2890241EA23
:10224000905180020128494141F0004121FA03F0F8
:10225000C3F12003994071F10041504170471000D3
:1022600070476FF0000013EB103F5CBF000E42EAB6
:10227000C050704780B500224FF40071DFF8480A63
:10228000FFF735FC00224FF400715FF09040FFF73C
:102290002EFC03F097FEDFF8340ADFF8341A4A1CEC
:1022A000C0F858210A1DC0F8702111F12C020262F9
:1022B00011F11402826311F11802026511F11C027E
:1022C000826611F10C02C0F8A02111F12002C0F8C1
:1022D000182211F12402C0F830222831C0F8481227
:1022E000DFF8F0190968C0F89012DFF8EC190968F6
:1022F000C0F8C01201BD38B5002000242000C0B2D3
:10230000072835DADFF8D4592000C0B2000128448C
:10231000407801282AD12000C0B20001284440683A
:1023200000280ED002F016FD2100C9B2090129448F
:102330004968401A2100C9B20901294489688842C4
:1023400014D300202100C9B209012944487002F0C9
:1023500001FD2100C9B20901294448602000C0B232
:102360002100C9B209012944C9688847641CC5E72E
:10237000002032BD38B50400DFF8645968780028C1
:102380001FD100224FF40071DFF83C09FFF7AFFBCB
:1023900000224FF400715FF09040FFF7A8FB03F0BC
:1023A00011FE89200090202307220521DFF834093F
:1023B00003F058FE012068700221DFF82009FEF7C3
:1023C000D5FF012032BD7CB50400DFF81C59287808
:1023D000002803D0022823D003D33DE003F08AFF76
:1023E0003AE003F0E9FF892000902023072205212D
:1023F000DFF8F00803F036FEDFF8F02803212C2088
:1024000003F04AFFDFF8E8280421082003F044FF26
:1024100004F041F841F28830DFF8C01888611BE011
:102420000120DFF8BC184870892000902023072283
:102430000521DFF8B00803F015FEDFF8A0680221DF
:102440003000FEF793FF03213000FEF78FFF0421D9
:102450003000FEF78BFFFFE72878401C2870210032
:10246000C9B2DFF87808FEF790FF012076BD70B59D
:10247000040000F0BDF8DFF868586878012803D13F
:10248000A87800F03EFB04E00021DFF85008FEF7DA
:102490006DFFDFF86008A9780278914207D0A9782B
:1024A0000170DFF854080068DFF850180860A87859
:1024B000082812D1DFF844684FF4FA61306800F060
:1024C00045FC012809D1DFF8300800683060062299
:1024D00015F10801A81C00F0E1FC2100C9B2DFF8E9
:1024E000FC07FEF752FF012070BD10B50400DFF8B5
:1024F0001018DFF81008006900F028FC012827D127
:10250000DFF804080178012905D1002101700020BD
:10251000DFF8CC178870DFF8F4070188491C0180C8
:1025200042F21071DFF8B4272300DBB21B011A441A
:102530009268B1FBF2F102888A420DD3002101803A
:10254000DFF89C178878002806D00020887003E008
:102550000120DFF8B41708702100C9B2DFF87C074A
:10256000FEF713FF012010BD38B5040004F006F893
:10257000DFF89057287A012808D10521DFF85C0799
:10258000FEF7F4FEDFF87007006828612100C9B289
:10259000DFF84807FEF7F9FE012032BD10B5040050
:1025A00003F0D2FFDFF85C07002101700021017207
:1025B000012010BD10B5040000224FF40051DFF8D7
:1025C0000807FFF794FA012010BD10B5040001229E
:1025D0004FF40051DFF8F006FFF789FADFF8FC0648
:1025E000210089B281660621FEF7CFFE10BD0000F2
:1025F000DFF8DC06DFF818170A784270DFF81427D6
:10260000497852F8211041609FED2C0ADFF8081735
:10261000D1ED010A60EE800AFDEEE00AC0ED020A8B
:10262000F2EE040A91ED021A21EE201ABDEEC11A53
:1026300080ED031A91ED031A21EE001ABDEEC11AC6
:1026400080ED041A91ED041A21EE001ABDEEC11AB4
:1026500080ED051A91ED051A21EE201ABDEEC11A82
:1026600080ED061A91ED061A21EE001ABDEEC11A90
:1026700080ED071A91ED071A21EE001ABDEEC11A7E
:1026800080ED081A91ED081A21EE201ABDEEC11A4C
:1026900080ED091A91ED091A21EE000ABDEEC00A7B
:1026A00080ED0A0ADFF8741691ED010A20EE200A87
:1026B000BDEEC00A80ED0B0A704700000000C84262
:1026C0002DE9F84F8AB006002021002202AC20003C
:1026D000FEF776FE0024002500208DF8050000207E
:1026E0008DF806001827DFF8E4853000C0B2784383
:1026F000404490F815903000C0B2784340444068A0
:10270000002842D001213000C0B200F0A9F9002811
:102710000ED13000C0B27843404442683000C0B2AD
:1027200078434044017D4846C0B203F0B5FD1EE049
:102730005FF0000A3000C0B278434044406804F0C3
:10274000ADFD5146C9B2814207D2202002A95246AE
:10275000D2B288541AF1010AECE702AA3000C0B2E2
:1027600078434044017D4846C0B203F095FD3000F7
:10277000C0B278434044406804F090FDDFF8A015F3
:102780000979491C484310FA89F93000C0B27843EE
:1027900040448068002800F03A813000C0B278439D
:1027A0004044007B00280BD002281ED012D30428FE
:1027B00030D024D3062845D036D307283ED044E075
:1027C0003000C0B2784340448068007800210400A3
:1027D0000D003AE03000C0B278434044806890F980
:1027E0000000C11704000D002FE03000C0B2784394
:1027F000404480680088002104000D0025E030007E
:10280000C0B2784340448068B0F90000C1170400AA
:102810000D001AE03000C0B2784340448068006880
:10282000002104000D0010E03000C0B278434044A5
:1028300080680068C11704000D0006E001208DF8D3
:10284000050002E002208DF805009DF80500002833
:102850000CD13000C0B278434044407B404202007B
:10286000D2B202A9200000F089FA26E09DF8050006
:1028700001281AD13000C0B278434044806804F087
:102880000DFD202819D23000C0B278434044806842
:1028900004F004FD020092B23000C0B2784340441C
:1028A000816802A800F0FAFA07E03000C0B278436D
:1028B0004044806800788DF8080002213000C0B2E2
:1028C00000F0CEF8012823D13000C0B27843404454
:1028D000807DC0B200098DF806009DF806000F2823
:1028E00005D0202002A99DF80620885410E05FF052
:1028F000000A02A804F0D2FC5146C9B2814207D2B4
:10290000202002A95246D2B288541AF1010AF0E7F7
:102910003000C0B202285ED15FF0000A00208DF8BE
:1029200004003000C0B278434044407B002802D00D
:1029300009208DF80400392000902E2315220F2144
:10294000DFF8E00304F0C6FC02A804F0A7FC83460D
:10295000DFF8CC030079401C00FB0BFB5846C0B2EB
:10296000022190FBF1F01F280BDA5846C0B2022179
:1029700090FBF1F0D0F140009DF8041050FA81FA7C
:1029800007E05846C0B2D0F15F009DF8041050FA3D
:1029900081FA02AA3000C0B278434044007D401C56
:1029A000C0B2DFF87C134979D1EBC001491EC9B22E
:1029B0005046C0B204F038FE5AFA8BF09DF80490ED
:1029C000B0EB090989200090202307220521C54882
:1029D00003F048FB1BE089200090202307220521FB
:1029E000C04803F03FFB02AA3000C0B27843404425
:1029F000017D4846C0B203F04FFC02A804F04EFC33
:102A0000C7490979491C484310FA89F081463000CA
:102A1000C0B278434044006900281ED03000C0B2E4
:102A2000784340448068002817D03000C0B2784313
:102A300040448068BC4988420FD03000C0B278431F
:102A4000404402693000C0B207FB00F708EB070002
:102A5000017D4846C0B203F01FFC0BB0BDE8F08F0B
:102A600070B504000D0099492200D2B218204243EB
:102A700001EB0200817D2800C0B201402800C0B2F5
:102A800081422ED1A94E4FF496712A00D2B28020F5
:102A9000424306EB02002200D2B250F8220000F0BE
:102AA00055F9012826D12900C9B28020414306EBFF
:102AB00001002100C9B2904A126840F821209C48C8
:102AC0002900C9B2490101442200D2B22B00DBB275
:102AD0005B0118442300DBB2C05CD0F101008854D4
:102AE00008E093482900C9B2490108442100C9B24D
:102AF000002242548E48EDB269010844E4B2005D00
:102B000070BD70B50400002603F056FC00F077F8A5
:102B10002000C0B200F07DF82000C0B200F0A1F8A3
:102B20000025280080B2202811DA68492A0092B2D4
:102B30001820424301EB0200C07D2100C9B2884247
:102B400003D12800C0B2FFF7BBFD6D1CE9E703F01D
:102B5000A2FC70BDF0B44271C47803792500EDB2D7
:102B6000AB420AD3F025594E2700FFB218235F432A
:102B700006EB07039D75641CEFE71823534C85781B
:102B80005D4325444679AE75002904D0857803FB62
:102B900005F323449960F0BC70472DE9F84F070016
:102BA000884691469A460A9E0B9DDDF830B00D9CF2
:102BB00087F8008087F8019087F802A0FE703D71C9
:102BC0002200D2B259463800FFF7C4FFBDE8F18FAA
:102BD00010B4010000221000C0B204280CD2100072
:102BE000C0B2085C534B1400E4B21B5D984201D0A4
:102BF000002002E0521CEEE7012010BC704780B5B7
:102C00000120009008237F220821002004F090FD7D
:102C100001BD70B504002000C0B2002820D13E489C
:102C2000007800280ED1294D25A6320095F85C10B9
:102C3000782003F031FB320095F87410782003F00F
:102C40002BFB0DE01FA6214D320095F85C1078207B
:102C500003F022FB320095F87410782003F01CFB7F
:102C600070BD0100C9B2072924D11949097800298A
:102C700006D002290ED008D3042915D00FD318E0AE
:102C80002D49124AC2F8D81218E02C490F4AC2F84E
:102C9000D81213E02A490D4AC2F8D8120EE0294989
:102CA0000A4AC2F8D81209E02749084AC2F8D812DD
:102CB00004E003E02049054AC2F8D812704700003A
:102CC000200000004E00000000080048D80000204E
:102CD000D8240020700400207C0000200C0000207C
:102CE00034260020F8D70008CB260020E4E00008B6
:102CF00048DD0008CC260020AC26002080260020DD
:102D0000C0270900EC250020CD260020BE2600208B
:102D1000880A00200C050020842500206826002059
:102D200044260020D0D500088A0A0020401D00203B
:102D3000A0230020840000208800002098000020AC
:102D4000A8000020B8000020C800002038B504000A
:102D50000D00DFF8FC010168200000F006F8A84231
:102D600001D3012000E0002032BD814204D25FF097
:102D7000FF32101A081800E0081A704738B52DED18
:102D8000048B08EE100A0C001500DFED438A2800C2
:102D9000C0B2FB2810DBB8EEC89A2800C0B240428F
:102DA000C0B200F08BF829EE009A00212000B0EEAE
:102DB000490A00F0B1F80EE0B8EEC89A2800C0B297
:102DC00000F07CF889EE009A2900C9B22000B0EE2C
:102DD000490A00F0A1F8BDEC048B31BD10B400210C
:102DE0000A00838892B29A4206D2002203680C003D
:102DF000A4B21A55491CF3E70022828010BC704728
:102E000010B4040013005A1E9BB2002B02D0217094
:102E1000641CF7E710BC704770B504000D00160085
:102E2000DFF8240100782100C9B2884209D3DFF815
:102E300024211068002804D0310089B228001268CB
:102E4000904770BD38B504000D00280004F026FA44
:102E5000020092B229002000C0B2FFF7DDFF31BDB1
:102E600070B504000D00280004F018FA020092B2B8
:102E700029002000C0B2FFF7CFFFDFF8DC60306828
:102E8000002807D0280004F009FA010089B22800C0
:102E90003268904770BD00000000000030B40400AC
:102EA0000D0013005A1E9BB2002B04D02B78237008
:102EB0006D1C641CF5E730BC7047000010B50400C1
:102EC0002000C0B2FB2816DB2000C0B2D0F5807015
:102ED00004F0C8FC41EC110B9FED200BFFF769F8E3
:102EE00053EC102B00201949FFF76CF8FFF78EF90F
:102EF00000EE100A0FE02000C0B2FFF745F841ECE9
:102F0000110B9FED160BFFF754F851EC100BFFF768
:102F10007DF900EE100A10BD38B52DED028B82B0A0
:102F2000B0EE408A04000D0018EE100AFFF708F812
:102F3000CDE900012A000B49200004F0A5FC02B0F5
:102F4000BDEC028B31BD00008C0A00200000F03F78
:102F5000AC260020B4260020B0260020000000008F
:102F6000000024403CE3000870B5040001F0F2FECC
:102F70000500260016F1010F02D00448007836182B
:102F800001F0E8FE401BB042FAD370BD8B0A00206E
:102F900010B50400002C01D1012035E0A069002803
:102FA000FFD1E06F002805D1002084F878002000D0
:102FB000FEF716FE2420E067206800684008400005
:102FC00021680860606A002802D0200000F0DEFB63
:102FD000200000F05FFA012801D1012014E02068F0
:102FE000406830F49040216848602068806830F084
:102FF0002A00216888602068006850F0010021687C
:103000000860200000F02FFC10BD2DE9FC470600F1
:103010000D0017009846F06F202859D1002D03D0DD
:10302000380080B2002801D1012052E00020C6F80B
:1030300084002120F06701F08DFE8146A6F85070D3
:10304000A6F85270B068B0F5805F05D130690028ED
:1030500002D10024AA4602E02C005FF0000AB6F874
:103060005200002822D0CDF800804B46002280215B
:10307000300000F061FC002803D02020F06703201E
:1030800027E0002C08D1BAF80000C005C00D316857
:1030900008851AF1020A03E0207831680885641C6B
:1030A000B6F85200401EA6F85200D8E7CDF80080CE
:1030B0004B4600224021300000F03EFC002803D0A7
:1030C0002020F067032004E02020F067002000E0CB
:1030D0000220BDE8F68770B505000C001600D5F893
:1030E0008000202824D1002C03D0300080B200289A
:1030F00001D101201DE0002028662868DFF8901328
:1031000088420ED02868406800020AD5286850E836
:10311000000F50F0806001002A6842E8001000288B
:10312000F4D1320092B22100280000F054FC00E0FB
:10313000022070BD2DE9F04706003068C76930688D
:10314000D0F800803068D0F8089040F60F043C407A
:10315000002C0BD1B80609D55FEA886006D5B06EA1
:10316000002802D03000B16E88478FE1002C00F0BB
:10317000AA805FEAC97005D4DFF8080618EA000FD4
:1031800000F0A18017F00100C0B200280BD05FEA68
:10319000C85008D5012031680862D6F8840050F084
:1031A0000100C6F88400B8070DD519F00100C0B2BF
:1031B000002808D0022031680862D6F8840050F058
:1031C0000400C6F8840078070DD519F00100C0B2DC
:1031D000002808D0042031680862D6F8840050F036
:1031E0000200C6F88400380710D55FEA886004D46E
:1031F00019F00100C0B2002808D008203168086228
:10320000D6F8840050F00800C6F8840038050CD5C4
:103210005FEA481009D54FF4006031680862D6F8BB
:10322000840050F02000C6F88400D6F884000028FE
:1032300048D0B80608D55FEA886005D5B06E00288A
:1032400002D03000B16E8847D6F88400050030689F
:103250008068400602D415F0280F2DD0300000F011
:103260009EFC30688068400622D53068083050E8FF
:10327000000F30F040000100306810F1080242E811
:1032800000100028F1D1706F00280DD0DFF8F8048D
:10329000716F8863706F02F093F9002812D0706F1D
:1032A000716F896B88470DE0300004F047FB09E03F
:1032B000300004F043FB05E0300004F03FFB002049
:1032C000C6F88400E2E0306E012840F0BD80F806C8
:1032D00040F1BA805FEAC86040F1B68010203168E2
:1032E00008623068806840066DD5706F0068D0F85D
:1032F00004A0504680B2002852D05046B6F858106C
:1033000080B288424CD2A6F85AA0706F006800685C
:10331000800639D4306850E8000F30F48070010026
:10332000326842E800100028F4D13068083050E8D4
:10333000000F400840000100306810F1080242E828
:1033400000100028F1D13068083050E8000F30F04C
:1033500040000100306810F1080242E80010002827
:10336000F1D12020C6F8800000203066306850E897
:10337000000F30F010000100326842E80010002811
:10338000F4D1706F02F0F2F802207066B6F85810AF
:10339000B6F85A00091A89B2300004F0B0FA11E008
:1033A0005046B6F8581080B288420BD1706F006852
:1033B0000068800606D502207066B6F85810300006
:1033C00004F09DFA62E0B6F85800B6F85AA0B0EBE7
:1033D0000A0AB6F85A00002835D0504680B20028B4
:1033E00031D0306850E8000F30F49070010032683E
:1033F00042E800100028F4D13068083050E8000F8F
:10340000400840000100306810F1080242E8001056
:103410000028F1D12020C6F880000020306600206E
:10342000B066306850E8000F30F0100001003268DC
:1034300042E800100028F4D102207066514689B29B
:10344000300004F05CFA21E0F8020AD55FEA492076
:1034500007D55FF4801031680862300004F000FB8B
:1034600014E0380609D55FEA086006D5F06E00283A
:1034700002D03000F16E884708E0780606D55FEA92
:10348000486003D5300000F054FCFFE7BDE8F0874A
:10349000008000402DE9F04704000026DFF8A8195D
:1034A00020688842FFD0A268206902436069024315
:1034B000E069024320680368DFF890090340134382
:1034C000206803602068436833F44053E068034396
:1034D00020684360D4F818802068884202D0206AAF
:1034E00050EA08082068806830F4306058EA00002C
:1034F000226890602068DFF8482A904216D1DFF8F1
:10350000440A006810F00300002805D0022805D006
:1035100006D3032806D007E0012760E002275EE01B
:1035200004275CE008275AE0102758E02068DFF8FD
:10353000182A904217D1DFF80C0A006810F00C002E
:10354000002806D0042808D0082804D00C2806D06B
:1035500007E0002743E0022741E004273FE0082777
:103560003DE010273BE02068DFF8E029904217D1CA
:10357000DFF8D009006810F03000002806D01028CD
:1035800008D0202804D0302806D007E0002726E005
:10359000022724E0042722E0082720E010271EE06D
:1035A000206888421AD1DFF89C09006810F4406056
:1035B000002809D0B0F5806F0AD0B0F5006F05D0B3
:1035C000B0F5406F06D007E0002708E0022706E0CC
:1035D000042704E0082702E0102700E010272068F5
:1035E000884246D13800C0B2002806D0022808D050
:1035F000042809D008280BD00DE004F0A1FE814674
:103600000DE0DFF84C990AE004F02DFE814606E05B
:103610004FF4004903E05FF0000901200600B9F112
:10362000000F00F0A580616803204143894505D360
:1036300061684FF480504143494502D201200600A1
:1036400096E04FF48072606840080021E2FB0901B7
:103650006268002304F004FF0500B5F5407F05D340
:10366000B5F5801F02D22068C56081E00120060008
:103670007EE0E069B0F5004F41D13800C0B20028CB
:1036800008D001280AD002280CD004280DD0082820
:103690000FD011E004F054FE814611E004F05DFE0D
:1036A00081460DE0DFF8A8980AE004F0DCFD8146D1
:1036B00006E04FF4004903E05FF000090120060036
:1036C000B9F1000F54D06068400810EB4900616800
:1036D000B0FBF1F00500102D0ED3B5F5803F0BD2F5
:1036E0004FF6F0712940C5F3420001438A46504627
:1036F00080B22168C8603BE00120060038E0380055
:10370000C0B2002808D001280AD002280CD0042812
:103710000DD008280FD011E004F012FE814611E010
:1037200004F01BFE81460DE0DFF824980AE004F067
:103730009AFD814606E04FF4004903E05FF000097E
:1037400001200600B9F1000F12D0606819EB50009B
:103750006168B0FBF1F00500102D07D3B5F5803F8F
:1037600004D2280080B22168C86001E00120060070
:103770000020A0660020E0663000C0B2BDE8F087FF
:103780000000000020010004193D000890F82410FA
:10379000090707D501684A6832F40042416B0A43C1
:1037A00001684A6090F82410C90707D501684A6883
:1037B00032F40032816A0A4301684A6090F82410AA
:1037C000890707D501684A6832F48032C16A0A4322
:1037D00001684A6090F82410490707D501684A68D3
:1037E00032F48022016B0A4301684A6090F8241089
:1037F000C90607D501688A6832F48052816B0A4392
:1038000001688A6090F82410890607D501688A68E3
:1038100032F40052C16B0A4301688A6090F82410A8
:10382000490613D501684A6832F48012016C0A43D4
:1038300001684A60016CB1F5801F07D101684A68D0
:1038400032F4C002416C0A4301684A6090F82410C7
:10385000090607D501684A6832F40022816C0A43E0
:1038600001684A60704738B504000020C4F884003D
:1038700001F070FA05002068006800071DD57FF090
:103880007E4000902B0000225FF40011200000F029
:1038900053F8002811D0206850E8000F30F0800065
:1038A0000100226842E800100028F4D12020E067DF
:1038B000002084F8780003203DE02068006840077D
:1038C0002CD57FF07E4000902B0000225FF4800119
:1038D000200000F031F8002820D0206850E8000FC8
:1038E00030F490700100226842E800100028F4D102
:1038F0002068083050E8000F4008400001002068B0
:1039000010F1080242E800100028F1D12020C4F88C
:103910008000002084F8780003200CE02020E0677D
:103920002020C4F88000002020660020606600206F
:1039300084F87800002032BD2DE9F04105000E002A
:1039400090461F00069C2868C0693040B04201D1F3
:10395000012000E000204146C9B2884238D114F16C
:10396000010FF0D001F0F6F9C01B844201D3002C06
:1039700001D103202DE0286800684007E3D5802EA0
:10398000E1D0402EDFD02868C06900070DD508209F
:1039900029680862280000F002F90820C5F88400B0
:1039A000002085F87800012013E02868C069000530
:1039B000C9D54FF4006029680862280000F0EFF8CC
:1039C0002020C5F88400002085F87800032000E05E
:1039D0000020BDE8F08130B403005965A3F85820F9
:1039E000A3F85A20002098669868B0F5805F0BD144
:1039F0001869002804D140F2FF10A3F85C0023E00E
:103A0000FF20A3F85C001FE0986800280AD118691D
:103A1000002803D1FF20A3F85C0015E07F20A3F865
:103A20005C0011E09868B0F1805F0AD11869002845
:103A300003D17F20A3F85C0006E03F20A3F85C00E0
:103A400002E00020A3F85C000020C3F884002220DC
:103A5000C3F880001868083050E8000F50F00100EB
:103A60000400186810F1080545E800400028F1D16D
:103A70009868B0F5805F06D11869002803D10FF26D
:103A8000D130986602E00FF2D520986618690028B8
:103A90000BD0186850E8000F50F4907004001D68B7
:103AA00045E800400028F4D10AE0186850E8000F0B
:103AB00050F0200004001D6845E800400028F4D1C3
:103AC000002030BC704770B504000D00160065651D
:103AD000A4F858600020C4F884002220C4F88000B4
:103AE000606F002821D00FF21510616FC8620FF2CD
:103AF000B110616F08630FF2D110616F486300204D
:103B0000616F886333009BB2626D206810F12401FD
:103B1000606F01F0DFFC002807D01020C4F884009B
:103B20002020C4F8800001202AE0206900280AD063
:103B3000206850E8000F50F480700100226842E8CD
:103B400000100028F4D12068083050E8000F50F031
:103B500001000100206810F1080242E8001000286E
:103B6000F1D12068083050E8000F50F0400001000B
:103B7000206810F1080242E800100028F1D100206E
:103B800070BD016851E8001F31F0C0010A000368F0
:103B900043E800210029F4D12021C1677047016862
:103BA00051E8001F31F490710A00036843E80021D6
:103BB0000029F4D10168083151E8001F4908490083
:103BC0000A00016811F1080343E800210029F1D13E
:103BD000016E01290AD1016851E8001F31F010017E
:103BE0000A00036843E800210029F4D12021C0F82D
:103BF00080100021016600218166704738B50400FD
:103C0000A56A2068006880063AD40020A5F85A000A
:103C1000286850E8000F30F4807001002A6842E8FC
:103C200000100028F4D12868083050E8000F400840
:103C300040000100286810F1080242E80010002846
:103C4000F1D12868083050E8000F30F04000010042
:103C5000286810F1080242E800100028F1D1202065
:103C6000C5F88000286E01280AD1286850E8000FA6
:103C700030F0100001002A6842E800100028F4D15A
:103C800000206866286E012805D1B5F85810280074
:103C900003F035FE02E0280003F016FE31BD0000FF
:103CA00038B50400A56A01206866286E012807D18E
:103CB000B5F85810490889B2280003F020FE02E048
:103CC000280004F0E5FC31BDF8B50400A56AEE6FEC
:103CD000D5F8807028688068000607D5212E05D1A8
:103CE0000020A5F852002800FFF74BFF28688068E5
:103CF000400607D5222F05D10020A5F85A0028003C
:103D0000FFF74DFFD5F8840050F01000C5F884008F
:103D1000280003F013FEF1BD38B50400A56A0020A9
:103D2000A5F85A000020A5F85200280003F006FE6E
:103D300031BD10B50400206850E8000F30F040009D
:103D40000100226842E800100028F4D12020E0673A
:103D50000020E066200004F09CFC10BD70B505005A
:103D6000B5F85C60D5F88000222866D12868808C80
:103D7000040016EA0400696D0870686D401C6865EF
:103D8000B5F85A00401EA5F85A00B5F85A000028A8
:103D900059D1286850E8000F30F4907001002A686B
:103DA00042E800100028F4D12868083050E8000FDD
:103DB000400840000100286810F1080242E80010A5
:103DC0000028F1D12020C5F880000020A86600203E
:103DD000686628681C4988420ED02868406800023E
:103DE0000AD5286850E8000F30F0806001002A688A
:103DF00042E800100028F4D1286E012819D10020D3
:103E00002866286850E8000F30F0100001002A688A
:103E100042E800100028F4D12868C069C00602D525
:103E2000102029680862B5F85810280003F067FDD3
:103E300009E0280003F048FD05E02868008B50F0F9
:103E400008002968088370BD00800040F369FFEF17
:103E5000F8B50500B5F85C70D5F88000222867D168
:103E60002868808C0400686D060017EA0400308022
:103E7000686D801C6865B5F85A00401EA5F85A00A8
:103E8000B5F85A00002859D1286850E8000F30F4DE
:103E9000907001002A6842E800100028F4D12868D8
:103EA000083050E8000F400840000100286810F179
:103EB000080242E800100028F1D12020C5F8800057
:103EC0000020A866002068662868224988420ED033
:103ED0002868406800020AD5286850E8000F30F0D2
:103EE000806001002A6842E800100028F4D1286EA2
:103EF000012819D100202866286850E8000F30F00A
:103F0000100001002A6842E800100028F4D1286857
:103F1000C069C00602D5102029680862B5F858109B
:103F2000280003F0ECFC09E0280003F0CDFC05E0DC
:103F30002868008B50F0080029680883F1BD000054
:103F40000038014088100240004400400048004012
:103F50000024F4000080004001000800C0B20028E6
:103F600001D1012021E00800C0B2FF2801D10A20C0
:103F70001BE00800C0B2FE2801D1642015E0080053
:103F8000C0B2FD2802D14FF47A700EE00800C0B232
:103F9000FC2802D142F2107007E00800C0B2FB28F2
:103FA00002D1DFF8980300E0012070472DE9F24FBD
:103FB00082469346002000210A260027B046B946D3
:103FC000009A1588BBF1000F08D5DBF100042D2005
:103FD0002A0092B20AF802006D1C00E05C46200044
:103FE000002142464B4604F03BFA002901D100284B
:103FF00008D0A6FB080106FB091107FB0811804643
:104000008946ECE7404649460A22002304F028FA94
:1040100006000F00002F01D1002E28D02000002123
:1040200032003B0004F01CFA3030290089B20AF853
:1040300001006D1CA0465FF0000920000021320045
:104040003B0004F00DFAA6FB002306FB013307FB3F
:104050000033B8EB020079EB0301040030003900B3
:104060000A22002304F0FCF906000F00D2E70098B2
:1040700005802800C0B2BDE8F28F2DE9FE4F060092
:104080000F0090460020ADF8000000200024002121
:104090005FF0000BB7F80090B8F1000F02D5D8F12F
:1040A000000500E04546424639003000FFF77EFF3C
:1040B000B7F800A0002D4FD09DF80800FFF74CFF87
:1040C00001008D4205D20A2045431BF1010B002D52
:1040D000F7D15846C0B2002821D050460200D2B2D3
:1040E000324412F8012C2D2A06D00200D2B24B46DF
:1040F00092B29BB29A4208D130220300DBB2F25452
:104100001AF1010ABBF1010BE3E70200D2B232441B
:1041100012F8012C0300DBB2F254401EDEE70A2045
:10412000B1FBF0F450468346002C15D00A20B4FBB6
:10413000F0F45846C0B2304410F8010C5946C9B2E8
:104140007054BBF1010B002CEED12E205946C9B2A0
:1041500070541AF1010AE7E7A7F800A05046C0B270
:10416000BDE8FE8FF0B4049C00252E00B6B2A64236
:104170000BD20E88771C0F802F00BFB217FA83F77F
:10418000D75DB6B287556D1CEFE7F0BC70470000F5
:104190002DE9F34F81B02DED028B9FED658A002450
:1041A00001250026F7EE008A00273800C0B220283B
:1041B00064DA0398F84010F0010004003800C0B23F
:1041C000172829DA18EE900AFDF7BAFE82468B46C8
:1041D0002000C0B2FDF7D8FE804689463800C0B244
:1041E000D0F117005FF0FF31484303F03BFB41EC97
:1041F000110B9FED500BFDF7DCFE51EC100B42460E
:104200004B4604F047FA52465B4604F015FBFDF7B7
:10421000FDFF08EE900A2FE03800C0B21F2824DA14
:104220003000C0B2FDF7B0FE82468B462000C0B21F
:10423000FDF7AAFE804689463800C0B2173803F061
:1042400011FB41EC110B9FED3B0BFDF7B2FE51EC66
:10425000100B42464B4604F01DFA52465B4604F0F2
:10426000EBFA04F0A7FB060006E02000C0B201282C
:1042700002D15FF0FF3005007F1C96E7280040B2B6
:1042800003F0F0FA804689463000C0B27F3803F070
:10429000E9FA41EC110B9FED270BFDF78AFE51EC7B
:1042A000100B42464B4604F0F5F98046894618EE5D
:1042B000900AFDF745FE42464B4604F0EBF9FDF748
:1042C000A5FF00EE100A049880ED000ABDEC028BF9
:1042D000BDE8F78F70B40300002200240020002501
:1042E0002A000E00D2B2F6B2B2421FD22A00D2B2D7
:1042F0009A5C302A0ADB2A00D2B29A5C3A2A05DAA2
:104300002A00D2B29A5C303A140001E00022140074
:104310002A00D2B2002A03D12200D2B2100003E058
:104320000A22504350FA84F06D1CD9E770BC7047E4
:10433000000000000000000000000040A086010016
:1043400010B42DED010A00206A460023042B07D289
:10435000D45C1900C9B2C9008C4020435B1CF5E74E
:1043600012BC70472DE9F74F82B000265FF0000ABB
:104370005FF0000B54465D46002000900127DDF8F9
:104380000C80DDF80890049810F0070F2BD10498EA
:10439000C008002182468B4604F082FB4FF47A70FD
:1043A00004F096FB00200600300080B20021594541
:1043B00017D801D3504514D2D8E9000104000D00EC
:1043C00022002B004946002004F012FB07003800B1
:1043D000C0B2012805D019F1080918F10808761CA7
:1043E000E2E704F06EFB3800C0B205B0BDE8F08F24
:1043F00070B50400012504F053FB06004FF47A70F9
:1044000004F066FB3000C0B200280FD1C4F3CC200A
:10441000B0F5807F05D20121C4F3CC2004F0C4FBA9
:1044200004E00121C4F3CC2004F0BEFB4FF47A7009
:1044300004F04EFB05000548016831F002010160FF
:1044400004F03FFB2800C0B270BD00001420024001
:104450002DE9F041C0B004000D00160000274FF414
:1044600080710022E8464046FCF7AAFF2000FFF7D3
:10447000BFFFA5208DF8000030008DF801005FF02F
:1044800000084046310080B289B288420AD24046D4
:1044900080B2285C6946424692B21144887018F195
:1044A0000108EEE7B61C300080B20821B6B208362B
:1044B000361A90FBF1F001FB0066320092B26946B9
:1044C0002000FFF74FFF002801D0002000E001206E
:1044D00040B0BDE8F081000002000020704730B419
:1044E0000200DFF8940700230468858863558388F9
:1044F0005B1C8380DFF884371B78046885886355EC
:1045000083885B1C8380012030BC7047F8B50400B1
:104510000D00002000212E0022683300DBB2D25CA7
:1045200023683700FFB23B445F7857EA02273A001E
:1045300092B2B2F5807F23DA380080B200281FD013
:10454000DFF8340721683200D2B2895C02688388C0
:10455000D1548188491C818021683200D2B2114433
:10456000497802688388D1548188491C8180DFF8AA
:104570000C0741783800C0B200F084F9012000E057
:104580000020F2BD30B40200DFF8EC06002304681E
:104590008588635583885B1C8380DFF8E0365B7811
:1045A00004688588635583885B1C8380012030BC48
:1045B0007047F8B504000D00002000212E0022688D
:1045C0003300DBB2D25C23683700FFB23B445F7834
:1045D00057EA02273A0092B20B2A1FDADFF8980650
:1045E00021683200D2B2895C02688388D154818804
:1045F000491C818021683200D2B211444978026896
:104600008388D1548188491C81803900C9B2DFF880
:104610006C06007800F036F9012000E00020F2BDC1
:10462000F8B504000D000026DFF8540690ED040AEA
:10463000FFF786FE0100DFF840060A00120A036851
:104640008788DA558288521C828002688388D15418
:104650008288521C82800A00120E03688788DA550D
:104660008288521C82800A00120C03688788DA55FF
:104670008288521C82800120F2BDF8B504000D0032
:104680000026DFF8FC0590ED060AFFF759FE010051
:10469000DFF8E4050A00120A03688788DA55828881
:1046A000521C828002688388D1548288521C828086
:1046B0000A00120E03688788DA558288521C8280AD
:1046C0000A00120C03688788DA558288521C82809F
:1046D0000120F2BDF8B504000D000026DFF8A005AA
:1046E00090ED050AFFF72CFE0100DFF88C050A00AB
:1046F000120A03688788DA558288521C8280026811
:104700008388D1548288521C82800A00120E03686A
:104710008788DA558288521C82800A00120C03684E
:104720008788DA558288521C82800120F2BDF8B554
:1047300004000D000026DFF84C0590ED010AFFF79C
:10474000FFFD0100DFF830050A00120A03688788C0
:10475000DA558288521C828002688388D15482880C
:10476000521C82800A00120E03688788DA558288FC
:10477000521C82800A00120C03688788DA558288EE
:10478000521C82800120F2BD2DE9F84304000D0087
:104790000026002000900027A84620684146C9B2A4
:1047A0000844817820684246D2B21044C07850EA6A
:1047B000012021684246D2B2895C22684346DBB2BE
:1047C0001A4492F8019059EA012959EA0049DFF8A0
:1047D000A80421684246D2B2895C02688388D15419
:1047E0008188491C818021684246D2B211444978AF
:1047F00002688388D1548188491C8180216842469F
:10480000D2B21144897802688388D1548188491CC6
:10481000818021684246D2B21144C97802688388F7
:10482000D1548188491C818069464846FFF7B0FC15
:10483000DFF8500400994160012101700521DFF883
:104840004804FCF7A2FD0120BDE8F28370B5040026
:104850000D00DFF83864012220213000FDF747F910
:104860000A20FEF781FB4FF47A732A0092B22100EE
:10487000DFF81C04FEF7C9FB002220213000FDF701
:1048800036F970BD7CB504000D00082100226E468B
:104890003000FCF795FD0026DFF8E003047045705A
:1048A000694602783300DBB2CA54761C4078320085
:1048B000D2B28854761C3200D2B292B26946DFF886
:1048C000D403FFF7C5FD73BDDFF8C8030078C0B29D
:1048D000FF280AD0DFF8A403DFF8BC1309780170C1
:1048E000DFF8B8130978417005E0DFF89003012183
:1048F00001700321417070472DE9F04F87B004002B
:1049000000275FF000085FF000090025DFF8902322
:10491000D2E90001CDE902010026DFF88823D2E9BF
:104920000001CDE90401DFF850A35046FEF756FA26
:10493000A0880828C0F29B812068A188084410F84C
:10494000010C2168A288114411F8021C51EA0021CF
:10495000ADF81810A188891E2068FCF764FDADF839
:104960001A00BDF81A00BDF81810884240F07D8189
:1049700020680078C1490978884240F07681206833
:1049800080782168CF7857EA00272068407803288C
:1049900005D006286CD0102800F0C38061E12068A3
:1049A00000792168497951EA00210D005FF0010882
:1049B0004046C0B2072836DA5FF01409DFF8E8B2E3
:1049C0004046C0B209FB00F058444068390089B243
:1049D000884225D1280080B24146C9B209FB01F1C5
:1049E0005944896888421BDB002100204246D2B22C
:1049F00009FB02F25A44D268904701280FD1404681
:104A0000C0B209FB00F0584480682D1A4046C0B27D
:104A100009FB00F90BEB09008068C71900E002E010
:104A200018F10108C4E7BAF8040000281FD0BAF84A
:104A30000400022190FBF1F201FB1200002816D1C4
:104A4000DAF800000190BAF80400022190FBF1F0BE
:104A500080B200903B009BB203222068017804A83A
:104A6000FCF7C1FDBDF814100498FFF7EFFEFAE063
:104A700004200100C9B2A288921E91420EDA216878
:104A80000200D2B2895C029ABDF80C30D154BDF854
:104A90000C10491CADF80C10401CEAE75FF001084F
:104AA0004046C0B2072817DA14227F4B4046C0B2F6
:104AB000504318444068390089B2884209D1002126
:104AC00002A8C4465FFA8CFC02FB0CF21A4412697D
:104AD000904718F10108E3E7BAF8040000281FD056
:104AE000BAF80400022190FBF1F201FB1200002849
:104AF00016D1DAF800000190BAF80400022190FB08
:104B0000F1F080B200903B009BB206222068017851
:104B100004A8FCF7B9FDBDF814100498FFF796FE41
:104B2000A1E000200600206800792168497951EA57
:104B300000210D0007200100C9B2A288921E9142F7
:104B40000EDA21680200D2B2895C029ABDF80C30FC
:104B5000D154BDF80C10491CADF80C10401CEAE70C
:104B6000280080B240002168897988424DD1BDF883
:104B70000C002168897989B2884246D15FF001082A
:104B80004046C0B2072840DA5FF01409DFF818B1D8
:104B90004046C0B209FB00F058444068390089B271
:104BA00088422FD1280080B24146C9B209FB01F1E9
:104BB00059448968884225DB310089B202A84246FF
:104BC000D2B209FB02F25A4412699047012818D167
:104BD0004046C0B209FB00F058448068400010FA1B
:104BE00086F64046C0B209FB00F0584480682D1A92
:104BF0004046C0B209FB00F90BEB09008068C719F9
:104C000000E002E018F10108BAE7BAF80400002851
:104C100026D0BAF80400022190FBF1F201FB120049
:104C200000281DD1206880782168C97851EA0021C8
:104C30000F00DAF800000190BAF80400022190FB9E
:104C4000F1F080B200903B009BB210222068017806
:104C500004A8FCF719FDBDF814100498FFF7F6FD41
:104C600001E0002004E0012002E0002000E000203C
:104C700007B0BDE8F08F000038050020880A00204A
:104C800084250020682600208005002000040048BC
:104C9000481F00200000020802000208030002086A
:104CA000DCE20008E4E200088004002062B38B0725
:104CB00008D0521E11F8013B00F8013B00F024809F
:104CC0008B07F6D1830740F0208000BF103A07D34E
:104CD00030B4B1E83810103AA0E83810F9D230BC3E
:104CE000530724BFB1E80810A0E8081044BF51F8EA
:104CF000043B40F8043BD20724BF31F8022B20F8D4
:104D0000022B44BF0B7803707047121F17D35B0050
:104D100009D151F8043B20F8023B1B0C121F20F86C
:104D2000023BF6D20BE051F8043B00F8013B1B0AB2
:104D300020F8023B1B0C121F00F8013BF3D238BFD6
:104D4000121D521E24BF11F8013B00F8013BF8D898
:104D50007047000001480068704700BF84260020AB
:104D600080B503F071FF00F011F803F07FFF04F04D
:104D700065F8FCF7DDFE04F091F804F037F9FCF774
:104D8000F3FEFCF70FFF04F017FAFEE710B596B03C
:104D90004421002205AC2000FCF712FB1421002264
:104DA0006C462000FCF70CFB4FF4007004F0E0FBB5
:104DB000002801D000F033F81820059001200A9057
:104DC00001200B9000200C9060200D9002200F908D
:104DD000012010900120119028201290072013909C
:104DE000022014900220159005A802F03BFE002836
:104DF00001D000F014F80F20009003200190002053
:104E0000029000200390002004900421684603F0E3
:104E10006DF9002801D000F002F816B010BD72B68E
:104E2000FEE710B5044610460A4601462046FCF748
:104E3000C7FA204610BD00002DE9F84F05005FF0CD
:104E4000000800272868000527D5686C00280DD0C9
:104E5000B0F5000F03D0B0F5400F0DD00DE0DFF836
:104E60002403016851F48031016008E00021281D0D
:104E700000F092F9804602E001E0012080464046C1
:104E8000C0B2002808D1DFF80C130A6832F44002DF
:104E9000686C02430A6000E04746286880037AD5C0
:104EA0005FF00009DFF8E0A2DAF80000C0000DD4DE
:104EB000DAF8000050F08050CAF80000DAF800007C
:104EC00010F080500090009801208146DFF8BCB2BD
:104ED000DBF8000050F48070CBF80000FFF73AFFD9
:104EE0000600DBF80000C00506D4FFF733FF801B87
:104EF0000328F6D3032080464046C0B200283FD1A5
:104F0000DFF88CB2DBF8000010F440700400002CD5
:104F100015D0E86D844212D0DBF8000030F4407008
:104F20000400DBF8000050F48030CBF80000DBF820
:104F3000000030F48030CBF80000CBF80040E007F0
:104F40000FD5FFF707FF0600DBF80000800708D445
:104F5000FFF700FF801B41F289318842F4D3032020
:104F600080464046C0B2002808D1DBF8001031F47A
:104F70004071E86D0143CBF8001002E0474600E0C5
:104F800047464846C0B2012805D1DAF8000030F0A3
:104F90008050CAF800002878C00707D5DFF8F41160
:104FA0000A6892089200286A02430A6028788007FB
:104FB00007D5DFF8E0110A6832F00C02686A024394
:104FC0000A602878400707D5DFF8C8110A6832F070
:104FD0003002A86A02430A602878800607D5DFF805
:104FE000B4110A6832F44062E86A02430A60286831
:104FF000800507D5DFF89C110A6832F44022E86B7F
:1050000002430A602868400507D5DFF888110A685E
:1050100032F44012286C02430A602878400607D513
:10502000DFF870110A6832F44052286B02430A60BC
:105030002878000607D5DFF85C110A6832F4404290
:10504000686B02430A602868C00507D5DFF8441181
:105050000A6832F44032A86B02430A602868800470
:1050600020D5DFF830110A6832F04062A86C0243A4
:105070000A60A86CB0F1006F06D1DFF80801016882
:1050800051F4801101600DE0A86CB0F1806F09D17E
:105090000121281D00F080F880464046C0B200285B
:1050A00000D047462868000320D5DFF8E8100A68DA
:1050B00032F04062E86C02430A60E86CB0F1006FC5
:1050C00006D1DFF8C000016851F4801101600DE0E5
:1050D000E86CB0F1806F09D10121281D00F05CF867
:1050E00080464046C0B2002800D0474628684003AA
:1050F00020D5DFF8A0100A6832F04062286D024324
:105100000A60286DB0F1006F06D1DFF87800016801
:1051100051F4801101600DE0286DB0F1806F09D16C
:105120000121281D00F038F880464046C0B2002812
:1051300000D047462868400415D5DFF858100A68A3
:1051400032F04052686D02430A60686DB0F1805FD2
:1051500009D10221281D00F01FF880464046C0B248
:10516000002800D047462868000407D5DFF824103F
:105170000A6832F08042A86D02430A603800C0B26B
:10518000BDE8F28F0C100240581002400070004041
:1051900090100240881002402DE9F04105000C00FB
:1051A00000275949086810F0030F12D0086810F062
:1051B00003002A68904209D12868002806D00868B0
:1051C000C0F30210401C6968884232D001200700F9
:1051D0002FE02868012804D01BD303280FD007D361
:1051E00017E04A480068800701D40120070012E058
:1051F00046480068400501D4012007000BE0434801
:105200000268920304D40068400301D4012007001F
:1052100001E0012007003800C0B2002809D10A6867
:1052200032F07302286802436868401E52EA001296
:105230000A603800C0B2002861D1DFF8D080D8F809
:10524000000030F08060C8F80000FFF783FD060022
:10525000D8F80000000106D5FFF77CFD801B03286D
:10526000F6D3032007003800C0B2002847D1002C35
:105270000BD127490A6827480240A86852EA002251
:10528000E86852EAC0620A601CE0012C0DD1204996
:105290000A6821480240A86852EA002228694008AA
:1052A000401E52EA40520A600CE019490A681B4845
:1052B0000240A86852EA002268694008401E52EA8B
:1052C00040620A60D8F8000050F08060C8F8000022
:1052D000FFF740FD0600D8F80000000106D4FFF7F4
:1052E00039FD801B0328F6D3032007003800C0B225
:1052F000002804D106490A68A86902430A603800F8
:10530000C0B2BDE8F08100000C1002400010024065
:1053100010100240FF80FF07FF809FFFFF80FFF912
:1053200030B40100002901D1012067E00868624A19
:1053300090420AD20A68614882181420B2FBF0F049
:10534000800048645E48086409E00A685D48821885
:105350001420B2FBF0F0800048645B48086402202F
:1053600081F82500086802686FF30E128B68C86820
:105370000343086903434869034388690343C869D1
:105380000343086A03431A43086802608868B0F55B
:10539000804F2AD0086C4A4B984213D14B4803687F
:1053A0000F2491F8445015F01C05AC40A343036052
:1053B00003684C6891F8445015F01C05AC40234339
:1053C000036012E0424803680F2491F8445015F03E
:1053D0001C05AC40A343036003684C6891F844503B
:1053E00015F01C05AC40234303600020C863012076
:1053F00081F82500002081F82400002030BC70478F
:1054000010B40100002901D1012053E008680068B0
:10541000400840000A6810600868274A90420AD293
:105420000A68264882181420B2FBF0F08000486415
:105430002348086409E00A68224882181420B2FB55
:10544000F0F0800048642048086400200A6810607A
:10545000012091F8442012F01C0290400A6C506028
:10546000086C174A90420AD1184802680F2391F835
:10547000444014F01C04A3409A43026009E014481D
:1054800002680F2391F8444014F01C04A3409A438F
:1054900002600020C86200200863002048630020EA
:1054A00088630020C863002081F82500002081F86F
:1054B0002400002010BC704708040240F8FFFDBF24
:1054C00000000240F8FBFDBF00040240A8000240BB
:1054D000A80402402DE9F04104000D0016001F0051
:1054E0005FF0000894F82400012801D102203BE07D
:1054F000012084F8240094F8250001282DD10220F1
:1055000084F825000020E06320680068400840001F
:10551000216808603B0032002900200000F0F8F804
:10552000206B002806D02068006850F00E0021682B
:1055300008600BE02068006830F004002168086013
:105540002068006850F00A00216808602068006840
:1055500050F001002168086004E0002084F8240075
:10556000022080464046C0B2BDE8F0810100002222
:1055700091F82500022806D00420C863002081F895
:10558000240001201BE00868006830F00E000B6862
:10559000186008680068400840000B681860012027
:1055A00091F8443013F01C0398400B6C58600120B4
:1055B00081F82500002081F824001000C0B2704757
:1055C00038B50400002594F82500022804D00420F2
:1055D000E063012005001FE02068006830F00E0045
:1055E0002168086020680068400840002168086061
:1055F000012094F8441011F01C018840216C48608F
:10560000012084F82500002084F82400A06B0028E5
:1056100002D02000A16B88472800C0B232BD70B50F
:105620000400206C056820680668042094F8441083
:1056300011F01C0110FA01F10D4219D0710717D5B4
:1056400021680968890605D42168096831F00401D8
:105650002268116094F8441011F01C018840216CFC
:105660004860206B002852D02000216B88474EE014
:10567000022094F8441011F01C0110FA01F10D42BF
:105680001FD0B1071DD521680968890608D4216893
:10569000096831F00A0122681160012184F825109F
:1056A00094F8441011F01C018840216C48600020DF
:1056B00084F82400E06A002829D02000E16A8847A5
:1056C00025E0082094F8441011F01C0188400542A0
:1056D0001DD030071BD52068006830F00E0021680F
:1056E0000860012094F8441011F01C018840216CDE
:1056F00048600120E063012084F82500002084F840
:105700002400606B002802D02000616B884770BDC8
:1057100030B4012490F8445015F01C05AC40056CE1
:105720006C60046863608468102C04D10468A26013
:105730000468E16003E00468A1600468E26030BCD2
:105740007047000010B410F00703DFF868412268CA
:105750004FF6FF010A40DFF8601151EA03210A43C6
:10576000226010BC7047DFF84C010068C0F30220D3
:1057700070470000010049B200290AD4012210F04C
:105780001F018A40DFF8341103005BB25B0941F866
:1057900023207047010049B200290DD4012210F0E6
:1057A0001F018A40464903005BB25B0941F8232090
:1057B000BFF34F8FBFF36F8F704710B4020052B228
:1057C000002A05D40A013F4B040064B21A5508E0D0
:1057D0000A013D4B040064B214F00F04234403F8A3
:1057E000042C10BC704770B4030013F00704D4F10C
:1057F0000700052801D3042001E0D4F10700251D8E
:10580000072D01D2002500E0E51E012616FA00F062
:10581000401E0140A94016FA05F56D1E2A401143AD
:10582000080070BC704710B50400601EB0F1807FA6
:1058300001D301200EE0601E244908600F215FF0B3
:10584000FF30FFF7BAFF00202149086007202149F7
:105850000860002010BD10B504002000FFF772FFA3
:1058600010BD2DE9F04104000D0016000027FFF7E0
:105870007AFF8046320029004046FFF7B4FF01005E
:10588000200040B2FFF799FFBDE8F08110B5040099
:10589000200040B2FFF76EFF10BD10B504002000DD
:1058A00040B2FFF777FF10BD10B504002000FFF7EE
:1058B000BAFF10BD0CED00E00000FA0500E100E0C9
:1058C00080E100E000E400E018ED00E014E000E01A
:1058D00018E000E010E000E02DE9F04D2DED0A8B1E
:1058E00041EC190B43EC182B51EC180B20F0000481
:1058F00031F0004508BF002C84B000F0088353EC61
:10590000192B0020DFF88C1603F076FE00F0FF82E2
:10591000DFF8141603F070FE08D151EC180B4800A4
:105920004015401C02D1090300F0F18251EC190B23
:1059300048004015401C00F00E8251EC190B31F06C
:10594000004108BF002800F0068251EC180B480007
:105950004015401C00F0FF8151EC180B4B0043EA4E
:10596000D0734200002B08BF002A04D1B0EE48AA31
:10597000F0EE68AA19E040F23344A4EB5352352A02
:1059800004DB00F0000001F000410CE0202A03DD00
:10599000203AD140914000E001D1002003E0002AEC
:1059A000C4BFD040904041EC1A0B51EC190BC80F0A
:1059B0000BD053EC182B51EC1A0B03F01DFE04D046
:1059C000AFF300809FED3F9BA3E253EC192B23F034
:1059D0000041B1F5801F22F000000DD20022002905
:1059E00008BF0028009216D06A4651EC190B03F04C
:1059F00013FE41EC190B0EE0DFF8AC45DFF82C7517
:105A000004EB115000903B40DFF82405924643EA36
:105A1000000B4BEC19AB51EC190BC80F36D021F031
:105A2000004053EC192B034643EC192B51EC1A0B95
:105A30004B0043EAD0734200002B08BF002A04D178
:105A4000B0EE4A0AF0EE6A0A19E040F23444A4EBE0
:105A50005352352A04DB00F0000001F000410CE055
:105A6000202A03DD203AD140914000E001D10020FE
:105A700003E0002AC4BFD040904041EC100B53EC2F
:105A80001A2B51EC100B03F0B7FD01D1002600E0FA
:105A90000126009801281DD151EC190BDFF8942440
:105AA000DFF8943403F0F0FD14D253EC192B0020EE
:105AB0004FF0804102F0EEFD00279FED04BB41EC6A
:105AC000190B27E0FFFFFFFFFFFFFF7F0000000033
:105AD0000000F03F53EC192B0020DFF8601402F0B7
