:020000040800F2
:10000000D82C0020C1F500084DEF00084FEF000884
:1000100051EF000853EF000855EF00080000000002
:1000200000000000000000000000000057EF000882
:1000300059EF0008000000005BEF00085DEF0008CA
:1000400015F9000819F900081DF9000821F9000840
:1000500025F9000829F900082DF9000831F90008F0
:1000600035F9000839F900083DF9000841F90008A0
:1000700045F90008ADEF000849F90008B7EF00089E
:100080004DF9000851F9000855F9000859F9000820
:100090005DF9000861F9000865F9000869F90008D0
:1000A0006DF9000871F9000875F9000879F9000880
:1000B0007DF90008000000000000000081F9000840
:1000C00085F9000889F900088DF9000891F9000800
:1000D00095F90008C1EF000899F90008CBEF000876
:1000E0009DF90008D5EF00080000000000000000A6
:1000F0000000000000000000000000000000000000
:1001000000000000A1F9000800000000A5F90008A7
:100110000000000000000000A9F90008ADF9000887
:10012000B1F90008B5F90008B9F90008BDF90008EF
:10013000C1F90008000000000000000000000000FD
:10014000C5F90008C9F90008CDF90008D1F900087F
:10015000D5F90008DFEF0008E9EF0008D9F9000839
:10016000DDF90008E1F90008E5F9000800000000E9
:10017000E9F90008EDF90008F1F9000800000000B5
:10018000F5F90008F9F90008FDF9000880B55448B0
:100190000078012806D0022807D0042808D00828B3
:1001A00009D00BE000F0A0F808E000F089FE05E0BF
:1001B00001F058F802E001F01BFAFFE701BD2DE95C
:1001C000F0470024474D2888002804D02888401E86
:1001D0002880002081E0424E307A00287CD1202106
:1001E000DFF8BC0C01F0F6FE002801D1012700E089
:1001F0000027DFF8B08C0421404601F0EBFE002818
:1002000002D15FF0010901E05FF0000902214046E0
:1002100001F0E0FE002802D15FF0010A01E05FF08A
:10022000000A0121404601F0D5FE002801D101203D
:1002300000E0002057EA490757EA8A073C0054EAE1
:10024000C0042000C0B2012805D0022803D0042831
:1002500001D0082836D17068401C70607068502842
:100260002FD3347001203072DFF83C1C086814284A
:1002700001D219202880DFF8340C22000378D2B292
:100280009A4219D10A68521C0A600A681E2A02D2D0
:100290000021716014E00A68B42A02D24121716021
:1002A0000EE00A68F02A02D24621716008E04E2270
:1002B0007260F0220A6003E00022726000220A608D
:1002C000047009E00020DFF8E41B0870282070604B
:1002D0000020DFF8D41B08603078BDE8F08700000C
:1002E000E0270020B4280020F8B584B0DFF8C04B28
:1002F000A078002817D001283AD002286AD0032815
:1003000000F0FB80042800F07F81052800F0308297
:10031000062800F0B482072800F07F83092800F047
:10032000868400F0BBBDDFF88C5B0020E860DFF85E
:10033000886B0A220021300001F0D2FE302030709C
:10034000302070703020B0703020F070E86800010C
:10035000801CC0B2039002960520019004200090FA
:10036000052300220121A01C02F0B0FC00F096BD84
:10037000DFF8400BC168491CC160C16804291EDB5D
:10038000DFF8340B02F0BDFC012815D1A51C0622B4
:10039000290014F1080001F0F1FEF1200390002083
:1003A00002900C20019007200090072300220221D8
:1003B000280002F08BFC0BE00020A07008E0C06871
:1003C0000001801C0200D2B20021A01C02F05BFCE4
:1003D00000F064BD207907280AD0C0F08C8009287D
:1003E00032D01BD30B285BD044D30C286ED082E0D4
:1003F000A51C0622290014F1080001F0BFFEF1201F
:100400000390002002900F2001900E2000900E23F8
:1004100000220321280002F059FC6CE0A51C0622F2
:10042000290014F1080001F0A9FEF120039000203A
:100430000290142001901220009012230022042127
:10044000280002F043FC56E0A51C0622290014F106
:10045000080001F093FEF120039000200290172085
:10046000019016200090162300220521280002F09A
:100470002DFC40E0A51C0622290014F1080001F023
:100480007DFEF1200390002002901B200190192096
:100490000090192300220621280002F017FC2AE010
:1004A000A51C0622290014F1080001F067FEF120C6
:1004B000039000200290202001901D2000901D2319
:1004C00000220721280002F001FC14E0A51C0622EE
:1004D000290014F1080001F051FE002003900020D3
:1004E0000290232001902320009023230022082142
:1004F000280002F0EBFB00F0D1BC20790E2802D0DE
:100500000F2840D07EE0E078002802D001281FD0DC
:1005100038E0A61C0622310014F1080001F02EFE7E
:10052000DFF89059F220039015F10C0002900F2093
:1005300001900E2000900E23E278521CD2B20321CB
:10054000300002F0C3FBDFF874094078E86019E07E
:10055000A51C0622290014F1080001F00FFEF0206E
:100560000390002002902620019026200090262350
:1005700000220921280002F0A9FB0120DFF83C1924
:100580000870FFE73EE0E078002802D001281FD085
:1005900038E0A61C0622310014F1080001F0EEFD3F
:1005A000DFF81059F220039015F10C0002900F2093
:1005B00001900F2000900F23E278521CD2B2032149
:1005C000300002F083FBDFF8F4084068E86019E0CF
:1005D000A51C0622290014F1080001F0CFFDF0202F
:1005E00003900020029026200190262000902623D0
:1005F00000220921280002F069FB0120DFF8BC1865
:100600000870FFE700F04ABC2079122806D0C0F03D
:10061000AE80142800F08E8046D3A8E0E078002851
:1006200002D001281FD03EE0A61C0622310014F1A2
:10063000080001F0A3FDDFF87C58F220039015F1CB
:100640000C00029014200190122000901223E278F6
:10065000521CD2B20421300002F038FBDFF85C08F3
:10066000C068E8601FE0A51C0622290014F10800FC
:1006700001F084FDF02003900020029026200190DC
:1006800026200090262300220921280002F01EFBCC
:10069000DFF8C81BDFF81C08C068088002220320AE
:1006A00003F0B1F8FFE762E0E078002802D001280B
:1006B0001FD03EE0A61C0622310014F1080001F014
:1006C0005DFDDFF8F057F220039015F10C00029069
:1006D00014200190122000901323E278521CD2B211
:1006E0000421300002F0F2FADFF8D007C068E860B9
:1006F0001FE0A51C0622290014F1080001F03EFDB0
:10070000F0200390002002902620019026200090E7
:10071000262300220921280002F0D8FADFF83C1B2A
:10072000DFF89007C06808800222042003F06BF80D
:10073000FFE71CE0A51C0622290014F1080001F0C7
:100740001DFDF0200390002002902620019026201D
:100750000090262300220921280002F0B7FADFF8D2
:10076000FC1A002008800222052003F04CF895E3D3
:100770002079162802D0172840D07FE0E0780028A2
:1007800002D001281FD038E0A61C0622310014F147
:10079000080001F0F3FCDFF81C57F220039015F17C
:1007A0000C00029017200190162000901623E2788A
:1007B000521CD2B20521300002F088FADFF8FC06A4
:1007C000C069E86019E0A51C0622290014F10800A0
:1007D00001F0D4FCF020039000200290262001902C
:1007E00026200090262300220921280002F06EFA1C
:1007F0000120DFF8C8160870FFE73FE0E078002826
:1008000002D001281FD038E0A61C0622310014F1C6
:10081000080001F0B3FCDFF89C56F220039015F1BC
:100820000C00029017200190162000901723E27808
:10083000521CD2B20521300002F048FADFF87C06E3
:10084000006AE86019E0A51C0622290014F10800DE
:1008500001F094FCF02003900020029026200190EB
:1008600026200090262300220921280002F02EFADB
:100870000120DFF848160870FFE7FFE70EE3207954
:10088000192806D0C0F0C8801B2800F0858043D30B
:10089000C2E0E078002802D0012822D03BE0A71C6B
:1008A0000622390014F1080001F068FCDFF8045654
:1008B00015F10C06F220039002961B2001901920DE
:1008C00000901923E278521CD2B20621380002F0BF
:1008D000FDF9DFF88C090078E860DFF8E005466391
:1008E00019E0A51C0622290014F1080001F046FCBD
:1008F000F0200390002002902620019026200090F6
:10090000262300220921280002F0E0F90120DFF867
:10091000AC150870FFE77FE0E078002802D00128DE
:100920001FD038E0A61C0622310014F1080001F0A7
:1009300025FCDFF88055F220039015F10C000290A1
:100940001B200190192000901A23E278521CD2B289
:100950000621300002F0BAF9DFF86005C06AE860ED
:1009600019E0A51C0622290014F1080001F006FC7C
:10097000F020039000200290262001902620009075
:10098000262300220921280002F0A0F90120DFF827
:100990002C150870FFE73FE0E078002802D001281E
:1009A0001FD038E0A61C0622310014F1080001F027
:1009B000E5FBDFF80055F220039015F10C000290E2
:1009C0001B200190192000901B23E278521CD2B208
:1009D0000621300002F07AF9DFF8E004006BE860ED
:1009E00019E0A51C0622290014F1080001F0C6FB3D
:1009F000F0200390002002902620019026200090F5
:100A0000262300220921280002F060F90120DFF8E6
:100A1000AC140870FFE7FFE740E220791D2809D0F9
:100A2000C0F004811F2800F0858043D3202800F007
:100A3000C080FBE0E078002802D001281FD038E019
:100A4000A61C0622310014F1080001F097FBDFF824
:100A50006454F220039015F10C00029020200190C4
:100A60001D2000901D23E278521CD2B207213000D5
:100A700002F02CF9DFF84404806BE86019E0A51C53
:100A80000622290014F1080001F078FBF020039001
:100A9000002002902620019026200090262300228C
:100AA0000921280002F012F90120DFF81014087063
:100AB000FFE7BBE0E078002802D001281FD038E033
:100AC000A61C0622310014F1080001F057FBDFF8E4
:100AD000E453F220039015F10C00029020200190C5
:100AE0001D2000901E23E278521CD2B20721300054
:100AF00002F0ECF8DFF8C403C06BE86019E0A51C55
:100B00000622290014F1080001F038FBF0200390C0
:100B1000002002902620019026200090262300220B
:100B20000921280002F0D2F80120DFF890130870A4
:100B3000FFE77BE0E078002802D001281FD037E0F3
:100B4000A61C0622310014F1080001F017FBDFF8A3
:100B50006453F220039015F10C00029020200190C4
:100B60001D2000901F23E278521CD2B207213000D2
:100B700002F0ACF8DFF84403006CE86018E0A51C54
:100B80000622290014F1080001F0F8FAF020039081
:100B9000002002902620019026200090262300228B
:100BA0000921280002F092F80120C4490870FFE7EB
:100BB0003CE0E078002802D001281DD035E0A61CDA
:100BC0000622310014F1080001F0D8FAB94DF220E4
:100BD000039015F10C000290202001901D20009040
:100BE0002023E278521CD2B20721300002F06EF8C6
:100BF000B248406CE86018E0A51C0622290014F1F8
:100C0000080001F0BBFAF02003900020029026209B
:100C1000019026200090262300220921280002F0BE
:100C200055F80120A5490870FFE7FFE736E1207A73
:100C300003280AD0C0F03181052838D0C0F02A81BD
:100C4000072800F0B28069D327E1322001F0E8FCE8
:100C500003209A490870A07A0E2802D00F2809D0E4
:100C600024E0DFF86C0941789248C068C0B203F014
:100C7000A0FE1BE000200100C9B20B290FDADFF84B
:100C800054190200D2B251F822108A4AD268914215
:100C900003D1DFF83C19487001E0401CEBE7DFF8B6
:100CA00030094178007803F084FEFFE7F5E0834DDA
:100CB00003202870322001F0B3FCA07A162802D05D
:100CC000172815D029E0287A04F088F800EE100AD9
:100CD000DFF80409D0ED060A764890ED031AB8EE65
:100CE000C11AB8EE400A81EE000A02F01EFE14E0BE
:100CF000687A04F073F800EE100A6E48D0ED030A2B
:100D0000F8EEE00AB8EE400AC0EE800ADFF8C80844
:100D100090ED050A02F009FEFFE7BEE0674D0320F3
:100D20002870322001F07CFCA07A192804D03BD333
:100D30001B2823D00CD337E0DFF82405D0ED020ABE
:100D400090ED010A5B48C068C0B202F0A7FE2BE03C
:100D5000A87A04F043F800EE100ADFF804055549BC
:100D6000D1ED030AF8EEE00AB8EE400AC0EE800AC0
:100D700090ED010A007802F091FE15E0A87A04F0E7
:100D80002DF800EE100ADFF8D804D0ED020A494928
:100D900091ED031AB8EEC11AB8EE400A81EE000ACE
:100DA000007802F07BFEFFE777E0444D03202870D7
:100DB000322001F035FCA07A1D2806D069D31F2807
:100DC00035D01BD320284BD063E0E87A04F006F836
:100DD00000EE100ADFF80408D0ED031A90ED021AB5
:100DE000D0ED010A334890ED032AB8EEC22AB8EEDE
:100DF000400A82EE000A02F019FF4AE0E87A03F0A6
:100E0000EDFF00EE100ADFF8D407D0ED031A90EDE5
:100E1000021A2849D1ED030AF8EEE00AB8EE400ABA
:100E2000C0EE800A90ED000A02F000FF31E0E87A9F
:100E300003F0D4FF00EE100ADFF8A007D0ED031A8C
:100E40001C49D1ED030AF8EEE00AB8EE400A80EE44
:100E5000801AD0ED010A90ED000A02F0E7FE18E0DA
:100E6000E87A03F0BBFF00EE100ADFF870071149C3
:100E7000D1ED030AF8EEE00AB8EE400AC0EE801A9F
:100E800090ED021AD0ED010A90ED000A02F0CEFEBC
:100E9000FFE702E002F0A8FCFFE7FFE705B0F0BDC6
:100EA00000080048000400486C280020C4280020E6
:100EB00028280020E0270020000000207C000020DF
:100EC00010B5DFF81C37987800280ED002281ED005
:100ED0000CD3042876D027D3062800F0F180C0F088
:100EE000BC80072800F04581B7E1B6E1DFF8F406E1
:100EF000DFF8F416CA68825C521CCB68C254CA6818
:100F0000825C3A2A02DB3022C9684254A5E1587952
:100F10001979884202D21879401E1871F1220021F5
:100F2000981C01F0B0FE98E1D87800280CD15879CF
:100F30001979884202D21879401E1871F1220021D5
:100F4000981C01F0A0FE3CE018790E2802D00F2872
:100F500012D036E0D878002802D0012801D00AE06B
:100F600009E0DFF88406C168B1F5807F02DAC16864
:100F7000491CC160FFE724E0D878002802D001288E
:100F800001D01EE01DE000210800C0B20B2817DAD6
:100F9000DFF84026DFF850060B00DBB252F82330B2
:100FA000C468A3420AD10B00DBB20A2B06DA0B009D
:100FB000DBB202EB83025268C26001E0491CE3E746
:100FC000FFE74AE1D87800280CD15879197988428E
:100FD00002D21879401E1871F1220021981C01F0EC
:100FE00052FE39E01879122804D035D3142833D0B2
:100FF00019D331E0D878002802D0012801D011E0BF
:1010000010E0DFF8E805007A03F0E8FEDFF8D82505
:10101000D3684FF47A714843834202D2D068401CAF
:10102000D060FFE718E0D878002802D0012801D06E
:1010300011E010E0DFF8B405007A03F0CFFEDFF82E
:10104000A825D3684FF47A714843834202D2D0680E
:10105000401CD060FFE7FFE7FFE0D87800280CD104
:1010600058791979884202D21879401E1871F122F4
:101070000021981C01F007FE21E01879162802D003
:1010800017280ED01BE0D878002802D0012801D004
:1010900006E005E0DFF85005C168491CC160FFE7C4
:1010A0000DE0D878002802D0012801D006E005E044
:1010B000DFF83405C168491CC160FFE7FFE7CCE0F9
:1010C000D87800280CD158791979884202D2187939
:1010D000401E1871F1220021981C01F0D4FD47E058
:1010E0001879192804D043D31B282DD013D33FE0FF
:1010F000D878002802D0012801D00BE00AE0DFF800
:10110000E814C868002802D10120C86001E000206E
:10111000C860FFE72CE0D878002802D0012801D071
:1011200011E010E0DFF8C404807A03F057FEDFF826
:10113000B824D3684FF47A714843834202D2D0680E
:10114000401CD060FFE713E0D878002802D00128C7
:1011500001D00CE00BE0DFF89004C168DFF88C24CC
:10116000D26A914202DAC168491CC160FFE7FFE719
:1011700073E0D87800280CD158791979884202D2C6
:101180001879401E1871F1220021981C01F07BFD96
:1011900062E018791D2806D05ED31F2830D01BD3FB
:1011A000202845D058E0D878002802D0012801D066
:1011B00011E010E0DFF83404C07A03F00FFEDFF82E
:1011C0002824D3684FF47A714843834202D2D0680E
:1011D000401CD060FFE73FE0D878002802D001280B
:1011E00001D00CE00BE0DFF80004C168DFF8FC235D
:1011F000926B914202DAC168491CC160FFE72BE0A3
:10120000D878002802D0012801D010E00FE0DFF8E4
:10121000DC03C07A03F0E2FDDFF8CC23D368502171
:101220004843834202D2D068401CD060FFE713E0FD
:10123000D878002802D0012801D00CE00BE0DFF8BC
:10124000A803C168DFF8A423126C914202DAC168D6
:10125000491CC160FFE7FFE7FFE710BDB62800208B
:101260005428002010B5DFF87833987800280ED085
:1012700002281ED00CD3042876D027D3062800F0ED
:10128000E180C0F0AC80072800F032819FE19EE150
:10129000DFF85003DFF8DC19CA68825C521ECB68A5
:1012A000C254CA68825C302A02DA3922C9684254C0
:1012B0008DE118799979884202D21879401C187109
:1012C000F1220021981C01F0DEFC80E1D878002892
:1012D0000CD118799979884202D21879401C18717A
:1012E000F1220021981C01F0CEFC3CE018790E2878
:1012F00002D00F2811D036E0D878002802D001287B
:1013000001D009E008E0DFF86C09C168012902DBBF
:10131000C168491EC160FFE725E0D878002802D0E7
:10132000012801D01FE01EE00A221000C0B20028F0
:1013300018D0DFF8A032DFF83C191000C0B253F823
:101340002000CC68A0420BD11000C0B2002807D00A
:101350001000C0B203EB800050F8040CC86001E03C
:10136000521EE2E7FFE732E1D87800280CD1187965
:101370009979884202D21879401C1871F122002113
:10138000981C01F080FC29E01879122804D025D39C
:10139000142823D011D321E0D878002802D00128C6
:1013A00001D009E008E0DFF8CC08C168012902DBC0
:1013B000C168491EC160FFE710E0D878002802D05C
:1013C000012801D009E008E0DFF8A808C168012978
:1013D00002DBC168491EC160FFE7FFE7F7E0D8788C
:1013E00000280CD118799979884202D21879401CCA
:1013F0001871F1220021981C01F045FC21E01879B8
:10140000162802D017280ED01BE0D878002802D06A
:10141000012801D006E005E0DFF85808C168491E40
:10142000C160FFE70DE0D878002802D0012801D084
:1014300006E005E0DFF83C08C168491EC160FFE72F
:10144000FFE7C4E0D87800280CD118799979884250
:1014500002D21879401C1871F1220021981C01F069
:1014600012FC44E01879192804D040D31B2827D057
:1014700013D33CE0D878002802D0012801D00BE03B
:101480000AE0DFF8F017C868002802D10120C86020
:1014900001E00020C860FFE729E0D878002802D0EA
:1014A000012801D00BE00AE0DFF8C8074F49096BBB
:1014B000C268914202DAC168491EC160FFE716E0C6
:1014C000D878002802D0012801D00FE00EE047486C
:1014D000807A03F083FCDFF89C2700214843D16821
:1014E000884202D2D068401ED060FFE7FFE76EE07E
:1014F000D87800280CD118799979884202D21879C5
:10150000401C1871F1220021981C01F0BCFB5DE029
:1015100018791D2806D059D31F282DD015D320287F
:101520003DD053E0D878002802D0012801D00BE04C
:101530000AE0DFF840072D49C96BC268914202DA20
:10154000C168491EC160FFE740E0D878002802D09A
:10155000012801D00FE00EE02448C07A03F03EFCE1
:10156000DFF8102700214843D168884202D2D068B2
:10157000401ED060FFE729E0D878002802D001287B
:1015800001D00BE00AE0DFF8EC061849496CC268AC
:10159000914202DAC168491EC160FFE716E0D878BF
:1015A000002802D0012801D00FE00EE00F48C07AD9
:1015B00003F014FCDFF8BC2600214843D1688842C0
:1015C00002D2D068401ED060FFE7FFE7FFE710BD02
:1015D000340C0020BC06002078270020382800208A
:1015E0002828002000000020E02700207C000020A8
:1015F0007FB5DFF88446A078002814D0022816D0E2
:1016000012D3042800F0898014D3062800F09081BA
:10161000C0F01B81082800F01783C0F0348209282D
:1016200000F0198324E323E30020A07020E30020CE
:10163000A0701DE320790E2802D00F2836D06BE071
:10164000E078002802D0012816D02EE0A51CF12059
:101650000390002002900C200190072000900723A7
:1016600000220221280001F031FB0622290014F19A
:10167000080000F083FD18E0A51C0622290014F1E3
:10168000080000F07BFDF1200390DFF8F0050290E8
:101690000F2001900E2000900E23E078421ED2B25F
:1016A0000321280001F012FBFFE735E0E078002875
:1016B00002D0012816D02EE0A51CF12003900020B6
:1016C00002900C20019007200090072300220221A5
:1016D000280001F0FBFA0622290014F1080000F0AE
:1016E0004DFD18E0A51C0622290014F1080000F0A9
:1016F00045FDF1200390DFF8880502900F2001904E
:101700000E2000900F23E078421ED2B20321280061
:1017100001F0DCFAFFE7FFE7AAE22079122805D002
:10172000C0F09280142879D03CD38DE0E078002876
:1017300002D0012816D034E0A51CF120039000202F
:1017400002900C2001900720009008230022022123
:10175000280001F0BBFA0622290014F1080000F06D
:101760000DFD1EE0A61C0622310014F1080000F059
:1017700005FDDFF81055F120039015F124000290CB
:1017800014200190122000901223E078421ED2B261
:101790000421300001F09AFADFF8D804C0686862CA
:1017A000FFE751E0E078002802D0012816D034E0AD
:1017B000A51CF1200390002002900C20019007202E
:1017C0000090082300220221280001F07FFA06225F
:1017D000290014F1080000F0D1FC1EE0A61C06222E
:1017E000310014F1080000F0C9FCDFF89854F12032
:1017F000039015F12800029014200190122000900F
:101800001323E078421ED2B20421300001F05EFAC8
:10181000DFF86004C068A862FFE715E0A51CF120AE
:101820000390002002900C200190072000900823D4
:1018300000220221280001F049FA0622290014F1B1
:10184000080000F09BFCFFE712E22079162802D086
:10185000172836D06BE0E078002802D0012816D097
:101860002EE0A51CF1200390002002900C20019096
:1018700007200090092300220221280001F026FA07
:101880000622290014F1080000F078FC18E0A51CDD
:101890000622290014F1080000F070FCF1200390EA
:1018A000DFF8E40302901720019016200090162321
:1018B000E078421ED2B20521280001F007FAFFE7C6
:1018C00035E0E078002802D0012816D02EE0A51CD3
:1018D000F1200390002002900C200190072000903E
:1018E000092300220221280001F0F0F90622290034
:1018F00014F1080000F042FC18E0A51C06222900A3
:1019000014F1080000F03AFCF1200390DFF87C03AA
:10191000029017200190162000901723E078421EB5
:10192000D2B20521280001F0D1F9FFE7FFE79FE1DE
:101930002079192805D0C0F0A5801B286DD037D399
:10194000A0E0E078002802D0012816D02FE0A51CE6
:10195000F1200390002002900C20019007200090BD
:101960000A2300220221280001F0B0F906222900F2
:1019700014F1080000F002FC19E0A51C0622290061
:1019800014F1080000F0FAFBC14EF120039002961A
:101990001B200190192000901923E078421ED2B23A
:1019A0000621280001F092F9B6484663FFE769E096
:1019B000E078002802D0012816D02DE0A51CF120E7
:1019C0000390002002900C200190072000900A2331
:1019D00000220221280001F079F90622290014F1E1
:1019E000080000F0CBFB17E0A51C0622290014F12B
:1019F000080000F0C3FBF1200390A64802901B20D2
:101A00000190192000901A23E078421ED2B20621DC
:101A1000280001F05BF9FFE734E0E078002802D00D
:101A2000012816D02DE0A51CF12003900020029083
:101A30000C200190072000900A2300220221280098
:101A400001F044F90622290014F1080000F096FB89
:101A500017E0A51C0622290014F1080000F08EFBF7
:101A6000F12003908C4802901B20019019200090D7
:101A70001B23E078421ED2B20621280001F026F98D
:101A8000FFE7FFE7F4E020791D2808D0C0F0DB80F5
:101A90001F286ED038D3202800F0A080D3E0E07853
:101AA000002802D0012816D02DE0A51CF1200390BB
:101AB000002002900C200190072000900B230022B0
:101AC0000221280001F002F90622290014F1080081
:101AD00000F054FB17E0A51C0622290014F10800B1
:101AE00000F04CFBF12003906C4802902020019004
:101AF0001D2000901D23E078421ED2B2072128004D
:101B000001F0E4F8FFE79EE0E078002802D0012829
:101B100016D02DE0A51CF1200390002002900C208F
:101B20000190072000900B2300220221280001F0E1
:101B3000CDF80622290014F1080000F01FFB17E081
:101B4000A51C0622290014F1080000F017FBF12063
:101B5000039053480290202001901D2000901E23E6
:101B6000E078421ED2B20721280001F0AFF8FFE76B
:101B700069E0E078002802D0012816D02DE0A51CED
:101B8000F1200390002002900C200190072000908B
:101B90000B2300220221280001F098F806222900D8
:101BA00014F1080000F0EAFA17E0A51C062229004B
:101BB00014F1080000F0E2FAF12003903948029095
:101BC000202001901D2000901F23E078421ED2B2F9
:101BD0000721280001F07AF8FFE734E0E0780028D8
:101BE00002D0012816D02DE0A51CF1200390002082
:101BF00002900C200190072000900B23002202216C
:101C0000280001F063F80622290014F1080000F012
:101C1000B5FA17E0A51C0622290014F1080000F00F
:101C2000ADFAF120039020480290202001901D2061
:101C300000902023E078421ED2B20721280001F054
:101C400045F8FFE7FFE713E0062214F10801A01CA6
:101C500000F094FA0CE00B4D2878022807D00622F9
:101C600014F10801A01C00F089FA00202870FFE799
:101C70007FBD0000E0270020282800207D000020F4
:101C8000800000207C000020980000209C000020A4
:101C900054280020A8000020AC000020B400002040
:101CA000B8000020BC000020C0000020F8B40300F1
:101CB00000250868E840002800F0D78001260F685A
:101CC00016FA05F007403A00002A00F0CC800879A7
:101CD00010F00300012804D0087910F00300022856
:101CE0001DD19F685FF0030C2800C0B240001CFAB1
:101CF00000FC37EA0C07D1F80CC02800C0B2400045
:101D00001CFA00FC5CEA07079F605868AE40B043CD
:101D10004E68C6F30016AE40304304005C6008799C
:101D200010F0030003280ED0DE6803272800C0B29D
:101D300040008740BE438F682800C0B24000874003
:101D40003E433400DC60087910F00300022818D10B
:101D50002800C00803EB8000066A0F2715F0070073
:101D6000C0B280008740BE430F6915F00700C0B2C3
:101D7000800087403E4334002800C00803EB800009
:101D800004621E6803272800C0B240008740BE439B
:101D90000F7917F003072800C0B2400087403E4388
:101DA00034001C60486810F4403F5CD095480668D9
:101DB00056F001060660006810F0010000900098DF
:101DC000914F2800800857F820605FF00F0C15F045
:101DD0000300C0B280001CFA00FC36EA0C06B3F126
:101DE000904F01D1002414E08848834201D101249E
:101DF0000FE08748834201D102240AE085488342EC
:101E000001D1032405E08448834201D1042400E089
:101E1000072415F00300C0B2800084402643280048
:101E2000800847F820607D4C206890434F68FF028F
:101E300000D5104320607A4E346894434F68BF0247
:101E400000D514433460774E306890434F68BF0329
:101E500000D510433060744E346894434F68FF03DC
:101E600000D5144334606D1C23E7F1BC70472DE9A5
:101E7000F041030000250800E840002800F0A88099
:101E8000012616FA05F008400200002A00F09E80A4
:101E9000DFF874C1280080085CF820000F2715F0D7
:101EA000030E5FFA8EFE5FEA8E0E17FA0EFE1EEA32
:101EB00000000400B3F1904F02D15FF0000E19E072
:101EC0005248834202D15FF0010E13E05048834232
:101ED00002D15FF0020E0DE04E48834202D15FF066
:101EE000030E07E04C48834202D15FF0040E01E08C
:101EF0005FF0070E15F00300C0B280001EFA00FE6E
:101F000074452CD14848D0F800E03EEA020EC0F8F3
:101F100000E04448D0F800E03EEA020EC0F800E0DD
:101F20003F48D0F800E03EEA020EC0F800E03B482F
:101F3000D0F800E03EEA020EC0F800E015F0030021
:101F4000C0B2800017FA00F00400280080085CF896
:101F50002000A043AE465FEA9E0E4CF82E005FF0D4
:101F6000030C1868AE465FFA8EFE5FEA4E0E1CFA4E
:101F70000EFE5EEA000018602800C00803EB800E29
:101F80002800C00803EB8000D0F8208015F007007F
:101F9000C0B28000874038EA0707CEF82070986802
:101FA0002F00FFB27F001CFA07F7B843986058680B
:101FB000AE4030EA06065E60DE682800C0B240002F
:101FC0001CFA00FC36EA0C0CC3F80CC06D1C52E77E
:101FD000BDE8F081020010690B009BB2184201D0ED
:101FE000012000E00020C0B270471300DBB2002BDC
:101FF00003D00B009BB2836102E00B009BB28362B3
:1020000070470000601002400800014000040048D2
:1020100000080048000C0048001000480804014077
:102020000C040140040401400004014038B50400E0
:102030000D00DFF8FC010168200000F006F8A8425E
:1020400001D3012000E0002032BD814204D25FF0C4
:10205000FF32101A081800E0081A704738B52DED45
:10206000048B08EE100A0C001500DFED438A2800EF
:10207000C0B2FB2810DBB8EEC89A2800C0B24042BC
:10208000C0B200F08BF829EE009A00212000B0EEDB
:10209000490A00F0B1F80EE0B8EEC89A2800C0B2C4
:1020A00000F07CF889EE009A2900C9B22000B0EE59
:1020B000490A00F0A1F8BDEC048B31BD10B4002139
:1020C0000A00838892B29A4206D2002203680C006A
:1020D000A4B21A55491CF3E70022828010BC704755
:1020E00010B4040013005A1E9BB2002B02D02170C2
:1020F000641CF7E710BC704770B504000D001600B3
:10210000DFF8240100782100C9B2884209D3DFF842
:1021100024211068002804D0310089B228001268F8
:10212000904770BD38B504000D00280003F05CF83E
:10213000020092B229002000C0B2FFF7DDFF31BDDE
:1021400070B504000D00280003F04EF8020092B2B2
:1021500029002000C0B2FFF7CFFFDFF8DC60306855
:10216000002807D0280003F03FF8010089B22800BA
:102170003268904770BD00000000000030B40400D9
:102180000D0013005A1E9BB2002B04D02B78237035
:102190006D1C641CF5E730BC7047000010B50400EE
:1021A0002000C0B2FB2816DB2000C0B2D0F5807042
:1021B00003F052F841EC110B9FED200B03F065F892
:1021C00053EC102B0020194903F068F803F08AF94A
:1021D00000EE100A0FE02000C0B203F0B7F941ECA6
:1021E000110B9FED160B03F050F851EC100B03F0A0
:1021F00079F900EE100A10BD38B52DED028B82B0D2
:10220000B0EE408A04000D0018EE100A03F0ACF99D
:10221000CDE900012A000B49200003F0C9F902B002
:10222000BDEC028B31BD0000380C00200000F03FF7
:10223000A4280020AC280020A828002000000000CE
:1022400000002440F4F8000880B500224FF400712B
:10225000DFF8800BFFF7C9FE00224FF400715FF03A
:102260009040FFF7C2FE03F0C3F9DFF86C0BDFF814
:102270006C1B4163DFF8681B421CC1F85821021D2A
:10228000C1F8702110F114020A62027A81F8252047
:1022900010F118028A63427A81F83D2010F10C0295
:1022A000C1F8A021027A81F8A52110F12402C1F819
:1022B000B821027A81F8BD2110F12802C1F8D0219D
:1022C000027A81F8D52110F11C02C1F81822027A95
:1022D00081F81D2210F12002C1F83022427A81F8E3
:1022E000352210F12C02C1F87822827A81F87D2201
:1022F00010F13002C1F89022827A81F8952210F113
:102300003802C1F8C022C27A81F8C52210F13C021D
:10231000C1F8D822C27A81F8DD2210F14002C1F85A
:10232000F022C27A81F8F52210F14402C1F80823A4
:10233000C07A81F80D03DFF8B40A0068C1F85003D1
:10234000DFF8AC0A0068C1F8800301BD38B5002091
:1023500000242000C0B2072835DADFF8985A2000A0
:10236000C0B200012844407801282AD12000C0B220
:1023700000012844406800280ED003F091F92100A4
:10238000C9B2090129444968401A2100C9B20901AA
:1023900029448968884214D300202100C9B2090168
:1023A0002944487003F07CF92100C9B2090129448D
:1023B00048602000C0B22100C9B209012944C9689F
:1023C0008847641CC5E7002032BD38B50400DFF83B
:1023D000285A687800281FD100224FF40071DFF8D6
:1023E000F409FFF702FE00224FF400715FF0904005
:1023F000FFF7FBFD03F0FCF8892000902023072263
:102400000521DFF8F80903F051F901206870022175
:10241000DFF8E00903F092FA012032BD7CB5040038
:10242000DFF8DC592878002803D0022823D003D312
:102430003DE003F0ADFA3AE003F020FB8920009084
:10244000202307220521DFF8B40903F02FF9DFF874
:10245000B42903212C2003F043FADFF8AC2904212E
:10246000082003F03DFA03F066FB41F28830DFF804
:10247000841988611BE00120DFF87C1948708920ED
:102480000090202307220521DFF8700903F00EF9E0
:10249000DFF860690221300003F050FA03213000B8
:1024A00003F04CFA0421300003F048FAFFE72878E3
:1024B000401C28702100C9B2DFF8380903F04DFA3A
:1024C000012076BD70B5040000F0BCF8DFF8285993
:1024D0006878012803D1A87800F0ACFB04E0002163
:1024E000DFF8100903F02AFADFF82009A97802784A
:1024F000914207D0A9780170DFF814090068DFF86D
:1025000014190860A8780A2812D1DFF808694FF476
:10251000FA613068FFF78AFD012809D1DFF8F00879
:1025200000683060062215F10801A81CFFF726FE9E
:102530002100C9B2DFF8BC0803F00FFA012070BD1A
:1025400010B50400DFF8D018DFF8D0080069FFF7F5
:102550006DFD012827D1DFF8C8080178012905D1D0
:10256000002101700020DFF890188870DFF8B408AF
:102570000188491C018042F21071DFF8782823009D
:10258000DBB21B011A449268B1FBF2F102888A4265
:102590000DD300210180DFF860188878002806D06C
:1025A0000020887003E00120DFF874180870210013
:1025B000C9B2DFF8400803F0D0F9012010BD38B5EA
:1025C0000400FDF7FCFDDFF85458287A012808D1F3
:1025D0000521DFF8200803F0B1F9DFF834080068BE
:1025E00028612100C9B2DFF80C0803F0B6F9012018
:1025F00032BD10B50400FDF7C9FDDFF82008002149
:10260000017000210172012010BD10B504000022EC
:102610004FF40051DFF8BC07FFF7E7FC012010BDC5
:1026200010B5040001224FF40051DFF8A807FFF7AE
:10263000DCFCDFF8C007210089B28166062103F0C7
:102640008CF910BD38B5DFF89047DFF8DC07616B17
:10265000097850F82100DFF88817C1F86002DFF828
:10266000CC0701786170DFF8C817407851F8200076
:102670006060207A02F0B2FB00EE100ADFF8B45777
:10268000B8EE400AD5ED010A20EE200ABDEEC00AE0
:1026900084ED030A607A02F0A1FB00EE100AB8EEA6
:1026A000400AD5ED020A20EE200ABDEEC00A84EDF4
:1026B000040A207A02F092FB00EE100AB8EE400AFB
:1026C000D5ED030A20EE200ABDEEC00A84ED050A0E
:1026D000607A02F083FB00EE100AB8EE400AD5EDF6
:1026E000040A20EE200ABDEEC00A84ED060A207A14
:1026F00002F074FB00EE100AB8EE400AD5ED050AB0
:1027000020EE200ABDEEC00A84ED070A607A02F0CE
:1027100065FB00EE100AB8EE400AD5ED060A20EE81
:10272000200ABDEEC00A84ED080AA07A02F056FB2A
:1027300000EE100ADFF8A456B8EE400AD5ED020A02
:1027400020EE200ABDEEC00A84ED0B0AA07A02F04A
:1027500045FB00EE100AB8EE400AD5ED010A20EE66
:10276000200ABDEEC00A84ED0C0AE07A02F036FBC6
:1027700000EE100ADFF8C056B8EE400AD5ED000AA8
:1027800020EE200ABDEEC00A84ED0E0AE07A02F0C7
:1027900025FB00EE100AB8EE400AD5ED010A20EE46
:1027A000200ABDEEC00A84ED0F0AE07A02F016FBA3
:1027B00000EE100AB8EE400AD5ED020A20EE200A1B
:1027C000BDEEC00A84ED100AE07A02F007FB00EECD
:1027D000100AB8EE400AD5ED030A20EE200ABDEE3D
:1027E000C00A84ED110A31BD2DE9F84F8AB0060008
:1027F0002021002202AC200003F00AFA0024002568
:1028000000208DF8050000208DF806001827DFF85D
:10281000D0853000C0B27843404490F81590300025
:10282000C0B2784340444068002842D001213000C3
:10283000C0B200F0A9F900280ED13000C0B2784330
:10284000404442683000C0B278434044017D48466D
:10285000C0B203F045F81EE05FF0000A3000C0B2DD
:1028600078434044406802F0BFFC5146C9B28142FF
:1028700007D2202002A95246D2B288541AF1010A86
:10288000ECE702AA3000C0B278434044017D4846DC
:10289000C0B203F025F83000C0B27843404440682D
:1028A00002F0A2FCDFF894150979491C484310FA9C
:1028B00089F93000C0B2784340448068002800F0B5
:1028C0003A813000C0B278434044007B00280BD0EE
:1028D00002281ED012D3042830D024D3062845D095
:1028E00036D307283ED044E03000C0B2784340449D
:1028F00080680078002104000D003AE03000C0B28A
:1029000078434044806890F90000C11704000D002E
:102910002FE03000C0B27843404480680088002136
:1029200004000D0025E03000C0B2784340448068C8
:10293000B0F90000C11704000D001AE03000C0B269
:102940007843404480680068002104000D0010E0D6
:102950003000C0B27843404480680068C11704006A
:102960000D0006E001208DF8050002E002208DF840
:1029700005009DF8050000280CD13000C0B2784356
:102980004044407B40420200D2B202A92000FFF73F
:1029900065FB26E09DF8050001281AD13000C0B281
:1029A00078434044806802F01FFC202819D2300090
:1029B000C0B278434044806802F016FC020092B234
:1029C0003000C0B278434044816802A8FFF7D6FBCC
:1029D00007E03000C0B278434044806800788DF84A
:1029E000080002213000C0B200F0CEF8012823D147
:1029F0003000C0B278434044807DC0B200098DF8F9
:102A000006009DF806000F2805D0202002A99DF899
:102A10000620885410E05FF0000A02A802F0E4FBF0
:102A20005146C9B2814207D2202002A95246D2B2F1
:102A300088541AF1010AF0E73000C0B201285ED1D3
:102A40005FF0000A00208DF804003000C0B2784327
:102A50004044407B002802D009208DF80400392032
:102A600000902E2315220F21DFF8D40303F004F980
:102A700002A802F0B9FB8346DFF8C0030079401CCE
:102A800000FB0BFB5846C0B2022190FBF1F01F285F
:102A90000BDA5846C0B2022190FBF1F0D0F14000B1
:102AA0009DF8041050FA81FA07E05846C0B2D0F100
:102AB0005F009DF8041050FA81FA02AA3000C0B2FB
:102AC00078434044007D401CC0B2DFF87013497960
:102AD000D1EBC001491EC9B25046C0B203F076FA2C
:102AE0005AFA8BF09DF80490B0EB09098920009008
:102AF000202307220521C14802F0D8FD1BE08920D0
:102B00000090202307220521BC4802F0CFFD02AA35
:102B10003000C0B278434044017D4846C0B202F064
:102B2000DFFE02A802F060FBC4490979491C484352
:102B300010FA89F081463000C0B278434044006901
:102B400000281ED03000C0B278434044806800287E
:102B500017D03000C0B2784340448068B9498842F9
:102B60000FD03000C0B27843404402693000C0B298
:102B700007FB00F708EB0700017D4846C0B202F0F2
:102B8000AFFE0BB0BDE8F08FF8B504000D0094491E
:102B90002200D2B21820424301EB0200817D2800BE
:102BA000C0B201402800C0B281422FD1A026A64F5A
:102BB0004FF496712800C0B2704338442200D2B25C
:102BC00050F82200FFF732FA01282AD12800C0B2BB
:102BD00006FB00F607EB06002100C9B28C4A12681A
:102BE00040F82120282099492A00D2B242430A44C1
:102BF0002300DBB22E00F6B200FB06F008442100F1
:102C0000C9B2405CD0F10100D0540AE08F492A00DB
:102C1000D2B22820424301EB02002100C9B20022B7
:102C200042548A49EDB22820454301EB0500E4B245
:102C3000005DF2BD70B50400002602F01FFF00F039
:102C400077F82000C0B200F07DF82000C0B200F09C
:102C500093F80025280080B2282811DA60492A005C
:102C600092B21820424301EB0200C07D2100C9B29C
:102C7000884203D12800C0B2FFF7B6FD6D1CE9E71A
:102C800002F059FF70BDF0B44271C4780379250099
:102C9000EDB2AB420AD3F025514E2700FFB2182304
:102CA0005F4306EB07039D75641CEFE718234C4C4C
:102CB00085785D4325444679AE75002904D0857832
:102CC00003FB05F323449960F0BC70472DE9F84FEE
:102CD0000700884691469A460A9E0B9DDDF830B063
:102CE0000D9C87F8008087F8019087F802A0FE709D
:102CF0003D712200D2B259463800FFF7C4FFBDE84B
:102D0000F18F10B4010000221000C0B204280CD2D0
:102D10001000C0B2085C4E4B1400E4B21B5D984238
:102D200001D0002002E0521CEEE7012010BC7047E9
:102D300080B50120009008237F220821002003F0A5
:102D4000C9F901BD10B504002000C0B2002812D19D
:102D500038480078002807D122A2214890F8441072
:102D6000782002F0BDFD06E01FA21D4890F8441037
:102D7000782002F0B5FD10BD0100C9B2092924D1A7
:102D800015490978002906D002290ED008D3042954
:102D900015D00FD318E02F49114AC2F8981318E044
:102DA0002D490F4AC2F8981313E02C490C4AC2F877
:102DB00098130EE02A490A4AC2F8981309E02949F3
:102DC000074AC2F8981304E003E02249044AC2F813
:102DD00098137047000800487C0000205428002009
:102DE00028010020200000004E0000008005002087
:102DF000C40000200C0000202828002038ED000826
:102E0000C528002094F60008B4F20008C628002067
:102E1000A42800207C28002080EE3600E027002037
:102E2000C7280020B828002020010020340C0020F2
:102E3000BC060020782700203828002048280020E1
:102E400010EB0008360C0020EC1E0020E4240020CB
:102E5000CC000020D0000020E0000020F000002086
:102E6000000100201001002010B504000121DFF84E
:102E7000FC0C02F072FD012010BD30B587B00400DB
:102E80001421002202AD280002F0C2FEDFF8FC0B84
:102E9000D0E90023CDE9002302A80090DFF8F05B21
:102EA0002978684600F0FAF928786870BDF80410AF
:102EB000009800F01AFD00202870DFF8B05C0221B5
:102EC000280002F03BFD0321280002F046FD21000E
:102ED000C9B2280002F041FD012007B030BD10B595
:102EE0000400DFF8B01B8888002810D0DFF8A80B9A
:102EF00002888B889A4208D1002101800321DFF8E3
:102F00006C0C02F01BFD012008E089880180210083
:102F1000C9B2DFF8580C02F020FD012010BD2DE9E8
:102F2000F041040000250026DFF8687BB8880328FC
:102F30003DDB3868B988084410F8010C3968BA8854
:102F4000114411F8021C51EA00210E00B988891EB3
:102F5000386803F059F905002800310080B289B2C1
:102F600088421DD10721DFF8040C02F0F6FC386816
:102F7000007807280DD1DFF8188B012198F801009F
:102F800000F0A5F998F80120D7E9000100F08FF9C9
:102F900013E00021DFF8F80A407800F098F90CE01F
:102FA0000021DFF8EC0A407800F091F905E00021FB
:102FB000DFF8DC0A407800F08AF9DFF8D40A4078BC
:102FC00000F0ECF80221DFF8A40B02F0D8FC01209D
:102FD000BDE8F0810100DFF8B80D0278032A01D0C6
:102FE000042202700120704710B504002100C9B20C
:102FF000DFF8780B02F0B1FC012010BD10B5040021
:10300000DFF86C0B0178012936D1DFF80C1CC97888
:10301000012931D1DFF8041C91ED030AD0ED020A39
:10302000B4EE600AF1EE10FA08DA91ED030AD0ED81
:10303000010AB4EE600AF1EE10FA0ED501224FF447
:1030400000615FF09040FEF7D0FF01224FF4805105
:103050005FF09040FEF7C9FF1CE000224FF40061D2
:103060005FF09040FEF7C1FF00224FF480515FF007
:103070009040FEF7BAFF0DE000224FF400615FF0D0
:103080009040FEF7B2FF00224FF480515FF0904075
:10309000FEF7ABFFDFF8D40A4FF47A7181662100A6
:1030A000C9B202F05AFC012010BD38B50400DFF8A7
:1030B000701B087800281FD101200870DFF8645BBE
:1030C000012210212800FEF790FF0022082128008D
:1030D000FEF78BFF00220421DFF84C0BFEF785FF83
:1030E0004FF4FA60DFF8841A886703F06FFA03F090
:1030F00018FC03F007FC12E00020087001220821F0
:10310000DFF8200BFEF771FF01220421DFF8180B16
:10311000FEF76BFF4EF66020DFF8501A886721003B
:10312000C9B2DFF8480A02F018FC012032BD10B520
:103130000400DFF8E81A0878002803D1002081F89D
:10314000240011E0DFF84C0C8278042A05D0827844
:10315000092A06D1007A042803D1032081F824002B
:1031600002E0022081F82400DFF8AC0AC0780128D0
:1031700006D1012081F82500012081F8260005E014
:10318000002081F82500002081F826002100C9B226
:10319000DFF8D80902F0E1FB012010BD38B52DEDB4
:1031A000028B04009FED858A2000C0B200285AD10E
:1031B000DFF8685A95ED010ADFED810A20EE200A5A
:1031C000BDEEC00A10EE100A00F02EFA85ED010ADD
:1031D00095ED010A00F09AFA85ED030A95ED020AD1
:1031E00000F0F4FA85ED040A95ED040AD5ED060A1F
:1031F00030EE200ADFF8A00BD0ED020AF4EE400A10
:10320000F1EE10FA02D5D0ED020A0BE0D0ED030A80
:10321000B4EE600AF1EE10FA02D5D0ED030A01E037
:10322000F0EE400AC5ED040AD5ED030A95ED051A46
:1032300030EE818AD0ED000AF4EE480AF1EE10FA81
:1032400002D590ED000A0BE090ED010AB4EE408A41
:10325000F1EE10FA02D590ED010A01E0B0EE480A55
:1032600085ED030AFFE7DFF8B4592878002807D175
:103270000020686095ED010A00F048FA85ED030A28
:103280002878002807D10020A86095ED020A00F0F8
:103290009DFA85ED040ABDEC028B31BD38B5040002
:1032A0000D002900C9B2200000F01BF831BD70B537
:1032B00004000D00160020000078C0B2072805D1D8
:1032C0003200D2B22000290000F07CF870BD38B581
:1032D00004000D002900C9B22000C0B200F01CF9A2
:1032E00031BD3EB504000D002800C0B2002808D052
:1032F000022819D00ED3042835D01FD3052847D073
:103300005BE004200090002303220721200002F04C
:1033100099FF52E0012000904FF4805303220721CF
:10332000200002F08FFF48E00120009041F20403EA
:1033300003220721200002F085FF3EE0DFF8580D50
:10334000818802290ED1016801918088022190FBB9
:10335000F1F080B200904FF4805306220721200044
:1033600002F0BEFF29E0DFF8300D818802290ED17E
:10337000016801918088022190FBF1F080B20090F9
:1033800041F2040306220721200002F0A9FF14E005
:10339000DFF8040D818802290ED10168019180882F
:1033A000022190FBF1F080B2009042F2200306224D
:1033B0000721200002F094FFFFE737BD0000000066
:1033C0000000C8422DE9F84F2DED028B82B00400B9
:1033D0000D0091460020ADF800009FED6B8A00269D
:1033E0004846C0B200280BD0022876D05ED304280D
:1033F00000F08A80C0F08880052800F0858086E093
:103400000320ADF8000002226946200000F03AFADD
:1034100008EE900A02226946200000F033FA804646
:10342000DFF8F877B8EE680A10EE100A02F09CF8A0
:1034300082468B46404602F089F841EC110B9FED25
:10344000B10B01F022FF53EC102B5046594601F00E
:1034500025FF02F047F8786002226946200000F05C
:1034600011FA00EE100AB0EE408A022269462000EE
:1034700000F008FA0600B8EE480A10EE100A02F052
:1034800073F882468B46300002F060F841EC110B75
:103490009FED9C0B01F0F9FE53EC102B5046594662
:1034A00001F0FCFE02F01EF8B86030E00320ADF839
:1034B000000002226946200000F0E4F900EE100A44
:1034C000B0EE408AB8EE480AF2EE040A80EE200A16
:1034D000DFF8480780ED070A19E00320ADF8000087
:1034E00002226946200000F0CDF900EE100AB0EE8D
:1034F000408AB8EE480AF2EE040A80EE200ADFF8AD
:103500001C0780ED080A02E000F061F9FFE702B055
:10351000BDEC028BBDE8F18F0200D2B2002A052A71
:103520001BD80A00D2B2012A0ED1DFF8F026002300
:103530005370012313700200D2B2002A0CD1012271
:10354000DFF8D436DA7007E0DFF8D0265378032BA3
:1035500002DA53785B1C5370FFE7DFF8C0365A7805
:10356000002A10D05A78032A0DDB00221A7000229C
:103570005A6000229A600022DA6100221A62002258
:10358000DFF89436DA707047000000002DE9F04152
:1035900000242500EDB20A2D43DA00252E00F6B2F4
:1035A000092E3CDA2E00F6B201EB860676682F0073
:1035B000FFB251F82770BE422FDA00262F00FFB26B
:1035C00051F82770AC465FFA8CFC01EB8C0CDCF8F0
:1035D00004C0AE465FFA8EFE41F82EC0AC465FFADC
:1035E0008CFC01EB8C0CCCF80470AC465FFA8CFCC4
:1035F00050F82CC0AE465FFA8EFE00EB8E0EDEF861
:1036000004E0A8465FFA88F840F828E0AE465FFA82
:103610008EFE00EB8E0ECEF804C06D1CBEE7641C5F
:10362000B7E7BDE8F081000038B52DED028B04004E
:103630009FED938ADFF8F81A087800282AD1012034
:10364000087000210800C0B20A2815DA0800C0B2CC
:10365000DFF8E02A0B00DBB242F82300DFF81C2B76
:103660000800C0B252F82000002803D10800C0B200
:1036700042F82040491CE5E7DFF8005B09230022FF
:103680002900DFF8B00AFFF781FF95ED050AB8EED3
:10369000C00A30E000200100C9B20A291EDADFF8B2
:1036A000941A0200D2B251F82220092A0BD100222A
:1036B0000300DBB241F82320DFF8C01A0200D2B2C7
:1036C00041F8224008E00200D2B251F82220521CF8
:1036D0000300DBB241F82320401CDCE7DFF89C5AF2
:1036E000092300222900DFF84C0AFFF74FFF95ED70
:1036F000050AB8EEC00ADFEDBB0A80EE200ABDEC79
:10370000028B31BD0000000000002440F0EE400AB2
:103710009FEDB51A9FEDB53ADFED593AF5EE400A47
:10372000F1EE10FA40D0F0EE603A9FEDB10ADFF80A
:10373000D80A90ED004A34EE634AB4EE404AF1EE06
:1037400010FA08DA90ED004A33EEC44AB4EE404A6B
:10375000F1EE10FA03DB9FEDA70A21EE001ADFF865
:10376000AC0A90ED000AF0EE401ADFF8A41A91EDD1
:10377000000A30EE010AB0EE402A32EE030A82EE71
:10378000000AF0EE402A33EEE10AB0EE614A00EEA4
:10379000224A80ED004AB7EE000A30EE620A20EEBF
:1037A000020A81ED000A08E0DFF8640A5FF07E514A
:1037B0000160DFF8580A00210160DFF8500ADFF8E5
:1037C000481A02680A6090ED000A7047704780B599
:1037D0000320DFF8BC1508700421E44802F0CFF89C
:1037E0003220FEF71DFF01BD80B5DFF8280A007802
:1037F000A74908700220DFF8981508700421DB48FB
:1038000002F0ABF801BD2DE9F04104000D001600F7
:103810002F00DFF884884046FEF750FC300080B26D
:10382000022802D004280BD01DE07878D8F80010C8
:1038300008703878D8F800104870A8F8046015E0CF
:103840007878D8F8001008703878D8F800104870E8
:10385000F878D8F800108870B878D8F80010C870D8
:10386000A8F8046002E00020A8F80400DFF8A4092A
:1038700004700120DFF8A0190870BDE8F081000095
:1038800000000000F0B4030000200C881500EDB229
:10389000042D16D12500ADB21D44AE782500ADB281
:1038A0001D44ED7855EA06252600B6B29E5D270038
:1038B000BFB21F447F7857EA062757EA054738000A
:1038C0000DE01500EDB2022D09D12500ADB25D5D10
:1038D0002600B6B21E44767856EA052630000D88DA
:1038E00055FA82F50D80F0BC704770B504000D00EC
:1038F000DFF8286901224FF480513000FEF775FB94
:103900000A2003F031F802F0F5FF4FF47A732A0031
:1039100092B22100DFF8080903F077F800224FF493
:1039200080513000FEF761FB70BD2DE9F0412DEDB7
:10393000028B8EB0F0EE408AB0EE608A3221002217
:103940006C46200002F064F9002700240025DFF80F
:10395000CC82C8ED058A88ED068A98ED050A01F04B
:1039600031FC060098ED060A01F02CFC8046684602
:103970003100090E3A00D2B281547F1C3100090C8B
:103980003A00D2B281547F1C3100090A3A00D2B207
:1039900081547F1C3900C9B246547F1C4146090E30
:1039A0003A00D2B281547F1C4146090C3A00D2B28F
:1039B00081547F1C4146090A3A00D2B281547F1CCF
:1039C0003900C9B200F801807F1C3A00D2B292B22D
:1039D0006946DFF8500804F035F80EB0BDEC028BF4
:1039E000BDE8F0810000C84295BFD63317B7D13883
:1039F0000100A04100007A4470B500240025DFF8E2
:103A000024080078C0B2FF2839D0DFF81C080178FC
:103A1000C9B20906DFF814080078C0B251EA0041C3
:103A2000DFF80C080078C0B251EA0021DFF8040882
:103A30000078C0B201430C00DFF8FC070178C9B27E
:103A40000906DFF8F8070078C0B251EA0041DFF854
:103A5000F0070078C0B251EA0021DFF8E8070078EB
:103A6000C0B201430D006D4E16F11401200001F0AB
:103A7000D1FA16F11801280001F0CCFA04E06748E9
:103A8000002141610021816170BD0000ACF8000897
:103A9000C0280020E40B0020BE2800202DE9F047BC
:103AA0002DED028B8EB00400F0EE408AB0EE608AFD
:103AB000322100226D46280002F0AAF800250026D7
:103AC0000027DFF8ACA08AF800408AED028ACAED30
:103AD000018A9AED020A01F075FB80469AED010A0F
:103AE00001F070FB814668469AF800102A00D2B2B5
:103AF00081546D1C4146090E2A00D2B281546D1CBE
:103B00004146090C2A00D2B281546D1C4146090A73
:103B10002A00D2B281546D1C2900C9B200F801807C
:103B20006D1C4946090E2A00D2B281546D1C4946CB
:103B3000090C2A00D2B281546D1C4946090A2A0098
:103B4000D2B281546D1C2900C9B200F801906D1CDD
:103B50002A00D2B292B26946DFF8EC0603F072FF97
:103B60000EB0BDEC028BBDE8F087000030070020EE
:103B70005428002070B500240025DFF8CC0600781A
:103B8000C0B2FF283DD0DFF8C466DFF8C406007875
:103B90003070DFF8C0060178C9B20906DFF8B80650
:103BA0000078C0B251EA0041DFF8B0060078C0B238
:103BB00051EA0021DFF8A8060078C0B201430C00EA
:103BC000DFF8A0060178C9B20906DFF89C06007884
:103BD000C0B251EA0041DFF894060078C0B251EA61
:103BE0000021DFF88C060078C0B201430D0016F109
:103BF0000801200001F00EFA311D280001F00AFA38
:103C000008E0DFF8480600210170DFF868168160DF
:103C10000021416070BD000090280020782700201E
:103C2000CD28002000040048000C00482DE9F84F82
:103C30002DED048B8EB0F0EE409AB0EE608AF0EE7F
:103C4000418AB0EE619A3221002201AC200001F0DD
:103C5000DFFF5FF0000B002000900024002500260D
:103C6000DFF834A1CAED009A8AED018ACAED028A12
:103C70008AED039A9AED000A01F0A4FA07009AED82
:103C8000010A01F09FFA80469AED020A01F09AFAC1
:103C900081469AED030A01F095FA824601A839009F
:103CA000090E5A46D2B281541BF1010B3900090C9E
:103CB0005A46D2B281541BF1010B3900090A5A4607
:103CC000D2B281541BF1010B5946C9B247541BF1C2
:103CD000010B4146090E5A46D2B281541BF1010B29
:103CE0004146090C5A46D2B281541BF1010B4146A0
:103CF000090A5A46D2B281541BF1010B5946C9B286
:103D000000F801801BF1010B4946090E5A46D2B258
:103D100081541BF1010B4946090C5A46D2B2815419
:103D20001BF1010B4946090A5A46D2B281541BF1D4
:103D3000010B5946C9B200F801901BF1010B514625
:103D4000090E5A46D2B281541BF1010B5146090C9F
:103D50005A46D2B281541BF1010B5146090A5A4608
:103D6000D2B281541BF1010B5946C9B200F801A02F
:103D70001BF1010B5A46D2B292B201A9DFF8F80446
:103D800003F060FE0EB0BDEC048BBDE8F18F0000C7
:103D90007C00002028280020382800202DE9F04150
:103DA0000024002500260027DFF8CC040078C0B2EC
:103DB000FF2871D0DFF8C4040178C9B20906DFF822
:103DC000C0040078C0B251EA0041DFF8B8040078BE
:103DD000C0B251EA0021DFF8B0040078C0B201435C
:103DE0000C00DFF8A8040178C9B20906DFF8A004C6
:103DF0000078C0B251EA0041DFF898040078C0B200
:103E000051EA0021DFF890040078C0B201430D00B0
:103E1000DFF888040178C9B20906DFF88404007865
:103E2000C0B251EA0041DFF87C040078C0B251EA28
:103E30000021DFF874040078C0B201430E00DFF8FF
:103E40006C040178C9B20906DFF864040078C0B2D6
:103E500051EA0041DFF85C040078C0B251EA002169
:103E6000DFF854040078C0B201430F00DFF84C843F
:103E70004146200001F0CEF818F10401280001F0BD
:103E8000C9F818F10801300001F0C4F818F10C016C
:103E9000380001F0BFF80BE0DFF82004DFF8D4139E
:103EA000016000214160DFF8181481600021C160C9
:103EB000BDE8F08178B591B004000D003C210022EE
:103EC00002AE300001F0A4FE0020ADF80400032192
:103ED000042000F06EFD0B2000900023DFF8E423A7
:103EE00001A902A801F080F84FF47A73BDF804200C
:103EF00002A9DFF8D40302F088FD12B070BD78B5D6
:103F000091B004000D003C21002202AE300001F00F
:103F10007FFE0020ADF80400C24803F063FDCA48EC
:103F200003F060FDC94800210170D2498160002181
:103F300041600D2000900023DFF8902301A902A822
:103F400001F052F84FF47A73BDF8042002A9DFF8AB
:103F5000780302F05AFD12B070BD38B590B004007D
:103F60000D0003A8DFF86813322203F0AFFDDFF87D
:103F70006403D0E90023CDE9012303A801900023C5
:103F8000D548027802A903A800F0B9FF02200090EA
:103F9000002379A202A903A801F026F84FF47A734E
:103FA000BDF808200199C84802F02FFD11B030BDBE
:103FB000F8B504000D0000262068007830283ADBB0
:103FC000206800783A2836DA002700200100C9B2BC
:103FD000A28889B291420FD221680200D2B2895CD4
:103FE000302905DB21680200D2B2895C3A2900DB66
:103FF00002E07F1C401CE9E73900C9B2206801F0EB
:10400000ABF80600B6F5807F0DD2B348417830009A
:10401000C0B200F0CEFC4FF47A73022279A1AA4814
:1040200002F0F3FC0EE04FF47A730522AB49A64888
:1040300002F0EBFC06E04FF47A730522A749A24890
:1040400002F0E3FCF1BD38B590B004000D0003A808
:10405000A349322203F03AFDA248D0E90023CDE97A
:10406000012303A8019000239B48427802A903A8DA
:1040700000F045FF0220009000233FA202A903A800
:1040800000F0B2FF4FF47A73BDF8082001998E4812
:1040900002F0BBFC11B030BDC0070020F8B5040031
:1040A0000D00002620680078302839DB2068007871
:1040B0003A2835DA002700200100C9B2A28889B267
:1040C00091420FD221680200D2B2895C302905DB0F
:1040D00021680200D2B2895C3A2900DB02E07F1C31
:1040E000401CE9E73900C9B2206801F035F8060044
:1040F0000C2E0DD23100C9B27748007800F059FC7F
:104100004FF47A7302223FA16F4802F07EFC0EE06A
:104110004FF47A73052271496B4802F076FC06E091
:104120004FF47A7305226D49674802F06EFCF1BDC9
:10413000CE2800202827002080B5FFF75DFCFFF780
:1041400019FDFFF72BFE68486849C0F8A4136849B9
:10415000C0F8B4136749C0F8C4136749C0F8D41352
:104160006649C0F8E4136649C0F8F41302F0D9FBBD
:1041700002F0C8FB01BD00000D0A0000502700201E
:1041800070B50020002400252800C0B2092836DAC6
:104190005C4E2800C0B200013044407801282CD188
:1041A000012004002800C0B200013044406800280B
:1041B0000ED001F075FA2900C9B2090131444968ED
:1041C000401A2900C9B2090131448968884214D3D0
:1041D00000202900C9B209013144487001F060FA99
:1041E0002900C9B20901314448602800C0B2290041
:1041F000C9B209013144C96888476D1CC4E7200071
:10420000C0B270BD4F4B00009828002094280020B9
:10421000C8070020CC2800207C00002000080048AF
:10422000DC21002000080208020802080308020836
:104230000408020805080208060802080708020820
:104240000808020809080208001002085428002083
:1042500002100208031002080410020805100208E8
:1042600006100208071002080810020809100208C8
:104270000A10020800007A44002002080220020806
:104280000320020804200208052002080620020874
:104290000720020808200208092002080A20020854
:1042A0000B2002080C2002080D2002080E20020834
:1042B0000F200208102002081120020838280020D0
:1042C0000000A042ACF60008CC200020F0F300086B
:1042D000B8E20008B4F80008340C0020A4F8000884
:1042E000B0F00008BCF80008D4070020B53E000874
:1042F000FF3E00085B3F0008B13F00084740000850
:104300009D4000083007002002000020704730B4B4
:104310000200DFF8980A00230468858863558388C3
:104320005B1C8380DFF8883A1B78046885886355B6
:1043300083885B1C8380012030BC7047F8B5040083
:104340000D00002000212E0022683300DBB2D25C79
:1043500023683700FFB23B445F7857EA02273A00F0
:1043600092B2B2F5807F23DA380080B200281FD0E5
:10437000DFF8380A21683200D2B2895C026883888B
:10438000D1548188491C818021683200D2B2114405
:10439000497802688388D1548188491C8180DFF87C
:1043A000100A41783800C0B200F003FB012000E0A1
:1043B0000020F2BD30B40200DFF8F00900230468E9
:1043C0008588635583885B1C8380DFF8E4395B78DC
:1043D00004688588635583885B1C8380012030BC1A
:1043E0007047F8B504000D00002000212E0022685F
:1043F0003300DBB2D25C23683700FFB23B445F7806
:1044000057EA02273A0092B20B2A1FDADFF89C091A
:1044100021683200D2B2895C02688388D1548188D5
:10442000491C818021683200D2B211444978026867
:104430008388D1548188491C81803900C9B2DFF852
:104440007009007800F0B5FA012000E00020F2BD0C
:10445000F8B504000D000026DFF8580990ED030AB6
:1044600000F0B0FE0100DFF844090A00120A0368F8
:104470008788DA558288521C828002688388D154EA
:104480008288521C82800A00120E03688788DA55DF
:104490008288521C82800A00120C03688788DA55D1
:1044A0008288521C82800120F2BDF8B504000D0004
:1044B0000026DFF8000990ED040A00F083FE0100F9
:1044C000DFF8E8080A00120A03688788DA5582884C
:1044D000521C828002688388D1548288521C828058
:1044E0000A00120E03688788DA558288521C82807F
:1044F0000A00120C03688788DA558288521C828071
:104500000120F2BDF8B504000D0000269FEDA30ABE
:1045100000F058FE0100DFF894080A00120A036850
:104520008788DA558288521C828002688388D15439
:104530008288521C82800A00120E03688788DA552E
:104540008288521C82800A00120C03688788DA5520
:104550008288521C82800120F2BD0000F8B5040060
:104560000D0000269FED8D0A00F02CFE0100DFF803
:104570003C080A00120A03688788DA558288521CB0
:10458000828002688388D1548288521C82800A000B
:10459000120E03688788DA558288521C82800A00CE
:1045A000120C03688788DA558288521C82800120A9
:1045B000F2BD30B40200DFF8F407002304688588F8
:1045C000635583885B1C8380DFF8E83793F82430D9
:1045D00004688588635583885B1C8380012030BC18
:1045E000704730B40200DFF8C407002304688588F0
:1045F000635583885B1C8380DFF8B83793F82530D8
:1046000004688588635583885B1C8380012030BCE7
:10461000704730B40200DFF89407002304688588EF
:10462000635583885B1C8380DFF8883793F82630D6
:1046300004688588635583885B1C8380012030BCB7
:10464000704730B40200DFF86407002304688588EF
:10465000635583885B1C83800023046885886355C9
:1046600083885B1C8380012030BC704730B402001B
:10467000DFF83807002304688588635583885B1C4E
:104680008380002304688588635583885B1C83804E
:10469000012030BC704730B40200DFF8100700235F
:1046A00004688588635583885B1C8380DFF808373E
:1046B0001B7804688588635583885B1C8380012090
:1046C00030BC7047F8B504000D00002000212E001A
:1046D00022683300DBB2D25C23683700FFB23B4470
:1046E0005F7857EA02273A0092B2012A03D03800D5
:1046F00080B2002822D1DFF8B40621683200D2B29D
:10470000895C02688388D1548188491C8180216832
:104710003200D2B21144497802688388D15481882A
:10472000491C8180DFF89006D0ED020A90ED010A65
:104730003800C0B2FFF7B2F9012000E00020F2BD5E
:10474000F8B504000D000026DFF86C0690ED020AB3
:1047500000F038FD0100DFF854060A00120A036871
:104760008788DA558288521C828002688388D154F7
:104770008288521C82800A00120E03688788DA55EC
:104780008288521C82800A00120C03688788DA55DE
:104790008288521C82800120F2BD000000000000CF
:1047A0002DE9F84304000D000026002000900027AA
:1047B000A84620684146C9B208448178206842462C
:1047C000D2B21044C07850EA012021684246D2B2E9
:1047D000895C22684346DBB21A4492F8019059EA98
:1047E000012959EA0049DFF8C40521684246D2B2DE
:1047F000895C02688388D1548188491C8180216842
:104800004246D2B21144497802688388D1548188E3
:10481000491C818021684246D2B2114489780268DD
:104820008388D1548188491C818021684246D2B254
:104830001144C97802688388D1548188491C8180D9
:104840006946484600F0E6FBDFF86C05DDED000A3E
:1048500090ED010A0078FFF721F90120BDE8F2830D
:10486000F8B504000D000026DFF84C0590ED010AB4
:1048700000F0A8FC0100DFF834050A00120A036802
:104880008788DA558288521C828002688388D154D6
:104890008288521C82800A00120E03688788DA55CB
:1048A0008288521C82800A00120C03688788DA55BD
:1048B0008288521C82800120F2BD2DE9F843040059
:1048C0000D000026002000900027A84620684146E1
:1048D000C9B20844817820684246D2B21044C078F8
:1048E00050EA012021684246D2B2895C22684346E0
:1048F000DBB21A4492F8019059EA012959EA0049B9
:10490000DFF8A80421684246D2B2895C0268838835
:10491000D1548188491C818021684246D2B2114419
:10492000497802688388D1548188491C8180216834
:104930004246D2B21144897802688388D154818872
:10494000491C818021684246D2B21144C97802686C
:104950008388D1548188491C81806946484600F08B
:1049600059FBDFF85404D0ED020A9DED000A0078EF
:10497000FFF794F80120BDE8F28370B504000D0044
:10498000DFF83864012220213000FDF72EFB0A20D9
:1049900001F0EAFF4FF47A732A0092B22100DFF8A7
:1049A000200402F032F8002220213000FDF71DFB28
:1049B00070BD7CB504000D00082100226E46300059
:1049C00001F026F90026DFF8E80304704570694617
:1049D00002783300DBB2CA54761C40783200D2B27F
:1049E0008854761C3200D2B292B26946DFF8D40302
:1049F00003F028F873BDDFF8CC030078C0B2FF28BD
:104A00000AD0DFF8AC03DFF8C01309780170DFF8D3
:104A1000BC130978417005E0DFF8940304210170AC
:104A20000321417070472DE9F04F87B00400002743
:104A30005FF000085FF000090025DFF89423D2E959
:104A40000001CDE902010026DFF88823D2E9000148
:104A5000CDE90401DFF854A35046FDF72FFBA088F1
:104A60000828C0F29E812068A188084410F8010C33
:104A70002168A288114411F8021C51EA0021ADF806
:104A80001810A188891E206801F0BEFBADF81A003D
:104A9000BDF81A00BDF81810884240F080812068E7
:104AA0000078C3490978884240F07981206880788D
:104AB0002168CF7857EA002720684078032807D07C
:104AC000042805D006286DD0102800F0C48062E1CB
:104AD000206800792168497951EA00210D005FF0D2
:104AE00001084046C0B20F2836DA5FF01409DFF83B
:104AF000E8B24046C0B209FB00F0584440683900B3
:104B000089B2884225D1280080B24146C9B209FB4A
:104B100001F15944896888421BDB0021002042468C
:104B2000D2B209FB02F25A44D268904701280FD151
:104B30004046C0B209FB00F0584480682D1A404638
:104B4000C0B209FB00F90BEB09008068C71900E04F
:104B500002E018F10108C4E7BAF80400002820D0E8
:104B6000BAF80400022190FBF1F201FB12000028C8
:104B700017D1DAF800000190BAF80400022190FB86
:104B8000F1F080B200903B009BB220684278206830
:104B9000017804A801F018FCBDF814100498FFF780
:104BA000ECFEFAE004200100C9B2A288921E9142F4
:104BB0000EDA21680200D2B2895C029ABDF80C308C
:104BC000D154BDF80C10491CADF80C10401CEAE79C
:104BD0005FF001084046C0B20F2817DA14227E4B5E
:104BE0004046C0B2504318444068390089B28842F8
:104BF00009D1002102A8C4465FFA8CFC02FB0CF22A
:104C00001A441269904718F10108E3E7BAF8040062
:104C100000281FD0BAF80400022190FBF1F201FB3A
:104C20001200002816D1DAF800000190BAF804004A
:104C3000022190FBF1F080B200903B009BB2062273
:104C40002068017804A801F010FCBDF81410049845
:104C5000FFF793FEA1E0002006002068007921689C
:104C6000497951EA00210D0007200100C9B2A2884C
:104C7000921E91420EDA21680200D2B2895C029A39
:104C8000BDF80C30D154BDF80C10491CADF80C1017
:104C9000401CEAE7280080B24000216889798842F8
:104CA0004DD1BDF80C002168897989B2884246D17E
:104CB0005FF001084046C0B20F2840DA5FF01409E7
:104CC000DFF814B14046C0B209FB00F05844406818
:104CD000390089B288422FD1280080B24146C9B23A
:104CE00009FB01F159448968884225DB310089B20A
:104CF00002A84246D2B209FB02F25A441269904716
:104D0000012818D14046C0B209FB00F05844806821
:104D1000400010FA86F64046C0B209FB00F0584445
:104D200080682D1A4046C0B209FB00F90BEB090060
:104D30008068C71900E002E018F10108BAE7BAF884
:104D40000400002826D0BAF80400022190FBF1F2FA
:104D500001FB120000281DD1206880782168C978E5
:104D600051EA00210F00DAF800000190BAF80400BF
:104D7000022190FBF1F080B200903B009BB2102228
:104D80002068017804A801F070FBBDF814100498A5
:104D9000FFF7F3FD01E0002004E0012002E0002025
:104DA00000E0002007B0BDE8F08F0000E80600201A
:104DB000340C0020782700205428002000040048EC
:104DC000542100200000020802000208030002082B
:104DD00094F800089CF800089005002001000800E5
:104DE000C0B2002801D1012021E00800C0B2FF2894
:104DF00001D10A201BE00800C0B2FE2801D16420C6
:104E000015E00800C0B2FD2802D14FF47A700EE020
:104E10000800C0B2FC2802D142F2107007E008007E
:104E2000C0B2FB2802D1DFF8980300E001207047F0
:104E30002DE9F24F82469346002000210A260027E2
:104E4000B046B946009A1588BBF1000F08D5DBF1D2
:104E500000042D202A0092B20AF802006D1C00E026
:104E60005C462000002142464B4602F083FE0029AA
:104E700001D1002808D0A6FB080106FB091107FB99
:104E8000081180468946ECE7404649460A2200233D
:104E900002F070FE06000F00002F01D1002E28D076
:104EA0002000002132003B0002F064FE3030290077
:104EB00089B20AF801006D1CA0465FF000092000CD
:104EC000002132003B0002F055FEA6FB002306FB4A
:104ED000013307FB0033B8EB020079EB0301040058
:104EE000300039000A22002302F044FE06000F00C1
:104EF000D2E7009805802800C0B2BDE8F28F2DE906
:104F0000FE4F06000F0090460020ADF80000002084
:104F1000002400215FF0000BB7F80090B8F1000FFB
:104F200002D5D8F1000500E0454642463900300080
:104F3000FFF77EFFB7F800A0002D4FD09DF80800C6
:104F4000FFF74CFF01008D4205D20A2045431BF1BB
:104F5000010B002DF7D15846C0B2002821D0504691
:104F60000200D2B2324412F8012C2D2A06D00200DF
:104F7000D2B24B4692B29BB29A4208D13022030081
:104F8000DBB2F2541AF1010ABBF1010BE3E70200B4
:104F9000D2B2324412F8012C0300DBB2F254401EAC
:104FA000DEE70A20B1FBF0F450468346002C15D012
:104FB0000A20B4FBF0F45846C0B2304410F8010C9B
:104FC0005946C9B27054BBF1010B002CEED12E2012
:104FD0005946C9B270541AF1010AE7E7A7F800A0D0
:104FE0005046C0B2BDE8FE8FF0B4049C00252E00F0
:104FF000B6B2A6420BD20E88771C0F802F00BFB22C
:1050000017FA83F7D75DB6B287556D1CEFE7F0BC92
:10501000704700002DE9F34F81B02DED028B9FED1D
:10502000658A002401250026F7EE008A0027380053
:10503000C0B2202864DA0398F84010F001000400A0
:105040003800C0B2172829DA18EE900A00F08CFA5E
:1050500082468B462000C0B200F078FA804689462E
:105060003800C0B2D0F117005FF0FF31484300F0C4
:10507000F3F841EC110B9FED500B00F006F951ECE9
:10508000100B42464B4602F08DFE52465B4602F044
:105090005BFF00F027FA08EE900A2FE03800C0B25C
:1050A0001F2824DA3000C0B200F050FA82468B4646
:1050B0002000C0B200F04AFA804689463800C0B2EB
:1050C000173800F0C9F841EC110B9FED3B0B00F0D5
:1050D000DCF851EC100B42464B4602F063FE5246A0
:1050E0005B4602F031FF02F0EDFF060006E0200013
:1050F000C0B2012802D15FF0FF3005007F1C96E7A7
:10510000280040B200F0A8F8804689463000C0B2BE
:105110007F3800F0A1F841EC110B9FED270B00F058
:10512000B4F851EC100B42464B4602F03BFE804671
:10513000894618EE900A00F017FA42464B4602F0F4
:1051400031FE00F0CFF900EE100A049880ED000A5D
:10515000BDEC028BBDE8F78F70B403000022002481
:10516000002000252A000E00D2B2F6B2B2421FD2B1
:105170002A00D2B29A5C302A0ADB2A00D2B29A5CA8
:105180003A2A05DA2A00D2B29A5C303A140001E0D9
:10519000002214002A00D2B2002A03D12200D2B287
:1051A000100003E00A22504350FA84F06D1CD9E746
:1051B00070BC7047000000000000000000000040CC
:1051C000A086010010B42DED010A00206A460023DC
:1051D000042B07D2D45C1900C9B2C9008C4020430B
:1051E0005B1CF5E712BC704700F10103810704D096
:1051F00010F8011B820781B1FAD10268A2F10131D6
:10520000914311F0803104BF50F8042FF6E709BA3A
:10521000B1FA81F100EBD100401CC01A704730B4E4
:10522000002513E050F8042BD30744BFA9F1010374
:105230009A18091F042942F8045BFAD213468C0716
:1052400044BF15809B1CC90748BF1D7050F8041B44
:105250000029E7D130BC7047C11768B14840401AF7
:10526000B0FA80F29040D21CC907C2F5846241EACC
:10527000025202EBD021400570470268531C0360C4
:105280001170704741EC100B01BD80B553EC112B30
:1052900051EC100B02F034FFF4E72E00F0B540F2B1
:1052A000FF7581EA030C0CF0004C15EA11541DBF88
:1052B00015EA1357AC42AF42E5E0BC41C1F313011C
:1052C000C3F31303801A994143F4801304D2641E7C
:1052D0004000494180185941C90241EA5051B1FB8F
:1052E000F3F603FB1611A2FB0675D7EBC020A9410C
:1052F00002D2761E80185941C90241EA5051B1FBD1
:10530000F3FE03FB1E11A2FB0E75D7EBC020A941D3
:1053100003D2AEF1010E80185941890241EA905141
:10532000760546EA8E2EB1FBF3F603FB1611A2FBBF
:105330000675D7EB8020A94102D2761E801859410C
:10534000C90241EA50514EEA060EB1FBF3F603FBE7
:105350001611A2FB0675D7EBC020A94102D2761E1A
:1053600080185941C90241EA5051B1FBF3F703FBE0
:105370001711A2FB0735D3EBC020A94167F1000745
:105380000CBF004247F0010766F3D5274FEA1E31F4
:10539000B80814F5806412DDBD0775F1004250EBCA
:1053A0000E5051EB045111F5801F5CBF41EA0C0116
:1053B000F0BD4CF07F6141F0E0410020F0BDBD0741
:1053C0006D0840EA0E5041F48011D4F10104B4F1AB
:1053D00020060ADAC4F120060200E04001FA06F3D2
:1053E000E1401843B24015430EE0342C13DCC6F103
:1053F000200445EA40056D0820FA06F2154321FA1B
:1054000006F0A1400D43002175F1004250F100006B
:1054100051EB0C01F0BD00205FEA0C01F0BDCFB9EB
:1054200092185B41B3FA83F704BFB2FA82F6BF1950
:105430000B3FB7F120062FBF02FA06F3BB40C7F1BE
:10544000200622FA06F638BF3343BA401CB1E419ED
:10545000641E33E77F4231F00041B1FA81F404BFAA
:10546000B0FA80F6A4190B3CB4F120062FBF00FA65
:1054700006F1A140C4F1200620FA06F638BF3143F8
:10548000A0403C1B1AE7AC421ABF05EA1357AF42D3
:1054900012E050EA41061CBF52EA4306BFE750EA59
:1054A0004107304661461CBF41EA0551F0BD52EA52
:1054B000430C08BFC143F0BD00204FF4001616EBAB
:1054C000410F98BF16EB430F08BF16EB410F24BFE7
:1054D000C14305E016EB430F0CBF61464CEA055192
:1054E000F0BD000001F000428B1AA3F16051B1F54C
:1054F000801F0ADBB1F17F6F1FD242EAC102C100F7
:1055000071F1004142EB507070470B15C3F1090374
:10551000212B10D2890241EA905180020128494191
:1055200041F0004121FA03F0C3F12003994071F1E9
:10553000004150417047100070476FF0000013EBBE
:10554000103F5CBF000E42EAC0507047014648B1B0
:10555000B0FA80F18840C91CC1F58461090501EBEE
:10556000D021400570470000C0F3C75181B1FF2929
:1055700006D0C110400721F0E04101F160517047B1
:1055800041020CBF40F4E0016FF000410020704781
:1055900000F0004100020AD0B0FA80FC00FA0CF0E2
:1055A00001F16051A1EB0C5101EBD0214005704796
:1055B0000CB430B583B00A4606A902910446002512
:1055C0000194009502AB01A9084878441E3003F00D
:1055D0000DF9019A157000284EBF04460198041B6E
:1055E000204603B030BC5DF80CFB00BF8FFCFFFF12
:1055F00080B5012240212348FCF7F7FC22492348CB
:1056000000F04EFA00F01EF8012000F005F800F05E
:10561000D1FA00F01FFA01BD704711B581B0194CE5
:10562000002240212000FCF7E0FC4FF47A730122B5
:1056300001A9174804F03AF9012240212000FCF7A3
:10564000D4FC13BD10B50F4C002240212000FCF704
:10565000CCFC002280212000FCF7C7FC012000F0D8
:1056600019F8052000F016F8012280212000FCF72F
:10567000BCFC052000F00EF8012240212000FCF7C0
:10568000B4FC10BD0008004870280020EC10002079
:105690005C25002010B50400200001F065F910BD64
:1056A00001480068704700BF8028002070B4039C48
:1056B000DFF88052286029716A71AB71EC710026A5
:1056C0002E7270BC70472DE9F84F04000D001600D3
:1056D00000275FF00008DFF85C9299F805000828C1
:1056E00080F2FC80300099F80610C0B2884205D3E1
:1056F00099F807003100C9B2884201D22E20060075
:10570000402099F80510491C90FBF1F02900C9B21E
:10571000814280F2E38099F8040050FA84F08028F6
:1057200080F2DC8099F805305B1C99F8050003FBDA
:1057300005035B1CDBB299F804201219D2B299F868
:105740000500401C15FB00F1C9B22000C0B200F0FA
:1057500029F90021080099F80420C0B2904280F095
:10576000BD80002015FB00F00200D2B2082392FB9E
:10577000F3F21700C0B2082290FBF2F302FB130011
:105780008046FF226C4BD3F800C03800C0B250FAFC
:1057900085FE802000FB0EFE5EFA84FED3F800A09A
:1057A0003800C0B250FA85FB802000FB0BFB5BFA8F
:1057B00084F01AF800A0D8F1080B100050FA0BF092
:1057C00010EA0A0A0CF80EA0D3F800C03800C0B2E4
:1057D00050FA85FE802000FB0EFE5EFA84F00090F9
:1057E000D3F800E03800C0B250FA85FA802000FB00
:1057F0000AFA5AFA84F01EF800E0D9F800A0B3467D
:105800005FFA8BFB99F80600BBEB000099F804B037
:105810000BFB00FB0AEB0B008A465FFA8AFA10F8D2
:105820000A0010FA08F050EA0E00DDF800E00CF86B
:105830000E00D3F800C03800C0B250FA85FE8020B8
:1058400000FB0EFE5EFA84F08444D3F800E03800DA
:10585000C0B250FA85FA802000FB0AFA5AFA84F0A6
:10586000704490F8800012FA08F202408CF8802010
:105870001A683800C0B250FA85FC802000FB0CFC8E
:105880005CFA84F002441B683800C0B250FA85FC10
:10589000802000FB0CFC5CFA84F0184490F8803007
:1058A000D9F800C0B6465FFA8EFE99F80600BEEB46
:1058B000000E99F8040000FB0EFE0CEB0E008C4667
:1058C0005FFA8CFC10F80C00D8F1080C50FA0CF0C0
:1058D000034382F88030641C491C3BE7BDE8F18F2C
:1058E000F8B507000C001600124D6879082820DA78
:1058F000307800281DD032782100C9B23800C0B2FB
:10590000FFF7E1FE761C2879401CC719287950FA68
:1059100087F0401C812802DB00200700641C402027
:105920006979491C90FBF1F02100C9B28142DFDBAB
:10593000FFE7F1BD48280020742800200200012064
:105940000B00DBB21B011344587000200B00DBB2CC
:105950001B01134458600120704738B504000D0046
:1059600001202900C9B2090121444870FFF798FEBF
:105970002900C9B2090121444860012032BD02005A
:1059800000200B00DBB21B0113445870012070474C
:1059900080B5034800F024FC00F0CDF801BD000004
:1059A00010E7000870B40400E4B2802C01DB7F240F
:1059B00020001400E4B2802C01DB7F2422000C00C4
:1059C000E4B2402C01DB3F2421001C00E4B2402C57
:1059D00001DB3F242300354C050026683678EDB204
:1059E000B54201D2256828702568AD781600F6B258
:1059F000B54201D22568AA700D0026687678EDB20E
:105A0000B54201D2256869702568ED781E00F6B2AE
:105A1000B54201D22468E37070BC704723487F21EF
:105A2000026811700021026891703F210268517074
:105A300000210068C17070471C4800210268117085
:105A40007F21026891700021026851703F21006837
:105A5000C170704770B54FF4806400251448066823
:105A60002A002100300000F0D3F83F237F220021DC
:105A70000020FFF797FF00F05EF870BD70B54FF49F
:105A8000806400250A4806682A002100300000F0E2
:105A9000BFF83F237F2200210020FFF783FF70BD66
:105AA000034A1060014A1160704700007828002006
:105AB0007428002010B5040000224FF480713A4889
:105AC000FCF793FA2000C0B2FFF7A7FD10BD10B598
:105AD000040001224FF480713348FCF786FA20005D
