:020000040800F2
:10000000F82B002039EF0008A5E80008A7E8000851
:10001000A9E80008ABE80008ADE80008000000000F
:10002000000000000000000000000000AFE8000831
:10003000B1E8000800000000B3E80008B5E80008D7
:1000400079F200087DF2000881F2000885F20008CC
:1000500089F200088DF2000891F2000895F200087C
:1000600099F200089DF20008A1F20008A5F200082C
:10007000A9F2000805E90008ADF200080FE9000840
:10008000B1F20008B5F20008B9F20008BDF20008AC
:10009000C1F20008C5F20008C9F20008CDF200085C
:1000A000D1F20008D5F20008D9F20008DDF200080C
:1000B000E1F200080000000000000000E5F2000886
:1000C000E9F20008EDF20008F1F20008F5F200088C
:1000D000F9F2000819E90008FDF2000823E9000818
:1000E00001F300082DE900080000000000000000F6
:1000F0000000000000000000000000000000000000
:100100000000000005F300080000000009F30008EB
:1001100000000000000000000DF3000811F30008CB
:1001200015F3000819F300081DF3000821F3000877
:1001300025F300080000000000000000000000009F
:1001400029F300082DF3000831F3000835F3000807
:1001500039F3000837E9000841E900083DF30008D9
:1001600041F3000845F3000849F3000800000000CF
:100170004DF3000851F3000855F30008000000009B
:1001800059F300085DF3000861F3000880B5DFF85B
:10019000240B0078012806D0022807D0042808D0B4
:1001A000082809D00BE000F09DF808E000F092FD6F
:1001B00005E000F01BFF02E001F090F8FFE701BD51
:1001C0002DE9F0470024DFF8F05A2888002804D0F1
:1001D0002888401E2880002082E0DFF8D86A307A24
:1001E00000287CD12021DFF8D40A01F0F3FC00289C
:1001F00001D1012700E00027DFF8C48A042140462E
:1002000001F0E8FC002802D15FF0010901E05FF095
:1002100000090221404601F0DDFC002802D15FF018
:10022000010A01E05FF0000A0121404601F0D2FC22
:10023000002801D1012000E0002057EA490757EAD1
:100240008A073C0054EAC0042000C0B2012805D04F
:10025000022803D0042801D0082836D17068401C39
:100260007060706850282FD3347001203072DFF82E
:10027000541A0868142801D219202880DFF8480A87
:1002800022000378D2B29A4219D10A68521C0A603D
:100290000A681E2A02D20021716014E00A68B42A9A
:1002A00002D2412171600EE00A68F02A02D2462192
:1002B000716008E04E227260F0220A6003E00022C2
:1002C000726000220A60047009E00020DFF8F8196B
:1002D0000870282070600020DFF8E8190860307886
:1002E000BDE8F0877FB5DFF8E449A078002814D096
:1002F000012837D0022867D0032800F0DE800428C8
:1003000000F06181052800F0A382062800F0278311
:10031000082800F0EC8300F0CBBCDFF898590020EF
:10032000E860DFF8AC690A220021300001F0D8FC57
:1003300030203070302070703020B0703020F0707D
:10034000E8680001801CC0B203900296052001906D
:1003500004200090052300220121A01C02F09CFA39
:1003600000F0A6BCDFF84C09C168491CC160C16837
:1003700004291EDBDFF8580902F0A9FA012815D17B
:10038000A51C0622290014F1080001F0F7FCF12059
:100390000390002002900B2001900720009007237B
:1003A00000220221280002F077FA0BE00020A07062
:1003B00008E0C0680001801C0200D2B20021A01C2D
:1003C00002F047FA00F074BC2079072807D073D3F5
:1003D000092830D019D30B2859D042D36CE0A51C82
:1003E0000622290014F1080001F0C8FCF120039056
:1003F000002002900E2001900D2000900D2300227D
:100400000321280002F048FA56E0A51C0622290024
:1004100014F1080001F0B2FCF120039000200290DA
:10042000162001901220009012230022042128009F
:1004300002F032FA40E0A51C0622290014F108005F
:1004400001F09CFCF1200390002002901A20019002
:1004500018200090182300220521280002F01CFA21
:100460002AE0A51C0622290014F1080001F086FCF0
:10047000F1200390002002901E2001901C2000908B
:100480001C2300220621280002F006FA14E0A51C15
:100490000622290014F1080001F070FC00200390EE
:1004A0000020029021200190212000902123002291
:1004B0000721280002F0F0F9FAE320790D2802D094
:1004C0000E2840D07EE0E078002802D001281FD01E
:1004D00038E0A61C0622310014F1080001F04EFCA1
:1004E000DFF8D057F220039015F10C0002900E2097
:1004F00001900D2000900D23E278521CD2B203210E
:10050000300002F0C9F9DFF8DC0A4078E86019E051
:10051000A51C0622290014F1080001F02FFCF02090
:100520000390002002902420019024200090242396
:1005300000220821280002F0AFF90120DFF8A41AF8
:100540000870FFE73EE0E078002802D001281FD0C5
:1005500038E0A61C0622310014F1080001F00EFC60
:10056000DFF85057F220039015F10C0002900E2096
:1005700001900E2000900E23E278521CD2B203218B
:10058000300002F089F9DFF85C0A4068E86019E0A1
:10059000A51C0622290014F1080001F0EFFBF02051
:1005A0000390002002902420019024200090242316
:1005B00000220821280002F06FF90120DFF8241A38
:1005C0000870FFE774E3207912280BD0C0F03F8158
:1005D000142800F093804BD3162800F01B81C0F044
:1005E000D38034E1E078002802D001281FD03EE01B
:1005F000A61C0622310014F1080001F0BFFBDFF851
:10060000B456F220039015F10C00029016200190D0
:10061000122000901223E278521CD2B20421300042
:1006200002F03AF9DFF8BC09006BE8601FE0A51C96
:100630000622290014F1080001F0A0FBF02003902D
:1006400000200290242001902420009024230022E6
:100650000821280002F020F9DFF88C19DFF8540691
:10066000C06808800222052002F07EFFFFE7EEE06E
:10067000E078002802D001281FD03EE0A61C062208
:10068000310014F1080001F079FBDFF82856F22060
:10069000039015F10C00029016200190122000909A
:1006A0001323E278521CD2B20421300002F0F4F895
:1006B000DFF83009406BE8601FE0A51C0622290026
:1006C00014F1080001F05AFBF02003900020029082
:1006D00024200190242000902423002208212800B7
:1006E00002F0DAF8DFF80019DFF8C805C068088002
:1006F0000222062002F038FFFFE7A8E0E078002899
:1007000002D001281FD03EE0A61C0622310014F1C1
:10071000080001F033FBDFF89C55F220039015F13F
:100720000C00029016200190122000901423E27811
:10073000521CD2B20421300002F0AEF8DFF8A40857
:10074000806BE8601FE0A51C0622290014F1080058
:1007500001F014FBF020039000200290242001906F
:1007600024200090242300220821280002F094F87D
:10077000DFF87418DFF83C05C06808800222072003
:1007800002F0F2FEFFE762E0E078002802D00128E4
:100790001FD03EE0A61C0622310014F1080001F033
:1007A000EDFADFF81055F220039015F10C000290DD
:1007B00016200190122000901523E278521CD2B22C
:1007C0000421300002F068F8DFF81808C06BE86018
:1007D0001FE0A51C0622290014F1080001F0CEFA42
:1007E000F02003900020029024200190242000900B
:1007F000242300220821280002F04EF8DFF8E81731
:10080000DFF8B004C06808800222082002F0ACFEC5
:10081000FFE71CE0A51C0622290014F1080001F0E6
:10082000ADFAF020039000200290242001902420B3
:100830000090242300220821280002F02DF8DFF880
:10084000A817002008800222092002F08DFE2FE266
:100850002079182802D01A2840D07FE0E0780028BC
:1008600002D001281FD038E0A61C0622310014F166
:10087000080001F083FADFF83C54F220039015F1F0
:100880000C0002901A200190182000901823E278A2
:10089000521CD2B20521300001F0FEFFDFF8440700
:1008A000406AE86019E0A51C0622290014F108003E
:1008B00001F064FAF02003900020029024200190BF
:1008C00024200090242300220821280001F0E4FFC6
:1008D0000120DFF810170870FFE73FE0E0780028FC
:1008E00002D001281FD038E0A61C0622310014F1E6
:1008F000080001F043FADFF8BC53F220039015F131
:100900000C0002901A200190182000901A23E2781F
:10091000521CD2B20521300001F0BEFFDFF8C40640
:10092000C06AE86019E0A51C0622290014F108003D
:1009300001F024FAF020039000200290242001907E
:1009400024200090242300220821280001F0A4FF85
:100950000120DFF890160870FFE7FFE7A8E1207993
:100960001C2806D0C0F0C2801E2800F080803FD333
:10097000BCE0E078002802D001281ED037E0A61C99
:100980000622310014F1080001F0F8F9C94DF220F7
:10099000039015F10C0002901E2001901C20009085
:1009A0001C23E278521CD2B20621300001F074FF01
:1009B000DFF80C090078E86019E0A51C0622290080
:1009C00014F1080001F0DAF9F02003900020029001
:1009D00024200190242000902423002208212800B4
:1009E00001F05AFF0120DFF8FC150870FFE77DE0F9
:1009F000E078002802D001281ED037E0A61C06228D
:100A0000310014F1080001F0B9F9AA4DF220039069
:100A100015F10C0002901E2001901C2000901D2357
:100A2000E278521CD2B20621300001F035FFDFF827
:100A3000B405006CE86019E0A51C0622290014F139
:100A4000080001F09BF9F020039000200290242080
:100A5000019024200090242300220821280001F086
:100A60001BFF0120DFF87C150870FFE73EE0E0780F
:100A7000002802D001281ED037E0A61C0622310033
:100A800014F1080001F07AF98A4DF220039015F173
:100A90000C0002901E2001901C2000901E23E27882
:100AA000521CD2B20621300001F0F6FEDFF8340508
:100AB000406CE86019E0A51C0622290014F108002A
:100AC00001F05CF9F02003900020029024200190B6
:100AD00024200090242300220821280001F0DCFEBD
:100AE0000120DFF800150870FFE7FFE7E0E0207A5B
:100AF000032809D0C0F0DB80052838D0C0F0D480AE
:100B0000062800F08980D2E0322001F08AFB032021
:100B1000DFF8D0140870A07A0D2802D00E2809D072
:100B200024E0DFF8A00741786248C068C0B203F053
:100B30000AFC1BE000200100C9B20B290FDADFF824
:100B400088170200D2B251F822105A4AD268914254
:100B500003D1DFF87017487001E0401CEBE7DFF8C5
:100B600064074178007803F0EEFBFFE79FE0DFF8D1
:100B7000745403202870322001F053FBA07A182807
:100B800004D048D31A282FD017D344E0287A03F092
:100B9000EBFD00EE100ADFF8340790ED091AD0EDF6
:100BA000080A4448D0ED031AF8EEE11AB8EE400AFC
:100BB00081EE800A02F07CFD2DE0687A03F0D4FD1E
:100BC00000EE100ADFF8040790ED091A3949D1ED5B
:100BD000030AF8EEE00AB8EE400AC0EE800A90ED93
:100BE000070A02F065FD16E0A87A03F0BDFD00EEED
:100BF000100ADFF8D8062F49D1ED030AF8EEE00A13
:100C0000B8EE400A80EE801AD0ED080A90ED070A8F
:100C100002F04EFDFFE74AE0DFF8C85303202870DA
:100C2000322001F0FEFAA07A1C2804D03BD31E2803
:100C300023D00CD337E0DFF88806D0ED020A90ED20
:100C4000010A1C48C068C0B202F02CFE2BE0E87A12
:100C500003F08AFD00EE100ADFF864061549D1EDB5
:100C6000030AF8EEE00AB8EE400AC0EE800A90ED02
:100C7000010A007802F016FE15E0E87A03F074FD30
:100C800000EE100ADFF83806D0ED020A094991EDAE
:100C9000031AB8EEC11AB8EE400A81EE000A0078D5
:100CA00002F000FEFFE702E002F050FCFFE7FFE782
:100CB0007FBD000004270020D02700200008004846
:100CC0000004004880270020E02700204C27002057
:100CD0000000002010B5DFF8F835987800280BD018
:100CE00002281BD009D3042873D024D3062800F08F
:100CF0001F81C0F0EA8073E172E1DFF8D805DFF808
:100D0000D815CA68825C521CCB68C254CA68825C1F
:100D10003A2A02DB3022C968425461E158791979D4
:100D2000884202D21879401E1871F1220021981CC5
:100D300001F08FFD54E1D87800280CD15879197949
:100D4000884202D21879401E1871F1220021981CA5
:100D500001F07FFD3CE018790D2802D00E2812D05A
:100D600036E0D878002802D0012801D00AE009E056
:100D7000DFF86405C168B1F5807F02DAC168491CFB
:100D8000C160FFE724E0D878002802D0012801D014
:100D90001EE01DE000210800C0B20B2817DADFF8C2
:100DA0002825DFF834050B00DBB252F82330C46885
:100DB000A3420AD10B00DBB20A2B06DA0B00DBB22E
:100DC00002EB83025268C26001E0491CE3E7FFE7DF
:100DD00006E1D87800280CD158791979884202D2D6
:100DE0001879401E1871F1220021981C01F031FD84
:100DF0006AE01879122807D066D3142834D01BD3A0
:100E0000162861D048D35FE0D878002802D00128A6
:100E100001D010E00FE0DFF86C0A007A03F0A4FCC8
:100E2000DFF8B424D368C8214843834202D2D06893
:100E30006430D060FFE747E0D878002802D001286E
:100E400001D010E00FE0DFF83C0A007A03F08CFCE0
:100E5000DFF88424D368C8214843834202D2D06893
:100E60006430D060FFE72FE0D878002802D0012856
:100E700001D010E00FE0DFF80C0A407A03F074FCB8
:100E8000DFF85424D368C8214843834202D2D06893
:100E9000401CD060FFE717E0D878002802D0012876
:100EA00001D010E00FE0DFF8DC09407A03F05CFCD1
:100EB000DFF82424D368C8214843834202D2D06893
:100EC000401CD060FFE7FFE78AE0D87800280CD10B
:100ED00058791979884202D21879401E1871F12286
:100EE0000021981C01F0B5FC21E01879182802D0E7
:100EF0001A280ED01BE0D878002802D0012801D093
:100F000006E005E0DFF8D003C168491CC160FFE7D7
:100F10000DE0D878002802D0012801D006E005E0D5
:100F2000DFF8B403C168491CC160FFE7FFE757E081
:100F3000D87800280CD158791979884202D21879CA
:100F4000401E1871F1220021981C01F082FC46E03D
:100F500018791C2804D042D31E282CD013D33EE08D
:100F6000D878002802D0012801D00BE00AE0DFF891
:100F70006813C868002802D10120C86001E0002081
:100F8000C860FFE72BE0D878002802D0012801D004
:100F900010E00FE0DFF8EC08C07A03F0E5FBDFF8C3
:100FA0003823D368C8214843834202D2D068401C0A
:100FB000D060FFE713E0D878002802D0012801D0E4
:100FC0000CE00BE0DFF81003C168DFF8B828126C02
:100FD000914202DAC168491CC160FFE7FFE7FFE701
:100FE00010BD00007C000020D227002010B5DFF8E3
:100FF000E032987800280BD002281BD009D30428AF
:1010000072D024D3062800F00281C0F0CD8056E1D2
:1010100055E1DFF8C002DFF87018CA68825C521E22
:10102000CB68C254CA68825C302A02DA3922C968A5
:10103000425444E118799979884202D21879401CC7
:101040001871F1220021981C01F003FC37E1D878D7
:1010500000280CD118799979884202D21879401C5D
:101060001871F1220021981C01F0F3FB3BE0187984
:101070000D2802D00E2811D035E0D878002802D0F3
:10108000012801D009E008E0DFF8FC07C168012968
:1010900002DBC168491EC160FFE724E0D878002860
:1010A00002D0012801D01EE01DE00A221000C0B2CB
:1010B000002817D0844BDFF8D0171000C0B253F8C7
:1010C0002000CC68A0420BD11000C0B2002807D08D
:1010D0001000C0B203EB800050F8040CC86001E0BF
:1010E000521EE3E7FFE7EAE0D87800280CD1187930
:1010F0009979884202D21879401C1871F122002196
:10110000981C01F0A6FB4EE01879122807D04AD3AC
:10111000142826D014D3162845D033D343E0D878EA
:10112000002802D0012801D009E008E0DFF85807C4
:10113000C168012902DBC1686439C160FFE732E0A0
:10114000D878002802D0012801D009E008E0DFF8B3
:101150003807C168012902DBC1686439C160FFE753
:1011600021E0D878002802D0012801D009E008E069
:10117000DFF81407C168012902DBC168491EC1609C
:10118000FFE710E0D878002802D0012801D009E05C
:1011900008E0DFF8F406C168012902DBC168491ED6
:1011A000C160FFE7FFE78AE0D87800280CD1187902
:1011B0009979884202D21879401C1871F1220021D5
:1011C000981C01F046FB21E01879182802D01A2853
:1011D0000ED01BE0D878002802D0012801D006E00C
:1011E00005E0DFF8A406C168491EC160FFE70DE015
:1011F000D878002802D0012801D006E005E0DFF809
:101200008806C168491EC160FFE7FFE757E0D8784C
:1012100000280CD118799979884202D21879401C9B
:101220001871F1220021981C01F013FB46E0187997
:101230001C2804D042D31E2828D013D33EE0D878EF
:10124000002802D0012801D00BE00AE0DFF83816B0
:10125000C868002802D10120C86001E00020C860F1
:10126000FFE72BE0D878002802D0012801D00CE05D
:101270000BE0DFF81406DFF80C16496CC2689142E7
:1012800002DAC168491EC160FFE717E0D87800287C
:1012900002D0012801D010E00FE0DFF8E805C07AA5
:1012A00003F062FADFF8E02500214843D168884264
:1012B00002D2D068401ED060FFE7FFE7FFE710BD15
:1012C00068270020640B0020F8050020102600206D
:1012D0004C27002000000020042700207FB5DFF805
:1012E000AC45A078002811D0022813D00FD30428D1
:1012F00000F0868011D3062800F00582C0F09281AC
:10130000082800F0B082C0F0A782B9E2B8E200205D
:10131000A070B5E20020A070B2E220790D2802D0C2
:101320000E2836D06BE0E078002802D0012816D0D5
:101330002EE0A51CF1200390002002900B200190CC
:1013400007200090072300220221280001F0A4FAC0
:101350000622290014F1080000F010FD18E0A51C79
:101360000622290014F1080000F008FDF120039086
:10137000DFF81C0502900E2001900D2000900D2337
:10138000E078421ED2B20321280001F085FAFFE77F
:1013900035E0E078002802D0012816D02EE0A51C08
:1013A000F1200390002002900B2001900720009074
:1013B000072300220221280001F06EFA06222900EC
:1013C00014F1080000F0DAFC18E0A51C0622290040
:1013D00014F1080000F0D2FCF1200390DFF8B4040F
:1013E00002900E2001900D2000900E23E078421E06
:1013F000D2B20321280001F04FFAFFE7FFE73FE2F6
:10140000207912280BD0C0F00C81142800F07F80C6
:1014100041D3162800F0EF80C0F0B38001E1E078FE
:10142000002802D0012816D034E0A51CF12003903A
:10143000002002900B20019007200090082300223A
:101440000221280001F028FA0622290014F10800E0
:1014500000F094FC1EE0A61C0622310014F10800E6
:1014600000F08CFCDFF81C54F120039015F13000E3
:10147000029016200190122000901223E078421E64
:10148000D2B20421300001F007FADFF8FC03C06893
:101490002863FFE7C5E0E078002802D0012816D0D5
:1014A00034E0A51CF1200390002002900B20019055
:1014B00007200090082300220221280001F0ECF907
:1014C0000622290014F1080000F058FC1EE0A61CBA
:1014D0000622310014F1080000F050FCDFF8A4539C
:1014E000F120039015F13400029016200190122093
:1014F00000901323E078421ED2B20421300001F0A4
:10150000CBF9DFF88403C0686863FFE789E0E0781F
:10151000002802D0012816D032E0A51CF12003904B
:10152000002002900B200190072000900823002249
:101530000221280001F0B0F90622290014F1080068
:1015400000F01CFC1CE0A61C0622310014F108006F
:1015500000F014FCCB4DF120039015F138000290FF
:1015600016200190122000901423E078421ED2B27F
:101570000421300001F090F9C348C068A863FFE778
:101580004FE0E078002802D0012816D032E0A51CF8
:10159000F1200390002002900B2001900720009082
:1015A000082300220221280001F076F906222900F2
:1015B00014F1080000F0E2FB1CE0A61C062231003A
:1015C00014F1080000F0DAFBAE4DF120039015F1A4
:1015D0003C00029016200190122000901523E07824
:1015E000421ED2B20421300001F056F9A648C0686C
:1015F000E863FFE715E0A51CF120039000200290AE
:101600000B200190072000900823002202212800CF
:1016100001F042F90622290014F1080000F0AEFBA7
:10162000FFE72DE12079182802D01A2835D069E08B
:10163000E078002802D0012816D02DE0A51CF1206A
:101640000390002002900B200190072000900923B6
:1016500000220221280001F01FF90622290014F1BE
:10166000080000F08BFB17E0A51C0622290014F1EE
:10167000080000F083FBF1200390874802901A20B5
:101680000190182000901823E078421ED2B2052164
:10169000280001F001F9FFE734E0E078002802D0EB
:1016A000012816D02DE0A51CF12003900020029007
:1016B0000B2001900720009009230022022128001E
:1016C00001F0EAF80622290014F1080000F056FBA8
:1016D00017E0A51C0622290014F1080000F04EFBBB
:1016E000F12003906D4802901A200190182000907C
:1016F0001A23E078421ED2B20521280001F0CCF86E
:10170000FFE7FFE7BCE020791C2805D0C0F0A380EC
:101710001E286BD035D39EE0E078002802D0012847
:1017200016D02DE0A51CF1200390002002900B2084
:101730000190072000900A2300220221280001F0D6
:10174000ABF80622290014F1080000F017FB17E09F
:10175000A51C0622290014F1080000F00FFBF1205F
:1017600003904F4802901E2001901C2000901C23E3
:10177000E078421ED2B20621280001F08DF8FFE782
:1017800069E0E078002802D0012816D02DE0A51CE1
:10179000F1200390002002900B2001900720009080
:1017A0000A2300220221280001F076F806222900EF
:1017B00014F1080000F0E2FA17E0A51C0622290047
:1017C00014F1080000F0DAFAF12003903548029095
:1017D0001E2001901C2000901D23E078421ED2B2F2
:1017E0000621280001F058F8FFE734E0E0780028EF
:1017F00002D0012816D02DE0A51CF1200390002076
:1018000002900B200190072000900A230022022161
:10181000280001F041F80622290014F1080000F028
:10182000ADFA17E0A51C0622290014F1080000F00B
:10183000A5FAF12003901C4802901E2001901C2064
:1018400000901E23E078421ED2B20621280001F04B
:1018500023F8FFE7FFE713E0062214F10801A01CBC
:1018600000F08CFA0CE0074D2878022807D00622F9
:1018700014F10801A01C00F081FA00202870FFE795
:101880007FBD00007C000020042700204C270020A2
:101890007D00002080000020A0000020A800002083
:1018A00068270020BC000020C0000020F8B403001E
:1018B00000250868E840002800F0D78001260F685E
:1018C00016FA05F007403A00002A00F0CC800879AB
:1018D00010F00300012804D0087910F0030002285A
:1018E0001DD19F685FF0030C2800C0B240001CFAB5
:1018F00000FC37EA0C07D1F80CC02800C0B2400049
:101900001CFA00FC5CEA07079F605868AE40B043D1
:101910004E68C6F30016AE40304304005C600879A0
:1019200010F0030003280ED0DE6803272800C0B2A1
:1019300040008740BE438F682800C0B24000874007
:101940003E433400DC60087910F00300022818D10F
:101950002800C00803EB8000066A0F2715F0070077
:10196000C0B280008740BE430F6915F00700C0B2C7
:10197000800087403E4334002800C00803EB80000D
:1019800004621E6803272800C0B240008740BE439F
:101990000F7917F003072800C0B2400087403E438C
:1019A00034001C60486810F4403F5CD095480668DD
:1019B00056F001060660006810F0010000900098E3
:1019C000914F2800800857F820605FF00F0C15F049
:1019D0000300C0B280001CFA00FC36EA0C06B3F12A
:1019E000904F01D1002414E08848834201D10124A2
:1019F0000FE08748834201D102240AE085488342F0
:101A000001D1032405E08448834201D1042400E08D
:101A1000072415F00300C0B280008440264328004C
:101A2000800847F820607D4C206890434F68FF0293
:101A300000D5104320607A4E346894434F68BF024B
:101A400000D514433460774E306890434F68BF032D
:101A500000D510433060744E346894434F68FF03E0
:101A600000D5144334606D1C23E7F1BC70472DE9A9
:101A7000F041030000250800E840002800F0A8809D
:101A8000012616FA05F008400200002A00F09E80A8
:101A9000DFF874C1280080085CF820000F2715F0DB
:101AA000030E5FFA8EFE5FEA8E0E17FA0EFE1EEA36
:101AB00000000400B3F1904F02D15FF0000E19E076
:101AC0005248834202D15FF0010E13E05048834236
:101AD00002D15FF0020E0DE04E48834202D15FF06A
:101AE000030E07E04C48834202D15FF0040E01E090
:101AF0005FF0070E15F00300C0B280001EFA00FE72
:101B000074452CD14848D0F800E03EEA020EC0F8F7
:101B100000E04448D0F800E03EEA020EC0F800E0E1
:101B20003F48D0F800E03EEA020EC0F800E03B4833
:101B3000D0F800E03EEA020EC0F800E015F0030025
:101B4000C0B2800017FA00F00400280080085CF89A
:101B50002000A043AE465FEA9E0E4CF82E005FF0D8
:101B6000030C1868AE465FFA8EFE5FEA4E0E1CFA52
:101B70000EFE5EEA000018602800C00803EB800E2D
:101B80002800C00803EB8000D0F8208015F0070083
:101B9000C0B28000874038EA0707CEF82070986806
:101BA0002F00FFB27F001CFA07F7B843986058680F
:101BB000AE4030EA06065E60DE682800C0B2400033
:101BC0001CFA00FC36EA0C0CC3F80CC06D1C52E782
:101BD000BDE8F081020010690B009BB2184201D0F1
:101BE000012000E00020C0B270471300DBB2002BE0
:101BF00003D00B009BB2836102E00B009BB28362B7
:101C000070470000601002400800014000040048D6
:101C100000080048000C004800100048080401407B
:101C20000C040140040401400004014038B50400E4
:101C30000D00DFF8FC010168200000F006F8A84262
:101C400001D3012000E0002032BD814204D25FF0C8
:101C5000FF32101A081800E0081A704738B52DED49
:101C6000048B08EE100A0C001500DFED438A2800F3
:101C7000C0B2FB2810DBB8EEC89A2800C0B24042C0
:101C8000C0B200F08BF829EE009A00212000B0EEDF
:101C9000490A00F0B1F80EE0B8EEC89A2800C0B2C8
:101CA00000F07CF889EE009A2900C9B22000B0EE5D
:101CB000490A00F0A1F8BDEC048B31BD10B400213D
:101CC0000A00838892B29A4206D2002203680C006E
:101CD000A4B21A55491CF3E70022828010BC704759
:101CE00010B4040013005A1E9BB2002B02D02170C6
:101CF000641CF7E710BC704770B504000D001600B7
:101D0000DFF8240100782100C9B2884209D3DFF846
:101D100024211068002804D0310089B228001268FC
:101D2000904770BD38B504000D00280002F022FF76
:101D3000020092B229002000C0B2FFF7DDFF31BDE2
:101D400070B504000D00280002F014FF020092B2EA
:101D500029002000C0B2FFF7CFFFDFF8DC60306859
:101D6000002807D0280002F005FF010089B22800F2
:101D70003268904770BD00000000000030B40400DD
:101D80000D0013005A1E9BB2002B04D02B78237039
:101D90006D1C641CF5E730BC7047000010B50400F2
:101DA0002000C0B2FB2816DB2000C0B2D0F5807046
:101DB00002F018FF41EC110B9FED200B02F02BFFFE
:101DC00053EC102B0020194902F02EFF03F050F8BD
:101DD00000EE100A0FE02000C0B203F07DF841ECE5
:101DE000110B9FED160B02F016FF51EC100B03F0D8
:101DF0003FF800EE100A10BD38B52DED028B82B011
:101E0000B0EE408A04000D0018EE100A03F072F8DC
:101E1000CDE900012A000B49200003F08FF802B041
:101E2000BDEC028B31BD0000680B00200000F03FCC
:101E3000C0270020C8270020C42700200000000081
:101E4000000024405CF2000880B500224FF40071CD
:101E5000DFF84C0BFFF7C9FE00224FF400715FF072
:101E60009040FFF7C2FE03F089F8DFF8380BDFF887
:101E7000381B4A1CC0F840210A1DC0F8582111F136
:101E8000180202620A7A80F8252011F1200282638A
:101E90008A7A80F83D2011F10C02C0F888210A7A74
:101EA00080F88D2111F11002C0F8A0214A7A80F843
:101EB000A52111F13002C0F8B8210A7A80F8BD21BD
:101EC00011F13402C0F8D0210A7A80F8D52111F13D
:101ED0003802C0F8E8214A7A80F8ED2111F13C027D
:101EE000C0F800224A7A80F8052211F12402C0F8D5
:101EF00048220A7A80F84D2211F12802C0F86022A7
:101F00004A7A80F8652211F12C02C0F878228A7A88
:101F100080F87D22DFF89C2AC0F8A82211F1400247
:101F2000C0F8C022CA7A80F8C52211F14402C0F874
:101F3000D822C97A80F8DD12DFF87C1A0968C0F867
:101F40002013DFF8781A0968C0F8501301BD38B5BE
:101F5000002000242000C0B2072835DADFF8605ADC
:101F60002000C0B200012844407801282AD1200076
:101F7000C0B200012844406800280ED003F056F893
:101F80002100C9B2090129444968401A2100C9B297
:101F9000090129448968884214D300202100C9B26C
:101FA00009012944487003F041F82100C9B2090130
:101FB000294448602000C0B22100C9B20901294467
:101FC000C9688847641CC5E7002032BD38B50400E5
:101FD000DFF8F059687800281FD100224FF4007113
:101FE000DFF8BC09FFF701FE00224FF400715FF03B
:101FF0009040FFF7FAFD02F0C1FF892000902023F6
:1020000007220521DFF8C00903F016F801206870E7
:102010000221DFF8AC0903F057F9012032BD7CB58D
:102020000400DFF8A8592878002803D0022823D01C
:1020300003D33DE003F072F93AE003F0E5F98920BB
:102040000090202307220521DFF87C0902F0F4FF2D
:10205000DFF87C2903212C2003F008F9DFF874292C
:102060000421082003F002F903F02BFA41F2883032
:10207000DFF84C1988611BE00120DFF8481948702F
:1020800089200090202307220521DFF83C0902F077
:10209000D3FFDFF82C690221300003F015F903218A
:1020A000300003F011F90421300003F00DF9FFE7CF
:1020B0002878401C28702100C9B2DFF8040903F019
:1020C00012F9012076BD70B5040000F0BCF8DFF80D
:1020D000F4586878012803D1A87800F091FB04E057
:1020E0000021DFF8DC0803F0EFF8DFF8EC08A9784E
:1020F0000278914207D0A9780170DFF8E008006803
:10210000DFF8DC180860A878092812D1DFF8D06859
:102110004FF4FA613068FFF789FD012809D1DFF833
:10212000BC0800683060062215F10801A81CFFF702
:1021300025FE2100C9B2DFF8880803F0D4F8012099
:1021400070BD10B50400DFF89C18DFF89C0800692A
:10215000FFF76CFD012827D1DFF8900801780129ED
:1021600005D1002101700020DFF858188870DFF8D1
:1021700080080188491C018042F21071DFF8402874
:102180002300DBB21B011A449268B1FBF2F1028812
:102190008A420DD300210180DFF8281888780028B2
:1021A00006D00020887003E00120DFF84018087096
:1021B0002100C9B2DFF8080803F095F8012010BD2E
:1021C00038B50400FDF7FCFFDFF81C58287A012819
:1021D00008D10521DFF8E80703F076F8DFF8FC07FF
:1021E000006828612100C9B2DFF8D40703F07BF84A
:1021F000012032BD10B50400FDF7C8FFDFF8E80785
:102200000021017000210172012010BD10B50400F1
:1022100000224FF40051DFF88807FFF7E6FC0120A9
:1022200010BD10B5040001224FF40051DFF8700713
:10223000FFF7DBFCDFF88807210089B28166062101
:1022400003F051F810BD38B5DFF85C47DFF8A4079C
:1022500001786170DFF8A017407851F820006060C5
:10226000207A02F081FA00EE100ADFF89057B8EEFB
:10227000400AD5ED010A20EE200ABDEEC00A84ED29
:10228000030A607A02F070FA00EE100AB8EE400A13
:10229000D5ED020A20EE200ABDEEC00A84ED040A44
:1022A000A07A02F061FA00EE100AB8EE400AD5ED0D
:1022B000030A20EE200ABDEEC00A84ED050A207A4A
:1022C00002F052FA00EE100AB8EE400AD5ED040A08
:1022D00020EE200ABDEEC00A84ED060A607A02F004
:1022E00043FA00EE100AB8EE400AD5ED050A20EEDA
:1022F000200ABDEEC00A84ED070AA07A02F034FA83
:1023000000EE100AB8EE400AD5ED060A20EE200ACB
:10231000BDEEC00A84ED080A207A02F025FA00EE2C
:10232000100AB8EE400AD5ED070A20EE200ABDEEED
:10233000C00A84ED090A607A02F016FA00EE100A6B
:10234000B8EE400AD5ED080A20EE200ABDEEC00A1C
:1023500084ED0A0AA07A02F007FA00EE100AB8EE3D
:10236000400AD5ED090A20EE200ABDEEC00A84ED30
:102370000B0AE07A02F0F8F900EE100ADFF83456A2
:10238000B8EE400AD5ED020A20EE200ABDEEC00AE2
:1023900084ED100AE07A02F0E7F900EE100AB8EED8
:1023A000400AD5ED010A20EE200ABDEEC00A84EDF8
:1023B000110A31BD2DE9F84F8AB006002021002214
:1023C00002AC200003F0EAF80024002500208DF87C
:1023D000050000208DF806001827DFF8C8853000BA
:1023E000C0B27843404490F815903000C0B27843B2
:1023F00040444068002842D001213000C0B200F0C3
:10240000A9F900280ED13000C0B278434044426898
:102410003000C0B278434044017D4846C0B202F06B
:1024200025FF1EE05FF0000A3000C0B27843404450
:10243000406802F09FFB5146C9B2814207D220207A
:1024400002A95246D2B288541AF1010AECE702AA54
:102450003000C0B278434044017D4846C0B202F02B
:1024600005FF3000C0B278434044406802F082FB70
:10247000DFF88C150979491C484310FA89F93000B6
:10248000C0B2784340448068002800F03A813000B0
:10249000C0B278434044007B00280BD002281ED0F5
:1024A00012D3042830D024D3062845D036D30728A9
:1024B0003ED044E03000C0B27843404480680078A9
:1024C000002104000D003AE03000C0B278434044DF
:1024D000806890F90000C11704000D002FE0300063
:1024E000C0B27843404480680088002104000D0099
:1024F00025E03000C0B2784340448068B0F9000065
:10250000C11704000D001AE03000C0B27843404407
:1025100080680068002104000D0010E03000C0B2A7
:102520007843404480680068C11704000D0006E04D
:1025300001208DF8050002E002208DF805009DF8CD
:10254000050000280CD13000C0B278434044407BE5
:1025500040420200D2B202A92000FFF77FFB26E032
:102560009DF8050001281AD13000C0B278434044DC
:10257000806802F0FFFA202819D23000C0B27843F8
:102580004044806802F0F6FA020092B23000C0B215
:1025900078434044816802A8FFF7F0FB07E0300071
:1025A000C0B278434044806800788DF8080002216A
:1025B0003000C0B200F0CEF8012823D13000C0B204
:1025C00078434044807DC0B200098DF806009DF834
:1025D00006000F2805D0202002A99DF80620885467
:1025E00010E05FF0000A02A802F0C4FA5146C9B236
:1025F000814207D2202002A95246D2B288541AF151
:10260000010AF0E73000C0B201285ED15FF0000A95
:1026100000208DF804003000C0B278434044407B75
:10262000002802D009208DF80400392000902E23C4
:1026300015220F21DFF8CC0302F0E4FF02A802F01C
:1026400099FA8346DFF8B8030079401C00FB0BFBC6
:102650005846C0B2022190FBF1F01F280BDA584611
:10266000C0B2022190FBF1F0D0F140009DF80410BF
:1026700050FA81FA07E05846C0B2D0F15F009DF8E9
:10268000041050FA81FA02AA3000C0B278434044E4
:10269000007D401CC0B2DFF868134979D1EBC0015E
:1026A000491EC9B25046C0B203F056F95AFA8BF02F
:1026B0009DF80490B0EB090989200090202307229F
:1026C0000521C14802F0B8FC1BE0892000902023BE
:1026D00007220521BC4802F0AFFC02AA3000C0B2BC
:1026E00078434044017D4846C0B202F0BFFD02A8D5
:1026F00002F040FAC2490979491C484310FA89F0AE
:1027000081463000C0B278434044006900281ED0A2
:102710003000C0B2784340448068002817D03000B1
:10272000C0B2784340448068B74988420FD0300037
:10273000C0B27843404402693000C0B207FB00F7E2
:1027400008EB0700017D4846C0B202F08FFD0BB0D8
:10275000BDE8F08FF8B504000D0092492200D2B216
:102760001820424301EB0200817D2800C0B20140E5
:102770002800C0B281422FD19826A44F4FF4967101
:102780002800C0B2704338442200D2B250F8220070
:10279000FFF74CFA01282AD12800C0B206FB00F648
:1027A00007EB06002100C9B28C4A126840F82120CC
:1027B000262097492A00D2B242430A442300DBB2C2
:1027C0002E00F6B200FB06F008442100C9B2405CBE
:1027D000D0F10100D0540AE08D492A00D2B226205F
:1027E000424301EB02002100C9B200224254884951
:1027F000EDB22620454301EB0500E4B2005DF2BDD9
:1028000070B50400002602F0FFFD00F077F820000C
:10281000C0B200F07DF82000C0B200F093F80025AF
:10282000280080B2262811DA5E492A0092B21820C8
:10283000424301EB0200C07D2100C9B2884203D1AE
:102840002800C0B2FFF7B6FD6D1CE9E702F039FEC3
:1028500070BDF0B44271C47803792500EDB2AB428B
:102860000AD3F0254F4E2700FFB218235F4306EB33
:1028700007039D75641CEFE718234A4C85785D4378
:1028800025444679AE75002904D0857803FB05F30D
:1028900023449960F0BC70472DE9F84F0700884643
:1028A00091469A460A9E0B9DDDF830B00D9C87F844
:1028B000008087F8019087F802A0FE703D71220029
:1028C000D2B259463800FFF7C4FFBDE8F18F10B40B
:1028D000010000221000C0B204280CD21000C0B2C7
:1028E000085C4C4B1400E4B21B5D984201D0002000
:1028F00002E0521CEEE7012010BC704780B50120B9
:10290000009008237F220821002003F0A9F801BDD0
:1029100010B504002000C0B2002812D1374800785A
:10292000002807D121A21F4890F84410782002F017
:102930009DFC06E01EA21B4890F84410782002F08F
:1029400095FC10BD0100C9B2082924D116490978A7
:10295000002906D002290ED008D3042915D00FD3A0
:1029600018E02D490F4AC2F8681318E02B490D4AA8
:10297000C2F8681313E02A490A4AC2F868130EE045
:102980002849084AC2F8681309E02749054AC2F8ED
:10299000681304E003E02049024AC2F86813704754
:1029A00000080048200100207C00002020000000DA
:1029B0004E0000006827002048050020C4000020C9
:1029C0000C0000204C27002090E60008E1270020A2
:1029D0000CF000082CEC0008E2270020C0270020A3
:1029E00090270020C027090004270020E3270020AB
:1029F000D4270020640B0020F805002010260020BA
:102A00005C27002068E40008660B00201C1E0020E4
:102A1000FC230020CC000020D0000020E00000209B
:102A2000F0000020000100201001002010B504007B
:102A30000121DFF87C0D02F056FC012010BD30B5FD
:102A400087B004001421002202AD280002F0A6FD88
:102A5000DFF8980BD0E90023CDE9002302A800900D
:102A6000DFF8405C2978684600F0C5F9287868707E
:102A7000BDF80410009800F0EEFD00202870DFF88B
:102A8000305D0221280002F01FFC0321280002F023
:102A90002AFC2100C9B2280002F025FC012007B061
:102AA00030BD10B50400DFF8001C8888002810D065
:102AB000DFF8F80B02888B889A4208D10021018048
:102AC0000321DFF8EC0C02F0FFFB012008E089880D
:102AD00001802100C9B2DFF8D80C02F004FC01200B
:102AE00010BD2DE9F041040000250026DFF8B87B79
:102AF000B88803283DDB3868B988084410F8010C11
:102B00003968BA88114411F8021C51EA00210E00FC
:102B1000B988891E386803F03DF8050028003100A7
:102B200080B289B288421DD10721DFF8840C02F0FF
:102B3000DAFB3868007809280DD1DFF8688B0121AD
:102B400098F8010000F070F998F80120D7E9000129
:102B500000F05AF913E00021DFF8480B407800F04C
:102B600063F90CE00021DFF83C0B407800F05CF9E1
:102B700005E00021DFF82C0B407800F055F9DFF874
:102B8000240B407800F0B6F80221DFF8240C02F0A4
:102B9000BCFB0120BDE8F0810100DFF8F80C0278F1
:102BA000032A01D0042202700120704710B50400EE
:102BB0002100C9B2DFF8F80B02F095FB012010BD2F
:102BC00010B50400DFF8EC0B0178012936D1DFF8ED
:102BD000E81BC978012931D1DFF8E01B91ED040A27
:102BE000D0ED020AB4EE600AF1EE10FA08DA91EDC7
:102BF000040AD0ED010AB4EE600AF1EE10FA0ED527
:102C000001224FF400615FF09040FEF7EEFF0122D9
:102C10004FF480515FF09040FEF7E7FF1CE0002288
:102C20004FF400615FF09040FEF7DFFF00224FF4A9
:102C300080515FF09040FEF7D8FF0DE000224FF486
:102C400000615FF09040FEF7D0FF00224FF480510A
:102C50005FF09040FEF7C9FFDFF8540B4FF47A7134
:102C600081662100C9B202F03EFB012010BD38B5DB
:102C70000400DFF8241C087800281FD10120087008
:102C8000DFF8185C012210212800FEF7AEFF0022B9
:102C900008212800FEF7A9FF00220421DFF8000C1C
:102CA000FEF7A3FF4FF4FA60DFF8041B886703F018
:102CB00053F903F0FCFA03F0EBFA12E0002008707D
:102CC00001220821DFF8D40BFEF78FFF0122042137
:102CD000DFF8CC0BFEF789FF4EF66020DFF8D01A44
:102CE00088672100C9B2DFF8C80A02F0FCFA0120A7
:102CF00032BD000038B52DED028B04009FEDA88A8F
:102D00002000C0B2002850D1DFF8B05A95ED010A7A
:102D1000DFEDA40A20EE200ABDEEC00A10EE100A74
:102D200000F0D6FA85ED010A95ED010A00F03EFBB0
:102D300085ED040A95ED030A00F098FB85ED060A7F
:102D400095ED020A00F094FB85ED050A95ED060A63
:102D5000D5ED090A30EE200A85ED060A95ED050A43
:102D6000D5ED080A30EE200A85ED050A95ED040A36
:102D7000D5ED070A30EE200AB0EE408A9FED8A0AB0
:102D8000B4EE408AF1EE10FA02DB9FED880A09E00A
:102D9000B5EE408AF1EE10FA02D59FED810A01E00E
:102DA000B0EE480A85ED040AFFE7DFF8105A2878EC
:102DB000002807D10020686095ED010A00F0F6FABE
:102DC00085ED040A2878002807D10020E86095EDF9
:102DD000030A00F04BFB85ED060A2878002807D18E
:102DE0000020A86095ED020A00F0E0FA85ED050AE2
:102DF000BDEC028B31BD38B504000D002900C9B20D
:102E0000200000F01BF831BD70B504000D00160065
:102E100020000078C0B2092805D13200D2B22000CB
:102E2000290000F0C5F870BD38B504000D00290078
:102E3000C9B22000C0B200F0BFF931BD3EB50400F8
:102E40000D002800C0B200280FD0022820D015D3D2
:102E5000042831D026D306284DD037D3082874D083
:102E60005ED3092800F0868099E0062000900023B8
:102E700003220921200002F0ABFE90E00120009027
:102E80004FF4805303220921200002F0A1FE86E0C6
:102E90000120009041F2040303220921200002F0E6
:102EA00097FE7CE0012000904FF48153032209211A
:102EB000200002F08DFE72E00120009041F2240318
:102EC00003220921200002F083FE68E0DFF8B80D3C
:102ED000818802290ED1016801918088022190FB2E
:102EE000F1F080B200904FF48053062209212000B7
:102EF00002F0BCFE53E0DFF8900D818802290ED16C
:102F0000016801918088022190FBF1F080B200906D
:102F100041F2040306220921200002F0A7FE3EE050
:102F2000DFF8640D818802290ED101680191808843
:102F3000022190FBF1F080B200904FF48153062201
:102F40000921200002F092FE29E0DFF83C0D818883
:102F500002290ED1016801918088022190FBF1F0D5
:102F600080B2009041F2240306220921200002F0E1
:102F70007DFE14E0DFF8100D818802290ED1016872
:102F800001918088022190FBF1F080B2009042F222
:102F9000200306220921200002F068FEFFE737BD6A
:102FA000000000000000C842010048430000484300
:102FB0002DE9F0472DED048B84B004000D009246FE
:102FC0000020ADF808009FED988A00265046C0B258
:102FD000002810D0401E00F08B80401E00F09F8023
:102FE000401E00F0B380401E00F0C780401E042841
:102FF00040F2DA80DBE00320ADF80800022202A9EB
:10300000200000F0F5FA08EE900A022202A9200042
:1030100000F0EEFA8146DFF8A477B8EE680A10EE09
:10302000100A01F067FFCDE90001484601F054FFA6
:1030300041EC110B9FED7D0B01F0EDFD53EC102BDE
:10304000DDE9000101F0F0FD01F012FF78600222DD
:1030500002A9200000F0CCFA09EE100A022202A90F
:10306000200000F0C5FA8046B8EE490A10EE100ABA
:1030700001F040FFCDE90001404601F02DFF41EC99
:10308000110B9FED6A0B01F0C6FD53EC102BDDE92F
:10309000000101F0C9FD01F0EBFEF860022202A977
:1030A000200000F0A5FA00EE100AB0EE408A0222DD
:1030B00002A9200000F09CFA0600B8EE480A10EEC3
:1030C000100A01F017FFCDE90001300001F004FF04
:1030D00041EC110B9FED550B01F09DFD53EC102BB6
:1030E000DDE9000101F0A0FD01F0C2FEB8605EE084
:1030F0000320ADF80800022202A9200000F078FAAF
:1031000000EE100AB0EE408AB8EE480AF2EE040A69
:1031100080EE200ADFF8A40680ED0A0A47E00320CB
:10312000ADF80800022202A9200000F061FA00EECA
:10313000100AB0EE408AB8EE480AF2EE040A80EEB9
:10314000200ADFF8780680ED0B0A30E00320ADF8A6
:103150000800022202A9200000F04AFA00EE100A3C
:10316000B0EE408AB8EE480AF2EE040A80EE200A79
:10317000DFF8480680ED0C0A19E00320ADF80800DE
:10318000022202A9200000F033FA00EE100AB0EE8D
:10319000408AB8EE480AF2EE040A80EE200ADFF810
:1031A0001C0680ED0D0A02E000F0C2F9FFE704B052
:1031B000BDEC048BBDE8F0870200D2B2002A092AD8
:1031C0001BD80A00D2B2012A0ED1DFF8F025002365
:1031D0005370012313700200D2B2002A0CD10122D5
:1031E000DFF8D435DA7007E0DFF8D0255378032B09
:1031F00002DA53785B1C5370FFE7DFF8C0355A786A
:10320000002A10D05A78032A0DDB00221A700022FF
:103210005A600022DA6000229A620022DA620022FA
:10322000DFF89435DA7070470000000000000000FD
:10323000000024402DE9F04100242500EDB20A2DC4
:1032400043DA00252E00F6B2092E3CDA2E00F6B243
:1032500001EB860676682F00FFB251F82770BE4258
:103260002FDA00262F00FFB251F82770AC465FFA24
:103270008CFC01EB8C0CDCF804C0AE465FFA8EFED1
:1032800041F82EC0AC465FFA8CFC01EB8C0CCCF8FC
:103290000470AC465FFA8CFC50F82CC0AE465FFA66
:1032A0008EFE00EB8E0EDEF804E0A8465FFA88F88A
:1032B00040F828E0AE465FFA8EFE00EB8E0ECEF8A8
:1032C00004C06D1CBEE7641CB7E7BDE8F0810000D8
:1032D00038B52DED028B04009FED9B8ADFF8741A40
:1032E000087800282AD10120087000210800C0B207
:1032F0000A2815DA0800C0B2DFF85C2A0B00DBB23E
:1033000042F82300DFF8542A0800C0B252F8200027
:10331000002803D10800C0B242F82040491CE5E76C
:10332000DFF8385A092300222900DFF82C0AFFF7BA
:1033300081FF95ED050AB8EEC00A30E000200100DB
:10334000C9B20A291EDADFF8101A0200D2B251F807
:103350002220092A0BD100220300DBB241F82320EE
:10336000DFF8F8190200D2B241F8224008E002006A
:10337000D2B251F82220521C0300DBB241F82320C4
:10338000401CDCE7DFF8D459092300222900DFF8CC
:10339000C809FFF74FFF95ED050AB8EEC00ADFED4B
:1033A000BE0A80EE200ABDEC028B31BDF0EE400A71
:1033B0009FED8B1A9FED8B3ADFED633AF5EE400AF5
:1033C000F1EE10FA40D0F0EE603A9FED870ADFF898
:1033D000900990ED004A34EE634AB4EE404AF1EEB3
:1033E00010FA08DA90ED004A33EEC44AB4EE404ACF
:1033F000F1EE10FA03DB9FEDA90A21EE001ADFF8C7
:10340000640990ED000AF0EE401ADFF85C1991EDC6
:10341000000A30EE010AB0EE402A32EE030A82EED4
:10342000000AF0EE402A33EEE10AB0EE614A00EE07
:10343000224A80ED004AB7EE000A30EE620A20EE22
:10344000020A81ED000A08E0DFF81C095FF07E51F6
:103450000160DFF8100900210160DFF80809DFF8DA
:10346000001902680A6090ED000A7047704700007A
:10347000F0EE400A9FED5A1A9FED5A3ADFED323ACC
:10348000F5EE400AF1EE10FA40D0F0EE603A9FED12
:10349000840ADFF8D80890ED004A34EE634AB4EEAF
:1034A000404AF1EE10FA08DA90ED004A33EEC44AD1
:1034B000B4EE404AF1EE10FA03DB9FED780A21EEFC
:1034C000001ADFF8AC0890ED000AF0EE401ADFF8C1
:1034D000A41891ED000A30EE010AB0EE402A32EE57
:1034E000030A82EE000AF0EE402A33EEE10AB0EE63
:1034F000614A00EE224A80ED004AB7EE000A30EE43
:10350000620A20EE020A81ED000A08E0DFF8640892
:103510005FF07E510160DFF8580800210160DFF89C
:103520005008DFF8481802680A6090ED000A7047FA
:1035300080B50320D749087004219D4801F0E5FEBD
:103540003220FEF76EFE01BD0000000080B5DFF8FE
:1035500028080078534908700220CE4908700421D9
:10356000934801F0C0FE01BD2DE9F04104000D00BB
:1035700016002F00DFF810874046FEF79FFB300053
:1035800080B2022802D004280BD01DE07878D8F849
:10359000001008703878D8F800104870A8F8046057
:1035A00015E07878D8F8001008703878D8F800104E
:1035B0004870F878D8F800108870B878D8F80010FB
:1035C000C870A8F8046002E00020A8F80400DFF842
:1035D000A80704700120DFF8A4170870BDE8F08187
:1035E00095BFD63317B7D1380100204114F2000837
:1035F000F0B4030000200C881500EDB2042D16D1A4
:103600002500ADB21D44AE782500ADB21D44ED7865
:1036100055EA06252600B6B29E5D2700BFB21F44BC
:103620007F7857EA062757EA054738000DE015006E
:10363000EDB2022D09D12500ADB25D5D2600B6B216
:103640001E44767856EA052630000D8855FA82F534
:103650000D80F0BC704770B504000D00DFF82067E6
:1036600001224FF480513000FEF7BFFA0A2002F029
:1036700041FE02F005FE4FF47A732A0092B2210057
:10368000DFF8000702F087FE00224FF4805130007F
:10369000FEF7ABFA70BD00000000C84200007A449B
:1036A000CDCC4C3EDC270020140B0020DA27002074
:1036B0002DE9F0472DED048B8EB0B0EE409AB0EEC0
:1036C000608AF0EE418A322100226C46200001F02F
:1036D00065FF0024002500260027DFF8E0A08AED22
:1036E000079A8AED088ACAED098A9AED070A01F05D
:1036F0002FFA80469AED080A01F02AFA81469AEDDF
:10370000090A01F025FA824668464146090E220060
:10371000D2B28154641C4146090C2200D2B28154B9
:10372000641C4146090A2200D2B28154641C210063
:10373000C9B200F80180641C4946090E2200D2B2C9
:103740008154641C4946090C2200D2B28154641C85
:103750004946090A2200D2B28154641C2100C9B230
:1037600000F80190641C5146090E2200D2B2815427
:10377000641C5146090C2200D2B28154641C51468B
:10378000090A2200D2B28154641C2100C9B200F897
:1037900001A0641C2200D2B292B26946DFF8E805AB
:1037A00003F016FE0EB0BDEC048BBDE8F087000000
:1037B0006C06002068270020A42700201026002087
:1037C000F8B5002400250026DFF8BC050078C0B25B
:1037D000FF2856D0DFF8B4050178C9B20906DFF832
:1037E000B0050078C0B251EA0041DFF8A8050078C2
:1037F000C0B251EA0021DFF8A0050078C0B2014351
:103800000C00DFF898050178C9B20906DFF89005C9
:103810000078C0B251EA0041DFF888050078C0B2F4
:1038200051EA0021DFF880050078C0B201430D00A5
:10383000DFF878050178C9B20906DFF87405007869
:10384000C0B251EA0041DFF86C050078C0B251EA1D
:103850000021DFF864050078C0B201430E00DFF8F4
:103860005C7517F11C01200001F09AF817F1200196
:10387000280001F095F817F12401300001F090F8CC
:1038800007E0DFF838050021C16100210162002155
:103890004162F1BD7C000020E927002000040048BF
:1038A000000C00482DE9F0472DED028B8EB004008E
:1038B000F0EE408AB0EE608A322100226D46280088
:1038C00001F06CFE002500260027DFF8F4A48AF83A
:1038D00000408AED028ACAED018A9AED020A01F0DF
:1038E00037F980469AED010A01F032F981466846BF
:1038F0009AF800102A00D2B281546D1C4146090E7C
:103900002A00D2B281546D1C4146090C2A00D2B261
:1039100081546D1C4146090A2A00D2B281546D1CA3
:103920002900C9B200F801806D1C4946090E2A0021
:10393000D2B281546D1C4946090C2A00D2B281547E
:103940006D1C4946090A2A00D2B281546D1C290017
:10395000C9B200F801906D1C2A00D2B292B2694639
:10396000DFF8600403F034FD0EB0BDEC028BBDE85F
:10397000F08770B500240025DFF848040078C0B255
:10398000FF283DD0DFF83864DFF83C040078307061
:10399000DFF838040178C9B20906DFF8340400788A
:1039A000C0B251EA0041DFF82C040078C0B251EAFD
:1039B0000021DFF824040078C0B201430C00DFF8D6
:1039C0001C040178C9B20906DFF814040078C0B2FB
:1039D00051EA0041DFF80C040078C0B251EA00213E
:1039E000DFF804040078C0B201430D0016F10801AD
:1039F000200000F0D5FF311D280000F0D1FF08E0C5
:103A0000DFF8BC0300210170DFF8E01381600021C2
:103A1000416070BD78B591B004000D003C210022DA
:103A200002AE300001F0BAFD0020ADF80400032121
:103A3000052000F088FC0B2000900023DFF8B02365
:103A400001A902A800F096FF4FF47A73BDF8042094
:103A500002A9DFF8A00302F09EFC12B070BD78B599
:103A600091B004000D003C21002202AE300001F0B4
:103A700095FD0020ADF80400C34803F079FCD1485F
:103A800003F076FCCE4800210170DFF860138160FE
:103A9000002141600D2000900023DFF85C2301A984
:103AA00002A800F067FF4FF47A73BDF8042002A962
:103AB000D04802F070FC12B070BD38B590B0040070
:103AC0000D0003A8CD49322203F0C6FCCC48D0E952
:103AD0000023CDE9012303A801900023C9480278FF
:103AE00002A903A800F0D1FE02200090002376A2D4
:103AF00002A903A800F03EFF4FF47A73BDF8082036
:103B00000199BC4802F047FC11B030BDF8B5040083
:103B10000D0000262068007830283ADB2068007805
:103B20003A2836DA002700200100C9B2A28889B2FB
:103B300091420FD221680200D2B2895C302905DBA4
:103B400021680200D2B2895C3A2900DB02E07F1CC6
:103B5000401CE9E73900C9B2206800F0C3FF060045
:103B6000B6F5807F0DD2A74841783000C0B200F092
:103B7000EAFB4FF47A73022275A19E4802F00BFC17
:103B80000EE04FF47A7305229F499A4802F003FC35
:103B900006E04FF47A7305229B49964802F0FBFB3E
:103BA000F1BD38B590B004000D0003A8974932224A
:103BB00003F052FC9648D0E90023CDE9012303A885
:103BC000019000238F48427802A903A800F05DFE0F
:103BD0000220009000233CA202A903A800F0CAFE24
:103BE0004FF47A73BDF808200199824802F0D3FBA4
:103BF00011B030BDF8B504000D0000262068007833
:103C0000302839DB206800783A2835DA0027002090
:103C10000100C9B2A28889B291420FD22168020084
:103C2000D2B2895C302905DB21680200D2B2895CFE
:103C30003A2900DB02E07F1C401CE9E73900C9B2E9
:103C4000206800F04FFF06000C2E0DD23100C9B2E3
:103C50006C48007800F077FB4FF47A7302223CA1A5
:103C6000644802F098FB0EE04FF47A73052266492F
:103C7000604802F090FB06E04FF47A730522624937
:103C80005C4802F088FBF1BDEC06002080B5FFF730
:103C900097FDFFF76EFE5F485F49C0F8A4135F49C8
:103CA000C0F8B4135E49C0F8C4135E49C0F8D41319
:103CB0005D49C0F8E4135D49C0F8F41302F0F7FA67
:103CC00002F0E6FA01BD00000D0A000070B5002008
:103CD000002400252800C0B2082836DA544E2800F7
:103CE000C0B200013044407801282CD101200400EA
:103CF0002800C0B200013044406800280ED001F016
:103D000095F92900C9B2090131444968401A2900CE
:103D1000C9B2090131448968884214D300202900BE
:103D2000C9B209013144487001F080F92900C9B2D3
:103D30000901314448602800C0B22900C9B2090114
:103D40003144C96888476D1CC4E72000C0B270BD0B
:103D50004F4B0000EA270020742600209C260020FC
:103D6000AC270020A8270020F4060020B42700205C
:103D7000B0270020F8060020E82700207C00002063
:103D800000080048F4200020000802080208020889
:103D900003080208040802080508020806080208C9
:103DA0000708020808080208090802080A080208A9
:103DB0000B0802080C0802080D0802081026002053
:103DC00068270020001002080210020803100208F1
:103DD0000410020805100208061002080710020865
:103DE00008100208091002080A10020800004843DF
:103DF00024F00008E41F002068ED000808EA00082D
:103E00001CF20008640B00200CF200083CEA0008D9
:103E100024F2000804070020153A00085F3A000861
:103E2000BB3A00080D3B0008A33B0008F53B000827
:103E30006C06002002000020704730B40200DFF85A
:103E4000F808002304688588635583885B1C838099
:103E5000DFF8E8381B7804688588635583885B1C25
:103E60008380012030BC7047F8B504000D000020AD
:103E700000212E0022683300DBB2D25C23683700B9
:103E8000FFB23B445F7857EA02273A0092B2B2F59C
:103E9000807F23DA380080B200281FD0DFF898082E
:103EA00021683200D2B2895C02688388D15481884B
:103EB000491C818021683200D2B2114449780268DD
:103EC0008388D1548188491C8180DFF8700841784B
:103ED0003800C0B200F037FA012000E00020F2BD47
:103EE00030B40200DFF85008002304688588635569
:103EF00083885B1C8380DFF844385B78046885889E
:103F0000635583885B1C8380012030BC7047F8B503
:103F100004000D00002000212E0022683300DBB2D7
:103F2000D25C23683700FFB23B445F7857EA022730
:103F30003A0092B20B2A1FDADFF8FC072168320040
:103F4000D2B2895C02688388D1548188491C8180FF
:103F500021683200D2B21144497802688388D15472
:103F60008188491C81803900C9B2DFF8D007007808
:103F700000F0E9F9012000E00020F2BDF8B50400EE
:103F80000D000026DFF8B80790ED040A00F0E0FD10
:103F90000100DFF8A4070A00120A03688788DA55CF
:103FA0008288521C828002688388D1548288521C85
:103FB00082800A00120E03688788DA558288521CB4
:103FC00082800A00120C03688788DA558288521CA6
:103FD00082800120F2BDF8B504000D000026DFF854
:103FE000600790ED060A00F0B3FD0100DFF8480716
:103FF0000A00120A03688788DA558288521C828078
:1040000002688388D1548288521C82800A00120E72
:1040100003688788DA558288521C82800A00120C55
:1040200003688788DA558288521C82800120F2BD9D
:1040300030B40200DFF80007002304688588635568
:1040400083885B1C8380DFF8FC361B7804688588D6
:10405000635583885B1C8380012030BC7047F8B5B2
:1040600004000D00002000212E0022683300DBB286
:10407000D25C23683700FFB23B445F7857EA0227DF
:104080003A0092B2012A03D0380080B2002822D12F
:10409000DFF8A40621683200D2B2895C0268838806
:1040A000D1548188491C818021683200D2B21144E8
:1040B000497802688388D1548188491C8180DFF85F
:1040C0008406D0ED020A90ED010A3800C0B2FFF775
:1040D000E9FB012000E00020F2BDF8B504000D006E
:1040E0000026DFF8600690ED020A00F031FD0100C5
:1040F000DFF844060A00120A03688788DA558288C6
:10410000521C828002688388D1548288521C82802B
:104110000A00120E03688788DA558288521C828052
:104120000A00120C03688788DA558288521C828044
:104130000120F2BD2DE9F84304000D000026002007
:1041400000900027A84620684146C9B208448178FB
:1041500020684246D2B21044C07850EA012021685B
:104160004246D2B2895C22684346DBB21A4492F8D6
:10417000019059EA012959EA0049DFF8BC05216894
:104180004246D2B2895C02688388D1548188491C36
:10419000818021684246D2B21144497802688388FE
:1041A000D1548188491C818021684246D2B2114491
:1041B000897802688388D1548188491C818021686C
:1041C0004246D2B21144C97802688388D1548188AA
:1041D000491C81806946484600F0E2FBDFF864052F
:1041E000DDED000A90ED010A0078FFF75BFB01208E
:1041F000BDE8F283F8B504000D000026DFF84405A1
:1042000090ED010A00F0A4FC0100DFF82C050A0083
:10421000120A03688788DA558288521C82800268F5
:104220008388D1548288521C82800A00120E03684F
:104230008788DA558288521C82800A00120C036833
:104240008788DA558288521C82800120F2BD2DE9D0
:10425000F84304000D000026002000900027A84627
:1042600020684146C9B20844817820684246D2B2EB
:104270001044C07850EA012021684246D2B2895CDD
:1042800022684346DBB21A4492F8019059EA0129A8
:1042900059EA0049DFF8A00421684246D2B2895C9D
:1042A00002688388D1548188491C818021684246F4
:1042B000D2B21144497802688388D1548188491C5C
:1042C000818021684246D2B211448978026883888D
:1042D000D1548188491C818021684246D2B2114460
:1042E000C97802688388D1548188491C81806946D5
:1042F000484600F055FBDFF84C04D0ED020A9DED76
:10430000000A0078FFF7CEFA0120BDE8F28370B50D
:1043100004000D00DFF83064012220213000FDF799
:1043200064FC0A2001F0E6FF4FF47A732A0092B28F
:104330002100DFF8180402F02EF8002220213000BE
:10434000FDF753FC70BD7CB504000D000821002270
:104350006E46300001F022F90026DFF8E003047019
:104360004570694602783300DBB2CA54761C407847
:104370003200D2B28854761C3200D2B292B2694670
:10438000DFF8CC0303F024F873BDDFF8C403007832
:10439000C0B2FF280AD0DFF8A403DFF8B813097809
:1043A0000170DFF8B4130978417005E0DFF88C0381
:1043B000052101700321417070472DE9F04F87B04E
:1043C000040000275FF000085FF000090025DFF817
:1043D0008C23D2E90001CDE902010026DFF8802319
:1043E000D2E90001CDE90401DFF84CA35046FDF706
:1043F00065FCA0880828C0F29B812068A188084439
:1044000010F8010C2168A288114411F8021C51EA2D
:104410000021ADF81810A188891E206801F0BAFBB0
:10442000ADF81A00BDF81A00BDF81810884240F027
:104430007D8120680078C1490978884240F0768102
:10444000206880782168CF7857EA00272068407874
:10445000032805D006286CD0102800F0C38061E145
:10446000206800792168497951EA00210D005FF048
:1044700001084046C0B2082836DA5FF01409DFF8B8
:10448000E4B24046C0B209FB00F05844406839002D
:1044900089B2884225D1280080B24146C9B209FBC1
:1044A00001F15944896888421BDB00210020424603
:1044B000D2B209FB02F25A44D268904701280FD1C8
:1044C0004046C0B209FB00F0584480682D1A4046AF
:1044D000C0B209FB00F90BEB09008068C71900E0C6
:1044E00002E018F10108C4E7BAF8040000281FD060
:1044F000BAF80400022190FBF1F201FB120000283F
:1045000016D1DAF800000190BAF80400022190FBFD
:10451000F1F080B200903B009BB20322206801784A
:1045200004A801F017FCBDF814100498FFF7EFFE83
:10453000FAE004200100C9B2A288921E91420EDA6C
:1045400021680200D2B2895C029ABDF80C30D154C5
:10455000BDF80C10491CADF80C10401CEAE75FF0E8
:1045600001084046C0B2082817DA14227D4B4046A5
:10457000C0B2504318444068390089B2884209D11A
:10458000002102A8C4465FFA8CFC02FB0CF21A441C
:104590001269904718F10108E3E7BAF8040000280F
:1045A0001FD0BAF80400022190FBF1F201FB1200C7
:1045B000002816D1DAF800000190BAF804000221B0
:1045C00090FBF1F080B200903B009BB20622206885
:1045D000017804A801F00FFCBDF814100498FFF74F
:1045E00096FEA1E000200600206800792168497944
:1045F00051EA00210D0007200100C9B2A288921ED5
:1046000091420EDA21680200D2B2895C029ABDF8AA
:104610000C30D154BDF80C10491CADF80C10401CE6
:10462000EAE7280080B240002168897988424DD1AC
:10463000BDF80C002168897989B2884246D15FF0C3
:1046400001084046C0B2082840DA5FF01409DFF8DC
:1046500014B14046C0B209FB00F05844406839002C
:1046600089B288422FD1280080B24146C9B209FBE5
:1046700001F159448968884225DB310089B202A8DA
:104680004246D2B209FB02F25A441269904701280D
:1046900018D14046C0B209FB00F058448068400081
:1046A00010FA86F64046C0B209FB00F05844806814
:1046B0002D1A4046C0B209FB00F90BEB09008068D7
:1046C000C71900E002E018F10108BAE7BAF80400DF
:1046D000002826D0BAF80400022190FBF1F201FB79
:1046E000120000281DD1206880782168C97851EA1D
:1046F00000210F00DAF800000190BAF8040002214E
:1047000090FBF1F080B200903B009BB21022206839
:10471000017804A801F06FFBBDF814100498FFF7AE
:10472000F6FD01E0002004E0012002E0002000E0AE
:10473000002007B0BDE8F08F24060020640B0020A5
:104740001026002068270020000400486C2000206C
:10475000000002080200020803000208FCF1000841
:1047600004F200085805002001000800C0B200282B
:1047700001D1012021E00800C0B2FF2801D10A20A8
:104780001BE00800C0B2FE2801D1642015E008003B
:10479000C0B2FD2802D14FF47A700EE00800C0B21A
:1047A000FC2802D142F2107007E00800C0B2FB28DA
:1047B00002D1DFF8980300E0012070472DE9F24FA5
:1047C00082469346002000210A260027B046B946BB
:1047D000009A1588BBF1000F08D5DBF100042D20ED
:1047E0002A0092B20AF802006D1C00E05C4620002C
:1047F000002142464B4602F083FE002901D10028E9
:1048000008D0A6FB080106FB091107FB081180462A
:104810008946ECE7404649460A22002302F070FE32
:1048200006000F00002F01D1002E28D0200000210B
:1048300032003B0002F064FE3030290089B20AF8F1
:1048400001006D1CA0465FF000092000002132002D
:104850003B0002F055FEA6FB002306FB013307FBDD
:104860000033B8EB020079EB03010400300039009B
:104870000A22002302F044FE06000F00D2E700984F
:1048800005802800C0B2BDE8F28F2DE9FE4F06007A
:104890000F0090460020ADF8000000200024002109
:1048A0005FF0000BB7F80090B8F1000F02D5D8F117
:1048B000000500E04546424639003000FFF77EFF24
:1048C000B7F800A0002D4FD09DF80800FFF74CFF6F
:1048D00001008D4205D20A2045431BF1010B002D3A
:1048E000F7D15846C0B2002821D050460200D2B2BB
:1048F000324412F8012C2D2A06D00200D2B24B46C7
:1049000092B29BB29A4208D130220300DBB2F25439
:104910001AF1010ABBF1010BE3E70200D2B2324403
:1049200012F8012C0300DBB2F254401EDEE70A202D
:10493000B1FBF0F450468346002C15D00A20B4FB9E
:10494000F0F45846C0B2304410F8010C5946C9B2D0
:104950007054BBF1010B002CEED12E205946C9B288
:1049600070541AF1010AE7E7A7F800A05046C0B258
:10497000BDE8FE8FF0B4049C00252E00B6B2A6421E
:104980000BD20E88771C0F802F00BFB217FA83F767
:10499000D75DB6B287556D1CEFE7F0BC70470000DD
:1049A0002DE9F34F81B02DED028B9FED658A002438
:1049B00001250026F7EE008A00273800C0B2202823
:1049C00064DA0398F84010F0010004003800C0B227
:1049D000172829DA18EE900A00F08CFA82468B46E6
:1049E0002000C0B200F078FA804689463800C0B294
:1049F000D0F117005FF0FF31484300F0F3F841ECCD
:104A0000110B9FED500B00F006F951EC100B4246D4
:104A10004B4602F08DFE52465B4602F05BFF00F013
:104A200027FA08EE900A2FE03800C0B21F2824DAD7
:104A30003000C0B200F050FA82468B462000C0B26F
:104A400000F04AFA804689463800C0B2173800F0B4
:104A5000C9F841EC110B9FED3B0B00F0DCF851EC79
:104A6000100B42464B4602F063FE52465B4602F094
:104A700031FF02F0EDFF060006E02000C0B2012881
:104A800002D15FF0FF3005007F1C96E7280040B29E
:104A900000F0A8F8804689463000C0B27F3800F0A8
:104AA000A1F841EC110B9FED270B00F0B4F851EC8D
:104AB000100B42464B4602F03BFE8046894618EEFC
:104AC000900A00F017FA42464B4602F031FE00F021
:104AD000CFF900EE100A049880ED000ABDEC028BBD
:104AE000BDE8F78F70B403000022002400200025E9
:104AF0002A000E00D2B2F6B2B2421FD22A00D2B2BF
:104B00009A5C302A0ADB2A00D2B29A5C3A2A05DA89
:104B10002A00D2B29A5C303A140001E0002214005C
:104B20002A00D2B2002A03D12200D2B2100003E040
:104B30000A22504350FA84F06D1CD9E770BC7047CC
:104B4000000000000000000000000040A0860100FE
:104B500010B42DED010A00206A460023042B07D271
:104B6000D45C1900C9B2C9008C4020435B1CF5E736
:104B700012BC704700F10103810704D010F8011B3B
:104B8000820781B1FAD10268A2F10131914311F09B
:104B9000803104BF50F8042FF6E709BAB1FA81F169
:104BA00000EBD100401CC01A704730B4002513E060
:104BB00050F8042BD30744BFA9F101039A18091F29
:104BC000042942F8045BFAD213468C0744BF1580CF
:104BD0009B1CC90748BF1D7050F8041B0029E7D172
:104BE00030BC7047C11768B14840401AB0FA80F233
:104BF0009040D21CC907C2F5846241EA025202EB1E
:104C0000D021400570470268531C03601170704743
:104C100041EC100B01BD80B553EC112B51EC100B86
:104C200002F034FFF4E72E00F0B540F2FF7581EAA0
:104C3000030C0CF0004C15EA11541DBF15EA135774
:104C4000AC42AF42E5E0BC41C1F31301C3F313032F
:104C5000801A994143F4801304D2641E40004941F4
:104C600080185941C90241EA5051B1FBF3F603FBE8
:104C70001611A2FB0675D7EBC020A94102D2761E01
:104C800080185941C90241EA5051B1FBF3FE03FBC0
:104C90001E11A2FB0E75D7EBC020A94103D2AEF1C5
:104CA000010E80185941890241EA9051760546EA81
:104CB0008E2EB1FBF3F603FB1611A2FB0675D7EBA4
:104CC0008020A94102D2761E80185941C90241EACA
:104CD00050514EEA060EB1FBF3F603FB1611A2FB90
:104CE0000675D7EBC020A94102D2761E8018594123
:104CF000C90241EA5051B1FBF3F703FB1711A2FBC4
:104D00000735D3EBC020A94167F100070CBF004273
:104D100047F0010766F3D5274FEA1E31B80814F5AE
:104D2000806412DDBD0775F1004250EB0E5051EB6F
:104D3000045111F5801F5CBF41EA0C01F0BD4CF03D
:104D40007F6141F0E0410020F0BDBD076D0840EA01
:104D50000E5041F48011D4F10104B4F120060ADAB6
:104D6000C4F120060200E04001FA06F3E1401843D6
:104D7000B24015430EE0342C13DCC6F1200445EAA2
:104D800040056D0820FA06F2154321FA06F0A1400D
:104D90000D43002175F1004250F1000051EB0C0170
:104DA000F0BD00205FEA0C01F0BDCFB992185B4165
:104DB000B3FA83F704BFB2FA82F6BF190B3FB7F11B
:104DC00020062FBF02FA06F3BB40C7F1200622FAE5
:104DD00006F638BF3343BA401CB1E419641E33E70A
:104DE0007F4231F00041B1FA81F404BFB0FA80F69D
:104DF000A4190B3CB4F120062FBF00FA06F1A14024
:104E0000C4F1200620FA06F638BF3143A0403C1B0F
:104E10001AE7AC421ABF05EA1357AF4212E050EA54
:104E200041061CBF52EA4306BFE750EA410730463D
:104E300061461CBF41EA0551F0BD52EA430C08BF70
:104E4000C143F0BD00204FF4001616EB410F98BF90
:104E500016EB430F08BF16EB410F24BFC14305E01B
:104E600016EB430F0CBF61464CEA0551F0BD000044
:104E700001F000428B1AA3F16051B1F5801F0ADBEB
:104E8000B1F17F6F1FD242EAC102C10071F100414E
:104E900042EB507070470B15C3F10903212B10D260
:104EA000890241EA905180020128494141F00041C4
:104EB00021FA03F0C3F12003994071F10041504100
:104EC0007047100070476FF0000013EB103F5CBF9D
:104ED000000E42EAC0507047014648B1B0FA80F176
:104EE0008840C91CC1F58461090501EBD02140054A
:104EF00070470000C0F3C75181B1FF2906D0C1102F
:104F0000400721F0E04101F16051704741020CBFC0
:104F100040F4E0016FF000410020704700F00041D4
:104F200000020AD0B0FA80FC00FA0CF001F16051E6
:104F3000A1EB0C5101EBD021400570470CB430B50A
:104F400083B00A4606A90291044600250194009503
:104F500002AB01A9084878441E3003F00DF9019A0C
:104F6000157000284EBF04460198041B204603B06C
:104F700030BC5DF80CFB00BF8FFCFFFF80B5012249
:104F800040212348FCF731FE2249234800F04EFA25
:104F900000F01EF8012000F005F800F0D1FA00F052
:104FA0001FFA01BD704711B581B0194C0022402194
:104FB0002000FCF71AFE4FF47A73012201A917486A
:104FC00004F03AF9012240212000FCF70EFE13BD47
:104FD00010B50F4C002240212000FCF706FE0022F5
:104FE00080212000FCF701FE012000F019F80520C7
:104FF00000F016F8012280212000FCF7F6FD0520C4
:1050000000F00EF8012240212000FCF7EEFD10BD5B
:1050100000080048842700201C1000207024002075
:1050200010B50400200001F065F910BD01480068CA
:10503000704700BF9427002070B4039CDFF88052B3
:10504000286029716A71AB71EC7100262E7270BCF8
:1050500070472DE9F84F04000D00160000275FF09F
:105060000008DFF85C9299F80500082880F2FC80BF
:10507000300099F80610C0B2884205D399F80700AD
:105080003100C9B2884201D22E200600402099F892
:105090000510491C90FBF1F02900C9B2814280F251
:1050A000E38099F8040050FA84F0802880F2DC80D4
:1050B00099F805305B1C99F8050003FB05035B1CA0
:1050C000DBB299F804201219D2B299F80500401CFD
:1050D00015FB00F1C9B22000C0B200F029F900218F
:1050E000080099F80420C0B2904280F0BD800020F2
:1050F00015FB00F00200D2B2082392FBF3F2170076
:10510000C0B2082290FBF2F302FB13008046FF229C
:105110006C4BD3F800C03800C0B250FA85FE802036
:1051200000FB0EFE5EFA84FED3F800A03800C0B289
:1051300050FA85FB802000FB0BFB5BFA84F01AF829
:1051400000A0D8F1080B100050FA0BF010EA0A0A80
:105150000CF80EA0D3F800C03800C0B250FA85FE9B
:10516000802000FB0EFE5EFA84F00090D3F800E091
:105170003800C0B250FA85FA802000FB0AFA5AFAC9
:1051800084F01EF800E0D9F800A0B3465FFA8BFB6C
:1051900099F80600BBEB000099F804B00BFB00FB8C
:1051A0000AEB0B008A465FFA8AFA10F80A0010FA36
:1051B00008F050EA0E00DDF800E00CF80E00D3F81D
:1051C00000C03800C0B250FA85FE802000FB0EFE01
:1051D0005EFA84F08444D3F800E03800C0B250FA9C
:1051E00085FA802000FB0AFA5AFA84F0704490F89D
:1051F000800012FA08F202408CF880201A68380009
:10520000C0B250FA85FC802000FB0CFC5CFA84F0F4
:1052100002441B683800C0B250FA85FC802000FBB5
:105220000CFC5CFA84F0184490F88030D9F800C087
:10523000B6465FFA8EFE99F80600BEEB000E99F8AE
:10524000040000FB0EFE0CEB0E008C465FFA8CFC9B
:1052500010F80C00D8F1080C50FA0CF0034382F857
:105260008030641C491C3BE7BDE8F18FF8B50700AE
:105270000C001600124D6879082820DA30780028D2
:105280001DD032782100C9B23800C0B2FFF7E1FE6C
:10529000761C2879401CC719287950FA87F0401CE1
:1052A000812802DB00200700641C40206979491C2A
:1052B00090FBF1F02100C9B28142DFDBFFE7F1BDD5
:1052C0005C27002088270020020001200B00DBB2B1
:1052D0001B011344587000200B00DBB21B01134468
:1052E00058600120704738B504000D0001202900E6
:1052F000C9B2090121444870FFF798FE2900C9B2DC
:10530000090121444860012032BD020000200B0049
:10531000DBB21B01134458700120704780B503486D
:1053200000F024FC00F0CDF801BD000068E00008AA
:1053300070B40400E4B2802C01DB7F242000140050
:10534000E4B2802C01DB7F2422000C00E4B2402C6C
:1053500001DB3F2421001C00E4B2402C01DB3F2490
:105360002300354C050026683678EDB2B54201D2EF
:10537000256828702568AD781600F6B2B54201D2CE
:105380002568AA700D0026687678EDB2B54201D284
:10539000256869702568ED781E00F6B2B54201D225
:1053A0002468E37070BC704723487F210268117045
:1053B0000021026891703F2102685170002100684D
:1053C000C17070471C480021026811707F2102687B
:1053D00091700021026851703F210068C1707047D0
:1053E00070B54FF480640025144806682A00210037
:1053F000300000F0D3F83F237F2200210020FFF788
:1054000097FF00F05EF870BD70B54FF48064002522
:105410000A4806682A002100300000F0BFF83F2348
:105420007F2200210020FFF783FF70BD034A106038
:10543000014A1160704700008C2700208827002057
:1054400010B5040000224FF480713A48FCF7CDFB00
:105450002000C0B2FFF7A7FD10BD10B50400012267
:105460004FF480713348FCF7C0FB2000C0B2FFF757
:105470009AFD10BD10B5040014F00F0050F0B000FC
:10548000C0B2FFF7DDFF10BD10B504002000C0B2B0
:1054900000F005F82000C0B200F00CF810BD10B507
:1054A00004002000C0B2000950F01000C0B2FFF7A5
:1054B000C7FF10BD10B5040014F00F00FFF7C0FFC8
:1054C00010BD70B500242000C0B210282EDA1A4D8D
:1054D000286840782100C9B2491CB0EBC10F23DA1B
:1054E0002868C0782100C9B2B0EBC10F1EDB2000D4
:1054F000C0B2FFF7BFFF28680078FFF7C5FF286834
:105500000678286880783100C9B288420CD30B48ED
:1055100001682200D2B28020424352FA86F0085C31
:10552000FFF79BFF761CECE7641CCCE7FFF73CFF22
:1055300070BD0000000800488C270020882700204C
:1055400080B5AE20FFF77CFFA220FFF779FFA020F7
:10555000FFF776FFC820FFF773FF2F20FFF770FFDC
:10556000322000F0C7FEA420FFF76AFF4020FFF7BB
:1055700067FF2520FFF764FF0A2000F0BBFE8120B3
:10558000FFF75EFF1220FFF75BFFFFF729FFAF2059
:10559000FFF756FF052000F0ADFE01BD62F30F22BC
:1055A00062F31F42401810F0030308D0C91A1FD33A
:1055B000DB0748BF00F8012D28BF20F8022D13009B
:1055C00030B414461546103928BF20E93C00FAD8FB
:1055D000490728BF20E90C0048BF40F8042D890086
:1055E00028BF20F8022D48BF00F8012D30BC7047BD
:1055F000C91818BF00F8012DCB0728BF00F8012DEE
:105600007047000070B4039CDFF884532860297150
:105610006A71AB71EC7101262E7270BC70472DE976
:10562000F74F04000D00DFF868639DF80800B179BA
:10563000884204D3F0799DF80810884202D22E20C7
:105640008DF80800307A002845D1002738003179DC
:10565000C0B288423DD231689DF80820B079121A54
:105660003079424301EB02003900C9B210F80190D1
:10567000002080464046C0B2082828DA3800C0B270
:1056800050FA84F0802805DA4046C0B250FA85F01E
:10569000402801DB00205DE1012010FA08F04946B6
:1056A000C9B2014208D0012218EB0501C9B238196C
:1056B000C0B200F06FF907E0002218EB0501C9B293
:1056C0003819C0B200F066F918F10108D2E77F1C62
:1056D000BCE730793EE1307A012840F08E80707965
:1056E000082190FBF1F201FB1200012806DB707922
:1056F000082190FBF1FB1BF1010B03E070790821FD
:1057000090FBF1FB31795846C0B24143491C8DF8FA
:10571000011031689DF80820B079121A9DF8010037
:10572000424301EB020001788DF80010401C01900B
:105730005FF0000840469DF80010C0B2884259D280
:105740005FF0000948465946C0B2C9B288424ED2FD
:1057500001994246D2B25846C0B2424301EB020020
:105760004946C9B210F801A0002007003800C0B2B5
:10577000082839DA4046C0B250FA84F0802808DAA6
:105780004846C0B2C00050FA85F050FA87F0402871
:1057900001DB0020DEE04846C0B2C00050FA87F0CE
:1057A000717988421EDA0121B9405046C0B20842E0
:1057B0000CD001225FFA89F915EBC9017918C9B239
:1057C00018EB0400C0B200F0E5F80BE000225FFA2D
:1057D00089F915EBC9017918C9B218EB0400C0B2F8
:1057E00000F0D8F87F1CC1E719F10109AAE718F108
:1057F00001089FE79DF80000ACE0307A022840F0F5
:10580000A8807079082190FBF1F0401C8DF8000011
:1058100030799DF8001010FB01F08DF8020031681E
:105820009DF80820B079121A9DF80200424301EB5E
:105830000200019096F804B000208DF801000021CC
:105840000020002210009DF80030C0B298420CD217
:105850003079431E9DF801001B1A13FB02F0019BD7
:10586000C0B2185C0100521CECE70800C0B200286E
:105870000BD1BBF1010B5846C0B2002805D09DF8F2
:105880000100401C8DF80100D9E7002738009DF881
:105890000010C0B2884259D25FF000084046594615
:1058A000C0B2C9B288424FD201993A00D2B230791F
:1058B000424301EB02004146C9B210F801905FF08B
:1058C000000A5046C0B208283BDA4046C0B250FA3F
:1058D00084F0802808DA3800C0B2C00050FA85F0A1
:1058E00050FA8AF0402801DB002033E03800C0B2D3
:1058F000C00050FA8AF0717988421FDA012111FA4A
:105900000AF14846C0B208420CD00122FFB215EBA2
:10591000C7011AEB0101C9B218EB0400C0B200F0D4
:1059200039F80BE00022FFB215EBC7011AEB0101B9
:10593000C9B218EB0400C0B200F02CF81AF1010A49
:10594000BFE718F10108A9E77F1C9FE75846C0B2DE
:1059500000E00020BDE8FE8FF8B504000F00150040
:105960000B484079D0F13F003900C9B288420EDBC4
:10597000287800280BD02A783900C9B22000C0B29C
:10598000FFF74DFE0600701C04196D1CF0E7F1BD19
:105990005C270020F8B504000D0016002000C0B2FE
:1059A000802803DA2800C0B2402800DB57E030002E
:1059B000C0B2002824D02900C9B20822DFF8CC31B7
:1059C0002800C0B2082790FBF7F78020474357FA1A
:1059D00084F72800C0B25FF0080C90FBFCFC80202C
:1059E00000FB0CFC5CFA84F0185C5FF0010C91FB8E
:1059F000F2FE02FB1E111CFA01F10143D95524E00D
:105A00002900C9B20822DFF884312800C0B2082773
:105A100090FBF7F78020474357FA84F72800C0B27D
:105A20005FF0080C90FBFCFC802000FB0CFC5CFA97
:105A300084F0185C5FF0010C91FBF2FE02FB1E117A
:105A40001CFA01F130EA0101D9552B00DBB222002A
:105A5000D2B22900C9B22000C0B2FFF769FCF1BD83
:105A60002DE9F84F05000E00170098460A9C3800F3
:105A7000C0B22900C9B2401A03F0F7FD8146404682
:105A8000C0B23100C9B2401A03F0EFFD814502DA1D
:105A90005FF0010B01E05FF0000B5846C0B2002838
:105AA00005D02800350006003800474680463800FB
:105AB0002900C0B2C9B2884205D228003D000700C3
:105AC0003000464680464346DBB23A00D2B231004F
:105AD000C9B22800C0B2FFF72BFC781B8DF800007C
